:100000000C9409030C9450030C9450030C9450036B
:100010000C9450030C9450030C9450030C94500314
:100020000C9450030C9450030C943C240C94102515
:100030000C94561F0C9450030C9450030C945003D2
:100040000C9450030C9450030C9450030C945003E4
:100050000C942E100C94A11F0C9450030C9450037C
:100060000C9450030C9450030C9450030C945003C4
:100070000C9450030C9450030C9450030C945003B4
:100080000C9450030C9450030C9450030C945003A4
:100090000C9450030C9450030C9450030C94500394
:1000A0000C9450030C9450030C94500335001E0024
:1000B0001F0020002100220023002400250026002C
:1000C00027002D002E002A0000002B0014001A002B
:1000D0000800150017001C0018000C001200130087
:1000E0002F0030003100A90029610400160007002C
:1000F00009000A000B000D000E000F00334234000F
:1001000000002800AA00E10000001D001B000600FE
:100110001900050011001000360037003800E50016
:1001200052000151E000E200E30000000000000086
:100130002C00000000000000E700E6005000510025
:100140004F00005C3A003B003C003D003E003F0099
:100150004000410042004300440045004C000000C4
:100160000100010001000100010001000100010087
:100170000100010001000100010001006A0001000E
:100180000100C75C010001000100C55C0100010025
:1001900001000100010000000100690039000000B9
:1001A000010001000100C95C010001000100010023
:1001B0000100010001000100010001000100010037
:1001C000000000000000AE00000000000100C25C62
:1001D000C35CAC00A800AB000100010001000100FD
:1001E0004D00010001000100010001004A00010072
:1001F00001000100000001000100010001000100F8
:10020000010001004B00010001000100010001009C
:10021000010001000100010001004E004E0001003C
:100220005000510052004F00010001000000010089
:1002300001000100000001004C00010001004B0022
:1002400001000100010001000100010001000100A6
:10025000010001000100000000000000010000009A
:10026000000001000100010001000100010032193D
:100270000A00047F3F1F643214643214783C1E1E4F
:10028000140A052223252628292A2C2D2F30323323
:100290003536383A3B3D3E4042434547494A4C4E4D
:1002A0005051535557595A5C5E6062646668696B79
:1002B0006D6F71737577797B7D7F81838587898A7F
:1002C0008C8E90929496989A9C9E9FA1A3A5A7A885
:1002D000AAACAEAFB1B3B4B6B8B9BBBCBEBFC1C2B5
:1002E000C3C5C6C7C9CACBCCCDCED0D1D2D2D3D448
:1002F000D5D6D7D7D8D9D9DADADBDBDBDCDCDCDC66
:10030000DCDDDDDDDDDCDCDCDCDCDBDBDBDADAD933
:10031000D9D8D7D7D6D5D4D3D2D2D1D0CECDCCCBB5
:10032000CAC9C7C6C5C3C2C1BFBEBCBBB9B8B6B4D3
:10033000B3B1AFAEACAAA8A7A5A3A19F9E9C9A9863
:10034000969492908E8C8A89878583817F7D7B7934
:10035000777573716F6D6B6968666462605E5C5A15
:100360005957555351504E4C4A4947454342403ED8
:100370003D3B3A3836353332302F2D2C2A2928266A
:10038000252322FFAA7F5540000000000000000046
:1003900000000001010203040506080A0C0F1114F5
:1003A000181C2024292E33393F464C535B626A7156
:1003B00079818A929AA2AAB2B9C1C8CFD5DCE1E705
:1003C000EBF0F4F7FAFCFDFEFFFEFDFCFAF7F4F0AB
:1003D000EBE7E1DCD5CFC8C1B9B2AAA29A928A8173
:1003E00079716A625B534C463F39332E2924201CB5
:1003F0001814110F0C0A080605040302010100007D
:1004000000000000000000000001010101010101E5
:1004100001010202020202020202020303030303B9
:100420000303030404040404040405050505050688
:100430000606060607070707070808080809090946
:10044000090A0A0A0B0B0B0C0C0C0D0D0D0E0E0EEF
:100450000F0F0F1010111111121213131414151580
:1004600016161717181819191A1A1B1B1C1D1D1EF2
:100470001E1F202021222223242425262627282946
:10048000292A2B2C2D2D2E2F303132323334353674
:100490003738393A3B3C3D3E3F4041424344454674
:1004A0004748494A4C4D4E4F505153545556585950
:1004B0005A5B5D5E5F616264656668696B6C6D6FF7
:1004C0007072737577787A7B7D7E8082838587886A
:1004D0008A8C8E8F91939596989A9C9EA0A2A3A5A4
:1004E000A7A9ABADAFB1B3B5B7BABCBEC0C2C4C6A5
:1004F000C9CBCDCFD1D4D6D8DBDDDFE2E4E7E9EB61
:10050000EEF0F3F5F8FAFDFF0403300000002803D5
:100510004D006500630068006C006F0076006900A4
:100520006E002000480061006E006E0061006800EF
:10053000390031003000000014034D0065006300F5
:1005400068006C006F00760069006E000000040314
:10055000090409023B00020100A0FA09040000019D
:10056000030101000921110100012240000705815A
:100570000308000A09040100010300000009211119
:100580000100012232000705820320000A12011037
:1005900001000000084C4D02910200010203010518
:1005A000010980A101850319012AB700150126B7A9
:1005B00000950175108100C0050C0901A101850499
:1005C00019012AA002150126A002950175108100CB
:1005D000C005010906A101050719E029E715002555
:1005E00001950875018102950175088101050719BA
:1005F0000029FF150026FF009506750881000508F3
:10060000190129059505750191029501750391015F
:10061000C00011241FBECFEFDAE0DEBFCDBF04B6AD
:1006200003FE27C08091870390918803A0918903DE
:10063000B0918A038730904BA740B04BD1F4109211
:100640008703109288031092890310928A0314BEC4
:1006500084B7877F84BF0FB6F894A8958091600017
:10066000886180936000109260000FBEE0E0F8E3C4
:10067000099511E0A0E0B1E0E6EEF0E502C00590DA
:100680000D92A63CB107D9F723E0A6ECB1E001C07A
:100690001D92A738B207E1F70E946D210C942E2815
:1006A0000C940000229A509A519A529A08950E94EE
:1006B00051060C94520381FF03C02A9A0C94E6035E
:1006C0002A98FCCFCF92DF92EF92FF926B017C01D0
:1006D0000E94A91D8130B1F45A9AC701B6010E9447
:1006E000A91D823089F4599AC701B6010E94A91D3B
:1006F000833061F4589AC701B601FF90EF90DF9004
:10070000CF9008955A98E9CF5998EECF5898F3CFE3
:1007100081E0089581E008950C948A0308950C9473
:100720008E031F93CF93DF9300D000D00F92CDB7ED
:10073000DEB749835A836B833091790289819A812C
:1007400031111DC06623B9F02223A9F00E94651C57
:10075000182F682F89819A810E94111C69817A81E2
:10076000812F0F900F900F900F900F90DF91CF91EE
:100770001F910C944F040E943D1C182FEFCF0E9434
:10078000651C69817A81EDCFFC01262F4081518162
:100790006281738184810C949103CF93DF93EC0188
:1007A00060E00E94C403BE01DF91CF910C948F03DF
:1007B0000E94EB1F0E94FC1D811102C00E94A21E1C
:1007C0000E949D100C9457030C945306089581E0E9
:1007D00008950C94E703CF93C82F0E945B038C2FDE
:1007E000CF910C94E90308950E947D170E94F303B2
:1007F0002FEF84E39CE0215080409040E1F700C05F
:1008000000000C94C51F0F931F93CF93DF93EC014F
:1008100061E00E94C4038C01BE010E948C03882306
:1008200089F1BE01C8010E94860F882359F1BE01DB
:10083000C8010E944C11882329F1BE01C8010E9401
:100840008D118823F9F0BE01C8010E94B0128823DF
:10085000C9F0BE01C8010E94200E882399F08A8148
:10086000882339F001158CE5180751F00E3D1C4521
:1008700079F0CE01DF91CF911F910F910C948803F5
:100880000E94F40380E0DF91CF911F910F910895B2
:100890000E94A21EF7CF90E080E008950895972F60
:1008A00070E02FE0929F600D711D1124FB019BE40D
:1008B000899FE00DF11D1124EE0FFF1FE455FF4F3E
:1008C000859194910895FC01EE0FFF1FE259FD4FB1
:1008D000859194910895CF93DF930E944F040E94D5
:1008E0007705EC01811520E5920708F041C08115DC
:1008F00030E4930708F0B4C0803E910518F5803CC1
:10090000910508F09DC0883A910570F4853A9105EB
:1009100008F08EC081309105F9F00097E9F0049756
:10092000D8F4D0E0C0E018C08F3B9105D0F7C85A8A
:10093000D0E0CC0FDD1FCC5DDE4F0990D881C02DFB
:10094000D4640AC08115904258F4C11581E0D807DB
:1009500018F4C83ED10528F7CE01DF91CF91089554
:10096000C11590E3D90708F071C0CE019F706AC02D
:10097000811525E5920758F5811534E5930708F0B0
:100980009EC0811542E5940750F4C11581E5D80752
:1009900008F469C0DC2FCC27C16FD06ADDCF982F57
:1009A000969596959E0123703327C115D34508F07F
:1009B00077C0C1E0D0E002C0CC0FDD1F2A95E2F77E
:1009C00020E2929FC0011124C82BD92B67C0C1150A
:1009D00089E5D807A8F4C11598E5D90708F074C0CF
:1009E000C11526E5D20708F09CCF8C2F0E940E0679
:1009F000C82FD0E0DC2FCC27CC27DF71D062ACCF62
:100A0000C1153AE5D30708F464C0CE0190568115AC
:100A1000904208F086CF8D2F8F710E940E0690E0D5
:100A2000982F882788279F719C012C2BE901E6CFFE
:100A3000C55AD0E0CE5ADE4FC881D0E0D0648CCF0A
:100A4000805C91090E946304EC0186CFCE01992756
:100A5000D3FF03C0EC01D86C7FCFEC01D06C7CCF0E
:100A6000DF70D06A79CFCE01E4E096958795EA955C
:100A7000E1F783702C2F26952695237090E2299F0D
:100A800090011124382B8C2F8370C1E0D0E002C07C
:100A9000CC0FDD1F8A95E2F7C22BD32BDC685CCF2D
:100AA000C1E0D0E002C0CC0FDD1F2A95E2F730E2B2
:100AB000939FC0011124C82BD92BDA684DCFD82FB2
:100AC000CC27C46FD06A48CFDC2FCC27C06FD06A48
:100AD00043CF8C2F8F700E940E0634E0D695C795B9
:100AE0003A95E1F7CF709C2FEC01D06935CF823871
:100AF0009105B1F1B0F48133910509F475C048F462
:100B00008932910509F469C08A32910509F473C0EC
:100B100008958533910509F459C08933910501F190
:100B20000895833E9105A9F138F4803E9105F9F0CE
:100B3000823E910549F10895863E9105A9F1873ECF
:100B40009105C9F1843E910519F52091790321FFA2
:100B50001FC08091780384FD14C087EE90E0089553
:100B6000209178032370A1F080EE90E00895209109
:100B7000780320FD47C03091790330FF09C024FF7E
:100B800044C090E080E004C02091780322FDF7CFBC
:100B900008952091780322FD3BC03091790330FD08
:100BA000E3CF24FFF5CFEDCF2091780323FFF0CFE3
:100BB00024FDE7CFD2CF2091780323FD2CC03091C4
:100BC000790331FFEECF84EE90E008952091780311
:100BD00025FFDECF89E290E008952091780325FF7C
:100BE000D7CF85E390E008952091780326FFD0CFFA
:100BF0008AE290E008952091780326FFC9CF81E32F
:100C000090E0089589E390E0089583EE90E00895E0
:100C100082EE90E0089586EE90E00895909178033A
:100C200092FF06C0282F28712830F9F4877F84604E
:100C300093FF06C0282F28712831F1F4877E846144
:100C40002091790320FF06C0382F38713830D9F44D
:100C5000877F816021FF06C0282F28712831D1F4B9
:100C6000877E816194FD877E0895282F247124302A
:100C7000F9F68B7F8860DCCF282F2471243101F7AF
:100C80008B7E8861DDCF382F3171313019F78E7F3F
:100C90008860E0CF282F2171213121F78E7E886175
:100CA000E1CF089508950C945206E82FF0E0EE0F7E
:100CB000FF1FE05FFC4F808191810895089580EAD5
:100CC0008A95F1F70895CF93DF93A4E6B1E049E662
:100CD00051E0C1E0D0E08D91E82FE295EF70F0E0B7
:100CE00061A18F709E0101C0220F8A95EAF7922FB1
:100CF0009095962391A382A1822B82A34A175B072A
:100D000051F7A5E5B1E061E070E08D91E82FE29543
:100D1000EF70F0E041A18F709B0101C0220F8A9516
:100D2000EAF7922F9095942391A382A1822B82A31C
:100D300081E0A436B80749F7109207031092060322
:100D400010921103109210031092090310920803DD
:100D5000109213031092120310920B0310920A03C5
:100D6000109215031092140310920D0310920C03AD
:100D7000109217031092160310920F0310920E0395
:100D8000109219031092180385E00E945207DF9118
:100D9000CF910C94D8038F929F92AF92BF92CF9233
:100DA000DF92EF92FF920F931F93CF93DF9384E62E
:100DB000E82E81E0F82E06E013E0912CAA24A394FB
:100DC000B12CF70181917F01C82FC295CF70D0E07F
:100DD00099A18F70650101C0CC0C8A95EAF7892F23
:100DE0008C2989A38AA18C2C809488218AA30E94B3
:100DF0005F06E5E5F1E050E040E030E020E06191A1
:100E0000A62FA295AF70B0E090968C9190E06F7095
:100E100002C0959587956A95E2F780FD3EC0C501B1
:100E2000042E02C0880F991F0A94E2F7282B392B51
:100E30004F5F5F4F4F30510511F789A1882289A27A
:100E40008AA1C82ACAA2F80180819181281739078E
:100E500039F13183208381E0982A0E5F1F4FF9E634
:100E6000EF16F1E0FF0609F0ACCF292D45E060E177
:100E700073E086E093E00E9453070E94E403892D0B
:100E8000DF91CF911F910F91FF90EF90DF90CF9066
:100E9000BF90AF909F908F90089590E080E0C6CF74
:100EA00080E0DACF0895FF920F931F93CF93DF93E3
:100EB000F82E092F162FD72FC42F222349F081E0B7
:100EC0008093C8010E94861F9093C7018093C6013A
:100ED0008091C8018823A1F08091C6019091C7013B
:100EE0000E94921F069760F0EF2DF02FA12FBD2FCB
:100EF00090E080E0D0E08C179D0744F01092C8018C
:100F0000DF91CF911F910F91FF9008952191319121
:100F10002D933D930196EFCFAF92BF92CF92DF9288
:100F2000FF920F931F93CF93DF93362F472FE82F16
:100F3000F0E0E85FFB4F71110DC06491762F862FB2
:100F4000DF91CF911F910F91FF90DF90CF90BF90D5
:100F5000AF900895C72FD0E02491F22E022F10E019
:100F600056E0659FC0011124EFEFF0E0BF010E9441
:100F7000EC26832F90E0880F991F35E5369FD0012E
:100F8000379FB00D11248A1B9B0B982F990F980F38
:100F90006F01CC1ADD0AC09ED001C19EB00DD09E5B
:100FA000B00D11248B2F949FA0011124452F55279C
:100FB0006F01C41AD50AC09EA001C19E500DD09EDB
:100FC000500D11245F01A91AB108AC9E6001AD9EBD
:100FD000D00CBC9ED00C1124CD2CDD24EC19FD09C5
:100FE000E09FE001E19FD00DF09FD00D1124ED2F87
:100FF00062307105A1F048F46115710569F0613046
:10100000710589F0EB2F852F07C06430710571F0F1
:1010100088F066307105B1F76E2F722F91CFE22FF5
:101020002B2F8D2FF9CFE22F252FF6CFEB2F822FED
:101030002D2FF2CF2B2F8F2DE52FEECF0895CF93AD
:10104000DF93762FE901682F842F0E948C07798324
:1010500068838A83DF91CF91089580911A03982F36
:101060009E7F29F48170826080931A0308958635EB
:10107000E8F381708465F8CF88E090E00C94C7278E
:10108000CF92DF92EF92FF926B017C010E942D08BC
:10109000B701A60188E090E0FF90EF90DF90CF903D
:1010A0000C94E527EAE1F3E083E0808311828FEF7F
:1010B00082838383148260817181828193810C9405
:1010C000400880911A0380FF02C08695089580E051
:1010D000089580911E03833018F48F5F80931E0360
:1010E00060911A0370911B0380911C0390911D0362
:1010F0000C94400880911E03882319F0815080933E
:101100001E0360911A0370911B0380911C03909140
:101110001D030C94400870E00C94B310609107011B
:1011200080911A0380FF0AC08091060123E0829F0C
:10113000C0011124815E9C4F0C948B0880910801A2
:101140009091090123E0829FF0011124E15EFC4FA0
:10115000891750F71182108212828F5F3396F8CF71
:1011600090911A0390FF14C09091080120910901F9
:1011700033E0939FF0011124E15EFC4F921710F0D1
:101180000C948E088183608342839F5F3396F6CFF1
:101190000895CF93DF9300D00F92CDB7DEB7909133
:1011A0001A0390FF0AC09E012F5F3F4F0E941F0845
:1011B0004B8169818A810E94B0080F900F900F9037
:1011C000DF91CF910895CF93DF93EC01EC81F0E0B4
:1011D000ED57FD4F4491EAE1F3E0628181810E9485
:1011E000C9088C818F5F8C83DF91CF910895CF9355
:1011F000DF93EC01EAE1F3E0438162818C810E949C
:10120000C9088C818F5F8C83DF91CF9108950F93F4
:101210001F93CF93DF9300D00F92CDB7DEB78C0131
:101220008091C90181110AC09E012F5F3F4F4FEF8E
:101230006FEF0E941F088A818093C901F8016481C1
:10124000613069F08091C90140E0662361F040E0BF
:10125000623011F44091C90180E060E004C0609107
:10126000C90140E080E00E94B008F801848190E06C
:10127000019663E070E00E94002784830F900F9036
:101280000F90DF91CF911F910F910895AF92BF9270
:10129000CF92DF92EF92FF920F931F93CF93DF9342
:1012A00000D00F92CDB7DEB7182FF62E042FE22E06
:1012B00090911A0390FF29C0E92FE695AE2FB0E078
:1012C000A759BE4F8C9180935F029E7F923059F553
:1012D0009E012F5F3F4F812F0E941F084B81698124
:1012E0008A810E94B00810931B03F0921C030093A4
:1012F0001D03EE2051F060911A0370911B03809141
:101300001C0390911D030E9440080F900F900F90B6
:10131000DF91CF911F910F91FF90EF90DF90CF90D1
:10132000BF90AF900895823019F400911D03DBCF78
:10133000863019F410911B03D6CF8930D9F3893147
:1013400091F6E9518E2F8170D82EE695F0E0ED5799
:10135000FC4FA590B490C12CBB2460910A01C61625
:1013600018F00E948E08BFCF2C2D30E0A29EC00145
:10137000A39E900DB29E900D112470E00E94EC2669
:10138000812FD11013C0860F40910801420F532FB7
:10139000511D9A01220F331F240F351F215E3C4F30
:1013A000402F6F2D0E941F08C394D7CF861BECCF10
:1013B000EAE1F3E09181282F4381628188E0890F7F
:1013C0000C94460981E00C94D809EAE1F3E091819C
:1013D000282F4381628188EF890F0C94460981E0B0
:1013E0000C94E509EAE1F3E0628121E1620F08F47F
:1013F0006FEF282F438181810C94460981E00C9482
:10140000F209EAE1F3E0628121E1621B08F460E0A5
:10141000282F438181810C94460981E00C94010AB4
:10142000EAE1F3E0438121E1420F08F44FEF282F76
:10143000628181810C94460981E00C94100AEAE1F2
:10144000F3E0438121E1421B08F440E0282F628150
:1014500081810C94460981E00C941F0A20E00C94D1
:101460004609EF92FF921F93CF93DF93EC0110E0B8
:10147000EE24EA94F12C60910A01161770F00E9494
:101480008E089A818C8190FF27C08F5F8C83DF91BB
:10149000CF911F91FF90EF90089520910801422F66
:1014A000410F5527551FCA019A01220F331F280FDC
:1014B000391F215E3C4F70E0C7010E940027962F24
:1014C0008C8140911D0360911C03199F800D112494
:1014D0000E941F081F5FCFCF8150D8CFAF92BF921D
:1014E000CF92DF92EF92FF920F931F93CF93DF93F0
:1014F000FC0182810FEF80FF01E010E04CE1A42E9F
:1015000080910A011817C8F00E948E088091CB01C3
:10151000013009F055C0811102C080910A0181504B
:101520008093CB01DF91CF911F910F91FF90EF90AE
:10153000DF90CF90BF90AF900895C0910801C12E69
:10154000D12CCC0DDD2DD11DCE01880F991FC80FD8
:10155000D91FC15EDC4F198218821A8234E0E32E53
:10156000F12CB12C8091CB018B0D8D311CF16A2DAA
:101570000E94DE26892F082E000C990BC816D9066A
:1015800091F480911D038E9DA0018F9D500D11241B
:1015900055954795559547959E0160911C038091FF
:1015A0001B030E941F08B00EF1E0EF1AF108D1F6FC
:1015B0001F5FA6CF87FFDFCF90910A01890FDBCF96
:1015C00090E0019660910A0170E00E940027A8CF88
:1015D0000F931F93CF93DF9380910801909109019E
:1015E00023E0829FF0011124E15EFC4F891740F156
:1015F000C0E0D3E060910A01C61740F10E948E0856
:10160000209104018091CA01820F8093CA019091B8
:101610000501920F90930501191654F4082E000C41
:10162000990B40910A014150550B841795071CF006
:10163000219520930401DF91CF911F910F9108957F
:101640001182108212828F5F3396D0CF0C2F10E060
:1016500070E0C8010E94002720910801820F482FE6
:1016600050E02091CA01022E000C330B0217130721
:10167000BCF020910501022E000C330B201731071E
:101680007CF08D9F90011124215E3C4F40911D0301
:1016900060911C0380911B030E941F08CF5FAACF9B
:1016A000FA01EE0FFF1FE40FF51FE15EFC4F118200
:1016B00010821282F3CF0F931F93CF93DF938C018D
:1016C000FC0184819581019681709927958384839B
:1016D000C0E0D5E580910A01C81730F0DF91CF91C5
:1016E0001F910F910C948E0820910801422F4C0FEE
:1016F0005527551FCA019A01220F331F280F391F82
:10170000215E3C4F8C2F8695F80144815581840FD2
:10171000952F911D817040911D0360911C038D9F39
:10172000802D11240E941F08CF5FD4CF0F931F93E9
:10173000CF93DF93EC0110E000E090910A01901745
:10174000110609F06CF40E948E088C8190E00196DD
:10175000817099278C83DF91CF911F910F9108950C
:1017600020910801A801420F511D9A01220F331F39
:10177000240F351F215E3C4F4C8160911C038091EA
:101780001B0396959017110651F04CF0442349F035
:1017900040911D030E941F080F5F1F4FCECF4423AF
:1017A000B9F340E0F7CF8F929F92AF92BF92CF9262
:1017B000DF92EF92FF920F931F93CF93DF93FC0181
:1017C000B280948081E0848300E015E05BE4A52E84
:1017D00088248394EE24EA94F12C7BE4C72ED12C48
:1017E00080910A01081770F0DF91CF911F910F913E
:1017F000FF90EF90DF90CF90BF90AF909F908F9031
:101800000C948E08C02FD0E01C9FF0011D9FF00D9E
:101810001124E453FE4F91101CC0138212822091B8
:101820000801CE01820F911D9C01220F331F280F4A
:10183000391F215E3C4F1C9FF0011D9FF00D1124AC
:10184000E453FE4F4281618180810E941F080F5F37
:10185000C7CF2381222379F12150238334818A2D1C
:10186000821B311101C0822F1C9FF0011D9FF00DC2
:101870001124E453FE4F90911D03899FC001112450
:10188000B6010E94EC266283211104C0332311F0BB
:101890001482A38222E02B1510F21C9FF0011D9FE1
:1018A000F00D1124E453FE4F80911B03808380913F
:1018B0001C038183B4CF0E94A227823091400CF098
:1018C000AECF82E08B1530F50E94A227B7010E94AF
:1018D00000271C9FF0011D9FF00D1124E453FE4FC3
:1018E000808322E02B15C8F40E94A22720911C03BC
:1018F0002695622F70E00E940027280F1C9FF001A0
:101900001D9FF00D1124E453FE4F21831282A38208
:10191000848285CF80911B03DCCF20911C03EECF06
:10192000EAE1F3E080818E7F808360817181828132
:1019300093810E944008109260022FEF80E792E0AE
:10194000215080409040E1F700C000000C948E08C8
:1019500060911A03669570E04BE050E08BE091E0F7
:101960000E94B227892B19F481E0809360020E94C3
:10197000861F9093590280935802089590911A03FC
:1019800090FF35C09170811128C0926090931A0326
:10199000662351F060911A0370911B0380911C0320
:1019A00090911D030E94400860911A03669570E0B3
:1019B0004BE050E08BE091E00E94B227892BA1F030
:1019C0001092600281E080935B0240911D03609160
:1019D0001C0380911B030C942E0A8B3210F094652B
:1019E000D5CF880F982BD2CF0E94A80CEBCF0895AB
:1019F000682F90911A03969581E0890F8B3208F039
:101A000081E00C94BE0C81E00C94F80C682F90914E
:101A10001A0396958FEF890F09F48AE20C94BE0C95
:101A200081E00C94060D61E00C94BE0CEAE1F3E059
:101A300080818160808386950C94130D80911A03B8
:101A400080FD0C94900C0C94160D60E00C94BE0C70
:101A500080915E0281112EC00E94FC1D811104C084
:101A60000E94A21E0E9452080E943C0860931A0322
:101A700070931B0380931C0390931D036E7F61F48E
:101A80000E9452080E943C0860931A0370931B0343
:101A900080931C0390931D030E942D0810926002F6
:101AA00080911A0380FF03C086950E94250D81E076
:101AB00080935E0208950F931F93CF93DF938091DD
:101AC0006002882309F49DC080915F02E0911A03AF
:101AD000E695E81BE0935A028230C9F5F0E0E15840
:101AE000FD4FE491CE2FD0E003EE18E080915B0231
:101AF000882389F010925B020E94861F9E01209528
:101B00003095820F931F9093590280935802109240
:101B10005D0210925C0280915802909159020E94DD
:101B2000921F8C179D0708F46CC0E0915802F09149
:101B30005902CE0FDF1FD0935902C093580288E597
:101B400092E0F801DF91CF911F910F9109948630B7
:101B500049F4F0E0E458FD4FE491CE2FD0E007EFD8
:101B600018E0C4CF893051F4E695F0E0E758FD4F16
:101B7000E491CE2FD0E001E31AE0B8CF8F3051F4DA
:101B8000E695F0E0EA58FD4FE491CE2FD0E00EE666
:101B90001AE0ACCF853149F4F0E0ED58FD4FE49107
:101BA000CE2FD0E008EE1AE0A1CFC8EED3E00BE5CF
:101BB0001BE0883109F49ACF833239F4E1E7F2E08F
:101BC000C591D49107E019E091CFC4EFD1E006E9C7
:101BD0001BE0843209F48ACFC0EDD7E00EE118E0B3
:101BE000853209F083CF8E2F63E00E94D226E92F41
:101BF000F0E0E259FD4FE491CE2FD0E003ED1BE081
:101C000075CFDF91CF911F910F910895FA01811146
:101C100001C0FB010994CF93DF93C82FD62F0E94F8
:101C200061088C1740F00E9461088D1720F4DF9145
:101C3000CF910C94030D8C2FDF91CF910C94130D49
:101C40000F931F93CF938C01FB01C281CC2309F426
:101C500065C00E94FA1C8272F801E25CFC45E43126
:101C6000F10538F4E05DF74D0C9436270E941E0D07
:101C7000C0E08C2FCF911F910F91089540E15DE05E
:101C800063E07DE00E94060EF3CF43E05DE060E19B
:101C90007DE0F8CF4FEE59E062EE79E0F3CF42EE0F
:101CA00059E06FEE79E0EECF4DE05AE06EEF79E06B
:101CB000E9CF4EEF59E06DE07AE0E4CF4BE25AE035
:101CC0006CE17AE0DFCF4CE15AE06BE27AE0DACF08
:101CD0004AE758E069E678E0D5CF49E658E06AE798
:101CE00078E0D0CF81E00E94130DC2CF65E082E0A2
:101CF0000E940B0EBDCF68E086E0FACF6EE089E06F
:101D0000F7CF64E18FE0F4CF67E185E1F1CF88E1BF
:101D1000EACF62E289E1ECCF83E2E5CFC1E0A9CF6F
:101D200080917303869586958695089580917303B7
:101D300081FD07C08260809373030E942E1E0C9465
:101D4000191008958091730381FF07C08D7F8093E0
:101D500073030E942E1E0C94251008958091730326
:101D600081FD0C94A20E0C94960E809173038695BF
:101D7000817008958091160108950E94FC1D8111C3
:101D800002C00E94A21E0E942A1E8093730380320A
:101D900020F0877088618093730390917303892F7B
:101DA000817090FF04C0892F8695869586950C9446
:101DB000EF0F80917303982F969596959695933093
:101DC00040F49F5F990F990F990F8770892B80932B
:101DD0007303809173038160809373030E942E1EAE
:101DE000809173038695869586950C94EF0F80916C
:101DF0007303982F987F79F0885080937303887FBE
:101E000091E009F490E08091730390FB80F9809356
:101E100073030E942E1E8091730386958695869586
:101E20000C94EF0F8091730380FD13C08160809349
:101E30007303813019F489E08093730380917303F5
:101E40000E942E1E809173038695869586950C942C
:101E5000EF0F08958091730380FF08C08E7F8093F9
:101E600073030E942E1E80E00C94EF0F0895809162
:101E7000730380FD0C942A0F0C94120F909173033E
:101E8000892F8695869586958F5F8F7197708430A0
:101E9000D8F4880F880F880F892B80937303809163
:101EA0007303887F91E009F490E08091730390FBC5
:101EB00080F9809373030E942E1E80917303869590
:101EC000869586950C94EF0F90937303E8CF84303A
:101ED00008F083E0909173039770282F220F220F50
:101EE000220F922B90937303987F21E009F420E056
:101EF0009091730320FB90F9909373030C94EF0F70
:101F00000E94670F809173030C942E1EFC01DB016D
:101F100012968C918823F9F0EB5BFC45E730F105D4
:101F2000D8F4EC5BF74D0C94362783E00E94800FC9
:101F300080E0089580E0FACF0E94F70EF9CF0E946A
:101F4000D90EF6CF0E94370FF3CF0E943E0FF0CF8D
:101F50000E94AE0EEDCF81E00895279A2F98089544
:101F60002F980895CF92DF92EF92FF928C3724E161
:101F7000920750F469E070E00E94EC26CB01FF90DC
:101F8000EF90DF90CF900895B0E0A0E0BC01CD01CC
:101F90006A50774D8F4F9F4F982F872F762F662748
:101FA00025EF38E241E050E00E94142769017A01F0
:101FB000CA01B9010E94C2269B01AC01C701B6014A
:101FC0000E94C226672F782F892F992761157105E6
:101FD00021E08207910591F66FEF7FEFCFCFCF938E
:101FE000C82F8430F0F481111DC080918000877F5C
:101FF000809380000E94B00F2C2F30E0AFEFBFEF36
:102000000E943C2723E030E040E050E00E9414278B
:10201000C9010E94B20F90938D0080938C00CF91E4
:102020000895C3E080918000886080938000E4CFB1
:102030000895109262021092610210926302EFE61C
:10204000F0E08081816080830895EFE6F0E0808198
:102050008E7F80830E94900E0C94EF0F1F920F9240
:102060000FB60F9211242F933F934F935F936F936B
:102070007F938F939F93AF93BF93CF93EF93FF93F0
:102080000E94BA0E40916102509162024F5F5F4F11
:1020900094EF899F90011124CA01B9010E94EC2696
:1020A0009093620280936102B901660F672F661FE9
:1020B000770B71950E94EC266F77809163028230D6
:1020C00041F4603451F480916F008E7F80936F00F3
:1020D00004C0813011F46F37B1F3E62FF0E0E85718
:1020E000FC4FC4910E94900E282F41E051E0C49F04
:1020F000C001C59F900D112463E070E00E94EC26A2
:10210000269FC001279F900D11240E94B20F90932B
:102110008D0080938C00FF91EF91CF91BF91AF9193
:102120009F918F917F916F915F914F913F912F91EF
:102130000F900FBE0F901F9018950E94AD0F8AE070
:102140008093800089E1809381008FEF9FEF9093CF
:102150008700809386000E94BD0E0E94B50E8111FB
:102160000C94191008956A9A4EB14B7F5EB1546079
:10217000EFB7F8949B01220F331F260F371F280F4C
:10218000391F2817390741F4EFBF8FE594E0019715
:10219000F1F700C000000895DC016D91CD0178E0F9
:1021A0005EB9000000C067FF4EB9660F000000C0B6
:1021B00000C000C04EB900C07A9591F7E2CF0F93EE
:1021C0001F93CF93DF93C62FD42F022FFC01828160
:1021D0008823C9F0609366020E94861F909365026F
:1021E0008093640280E28C0F883008F050C0C77082
:1021F00081E001C0880FCA95EAF7DF91CF911F9166
:102200000F910C94101510916602161335C0809131
:102210006402909165020E94921F883C910560F5CE
:10222000C0E2CD0F1D17B9F080E2810F883040F475
:10223000177081E001C0880F1A95EAF70E94171500
:10224000C83048F481E09D2F977001C0880F9A959F
:10225000EAF70E941015802F0E94FD14C830B8F4D0
:10226000D77081E001C0880FDA95EAF7DF91CF914E
:102270001F910F910C94171580E28C0F883038F461
:10228000C77081E001C0880FCA95EAF7EFCFDF91F0
:10229000CF911F910F9108959C01CB01233F4CE5F5
:1022A000340731F190F4283DFCE53F07E9F0293D82
:1022B0004CE5340769F1273D3C4579F426E241EECF
:1022C00061EE0E94DF1080E00895253FFCE53F07A6
:1022D000B9F090F0263F3C45B9F0FC01828188239B
:1022E000D1F010926602089527E245EE65EEE9CF3F
:1022F00026E241EE60EEE5CF27E245EE64EEE1CF67
:1023000026E241EE62EEDDCF27E245EE66EED9CF62
:1023100028E241E0EBCF81E00895CF93DF93EC0119
:10232000FB018281882309F419C1C230FCE5DF0773
:10233000C0F1C6319CE5D90730F09E012A5F3C45CB
:102340002930310570F50E940F1E90937903809318
:102350007803C031ECE5DE0709F4CFC008F05BC0BC
:10236000C8308CE5D80709F4B6C088F5C430ECE570
:10237000DE0709F4A8C0C0F4C2308CE5D80709F420
:102380009CC0809178038260C330DC4509F498C01A
:1023900080917803909179030E941D1E0E947D1701
:1023A00080E0DF91CF910895809178038061C630FD
:1023B000ECE5DE0709F484C0809178038860C730BB
:1023C000DC4508F47DC080917803806279C0CC3010
:1023D0008CE5D80709F489C070F4809178038C608B
:1023E000CA30ECE5DE0709F46BC008F478C08091D0
:1023F00078038E7F65C0CE308CE5D80709F479C0AC
:10240000809178038B7FCF30DC4508F459C08091F0
:1024100078038F7E55C0CB3FECE5DE0709F457C04B
:1024200030F5C3318CE5D80709F46FC078F4C131B9
:10243000ECE5DE0709F465C0C231DC4509F0A8CF40
:102440000E947D17809178038F773AC0C5318CE563
:10245000D80709F462C008F476C0809179038160DE
:10246000CA3FDC4509F094CF8093790391CFCF3FE9
:10247000FCE5DF0709F44DC088F4809179038D7F76
:10248000CD3F9CE5D90781F3809179038E7FCE3FC4
:10249000DC4550F3809179038360E6CFC130FDE5E0
:1024A000DF0709F459C008F444C080E0C230DD45BC
:1024B00009F06ECF0E94A41E6BCF809178038160DB
:1024C0008093780365CF809178038460F9CF809101
:1024D00079038260C9CF809178038064F1CF0E9434
:1024E0007D17809178038068EBCF809178038D7F92
:1024F000E7CF80917803877FE3CF809178038F7D4A
:10250000DFCF809178038F7BDBCF80917803837F4F
:10251000D7CF809179038C7FA7CF8091780382FBFE
:10252000992790F921E0922790FB82F990FB83F99B
:10253000C7CF80917903982F909591708E7F892BCA
:1025400090FB81F991CF0E947D1790917803892F9C
:1025500097FB87F98058B4CF81E0ACCF81E021CFE1
:10256000CF93DF93EB0186319C4511F50E94FA1C55
:102570009A81992399F08A7A91E009F490E09093F6
:102580006702811109C089E20E94D51C0E94461D84
:1025900080E0DF91CF91089585E3F6CF80916702C7
:1025A000811104C089E20E94DC1CF0CF85E3FBCFDF
:1025B00081E0EFCF90936D0280936C020895E091DB
:1025C0006C02F0916D02309721F00190F081E02DC6
:1025D000099480E00895E0916C02F0916D023097CB
:1025E00021F00280F381E02D0994089520916A0280
:1025F00030916B022817390771F090936B0280932A
:102600006A02E0916C02F0916D02309721F0068031
:10261000F781E02D099408952091680230916902B4
:102620002817390771F09093690280936802E0914E
:102630006C02F0916D02309721F00084F185E02D5D
:102640000994089585B7806885BF85B7806885BF80
:102650000895089508950C94291308950C942D134A
:102660000E9422130E942A130C942B1381E00895D8
:102670000C9436130E947D1F0E9463060E94FF1F68
:102680000E94BD0E0E94280D0C942E139F92AF92B3
:10269000BF92CF92DF92EF92FF920F931F93CF934F
:1026A000DF93CDB7DEB72A970FB6F894DEBF0FBE23
:1026B000CDBF0E94CB060E943813882309F472C054
:1026C0005FE6A52E52E0B52E10E000E0902E802FA0
:1026D0000E9455066C01F501E190F1905F01E8164A
:1026E000F90609F459C08091F90281FD0E945E0645
:1026F00097012C253D2580E0EE24E394F12CA901DF
:102700004E215F21452B09F441C08E839F82CE204C
:10271000DF2081E0CD2809F480E088870E94861FB1
:102720008160782F9A8789874E815F8168858A8545
:102730000E94F513000F111FF801E159FD4F808130
:102740009181E826F926F182E0820E945B0D0E94C9
:1027500018100E94DF1290916E028917A1F10E9459
:10276000DF1280936E022A960FB6F894DEBF0FBE7A
:10277000CDBFDF91CF911F910F91FF90EF90DF9030
:10278000CF90BF90AF909F900C94EB038F5FEE0CB7
:10279000FF1C8F3009F0B3CF0F5F1F4F05301105BD
:1027A00009F094CF8FEF89838A831B820E94861F52
:1027B0008160782F9D838C8349815A816B818D81C3
:1027C0000E94F513C2CF2A960FB6F894DEBF0FBE53
:1027D000CDBFDF91CF911F910F91FF90EF90DF90D0
:1027E000CF90BF90AF909F900895CF93DF93CDB7D8
:1027F000DEB72B970FB6F894DEBF0FBECDBF4F8369
:10280000588769877A878B871E821D8285E0FE0143
:102810003796DE01119601900D928A95E1F7498174
:102820005A816B817C818D819E812B960FB6F894A5
:10283000DEBF0FBECDBFDF91CF910C94F319FC0129
:10284000808191810C94A71CCF93C82F882309F411
:1028500083C08238C1F40E94DF1281FD7DC089E30C
:102860000E94D51C0E94461D2FEF81EE94E021505E
:1028700080409040E1F700C0000089E30E94DC1C2A
:10288000CF910C94461D8338A1F40E94DF1280FD85
:1028900063C083E50E94D51C0E94461D2FEF81EE88
:1028A00094E0215080409040E1F700C0000083E5B3
:1028B000E5CF8438A1F40E94DF1282FD4DC087E489
:1028C0000E94D51C0E94461D2FEF81EE94E02150FE
:1028D00080409040E1F700C0000087E4CFCF8CEF4C
:1028E0008C0F813A90F46C2F809117019091180110
:1028F0000E94BB1E882329F08C2F0E94DC1C0E94A2
:10290000461D8C2F0E94D51CBBCF80E28C0F8830D7
:1029100048F4C77081E001C0880FCA95EAF70E94A9
:10292000FD1CAECFEBE5EC0FE33040F4F0E0EE53EE
:10293000FE4F808190E0CF910C94F612C85AC731B7
:1029400058F4EC2FF0E0EE0FFF1FEC56FE4F8081A5
:102950009181CF910C940C13CF910895882309F4A1
:102960004BC0823871F40E94DF1281FF45C089E3B9
:102970000E94D51C0E94461D89E30E94DC1C0C9419
:10298000461D833859F40E94DF1280FF35C083E56D
:102990000E94D51C0E94461D83E5EFCF843859F470
:1029A0000E94DF1282FF28C087E40E94D51C0E948B
:1029B000461D87E4E2CF9CEF980F913AF0F290E247
:1029C000980F983050F4877091E001C0990F8A9564
:1029D000EAF7892F0E94031DD2CF9BE5980F933011
:1029E00020F490E080E00C94F612885A873120F4AD
:1029F00090E080E00C940C130895CF93C82F0E94B0
:102A00002414C93349F42FEF87EE93E0215080401E
:102A10009040E1F700C000008C2FCF910C94AE14D1
:102A2000882321F00E94FD1C0C94461D08958823E4
:102A300021F00E94031D0C94461D0895BF92CF9271
:102A4000DF92EF92FF920F931F93CF93DF936C016E
:102A5000D62FC72FFC01058102950F70128111112D
:102A60000E941A1D0E94F31CE82E882391F0112366
:102A7000D1F08C2F807F803421F080E28D0F883060
:102A800090F082E00E94911D0E94F31C91E0E82EDC
:102A9000E926BC2EB2949FE0B922EB2DF0E0E55B75
:102AA000F74D0C943627E12CF4CF0C2F0F70C07F1C
:102AB00011F00295007F1123A9F0002359F080E264
:102AC0008D0F883010F0D11109C0802F0E94FD1C9D
:102AD0000E94461D8D2F0E94241414C0802F0E9436
:102AE0000D1DF6CF8D2F0E94AE14002359F080E209
:102AF0008D0F883010F0D1112CC0802F0E94031D43
:102B00000E94461D2B2D2850330B2430310520F414
:102B10000E94DF120E94EB03EE2009F493C10E9491
:102B2000EF1C80FD8FC1F60112820E94E91C0E94F9
:102B3000751BC6010E9443170E94E91CDF91CF91CB
:102B40001F910F91FF90EF90DF90CF90BF900C946A
:102B5000961B802F0E94131DD3CFFC2FFF70FF2EDA
:102B6000C07FC03219F0F29480EFF822DD2369F0C3
:102B7000D13049F1112391F1002351F1F601858102
:102B800080FFA8CF8F70858323C0112381F00111AE
:102B900006C00E942D1D8F290E941015B3CF013051
:102BA000C1F70E942D1D8F290E94331DABCF01114B
:102BB00006C00E943C1D8F2D0E941715A3CF013027
:102BC00009F4A0CFF6CF112329F0063008F09ACFF0
:102BD0008F2DE2CF053008F095CFEDCF002359F3CC
:102BE000D93349F4FFEF27EE33E0F1502040304075
:102BF000E1F700C000008D2F0E94AE1483CF8C2F10
:102C000086958695837069F0813009F07BCF8D2F92
:102C10009C2F9370111102C090E080E00E940C1371
:102C200071CF8D2F9C2F9370111102C090E080E026
:102C30000E94F61267CF8C2F837009F041C01111EA
:102C400061CF4D2F429546954770440F440F0D2F8D
:102C50000F7010E030E020E0042E04C0000F111FC0
:102C6000221F331F0A94D2F760E070E0CB01D4FF3B
:102C70000FC06FE070E080E090E004C0660F771F47
:102C8000881F991F4A95D2F7609570958095909509
:102C9000C695C695C370602B712B822B932BC230C7
:102CA00049F058F4C13019F00E94291B2BCF0E9423
:102CB000171B28CF0E943B1B25CF0E94151B22CF3C
:102CC0008695112311F08C2F8170882309F41ACF77
:102CD0004D2F429546954770440F440F0D2F0F70AE
:102CE00010E030E020E0042E04C0000F111F221F6E
:102CF000331F0A94D2F760E070E0CB01D4FF0FC01D
:102D00006FE070E080E090E004C0660F771F881FDE
:102D1000991F4A95D2F76095709580959095C695C4
:102D2000C695C370602B712B822B932BC23049F058
:102D300058F4C13019F00E94EC1BE4CE0E94DA1B5B
:102D4000E1CE0E94FE1BDECE0E944F1BDBCECF7079
:102D5000112329F08C2F0E94751B8D2F1DCF8D2FD5
:102D60000E9417158C2F0E94961BCCCED23F89F162
:102D700060F4D03FC9F0D13F29F1112309F442C0DA
:102D80000111A8CE8C2F8F7121C0D33F39F1D43FD0
:102D9000A1F7112369F1CF718C2F0E94751B63E09D
:102DA0008C2F0E947C1DAECE112341F0053008F01F
:102DB000A9CE8C2F8F710E94B91BA4CE063008F0CB
:102DC000A1CEF7CF8C2F8F71112369F20E94751B52
:102DD00099CE8C2F8F711123C9F3C5CF112329F000
:102DE0008C2F8F710E94601B8DCE0E945B1B8ACE40
:102DF00081E00E94911D023008F484CE82E00E949E
:102E0000911D80CE002359F0D93309F0F4CE8FEF15
:102E100097EEE3E081509040E040E1F7EACE8C2F5E
:102E20008F71A1CF4C2F4F706D2FC6010E944B04A4
:102E30000E948D1A67CE4C2F4F706D2FC6010E94D5
:102E40004E0460CEDF91CF911F910F91FF90EF90D4
:102E5000DF90CF90BF9008950F931F93CF93DF9390
:102E6000EC01688179818A810E94B11C8C010E94E9
:102E7000101C0E94141BB801CE01DF91CF911F914D
:102E80000F910C941E15CF93DF93EC018B819C81E5
:102E9000892B29F08881998189238F3F59F4DF910B
:102EA000CF910895CE010E942C17CE01DF91CF91D2
:102EB0000C94CD03CE010E9403048111F3CF0E9434
:102EC000F31C882361F38A81882349F382E0DF9130
:102ED000CF910C94911D0E941A1D0E942A1D0E94E0
:102EE000461D90E080E00E94F61290E080E00C9495
:102EF0000C130E94E31C0C946B170E940A1D0C9487
:102F00007917E92FE295EF70E250EE3070F4F0E0BF
:102F1000E55AF74D0C943627803F19F020F4883E8F
:102F200020F481E00895843FE1F380E00895883E35
:102F3000C0F3813FD1F7F5CF93FB882780F908953F
:102F40000E94A71C0C948117CF93DF9300D000D070
:102F50000F92CDB7DEB70F900F900F900F900F909C
:102F6000DF91CF910895CF93DF9300D000D000D0B0
:102F7000CDB7DEB726960FB6F894DEBF0FBECDBF35
:102F8000DF91CF9108951F93CF93DF93C0917A0281
:102F900016E080917B028C1304C0DF91CF911F91CA
:102FA0000895D0E01C9FF0011D9FF00D1124E458FE
:102FB000FD4F4081518162817381848195810E949E
:102FC000B3172196C770E5CF4091AC025091AD0286
:102FD0006091AE027091AF028091B0029091B10207
:102FE0000C94B3171F93CF93DF938091B102807F2E
:102FF000A9F48091AE02882389F080917A02C09171
:103000007B026091AC027091AD02A091AF02B091D1
:10301000B002D62FD72316E0C81304C0DF91CF919A
:103020001F91089590E0109711F0DF3F19F4019679
:103030008770F2CF189F9001199F300D1124F9016C
:10304000E458FD4F41814713F2CF40814613EFCF43
:1030500042814111ECCF438154814A1B5B0B483CB8
:10306000510528F78091B1028F7080618093B10281
:10307000F901EF57FD4F80818F70806180838CEA6A
:1030800092E00E944317DF91CF911F910C94C317D8
:10309000AF92BF92CF92DF92EF92FF920F931F9366
:1030A000CF93DF93CDB7DEB761970FB6F894DEBF4D
:1030B0000FBECDBF8C0185E0F801DE011D960190A9
:1030C0000D928A95E1F7F80140815181E2808CEA06
:1030D000C82E82E0D82E6091AF027091B0026115C7
:1030E000710509F461C19091AC022091AD02892F64
:1030F00082238F3F09F458C1A380B480F090AE02C0
:10310000F501E61BF70BFF2009F4FCC08091B1022A
:10311000382F307FE83CF10508F0B2C0311179C09A
:10312000FE2C251323C0941321C0E1101FC08F7003
:1031300080618093B1020E94E417C6010E94431788
:103140008091B102F80185838F2D61960FB6F894B6
:10315000DEBF0FBECDBFDF91CF911F910F91FF90CA
:10316000EF90DF90CF90BF90AF900895AB2829F0FB
:10317000842F85238F3F09F033C180E0F82FF17051
:10318000DF2E80FF3CC080917A0220917B0236E0E6
:10319000821315C04D875E878D859E850E94A71C72
:1031A000292F22952F702230F0F0243018F59F70CF
:1031B000F1F0F8019581907FD1F4D12C1EC090E000
:1031C000389FF001399FF00D1124E458FD4F6181C3
:1031D000651306C06081641303C062816E110FC065
:1031E00001968770D5CF9F7011F0882331F3805EF0
:1031F000883018F3C8010E944317FD2CA5CFEE209C
:1032000009F4A2CF8091B10281608093B102F12CC8
:103210009BCF251306C0941304C0F801EE2009F4D7
:103220008DC04D875E878D859E850E94A01788235F
:1032300019F1EE2009F18091B102803270F02091F5
:10324000AC023091AD0238872F831986BB86AA86DF
:103250008C87CE0107960E94431786E0F801ACEAFE
:10326000B2E001900D928A95E1F70E94F2170E9458
:10327000E417FF24F39468CFC8010E944317F9CFE5
:10328000311113C07A2DB98AA88A6E2D89890E94BE
:10329000A4178CEA92E00E94431786E0F60111928F
:1032A0008A95E9F70E94E417B2CF25130FC0941353
:1032B0000DC0E1100BC0F8018583C8010E944317BF
:1032C00086E0F60111928A95E9F73ECF4D875E8739
:1032D0008D859E850E94A017882371F2EE2061F2F1
:1032E0008091B102803208F4B8CF2091AC023091C5
:1032F000AD023A8329831B82BD82AC828E83CE01CC
:103300000196A9CFE83CF10508F041C0FE2CEE2063
:1033100009F4B2CF25132AC0941328C08091B102BA
:1033200080FD1BC0982F907FC1F0F8018583903FEE
:1033300031F0982F907F905F8F70892B8583C80123
:103340000E94431786E0F801ACEAB2E001900D92CA
:103350008A95E1F70E94E417F7CE86E0F801ACEA1F
:10336000B2E001900D928A95E1F7EECE4D875E872F
:103370008D859E850E94A01781116FCF8091B1022B
:1033800081608093B102C8010E944317DDCE7A2D7F
:10339000B98AA88A6E2D89890E94A41786E0F60151
:1033A00011928A95E9F7D6CFEE2009F465CF4D87C3
:1033B0005E878D859E850E94A017F82E882309F4CC
:1033C0005BCF86E0F801ACEAB2E001900D928A95FD
:1033D000E1F78CEA92E00E941F140E94F217BACF24
:1033E00081E08E25CBCE1F93CF93DF93CDB7DEB791
:1033F0002C970FB6F894DEBF0FBECDBF4F83588712
:1034000069877A878B879C87CE0107960E94481828
:10341000882369F08A859B85892B39F04F815885EF
:10342000842F85238F3F09F071C016E05FC086E0CE
:10343000FE013796DE01119601900D928A95E1F713
:103440008A859B85892B89F38F81988589238F3F76
:1034500061F320917B0230E0C901019687709927C2
:1034600040917A024817190671F40E947D17109254
:103470007B0210927A0286E0ECEAF2E0DF011D9214
:103480008A95E9F7D2CF96E0929FD001939FB00D35
:103490001124A458BD4FFE01319601900D929A95CA
:1034A000E1F780937B020E94C317BFCF819FC001C9
:1034B000112484589D4F0E9448188823E9F0E09118
:1034C0007A021E9FF0011124E458FD4F4081518182
:1034D00062817381848195810E94B31780917A0201
:1034E00090E001968770992780937A0280917A0202
:1034F00090917B028913DACF2C960FB6F894DEBF39
:103500000FBECDBFDF91CF911F91089569857A8558
:103510008B859C850E94B31788CFEF92FF920F9303
:103520001F93CF93DF938C01892B81F0F12CEE2434
:10353000E394E8012196F8018491843770F4843093
:1035400008F05FC08130B1F08230A1F1DF91CF91FE
:103550001F910F91FF90EF900895853709F44CC0AB
:1035600008F43DC09CE7980F903780F78F770E9452
:10357000AE1449C00E5F1F4FFE01849190E2980F78
:10358000983060F48770FE2D01C0FF0F8A95EAF72E
:103590008F2F0E941D1D0E94461D02C00E942414F0
:1035A0008F2D815030F2EFE9FFE03197F1F700C045
:1035B0000000F7CF0E5F1F4FFE01849190E2980F3D
:1035C000983050F48770FE2D01C0FF0F8A95EAF7FE
:1035D0008F2F0E94231DDFCF0E94AE14E1CF0E5F1C
:1035E0001F4FFE01C491C150D8F28FE99FE00197AF
:1035F000F1F700C00000F7CF0E5F1F4FFE01F490FF
:10360000CFCF0E9424148E01CBCF08950C94051BBC
:103610000E94061B6093E8027093E9028093EA021D
:103620009093EB020C946B1708950C94081B0F9366
:103630001F930091E8021091E9022091EA02309173
:10364000EB02602B712B822B932B1F910F910C940B
:10365000081B0F931F930091E8021091E90220913B
:10366000EA023091EB0260237123822393231F919E
:103670000F910C94081B0F931F930091E802109177
:10368000E9022091EA023091EB026027712782273C
:1036900093271F910F910C94081B0C9462030E94B6
:1036A0004D1B6093E4027093E5028093E6029093D1
:1036B000E7020C946B1760E070E0CB010C944F1B99
:1036C0000F931F9341E050E060E070E08A019B019E
:1036D00004C0000F111F221F331F8A95D2F7C901A2
:1036E000B8011F910F910C944F1B0F931F9341E052
:1036F00050E060E070E004C0440F551F661F771F64
:103700008A95D2F78091E4029091E502A091E602B9
:10371000B091E7028A019B01082B192B2A2B3B2B26
:10372000C901B8011F910F910C944F1B0F931F9368
:1037300041E050E060E070E004C0440F551F661F98
:10374000771F8A95D2F7CB01BA0160957095809565
:1037500090950091E4021091E5022091E6023091EB
:10376000E70260237123822393231F910F910C940E
:103770004F1B0F931F9341E050E060E070E004C0E6
:10378000440F551F661F771F8A95D2F78091E40278
:103790009091E502A091E602B091E7028A019B01B7
:1037A000082719272A273B27C901B8011F910F9124
:1037B0000C944F1B0F931F930091E4021091E502AC
:1037C0002091E6023091E702602B712B822B932B24
:1037D0001F910F910C944F1B0F931F930091E402C4
:1037E0001091E5022091E6023091E70260237123F7
:1037F000822393231F910F910C944F1B0F931F93C0
:103800000091E4021091E5022091E6023091E70276
:1038100060277127822793271F910F910C944F1BCC
:1038200008952FE0929F800D1124982F977041E00A
:1038300001C0440F9A95EAF786958695869595E09E
:10384000899FF0011124EE54FD4F90E080E070E07C
:103850005191DF0111979B01082E02C036952795E3
:103860000A94E2F7217021952527242325272C93FC
:1038700001968530910561F708952FE0929F800DA4
:103880001124982F977086958695869525E0829FBE
:10389000F0011124EE54FD4F50E040E080E0219112
:1038A00030E0092E02C0369527950A94E2F7217080
:1038B0003327042E01C0220F0A94EAF7822B4F5FB0
:1038C0005F4F4530510559F70895BF92CF92DF926F
:1038D000EF92FF920F931F93CF93DF938C01C090D1
:1038E000E402D090E502E090E602F090E7028091D9
:1038F000E8029091E902A091EA02B091EB02C82A95
:10390000D92AEA2AFB2ACFE1D0E0BC2ED701C60192
:103910000C2E04C0B695A795979587950A94D2F773
:1039200080FD0EC0219788F7B12C8B2DDF91CF91B0
:103930001F910F91FF90EF90DF90CF90BF9008956F
:10394000B8018C2F0E946B04019761F3EECFCF93E7
:10395000DF93EC010E94651CBE01DF91CF910C94B6
:103960006B041F93CF93DF93EB019091790299231E
:1039700031F0CB01DF91CF911F910C94A71C8823CC
:1039800079F0CB010E94651C182F682FCE010E9490
:10399000111CBE01812FDF91CF911F910C946B04FC
:1039A000CB010E943D1C182FF4CF682F8091170186
:1039B000909118010C94F11E682F8091170190913D
:1039C00018010C94F31E80911701909118010C942A
:1039D000F51E8091EC0285958595859508958091D9
:1039E000EC02877008959091EC02977081E009F4E1
:1039F00080E008958091F80208959091F802892B53
:103A00008093F802089580959091F80298239093FE
:103A1000F80208951092F80208959091F702892B08
:103A20008093F702089580959091F70298239093E0
:103A3000F70208951092F70208959091F602892BEB
:103A40008093F602089580959091F60298239093C2
:103A5000F60208951092F60208958091ED020895FD
:103A600008950C94301D9091ED02981721F08093E9
:103A7000ED020C94311D08958091ED02882329F008
:103A80001092ED0280E00C94311D0895E091170131
:103A9000F09118018091F8028083E0911701F09174
:103AA000180180819091F702892B8083E0911701A2
:103AB000F091180180819091F602892B808390917A
:103AC000ED02992381F0E0911701F09118018081B6
:103AD000892B808380911701909118010E94A91E63
:103AE00081110E943C1D80911701909118010C9446
:103AF000EB1208950C94791D98E0899F9001112490
:103B0000622B6093EC020E94751B8091EC028595FC
:103B1000859585950C947A1D1092EC0280E00C94AA
:103B20007A1D9091EC02809589238093EC02282FD6
:103B3000277071F4282F082E000C330B92171306F0
:103B400039F08595859585950E94961B0C948C1D62
:103B50000895CF92DF92EF92FF926C01EE24FF2442
:103B600020E0C114D104E104F10419F0C701B60149
:103B700020E1C72ED82EE92EFF24C114D104E10480
:103B8000F10419F0285FC701B6016B017C0154E014
:103B9000F694E794D794C7945A95D1F7C114D104F9
:103BA000E104F10419F02C5FC701B6016B017C013F
:103BB00042E0F694E794D794C7944A95D1F7C1149C
:103BC000D104E104F10419F02E5FC701B601969506
:103BD000879577956795672B682B692B09F02F5F81
:103BE000822FFF90EF90DF90CF9008956FEF7FEFDF
:103BF00090E080E00C94F12790E080E00E94CD27D7
:103C000021E08C3E9E4F09F020E0822F089582E053
:103C100090E00C94BF2783E090E00C94BF27CF93F3
:103C200084E090E00E94BF27C82F81E290E00E94CC
:103C3000BF27982F8C2FCF910895CF93C92F682F2E
:103C400084E090E00E94D3276C2F81E290E0CF9136
:103C50000C94D32786E090E00C94BF27682F86E071
:103C600090E00C94D327AB01BC018FE090E00C9462
:103C7000E527AB01BC0183E190E00C94E52760E00F
:103C800070E0CB010C94391E60E070E0CB010E9423
:103C9000331E0C943F1E6CEE7EEF90E080E00E949D
:103CA000F12760E082E090E00E94D32760E083E0AB
:103CB00090E00E94D3271092E8021092E90210923D
:103CC000EA021092EB0260E084E090E00E94D327C9
:103CD00060E081E290E00E94D32760E085E090E020
:103CE0000E94D32760E086E090E00E94D3276FEF28
:103CF00087E090E00E94D32740E050E0BA0188E0DE
:103D000090E00E94E52760E08DE090E00E94D327DC
:103D100040E050E0BA0188E190E00E94E52760E0D1
:103D200087E190E00E94D32740E050E0BA018CE1A7
:103D300090E00E94E52760E080E290E00E94D327B7
:103D40000C94441E0C944B1E682F8EE090E00C9453
:103D5000D3279C012E5F3F4FAC01485F5F4F80E04F
:103D60002417350709F40895F90191919F019923CA
:103D7000B9F38F5FF5CF662349F0FC0132960896C0
:103D80002191261729F0E817F907D1F780E0089567
:103D900081E008959C01FC0132969FEF80E0419103
:103DA000461751F09F3F19F4411101C0982F8F5FC2
:103DB0008630A9F79F3F09F40895290F311D97FD1B
:103DC0003A95F90162830895FC0132960896219193
:103DD000261303C0DF0111971C92E817F907B9F702
:103DE00008950C94CA1E0C94E41E029626E0FC0171
:103DF00011922A95E9F70895089508950C94FD1EEF
:103E00000E94FE1E80917E03843061F11092FA02BE
:103E100088E190E020E40FB6F894A89580936000C4
:103E20000FBE2093600080E00E94EF0F80E00E94B0
:103E3000EB030E94FE1E83B7817F846083BF83B73C
:103E4000816083BF7894889583B78E7F83BF0FB6D8
:103E5000F894A8958091600088618093600010922A
:103E600060000FBE08950895CF930E94FC1E0E942B
:103E7000CB060E94331FC0E08C2F0E945506892B71
:103E800031F4CF5FC530C1F780E0CF91089581E074
:103E9000FCCF08950C94491F0E947D170E94BD0E0F
:103EA0000E94DF120E94EB030C944A1F1F921FB660
:103EB0001F9211248F939F93AF93BF938091FA0227
:103EC000811113C08091740390917503A0917603C2
:103ED000B09177034196A11DB11D80937403909317
:103EE0007503A0937603B0937703BF91AF919F9131
:103EF0008F911F901FBE1F90189582E084BD93E0A4
:103F000095BD9AEF97BD80936E0008952FB7F894F2
:103F10008091740390917503A0917603B09177031B
:103F20002FBF08959C014FB7F8948091740390912E
:103F30007503A0917603B09177034FBF821B930B5B
:103F4000089578941F921FB61F9211248F939F9308
:103F5000AF93BF938091740390917503A091760302
:103F6000B09177030196A11DB11D809374039093C6
:103F70007503A0937603B0937703BF91AF919F91A0
:103F80008F911F901FBE1F90189581E08093E000D5
:103F900080E28093D8001092C9008FE19EE40197DF
:103FA000F1F700C0000087E090EBDC01809387030D
:103FB00090938803A0938903B0938A0388E19CE0DF
:103FC0000FB6F894A895809360000FBE90936000A0
:103FD000FFCF0C94F61D0E94CB068FE39CE901975E
:103FE000F1F700C000000E94CB0680E00E94550659
:103FF00080FF04C00E94E91F0C94C51F08950E9411
:10400000FC1D811102C00E94A21E0E94071E809307
:10401000F9020E940F1E90937903809378030E9407
:104020000B1E682F70E090E080E00C94151B8091CF
:10403000030308950895CF93DF9300D00F92CDB777
:10404000DEB790917E03943019F589837B836A8370
:1040500082E08093E9008FEF9091E800815095FD18
:1040600006C095ED9A95F1F700008111F5CF80918A
:10407000E80085FF0DC050E040E063E070E0CE0155
:1040800001960E9431228091E8008E778093E800AB
:104090000F900F900F90DF91CF910895CF93DF9302
:1040A000EC010E941422823011F0843031F4BE0100
:1040B00084E0DF91CF910C941B20DF91CF91089584
:1040C000BC0183E00C941B20CF93DF93EC010E9492
:1040D0001422823011F0843039F581E08093E900B8
:1040E0008FEF9091E800815095FD06C095ED9A956F
:1040F000F1F700008111F5CF8091E80085FF14C031
:1041000050E040E068E070E0CE010E9431228091F2
:10411000E8008E778093E80088E0FE01ABEFB2E024
:1041200001900D928A95E1F7DF91CF9108958091EA
:104130007D03811109C00E94C1230E941E24809129
:10414000E20084608093E200089510927D03089558
:10415000089508950C944C1F42E061EC81E00E94A8
:104160003D2342E261EC82E00C943D238091800388
:10417000833009F45FC030F48130C1F1823009F43A
:104180009BC008958A3009F487C08B3009F46DC054
:10419000893009F04EC080917F03813209F049C017
:1041A0008091830390918403029708F042C080912C
:1041B000E800877F8093E8008091E80082FF35C0A7
:1041C0009091F3008091F200029729F48091F10020
:1041D0008B7F813021F48091F100809303038091E3
:1041E000E8008B778093E8000C94712380917F0323
:1041F000813AF9F48091E800877F8093E80080910C
:10420000830390918403892B61F468E08BEF92E043
:1042100070E00E9480228091E8008B778093E80014
:10422000089560E090E080E0F3CF80917E038111FB
:10423000C3CF089580917F03813AD9F7809183039A
:1042400090918403892BA9F78091E800877F809360
:10425000E8008091E80080FFFCCF809123018093EB
:10426000F1008091E8008E77BDCF80917F0381328D
:1042700001F78091830390918403892BD1F680917B
:10428000E800877F8093E8000E947123809181037A
:10429000809323010C947D1780917F03813249F62E
:1042A0008091E800877F8093E8000E9471238091CD
:1042B000820380930403089580917F03813A09F07B
:1042C000B8CF8091E800877F8093E8008091E80074
:1042D00080FFFCCF80910403C2CF84B7877F84BF67
:1042E0000FB6F894A8958091600088618093600073
:1042F000109260000FBE80E890E00FB6F8948093B3
:104300006100909361000FBE0E9430130E94C12390
:104310000E941E248091E20084608093E2007894E1
:104320000E94A7260E943A1389E191E00E94DA12C6
:1043300080917E03853019F00E944613F9CF0E94C8
:10434000001F80917C03882399F30E94341F8823E7
:1043500079F30E941B22ECCF0C94AE21292F332736
:104360002330310519F168F42130310509F44AC0D0
:104370002230310509F44BC090E080E030E020E0CD
:1043800028C02132310579F122323105A9F780E4C4
:1043900090E021ED35E061157105D9F082E390E000
:1043A0002FE935E061307105A1F0E6CF9927813022
:1043B000910599F0009741F08230910589F00397BB
:1043C000D9F6E8E0F5E002C0EEE4F5E0849190E093
:1043D0009F01FA01318320830895E8E3F5E0F6CFE9
:1043E000EEE0F5E0F3CF89E090E024E635E06115FA
:1043F000710579F389E090E02DE735E061307105D2
:1044000041F3BACF82E190E02DE835E0E2CF8BE3D3
:1044100090E022E535E0DDCF80917E03843011F419
:1044200082E0089581E0089580910503811102C022
:104430000C940C22089580E189BD82E189BD09B404
:1044400000FEFDCF8091D8008F7D8093D8008091B1
:10445000E00082608093E0008091E00081FDFCCF6D
:104460000895AF92BF92CF92DF92FF920F931F9366
:10447000CF93DF936C01EB018A010E949023F82E09
:10448000811123C00115110539F0F8018081918156
:10449000C81BD90BC80ED91EB12CA12C2097A9F08E
:1044A0008091E80085FD22C08091E8008E7780939E
:1044B000E80001151105A1F0F80180819181A80E95
:1044C000B91EB182A08285E0F82E8F2DDF91CF91A9
:1044D0001F910F91FF90DF90CF90BF90AF90089504
:1044E0000E9490238823D1F2F82EEFCFF60181911C
:1044F0006F018093F1002197FFEFAF1ABF0ACECF73
:10450000FC01809185039091860386179707A0F0A0
:104510006115710529F49091E8009E779093E80069
:1045200090E06115710551F4911108C08091E80087
:1045300082FF34C080E00895BC01F2CF80917E03F9
:104540008823C1F18530C1F18091E80083FD30C03E
:104550008091E80082FDEACF8091E80080FFE1CF02
:104560008091F3002091F200382F6115710519F048
:104570002830310558F091E02830310509F090E0FD
:104580002091E8002E772093E800CBCF8191809393
:10459000F100615071092F5F3F4FE7CF80917E039B
:1045A000882341F0853041F08091E80083FFBECF41
:1045B00081E0089582E0089583E00895FC018091F0
:1045C00085039091860386179707A0F06115710502
:1045D00029F48091E8008E778093E80090E06115DF
:1045E000710551F4911108C08091E80082FF35C037
:1045F00080E00895BC01F2CF80917E038823C9F149
:104600008530C9F18091E80083FD31C08091E800D8
:1046100082FDEACF8091E80080FFE1CF8091F30036
:104620002091F200382F6115710519F028303105FD
:1046300058F091E02830310509F090E08091E800D1
:104640008E778093E800CBCF84918093F1003196F0
:10465000615071092F5F3F4FE6CF80917E03882321
:1046600041F0853041F08091E80083FFBDCF81E0CB
:10467000089582E0089583E00895982F973028F0F8
:104680008F708093E90081E008959093E900242FD2
:10469000762F50E0981731F07091EC002091ED00EA
:1046A0005091F00021FD02C09F5FE8CF3091EB00F8
:1046B0003E7F3093EB003091ED003D7F3093ED0075
:1046C0003091EB0031603093EB007093EC0020935D
:1046D000ED005093F0002091EE0027FDE5CF80E043
:1046E000089580917F0387FF13C08091E80082FFC7
:1046F00006C08091E8008B778093E80004C0809129
:104700007E038111F2CF089580917E038823D9F32F
:104710008091E80080FFF8CF8091E8008E77ECCFA1
:104720002091E4003091E50095E6A9012091EC008C
:10473000822F817020FF06C08091E80080FF06C0B4
:1047400080E008952091E80022FD1AC080917E0348
:10475000882389F0853089F08091EB0085FD0FC0BA
:104760002091E4003091E50042175307F9F291508F
:10477000E1F684E0089582E0089583E0089581E001
:1047800008950E942F240E943724E0EEF0E08081FB
:1047900081608083E8EDF0E080818F77808319BCB1
:1047A000A7EDB0E08C918E7F8C9380818F7E80838B
:1047B00010927D0308950F931F93CF93DF930E9470
:1047C0002F240E943724C8EDD0E088818F7788831A
:1047D00088818068888388818F7D888319BC109246
:1047E0007E0310927A0310927C0310927B0300EEFA
:1047F00010E0F80180818B7F8083888181608883CD
:1048000042E060E080E00E943D23E1EEF0E0808144
:104810008E7F8083E2EEF0E0808181608083808102
:1048200088608083F80180818E7F808388818061A9
:104830008883DF91CF911F910F910895E8EDF0E00B
:1048400080818F7E8083E7EDF0E0808181608083CE
:1048500084E082BF81E080937D030C94DB23E8ED4C
:10486000F0E080818E7F80831092E20008951092A4
:10487000DA001092E10008951F920F920FB60F9286
:1048800011242F933F934F935F936F937F938F9355
:104890009F93AF93BF93EF93FF938091E10082FFCB
:1048A0000BC08091E20082FF07C08091E1008B7F06
:1048B0008093E1000E94A6268091DA0080FF19C053
:1048C0008091D80080FF15C08091DA008E7F8093A0
:1048D000DA008091D90080FF96C080E189BD82E135
:1048E00089BD09B400FEFDCF81E080937E030E9464
:1048F00097208091E10080FF19C08091E20080FF45
:1049000015C08091E2008E7F8093E2008091E200EA
:1049100080618093E2008091D80080628093D8000B
:1049200019BC85E080937E030E94A9208091E1005C
:1049300084FF2BC08091E20084FF27C080E189BD05
:1049400082E189BD89B5982F917080FFFBCF80915E
:10495000D8008F7D8093D8008091E1008F7E809376
:10496000E1008091E2008F7E8093E2008091E2007E
:1049700081608093E20080917A03882309F449C022
:1049800084E080937E030E94AA208091E10083FF4F
:1049900029C08091E20083FF25C08091E100877FDC
:1049A0008093E10082E080937E0310927A038091ED
:1049B000E1008E7F8093E1008091E2008E7F809302
:1049C000E2008091E20080618093E20042E060E0DA
:1049D00080E00E943D238091F00088608093F00089
:1049E0000E94A820FF91EF91BF91AF919F918F916D
:1049F0007F916F915F914F913F912F910F900FBEDB
:104A00000F901F90189519BC10927E030E94A5204C
:104A100070CF8091E30087FD93E090937E03B3CF46
:104A20001F920F920FB60F9211242F933F934F9323
:104A30005F936F937F938F939F93AF93BF93CF9326
:104A4000DF93EF93FF93D091E900DF708091EC004A
:104A5000C82FC17080FDC0E81092E9008091F0007D
:104A6000877F8093F00078940E9454251092E9008B
:104A70008091F00088608093F000CD2BCF70C093C0
:104A8000E900FF91EF91DF91CF91BF91AF919F919D
:104A90008F917F916F915F914F913F912F910F90E7
:104AA0000FBE0F901F9018951F93CF93DF93CDB734
:104AB000DEB7AA970FB6F894DEBF0FBECDBF8FE763
:104AC00093E02091F100FC012193CF01F3E08738BE
:104AD0009F07B9F70E94B6208091E80083FF1EC1AE
:104AE00080917F03909180039A3008F017C1E92FDD
:104AF000F0E0E759F74D0C943627803899F082386A
:104B000009F00CC1809183038F70873008F006C1D3
:104B10008093E9008091EB0085FB882780F9109253
:104B2000E90006C080917B0390917C039111826023
:104B30009091E800977F9093E8008093F1001092A5
:104B4000F1008091E8008E77E5C0882309F4D3C096
:104B5000823009F0E3C0809181038111D6C0809139
:104B600083038F702FEF280F263008F0D7C0809373
:104B7000E9002091EB0020FFC8C0933031F4809110
:104B8000EB0080628093EB00C0C09091EB009061DD
:104B90009093EB0021E030E001C0220F8A95EAF704
:104BA0002093EA001092EA008091EB008860EACF3F
:104BB0008111B4C0109181031F778091E300807848
:104BC000812B8093E3008091E800877F8093E80049
:104BD0000E9471238091E80080FFFCCF8091E30068
:104BE00080688093E30082E0111183E080937E036C
:104BF00095C08058823008F091C0809181039091D7
:104C000082038C3D23E09207A1F583E08A838AE248
:104C100089834FB7F894DE01139620E03EE051E21D
:104C2000E32FF0E050935700E49120FF03C0E2959A
:104C3000EF703F5FEF708E2F90E0EA30C0F0C796C4
:104C40008D939D932F5F243159F74FBF8091E800DA
:104C5000877F8093E8006AE270E0CE0101960E94AF
:104C600080228091E8008B778093E80057C0C0963F
:104C7000E7CF6091830370918403AE014F5F5F4F74
:104C80000E94AC21BC01892B09F448C09091E80036
:104C9000977F9093E80089819A810E94DE22E1CF7C
:104CA0008038E1F58091E800877F8093E80080916B
:104CB0007A038093F10045CF811130C09091810338
:104CC000923060F58091E800877F8093E8009093B0
:104CD0007A030E94712380917A03882311F084E083
:104CE00005C08091E30087FDFACF81E080937E03C9
:104CF0000E94AC2013C080918103813079F481E05F
:104D0000933009F080E080937C031092E900809159
:104D1000E800877F8093E8000E9471238091E8007B
:104D200083FF0AC08091E800877F8093E80080912C
:104D3000EB0080628093EB00AA960FB6F894DEBF7A
:104D40000FBECDBFDF91CF911F9108950895CF93EE
:104D500080917E038823A1F0C091E900CF709091EB
:104D6000EC00892F817090FD80E8C82B1092E9003B
:104D70008091E80083FD0E945425CF70C093E90024
:104D8000CF910895DB018F939F930E944B27BF9192
:104D9000AF91A29F800D911DA39F900DB29F900D8A
:104DA00011240895991B79E004C0991F961708F003
:104DB000961B881F7A95C9F78095089587FB082E62
:104DC000062687FD819567FD61950E94D2260EF427
:104DD000919507FC81950895AA1BBB1B51E107C063
:104DE000AA1FBB1FA617B70710F0A61BB70B881F7B
:104DF000991F5A95A9F780959095BC01CD0108950A
:104E000097FB072E16F4009407D077FD09D00E9477
:104E1000EC2607FC05D03EF4909581959F4F0895B0
:104E2000709561957F4F0895A1E21A2EAA1BBB1BB6
:104E3000FD010DC0AA1FBB1FEE1FFF1FA217B30766
:104E4000E407F50720F0A21BB30BE40BF50B661F7C
:104E5000771F881F991F1A9469F760957095809540
:104E600090959B01AC01BD01CF010895EE0FFF1F8E
:104E70000590F491E02D0994A29FB001B39FC00169
:104E8000A39F700D811D1124911DB29F700D811D76
:104E90001124911D08950E943C27A59F900DB49F59
:104EA000900DA49F800D911D112408958F929F92C3
:104EB000AF92BF92CF92DF92EF92FF92CF93DF93A8
:104EC000EC01688179818A819B8161157105810579
:104ED000910521F464E279ED8BE597E02DE133EF64
:104EE00041E050E00E94072849015A019B01AC01B2
:104EF000A7EAB1E40E944B276B017C01ACEEB4EF52
:104F0000A50194010E942928DC01CB018C0D9D1D77
:104F1000AE1DBF1DB7FF03C00197A109B04888832C
:104F20009983AA83BB839F77DF91CF91FF90EF9006
:104F3000DF90CF90BF90AF909F908F9008950E9488
:104F40005627089580E091E00E9456270895B0E02A
:104F5000A0E08093000190930101A0930201B0931F
:104F600003010895FC014150504030F001900616B5
:104F7000D1F73197CF010895882799270895F99996
:104F8000FECF92BD81BDF89A992780B50895A6E11C
:104F9000B0E044E050E00C94F927A8E1B0E042E032
:104FA00050E00C94F927262FF999FECF92BD81BDD0
:104FB000F89A019700B4021639F01FBA20BD0FB657
:104FC000F894FA9AF99A0FBE08950396272F0E9433
:104FD000D4270E94D327252F0E94D427242F0C9456
:104FE000D4270196272F0E94D4270C94D327DC01C5
:104FF000CB01FC01F999FECF06C0F2BDE1BDF89AE4
:10500000319600B40D9241505040B8F70895052EE6
:1050100097FB1EF400940E941E2857FD07D00E94A3
:10502000142707FC03D04EF40C941E28509540958D
:10503000309521953F4F4F4F5F4F08959095809544
:10504000709561957F4F8F4F9F4F0895B7FF0C94D8
:105050004B270E944B27821B930B0895F894FFCF98
:10506000360E3E0E450E4A0E4F0E540E590E5E0E73
:10507000630E680E6D0E720E760E7B0E7E0E810E26
:10508000840E870E890E8C0E950F9A0F9C0F9F0F22
:10509000A20FA50FA80F55155515AD15AD15FF1588
:1050A0008215821582151B16A716B616B61612178C
:1050B000821582151B178C178C1795179517971744
:1050C0009517951795178C178C179C17951795178B
:1050D0009C177D25A5258E26A5258E26D825F92564
:0650E0008E2650265C261E
:1050E600010000000102001C001C1C01191A1B1CF7
:1050F6001D1E1F20212206EE02172064201A2060A2
:10510600204E2001E200E900EA00B500B600B70033
:10511600CD008301CC008A01920194012102230271
:1051260024022502260227022A02B300B4006F00D9
:105136007000818283C63133F0F1F4F5F6F7959469
:1051460034969730353693666700010202020206EE
:1051560006060909090909090F0F0F0F0F0F151583
:105166001518191919191919191919192324252581
:1051760025252525E200E900EA00B500B600B700BE
:10518600CD008301CC008A01920194012102230201
:1051960024022502260227022A02B300B4006F0069
:0651A6007000818283000D
:00000001FF
