:100000000C9406030C944D030C944D030C944D0377
:100010000C944D030C944D030C944D030C944D0320
:100020000C944D030C944D030C9401250C94D52590
:100030000C941E200C944D030C944D030C944D0312
:100040000C944D030C944D030C944D030C944D03F0
:100050000C94F9100C9475200C944D030C944D03E2
:100060000C944D030C944D030C944D030C944D03D0
:100070000C944D030C944D030C944D030C944D03C0
:100080000C944D030C944D030C944D030C944D03B0
:100090000C944D030C944D030C944D030C944D03A0
:1000A0000C944D030C944D030C944D0335001E002D
:1000B0001F0020002100220023002400250026002C
:1000C00027002D002E002A0000002B0014001A002B
:1000D0000800150017001C0018000C001200130087
:1000E0002F0030003100A90029610400160007002C
:1000F00009000A000B000D000E000F00334234000F
:1001000000002800AA00E10000001D001B000600FE
:100110001900050011001000360037003800E50016
:1001200052000151E000E200E30000000000000086
:100130002C000000000000000000E600500051000C
:100140004F00005C3A003B003C003D003E003F0099
:100150004000410042004300440045004C000000C4
:100160000100010001000100010001000100010087
:100170000100010001000100010001006A0001000E
:100180000100C85C010001000100C65C0100010023
:100190000100010001000000C35C6900390000009B
:1001A000010001000100CA5C010001000100010022
:1001B0000100010001000100010001000100010037
:1001C000000000000000AE00000000000100000080
:1001D000C45CAC00A800AB000100010001000100FC
:1001E0004D00010001000100010001004A00010072
:1001F00001000100000001000100010001000100F8
:10020000010001004B00010001000100010001009C
:10021000010001000100010001004E004E0001003C
:100220005000510052004F00010001000000010089
:1002300001000100000001004C00010001004B0022
:1002400001000100010001000100010001000100A6
:10025000010001000100000000000000010000009A
:1002600000000100000001000100010001001E0F5C
:100270000500047F3F1F643214643214783C1E1E54
:10028000140A052223252628292A2C2D2F30323323
:100290003536383A3B3D3E4042434547494A4C4E4D
:1002A0005051535557595A5C5E6062646668696B79
:1002B0006D6F71737577797B7D7F81838587898A7F
:1002C0008C8E90929496989A9C9E9FA1A3A5A7A885
:1002D000AAACAEAFB1B3B4B6B8B9BBBCBEBFC1C2B5
:1002E000C3C5C6C7C9CACBCCCDCED0D1D2D2D3D448
:1002F000D5D6D7D7D8D9D9DADADBDBDBDCDCDCDC66
:10030000DCDDDDDDDDDCDCDCDCDCDBDBDBDADAD933
:10031000D9D8D7D7D6D5D4D3D2D2D1D0CECDCCCBB5
:10032000CAC9C7C6C5C3C2C1BFBEBCBBB9B8B6B4D3
:10033000B3B1AFAEACAAA8A7A5A3A19F9E9C9A9863
:10034000969492908E8C8A89878583817F7D7B7934
:10035000777573716F6D6B6968666462605E5C5A15
:100360005957555351504E4C4A4947454342403ED8
:100370003D3B3A3836353332302F2D2C2A2928266A
:10038000252322FFAA7F5540000000000000000046
:1003900000000001010203040506080A0C0F1114F5
:1003A000181C2024292E33393F464C535B626A7156
:1003B00079818A929AA2AAB2B9C1C8CFD5DCE1E705
:1003C000EBF0F4F7FAFCFDFEFFFEFDFCFAF7F4F0AB
:1003D000EBE7E1DCD5CFC8C1B9B2AAA29A928A8173
:1003E00079716A625B534C463F39332E2924201CB5
:1003F0001814110F0C0A080605040302010100007D
:1004000000000000000000000001010101010101E5
:1004100001010202020202020202020303030303B9
:100420000303030404040404040405050505050688
:100430000606060607070707070808080809090946
:10044000090A0A0A0B0B0B0C0C0C0D0D0D0E0E0EEF
:100450000F0F0F1010111111121213131414151580
:1004600016161717181819191A1A1B1B1C1D1D1EF2
:100470001E1F202021222223242425262627282946
:10048000292A2B2C2D2D2E2F303132323334353674
:100490003738393A3B3C3D3E3F4041424344454674
:1004A0004748494A4C4D4E4F505153545556585950
:1004B0005A5B5D5E5F616264656668696B6C6D6FF7
:1004C0007072737577787A7B7D7E8082838587886A
:1004D0008A8C8E8F91939596989A9C9EA0A2A3A5A4
:1004E000A7A9ABADAFB1B3B5B7BABCBEC0C2C4C6A5
:1004F000C9CBCDCFD1D4D6D8DBDDDFE2E4E7E9EB61
:10050000EEF0F3F5F8FAFDFF28034D0065006300F7
:1005100068006C006F00760069006E0020004800E3
:1005200061006E006E00610068003900310030002B
:10053000000014034D006500630068006C006F004C
:10054000760069006E0000000403090409023B0004
:10055000020100A0FA0904000001030101000921C1
:10056000110100012240000705810308000A090467
:1005700001000103000000092111010001223200E5
:100580000705820320000A12011001000000084C38
:100590004D029102000102000105010980A10185BF
:1005A0000319012AB700150126B7009501751081BE
:1005B00000C0050C0901A101850419012AA002153A
:1005C0000126A002950175108100C005010906A150
:1005D00001050719E029E715002501950875018136
:1005E000029501750881010507190029FF150026EC
:1005F000FF00950675088100050819012905950574
:1006000075019102950175039101C00011241FBE6F
:10061000CFEFDAE0DEBFCDBF04B603FE27C0809186
:10062000900390919103A0919203B091930387302E
:10063000904BA740B04BD1F41092900310929103CD
:10064000109292031092930314BE84B7877F84BFE5
:100650000FB6F894A895809160008861809360003F
:10066000109260000FBEE0E0F8E3099511E0A0E011
:10067000B1E0EEE8F2E502C005900D92A63CB107AC
:10068000D9F723E0A6ECB1E001C01D92A039B20772
:10069000E1F70E943B220C9402290C940000229A5C
:1006A000509A519A529A08950E949B060C944F03B7
:1006B00081FF03C02A9A0C9488042A98FCCFCF9219
:1006C000DF92EF92FF926B017C010E943B0481302C
:1006D000B1F45A9AC701B6010E943B04823089F4F2
:1006E000599AC701B6010E943B04833061F4589ABD
:1006F000C701B601FF90EF90DF90CF9008955A9810
:10070000E9CF5998EECF5898F3CF81E0089581E072
:1007100008950C94870308950C948B031F93CF9333
:10072000DF9300D000D00F92CDB7DEB749835A8354
:100730006B833091830289819A8131111DC06623B8
:10074000B9F02223A9F00E94731D182F682F898108
:100750009A810E941F1D69817A81812F0F900F90CD
:100760000F900F900F90DF91CF911F910C949904EF
:100770000E944B1D182FEFCF0E94731D69817A8153
:10078000EDCFFC01262F40815181628173818481EC
:100790000C948E03CF93DF93EC0160E00E94C103C1
:1007A000BE01DF91CF910C948C030E94C4200E9463
:1007B000BF1E811102C00E946C1F0E9468110C9420
:1007C00054030C949D0608950E948B180E94E30325
:1007D0002FEF84E39CE0215080409040E1F700C07F
:1007E00000000C9499200F931F93CF93DF93EC019B
:1007F00061E00E94C1038C01BE010E94890388232D
:1008000089F1BE01C8010E945110882359F1BE012F
:10081000C8010E941612882329F1BE01C8010E9456
:1008200068128823F9F0BE01C8010E948B13882347
:10083000C9F0BE01C8010E94EB0E882399F08A819D
:10084000882339F001158CE5180751F00F3D1C4540
:1008500079F0CE01DF91CF911F910F910C94850318
:100860000E94E40380E0DF91CF911F910F910895E2
:100870000E946C1FF7CFCF92DF92EF92FF926C0134
:10088000EE24FF2420E0C114D104E104F10419F0A6
:10089000C701B60120E1C72ED82EE92EFF24C114CE
:1008A000D104E104F10419F0285FC701B6016B011E
:1008B0007C0154E0F694E794D794C7945A95D1F705
:1008C000C114D104E104F10419F02C5FC701B60191
:1008D0006B017C0142E0F694E794D794C7944A9563
:1008E000D1F7C114D104E104F10419F02E5FC7015E
:1008F000B6019695879577956795672B682B692B39
:1009000009F02F5F822FFF90EF90DF90CF90089536
:10091000089581E008950C948904CF93C82F0E9414
:1009200058038C2FCF910C948B0490E080E00895B5
:100930000895972F70E02FE0929F600D711D112494
:10094000FB019BE4899FE00DF11D1124EE0FFF1FB9
:10095000E455FF4F859194910895FC01EE0FFF1F20
:10096000E259FD4F859194910895CF93DF930E94B2
:1009700099040E94C105EC01811520E5920708F059
:1009800041C0811530E4930708F0B4C0803E910562
:1009900018F5803C910508F09DC0883A910570F4E7
:1009A000853A910508F08EC081309105F9F00097E5
:1009B000E9F00497D8F4D0E0C0E018C08F3B91056F
:1009C000D0F7C85AD0E0CC0FDD1FCB5DDE4F0990C9
:1009D000D881C02DD4640AC08115904258F4C11545
:1009E00081E0D80718F4C83ED10528F7CE01DF9181
:1009F000CF910895C11590E3D90708F071C0CE01D9
:100A00009F706AC0811525E5920758F5811534E578
:100A1000930708F09EC0811542E5940750F4C11574
:100A200081E5D80708F469C0DC2FCC27C16FD06AF4
:100A3000DDCF982F969596959E0123703327C1158B
:100A4000D34508F077C0C1E0D0E002C0CC0FDD1F75
:100A50002A95E2F720E2929FC0011124C82BD92BDE
:100A600067C0C11589E5D807A8F4C11598E5D9076D
:100A700008F074C0C11526E5D20708F09CCF8C2F72
:100A80000E945806C82FD0E0DC2FCC27CC27DF717E
:100A9000D062ACCFC1153AE5D30708F464C0CE01EB
:100AA00090568115904208F086CF8D2F8F710E944D
:100AB000580690E0982F882788279F719C012C2B3F
:100AC000E901E6CFC55AD0E0CD5ADE4FC881D0E06B
:100AD000D0648CCF805C91090E94AD04EC0186CF7C
:100AE000CE019927D3FF03C0EC01D86C7FCFEC0176
:100AF000D06C7CCFDF70D06A79CFCE01E4E09695E0
:100B00008795EA95E1F783702C2F2695269523701B
:100B100090E2299F90011124382B8C2F8370C1E023
:100B2000D0E002C0CC0FDD1F8A95E2F7C22BD32B99
:100B3000DC685CCFC1E0D0E002C0CC0FDD1F2A959D
:100B4000E2F730E2939FC0011124C82BD92BDA6859
:100B50004DCFD82FCC27C46FD06A48CFDC2FCC27FD
:100B6000C06FD06A43CF8C2F8F700E94580634E03C
:100B7000D695C7953A95E1F7CF709C2FEC01D069D7
:100B800035CF82389105B1F1B0F48133910509F484
:100B900075C048F48932910509F469C08A3291051B
:100BA00009F473C008958533910509F459C0893358
:100BB000910501F10895833E9105A9F138F4803E35
:100BC0009105F9F0823E910549F10895863E91051F
:100BD000A9F1873E9105C9F1843E910519F520914F
:100BE000820321FF1FC08091810384FD14C087EE22
:100BF00090E00895209181032370A1F080EE90E0B1
:100C000008952091810320FD47C03091820330FF79
:100C100009C024FF44C090E080E004C0209181031B
:100C200022FDF7CF08952091810322FD3BC0309132
:100C3000820330FDE3CF24FFF5CFEDCF2091810378
:100C400023FFF0CF24FDE7CFD2CF2091810323FDF6
:100C50002CC03091820331FFEECF84EE90E00895F6
:100C60002091810325FFDECF89E290E00895209155
:100C7000810325FFD7CF85E390E00895209181037C
:100C800026FFD0CF8AE290E008952091810326FFCD
:100C9000C9CF81E390E0089589E390E0089583EE61
:100CA00090E0089582EE90E0089586EE90E0089539
:100CB0009091810392FF06C0282F28712830F9F403
:100CC000877F846093FF06C0282F28712831F1F4B4
:100CD000877E84612091820320FF06C0382F3871FF
:100CE0003830D9F4877F816021FF06C0282F287112
:100CF0002831D1F4877E816194FD877E0895282F65
:100D000024712430F9F68B7F8860DCCF282F247182
:100D1000243101F78B7E8861DDCF382F317131307E
:100D200019F78E7F8860E0CF282F2171213121F7BC
:100D30008E7E8861E1CF089508950C949C06E82F7B
:100D4000F0E0EE0FFF1FE75EFC4F80819181089578
:100D5000089580EA8A95F1F7089500C008950C94EB
:100D6000A906F894E82FE295EF70F0E031A1282F62
:100D70002F7081E090E001C0880F2A95EAF7982F44
:100D80009095932391A392A1892B82A3789408959F
:100D90000F931F93CF93DF9385E30E94B10686E301
:100DA0000E94B10683E90E94B10686E60E94B10660
:100DB00087E60E94B106C6E5D1E005E611E089911B
:100DC0000E94B1060C171D07D1F710921003109264
:100DD0000F0310921A03109219031092120310922B
:100DE000110310921C0310921B0310921403109213
:100DF000130310921E0310921D03109216031092FB
:100E000015031092200310921F03109218031092E2
:100E10001703109222031092210385E00E949A0783
:100E2000DF91CF911F910F910C94D503AF92BF9298
:100E3000CF92DF92EF92FF920F931F93CF93DF93A6
:100E400005E611E0CFE0D3E0C12CD12CEE24E394F1
:100E5000F12CF80181918F01F894E82FE295EF7061
:100E6000F0E021A18F70A70102C0440F551F8A95A1
:100E7000E2F7CA01922F982B91A392A18095892322
:100E800082A378940E94AD06E6E5F1E030E020E030
:100E9000B12CA12C4191A42FA295AF70B0E09096F7
:100EA0008C9190E04F7002C0959587954A95E2F736
:100EB00080FD3BC0C701022E02C0880F991F0A9413
:100EC000E2F7A82AB92A2F5F3F4F2F30310511F7DB
:100ED000F801319780810E94B10654E0C5120E944A
:100EE000AF0688819981A816B90611F1B982A88246
:100EF00081E0D82AC394229685E0C812AACF2D2D6E
:100F000045E069E173E08FE093E00E949B070E9457
:100F1000E1038D2DDF91CF911F910F91FF90EF9005
:100F2000DF90CF90BF90AF90089590E080E0C9CF60
:100F300080E0DFCF0895FF920F931F93CF93DF934D
:100F4000F82E092F162FD72FC42F222349F081E026
:100F50008093CA010E944E209093C9018093C801DA
:100F60008091CA018823A1F08091C8019091C901A4
:100F70000E946620069760F0EF2DF02FA12FBD2F65
:100F800090E080E0D0E08C179D0744F01092CA01F9
:100F9000DF91CF911F910F91FF9008952191319191
:100FA0002D933D930196EFCFEF92FF920F931F93F6
:100FB000CF93DF93EB01E82FD11110C0442321F030
:100FC000F0E0E85FFB4FE4916E2F7E2F8E2FDF91D4
:100FD000CF911F910F91FF90EF9008950D2F10E08A
:100FE000282F30E0442329F0285F3B4FF90124915A
:100FF00030E0F6E0CF9FC0011124EFEFF0E0BF0139
:101000000E94B127AB018C2F90E0880F991FA5E5B6
:10101000A49FB001A59F700D1124861B970B982FDC
:10102000990F980FBF01601B710B629FD001639FE6
:10103000B00D729FB00D11248B2F9D9FB001112414
:10104000672F7727EF01C61BD70BBE01629FE00118
:10105000639FD00D729FD00D11247F01E91AF10812
:10106000E09EB001E19E700DF09E700D1124672F7F
:101070007727E61BF70BE29F8001E39F100DF29F9D
:10108000100D1124E12F722F4230510599F048F4D0
:101090004115510569F04130510581F0EB2F8D2F3D
:1010A00007C04430510569F080F046305105B1F772
:1010B0006E2F8DCFE22F7B2F812FFACFE22F7D2F46
:1010C000F7CFEB2F822F712FF3CF7B2F822FED2FB6
:1010D000EFCF41E00C94D40708950C946908CF93A6
:1010E000DF93762FE901682F842F0E946D087983A2
:1010F00068838A83DF91CF91089580912303982F8D
:101100009E7F29F481708260809323030895863541
:10111000E8F381708465F8CF88E090E00C94A32810
:10112000CF92DF92EF92FF926B017C010E947D08CB
:10113000B701A60188E090E0FF90EF90DF90CF909C
:101140000C94C128E3E2F3E083E0808311828FEF07
:1011500082838383148260817181828193810C9464
:1011600090088091230380FF02C08695089580E057
:10117000089590912703933018F49F5F909327036D
:10118000882351F0609123037091240380912503FB
:10119000909126030C949008089581E00C94B9086E
:1011A00090912703992319F0915090932703882356
:1011B00051F0609123037091240380912503909155
:1011C00026030C949008089581E00C94D00870E0F8
:1011D0000C947E11609108018091230380FF0AC066
:1011E0008091070123E0829FC0011124885D9C4FFC
:1011F0000C94E7088091090190910A0123E0829FF5
:10120000F0011124E85DFC4F891750F7118210821C
:1012100012828F5F3396F8CF9091230390FF14C012
:101220009091090120910A0133E0939FF00111246C
:10123000E85DFC4F921710F00C94EA0881836083FC
:1012400042839F5F3396F6CF0895CF93DF9300D00C
:101250000F92CDB7DEB79091230390FF0AC09E0195
:101260002F5F3F4F0E946F084B8169818A810E94E6
:101270000C090F900F900F90DF91CF910895CF93AD
:10128000DF93EC01EC81F0E0ED57FD4F4491E3E298
:10129000F3E0628181810E9425098C818F5F8C83BC
:1012A000DF91CF910895CF93DF93EC01E3E2F3E078
:1012B000438162818C810E9425098C818F5F8C83A0
:1012C000DF91CF9108950F931F93CF93DF9300D0B9
:1012D0000F92CDB7DEB78C018091CB0181110AC08E
:1012E0009E012F5F3F4F4FEF6FEF0E946F088A8183
:1012F0008093CB01F8016481613069F08091CB016A
:1013000040E0662361F040E0623011F44091CB018F
:1013100080E060E004C06091CB0140E080E00E948A
:101320000C09F801848190E0019663E070E00E946E
:10133000C52784830F900F900F90DF91CF911F915D
:101340000F910895AF92BF92CF92DF92EF92FF92EA
:101350000F931F93CF93DF9300D00F92CDB7DEB7DB
:10136000182FF62E042FE22E9091230390FF29C010
:10137000E92FE695AE2FB0E0A659BE4F8C91809331
:1013800061029E7F923059F59E012F5F3F4F812F62
:101390000E946F084B8169818A810E940C09109319
:1013A0002403F092250300932603EE2051F0609170
:1013B00023037091240380912503909126030E94BA
:1013C00090080F900F900F90DF91CF911F910F9188
:1013D000FF90EF90DF90CF90BF90AF900895823054
:1013E00019F400912603DBCF863019F41091240301
:1013F000D6CF8930D9F3893191F6E9518E2F81709A
:10140000D82EE695F0E0ED57FC4FA590B490C12C96
:10141000BB2460910B01C61618F00E94EA08BFCFEA
:101420002C2D30E0A29EC001A39E900DB29E900D87
:10143000112470E00E94B127812FD11013C0860FB4
:1014400040910901420F532F511D9A01220F331F62
:10145000240F351F285D3C4F402F6F2D0E946F08D1
:10146000C394D7CF861BECCFE3E2F3E09181282F22
:101470004381628188E0890F0C94A20981E00C9479
:10148000340AE3E2F3E09181282F4381628188EFFF
:10149000890F0C94A20981E00C94410AE3E2F3E085
:1014A000628121E1620F08F46FEF282F438181816F
:1014B0000C94A20981E00C944E0AE3E2F3E062810D
:1014C00021E1621B08F460E0282F438181810C94A4
:1014D000A20981E00C945D0AE3E2F3E0438121E19B
:1014E000420F08F44FEF282F628181810C94A209EA
:1014F00081E00C946C0AE3E2F3E0438121E1421BBA
:1015000008F440E0282F628181810C94A20981E0D7
:101510000C947B0A20E00C94A209EF92FF921F9397
:10152000CF93DF93EC0110E0EE24EA94F12C60916C
:101530000B01161770F00E94EA089A818C8190FFC7
:1015400027C08F5F8C83DF91CF911F91FF90EF9029
:10155000089520910901422F410F5527551FCA01B7
:101560009A01220F331F280F391F285D3C4F70E06E
:10157000C7010E94C527962F8C8140912603609158
:101580002503199F800D11240E946F081F5FCFCF84
:101590008150D8CFAF92BF92CF92DF92EF92FF925D
:1015A0000F931F93CF93DF93FC0182810FEF80FF96
:1015B00001E010E04CE1A42E80910B011817C8F057
:1015C0000E94EA088091CD01013009F055C08111D7
:1015D00002C080910B0181508093CD01DF91CF91AA
:1015E0001F910F91FF90EF90DF90CF90BF90AF9041
:1015F0000895C0910901C12ED12CCC0DDD2DD11D36
:10160000CE01880F991FC80FD91FC85DDC4F198202
:1016100018821A8234E0E32EF12CB12C8091CD0196
:101620008B0D8D311CF16A2D0E94A327892F082E66
:10163000000C990BC816D90691F4809126038E9D53
:10164000A0018F9D500D11245595479555954795AF
:101650009E0160912503809124030E946F08B00EC3
:10166000F1E0EF1AF108D1F61F5FA6CF87FFDFCFB9
:1016700090910B01890FDBCF90E0019660910B01F7
:1016800070E00E94C527A8CF0F931F93CF93DF93DD
:101690008091090190910A0123E0829FF0011124B9
:1016A000E85DFC4F891740F1C0E0D3E060910B0189
:1016B000C61740F10E94EA08209105018091CC01F3
:1016C000820F8093CC0190910601920F90930601B6
:1016D000191654F4082E000C990B40910B0141503F
:1016E000550B841795071CF0219520930501DF9178
:1016F000CF911F910F9108951182108212828F5FF6
:101700003396D0CF0C2F10E070E0C8010E94C5279F
:1017100020910901820F482F50E02091CC01022E28
:10172000000C330B02171307BCF020910601022EA8
:10173000000C330B201731077CF08D9F9001112492
:10174000285D3C4F4091260360912503809124033E
:101750000E946F08CF5FAACFFA01EE0FFF1FE40FC0
:10176000F51FE85DFC4F118210821282F3CF8F9239
:101770009F92AF92BF92CF92DF92EF92FF920F9320
:101780001F93CF93DF93EC014C81042F10E098015D
:10179000D8010E9409289B01AC010E941F284B011F
:1017A0005C01E0E2F0E0E01BF10BA5E5B0E0AC018C
:1017B0009B010E941F286B017C019F01DF010E9499
:1017C00001289B01AC010E942A289B01AC01280D35
:1017D000391D4A1D5B1DC701B6010E94D927F22E93
:1017E000822F90E039E23F1560F143E0249F9001A1
:1017F000112435952795122F109500E085E5E82EE8
:10180000EF1880910B01081758F10E94EA089C819B
:1018100081E0992319F0903219F48FEF809304013D
:1018200080910401890F8C83DF91CF911F910F91DB
:10183000FF90EF90DF90CF90BF90AF909F908F90F0
:10184000089525E530E0B901681B790B9B01220F53
:10185000331F260F371F37FFCCCF2F5F3F4FC9CF26
:101860008E2D01FD8F2D20910901622F600F7727AA
:10187000771F9B01220F331F260F371F285D3C4F18
:10188000412F609125030E946F080F5FBACF0F931D
:101890001F93CF93DF93EC0110E000E090910B01D8
:1018A0009017110609F06CF40E94EA088C8190E010
:1018B0000196817099278C83DF91CF911F910F91B1
:1018C000089520910901A801420F511D9A01220F8C
:1018D000331F240F351F285D3C4F4C816091250339
:1018E0008091240396959017110651F04CF04423F3
:1018F00049F0409126030E946F080F5F1F4FCECF23
:101900004423B9F340E0F7CF4F925F926F927F92FA
:101910008F929F92AF92BF92CF92DF92EF92FF92FF
:101920000F931F93CF93DF93FC016280448081E08B
:101930008483E3E8F2E07490E2E0F3E0E491812C48
:1019400075E0972EF2E0CF2EDD24D394AA24AA943A
:10195000B12C55245A94E7190E2F10E080910B01F9
:10196000881690F0DF91CF911F910F91FF90EF902B
:10197000DF90CF90BF90AF909F908F907F906F90AF
:101980005F904F900C94EA08E82CF12C82E08615C9
:1019900068F09E9CF0019F9CF00D1124E253FE4FD5
:1019A000809124038083809125038183411023C08B
:1019B0009E9CF0019F9CF00D1124E253FE4F138278
:1019C000128220910901C701820F911D9C01220FF3
:1019D000331F280F391F285D3C4F9E9CF0019F9CB0
:1019E000F00D1124E253FE4F4281618180810E94FB
:1019F0006F088394B3CF9E9CE0019F9CD00D11246F
:101A0000C253DE4F8B818823E9F081508B83859D03
:101A1000C00111246C8170E00E94B127FB01FF27F7
:101A2000ED57FD4F8491E82FE719E59DC001112482
:101A3000B8010E94B12780912603689FB00111244C
:101A40007A83BFCF0E947E282091260326952158B5
:101A50002C9DA0012D9D500D1124452F5527841735
:101A600095070CF0AECF82E0861588F40E947E28A0
:101A7000B5010E94C52788830E947E2820912503F6
:101A80002695622F70E00E94C527280F29839E9C0F
:101A9000F0019F9CF00D1124E253FE4F12828091C1
:101AA0002603893C58F088EC9E9CF0019F9CF00D29
:101AB0001124E253FE4F8483838383CF8431A0F7C4
:101AC00084E1F2CFE3E2F3E080818E7F8083608166
:101AD0007181828193810E949008109262022FEF9F
:101AE00080E792E0215080409040E1F700C0000084
:101AF0000C94EA0860912303669570E04BE050E097
:101B00008CE091E00E948E28892B19F481E080936B
:101B100062020E944E2090935B0280935A020895C5
:101B20009091230390FF35C09170811128C092607D
:101B300090932303662351F0609123037091240353
:101B400080912503909126030E94900860912303C1
:101B5000669570E04BE050E08CE091E00E948E28AA
:101B6000892BA1F01092620281E080935D02409186
:101B7000260360912503809124030C948A0A8B32FA
:101B800010F09465D5CF880F982BD2CF0E947A0D94
:101B9000EBCF0895682F90912303969581E0890FEC
:101BA0008B3208F081E00C94900D81E00C94CA0D0A
:101BB000682F9091230396958FEF890F09F48AE29D
:101BC0000C94900D81E00C94D80D61E00C94900D74
:101BD000E3E2F3E080818160808386950C94E50DDB
:101BE0008091230380FD0C94620D0C94E80D60E05D
:101BF0000C94900D8091600281112EC00E94BF1E36
:101C0000811104C00E946C1F0E94A2080E948C08CF
:101C100060932303709324038093250390932603FA
:101C20006E7F61F40E94A2080E948C0860932303D7
:101C30007093240380932503909326030E947D08CC
:101C4000109262028091230380FF03C086950E9458
:101C5000F70D81E08093600208950F931F93CF9357
:101C6000DF9380916202882309F496C0809161021B
:101C7000E0912303E695E81BE0935C02823091F546
:101C8000F0E0E158FD4FE491CE2FD0E00FE319E0F2
:101C900080915D02882361F010925D020E944E20C7
:101CA00090935B0280935A0210925F0210925E0240
:101CB0000E944E20E0915A02F0915B028E1B9F0B16
:101CC0008F3F9F4708F068C0EC0FFD1FF0935B0249
:101CD000E0935A028AE592E0F801DF91CF911F91DB
:101CE0000F910994863049F4F0E0E458FD4FE491F7
:101CF000CE2FD0E003E519E0CBCF893051F4E69543
:101D0000F0E0E758FD4FE491CE2FD0E00DE81AE067
:101D1000BFCF8F3051F4E695F0E0EA58FD4FE491E3
:101D2000CE2FD0E00AEC1AE0B3CF853149F4F0E0D1
:101D3000ED58FD4FE491CE2FD0E004E41BE0A8CF96
:101D4000C8E2D0E007EB1BE0883109F4A1CF833271
:101D500039F4E1E7F2E0C591D49103E619E098CFB8
:101D6000C4EFD1E007E41CE0843209F491CFC0ED68
:101D7000D7E00CE618E0853209F08ACF8E2F63E0B9
:101D80000E949727E92FF0E0E259FD4FE491CE2F12
:101D9000D0E004E81CE07CCFDF91CF911F910F9140
:101DA0000895FA01811101C0FB010994CF93DF93DB
:101DB000C82FD62F0E94B1088C1740F00E94B1089E
:101DC0008D1720F4DF91CF910C94D50D8C2FDF91DE
:101DD000CF910C94E50D0F931F93CF938C01FB01D2
:101DE000C281CC2309F465C00E94081E8272F801EA
:101DF000E35CFC45E431F10538F4EC5FF64D0C94FE
:101E0000FB270E94F00DC0E08C2FCF911F910F9106
:101E1000089542EE5DE065ED7DE00E94D10EF3CFC6
:101E200045ED5DE062EE7DE0F8CF4BE45AE06EE315
:101E30007AE0F3CF4EE35AE06BE47AE0EECF49E686
:101E40005AE06AE57AE0E9CF4AE55AE069E67AE0E5
:101E5000E4CF47E85AE068E77AE0DFCF48E75AE0A6
:101E600067E87AE0DACF44EE58E06DEC78E0D5CF61
:101E70004DEC58E064EE78E0D0CF81E00E94E50DB3
:101E8000C2CF65E082E00E94D60EBDCF68E086E05A
:101E9000FACF6EE089E0F7CF64E18FE0F4CF67E13D
:101EA00085E1F1CF88E1EACF62E289E1ECCF83E21C
:101EB000E5CFC1E0A9CF80917C0386958695869574
:101EC000089580917C0381FD07C0826080937C032C
:101ED0000E94F11E0C94E410089580917C0381FF10
:101EE00007C08D7F80937C030E94F11E0C94F0103C
:101EF000089580917C0381FD0C946D0F0C94610F0B
:101F000080917C03869581700895809117010895D2
:101F10000E94BF1E811102C00E946C1F0E94ED1E14
:101F200080937C03803220F08770886180937C03EB
:101F300090917C03892F817090FF04C0892F869532
:101F4000869586950C94BA1080917C03982F96956F
:101F500096959695933040F49F5F990F990F990F3E
:101F60008770892B80937C0380917C0381608093B0
:101F70007C030E94F11E80917C0386958695869550
:101F80000C94BA1080917C03982F987F79F0885038
:101F900080937C03887F91E009F490E080917C033A
:101FA00090FB80F980937C030E94F11E80917C035A
:101FB0008695869586950C94BA1080917C0380FD59
:101FC00013C0816080937C03813019F489E0809391
:101FD0007C0380917C030E94F11E80917C03869596
:101FE000869586950C94BA10089580917C0380FFA5
:101FF00008C08E7F80937C030E94F11E80E00C94C9
:10200000BA10089580917C0380FD0C94F50F0C9418
:10201000DD0F90917C03892F8695869586958F5F3D
:102020008F7197708430D8F4880F880F880F892BB0
:1020300080937C0380917C03887F91E009F490E099
:1020400080917C0390FB80F980937C030E94F11EB9
:1020500080917C038695869586950C94BA10909312
:102060007C03E8CF843008F083E090917C03977084
:10207000282F220F220F220F922B90937C03987F00
:1020800021E009F420E090917C0320FB90F99093EB
:102090007C030C94BA100E94321080917C030C9443
:1020A000F11EFC01DB0112968C918823F9F0EC5BA8
:1020B000FC45E730F105D8F4E85EF64D0C94FB27BB
:1020C00083E00E944B1080E0089580E0FACF0E94E8
:1020D000C20FF9CF0E94A40FF6CF0E940210F3CFD7
:1020E0000E940910F0CF0E94790FEDCF81E0089592
:1020F000279A2F9808952F980895CF92DF92EF9204
:10210000FF928C3724E1920750F469E070E00E945E
:10211000B127CB01FF90EF90DF90CF900895B0E012
:10212000A0E0BC01CD016A50774D8F4F9F4F982F93
:10213000872F762F662725EF38E241E050E00E9496
:10214000D92769017A01CA01B9010E9487279B0139
:10215000AC01C701B6010E948727672F782F892F0E
:1021600099276115710521E08207910591F66FEFBE
:102170007FEFCFCFCF93C82F8430F0F481111DC0F3
:1021800080918000877F809380000E947B102C2F9D
:1021900030E0AFEFBFEF0E94092823E030E040E0DD
:1021A00050E00E94D927C9010E947D1090938D00B4
:1021B00080938C00CF910895C3E080918000886067
:1021C00080938000E4CF089510926402109263021D
:1021D00010926502EFE6F0E08081816080830895CF
:1021E000EFE6F0E080818E7F80830E945B0F0C948D
:1021F000BA101F920F920FB60F9211242F933F9394
:102200004F935F936F937F938F939F93AF93BF93FE
:10221000CF93EF93FF930E94850F409163025091FB
:1022200064024F5F5F4F94EF899F90011124CA01B0
:10223000B9010E94B1279093640280936302B901AF
:10224000660F672F661F770B71950E94B1276F7716
:1022500080916502823041F4603451F480916F00C6
:102260008E7F80936F0004C0813011F46F37B1F31B
:10227000E62FF0E0E857FC4FC4910E945B0F282F37
:1022800041E051E0C49FC001C59F900D112463E05F
:1022900070E00E94B127269FC001279F900D112456
:1022A0000E947D1090938D0080938C00FF91EF91A0
:1022B000CF91BF91AF919F918F917F916F915F91DE
:1022C0004F913F912F910F900FBE0F901F90189537
:1022D0000E9478108AE08093800089E180938100D9
:1022E0008FEF9FEF90938700809386000E94880F66
:1022F0000E94800F81110C94E41008956A9A4EB1E7
:102300004B7F5EB15460EFB7F8949B01220F331FEF
:10231000260F371F280F391F2817390741F4EFBF41
:102320008FE594E00197F1F700C000000895DC010B
:102330006D91CD0178E05EB9000000C067FF4EB935
:10234000660F000000C000C000C04EB900C07A9502
:1023500091F7E2CF0F931F93CF93DF93C42FD22F28
:10236000FC0182818823C9F0409368020E944E20BC
:10237000909367028093660280E28C0F883008F0A9
:1023800050C0C77081E001C0880FCA95EAF7DF919D
:10239000CF911F910F910C94211610916802141384
:1023A00035C080916602909167020E946620883C49
:1023B000910560F5C0E2CD0F1D17B9F080E2810FE5
:1023C000883040F4177081E001C0880F1A95EAF751
:1023D0000E942816C83048F481E09D2F977001C0F4
:1023E000880F9A95EAF70E942116802F0E941916ED
:1023F000C830B8F4D77081E001C0880FDA95EAF7E9
:10240000DF91CF911F910F910C94281680E28C0FD1
:10241000883038F4C77081E001C0880FCA95EAF7A8
:10242000EFCFDF91CF911F910F9108950F939C01F2
:10243000CB01243F4CE5340759F1A8F4293DFCE5D4
:102440003F0701F12A3D4CE53407D1F1283D3C45D9
:1024500091F406E221EE41EE68ED7CE50E94AA11BE
:1024600080E00F910895263FFCE53F07E9F0B0F0CA
:10247000273F3C45F9F0FC018281882339F1109215
:102480006802EFCF07E225EE45EE69ED7CE5E6CF89
:1024900006E221EE40EE64EF7CE5E0CF07E225EEB8
:1024A00044EE65EF7CE5DACF06E221EE42EE66EF20
:1024B0007CE5D4CF07E225EE46EE67EF7CE5CECF94
:1024C00008E221E045EE6AED7CE5C8CF81E0C9CFA6
:1024D000CF93DF93EC01FB018281882309F419C1BA
:1024E000C230FCE5DF07C0F1C6319CE5D90730F00A
:1024F0009E012B5F3C452930310570F50E94D21EAC
:102500009093820380938103C031ECE5DE0709F4E8
:10251000CFC008F05BC0C8308CE5D80709F4B6C05E
:1025200088F5C430ECE5DE0709F4A8C0C0F4C23079
:102530008CE5D80709F49CC0809181038260C33088
:10254000DC4509F498C080918103909182030E9438
:10255000E01E0E948B1880E0DF91CF91089580915A
:1025600081038061C630ECE5DE0709F484C0809108
:1025700081038860C730DC4508F47DC08091810309
:10258000806279C0CC308CE5D80709F489C070F43A
:10259000809181038C60CA30ECE5DE0709F46BC0E2
:1025A00008F478C0809181038E7F65C0CE308CE5C1
:1025B000D80709F479C0809181038B7FCF30DC4547
:1025C00008F459C0809181038F7E55C0CC3FECE563
:1025D000DE0709F457C030F5C3318CE5D80709F49C
:1025E0006FC078F4C131ECE5DE0709F465C0C23193
:1025F000DC4509F0A8CF0E948B18809181038F776A
:102600003AC0C5318CE5D80709F462C008F476C039
:10261000809182038160CB3FDC4509F094CF8093A9
:10262000820391CFC115FDE5DF0709F44DC088F4A1
:10263000809182038D7FCE3F9CE5D90781F3809105
:1026400082038E7FCF3FDC4550F38091820383600D
:10265000E6CFC230FDE5DF0709F459C008F444C0F5
:1026600080E0C330DD4509F06ECF0E946E1F6BCF56
:102670008091810381608093810365CF8091810384
:102680008460F9CF809182038260C9CF80918103F9
:102690008064F1CF0E948B18809181038068EBCF1A
:1026A000809181038D7FE7CF80918103877FE3CF86
:1026B000809181038F7DDFCF809181038F7BDBCF82
:1026C00080918103837FD7CF809182038C7FA7CFB6
:1026D0008091810382FB992790F921E0922790FB5A
:1026E00082F990FB83F9C7CF80918203982F909550
:1026F00091708E7F892B90FB81F991CF0E948B186E
:1027000090918103892F97FB87F98058B4CF81E09E
:10271000ACCF81E021CFCF93DF93EB0186319C4595
:1027200011F50E94081E9A81992399F08A7A91E006
:1027300009F490E090936902811109C089E20E9436
:10274000E31D0E94541E80E0DF91CF91089585E340
:10275000F6CF80916902811104C089E20E94EA1DCE
:10276000F0CF85E3FBCF81E0EFCF90936F028093B2
:102770006E020895E0916E02F0916F02309721F0A1
:102780000190F081E02D099480E00895E0916E02BF
:10279000F0916F02309721F00280F381E02D0994CF
:1027A000089520916C0230916D022817390771F05D
:1027B00090936D0280936C02E0916E02F0916F0233
:1027C000309721F00680F781E02D0994089520913B
:1027D0006A0230916B022817390771F090936B02EF
:1027E00080936A02E0916E02F0916F02309721F0BF
:1027F0000084F185E02D099408950E945A20609389
:102800007F02709380028093810290938202609392
:102810007B0270937C0280937D0290937E020895E8
:1028200085B7806885BF85B7806885BF089508959E
:1028300008950C94171408950C941B140E941014FE
:1028400087EB9EE10E94BD200E9418140C9419147D
:1028500081E008950C942814089508950E9445205D
:102860000E94C8060E94D8200E94880F0E94FA0D7C
:102870000C941C148F929F92AF92BF92CF92DF92D2
:10288000EF92FF920F931F93CF93DF93CDB7DEB7F5
:102890002A970FB6F894DEBF0FBECDBF0E942C144E
:1028A0000E942D140E94160781110E94FD1351E70A
:1028B000852E52E0952E10E000E0A02E802F0E9481
:1028C0009F066C01F401E190F1904F01E816F906C2
:1028D00009F45EC08091030381FD0E94A806C70130
:1028E0008C259D25B12CEE24E394F12C9C012E2106
:1028F0003F21232B09F446C00E942A148823A9F003
:10290000BE82AF82CE20DF2081E0CD2809F480E0B6
:1029100088870E944E208160782F9A8789874E8110
:102920005F8168858A850E94F214000F111FF801EB
:10293000EF58FD4F80819181E826F926F182E082EF
:102940000E942D0E0E94E3100E94BA139091700213
:102950008917A9F10E94BA13809370022A960FB6C4
:10296000F894DEBF0FBECDBFDF91CF911F910F91C5
:10297000FF90EF90DF90CF90BF90AF909F908F909F
:102980000C948D04B394EE0CFF1CFFE0BF12AECF8D
:102990000F5F1F4F0530110509F08FCF8FEF89832F
:1029A0008A831B820E944E208160782F9D838C83B6
:1029B00049815A816B818D810E94F214C1CF2A9680
:1029C0000FB6F894DEBF0FBECDBFDF91CF911F9140
:1029D0000F91FF90EF90DF90CF90BF90AF909F90BE
:1029E0008F900895DF92EF92FF920F931F93CF93F2
:1029F000DF93CDB7DEB72B970FB6F894DEBF0FBECF
:102A0000CDBF7A878B87F42E052F162FE72ED82E71
:102A100061110E94281E1E821D827E2DEC82DD82A5
:102A20004F2D502F612F8D2D9E812B960FB6F89430
:102A3000DEBF0FBECDBFDF91CF911F910F91FF90F1
:102A4000EF90DF900C94011BFC01808191810C942C
:102A5000B51DCF93C82F882309F483C08238C1F4F1
:102A60000E94BA1381FD7DC089E30E94E31D0E948C
:102A7000541E2FEF81EE94E0215080409040E1F70A
:102A800000C0000089E30E94EA1DCF910C94541EFF
:102A90008338A1F40E94BA1380FD63C083E50E94CD
:102AA000E31D0E94541E2FEF81EE94E021508040E0
:102AB0009040E1F700C0000083E5E5CF8438A1F441
:102AC0000E94BA1382FD4DC087E40E94E31D0E945C
:102AD000541E2FEF81EE94E0215080409040E1F7AA
:102AE00000C0000087E4CFCF8CEF8C0F813A90F4C8
:102AF0006C2F80911801909119010E94851F8823E5
:102B000029F08C2F0E94EA1D0E94541E8C2F0E94D7
:102B1000E31DBBCF80E28C0F883048F4C77081E0A2
:102B200001C0880FCA95EAF70E940B1EAECFEBE5F5
:102B3000EC0FE33040F4F0E0ED53FE4F808190E085
:102B4000CF910C94D113C85AC73158F4EC2FF0E050
:102B5000EE0FFF1FEB56FE4F80819181CF910C94B9
:102B6000E713CF910895882309F44BC0823871F49C
:102B70000E94BA1381FF45C089E30E94E31D0E94B1
:102B8000541E89E30E94EA1D0C94541E833859F4A4
:102B90000E94BA1380FF35C083E50E94E31D0E94A6
:102BA000541E83E5EFCF843859F40E94BA1382FF94
:102BB00028C087E40E94E31D0E94541E87E4E2CFF0
:102BC0009CEF980F913AF0F290E2980F983050F401
:102BD000877091E001C0990F8A95EAF7892F0E94CA
:102BE000111ED2CF9BE5980F933020F490E080E047
:102BF0000C94D113885A873120F490E080E00C9433
:102C0000E71308951F93CF93DF93182FEB010E94D2
:102C10002915209731F4812FDF91CF911F910C94CA
:102C2000B3158FE99FE00197F1F700C000002197ED
:102C3000F0CF70E060E0893311F460E570E00C944F
:102C40000216882321F00E940B1E0C94541E089536
:102C5000882321F00E94111E0C94541E0895BF92E7
:102C6000CF92DF92EF92FF920F931F93CF93DF9358
:102C70006C01D62FC72FFC011281058102950F70C0
:102C80000E94011EE82E8823A1F0E12E112389F075
:102C90008C2F807F803429F080E28D0FE12C8830EA
:102CA00040F082E00E949F1E0E94011E91E0E82EEB
:102CB000E926BC2EB2949FE0B922EB2DF0E0E15E54
:102CC000F64D0C94FB270C2F0F70C07F11F002956E
:102CD000007F1123A9F0002359F080E28D0F883086
:102CE00010F0D11109C0802F0E940B1E0E94541EAB
:102CF0008D2F0E94291514C0802F0E941B1EF6CF15
:102D00008D2F0E94B315002359F080E28D0F88307B
:102D100010F0D1112CC0802F0E94111E0E94541E51
:102D20002B2D2850330B2430310520F40E94BA1388
:102D30000E948D04EE2009F493C10E94FD1D80FDC8
:102D40008FC1F60112820E94F71D0E94831CC601EA
:102D50000E9451180E94F71DDF91CF911F910F9192
:102D6000FF90EF90DF90CF90BF900C94A41C802F29
:102D70000E94211ED3CFFC2FFF70FF2EC07FC032D8
:102D800019F0F29480EFF822DD2369F0D13049F197
:102D9000112391F1002351F1F601858180FFA8CF25
:102DA0008F70858323C0112381F0011106C00E941A
:102DB0003B1E8F290E942116B3CF0130C1F70E941C
:102DC0003B1E8F290E94411EABCF011106C00E94FD
:102DD0004A1E8F2D0E942816A3CF013009F4A0CFE0
:102DE000F6CF112329F0063008F09ACF8F2DE2CFCD
:102DF000053008F095CFEDCF002359F3D93349F4CE
:102E0000FFEF27EE33E0F15020403040E1F700C003
:102E100000008D2F0E94B31583CF8C2F8695869549
:102E2000837069F0813009F07BCF8D2F9C2F9370D8
:102E3000111102C090E080E00E94E71371CF8D2F46
:102E40009C2F9370111102C090E080E00E94D1137A
:102E500067CF8C2F837009F041C0111161CF4D2FC6
:102E6000429546954770440F440F0D2F0F7010E0A8
:102E700030E020E0042E04C0000F111F221F331F7A
:102E80000A94D2F760E070E0CB01D4FF0FC06FE08E
:102E900070E080E090E004C0660F771F881F991FE4
:102EA0004A95D2F76095709580959095C695C69590
:102EB000C370602B712B822B932BC23049F058F4D6
:102EC000C13019F00E94371C2BCF0E94251C28CF3F
:102ED0000E94491C25CF0E94231C22CF86951123D6
:102EE00011F08C2F8170882309F41ACF4D2F429551
:102EF00046954770440F440F0D2F0F7010E030E0DF
:102F000020E0042E04C0000F111F221F331F0A945B
:102F1000D2F760E070E0CB01D4FF0FC06FE070E04B
:102F200080E090E004C0660F771F881F991F4A95C4
:102F3000D2F76095709580959095C695C695C370AB
:102F4000602B712B822B932BC23049F058F4C13087
:102F500019F00E94FA1CE4CE0E94E81CE1CE0E9407
:102F60000C1DDECE0E945D1CDBCECF70112329F03C
:102F70008C2F0E94831C8D2F1DCF8D2F0E94281611
:102F80008C2F0E94A41CCCCED23F89F160F4D03F9C
:102F9000C9F0D13F29F1112309F442C00111A8CE93
:102FA0008C2F8F7121C0D33F39F1D43FA1F711236A
:102FB00069F1CF718C2F0E94831C63E08C2F0E94DB
:102FC0008A1EAECE112341F0053008F0A9CE8C2F19
:102FD0008F710E94C71CA4CE063008F0A1CEF7CF97
:102FE0008C2F8F71112369F20E94831C99CE8C2F34
:102FF0008F711123C9F3C5CF112329F08C2F8F7145
:103000000E946E1C8DCE0E94691C8ACE81E00E94B7
:103010009F1E023008F484CE82E00E949F1E80CE64
:10302000002359F0D93309F0F4CE8FEF97EEE3E0A7
:1030300081509040E040E1F7EACE8C2F8F71A1CF14
:103040004C2F4F706D2FC6010E9495040E949B1B50
:1030500067CE4C2F4F706D2FC6010E94980460CE32
:10306000DF91CF911F910F91FF90EF90DF90CF9064
:10307000BF9008950F931F93CF93DF93EC01688166
:1030800079818A810E94BF1D8C010E941E1D0E94B1
:10309000221CB801CE01DF91CF911F910F910C94AA
:1030A0002F16CF93DF93EC018B819C81892B29F024
:1030B0008881998189238F3F59F4DF91CF910895B9
:1030C000CE010E943A18CE01DF91CF910C94CA0331
:1030D000CE010E94F3038111F3CF0E94011E8823C9
:1030E00061F38A81882349F382E0DF91CF910C94C8
:1030F0009F1E90E080E00E94D11390E080E00E944B
:10310000E7130E94281E0E94381E0C94541E0E9431
:10311000F11D0C9479180E94181E0C948718E92F41
:10312000E295EF70E250EE3070F4F0E0E15DF64DC4
:103130000C94FB27803F19F020F4883E20F481E0B6
:103140000895843FE1F380E00895883EC0F3813F15
:10315000D1F7F5CF93FB882780F908950E94B51D1C
:103160000C948F18CF93DF9300D000D00F92CDB77F
:10317000DEB70F900F900F900F900F90DF91CF91CF
:103180000895CF93DF9300D000D000D0CDB7DEB745
:1031900026960FB6F894DEBF0FBECDBFDF91CF915C
:1031A00008951F93CF93DF93C091840216E080911E
:1031B00085028C1304C0DF91CF911F910895D0E058
:1031C0001C9FF0011D9FF00D1124EA57FD4F408117
:1031D000518162817381848195810E94C1182196F9
:1031E000C770E5CF4091B6025091B7026091B80226
:1031F0007091B9028091BA029091BB020C94C118EF
:103200001F93CF93DF938091BB02807FA9F48091BD
:10321000B802882389F080918402C0918502609170
:10322000B6027091B702A091B902B091BA02D62F3E
:10323000D72316E0C81304C0DF91CF911F910895E2
:1032400090E0109711F0DF3F19F401968770F2CFEC
:10325000189F9001199F300D1124F901EA57FD4F75
:1032600041814713F2CF40814613EFCF4281411194
:10327000ECCF438154814A1B5B0B483C510528F736
:103280008091BB028F7080618093BB02F901E5578A
:10329000FD4F80818F708061808386EB92E00E9479
:1032A0005118DF91CF911F910C94D118AF92BF921A
:1032B000CF92DF92EF92FF920F931F93CF93DF9302
:1032C000CDB7DEB761970FB6F894DEBF0FBECDBFA6
:1032D0008C0185E0F801DE011D9601900D928A9522
:1032E000E1F7F80140815181E28086EBC82E82E04F
:1032F000D82E6091B9027091BA026115710509F476
:1033000061C19091B6022091B702892F82238F3F2D
:1033100009F458C1A380B480F090B802F501E61B0F
:10332000F70BFF2009F4FCC08091BB02382F307FDF
:10333000E83CF10508F0B2C0311179C0FE2C25132C
:1033400023C0941321C0E1101FC08F70806180934F
:10335000BB020E94F218C6010E9451188091BB0264
:10336000F80185838F2D61960FB6F894DEBF0FBEEE
:10337000CDBFDF91CF911F910F91FF90EF90DF9024
:10338000CF90BF90AF900895AB2829F0842F85236C
:103390008F3F09F033C180E0F82FF170DF2E80FFFE
:1033A0003CC0809184022091850236E0821315C0D2
:1033B0004D875E878D859E850E94B51D292F22959C
:1033C0002F702230F0F0243018F59F70F1F0F801E2
:1033D0009581907FD1F4D12C1EC090E0389FF001F0
:1033E000399FF00D1124EA57FD4F6181651306C026
:1033F0006081641303C062816E110FC001968770F3
:10340000D5CF9F7011F0882331F3805E883018F398
:10341000C8010E945118FD2CA5CFEE2009F4A2CFBF
:103420008091BB0281608093BB02F12C9BCF25135E
:1034300006C0941304C0F801EE2009F48DC04D8736
:103440005E878D859E850E94AE18882319F1EE2037
:1034500009F18091BB02803270F02091B602309168
:10346000B70238872F831986BB86AA868C87CE0140
:1034700007960E94511886E0F801A6EBB2E0019091
:103480000D928A95E1F70E9400190E94F218FF241C
:10349000F39468CFC8010E945118F9CF311113C0BD
:1034A0007A2DB98AA88A6E2D89890E94B21886EB76
:1034B00092E00E94511886E0F60111928A95E9F790
:1034C0000E94F218B2CF25130FC094130DC0E11063
:1034D0000BC0F8018583C8010E94511886E0F601EF
:1034E00011928A95E9F73ECF4D875E878D859E853F
:1034F0000E94AE18882371F2EE2061F28091BB0227
:10350000803208F4B8CF2091B6023091B7023A83E6
:1035100029831B82BD82AC828E83CE010196A9CF06
:10352000E83CF10508F041C0FE2CEE2009F4B2CFD2
:1035300025132AC0941328C08091BB0280FD1BC0B4
:10354000982F907FC1F0F8018583903F31F0982F3C
:10355000907F905F8F70892B8583C8010E945118DE
:1035600086E0F801A6EBB2E001900D928A95E1F7B2
:103570000E94F218F7CE86E0F801A6EBB2E00190C7
:103580000D928A95E1F7EECE4D875E878D859E85FB
:103590000E94AE1881116FCF8091BB028160809331
:1035A000BB02C8010E945118DDCE7A2DB98AA88AC3
:1035B0006E2D89890E94B21886E0F60111928A95D3
:1035C000E9F7D6CFEE2009F465CF4D875E878D856C
:1035D0009E850E94AE18F82E882309F45BCF86E002
:1035E000F801A6EBB2E001900D928A95E1F786EB27
:1035F00092E00E9424150E940019BACF81E08E2526
:10360000CBCE1F93CF93DF93CDB7DEB72C970FB6FA
:10361000F894DEBF0FBECDBF4F83588769877A8786
:103620008B879C87CE0107960E945619882369F0E4
:103630008A859B85892B39F04F815885842F852376
:103640008F3F09F071C016E05FC086E0FE0137963B
:10365000DE01119601900D928A95E1F78A859B858E
:10366000892B89F38F81988589238F3F61F320917E
:10367000850230E0C9010196877099274091840244
:103680004817190671F40E948B1810928502109247
:10369000840286E0E6EBF2E0DF011D928A95E9F70D
:1036A000D2CF96E0929FD001939FB00D1124AA57DC
:1036B000BD4FFE01319601900D929A95E1F78093EE
:1036C00085020E94D118BFCF819FC00111248A5763
:1036D0009D4F0E9456198823E9F0E09184021E9FB5
:1036E000F0011124EA57FD4F4081518162817381BD
:1036F000848195810E94C1188091840290E0019696
:10370000877099278093840280918402909185022A
:103710008913DACF2C960FB6F894DEBF0FBECDBF5B
:10372000DF91CF911F91089569857A858B859C855E
:103730000E94C11888CFEF92FF920F931F93CF93EF
:10374000DF938C01892B81F0F12CEE24E394E801C6
:103750002196F8018491843770F4843008F05FC0BA
:103760008130B1F08230A1F1DF91CF911F910F91A3
:10377000FF90EF900895853709F44CC008F43DC0E0
:103780009CE7980F903780F78F770E94B31549C058
:103790000E5F1F4FFE01849190E2980F983060F405
:1037A0008770FE2D01C0FF0F8A95EAF78F2F0E94C8
:1037B0002B1E0E94541E02C00E9429158F2D81507D
:1037C00030F2EFE9FFE03197F1F700C00000F7CFEA
:1037D0000E5F1F4FFE01849190E2980F983050F4D5
:1037E0008770FE2D01C0FF0F8A95EAF78F2F0E9488
:1037F000311EDFCF0E94B315E1CF0E5F1F4FFE01D8
:10380000C491C150D8F28FE99FE00197F1F700C051
:103810000000F7CF0E5F1F4FFE01F490CFCF0E9444
:1038200029158E01CBCF08950C94131C0E94141CF3
:103830006093F2027093F3028093F4029093F50286
:103840000C94791808950C94161C0F931F930091F3
:10385000F2021091F3022091F4023091F502602BF4
:10386000712B822B932B1F910F910C94161C0F938D
:103870001F930091F2021091F3022091F402309113
:10388000F50260237123822393231F910F910C94DF
:10389000161C0F931F930091F2021091F3022091D6
:1038A000F4023091F50260277127822793271F9138
:1038B0000F910C94161C0C945F030E945B1C609388
:1038C000EE027093EF028093F0029093F1020C9459
:1038D000791860E070E0CB010C945D1C0F931F938E
:1038E00041E050E060E070E08A019B0104C0000FFD
:1038F000111F221F331F8A95D2F7C901B8011F91EA
:103900000F910C945D1C0F931F9341E050E060E019
:1039100070E004C0440F551F661F771F8A95D2F7C9
:103920008091EE029091EF02A091F002B091F1022D
:103930008A019B01082B192B2A2B3B2BC901B801AB
:103940001F910F910C945D1C0F931F9341E050E069
:1039500060E070E004C0440F551F661F771F8A9512
:10396000D2F7CB01BA016095709580959095009142
:10397000EE021091EF022091F0023091F1026023EB
:103980007123822393231F910F910C945D1C0F933D
:103990001F9341E050E060E070E004C0440F551F09
:1039A000661F771F8A95D2F78091EE029091EF0201
:1039B000A091F002B091F1028A019B01082719271A
:1039C0002A273B27C901B8011F910F910C945D1C58
:1039D0000F931F930091EE021091EF022091F002DD
:1039E0003091F102602B712B822B932B1F910F9141
:1039F0000C945D1C0F931F930091EE021091EF0247
:103A00002091F0023091F1026023712382239323ED
:103A10001F910F910C945D1C0F931F930091EE0268
:103A20001091EF022091F0023091F102602771278E
:103A3000822793271F910F910C945D1C08952FE00E
:103A4000929F800D1124982F977041E001C0440F80
:103A50009A95EAF786958695869595E0899FF00177
:103A60001124E454FD4F90E080E070E05191DF01BB
:103A700011979B01082E02C0369527950A94E2F70C
:103A8000217021952527242325272C930196853005
:103A9000910561F708952FE0929F800D1124982FD2
:103AA000977086958695869525E0829FF001112472
:103AB000E454FD4F50E040E080E0219130E0092ED9
:103AC00002C0369527950A94E2F721703327042E19
:103AD00001C0220F0A94EAF7822B4F5F5F4F4530F7
:103AE000510559F70895BF92CF92DF92EF92FF925E
:103AF0000F931F93CF93DF938C01C090EE02D09071
:103B0000EF02E090F002F090F1028091F2029091C9
:103B1000F302A091F402B091F502C82AD92AEA2A48
:103B2000FB2ACFE1D0E0BC2ED701C6010C2E04C089
:103B3000B695A795979587950A94D2F780FD0EC004
:103B4000219788F7B12C8B2DDF91CF911F910F9189
:103B5000FF90EF90DF90CF90BF900895B8018C2F29
:103B60000E94B504019761F3EECFCF93DF93EC0190
:103B70000E94731DBE01DF91CF910C94B5041F9379
:103B8000CF93DF93EB0190918302992331F0CB0126
:103B9000DF91CF911F910C94B51D882379F0CB0153
:103BA0000E94731D182F682FCE010E941F1DBE0199
:103BB000812FDF91CF911F910C94B504CB010E940E
:103BC0004B1D182FF4CF682F809118019091190187
:103BD0000C94BB1F682F80911801909119010C94CF
:103BE000BD1F80911801909119010C94BF1F809105
:103BF000F60285958595859508958091F6028770E2
:103C000008959091F602977081E009F480E008959C
:103C100080910203089590910203892B80930203FF
:103C2000089580959091020398239093020308953C
:103C300010920203089590910103892B8093010350
:103C4000089580959091010398239093010308951E
:103C500010920103089590910003892B8093000333
:103C60000895809590910003982390930003089500
:103C70001092000308958091F702089508950C941E
:103C80003E1E9091F702981721F08093F7020C9452
:103C90003F1E08958091F702882329F01092F702C1
:103CA00080E00C943F1E0895E0911801F0911901F5
:103CB000809102038083E0911801F09119018081C5
:103CC00090910103892B8083E0911801F0911901F3
:103CD000808190910003892B80839091F702992332
:103CE00081F0E0911801F09119018081892B808386
:103CF00080911801909119010E94731F81110E94F7
:103D00004A1E80911801909119010C94C6130895D0
:103D10000C94871E98E0899F90011124622B609378
:103D2000F6020E94831C8091F60285958595859503
:103D30000C94881E1092F60280E00C94881E9091DC
:103D4000F602809589238093F602282F277071F45C
:103D5000282F082E000C330B9217130639F0859587
:103D6000859585950E94A41C0C949A1E089580E068
:103D700008956FEF7FEF90E080E00C94CD2890E005
:103D800080E00E94A92821E08B3E9E4F09F020E0B0
:103D9000822F089582E090E00C949B2883E090E0CD
:103DA0000C949B28CF9384E090E00E949B28C82F1E
:103DB00081E290E00E949B28982F8C2FCF9108954C
:103DC000CF93C92F682F84E090E00E94AF286C2F1A
:103DD00081E290E0CF910C94AF2886E090E00C94C3
:103DE0009B28682F86E090E00C94AF28AB01BC01C3
:103DF0008FE090E00C94C128AB01BC0183E190E01E
:103E00000C94C12860E070E0CB010C94FC1E60E0D3
:103E100070E0CB010E94F61E0C94021F6BEE7EEF49
:103E200090E080E00E94CD2860E082E090E00E9477
:103E3000AF2860E083E090E00E94AF281092F20289
:103E40001092F3021092F4021092F50260E084E006
:103E500090E00E94AF2860E081E290E00E94AF28ED
:103E600060E085E090E00E94AF2860E086E090E0AE
:103E70000E94AF286FEF87E090E00E94AF2840E0FB
:103E800050E0BA0188E090E00E94C12860E08DE037
:103E900090E00E94AF2840E050E0BA0188E190E055
:103EA0000E94C12860E087E190E00E94AF2840E0D6
:103EB00050E0BA018CE190E00E94C12860E080E20D
:103EC00090E00E94AF2840E050E0BA0188E190E025
:103ED0000E94C1280C94071F0C940E1F682F8EE0BF
:103EE00090E00C94AF289C012E5F3F4FAC01485FDF
:103EF0005F4F80E02417350709F40895F901919187
:103F00009F019923B9F38F5FF5CF662349F0FC0138
:103F1000329608962191261729F0E817F907D1F76C
:103F200080E0089581E008959C01FC0132969FEFA6
:103F300080E04191461751F09F3F19F4411101C0B3
:103F4000982F8F5F8630A9F79F3F09F40895290FB6
:103F5000311D97FD3A95F90162830895FC0132966F
:103F600008962191261303C0DF0111971C92E817D0
:103F7000F907B9F708950C94941F0C94AE1F02969C
:103F800026E0FC0111922A95E9F708950895089515
:103F90000C94C71F80918703843061F10E94C81F71
:103FA00080E00E94BA1080E00E948D041092040309
:103FB00088E190E020E40FB6F894A8958093600023
:103FC0000FBE2093600083B7817F846083BF83B777
:103FD000816083BF7894889583B78E7F83BF0FB647
:103FE000F894A89580916000886180936000109299
:103FF00060000FBE08950895CF930E94C61F0E94CF
:1040000016070E94FB1FC0E08C2F0E949F06892B81
:1040100031F4CF5FC530C1F780E0CF91089581E0E2
:10402000FCCF08950C9411200E948B180E94880FD9
:104030000E94BA130E948D040C9412201F921FB686
:104040001F9211248F939F93AF93BF93809104038A
:10405000811113C080917D0390917E03A0917F0315
:10406000B09180034196A11DB11D80937D03909373
:104070007E03A0937F03B0938003BF91AF919F9184
:104080008F911F901FBE1F90189582E084BD93E012
:1040900095BD9AEF97BD80936E0008952FB7F89461
:1040A00080917D0390917E03A0917F03B091800366
:1040B0002FBF08952FB7F89460917D0370917E0310
:1040C00080917F03909180032FBF08959C014FB78B
:1040D000F89480917D0390917E03A0917F03B0912D
:1040E00080034FBF821B930B089578941F921FB6D5
:1040F0001F9211248F939F93AF93BF9380917D0361
:1041000090917E03A0917F03B09180030196A11D41
:10411000B11D80937D0390937E03A0937F03B093A2
:104120008003BF91AF919F918F911F901FBE1F90F1
:10413000189581E08093E00080E28093D80010928F
:10414000C9008FE19EE40197F1F700C0000087E00D
:1041500090EBDC018093900390939103A0939203E2
:10416000B093930388E19CE00FB6F894A8958093F0
:1041700060000FBE90936000FFCF9093C7018093C3
:10418000C60108950C94B91E0E9416078FE39CE99E
:104190000197F1F700C000000E94160780E00E941E
:1041A0009F0680FF04C00E94C2200C9499200895AD
:1041B0000E94BF1E811102C00E946C1F0E94CA1E75
:1041C000809303030E94D21E909382038093810305
:1041D0000E94CE1E682F70E090E080E00E94231CB9
:1041E0006091EE027091EF028091F0029091F102E5
:1041F0000C945B1C80910D0308950895CF93DF9379
:1042000000D00F92CDB7DEB790918703943019F5A7
:1042100089837B836A8382E08093E9008FEF9091AA
:10422000E800815095FD06C095ED9A95F1F70000E4
:104230008111F5CF8091E80085FF0DC050E040E08E
:1042400063E070E0CE0101960E94F6228091E800C2
:104250008E778093E8000F900F900F90DF91CF91B1
:104260000895BC0184E00C94FE20BC0183E00C9412
:10427000FE20CF93DF93EC0181E08093E9008FEF84
:104280009091E800815095FD06C095ED9A95F1F763
:1042900000008111F5CF8091E80085FF14C050E047
:1042A00040E068E070E0CE010E94F6228091E800D4
:1042B0008E778093E80088E0FE01A5E0B3E00190EE
:1042C0000D928A95E1F7DF91CF9108958091860351
:1042D000811109C00E9486240E94E3248091E2009B
:1042E00084608093E20008951092860308950895F3
:1042F0000895089542E061EC81E00E94022442E2C8
:1043000061EC82E00C94022480918903833009F4EB
:104310005FC030F48130C1F1823009F49BC0089550
:104320008A3009F487C08B3009F46DC0893009F0F8
:104330004EC080918803813209F049C080918C037E
:1043400090918D03029708F042C08091E800877F2A
:104350008093E8008091E80082FF35C09091F300DF
:104360008091F200029729F48091F1008B7F8130D7
:1043700021F48091F10080930D038091E8008B7708
:104380008093E8000C94362480918803813AF9F4F4
:104390008091E800877F8093E80080918C03909162
:1043A0008D03892B61F468E085E093E070E00E9462
:1043B00045238091E8008B778093E800089560E0C2
:1043C00090E080E0F3CF809187038111C3CF0895FF
:1043D00080918803813AD9F780918C0390918D0365
:1043E000892BA9F78091E800877F8093E80080916E
:1043F000E80080FFFCCF809124018093F100809140
:10440000E8008E77BDCF80918803813201F78091DB
:104410008C0390918D03892BD1F68091E800877FE2
:104420008093E8000E94362480918A0380932401BF
:104430000C948B1880918803813249F68091E800B2
:10444000877F8093E8000E94362480918B038093BD
:104450000E03089580918803813A09F0B8CF8091C6
:10446000E800877F8093E8008091E80080FFFCCF20
:1044700080910E03C2CF84B7877F84BF0FB6F894B4
:10448000A895809160008861809360001092600020
:104490000FBE80E890E00FB6F8948093610090938F
:1044A00061000FBE0E941E140E9486240E94E32415
:1044B0008091E20084608093E20078940E946C27EF
:1044C0000E942E148AE191E00E94B5138091870327
:1044D0008530A9F00E943A140E942C140E942D14D9
:1044E000F5CF0E94CA1F80918503882341F00E9466
:1044F000FC1F882321F00E94E0220E948B188091EB
:104500008703853071F30E941420E4CF0C94882235
:10451000292F33272330310519F168F42130310573
:1045200009F444C02230310509F445C090E080E030
:1045300030E020E025C02132310549F12232310539
:10454000A9F780E490E02BEC35E061157105C1F02E
:1045500082E390E029E935E06130710589F0E6CF2A
:1045600099278130910581F0009729F00297F1F6A3
:10457000E8E0F5E002C0E8E4F5E0849190E09F0116
:10458000FA01318320830895E2E3F5E0F6CF89E074
:1045900090E02EE535E06115710591F389E090E03A
:1045A00027E735E06130710559F3C0CF82E190E033
:1045B00027E835E0E5CF8BE390E02CE435E0E0CF71
:1045C00080E189BD82E189BD09B400FEFDCF809103
:1045D000D8008F7D8093D8008091E0008260809326
:1045E000E0008091E00081FDFCCF0895AF92BF9282
:1045F000CF92DF92FF920F931F93CF93DF936C01C3
:10460000EB018A010E945524F82E811123C0011567
:10461000110539F0F80180819181C81BD90BC80EB2
:10462000D91EB12CA12C2097A9F08091E80085FD1E
:1046300022C08091E8008E778093E8000115110573
:10464000A1F0F80180819181A80EB91EB182A082EB
:1046500085E0F82E8F2DDF91CF911F910F91FF9064
:10466000DF90CF90BF90AF9008950E94552488238B
:10467000D1F2F82EEFCFF60181916F018093F10016
:104680002197FFEFAF1ABF0ACECFFC0180918E03B6
:1046900090918F0386179707A0F06115710529F493
:1046A0009091E8009E779093E80090E06115710585
:1046B00051F4911108C08091E80082FF34C080E07D
:1046C0000895BC01F2CF809187038823C1F1853022
:1046D000C1F18091E80083FD30C08091E80082FD47
:1046E000EACF8091E80080FFE1CF8091F300209134
:1046F000F200382F6115710519F02830310558F096
:1047000091E02830310509F090E02091E8002E7703
:104710002093E800CBCF81918093F1006150710923
:104720002F5F3F4FE7CF80918703882341F085308B
:1047300041F08091E80083FFBECF81E0089582E0E0
:10474000089583E00895FC0180918E0390918F037A
:1047500086179707A0F06115710529F48091E8008C
:104760008E778093E80090E06115710551F4911106
:1047700008C08091E80082FF35C080E00895BC0148
:10478000F2CF809187038823C9F18530C9F18091E8
:10479000E80083FD31C08091E80082FDEACF80917E
:1047A000E80080FFE1CF8091F3002091F200382FE4
:1047B0006115710519F02830310558F091E0283065
:1047C000310509F090E08091E8008E778093E80051
:1047D000CBCF84918093F1003196615071092F5FA6
:1047E0003F4FE6CF80918703882341F0853041F029
:1047F0008091E80083FFBDCF81E0089582E00895B5
:1048000083E00895982F973028F08F708093E90007
:1048100081E008959093E900242F762F50E09817B7
:1048200031F07091EC002091ED005091F00021FDED
:1048300002C09F5FE8CF3091EB003E7F3093EB00EA
:104840003091ED003D7F3093ED003091EB00316011
:104850003093EB007093EC002093ED005093F00048
:104860002091EE0027FDE5CF80E008958091880338
:1048700087FF13C08091E80082FF06C08091E800A6
:104880008B778093E80004C0809187038111F2CF79
:104890000895809187038823D9F38091E80080FFF1
:1048A000F8CF8091E8008E77ECCF2091E400309132
:1048B000E50095E6A9012091EC00822F817020FF90
:1048C00006C08091E80080FF06C080E00895209136
:1048D000E80022FD1AC080918703882389F0853083
:1048E00089F08091EB0085FD0FC02091E4003091AC
:1048F000E50042175307F9F29150E1F684E008957C
:1049000082E0089583E0089581E008950E94F424F0
:104910000E94FC24E0EEF0E0808181608083E8ED7D
:10492000F0E080818F77808319BCA7EDB0E08C9197
:104930008E7F8C9380818F7E808310928603089572
:104940000F931F93CF93DF930E94F4240E94FC24C3
:10495000C8EDD0E088818F778883888180688883DC
:1049600088818F7D888319BC1092870310928303FE
:10497000109285031092840300EE10E0F80180810C
:104980008B7F808388818160888342E060E080E063
:104990000E940224E1EEF0E080818E7F8083E2EECF
:1049A000F0E0808181608083808188608083F8016D
:1049B00080818E7F8083888180618883DF91CF9121
:1049C0001F910F910895E8EDF0E080818F7E808344
:1049D000E7EDF0E080818160808384E082BF81E048
:1049E000809386030C94A024E8EDF0E080818E7F14
:1049F00080831092E20008951092DA001092E10094
:104A000008951F920F920FB60F9211242F933F9388
:104A10004F935F936F937F938F939F93AF93BF93C6
:104A2000EF93FF938091E10082FF0BC08091E20041
:104A300082FF07C08091E1008B7F8093E1000E949C
:104A40006B278091DA0080FF19C08091D80080FF29
:104A500015C08091DA008E7F8093DA008091D900B2
:104A600080FF96C080E189BD82E189BD09B400FE66
:104A7000FDCF81E0809387030E9466218091E10051
:104A800080FF19C08091E20080FF15C08091E20094
:104A90008E7F8093E2008091E20080618093E2004B
:104AA0008091D80080628093D80019BC85E0809303
:104AB00087030E9478218091E10084FF2BC08091C0
:104AC000E20084FF27C080E189BD82E189BD89B50C
:104AD000982F917080FFFBCF8091D8008F7D8093BD
:104AE000D8008091E1008F7E8093E1008091E20008
:104AF0008F7E8093E2008091E20081608093E200EB
:104B000080918303882309F449C084E0809387035C
:104B10000E9479218091E10083FF29C08091E20009
:104B200083FF25C08091E100877F8093E10082E0D0
:104B300080938703109283038091E1008E7F80939E
:104B4000E1008091E2008E7F8093E2008091E2009C
:104B500080618093E20042E060E080E00E940224F5
:104B60008091F00088608093F0000E947721FF918F
:104B7000EF91BF91AF919F918F917F916F915F91D5
:104B80004F913F912F910F900FBE0F901F9018954E
:104B900019BC109287030E94742170CF8091E300AA
:104BA00087FD93E090938703B3CF1F920F920FB6C8
:104BB0000F9211242F933F934F935F936F937F93A3
:104BC0008F939F93AF93BF93CF93DF93EF93FF9315
:104BD000D091E900DF708091EC00C82FC17080FD9A
:104BE000C0E81092E9008091F000877F8093F00088
:104BF00078940E9419261092E9008091F000886054
:104C00008093F000CD2BCF70C093E900FF91EF911E
:104C1000DF91CF91BF91AF919F918F917F916F91D4
:104C20005F914F913F912F910F900FBE0F901F906A
:104C300018951F93CF93DF93CDB7DEB7AA970FB622
:104C4000F894DEBF0FBECDBF88E893E02091F1005D
:104C5000FC012193CF01F3E080399F07B9F70E944F
:104C600084218091E80083FF1EC180918803909188
:104C700089039A3008F017C1E92FF0E0E35CF64DA4
:104C80000C94FB27803899F0823809F00CC1809190
:104C90008C038F70873008F006C18093E900809103
:104CA000EB0085FB882780F91092E90006C080910F
:104CB000840390918503911182609091E800977F21
:104CC0009093E8008093F1001092F1008091E80049
:104CD0008E77E5C0882309F4D3C0823009F0E3C0A1
:104CE00080918A038111D6C080918C038F702FEF41
:104CF000280F263008F0D7C08093E9002091EB0000
:104D000020FFC8C0933031F48091EB008062809323
:104D1000EB00C0C09091EB0090619093EB0021E01C
:104D200030E001C0220F8A95EAF72093EA00109242
:104D3000EA008091EB008860EACF8111B4C0109145
:104D40008A031F778091E3008078812B8093E300B2
:104D50008091E800877F8093E8000E94362480914C
:104D6000E80080FFFCCF8091E30080688093E3003F
:104D700082E0111183E08093870395C080588230D0
:104D800008F091C080918A0390918B038C3D23E0C1
:104D90009207A1F583E08A838AE289834FB7F8946A
:104DA000DE01139620E03EE051E2E32FF0E0509365
:104DB0005700E49120FF03C0E295EF703F5FEF7072
:104DC0008E2F90E0EA30C0F0C7968D939D932F5FB1
:104DD000243159F74FBF8091E800877F8093E80026
:104DE0006AE270E0CE0101960E9445238091E800BE
:104DF0008B778093E80057C0C096E7CF60918C0313
:104E000070918D03AE014F5F5F4F0E948622BC01FF
:104E1000892B09F448C09091E800977F9093E800AF
:104E200089819A810E94A323E1CF8038E1F58091A6
:104E3000E800877F8093E800809183038093F100EE
:104E400045CF811130C090918A03923060F58091F6
:104E5000E800877F8093E800909383030E943624C4
:104E600080918303882311F084E005C08091E300E2
:104E700087FDFACF81E0809387030E947A2113C0D7
:104E800080918A03813079F481E0933009F080E0E9
:104E9000809385031092E9008091E800877F8093DA
:104EA000E8000E9436248091E80083FF0AC08091C8
:104EB000E800877F8093E8008091EB008062809318
:104EC000EB00AA960FB6F894DEBF0FBECDBFDF9100
:104ED000CF911F9108950895CF93809187038823E0
:104EE000A1F0C091E900CF709091EC00892F817002
:104EF00090FD80E8C82B1092E9008091E80083FDC6
:104F00000E941926CF70C093E900CF910895DB016C
:104F10008F939F930E941F28BF91AF91A29F800DF6
:104F2000911DA39F900DB29F900D11240895991B80
:104F300079E004C0991F961708F0961B881F7A9590
:104F4000C9F78095089587FB082E062687FD819571
:104F500067FD61950E9497270EF4919507FC819556
:104F60000895AA1BBB1B51E107C0AA1FBB1FA617B0
:104F7000B70710F0A61BB70B881F991F5A95A9F702
:104F800080959095BC01CD01089597FB072E16F4EE
:104F9000009407D077FD09D00E94B12707FC05D007
:104FA0003EF4909581959F4F0895709561957F4F40
:104FB0000895A1E21A2EAA1BBB1BFD010DC0AA1F5A
:104FC000BB1FEE1FFF1FA217B307E407F50720F072
:104FD000A21BB30BE40BF50B661F771F881F991FED
:104FE0001A9469F760957095809590959B01AC0136
:104FF000BD01CF010895EE0FFF1F0590F491E02D44
:1050000009940E940928332312F48A1B9B0B0C94E9
:105010001A28A29FB001B39FC001A39F700D811DEC
:105020001124911DB29F700D811D1124911D0895B1
:105030000E940928B7FF0895821B930B08950E94D0
:105040000928A59F900DB49F900DA49F800D911DE0
:1050500011240895B7FF0C941F280E941F28821B5B
:10506000930B08958F929F92AF92BF92CF92DF924F
:10507000EF92FF92CF93DF93EC01688179818A816F
:105080009B81611571058105910521F464E279ED3B
:105090008BE597E02DE133EF41E050E00E94E328FB
:1050A00049015A019B01AC01A7EAB1E40E941F2803
:1050B0006B017C01ACEEB4EFA50194010E942D2898
:1050C000DC01CB018C0D9D1DAE1DBF1DB7FF03C0C4
:1050D0000197A109B04888839983AA83BB839F77EE
:1050E000DF91CF91FF90EF90DF90CF90BF90AF9086
:1050F0009F908F9008950E943228089580E091E05B
:105100000E9432280895B0E0A0E0809300019093BF
:105110000101A0930201B09303010895FC014150E5
:10512000504030F001900616D1F73197CF01089525
:10513000882799270895F999FECF92BD81BDF89AE5
:10514000992780B50895A6E1B0E044E050E00C94C2
:10515000D528A8E1B0E042E050E00C94D528262FF5
:10516000F999FECF92BD81BDF89A019700B402165D
:1051700039F01FBA20BD0FB6F894FA9AF99A0FBE0B
:1051800008950396272F0E94B0280E94AF28252F4C
:105190000E94B028242F0C94B0280196272F0E943B
:1051A000B0280C94AF28DC01CB01FC01F999FECFAB
:1051B00006C0F2BDE1BDF89A319600B40D9241509F
:1051C0005040B8F70895052E97FB1EF400940E94F6
:1051D000FA2857FD07D00E94D92707FC03D04EF4C8
:1051E0000C94FA2850954095309521953F4F4F4F9C
:1051F0005F4F089590958095709561957F4F8F4F83
:105200009F4F0895F894FFCF010F090F100F150F4E
:105210001A0F1F0F240F290F2E0F330F380F3D0FBA
:10522000410F460F490F4C0F4F0F520F540F570F9E
:105230006010651067106A106D107010731063169F
:105240006316BB16BB160D179016901690162917ED
:10525000B517C417C41720189016901629189A1855
:105260009A18A318A318A518A318A318A3189A1876
:105270009A18AA18A318A318AA1842266A26532710
:0E5280006A2653279D26BE2653271527212771
:10528E0001000000010102001C001C1C01191A1B68
:10529E001C1D1E1F20212206F802FA203921FD2096
:1052AE003521312101E200E900EA00B500B600B770
:1052BE0000CD008301CC008A0192019401210223CA
:1052CE000224022502260227022A02B300B4006F2E
:1052DE00007000818283C63133F0F1F4F5F6F79554
:1052EE0094349697303536936667000102020202B7
:1052FE000606060909090909090F0F0F0F0F0F15E9
:10530E0015151819191919191919191919232425E7
:10531E002525252525E200E900EA00B500B600B7EF
:10532E0000CD008301CC008A019201940121022359
:10533E000224022502260227022A02B300B4006FBD
:06534E0000700081828363
:00000001FF
