:100000000C94FF020C9446030C9446030C94460394
:100010000C9446030C9446030C9446030C9446033C
:100020000C9446030C9446030C9461250C943426DE
:100030000C9448200C9446030C9446030C944603FD
:100040000C9446030C9446030C9446030C9446030C
:100050000C9447100C94B0200C9446030C94460367
:100060000C9446030C9446030C9446030C944603EC
:100070000C9446030C9446030C9446030C944603DC
:100080000C9446030C9446030C9446030C944603CC
:100090000C9446030C9446030C9446030C944603BC
:1000A0000C9446030C9446030C94460335001E0042
:1000B0001F0020002100220023002400250026002C
:1000C00027002D002E002A0000002B0014001A002B
:1000D0000800150017001C0018000C001200130087
:1000E0002F0030003100A90029610400160007002C
:1000F00009000A000B000D000E000F00334234000F
:1001000000002800AA00E10000001D001B000600FE
:100110001900050011001000360037003800E50016
:1001200052000151E000E200E30000000000000086
:100130002C00000000000000E700E6005000510025
:100140004F00005C3A003B003C003D003E003F0099
:100150004000410042004300440045004C000000C4
:100160000100010001000100010001000100010087
:100170000100010001000100010001006A0001000E
:100180000100010001000100010001000100010067
:1001900001000100010000000100690039000000B9
:1001A0000100010001000100010001000100010047
:1001B0000100010001000100010001000100010037
:1001C000000000000000AE00000000000000010080
:1001D0000100AC00A800AB0001000100010001001B
:1001E0004D00010001000100010001004A00010072
:1001F00001000100000001000100010001000100F8
:10020000010001004B00010001000100010001009C
:10021000010001000100010001004E004E0001003C
:100220005000510052004F00010001000000010089
:1002300001000100000001004C00010001004B0022
:1002400001000100010001000100010001000100A6
:10025000010001000100000000000000010000009A
:100260000000000001000100010001000100000485
:100270007F3F1F643214643214783C1E1E140A053A
:100280002223252628292A2C2D2F303233353638A3
:100290003A3B3D3E4042434547494A4C4E505153FC
:1002A0005557595A5C5E6062646668696B6D6F7120
:1002B000737577797B7D7F81838587898A8C8E9022
:1002C000929496989A9C9E9FA1A3A5A7A8AAACAE2B
:1002D000AFB1B3B4B6B8B9BBBCBEBFC1C2C3C5C66B
:1002E000C7C9CACBCCCDCED0D1D2D2D3D4D5D6D714
:1002F000D7D8D9D9DADADBDBDBDCDCDCDCDCDDDD52
:10030000DDDDDCDCDCDCDCDBDBDBDADAD9D9D8D741
:10031000D7D6D5D4D3D2D2D1D0CECDCCCBCAC9C7E3
:10032000C6C5C3C2C1BFBEBCBBB9B8B6B4B3B1AF1A
:10033000AEACAAA8A7A5A3A19F9E9C9A98969492BA
:10034000908E8C8A89878583817F7D7B7977757391
:10035000716F6D6B6968666462605E5C5A5957556F
:100360005351504E4C4A4947454342403E3D3B3A2B
:100370003836353332302F2D2C2A292826252322B2
:10038000FFAA7F55400000000000000000000000B0
:1003900001010203040506080A0C0F1114181C20A1
:1003A00024292E33393F464C535B626A7179818A26
:1003B000929AA2AAB2B9C1C8CFD5DCE1E7EBF0F4BA
:1003C000F7FAFCFDFEFFFEFDFCFAF7F4F0EBE7E1C7
:1003D000DCD5CFC8C1B9B2AAA29A928A8179716AD2
:1003E000625B534C463F39332E2924201C181411CC
:1003F0000F0C0A08060504030201010000000000BA
:1004000000000000000001010101010101010102E1
:1004100002020202020202020303030303030303B4
:10042000040404040404040505050505060606067F
:1004300006070707070708080808090909090A0A3B
:100440000A0B0B0B0C0C0C0D0D0D0E0E0E0F0F0FDF
:10045000101011111112121313141415151616176A
:1004600017181819191A1A1B1B1C1D1D1E1E1F20D8
:1004700020212222232424252626272829292A2B25
:100480002C2D2D2E2F30313232333435363738394A
:100490003A3B3C3D3E3F4041424344454647484944
:1004A0004A4C4D4E4F50515354555658595A5B5D16
:1004B0005E5F616264656668696B6C6D6F707273B4
:1004C0007577787A7B7D7E8082838587888A8C8E1B
:1004D0008F91939596989A9C9EA0A2A3A5A7A9AB4D
:1004E000ADAFB1B3B5B7BABCBEC0C2C4C6C9CBCD3F
:1004F000CFD1D4D6D8DBDDDFE2E4E7E9EBEEF0F3F1
:10050000F5F8FAFDFF040330000000140348006111
:10051000006E006E0061006800390031003000009C
:100520000014034D006500630068006C006F0076E6
:100530000069006E0000000403090409023B000288
:100540000100A0FA090400000103010100092111C2
:100550000100012240000705810308000A09040187
:1005600000010300000009211101000122360007EB
:1005700005820320000A1201100100000008EDFEB0
:10058000000001000102030105010980A1018503AA
:100590001A81002A830016010026030095017510B8
:1005A0008100C0050C0901A10185041A01002A9CE3
:1005B00002160100269C02950175108100C00501FC
:1005C0000906A101050719E029E71500250195088D
:1005D000750181029501750881010507190029FF40
:1005E000150026FF009506750881000508190129E8
:1005F00005950575019102950175039101C01124BE
:100600001FBECFEFDAE0DEBFCDBF04B603FE27C0CA
:100610008091560290915702A0915802B0915902D0
:100620008730904BA740B04BD1F4109256021092F5
:100630005702109258021092590214BE84B7877F55
:1006400084BF0FB6F894A89580916000886180936C
:100650006000109260000FBEE0E0F8E3099511E041
:10066000A0E0B1E0E6EAF1E502C005900D92A83500
:10067000B107D9F722E0A8E5B1E001C01D92A63587
:10068000B207E1F70E9493220C94D1280C94000049
:10069000229A509A519A529A08950E94E2070C9415
:1006A000480381FF03C02A9A0C94E1032A98FCCFE7
:1006B000CF92DF92EF92FF926B017C010E94B01EFD
:1006C0008130B1F45A9AC701B6010E94B01E82303F
:1006D00089F4599AC701B6010E94B01E833061F4B3
:1006E000589AC701B601FF90EF90DF90CF90089520
:1006F0005A98E9CF5998EECF5898F3CF81E00895F2
:1007000081E008950C9480031F93CF93DF9300D072
:1007100000D01F92CDB7DEB749835A836B832091F7
:10072000950189819A8121111BC06623A9F00E943D
:10073000691D182F682F89819A810E940F1D698178
:100740007A81812F0F900F900F900F900F90DF9173
:10075000CF911F910C9407050E943E1D182FEFCFDB
:100760000E94691D69817A81EDCFFC014081518130
:100770006281738184810C9484030E9458088FE302
:100780009CE90197F1F700C000000E94580880E042
:100790000E94E60780FF04C00E94FD1E0C94D62034
:1007A00008950E94BD030E94031F811102C00E9490
:1007B000A91F0E94B4100C944D030E9431100C9498
:1007C000E407089581E008950C94E203CF93C82FC5
:1007D0000E9451038C2FCF910C94E40308950E9442
:1007E00020180E94EE032FEF84E39CE0215080400C
:1007F0009040E1F700C000000C94D6200F931F93A7
:10080000CF93DF938C010E94B503EC01B8010E94E5
:1008100082038823F9F0B801CE010E947511882364
:10082000C9F0B801CE010E94B611882399F0F801F1
:100830008281882309F4BDC0C13CFCE5DF0799F043
:10084000CE3D8CE5D80761F0C115ECE5DE0771F40B
:100850000E94EF0380E0DF91CF911F910F910895E7
:100860000E94A91FF7CF0E94B50FF4CF0E94FE1D72
:100870008272FE01E25CFC45E431F10508F099C0AA
:10088000EC5BFB4F0C94502858045B046004650437
:100890006A046F04740479047E04830488048D045C
:1008A00091049B04A504B404BF04CA04CC04D70477
:1008B0000E94F60DCFCF882329F00E94E80DCACF01
:1008C0008823D9F30E94DB0DC5CF882329F00E942D
:1008D000840BC0CF8823D9F30E94770BBBCF88232A
:1008E00029F00E94A20BB6CF8823D9F30E94930B64
:1008F000B1CF882329F00E94C00BACCF8823D9F355
:100900000E94B10BA7CF882329F00E94110AA2CF21
:100910008823D9F30E94000A9DCF81E00E94EB0D4D
:1009200099CF0E94F809823020F00E94F8098530A2
:1009300048F282E0F3CF0E94F809863088F00E94E6
:10094000F809883068F40E94DB0D0E94F8098930AC
:1009500028F00E94F8098E3008F4B4CF89E0DECF89
:1009600086E00E94EB0DF1CF0E94F8098F3028F04D
:100970000E94F809843108F4A5CF8FE0CFCF0E9400
:10098000F809853128F00E94F809873108F49ACFD8
:1009900085E1C4CF88E1C2CF0E94F809893128F0EF
:1009A0000E94F809823208F48DCF89E1B7CF83E243
:1009B000B5CFC631DC4501F50E94FE1DF8019281DC
:1009C000992381F08A7A91E009F490E0909358019C
:1009D000811106C089E20E94D91D0E944D1E3ACFA6
:1009E00085E3F9CF80915801811104C089E20E940A
:1009F000E01DF3CF85E3FBCFC801DF91CF911F91BD
:100A00000F910C947E0390E080E008950895972F55
:100A100070E02FE0929F600D711D1124FB019BE49B
:100A2000899FE00DF11D1124EE0FFF1FE455FF4FCC
:100A3000859194910895FC01EE0FFF1FE259FD4F3F
:100A4000859194910895CF93DF930E9407050E94AA
:100A50000407EC018115924508F048C0C11581E5F5
:100A6000D80708F059C1C83ED10510F5C03ED105E0
:100A700088F5C83AD10570F4C53AD10508F0B9C077
:100A8000C130D10539F118F0C430D10518F5D0E0E6
:100A9000C0E020C0CF3BD10508F4B6C0CE01805CD9
:100AA0009109C03CD10598F30E941B05EC0112C0CE
:100AB000C11520E4D20790F4C11580E3D80708F0EF
:100AC00005C1C11521E0D20710F3C11580E2D80796
:100AD00008F0F9C0CE01DF91CF910895C11520E54E
:100AE000D20708F0FDC0DF70D06AF4CFC11589E5E8
:100AF000D807B8F5C11528E5D20708F026C1C115F9
:100B000084E5D807C8F49C2F969596959E0123708E
:100B10003327C115D34508F404C1C1E0D0E002C0B9
:100B2000CC0FDD1F2A95E2F720E2929FC00111242D
:100B3000C82BD92BDA68CECFC11525E5D20708F42A
:100B4000FFC0C11586E5D80708F0A1CF8C2F0E9401
:100B50009F07C82FD0E0DC2FCC27CC27DF71D062D5
:100B6000B9CFCD3B2CE5D20709F4FAC0E0F4CB3B7A
:100B70002CE5D20709F4EEC008F0EFC0C1152AE554
:100B8000D20708F084CF8C2F8F700E949F0734E02B
:100B9000D695C7953A95E1F7CF70D0E0DC2FCC27FA
:100BA000D069C82B97CFC03C8CE5D80709F4DEC0CC
:100BB00060F4CE3B8CE5D80709F4D5C0CF3BDC45CB
:100BC00009F065CFC0E0D2ED85CFCE0190568115FA
:100BD000904208F05CCF8D2F8F710E949F07DD2718
:100BE000D06290E0982F882788279F71C82BD92B37
:100BF00071CFC53AD10509F4BCC0C63AD10509F494
:100C0000BBC0C3E8D0E466CFC83AD10509F4B7C089
:100C1000C93AD10509F4B6C0CA3AD10509F4B5C03C
:100C2000CB3AD10509F4B4C0CC3AD10509F4B3C02C
:100C3000CB3BD10509F4B2C0CC3BD10509F4B1C01E
:100C4000CD3AD10509F4B0C0C03BD10509F4AFC01D
:100C5000CE3AD10509F4AEC0CF3AD10509F4ADC002
:100C6000C13BD10509F4ACC0C23BD10509F4ABC00E
:100C7000C33BD10509F4AAC0C43BD10509F4A9C0FE
:100C8000C53BD10509F4A8C0C63BD10509F4A7C0EE
:100C9000C73BD10509F4A6C0C83BD10509F4A5C0DE
:100CA000C93BD10509F4A4C0CD3BD10509F4A3C0CB
:100CB000CE3BD10509F4A2C0CA3BD10509F0A1C0C1
:100CC000CAE2D6E407CFCE019F70EECECE019927BF
:100CD000D3FF03C0EC01D86CFDCEEC01D06CFACE92
:100CE000CE01F4E096958795FA95E1F783709C2FF5
:100CF000937021E030E002C0220F331F9A95E2F793
:100D00003C68382BC695C695C37080E2C89FE00149
:100D10001124C22BD32BDECEDC2FCC27C16FD06A9F
:100D2000D9CEC1E0D0E002C0CC0FDD1F2A95E2F79A
:100D300020E2929FC0011124C82BD92BDC68CACEB7
:100D4000DC2FCC27C46FD06AC5CEDC2FCC27C06F78
:100D5000D06AC0CEC0E0D4EDBDCEC0E0D5EDBACEF5
:100D6000C0E0D1EDB7CEC0E0D0EDB4CEC0E0D3ED61
:100D7000B1CEC1E8D0E4AECEC2E8D0E4ABCEC2EE94
:100D8000D4E4A8CEC9EED4E4A5CECAEED4E4A2CE73
:100D9000C5EBD4E49FCEC6EBD4E49CCEC3EBD4E445
:100DA00099CEC4EBD4E496CEC7EBD4E493CECCEC8E
:100DB000D4E490CECDECD4E48DCEC3E8D5E48ACE95
:100DC000CAE8D5E487CEC2E9D5E484CEC4E9D5E447
:100DD00081CEC1E2D6E47ECEC3E2D6E47BCEC4E2CD
:100DE000D6E478CEC5E2D6E475CEC6E2D6E472CEBD
:100DF000C7E2D6E46FCECFE6D4E46CCEC0E7D4E44D
:100E000069CEC0E0D4E466CE82389105B1F1B0F489
:100E10008133910509F471C048F48932910509F4D0
:100E200067C08A32910509F46DC008958533910534
:100E300009F459C08933910501F10895833E910564
:100E4000A9F138F4803E9105F9F0823E910549F10F
:100E50000895863E9105A9F1873E9105C9F1843E2A
:100E6000910519F52091480221FF1FC0809147028A
:100E700084FD14C087EE90E008952091470223700E
:100E8000A1F080EE90E008952091470220FD3FC040
:100E90003091480230FF09C024FF3CC090E080E060
:100EA00008952091470222FDF7CF0895209147022F
:100EB00022FD33C03091480230FDE3CF24FDEECF58
:100EC000F4CF2091470223FFF0CF24FDE7CFD2CF0C
:100ED0002091470223FD24C03091480231FFEECF1C
:100EE00084EE90E008952091470225FD1CC00895EE
:100EF0002091470225FD1AC008952091470226FD42
:100F000018C008952091470226FD16C0089589E370
:100F100090E0089583EE90E0089582EE90E00895C9
:100F200086EE90E0089589E290E0089585E390E0F0
:100F300008958AE290E0089581E390E0B6CF909121
:100F4000470292FF06C0282F28712830F9F4877FC6
:100F5000846093FF06C0282F28712831F1F4877E22
:100F600084612091480220FF06C0382F3871383044
:100F7000D9F4877F816021FF06C0282F287128318E
:100F8000D1F4877E816194FD877E0895282F247196
:100F90002430F9F68B7F8860DCCF282F2471243130
:100FA00001F78B7E8861DDCF382F3171313019F731
:100FB0008E7F8860E0CF282F2171213121F78E7E2E
:100FC0008861E1CF089508950C94E307E82FF0E0DD
:100FD000EE0FFF1FE75AFE4F80819181089508951B
:100FE000CF93DF93ADE2B1E042E351E0C1E0D0E066
:100FF0008D91E82FE295EF70F0E061A18F709E0176
:1010000001C0220F8A95EAF7922F9095962391A31B
:1010100082A1822B82A34A175B0751F7AEE1B1E0B0
:1010200061E070E08D91E82FE295EF70F0E041A172
:101030008F709B0101C0220F8A95EAF7922F90953D
:10104000942391A382A1822B82A381E0AD32B807C1
:1010500049F7109264011092630110925A011092A4
:101060005901109266011092650110925C01109274
:101070005B01109268011092670110925E0110925C
:101080005D0110926A011092690110926001109244
:101090005F0110926C0110926B011092620110922C
:1010A000610185E00E94EA08DF91CF910C94D103A1
:1010B0007F928F929F92AF92BF92CF92DF92EF92E8
:1010C000FF920F931F93CF93DF93A3E6B1E04DE21E
:1010D00051E0712CEE24E394F12CAD90BC9011976B
:1010E00011961C921E92EA018991AE01E82FE295B9
:1010F000EF70F0E091A18F70B70101C0660F8A9583
:10110000EAF7892F862B81A382A1962E90948921BC
:1011100082A3D0EADA95F1F78EE1C82E81E0D82ECD
:1011200030E020E0E60189906E01082D02950F70F5
:1011300010E0E80188A10D911C91119790E0D82D45
:10114000DF7002C095958795DA95E2F780FD3FC084
:10115000C701022E02C0880F991F0A94E2F7082BDC
:10116000192B11961C930E932F5F3F4F2F30310593
:10117000C9F681A1892181A382A1682B62A381E0A4
:101180002D913C9111972A153B0509F480E0782AAE
:101190001296D1E042335D0709F09FCF272D45E03D
:1011A00069E571E083E691E00E94EB080E94DD03AF
:1011B000872DDF91CF911F910F91FF90EF90DF90DE
:1011C000CF90BF90AF909F908F907F90089590E0C8
:1011D00080E0C5CF0895FF920F931F93CF93DF93C5
:1011E000F82E092F162FD72FC42F222349F081E084
:1011F00080936F010E947A2090936E0180936D011D
:1012000080916F018823A1F080916D0190916E0112
:101210000E948620069760F0EF2DF02FA12FBD2FA2
:1012200090E080E0D0E08C179D0744F010926F01B1
:10123000DF91CF911F910F91FF90089521913191EE
:101240002D933D930196EFCFAF92BF92CF92DF9255
:10125000EF92FF920F931F93CF93DF939B01E82FA1
:10126000F0E0EB5FFB4F31110EC06491762F862FBB
:10127000DF91CF911F910F91FF90EF90DF90CF9072
:10128000BF90AF900895C32FD0E0E491FE2FEE2ED3
:10129000F12C46E0649FC00111240FEF10E0B8016B
:1012A0000E940628AB01822F90E0880F991F25E548
:1012B000249FB001259F700D1124861B970B982F3A
:1012C000990F980FB8016C1B7D0B6E9DD0016F9D1F
:1012D000B00D7E9DB00D11248B2F939F9001112492
:1012E000232F3327B801621B730B6E9D90016F9DF6
:1012F000300D7E9D300D1124732F5801A91AB108AD
:10130000AC9E6001AD9ED00CBC9ED00C1124CD2CA7
:10131000DD240C191D090E9DE0010F9DD00D1E9DB1
:10132000D00D112442305105B1F050F44115510552
:1013300071F04130510569F07E2FEB2F832F09C0EA
:101340004430510579F050F046305105A9F77E2F11
:10135000ED2F6E2F8DCF7B2F8D2FFBCFE32F7B2F8C
:101360008F2FF7CF7D2FEB2FFBCF0895CF93DF93F8
:10137000762FE901682F842F0E94240979836883DE
:101380008A83DF91CF91089580912202982F9E7FCA
:1013900029F4817082608093220208958A34E8F3F0
:1013A00081708864F8CF88E090E00C949128CF9207
:1013B000DF92EF92FF926B017C010E94C409B7019A
:1013C000A60188E090E0FF90EF90DF90CF900C9422
:1013D000AF28E2E2F2E083E0808311828FEF828324
:1013E0008383148260817181828193810C94D709F7
:1013F0008091220280FF02C08695089580E00895C2
:1014000080912602833018F48F5F809326026091CA
:1014100022027091230280912402909125020C9463
:10142000D70980912602882319F0815080932602E3
:1014300060912202709123028091240290912502F2
:101440000C94D7096091040170E08091220280FF22
:101450000AC08091740123E0829FC0011124895D3C
:101460009D4F0C94FE10809173019091030123E035
:10147000829FF0011124E95DFD4F891750F7118219
:10148000108212828F5F3396F8CF9091220290FFE4
:1014900014C0909173012091030133E0939FF001F8
:1014A0001124E95DFD4F921710F00C94220A8183FC
:1014B000608342839F5F3396F6CF0895CF93DF9387
:1014C00000D01F92CDB7DEB79091220290FF0AC0E4
:1014D0009E012F5F3F4F0E94B6094B8169818A812F
:1014E0000E94450A0F900F900F90DF91CF910895C1
:1014F000CF93DF93EC01EC81F0E0E058FD4F449195
:10150000E2E2F2E0628181810E945E0A8C818F5F5B
:101510008C83DF91CF910895CF93DF93EC01E2E2CA
:10152000F2E0438162818C810E945E0A8C818F5F30
:101530008C83DF91CF9108950F931F93CF93DF9307
:1015400000D01F92CDB7DEB78C0180917001811160
:101550000AC09E012F5F3F4F4FEF6FEF0E94B60909
:101560008A8180937001F8018481813069F038F0BC
:1015700040917001823009F040E080E003C080912A
:10158000700140E060E004C06091700140E080E0E4
:101590000E94450AF801848190E0019663E070E0C2
:1015A0000E941A2884830F900F900F90DF91CF91A3
:1015B0001F910F910895AF92BF92CF92DF92EF9259
:1015C000FF920F931F93CF93DF9300D01F92CDB75D
:1015D000DEB7182FF62E042FE22E9091220290FFF4
:1015E00029C0E92FE695AE2FB0E0AE5CBE4F8C91DE
:1015F00080937C019E7F923059F59E012F5F3F4F73
:10160000812F0E94B6094B8169818A810E94450A17
:1016100010932302F092240200932502EE2051F051
:101620006091220270912302809124029091250200
:101630000E94D7090F900F900F90DF91CF911F91CB
:101640000F91FF90EF90DF90CF90BF90AF900895F3
:10165000823019F400912502DBCF863019F4109105
:101660002302D6CF8930D9F3893191F6E9518E2FF3
:101670008170D82EE695F0E0E058FC4FA590B4902C
:10168000C12CBB2460910201C61618F00E94220AE8
:10169000BFCF2C2D30E0A29EC001A39E900DB29E24
:1016A000900D112470E00E940628812FD11013C0E4
:1016B000860F40917301420F532F511D9A01220F43
:1016C000331F240F351F295D3D4F402F6F2D0E9482
:1016D000B609C394D7CF861BECCFE2E2F2E091814A
:1016E000282F4381628188E0890F0C94DB0A81E016
:1016F0000C946D0BE2E2F2E09181282F438162812C
:1017000088EF890F0C94DB0A81E00C947A0BE2E2FB
:10171000F2E0628121E1620F08F46FEF282F43812C
:1017200081810C94DB0A81E00C94870BE2E2F2E009
:10173000628121E1621B08F460E0282F43818181EE
:101740000C94DB0A81E00C94960BE2E2F2E0438118
:1017500021E1420F08F44FEF282F628181810C9420
:10176000DB0A81E00C94A50BE2E2F2E0438121E187
:10177000421B08F440E0282F628181810C94DB0A2F
:1017800081E00C94B40B20E00C94DB0AEF92FF9202
:101790001F93CF93DF93EC0110E0EE24EA94F12C39
:1017A00060910201161770F00E94220A9A818C81C2
:1017B00090FF27C08F5F8C83DF91CF911F91FF90A7
:1017C000EF90089520917301422F410F5527551F27
:1017D000CA019A01220F331F280F391F295D3D4F7F
:1017E00070E0C7010E941A28962F8C814091250233
:1017F00060912402199F800D11240E94B6091F5F79
:10180000CFCF8150D8CFAF92BF92CF92DF92EF92DD
:10181000FF920F931F93CF93DF93FC01828101E02E
:1018200080FD0FEF10E049E0A42E8091020118170F
:10183000C8F00E94220A80917201013009F055C05F
:10184000811102C080910201815080937201DF9169
:10185000CF911F910F91FF90EF90DF90CF90BF90AD
:10186000AF900895C0917301C12ED12CCC0DDD2D08
:10187000D11DCE01880F991FC80FD91FC95DDD4F3B
:10188000198218821A8234E0E32EF12CB12C809157
:1018900072018B0D8A301CF16A2D0E94F827892F66
:1018A000082E000C990BC816D90691F480912502D8
:1018B0008E9DA0018F9D500D1124559547955595EE
:1018C00047959E0160912402809123020E94B609EF
:1018D000B00EF1E0EF1AF108D1F61F5FA6CF87FF37
:1018E000DFCF90910201890FDBCF90E001966091EC
:1018F000020170E00E941A28A8CF0F931F93CF9384
:10190000DF93809173019091030123E0829FF001A6
:101910001124E95DFD4F891740F1C0E0D3E06091EB
:101920000201C61740F10E94220A20910001809115
:101930007101820F8093710190910101920F909338
:101940000101191654F4082E000C990B4091020164
:101950004150550B841795071CF0219520930001E9
:10196000DF91CF911F910F91089511821082128201
:101970008F5F3396D0CF0C2F10E070E0C8010E942B
:101980001A2820917301820F482F50E02091710195
:10199000022E000C330B02171307BCF0209101013B
:1019A000022E000C330B201731077CF08D9F900125
:1019B0001124295D3D4F40912502609124028091C0
:1019C00023020E94B609CF5FAACFFA01EE0FFF1FD4
:1019D000E40FF51FE95DFD4F118210821282F3CFF3
:1019E0000F931F93CF93DF938C01FC01848195812A
:1019F00001968170992795838483C0E0D5E5809115
:101A00000201C81730F0DF91CF911F910F910C9414
:101A1000220A20917301422F4C0F5527551FCA01EE
:101A20009A01220F331F280F391F295D3D4F8C2F3C
:101A30008695F80144815581840F952F911D817001
:101A400040912502609124028D9F802D11240E94D7
:101A5000B609CF5FD4CF0F931F93CF93DF93EC01E1
:101A600010E000E0909102019017110609F06CF46B
:101A70000E94220A8C8190E00196817099278C83C4
:101A8000DF91CF911F910F91089520917301A801CB
:101A9000420F511D9A01220F331F240F351F295D5C
:101AA0003D4F4C81609124028091230296959017BE
:101AB000110651F04CF0442349F0409125020E9458
:101AC000B6090F5F1F4FCECF4423B9F340E0F7CFE5
:101AD000E2E2F2E080818E7F808360817181828189
:101AE00093810E94D70910927D012FEF80E792E049
:101AF000215080409040E1F700C000000C94220A81
:101B000060912202669570E04BE050E085E091E044
:101B10000E947C28892B19F481E080937D010E942A
:101B20007A20909376018093750108959091220216
:101B300090FF35C09170811128C09260909322026D
:101B4000662351F060912202709123028091240259
:101B5000909125020E94D70960912202669570E05B
:101B60004BE050E085E091E00E947C28892BA1F0B9
:101B700010927D0181E0809378014091250260916F
:101B80002402809123020C94C30B853210F09864D8
:101B9000D5CF880F982BD2CF0E94800DEBCF089520
:101BA000682F90912202969581E0890F853208F086
:101BB00081E00C94960D81E00C94D00D682F9091EB
:101BC000220296958FEF890F09F484E20C94960D0A
:101BD00081E00C94DE0D61E00C94960DE2E2F2E0FF
:101BE00080818160808386950C94EB0D8091220228
:101BF00080FD0C94680D0C94EE0D60E00C94960D35
:101C000080917B0181112EC00E94031F811104C0AD
:101C10000E94A91F0E94E9090E94D3096093220231
:101C20007093230280932402909325026E7F61F4C7
:101C30000E94E9090E94D309609322027093230253
:101C400080932402909325020E94C40910927D0182
:101C50008091220280FF03C086950E94FD0D81E0E5
:101C600080937B0108950F931F93CF93DF9380910F
:101C70007D01882309F48DC080917C01E0912202CE
:101C8000E695E81BE09377018230C9F5F0E0E4586F
:101C9000FD4FE491CE2FD0E008E71AE08091780163
:101CA000882389F0109278010E947A209E01209565
:101CB0003095820F931F9093760180937501109257
:101CC0007A011092790180917501909176010E94BC
:101CD00086208C179D0708F45CC0E0917501F09197
:101CE0007601CE0FDF1FD0937601C093750185E793
:101CF00091E0F801DF91CF911F910F910994863007
:101D000049F4F0E0E758FD4FE491CE2FD0E00CE825
:101D10001AE0C4CF893051F4E695F0E0EA58FD4F5F
:101D2000E491CE2FD0E006EC1BE0B8CF8F3051F419
:101D3000E695F0E0ED58FD4FE491CE2FD0E003E0C2
:101D40001CE0ACCF853149F4F0E0E059FD4FE4915F
:101D5000CE2FD0E00DE71CE0A1CFC8EED3E000EF1E
:101D60001CE0883109F49ACF833239F4EEE6F2E0D0
:101D7000C591D4910CE91AE091CFC4EFD1E00BE208
:101D80001DE0843209F48ACFC0EDD7E005EB19E0FD
:101D900085CFDF91CF911F910F9108950E94031F6E
:101DA000811102C00E94A91F0E94311F809342022C
:101DB000803220F0877088618093420280914202D5
:101DC00080FF05C08695869586950C940F1080E05F
:101DD000FCCF80914202982F9695969596959330D8
:101DE00040F49F5F990F990F990F8770892B80930B
:101DF0004202809142028160809342020E94351F1C
:101E0000809142028695869586950C940F1080915C
:101E10004202982F987F79F0885080934202887F01
:101E200091E009F490E08091420290FB80F9809368
:101E300042020E94351F80914202869586958695C2
:101E40000C940F108091420280FD13C0816080933A
:101E50004202813019F489E080934202809142026B
:101E60000E94351F809142028695869586950C9436
:101E70000F1008958091420280FF08C08E7F8093EA
:101E800042020E94351F80E00C940F10089580914B
:101E9000420280FD0C943A0F0C94220F9091420262
:101EA000892F8695869586958F5F8F719770843080
:101EB000D8F4880F880F880F892B80934202809175
:101EC0004202887F91E009F490E08091420290FB09
:101ED00080F9809342020E94351F809142028695CC
:101EE000869586950C940F1090934202E8CF84302B
:101EF00008F083E0982F990F990F990F8091420273
:101F00008770892B80934202887F91E009F490E0EA
:101F10008091420290FB80F9809342020E94351F1B
:101F2000809142028695869586950C940F1080913B
:101F3000420286958695869508958091420281FD9C
:101F400007C08260809342020E94351F0C943210B9
:101F500008958091420281FF07C08D7F80934202E5
:101F60000E94351F0C943E1008958091420281FD1D
:101F70000C94A90F0C949D0F80914202869581705C
:101F80000895CF92DF92EF92FF928C3724E192076F
:101F900050F469E070E00E940628CB01FF90EF90BA
:101FA000DF90CF900895B0E0A0E0BC01CD016A5071
:101FB000774D8F4F9F4F982F872F762F662725EFCE
:101FC00038E241E050E00E942E2869017A01CA01FE
:101FD000B9010E94E8279B01AC01C701B6010E942C
:101FE000E827672F782F892F99276115710521E040
:101FF0008207910591F66FEF7FEFCFCFE82FE29543
:10200000EF70F0E032A1282F2F7081E090E001C046
:10201000880F2A95EAF78095832382A30895843058
:10202000D8F481111AC090918000977F909380001E
:10203000282F30E0AFEFBFEF0E94562823E030E0BA
:1020400040E050E00E942E28C9010E94C10F9093E9
:102050008D0080938C00089583E0909180009860BB
:10206000E5CF089510927F0110927E0110928001B9
:10207000EFE6F0E08081816080830895EFE6F0E094
:1020800080818E7F80830E94970F0C940F101F9287
:102090000F920FB60F9211242F933F934F935F939C
:1020A0006F937F938F939F93AF93BF93CF93EF9350
:1020B000FF932091100180917E0190917F01019604
:1020C00044EF249F90011124B9010E9406289093A7
:1020D0007F0180937E01B901660F672F661F770B22
:1020E00071950E9406286F7780918001823041F4BB
:1020F000603451F480916F008E7F80936F0004C034
:10210000813011F46F37B1F3E62FF0E0EB57FC4F5D
:10211000C4910E94970F282F41E051E0C49FC00155
:10212000C59F900D112463E070E00E940628269F51
:10213000C001279F900D11240E94C10F90938D0024
:1021400080938C00FF91EF91CF91BF91AF919F91C0
:102150008F917F916F915F914F913F912F910F9050
:102160000FBE0F901F901895279A87E30E94FE0FCD
:102170008AE08093800089E1809381008FEF9FEF58
:1021800090938700809386000E94CE0E0E94BC0F21
:1021900081110C94321008953EB1242F20952323F1
:1021A0003EB1432B3FB7F894FC01680F791FE61747
:1021B000F70711F43FBF0895819198E04EB90000F0
:1021C00000C087FF2EB9880F000000C000C000C00B
:1021D0002EB900C09A9591F7EACF2DB1242B2DB9D5
:1021E0009B01220F331F620F731F0E94CC1087ECDC
:1021F00090E00197F1F700C00000089544E00C94CE
:10220000ED100F931F93CF93DF93C62FD42F022F80
:10221000FC0182818823C9F0609383010E947A20A7
:10222000909382018093810180E28C0F883008F0C6
:1022300057C0C77081E001C0880FCA95EAF7DF91E7
:10224000CF911F910F910C948A1510918301161351
:1022500035C080918101909182010E948620883C46
:10226000910560F5C0E2CD0F1D17B9F080E2810F36
:10227000883040F4177081E001C0880F1A95EAF7A2
:102280000E949115C83028F581E09D2F977001C0FC
:10229000880F9A95EAF70E948A15802F0E94771579
:1022A000C830F0F4D77081E001C0880FDA95EAF702
:1022B000DF91CF911F910F910C94911580E28C0FBB
:1022C000883070F4C77081E001C0880FCA95EAF7C2
:1022D000EFCF802FDF91CF911F910F910C94771545
:1022E000DF91CF911F910F9108959C01CB01233F66
:1022F0004CE5340731F190F4283DFCE53F07E9F067
:10230000293D4CE5340769F1273D3C4579F426E247
:1023100041EE61EE0E94011180E00895253FFCE549
:102320003F07B9F090F0263F3C45B9F0FC018281AF
:102330008823D1F010928301089527E245EE65EEDF
:10234000E9CF26E241EE60EEE5CF27E245EE64EE0E
:10235000E1CF26E241EE62EEDDCF27E245EE66EE0A
:10236000D9CF28E241E0EBCF81E008951F93CF93CE
:10237000DF93EC01FB011281112309F40EC10E94CD
:10238000161F9093480280934702C031FCE5DF0797
:1023900009F4CFC008F050C0C830ECE5DE0709F4FE
:1023A000B2C038F5C4308CE5D80709F4A2C070F487
:1023B000C230FCE5DF0709F489C0C330DC4509F40D
:1023C00094C0812FDF91CF911F9108958091470292
:1023D0008061C630ECE5DE0709F47BC080914702DE
:1023E0008860C730DC4508F474C080914702806281
:1023F00070C0CC308CE5D80709F493C058F4CA30CB
:10240000FCE5DF0709F489C008F481C08091470228
:102410008E7F5FC080914702877FCE30ECE5DE077C
:1024200009F457C080914702CF30DC4508F48CC0D6
:10243000809147028F7E4DC0CB3F8CE5D80709F4D1
:102440005CC020F5C331FCE5DF0709F47AC078F4FD
:10245000C131ECE5DE0709F470C0C231DC4509F09A
:10246000B0CF0E942018809147028F7732C0C531CB
:102470008CE5D80709F46EC008F482C08091480248
:10248000CA3FDC4509F09DCF81603AC0CF3F8CE563
:10249000D80709F45BC068F4809148028D7FCD3F76
:1024A000FCE5DF0769F108F440C0809148028260D2
:1024B000EBCFC130EDE5DE0709F46BC008F456C080
:1024C000C230DD4509F07DCF80E064C080914702D5
:1024D00081608093470280914702909148020E9458
:1024E000241F0E94201810E06CCF80914702826068
:1024F000F0CF809147028460ECCF809148028260E7
:1025000080934802E8CF809147028064E2CF0E9426
:102510002018809147028068DCCF80914702886054
:10252000EACF809147028D7FD4CF809148028E7F81
:10253000E7CF809147028F7DCCCF809147028F7B80
:10254000C8CF80914702877F8B7FC3CF809148029D
:102550008D7FEDCF8091470282FB992790F921E092
:10256000922790FB82F990FB83F9B3CF80914802C8
:10257000982F909591708E7F892B90FB81F9C0CF19
:102580000E94201890914702892F97FB87F9805865
:10259000A0CF81E00E94AB1F9ECF11E012CF90939D
:1025A0008901809388010895E0918801F091890163
:1025B000309721F00190F081E02D099480E008959A
:1025C000E0918801F0918901309721F00280F38138
:1025D000E02D0994089520918601309187012817F4
:1025E000390771F09093870180938601E09188010B
:1025F000F0918901309721F00680F781E02D099450
:10260000089520918401309185012817390771F0D0
:102610009093850180938401E0918801F091890174
:10262000309721F00084F185E02D0994089585B755
:10263000806885BF85B7806885BF0895089508952F
:102640000C941E1308950C9422130E9417130E94D9
:102650001F130C94201381E008950E9471200E94A2
:10266000F0070E94FA200E94CE0E0E94000E0C94E9
:1026700023135F926F927F928F929F92AF92BF923D
:10268000CF92DF92EF92FF920F931F93CF93DF933E
:10269000CDB7DEB72A970FB6F894DEBF0FBECDBF19
:1026A0000E9458080E942B13882309F478C09BE8E5
:1026B000A92E91E0B92E10E000E088248394912C9B
:1026C000502E802F0E94E6077C01F501C190D19029
:1026D0005F01C816D90609F45CC08091150281FD1E
:1026E0000E94EF0790E080E0CE24DF243401082E22
:1026F00002C0660C771C0A94E2F796012621372166
:10270000232B09F441C08E835F82E620F72081E00D
:10271000EF2809F480E088870E947A208160782F72
:102720009A8789874E815F8168858A850E94F61322
:10273000000F111FF801E557FE4F80819181682637
:102740007926718260820E94D41290918A01891741
:10275000B9F10E94D41280938A012A960FB6F89498
:10276000DEBF0FBECDBFDF91CF911F910F91FF90C4
:10277000EF90DF90CF90BF90AF909F908F907F9021
:102780006F905F900C94E60301968F30910509F0ED
:10279000ADCF0F5F1F4F0530110509F091CF8FEFBF
:1027A00089838A831B820E947A208160782F9D838F
:1027B0008C8349815A816B818D810E94F613C3CF2E
:1027C0002A960FB6F894DEBF0FBECDBFDF91CF9132
:1027D0001F910F91FF90EF90DF90CF90BF90AF903F
:1027E0009F908F907F906F905F900895CF93DF932D
:1027F000CDB7DEB72B970FB6F894DEBF0FBECDBFB7
:102800004F83588769877A878B871E821D8285E070
:10281000FE013796DE01119601900D928A95E1F73F
:1028200049815A816B817C818D819E812B960FB667
:10283000F894DEBF0FBECDBFDF91CF910C94E21AAA
:10284000FC01808191810C94AB1D882309F4FFC0A9
:102850008238B9F40E94D41281FDF9C089E30E9444
:10286000D91D0E944D1E2FEF81EE94E02150804033
:102870009040E1F700C0000089E30E94E01D0C9445
:102880004D1E8338A1F40E94D41280FDE0C083E580
:102890000E94D91D0E944D1E2FEF81EE94E0215021
:1028A00080409040E1F700C0000083E5E6CF843827
:1028B000A1F40E94D41282FDCAC087E40E94D91DEF
:1028C0000E944D1E2FEF81EE94E0215080409040F9
:1028D000E1F700C0000087E4D0CF9CEF980F913A59
:1028E00018F40E94D91DCBCF90E2980F983050F485
:1028F000877091E001C0990F8A95EAF7892F0E94AD
:10290000011EBDCF9BE5980F933070F4853A31F0EE
:10291000863A39F083E890E00C94EB1281E890E07D
:10292000FBCF82E890E0F8CF98E5980F973108F058
:102930008EC0883A09F446C0893A09F446C08A3AFA
:1029400009F446C08B3A09F446C08C3A09F446C0F3
:102950008B3B09F446C08C3B09F446C08D3A09F420
:1029600046C0803B09F446C08E3A09F446C08F3A0F
:1029700009F446C0813B09F446C0823B09F446C0D5
:10298000833B09F446C0843B09F446C0853B09F407
:1029900046C0863B09F446C0873B09F446C0883BE5
:1029A00009F446C0893B09F446C08D3B09F446C092
:1029B0008E3B09F446C08A3B09F446C090E080E0B3
:1029C0000C94011382EE90E0FBCF89EE90E0F8CFFB
:1029D0008AEE90E0F5CF85EB90E0F2CF86EB90E0C9
:1029E000EFCF83EB90E0ECCF84EB90E0E9CF87EB87
:1029F00090E0E6CF8CEC90E0E3CF8DEC90E0E0CF80
:102A000083E891E0DDCF8AE891E0DACF82E991E0D6
:102A1000D7CF84E991E0D4CF81E292E0D1CF83E2B5
:102A200092E0CECF84E292E0CBCF85E292E0C8CFB5
:102A300086E292E0C5CF87E292E0C2CF8FE690E0D7
:102A4000BFCF80E790E0BCCF8AE292E0B9CF089593
:102A5000882309F44BC0823871F40E94D41281FF9C
:102A600045C089E30E94D91D0E944D1E89E30E9442
:102A7000E01D0C944D1E833859F40E94D41280FF3F
:102A800035C083E50E94D91D0E944D1E83E5EFCF1E
:102A9000843859F40E94D41282FF28C087E40E942F
:102AA000D91D0E944D1E87E4E2CF9CEF980F913A0A
:102AB000F0F290E2980F983050F4877091E001C0E6
:102AC000990F8A95EAF7892F0E94071ED2CF9BE5BE
:102AD000980F933020F490E080E00C94EB12885A29
:102AE000873120F490E080E00C9401130895CF9397
:102AF000C82F0E942514C93349F42FEF87EE93E0C5
:102B0000215080409040E1F700C000008C2FCF9111
:102B10000C942815882321F00E94011E0C944D1E50
:102B20000895882321F00E94071E0C944D1E0895DD
:102B3000CF92DF92EF92FF920F931F93CF93DF9389
:102B40006C01D62FC72FFC01058102950F701281F1
:102B500011110E94201E0E94F71DE82E882371F09B
:102B6000112331F180E28D0F883010F182E00E9454
:102B7000981E0E94F71D91E0E82EE926FC2EF294A3
:102B80009FE0F922EF2DF0E0E853FA4E0C94502824
:102B9000DA15DA15271627167916071607160716F7
:102BA0009A1629173A173A17A117AA170716CD1719
:102BB000E12CE4CF0C2F0F70C07F11F00295007F45
:102BC0001123A9F0002359F080E28D0F883010F016
:102BD000D11109C0802F0E94011E0E944D1E8D2F11
:102BE0000E94251414C0802F0E94121EF6CF8D2F34
:102BF0000E942815002359F080E28D0F883010F0D4
:102C0000D11121C0802F0E94071E0E944D1EEE2070
:102C100009F4CAC10E94F31D80FDC6C1F6011282EB
:102C20000E94ED1D0E94731CC6010E94DD170E94C8
:102C3000ED1DDF91CF911F910F91FF90EF90DF90ED
:102C4000CF900C94941C802F0E94181EDECFFC2F76
:102C5000FF70FF2EC07FC03219F0F29480EFF8228F
:102C6000DD2369F0D13049F1112391F1002351F1B5
:102C7000F601858180FFB3CF8F70858323C0112338
:102C800081F0011106C00E94341E8F290E948A150E
:102C9000BECF0130C1F70E94341E8F290E943A1E18
:102CA000B6CF011106C00E94431E8F2D0E949115C0
:102CB000AECF013009F4ABCFF6CF112329F00630A7
:102CC00008F0A5CF8F2DE2CF053008F0A0CFEDCFD3
:102CD000002359F3D93349F4FFEF27EE83E0F15095
:102CE00020408040E1F700C000008D2F0E94281591
:102CF0008ECF8C2F86958695837041F0813081F040
:102D000088EF8F0D843008F450C081CF8D2F9C2F19
:102D10009370111102C090E080E00E94EB1277CF17
:102D20008D2F9C2F9370111102C090E080E00E94C3
:102D300001136DCF8C2F837009F045C0111135C080
:102D40004D2F429546954770440F440F0D2F0F703D
:102D500010E030E020E0042E04C0000F111F221FFD
:102D6000331F0A94D2F760E070E0CB01D4FF0FC0AC
:102D70006FE070E080E090E004C0660F771F881F6E
:102D8000991F4A95D2F76095709580959095602B24
:102D9000712B822B932BC695C695C370C23069F0F8
:102DA00078F4C13039F00E94271C0E94D4120E948E
:102DB000E6032DCF0E94151CF8CF0E94391CF5CFD9
:102DC0000E94131CF2CF8695112311F08C2F817075
:102DD000882359F34D2F429546954770440F440F71
:102DE0000D2F0F7010E030E020E0042E04C0000F23
:102DF000111F221F331F0A94D2F760E070E0CB014D
:102E0000D4FF0FC06FE070E080E090E004C0660F78
:102E1000771F881F991F4A95D2F760957095809506
:102E20009095602B712B822B932BC695C695C37002
:102E3000C23049F058F4C13019F00E94EA1CB5CFF5
:102E40000E94D81CB2CF0E94FC1CAFCF0E944D1C28
:102E5000ACCFCF70112339F08C2F0E94731C8D2FB3
:102E60000E948A15A2CF8D2F0E9491158C2F0E944F
:102E7000941C9BCFD23F99F170F4D03FD9F0D13F51
:102E800039F1112309F449C0002309F443C08D2FFF
:102E90000E94251435CFD33F49F1D43F91F7112338
:102EA00079F1CF718C2F0E94731C63E08C2F0E94EC
:102EB000831E26CF112341F0053008F021CF8C2F3F
:102EC0008F710E94B71C1CCF063008F019CFF7CFC6
:102ED0008C2F8F71112339F00E94731C11CF8C2F0E
:102EE0008F711123C9F30E94941C0ACF112329F07A
:102EF0008C2F8F710E945E1C03CF0E94591C00CF43
:102F000081E00E94981E023008F4FACE82E00E940E
:102F1000981EF6CE8C2F8F71DFCF002379F0D93336
:102F200049F49FEFE7EEF3E09150E040F040E1F725
:102F300000C000008D2F0E942815E2CE8C2F8F71CB
:102F4000D2CF4C2F4F706D2FC6010E9403050E94F7
:102F50008B1B5DCE11115BCECF70C230B1F040F44F
:102F6000CC2381F0C13009F0CBCE0E94070F4FCEA9
:102F7000C43089F068F080E0C53009F0C1CE0E940D
:102F8000770F45CE0E94E90E42CE0E94470F3FCEFA
:102F90000E944E0F3CCE83E0F2CF4C2F4F706D2F2E
:102FA000C6010E94060533CEDF91CF911F910F918C
:102FB000FF90EF90DF90CF9008950F931F93CF93E2
:102FC000DF93EC01988189812B813C81232B39F09F
:102FD0008F3F19F481E09F3F19F080E001C081E04C
:102FE00080FD17C0CE010E94FE03882391F0688106
:102FF00079818A810E94B51D8C010E940E1D0E945C
:10300000121CB801CE01DF91CF911F910F910C944A
:103010009815DF91CF911F910F9108950E94201E66
:103020000E94311E0E944D1E90E080E00E94EB1233
:1030300090E080E00C9401130E94E71D0C940E18A0
:103040000E940F1E0C941C18E92FE295EF70E250BD
:10305000EE30E0F4F0E0E15DF74E0C9450283D18BE
:103060003D184618461848184618461846183D1880
:103070003D184D18461846184D18803F19F020F499
:10308000883E20F481E00895843FE1F380E00895D4
:10309000883EC0F3813FD1F7F5CF93FB882780F9B5
:1030A00008950E94AB1D0C942418CF93DF9300D099
:1030B00000D01F92CDB7DEB70F900F900F900F90FA
:1030C0000F90DF91CF910895CF93DF9300D000D080
:1030D00000D0CDB7DEB726960FB6F894DEBF0FBE90
:1030E000CDBFDF91CF9108951F93CF93DF93C09110
:1030F000960116E0809197018C1304C0DF91CF9167
:103100001F910895D0E01C9FF0011D9FF00D112428
:10311000E856FE4F4081518162817381848195819F
:103120000E9464182196C770E5CF4091C801509164
:10313000C9016091CA017091CB018091CC0190913D
:10314000CD010C9464181F93CF93DF938091CD0130
:10315000807FD1F48091CA018823B1F080919601DB
:10316000D0919701B091C801C091C9014091CB01A4
:103170005091CC01A1E0BF3F09F0A0E0BA016095F9
:10318000709516E0D81304C0DF91CF911F91089578
:1031900021E04115510521F02A2FCF3F09F020E011
:1031A00090E020FD38C0189FF001199FF00D112408
:1031B000E856FE4F21812C132EC020812B132BC0EB
:1031C0002281211128C0238134812417350700F181
:1031D000241B350B283C3105F0F42091CD012F70D4
:1031E00020612093CD0126E0289FF001299FF00D5A
:1031F0001124E356FE4F80818F708061808388ECBC
:1032000091E00E94DD17DF91CF911F910C9474180B
:10321000260F371FDFCF01968770B4CFAF92BF92D2
:10322000CF92DF92EF92FF920F931F93CF93DF9392
:10323000CDB7DEB761970FB6F894DEBF0FBECDBF36
:103240008C0185E0F801DE011D9601900D928A95B2
:10325000E1F7D8014C9111965C9111971296EC9080
:103260003091C8016091C9018091CB019091CC014E
:1032700021E0009731F06F3F19F421E03F3F09F062
:1032800020E0B22FB170BB2E20FD80C1F801C380B9
:10329000D480A090CA01AA2009F427C1C816D90673
:1032A000D0F1D601A81BB90BCD01FF24F394883CC3
:1032B000910508F0F12C8091CD01982F907FFF208F
:1032C00009F4CEC0911187C0FE2C651329C03413B8
:1032D00027C0E11025C08F7080618093CD010E94CE
:1032E000951888EC91E00E94DD178091CD01F801DE
:1032F00085838F2D61960FB6F894DEBF0FBECDBFCC
:10330000DF91CF911F910F91FF90EF90DF90CF90C1
:10331000BF90AF900895809590958C0D9D1DC5CF61
:1033200081E0CD2831F05F3F19F481E04F3F09F093
:1033300080E080FD24C081E08E25F82FF170DF2E23
:1033400080FF3FC0809196012091970136E0821363
:1033500018C04D875E878D859E850E94AB1D292FE5
:1033600022952F70223008F1243030F59F7009F13A
:10337000D80115969C91907FE1F4FB2CBACF80E0A8
:10338000DCCF90E0389FF001399FF00D1124E85612
:10339000FE4F6181561306C06081461303C06281EF
:1033A0006E110FC001968770D2CF9F7011F08823E5
:1033B00021F3805E883008F3C8010E94DD17BD2C20
:1033C000DCCFEE2009F495CF8091CD018160809310
:1033D000CD01F12C8ECF651314C0341312C0E1104F
:1033E00010C0F8018583C8010E94DD1786E0F8014E
:1033F000A8ECB1E001900D928A95E1F70E94951832
:1034000078CF4D875E878D859E850E9451188823D1
:1034100019F1EE2009F18091CD01803270F02091F8
:10342000C8013091C90138872F831986DB86CA8687
:103430008C87CE0107960E94DD1786E0F801A8EC84
:10344000B1E001900D928A95E1F70E94A3180E94C5
:103450009518FF24F3944DCFC8010E94DD17F9CFD2
:10346000911113C07C2DD98AC88A6E2D89890E943A
:10347000551888EC91E00E94DD1786E0E8ECF1E059
:10348000DF011D928A95E9F7B9CF651312C0341395
:1034900010C0E1100EC0F8018583C8010E94DD173D
:1034A000E8ECF1E086E0DF011D928A95E9F7FA2C5D
:1034B00020CF4D875E878D859E850E945118882379
:1034C00059F2EE2049F28091CD01803208F4B5CF57
:1034D0002091C8013091C9013A8329831B82DD8282
:1034E000CC828E83CE010196A6CFC816D90638F1BC
:1034F000F601E81BF90BCF01F12C883C910508F08F
:103500003DC0FE2CEE2009F4A7CF651326C034136E
:1035100024C08091CD0180FD17C0982F907FA1F02D
:10352000D80115968C931597903F09F45CCF982F8E
:10353000907F905F8F70892B15968C9354CF8095D8
:1035400090958C0D9D1DD8CF86E0F801A8ECB1E0D8
:1035500001900D928A95E1F7CCCE4D875E878D85DF
:103560009E850E945118811168CF8091CD018160A4
:103570008093CD01C8010E94DD17BBCE7C2DD98A76
:10358000C88A6E2D89890E94551877CFEE2009F4DC
:1035900063CF4D875E878D859E850E945118F82EDA
:1035A000882309F459CF86E0F801A8ECB1E0019036
:1035B0000D928A95E1F788EC91E00E9420140E9418
:1035C000A3181CCF1F93CF93DF93CDB7DEB72C97F3
:1035D0000FB6F894DEBF0FBECDBF4F835887698703
:1035E0007A878B879C87CE0107960E940E198823C5
:1035F00009F442C09F8188852A853B85232B39F0B9
:103600008F3F19F481E09F3F19F080E001C081E015
:1036100080FD08C04F81588569857A858B859C859A
:103620000E94641816E08091960190919701891785
:1036300009F467C0819FC001112488569E4F0E94E3
:103640000E19882309F45DC0E09196011E9FF001D8
:103650001124E856FE4F408151816281738184813B
:1036600095810E9464188091960190E00196877080
:10367000992780939601D7CF86E0FE013796DE0129
:10368000119601900D928A95E1F79F8188852A8590
:103690003B85232B39F08F3F19F481E09F3F19F0D0
:1036A00080E001C081E080FDBDCF2091970130E036
:1036B000C90101968770992740919601481719060C
:1036C00099F096E0929FD001939FB00D1124A856D7
:1036D000BE4FFE01319601900D929A95E1F78093CD
:1036E00097010E9474189ECF0E9420181092970193
:1036F0001092960186E0E8ECF1E0DF011D928A95D8
:10370000E9F72C960FB6F894DEBF0FBECDBFDF9160
:10371000CF911F910895EF92FF920F931F93CF9334
:10372000DF938C01892B81F0F12CEE24E394E801E6
:103730002196F8018491843770F4843008F05FC0DA
:103740008130B1F08230A1F1DF91CF911F910F91C3
:10375000FF90EF900895853709F44CC008F43DC000
:103760009CE7980F903780F78F770E94281549C003
:103770000E5F1F4FFE01849190E2980F983060F425
:103780008770FE2D01C0FF0F8A95EAF78F2F0E94E8
:10379000231E0E944D1E02C00E9425148F2D8150B1
:1037A00030F2EFE9FFE03197F1F700C00000F7CF0A
:1037B0000E5F1F4FFE01849190E2980F983050F4F5
:1037C0008770FE2D01C0FF0F8A95EAF78F2F0E94A8
:1037D000291EDFCF0E942815E1CF0E5F1F4FFE018B
:1037E000C491C150D8F28FE99FE00197F1F700C072
:1037F0000000F7CF0E5F1F4FFE01F490CFCF0E9465
:1038000025148E01CBCF08950C94031C0E94041C38
:10381000609304027093050280930602909307025E
:103820000C940E1808950C94061C0F931F9300918E
:103830000402109105022091060230910702602BCC
:10384000712B822B932B1F910F910C94061C0F93BD
:103850001F930091040210910502209106023091FD
:10386000070260237123822393231F910F910C94ED
:10387000061C0F931F9300910402109105022091E2
:1038800006023091070260277127822793271F9134
:103890000F910C94061C0C9458030E944B1C6093CF
:1038A00000027093010280930202909303020C9431
:1038B0000E1860E070E0CB010C944D1C0F931F9329
:1038C00041E050E060E070E08A019B0104C0000F1D
:1038D000111F221F331F8A95D2F7C901B8011F910A
:1038E0000F910C944D1C0F931F9341E050E060E04A
:1038F00070E004C0440F551F661F771F8A95D2F7EA
:103900008091000290910102A0910202B091030205
:103910008A019B01082B192B2A2B3B2BC901B801CB
:103920001F910F910C944D1C0F931F9341E050E099
:1039300060E070E004C0440F551F661F771F8A9532
:10394000D2F7CB01BA016095709580959095009162
:1039500000021091010220910202309103026023C3
:103960007123822393231F910F910C944D1C0F936D
:103970001F9341E050E060E070E004C0440F551F29
:10398000661F771F8A95D2F78091000290910102FD
:10399000A0910202B09103028A019B010827192716
:1039A0002A273B27C901B8011F910F910C944D1C88
:1039B0000F931F93009100021091010220910202C7
:1039C00030910302602B712B822B932B1F910F914F
:1039D0000C944D1C0F931F93009100021091010253
:1039E00020910202309103026023712382239323EA
:1039F0001F910F910C944D1C0F931F930091000287
:103A00001091010220910202309103026027712778
:103A1000822793271F910F910C944D1C08952FE03E
:103A2000929F800D1124982F977071E001C0770F3D
:103A30009A95EAF786958695869525E0829FC0013E
:103A4000112450E040E0A62FB0E0FC01E40FF51F88
:103A5000E253FE4F60819D01042E02C036952795EA
:103A60000A94E2F721702195262727232627208311
:103A70004F5F5F4F4530510541F708952FE0929F0A
:103A8000800D1124982F977086958695869525E050
:103A9000829FA001112470E060E080E0FA01E60F4F
:103AA000F71FE253FE4F208130E0092E02C0369509
:103AB00027950A94E2F721703327062E01C0220FC2
:103AC0000A94EAF7822B6F5F7F4F6530710531F7FB
:103AD0000895BF92CF92DF92EF92FF920F931F93C0
:103AE000CF93DF938C01C0900002D0900102E09050
:103AF0000202F09003028091040290910502A091CD
:103B00000602B0910702C82AD92AEA2AFB2ACFE185
:103B1000D0E0BC2ED701C6010C2E04C0B695A795E7
:103B2000979587950A94D2F780FD0EC0219788F764
:103B3000B12C8B2DDF91CF911F910F91FF90EF90C2
:103B4000DF90CF90BF900895B8018C2F0E9423057D
:103B5000019761F3EECFCF93DF93EC010E94691DD3
:103B6000BE01DF91CF910C9423051F93CF93DF9378
:103B7000EB0190919501992331F0CB01DF91CF9129
:103B80001F910C94AB1D882379F0CB010E94691D15
:103B9000182F682FCE010E940F1DBE01812FDF91CB
:103BA000CF911F910C942305CB010E943E1D182F2D
:103BB000F4CF682F80911101909112010C94E31FB2
:103BC000682F80911101909112010C94E51F809152
:103BD0001101909112010C94E71F809108028595C4
:103BE0008595859508958091080287700895909134
:103BF0000802977081E009F480E008958091140232
:103C0000089590911402892B809314020895982F9F
:103C10009095809114028923809314020895109244
:103C20001402089590911302892B80931302089532
:103C3000982F909580911302892380931302089501
:103C400010921302089590911202892B8093120210
:103C50000895982F909580911202892380931202E3
:103C6000089510921202089580910902089508950E
:103C70000C94371E90910902981721F08093090245
:103C80000C94381E089580910902882329F010921F
:103C9000090280E00C94381E0895E0911101F09122
:103CA0001201809114028083E0911101F0911201C0
:103CB000808190911302892B8083E0911101F09112
:103CC0001201808190911202892B808390910902C8
:103CD000992381F0E0911101F09112018081892BEB
:103CE000808380911101909112010E94B01F811177
:103CF0000E94431E80911101909112010C94E012D8
:103D000008950C94801E98E0899F90011124622BE5
:103D1000609308020E94731C809108028595859526
:103D200085950C94811E1092080280E00C94811EEF
:103D3000909108028095892380930802282F27708C
:103D400071F4282F082E000C330B9217130639F04C
:103D50008595859585950E94941C0C94931E0895D5
:103D6000CF92DF92EF92FF926C01EE24FF2420E0CD
:103D7000C114D104E104F10419F0C701B60120E136
:103D8000C72ED82EE92EFF24C114D104E104F1047A
:103D900019F0285FC701B6016B017C0154E0F6946D
:103DA000E794D794C7945A95D1F7C114D104E1048C
:103DB000F10419F02C5FC701B6016B017C0142E0F0
:103DC000F694E794D794C7944A95D1F7C114D104D7
:103DD000E104F10419F02E5FC701B60196958795AD
:103DE00077956795672B682B692B09F02F5F822FDA
:103DF000FF90EF90DF90CF9008956FEF7FEF90E00E
:103E000080E00C94BB2890E080E00E94972821E09D
:103E10008C3E9E4F09F020E0822F089582E090E0D2
:103E20000C94892883E090E00C948928CF9384E057
:103E300090E00E948928C82F81E290E00E948928A2
:103E4000982F8C2FCF910895CF93C92F682F84E09E
:103E500090E00E949D286C2F81E290E0CF910C941D
:103E60009D2886E090E00C948928682F86E090E0F9
:103E70000C949D28AB01BC018FE090E00C94AF281E
:103E8000AB01BC0183E190E00C94AF2860E070E0EE
:103E9000CB010C94401F60E070E0CB010E943A1F00
:103EA0000C94461F6CEE7EEF90E080E00E94BB28F1
:103EB00060E082E090E00E949D2860E083E090E076
:103EC0000E949D2810920402109205021092060290
:103ED0001092070260E084E090E00E949D2860E07C
:103EE00081E290E00E949D2860E085E090E00E94E1
:103EF0009D2860E086E090E00E949D286FEF87E0BB
:103F000090E00E949D2840E050E0BA0188E090E0F7
:103F10000E94AF2860E08DE090E00E949D2840E084
:103F200050E0BA0188E190E00E94AF2860E087E1AC
:103F300090E00E949D2840E050E0BA018CE190E0C2
:103F40000E94AF2860E080E290E00E949D280C94DF
:103F50004B1F0C94521F682F8EE090E00C949D280C
:103F6000FC01329697E080E0915009F40895219188
:103F70002223D1F38F5FF8CF9C01FC0132969FEF93
:103F800080E04191461751F09F3F19F4411101C063
:103F9000982F8F5F8630A9F79F3F09F40895290F66
:103FA000311D97FD3A95F90162830895FC0132961F
:103FB00008962191261303C0DF0111971C92E81780
:103FC000F907B9F708950C94BC1F0C94D61F0296FC
:103FD00026E0FC0111922A95E9F7089508950895C5
:103FE0000C94EF1F0E94F01F80914D02843061F10C
:103FF0001092160288E190E020E40FB6F894A8959C
:10400000809360000FBE2093600080E00E940F103C
:1040100080E00E94E6030E94F01F83B7817F8460E6
:1040200083BF83B7816083BF7894889583B78E7F81
:1040300083BF0FB6F894A895809160008861809343
:104040006000109260000FBE08950895CF930E9403
:10405000EE1F0E9458080E942520C0E08C2F0E946D
:10406000E607892B31F4CF5FC530C1F780E0CF91EF
:10407000089581E0FCCF08950C943B200E94201805
:104080000E94CE0E0E94D4120E94E6030C943C20A3
:104090001F920F920FB60F9211248F939F93AF939D
:1040A000BF9380911602811113C0809143029091B9
:1040B0004402A0914502B09146024196A11DB11D56
:1040C0008093430290934402A0934502B09346022A
:1040D000BF91AF919F918F910F900FBE0F901F9046
:1040E000189582E084BD93E095BD9AEF97BD8093CB
:1040F0006E0008952FB7F894809143029091440286
:10410000A0914502B09146022FBF0895CF92DF9251
:10411000EF92FF920F931F932FB7F89440914302B1
:104120005091440260914502709146022FBF6A018E
:104130007B01EE24FF248C0130E020E0C016D10684
:10414000E206F30650F0481B590BCA011F910F916C
:10415000FF90EF90DF90CF90089541505109F3CF39
:1041600078941F920F920FB60F9211248F939F9302
:10417000AF93BF938091430290914402A091450276
:10418000B09146020196A11DB11D80934302909308
:104190004402A0934502B0934602BF91AF919F9114
:1041A0008F910F900FBE0F901F90189581E0809314
:1041B000E00080E28093D8001092C9008FE19EE475
:1041C0000197F1F700C0000087E090EBDC018093DD
:1041D000560290935702A0935802B093590288E177
:1041E0009CE00FB6F894A895809360000FBE909362
:1041F0006000FFCF0E94031F811102C00E94A91F0F
:104200000E940E1F809315020E94161F9093480271
:10421000809347020E94121F682F70E090E080E0B8
:104220000C94131C80911F02089508950F931F93FF
:10423000CF93DF9300D01F92CDB7DEB78C010E94E1
:104240003923823011F0843021F584E089831B8387
:104250000A8382E08093E9008FEF9091E80081501B
:1042600095FD06C095ED9A95F1F700008111F5CF07
:104270008091E80085FF0DC050E040E063E070E011
:10428000CE0101960E9456238091E8008E7780939C
:10429000E8000F900F900F90DF91CF911F910F9139
:1042A0000895CF93DF9300D01F92CDB7DEB7209152
:1042B0004D02243031F523E02983805891099B83F6
:1042C0008A8382E08093E9008FEF9091E80081502B
:1042D00095FD06C095ED9A95F1F700008111F5CF97
:1042E0008091E80085FF0DC050E040E063E070E0A1
:1042F000CE0101960E9456238091E8008E7780932C
:10430000E8000F900F900F90DF91CF910895CF9319
:10431000DF93EC010E943923823011F0843039F5AB
:1043200081E08093E9008FEF9091E800815095FD46
:1043300006C095ED9A95F1F700008111F5CF8091B7
:10434000E80085FF14C050E040E068E070E0CE0176
:104350000E9456238091E8008E778093E80088E0E1
:10436000FE01A7E1B2E001900D928A95E1F7DF919D
:10437000CF91089580914C02811109C00E94E624DA
:104380000E9443258091E20084608093E2000895BA
:1043900010924C020895089508950C943E2042E036
:1043A00061EC81E00E94642442E261EC82E00C94C2
:1043B000642480914F02833009F462C030F481306C
:1043C000D9F1823009F49EC008958A3009F48AC078
:1043D0008B3009F470C0893009F051C080914E02D1
:1043E000813209F04CC080915202909153020297A1
:1043F00008F045C08091E800877F8093E8008091B5
:10440000E80082FF38C08091F3009091F200892784
:1044100098278927029729F48091F1008B7F8130BA
:1044200021F48091F10080931F028091E8008B7746
:104430008093E8000C94982480914E02813AF9F41C
:104440008091E800877F8093E800809152029091EC
:104450005302892B61F468E087E192E070E00E94EA
:10446000A5238091E8008B778093E800089560E0B1
:1044700090E080E0F3CF80914D028111C0CF08958C
:1044800080914E02813AD9F7809152029091530265
:10449000892BA9F78091E800877F8093E8008091BD
:1044A000E80080FFFCCF80911D018093F100809196
:1044B000E8008E77BDCF80914E02813201F7809166
:1044C000520290915302892BD1F68091E800877FA8
:1044D0008093E8000E9498248091500280931D01EF
:1044E0000C94201880914E02813249F68091E800A8
:1044F000877F8093E8000E949824809151028093E6
:104500002002089580914E02813A09F0B8CF80913F
:10451000E800877F8093E8008091E80080FFFCCF6F
:1045200080912002C2CF84B7877F84BF0FB6F894F2
:10453000A89580916000886180936000109260006F
:104540000FBE80E890E00FB6F894809361009093DE
:1045500061000FBE0E9425130E94E6240E9443259D
:104560008091E20084608093E20078940E94CC27DE
:104570000E942D1383E191E00E94CF1280914D02A1
:10458000853029F00E9439130E94330EF7CF0E9424
:10459000F21F80914B02882389F30E9426208823F2
:1045A00069F30E944023EACF0C94D622292F3327A7
:1045B0002330310571F158F421303105E9F0223012
:1045C000310511F190E080E030E020E019C02132A7
:1045D0003105C1F122323105A9F780E490E02EEBDC
:1045E00035E06115710561F086E390E028E835E07B
:1045F0006130710529F0E6CF82E190E026E735E0F1
:10460000FA013183208308958BE390E02BE335E0BA
:10461000F7CF99278130910579F040F082309105EC
:1046200071F0039779F6E5E0F5E002C0E7E3F5E025
:10463000849190E09F01E4CFE1E2F5E0F9CFEBE077
:10464000F5E0F6CF89E090E02DE435E061157105E5
:10465000B9F289E090E026E635E06130710581F23B
:10466000B1CF80914D02843011F081E0089582E055
:10467000089580912102811102C00C943123089584
:1046800080E189BD82E189BD09B400FEFDCF809142
:10469000D8008F7D8093D8008091E0008260809365
:1046A000E0008091E00081FDFCCF0895AF92BF92C1
:1046B000CF92DF92FF920F931F93CF93DF936C0102
:1046C000EB018A010E94B724F82E811123C0011545
:1046D000110539F0F80180819181C81BD90BC80EF2
:1046E000D91EB12CA12C2097A9F08091E80085FD5E
:1046F00022C08091E8008E778093E80001151105B3
:10470000A1F0F80180819181A80EB91EB182A0822A
:1047100085E0F82E8F2DDF91CF911F910F91FF90A3
:10472000DF90CF90BF90AF9008950E94B724882368
:10473000D1F2F82EEFCFF60181916F018093F10055
:104740002197FFEFAF1ABF0ACECFFC018091540230
:104750009091550286179707A0F06115710529F40D
:104760009091E8009E779093E80090E061157105C4
:1047700051F4911108C08091E80082FF35C080E0BB
:104780000895BC01F2CF80914D028823C9F1853094
:10479000C9F18091E80083FD31C08091E80082FD7D
:1047A000EACF8091E80080FFE1CF2091F300809173
:1047B000F200322F282F6115710519F028303105CC
:1047C00058F091E02830310509F090E02091E800A0
:1047D0002E772093E800CACF81918093F100615039
:1047E00071092F5F3F4FE7CF80914D02882341F041
:1047F000853041F08091E80083FFBDCF81E00895CE
:1048000082E0089583E00895FC0180915402909124
:10481000550286179707A0F06115710529F480915C
:10482000E8008E778093E80090E06115710551F4FF
:10483000911108C08091E80082FF36C080E00895A1
:10484000BC01F2CF80914D028823D1F18530D1F1A6
:104850008091E80083FD32C08091E80082FDEACFBC
:104860008091E80080FFE1CF2091F3008091F20079
:10487000322F282F6115710519F02830310558F0B5
:1048800091E02830310509F090E08091E8008E77C2
:104890008093E800CACF84918093F10031966150F3
:1048A00071092F5F3F4FE6CF80914D02882341F081
:1048B000853041F08091E80083FFBCCF81E008950E
:1048C00082E0089583E00895982F973028F08F7044
:1048D0008093E90081E008959093E900242F762FDA
:1048E00050E0981731F07091EC002091ED0050915C
:1048F000F00021FD02C09F5FE8CF3091EB003E7FCA
:104900003093EB003091ED003D7F3093ED0030911E
:10491000EB0031603093EB007093EC002093ED00DE
:104920005093F0002091EE0027FDE5CF80E0089540
:1049300080914E0287FF13C08091E80082FF06C07D
:104940008091E8008B778093E80004C080914D024D
:104950008111F2CF089580914D028823D9F380917F
:10496000E80080FFF8CF8091E8008E77ECCF2091AF
:10497000E4003091E50085E69091EC0090FF06C0E0
:104980009091E80090FF06C080E008959091E800C3
:1049900092FDFACF90914D02992391F0953091F0CC
:1049A0009091EB0095FD10C04091E4005091E5001E
:1049B0002417350709F381509A01F1F684E0089530
:1049C00082E0089583E0089581E008950E945425CF
:1049D0000E945C25E0EEF0E0808181608083E8ED5C
:1049E000F0E080818F77808319BCA7EDB0E08C91D7
:1049F0008E7F8C9380818F7E808310924C020895ED
:104A00000F931F93CF93DF930E9454250E945C2540
:104A1000C8EDD0E088818F7788838881806888831B
:104A200088818F7D888319BC10924D0210924902B3
:104A300010924B0210924A0200EE10E0F8018081C1
:104A40008B7F808388818160888342E060E080E0A2
:104A50000E946424E1EEF0E080818E7F8083E2EEAC
:104A6000F0E0808181608083808188608083F801AC
:104A700080818E7F8083888180618883DF91CF9160
:104A80001F910F910895E8EDF0E080818F7E808383
:104A9000E7EDF0E080818160808384E082BF81E087
:104AA00080934C020C940025E8EDF0E080818E7F2D
:104AB00080831092E20008951092DA001092E100D3
:104AC00008951F920F920FB60F9211242F933F93C8
:104AD0004F935F936F937F938F939F93AF93BF9306
:104AE000EF93FF938091E10082FF0BC08091E20081
:104AF00082FF07C08091E1008B7F8093E1000E94DC
:104B0000CB278091DA0080FF19C08091D80080FF08
:104B100015C08091DA008E7F8093DA008091D900F1
:104B200080FF94C080E189BD82E189BD09B400FEA7
:104B3000FDCF81E080934D020E94BA218091E10077
:104B400080FF19C08091E20080FF15C08091E200D3
:104B50008E7F8093E2008091E20080618093E2008A
:104B60008091D80080628093D80019BC85E0809342
:104B70004D020E94CC218091E10084FF29C08091E8
:104B8000E20084FF25C080E189BD82E189BD09B4CE
:104B900000FEFDCF8091D8008F7D8093D80080915A
:104BA000E1008F7E8093E1008091E2008F7E809310
:104BB000E2008091E20081608093E20080914902EE
:104BC000882309F449C084E080934D020E94CD21DE
:104BD0008091E10083FF29C08091E20083FF25C01E
:104BE0008091E100877F8093E10082E080934D0215
:104BF000109249028091E1008E7F8093E1008091C4
:104C0000E2008E7F8093E2008091E20080618093D9
:104C1000E20042E060E080E00E9464248091F000C5
:104C200088608093F0000E94CB21FF91EF91BF91AB
:104C3000AF919F918F917F916F915F914F913F9134
:104C40002F910F900FBE0F901F90189519BC1092C6
:104C50004D020E94C82172CF8091E30087FD02C0FF
:104C600081E0B2CF83E0B0CF1F920F920FB60F92C8
:104C700011242F933F934F935F936F937F938F9361
:104C80009F93AF93BF93CF93EF93FF93C091E900AE
:104C9000CF708091EC001092E9008091F000877F46
:104CA0008093F00078940E9470261092E900809121
:104CB000F00088608093F000C093E900FF91EF91CD
:104CC000CF91BF91AF919F918F917F916F915F91A4
:104CD0004F913F912F910F900FBE0F901F901895FD
:104CE0001F93CF93DF93CDB7DEB7AA970FB6F89493
:104CF000DEBF0FBECDBFEEE4F2E08091F100819304
:104D000022E0E635F207C9F70E94D9218091E80038
:104D100083FF44C080914E0290914F029A3008F078
:104D20003DC0E92FF0E0E956F94D0C945028A1263A
:104D3000C726CE26C726CE2625274727CE269E273E
:104D4000AB27803889F0823849F5809152028F7004
:104D5000873020F58093E9008091EB0085FB882760
:104D600080F91092E90006C080914A0290914B02AE
:104D7000911182609091E800977F9093E800809372
:104D8000F1001092F1008091E8008E772DC0282F5D
:104D90002D7F21F48823D1F0823059F18091E800F1
:104DA00083FF0AC08091E800877F8093E8008091AC
:104DB000EB0080628093EB00AA960FB6F894DEBFFA
:104DC0000FBECDBFDF91CF911F910895809150020A
:104DD000813021F7933009F080E080934B021092EC
:104DE000E9008091E800877F8093E8000E94982482
:104DF000D5CF809150028111F2CF809152028F70F5
:104E00002FEF280F263050F68093E9002091EB0019
:104E100020FFE5CF933031F48091EB0080628093E6
:104E2000EB00DDCF9091EB0090619093EB0021E0DF
:104E300030E001C0220F8A95EAF72093EA00109231
:104E4000EA008091EB008860EACF8111A7CF109132
:104E500050021F778091E3008078812B8093E300DC
:104E60008091E800877F8093E8000E9498248091D9
:104E7000E80080FFFCCF8091E30080688093E3002E
:104E800083E0111101C082E080934D0287CF8058EA
:104E9000823008F083CF80915002909151028C3D76
:104EA00023E09207A1F583E08A838AE289834FB7E2
:104EB000F894DE01139620E03EE051E2E32FF0E0AB
:104EC00050935700E49120FF03C0E295EF703F5FDD
:104ED000EF708E2F90E0EA30C0F0C7968D939D93CF
:104EE0002F5F243159F74FBF8091E800877F80936F
:104EF000E8006AE270E0CE0101960E94A52380914D
:104F0000E8008B778093E80049CFC096E7CF6091A7
:104F1000520270915302AE014F5F5F4F0E94D42244
:104F2000BC01892B09F43ACF9091E800977F9093C8
:104F3000E80089819A810E940424E1CF803809F039
:104F40002DCF8091E800877F8093E800809149020F
:104F50008093F10018CF811121CF909150029230AF
:104F600008F01CCF8091E800877F8093E800909341
:104F700049020E94982480914902882331F084E0FC
:104F800080934D020E94CF2109CF8091E30087FDDD
:104F9000F6CF81E0F5CF0895CF9380914D0288231D
:104FA00099F0C091E900CF708091EC0080FD0EC0B7
:104FB00080E0C82B1092E9008091E80083FD0E94F8
:104FC0007026CF70C093E900CF91089580E8F1CFAB
:104FD000DB018F939F930E946528BF91AF91A29FA1
:104FE000800D911DA39F900DB29F900D11240895E7
:104FF00087FB082E062687FD819567FD61950E9437
:1050000070280EF4919507FC81950895AA1BBB1B8F
:1050100051E107C0AA1FBB1FA617B70710F0A61BB8
:10502000B70B881F991F5A95A9F780959095BC01D9
:10503000CD01089597FB072E16F4009407D077FD55
:1050400009D00E94062807FC05D03EF49095819572
:105050009F4F0895709561957F4F0895A1E21A2E94
:10506000AA1BBB1BFD010DC0AA1FBB1FEE1FFF1F0C
:10507000A217B307E407F50720F0A21BB30BE40B5C
:10508000F50B661F771F881F991F1A9469F76095A3
:105090007095809590959B01AC01BD01CF0108955D
:1050A000EE0FFF1F0590F491E02D0994A29FB0012F
:1050B000B39FC001A39F700D811D1124911DB29F4C
:1050C000700D811D1124911D08950E945628A59FE1
:1050D000900DB49F900DA49F800D911D11240895F3
:1050E000991B79E004C0991F961708F0961B881F3A
:1050F0007A95C9F780950895FC014150504030F0F1
:1051000001900616D1F73197CF0108958827992786
:105110000895F999FECF92BD81BDF89A992780B57F
:105120000895A6E1B0E044E050E00C94C328A8E163
:10513000B0E042E050E00C94C328262FF999FECF4E
:1051400092BD81BDF89A019700B4021639F01FBADA
:1051500020BD0FB6F894FA9AF99A0FBE08950396F7
:10516000272F0E949E280E949D28252F0E949E285E
:10517000242F0C949E280196272F0E949E280C9481
:105180009D28DC01CB01FC01F999FECF06C0F2BDE0
:10519000E1BDF89A319600B40D9241505040B8F7F5
:0651A0000895F894FFCF12
:1051A600010209090901191A1B1C1D1E1F202122B3
:1051B600060A021221872115215121162101C63125
:1051C60033F0F1F4F5F6F795943496973035369337
:1051D60066670001020202020606060909090909B4
:1051E600090F0F0F0F0F0F15151518191919191982
:0851F6001919191919232400ED
:00000001FF
