:020000040800F2
:1000000000040020E1010008A33D0008E30100080E
:10001000E3010008E3010008E3010008E301000830
:10002000E3010008E3010008E3010008E301000820
:10003000E3010008E3010008E3010008E301000810
:10004000E3010008E3010008E3010008E301000800
:10005000E3010008E3010008E3010008E3010008F0
:10006000E3010008E3010008E3010008E3010008E0
:10007000E3010008E3010008E3010008D14700089C
:10008000E3010008E3010008E3010008F131000882
:10009000E3010008E3010008E3010008E3010008B0
:1000A000E3010008E3010008E3010008E3010008A0
:1000B000E3010008E3010008E30100081948000813
:0800C000F1000008C90000086E
:1000C80010B5064C2378002B07D1054B002B02D026
:1000D800044800E000BF0123237010BD280C002055
:1000E8000000000004550008044B10B5002B03D095
:1000F8000349044800E000BF10BDC04600000000EE
:100108002C0C00200455000872B6244880F3088897
:10011800234880F30988022080F31488BFF36F8F87
:1001280003F0DEFB03F042FB1E481F491B4A9142C5
:1001380002DA08600431FAE71C49194A914202DAE6
:1001480008600431FAE71A491A4A1B4B9A4204DA42
:100158000868106004310432F8E700201749184A8B
:10016800914202DA08600431FAE703F0BDFB03F0BC
:10017800B8FB144C144DAC4203DA216888470434A8
:10018800F9E703F021FB114C114DAC4203DA216869
:1001980088470434F9E70F490847000000040020A5
:1001A800000C002055555555000000200004002083
:1001B80004550008000C0020280C0020280C002002
:1001C800AC170020C0000008C4000008C4000008E4
:1001D800C8000008ED38000896E700F000F8FEE7D0
:1001E800F0B544464D4656465F46F0B46B46CB6084
:1001F800C3689D46F0BCA046A946B246BB46F0BDC2
:1002080062B6281CA047002003F09EFDFEE703F01D
:1002180041FD024A024B1360FEE7C04604ED00E0D0
:100228000000008002B4714649084900095C490091
:100238008E4402BC7047C04603B47146490840006A
:100248004900095E49008E4403BC704703B47146F7
:10025800490840004900095A49008E4403BC7047C8
:10026800002243088B4274D303098B425FD3030AED
:100278008B4244D3030B8B4228D3030C8B420DD300
:10028800FF22090212BA030C8B4202D3121209028E
:1002980065D0030B8B4219D300E0090AC30B8B42CC
:1002A80001D3CB03C01A5241830B8B4201D38B037A
:1002B800C01A5241430B8B4201D34B03C01A52411F
:1002C800030B8B4201D30B03C01A5241C30A8B4262
:1002D80001D3CB02C01A5241830A8B4201D38B024D
:1002E800C01A5241430A8B4201D34B02C01A5241F1
:1002F800030A8B4201D30B02C01A5241CDD2C30963
:100308008B4201D3CB01C01A524183098B4201D3DE
:100318008B01C01A524143098B4201D34B01C01AC9
:10032800524103098B4201D30B01C01A5241C30841
:100338008B4201D3CB00C01A524183088B4201D3B0
:100348008B00C01A524143088B4201D34B00C01A9C
:100358005241411A00D20146524110467047FFE708
:1003680001B5002000F0F0F802BDC0460029F7D022
:1003780076E7704703460B437FD4002243088B423D
:1003880074D303098B425FD3030A8B4244D3030B14
:100398008B4228D3030C8B420DD3FF22090212BAD9
:1003A800030C8B4202D31212090265D0030B8B4255
:1003B80019D300E0090AC30B8B4201D3CB03C01A3F
:1003C8005241830B8B4201D38B03C01A5241430B1A
:1003D8008B4201D34B03C01A5241030B8B4201D30A
:1003E8000B03C01A5241C30A8B4201D3CB02C01A75
:1003F8005241830A8B4201D38B02C01A5241430AED
:100408008B4201D34B02C01A5241030A8B4201D3DB
:100418000B02C01A5241CDD2C3098B4201D3CB0182
:10042800C01A524183098B4201D38B01C01A524131
:1004380043098B4201D34B01C01A524103098B4235
:1004480001D30B01C01A5241C3088B4201D3CB0020
:10045800C01A524183088B4201D38B00C01A524103
:1004680043088B4201D34B00C01A5241411A00D2B3
:1004780001465241104670475DE0CA0F00D049421C
:10048800031000D34042534000229C4603098B428C
:100498002DD3030A8B4212D3FC22890112BA030A14
:1004A8008B420CD3890192118B4208D38901921196
:1004B8008B4204D389013AD0921100E08909C3091B
:1004C8008B4201D3CB01C01A524183098B4201D31D
:1004D8008B01C01A524143098B4201D34B01C01A08
:1004E800524103098B4201D30B01C01A5241C30880
:1004F8008B4201D3CB00C01A524183088B4201D3EF
:100508008B00C01A5241D9D243088B4201D34B0009
:10051800C01A5241411A00D20146634652415B104B
:10052800104601D34042002B00D54942704763462C
:100538005B1000D3404201B5002000F005F802BD71
:100548000029F8D016E770477047C046002B11D134
:10055800002A0FD1002900D1002802D00021C94368
:10056800081C07B4024802A14018029003BDC04607
:10057800D9FFFFFF03B4684601B5029800F030F8D0
:10058800019B9E4602B00CBC7047C046F0B5CE46F3
:10059800474615042D0C2E0080B50704140C3F0C9B
:1005A8009946030C7E435D43674363437F19340CCC
:1005B800E4199C46A54203D980235B029846C444AB
:1005C8004B4643435143250C36046544360C2404FA
:1005D800A4195B19591820000CBC90469946F0BD27
:1005E800F0B557464E464546DE46E0B5040083B0B2
:1005F8000D00924699468B4230D82DD04946504638
:1006080000F0C0F829000600200000F0BBF8331AFB
:100618009846203B9B4633D45A465346934042461D
:100628001F00534693401E00AF423AD8AF4200D154
:100638007BE05B46A41BBD41002B00DA78E000227A
:1006480000230092019301235A469340019301230A
:1006580042469340009328E08242CFD900220023EB
:10066800009201930C9B002B01D01C605D600098E8
:10067800019903B03CBC90469946A246AB46F0BDF2
:10068800424620239B1A5246DA40414613004A4606
:100698008A40170042461F43534693401E00AF420C
:1006A800C4D900220023009201934346002BD9D0DD
:1006B800FB079C46614672080A437B0846460EE0E3
:1006C800AB4201D1A2420CD8A41A9D4101202419A1
:1006D8006D410021013E24184D41002E06D0AB4249
:1006E800EED9013E24196D41002EF8D100980199E8
:1006F8005B4600196941002B25DB2B005A4644460E
:10070800D3402A00E2401C005B461500002B2BDB7F
:1007180026005F46BE40330026004746BE403200F2
:10072800801A9941009001919CE7A342B9D880E7CB
:100738004246202300219B1A0022009101920122A7
:10074800DA40019283E7424620239B1A2A00464654
:100758009A402300F340444613432A00E2401C0019
:100768005B461500002BD3DA2023424626009B1A4D
:10077800DE402F00B4464646B74066463B0033434A
:10078800CAE7C04610B5002903D100F007F82030A9
:1007980002E0081C00F002F810BDC0461C2101232D
:1007A8001B04984201D3000C10391B0A984201D34C
:1007B800000A08391B09984201D30009043902A22A
:1007C800105C40187047C046040302020101010191
:1007D8000000000000000000012070470120704761
:1007E80010B5FFF7FBFF10BD704710B5FFF7FCFF12
:1007F80010BD000013B5104B00901B78002B16D1CC
:100808006B469B78002B0DD0002A0BD002F056F9CE
:1008180004000100009802F00BF92000009900F094
:100828008DF816BD009802F029F90400F5E7009844
:1008380002F044F90099F2E7780C002010B50400A2
:10084800638800881B040A001843A188FFF7D2FFB9
:1008580010BD10B504000021FFF7F0FF2100FFF7DD
:10086800C4FF10BD10B502F08FFC02F07FFA00281B
:1008780001D102F00BFB00F03CFA10BD10B500F0FE
:100888003DFA10BD7047000010B501F0E1FCFFF71C
:10089800F9FF034803F05DFA02F038FC10BDC046CA
:1008A800C409000070B501210400FFF7C7FF21004B
:1008B8000500FFF795FF002801D1002070BD210039
:1008C800280000F0F7FE0028F7D02100280000F0EB
:1008D80049FF0028F1D02100280001F051F8002834
:1008E800EBD0A378002B06D0B823DB019D4206D0BD
:1008F800064B9D4206D02000FFF76EFFDEE7FFF7AC
:10090800C3FFDAE702F0C2FAD7E7C046DF5C0000AF
:10091800704710B5FFF7FCFF10BD0120704710B5F8
:10092800FFF7FBFF10BD10B50400FFF7F2FF201C16
:10093800FFF7F5FF10BD00207047704705234343BC
:100948000A04120E9B18C9B21B015B18024A5B000D
:10095800D05A82B002B07047C44E0008014B400024
:10096800185A7047D650000837B501AB198001995D
:10097800FFF7E4FF00F0ECF8624B0400984233D82C
:100988008023DB01984200D390E0E72819D8E028BB
:1009980022D2A7280BD8A52800D36BE001281BD0AA
:1009A80003B2002B01D0042816D2002414E0BE287C
:1009B80066D9C028F9D3C03880B2FFF7CFFF04004A
:1009C8000AE0514B984209D8FF2862D8ED28ECD3A9
:1009D800A020C0010443A4B2201C3EBD4B4B98424A
:1009E8005CD80005000DE8E7494B984219D8A822C1
:1009F800C3B2D201904275D2464A904205D8FF3A16
:100A0800904258D31C02444841E0444A904260D87E
:100A1800032498082340023C9C4040012043404C5A
:100A2800D8E7404B98420FD8FF3B98425DD23E4BE7
:100A38009842BAD8C0B200F007F9F824000264015D
:100A480020400134FF3422E0384B984250D9384BCB
:100A58002D4AC3189BB29342A7D8C004C00E00F019
:100A6800F3F8F82300025B011840E4B20443802045
:100A780080010CE05B342F4AE4B2145D1C43ABE701
:100A88005834E4B22C4B6400E05A8824E40104434F
:100A9800A2E7000A80B20002E4B29BE7C3B20205F3
:100AA80002D5C8242402E9E7C024FBE72348044010
:100AB800A0200002EBE7040903209A080440024042
:100AC8000340023898402402520114430443144856
:100AD80080E7032498082340023C9C4040012043BF
:100AE800174C77E71B02174CC8E70002164C71E752
:100AF8000F25284000F0A8F824092C4024020443BC
:100B0800124867E7FF4F0000FF1F0000FF2F00009B
:100B1800FF540000FF510000F1A00000FF52000048
:100B2800008CFFFFFF580000FF550000FF59000030
:100B380000A0FFFFA4500008A8500008FF0F000005
:100B4800008AFFFFF4A00000F0A0FFFF0090FFFF65
:100B580010B582280CD011D8312861D004D82928A2
:100B680058D02A2862D010BD35284DD03928FAD15E
:100B7800344B1B789B07F6D0E020F4E7E32827D016
:100B88000BD8E02816D0E228EDD12E4B1B785A0757
:100B9800E9D5E320DB0619D4E5E7E62826D0E728DF
:100BA80029D0E428DFD1274B5A789207DBD51B7868
:100BB800E720EFE7234C0121227813000B403BD1BB
:100BC80064780C42CFD0E320D206CCD50020CAE707
:100BD8001C4A1378590731D45278D207CCD4102242
:100BE80013405A4253415B421840BCE7154B1B78EF
:100BF8001A07DDD4B7E7134A1378190720D45278B7
:100C08009207ECD5E420AEE70E4B1B789B06AAD5DD
:100C18002920A8E70B4B1B789B06A4D53520A2E713
:100C2800084B1B785B069ED52A209CE7054B1B7852
:100C38005B0698D5312096E7392094E7E22092E7C1
:100C4800E62090E7C815002030B5042427490A7823
:100C5800224205D018230340082B27D1984320436C
:100C6800130708D51824050014232540A54225D1CB
:100C7800A843C0B2184301244978214206D018235A
:100C88000340082B21D19843C0B220438B0708D5D5
:100C98001821040011230C408C421FD1A043C0B27C
:100CA8001843D30601D5E723184030BD1423034069
:100CB800042BD5D1984304331843D1E70340142BB0
:100CC800D9D19843C0B22043D5E711230340012B63
:100CD800DCD19843C0B207331843D7E70340112B40
:100CE800DFD19843C0B20843DBE7C046C8150020EF
:100CF800704710B5FFF7FCFF10BD704710B5FFF740
:100D0800FCFF10BD014B4000185A7047BE0D002073
:100D1800704710B5012003F01CF810BDC046C0464E
:100D2800C046C046C046C046C046C046C046C0468B
:100D3800C046C046704710B5FFF7EBFF10BD10B5B1
:100D480072B60F23020001211A40914098432022D5
:100D580003F095FC62B610BD70B51548FFF7EFFFBC
:100D68001448FFF7ECFF1448FFF7E9FF1348FFF7B3
:100D7800E6FF1348FFF7E3FF124C2500403501CC8E
:100D8800FFF7DDFFA542FAD100230F490F4A0520DE
:100D98000B8013804B8053808B809380CB80D380D3
:100DA8000B81138100F072F8FFF75CFD70BDC0463F
:100DB800020400480A0400480B04004809000048DF
:100DC80006000048D8500008B40D0020BE0D0020D1
:100DD800F7B500242700294B294D00932B6872B6DC
:100DE8000F2101261A000B409E408A4301923100D0
:100DF8000122019803F043FC019BB6B25E8362B600
:100E0800FFF78CFF00231F4A1E00944661469A0094
:100E180052580F211000884300690A40D0400E390B
:100E28000022084202D10A009A4012B21643013346
:100E3800B6B2102BEAD12868FFF781FF042C01D045
:100E4800FFF779FF009B1A880023B24202D0009B6B
:100E58001E8001231F43009B01340233E4B2043592
:100E68000093052CBAD13B0022000749034800F043
:100E78000FF8FFF703FD3800FEBDC046B40D002093
:100E880018510008D8500008BE0D00207047000017
:100E9800F8B505000E0017000E4C002B05D00123F5
:100EA800237002F027F90C4B18802378002B0BD005
:100EB800094B188802F023F9052805D900237F007B
:100EC800BB4202D100232370F8BDEA5AF252023322
:100ED800F6E7C046440C0020460C002010B5184B1D
:100EE8001A78D3070CD5174B1878052343439B086A
:100EF8007F20834203D87E38002B00D0D8B210BDA3
:100F0800930705D50F4B1878052343435B08EFE794
:100F18000523520703D50B4A10784343E8E70A4AEA
:100F28001278002AEAD009490648097800788A42E6
:100F3800F3D250435843FFF71DFA83B2D8E7C046AF
:100F4800520C0020020C0020530C0020030C00203F
:100F580010B5154B1A7801231A4207D0134B1B788A
:100F68009B080120002B0ED0D8B20CE0910703D5C6
:100F78000E4B1B785B08F4E7520705D50B4B1B7823
:100F88007F208342EDD910BD094A1278002AEBD0A0
:100F9800084B1978054B18788A4201D383B2EFE7DA
:100FA8005043FFF7E7F9F9E7520C0020060C002040
:100FB800540C0020070C002010B5ED2805D1FFF7D0
:100FC8008DFF4042274BD87010BDEE2802D1FFF7A5
:100FD80085FFF7E7EF2805D1FFF780FF4042214B57
:100FE8009870F1E7F02802D1FFF778FFF7E7F928C2
:100FF80004D1FFF7ADFF1B4B1871E5E7FA2803D1C1
:10100800FFF7A6FF4042F6E7FB2805D1FFF7A0FF50
:101018004042144B5871D7E7FC2802D1FFF798FFDC
:10102800F7E703000F33DBB2072B07D80123F138AA
:1010380083400C4A51780B435370C5E7FD2805D10E
:101048000123094A11780B431370BDE7FE2803D129
:10105800054A02231178F6E7FF28B5D1024A04238E
:101068001178F0E74C0C0020520C0020022210B539
:10107800364B9A56ED280AD1D9787F290DD9002107
:10108800D9708A420BD10021314A117007E0EE284D
:101098000ED1032159560029F1DC002A0ED01A7905
:1010A8005B7913435BB2002B01D12A4A137010BD40
:1010B800EF2808D1002AF0DA00229A7003229A5603
:1010C800002AECD1DFE7F02802D1002AF4DCE4E7BB
:1010D80004215956F92804D10029DEDD00211971AF
:1010E800DBE7FA2802D10029D7DAF7E705215956B4
:1010F800FB2804D10029D0DA00215971CDE7FC285A
:1011080002D10029F8DCC8E701000F31C9B207296C
:1011180007D80121F1388140080059788143597076
:10112800BBE7FD2805D101240B480178A1430170D4
:10113800B3E7FE2803D1084802240178F6E7FF2820
:10114800ABD1054804240178F0E7C0464C0C0020D8
:10115800530C0020540C0020520C002010B501F054
:10116800C9FF084B9A78D9780A4301D0064A1080FB
:101178001A7959790A4301D0044A1080180000F0FE
:1011880053FC10BD4C0C0020480C00204A0C0020D9
:10119800F0B55E4B85B01A78022702925A7803267A
:1011A8000392052204259A569E57DF575D570192F0
:1011B80000229A70DA701A715A713B0033439342D5
:1011C8000BD0534B188801F09AFF52490B78002B2B
:1011D80028D0514A127890422DDC019B2B430BD02A
:1011E8004E4B188801F08BFF4D490B78002B51D0DE
:1011F8004C4A1278904256DC444CE278A378134368
:10120800227913436279134301D0FFF7A7FF029BAA
:10121800A7702370039BE6706370019B257163714F
:1012280005B0F0BD404A14780A2262439042D4DDEA
:1012380001330B7001E0FF2BFAD1344C002F07D09B
:10124800FFF74CFE0123002F00DCFE334343A3705D
:10125800002E07D0FFF742FE0123002E00DCFE33EC
:101268004343E370022161560029B6D0032020567B
:101278000028B2D0B5235943091206D0A1704343C0
:10128800224A1B1204D0D370A7E70122A270F6E706
:101298000123F8E7254A14780A2262439042ABDD1D
:1012A80001330B7001E0FF2BFAD1184C002D07D049
:1012B800FFF74EFE0123002D00DCFE33434323716C
:1012C800019B002B08D0FFF743FE019A0123002A57
:1012D80000DCFE334343637104216156002900D1C9
:1012E8008AE705202056002800D185E7B523594311
:1012F800091206D021714343044A1B1204D05371CA
:101308007AE701222271F6E70123F8E74C0C002066
:10131800480C0020530C0020010C00204A0C00202F
:10132800540C0020050C0020000C0020040C0020A8
:1013380010B506220021054803F0B4FD0023044A35
:101348001370044A1370044A137010BD4C0C00202B
:10135800530C0020540C0020520C002010B500F053
:1013680043F9014810BDC046FF0F000010B50648FC
:1013780000F0F6F8054800F0F3F8054800F0F0F83A
:10138800044800F0EDF810BD00E0010800E801088D
:1013980000F0010800F801081C4BF7B50D00984251
:1013A80001D90020FEBD1A4A43009F1801933A88CC
:1013B800184B84129A4205D189B2380000F0F0F82F
:1013C80080B2EFE78022124B134EE402E4181201B8
:1013D8002100300003F05DFD3B789D42E1D00F48CD
:1013E800019B802703402000F55400F0B9F8002540
:1013F8003F01735D0A4919434B1C03D089B2601938
:1014080000F0CEF80235BD42F3D1D9E7FF0F000056
:1014180000E00108FFFF0000C80D0020FE070000E3
:1014280000FFFFFF034B80B24000C0180078C0B235
:101438007047C04600E0010810B580B2FFF7ACFF66
:1014480010BD0000064983B25B005B1801301A78B2
:1014580083B25B005B181878000210437047C046DF
:1014680000E0010870B50D0084B2C9B22000013453
:10147800FFF792FF290AA0B2FFF78EFF70BD10B5E3
:10148800FFF7F0FF10BD0000F7B51A4D80B243001A
:101498005B191B78471C861CBFB2B6B20193720059
:1014A8007B005B1952191B7812780C0094462900AE
:1014B800C51CADB26A00521861461B0209040B43F1
:1014C8001278019912060B431343A34210D0E1B2DC
:1014D800FFF762FF210AC9B23800FFF75DFF210C50
:1014E800C9B23000FFF758FF210E2800FFF754FF5C
:1014F800F7BDC04600E001080122094B1000D96879
:1015080011420CD1D9689018490708D4D9688018B5
:10151800C90604D4D8681040434258410430704783
:101528000020024037B50400FF25FFF7E5FF01283A
:1015380011D1002C01D105303EBD00230193019546
:10154800019B002B03D1FFF7D7FF013CEFE7019B7D
:10155800013B0193F4E7002CEED10620ECE70000F4
:1015680070B506000C48FFF7DDFF052813D10225EA
:101578000A4C094823692B43236140236661226989
:1015880013432361FFF7CEFF062802D02369AB433C
:1015980023613423E36070BDFF0F00000020024088
:1015A800F8B5F8231B06C2180D4B06000F000720DC
:1015B8009A4214D81830FFF7B5FF05280FD1012536
:1015C800084C1A3023692B4323613780FFF7AAFFA1
:1015D800062802D02369AB4323613423E360F8BDB6
:1015E800FEFF070000200240024B034A5A60034AEC
:1015F8005A6070470020024023016745AB89EFCD50
:10160800F8B5140082781D0006AB1F78274B002A16
:1016180011D01C7001F06EFD254B1880230020337B
:10162800DBB2072B06D8072301201C40A040C0B21C
:1016380000F0E1FBF8BD1E78A6422DD11C4B18889E
:1016480001F05DFDC72827D82C002034AE4215D004
:1016580033002033DBB2072B06D8072301201E40B6
:10166800B040C0B200F0CFFBE3B2072B06D8072387
:1016780001202B409840C0B200F0BDFB3800E4B216
:1016880000F0B1FB072CD5D8072301201D40A84046
:10169800C0B200F0B8FBCDE723002033DBB2072B44
:1016A800C8D8072301201C40A040F1E7550C0020B2
:1016B800560C0020234B13B5040008009C4221D08F
:1016C8000ED8214B9C4219D0204B9C4232D0204B43
:1016D8009C420CD126230093BB331A0021001BE047
:1016E8001C4B9C421CD012D31B4B9C421DD08078B3
:1016F800002824D00022194B1A7010E027230093E9
:10170800BE33EAE72623E0220093BB33E6E727232C
:10171800E42213490093BE33FFF772FF002016BD81
:101728002623E2220093BB33D8E72723E62200933F
:10173800BE33D3E72823E5220093273BCEE70120D9
:10174800EDE7C046F45C0000D95C0000DA5C0000FC
:10175800D85C0000F65C0000F75C0000550C002027
:10176800F55C0000F8B505008878002800D1DDE0B8
:101778006F4FBD4224D36F4EB54203D96E4BEB1861
:10178800082B1DD801F008FB6C4C6D4B20809D4246
:1017980000D198E02FD86B4B9D4200D176E017D846
:1017A800694B9D4200D165E00BD8BD425AD0674BCA
:1017B8009D425CD0208801F0FBFA00F049FD002032
:1017C800F8BD634B9D425ED057D9227820234BE069
:1017D800604B9D4267D007D85F4B9D425FD058D978
:1017E80001222378934340E05C4B9D4261D05DD950
:1017F80023781022F6E75A4B9D4241D01AD8594B0C
:101808009D4266D00BD8584B9D425FD0574B9D42A6
:10181800D0D100F01DFD7F222378134025E0B5428A
:101828005DD077D3524B9D42C4D1012362781343D4
:101838006370BFE7BA23DB019D424DD007D84D4BFB
:101848009D423DD038D9032362789A43EFE74A4B4B
:101858009D4269D051D3494B00209D42AAD101F045
:1018680019FBA7E70123227813432370A2E7227804
:101878000223F9E722780423F6E722780823F3E71E
:1018880062780223D3E722781023EDE722784023F9
:10189800EAE700F0DDFC802322785B42E4E70C23D2
:1018A80022789A43E0E7237802229BE723780422F0
:1018B80098E72378082295E7012263789343B7E7EE
:1018C80063780222FAE7237820228BE723784022E4
:1018D80088E723780C2285E763780322EEE7012165
:1018E800042023785A07D20F4A400A4091008343C4
:1018F8000B430821D2008B43B6E701216378DA074E
:10190800D20F4A400A408B431343510002229343AB
:101918000B438DE700F09CFC01222378D9094A404B
:101928007F21D2010B409FE7012098E7012047E77C
:10193800025C0000155C000005A3FFFFC81500202D
:10194800105C0000085C0000045C0000035C000000
:10195800065C00000C5C00000A5C00000E5C0000E5
:10196800FC5C0000135C0000115C0000125C0000CD
:10197800FB5C0000FE5C0000025D0000035D0000EF
:10198800124A10B501230C00904214D101F01AF943
:10199800A3780F4A002B10D0AA2303401900481E31
:1019A800814135201170002B00D10C3801F0D4F89A
:1019B80001F074F90023180010BD13783520002BAE
:1019C80000D10C3801F0D2F8F2E7C046165C0000EE
:1019D800580C0020014B18607047C0465C0C002072
:1019E800034B10B51B68181E01D01B68984710BD23
:1019F8005C0C0020094B10B51B68002B0DD0084A61
:101A08001278002A07D0074A12787F2A03D9027869
:101A18004270052202705B68984710BD5C0C00207C
:101A2800100C0020C8150020044B10B51B68002BB3
:101A380003D0022202709B68984710BD5C0C0020FE
:101A4800064B10B51A88824206D01880044B1B68D2
:101A5800002B01D0DB68984710BDC046620C0020FF
:101A68005C0C0020064B10B51A88824206D01880FC
:101A7800044B1B68002B01D01B69984710BDC0465A
:101A8800600C00205C0C002010B501F015FB024B27
:101A98001860024B186010BD640C0020680C002010
:101AA8007047704710B5FFF7FCFF10BD704710B5C1
:101AB800FFF7FCFF10BD000010B5044801F05AFB09
:101AC800FFF7EEFFFFF7EEFF10BDC0465D2D0008E3
:101AD8000120704710B5FFF7FBFF10BD7047704736
:101AE80010B501F0E5FAFFF737F901F05FFBFFF7F2
:101AF800DEFF10BDF0B589B0FFF7F0FFFFF7EFFF8D
:101B0800FFF766F9002801D0FFF7BEFF0026F3B201
:101B1800F0B20393FFF7F6F8730002932C4B7200B0
:101B2800D75A019087423FD002222A4B1B78134292
:101B380001D0FFF7EDF800250124019B5F40274203
:101B48002CD0FFF7C7FF002813D0039A04AB5A70B4
:101B58001D70019B23405A1E934104AA937001F003
:101B6800C9FA012304AA034393800498059900F055
:101B780035F8029A164B9B5A5C40154B9C52FFF75E
:101B880007FBFFF72DFF144C2378834204D0FFF79F
:101B980027FF2070FEF7C7FE09B0F0BD01356400CD
:101BA800EDB2A4B2102DCAD10136052EAFD1012352
:101BB80006AC5B4223800023A37001F09BFA01234B
:101BC8000343A3800698616800F008F8D7E7C04689
:101BD8006E0C0020230D00206C0C00201FB5030C98
:101BE800DBB200900191002B01D001F017F80E2212
:101BF80000216A441180009A02AB02926A469288D8
:101C08009A800098039900F0BBFD05B000BD10B59F
:101C1800008800F075FF10BD10B5041E13D082288F
:101C280012D1FFF7DDFE83070DD4392000F094FFB1
:101C380001F034F8FA20800002F08BF8392000F027
:101C480095FF01F02BF810BD83280ED1FFF7C8FED1
:101C5800C307F8D4532000F07FFF01F01FF8FA20E3
:101C6800800002F076F85320E9E784280ED1FFF7C8
:101C7800B7FE4307E7D4472000F06EFF01F00EF8E7
:101C8800FA20800002F065F84720D8E7031FDBB28E
:101C9800A02B0FD81C4B0100186801F01DF9002873
:101CA80004D0200000F062FF00F0F8FF200000F0F0
:101CB80053FFC6E703002033DBB2072B07D80723FF
:101CC80001201C40A040C0B200F082FFB9E7030029
:101CD8005B33DBB2022B04D80C4AD05CFFF7B0FEB2
:101CE800B1E703005833DBB2162B05D8084A5B006E
:101CF800985AFFF7B7FEA6E7EC28A4D9FFF75CF9D6
:101D0800FFF72CFA9FE7C046080C00202C5100086A
:101D18003051000810B500280FD082280ED1FFF7E7
:101D28005FFE830709D5392000F016FF00F0B6FFE3
:101D3800392000F01BFF00F0B1FF10BD83280AD145
:101D4800FFF74EFEC307F8D5532000F005FF00F05B
:101D5800A5FF5320EDE784280AD1FFF741FE43078A
:101D6800EBD5472000F0F8FE00F098FF4720E0E7A9
:101D7800031FDBB2A02BDCD903002033DBB2072B17
:101D880007D80723034001209840C0B200F028FF7D
:101D9800D1E703005B33DBB2022B03D80020FFF747
:101DA8004FFECAE703005833DBB2162B03D80020D6
:101DB800FFF758FEC1E7EC28BFD9FFF757F9FFF73F
:101DC800CDF9BAE770B505000C00FFF725FF002C28
:101DD80003D12800FFF79EFF70BD0A20013C01F0E7
:101DE800B8FFA4B2F3E710B55021392800D000217C
:101DF800FFF7E8FF10BD10B5002803D000F0E8FE9B
:101E080000F04CFF10BD10B5002803D000F0E8FE2C
:101E180000F044FF10BDF0B585B00C1C8679019028
:101E2800857800F0C5FE2304360902900393002844
:101E380018D00295002D15D00F2223041B0E9343B2
:101E4800402B06D0230000222033DBB20292072B5E
:101E580008D9022000F068FF00F0AAFE01234340E1
:101E6800DBB202932304180FFEF7F0F910001000FC
:101E780064006400B400C80041004100D30026019A
:101E8800370137019201410041009B010F222304D1
:101E980026051B0E360F934300D03601E4B2002D01
:101EA80014D0002E0BD023002033DBB23000072BD8
:101EB80001D9002C07D100F08BFE00F0EFFE2000C6
:101EC800FFF7AAFE13E000F099FEF6E72000FFF7FF
:101ED80021FF002E0BD023002033DBB23000072B6C
:101EE80001D9002C23D100F07BFE00F0D7FE039B24
:101EF8001B0F083B032B03D8FFF772FDFEF713FDFA
:101F0800029B002B11D000F04BFE012318400CD18E
:101F1800019B987000F03CFE00F046FD019800F02F
:101F280057F900F035FE00F04BFD05B0F0BD00F0AC
:101F38006DFEDAE70F22230427051B0E3F0F93439C
:101F4800202B00D03F01E4B2002C0ED0012C2BD066
:101F5800002D32D0002E2BD0019B9B79DA07AED50D
:101F68000F221340019A937122E0002D11D0002E08
:101F780006D100F06FFE3843C0B2FFF73CFFB6E76A
:101F8800012EF6D100F066FE3843C0B200F06EFEB6
:101F9800ADE7002E05D100F075FE3800FFF733FFDE
:101FA800A5E7012EA3D0F6E7002D03D0052E9ED875
:101FB8003800E2E7042E9AD8EFE7002EEDD0012092
:101FC800392C01D1C820800001F0C3FE2000FFF7A2
:101FD800A1FE8CE723059B0F09D0012B00D086E7D3
:101FE800281E01D0A005800DFFF73CFD7FE7281EC5
:101FF80001D0A005800DFFF723FD78E7E0B2002DA2
:1020080004D0FEF7D9FFFFF7A9F870E7FFF72EF81D
:10201800F9E723049B019B0F21D1002D00D066E72F
:1020280023065B0F20079B00000F9840E20602D5AD
:102038000F359D40ED432405A40F2843022C08D0FA
:102048000AD8012C02D000F07FFC50E700F072FCA7
:102058004DE700F083FC4AE700F067FC47E7A2057C
:10206800920FD1B20123002D1AD01340002B00D1BA
:102078003DE72206520F20079200000F90400023F0
:10208800E10602D50F339340DB432405A40F184320
:10209800022C0BD00DD8012C05D000F0B3FC26E79C
:1020A80049080B40E2E700F0A3FC20E700F0B4FC8D
:1020B8001DE700F063FC1AE7E6B22405240F002DA3
:1020C80004D0200000F070FC300056E73000FFF725
:1020D8009AFE200000F074FC09E7E7B23800F038F7
:1020E80004283ED8FEF79EF80311181D2700002D7E
:1020F80007D0042E00D9FAE6E004C00E00F06CFC0C
:10210800F5E6052E00D9F2E6F6E7E004C00E002D4C
:10211800E0D000F049FCEAE6E004C00E002DF8D05B
:10212800D8E7002D04D0E004C00E00F036FCDEE64F
:1021380000F02EFCDBE6002D09D0E404E40E2000BC
:1021480000F032FC0321200000F0D4FDCFE601208E
:1021580000F0EAFD012E00D8C9E6022000F0E4FDF7
:10216800C5E6002D06D0002E01D03800A8E6E00410
:10217800C00ECEE7002E08D00120392F01D1C8208B
:10218800800001F0E6FD380021E7E004C00EA1E779
:102198002205120FE1B20198FEF7CDFB00F060FBBB
:1021A800A5E62205120FE1B20198FEF7C6FB9EE6EE
:1021B80070B504008078218800F0ACFC051C00F0A4
:1021C80035FC00F0B1FB291C2000FFF724FE70BD90
:1021D80073B5868801AD040001000222280002F0D0
:1021E80058FE002E12D02A880C4B9A420ED020009E
:1021F800FEF758FB00280AD100F0DAFC002805D0C9
:10220800A378002B02D0022000F08EFD73BD2000C1
:10221800FFF7CEFF2000FEF71CFBF7E7FFFF0000EB
:1022280010B50020FFF70CFC0020FFF71BFC00F0A6
:10223800F5FC00F009FD00F031FDFFF779F8FEF735
:102248008DFF10BD10B500F09BFCFFF7E9FF10BD36
:1022580010B500F0CDFCFFF7F5FF10BD012110B55A
:102268000C000204120F944090221202C3B22240C2
:1022780018D10E48044203D1402020400DD110BD92
:102288000800F02BFBD004D8E721994252411000F6
:10229800F5E7F43B58425841F1E70800E72BEED93F
:1022A800F13BF7E7C00A0840E9E7C0460C0C00001C
:1022B80007B501AB1880019800F022FCFFF7CEFFAC
:1022C8000EBD82B002B0704782B002B07047000005
:1022D80070B507250B4B1C780B4B1B78A34200D11C
:1022E80070BD0A4BE200D15A9B1858889A8800049E
:1022F8000843D988013409041143FFF7E5FF2C404E
:10230800EAE7C046C30C0020C20C0020820C002063
:10231800064B10B558881A88D988000410439A8843
:1023280009041143FFF7D0FF10BDC0467A0C002006
:10233800F7B50F221F488379934336D18378002B52
:1023480033D01D4B01A91B781C4A12789A422CD015
:1023580082889446002A29D0047847780C704F70F8
:102368000A88174DAA4221D0164ADE0092195578DC
:10237800BD421BD1134D755DA54217D19478002C31
:1023880014D165469488641BA4B2C72C0ED80F24B8
:102398001021837923400B43837193792340194398
:1023A8009171FFF715FFFFF793FFF7BD0722013380
:1023B8001340C9E77A0C0020C30C0020C20C00208F
:1023C800FFFF0000820C0020F0B5040097B010ADAC
:1023D80001000622280002F05CFD2378B44F9C46D9
:1023E800A37839880193A38807910293BB88607802
:1023F800069309AB19803978069A04917978039184
:10240800002A00D1FBE01988AA4B994200D1F6E0D6
:10241800BE78002E00D1F2E0B9790F220B00934369
:102428000593069A029B9A1A92B2059BC72A00D96D
:102438009FE0002B55D1049B0AAA1370039B53708D
:10244800019B128803939B4B9A4218D0634668708D
:102458002B702A88079B9A4211D1019B002B00D030
:1024680054E10F33194001331943B971FFF750FF95
:102478003800FFF7ADFEBB79A37100262EE0029B62
:10248800002B00D046E1019B002BF6D00123884A9F
:1024980091790B439371F0E7DD0051194F7887422A
:1024A80005D1AD5C654502D189780029E5D10721C0
:1024B80001330B4041E1114201D0002B0DD02033F4
:1024C800DBB2072B09D92000FFF782FE039604E050
:1024D8001142F4D0A2798A43F1D1039E300017B09B
:1024E800F0BD049A0BAB1A70039A5A701B88714A94
:1024F800934215D0634668702B702B88079A9342D5
:102508000ED1019B002B0BD1A1712000FFF760FEBB
:1025180008222100380002F0BCFCFFF7F9FEDDE7D5
:10252800624610AB1A7058701098FFF7C1FE002869
:102538001BD0019B002B18D05D4A93791F2B09D91A
:1025480012A81288028000228270029A8371828007
:10255800FFF73EFE08222100554802F09AFCFFF7DB
:10256800E7FEFFF7D5FE0126B8E72000FFF730FEAB
:10257800F9E7002B14D1019B6870AB70029BAB800C
:1025880063462B7003CDFFF79CFE3800FFF720FE53
:1025980008220599380002F085FCFFF7B9FE6CE7C0
:1025A800049A0CAB1A70039A5A701B88414A9342DA
:1025B80013D0634668702B702B88079A93420CD10E
:1025C800019B002B09D1A1712000FFF701FE082211
:1025D8000199380002F066FC80E7624610AB1A7079
:1025E80058701098FFF764FE0028BED0019B002B9E
:1025F800BBD02F4A14A893791F2BABD9A1E72C4A3B
:102608000DAB12880592069A002A67D0049A1A70B0
:10261800039A5A701988274B99425FD0244A9678B2
:10262800002E5BD1029A0699521A92B2C72A43D851
:10263800019E002E99D004990EAA117003991C4F7F
:102648005170118810AA994221D0634650701370B6
:10265800138805998B421AD1BB79DA0711D40F2256
:10266800190091430DD01900A3719143F02900D1AD
:102678004BE70F211A09013212010B401343A371D2
:1026880043E708222100380002F003FC26E76346EE
:10269800507013701098FFF70BFE002800D059E710
:1026A8000123BA7920001343BB71FFF791FD15E7A9
:1026B8007A0C0020FFFF0000019A10AB9A70029A72
:1026C80058709A8062461A7010981199FFF7F9FDB0
:1026D80008223100254802F0E5FB1EE7019B002B8C
:1026E80000D142E7634668702B701098FFF7E0FD51
:1026F800061E00D139E708222100380002F0C9FB84
:102708003800FFF784FAFFF713FE06E7029B002B59
:1027180000D1BBE663460FAA137050701288144BA1
:102728009A4200D1AFE6019B002B00D0AEE6114AD9
:10273800114B12781B780192104A01998B4200D0F4
:10274800AAE6624610AB1A705870109800F0D8F9D3
:102758000204C3B2100F032800D9B4E60F21120EE9
:10276800FDF76AFDA9FEA9FEB6FEB6FE7A0C0020AA
:10277800FFFF0000C20C0020C30C0020820C0020C8
:10278800F0B587B06C46009020006160FFF71CFE32
:1027980004A9071E2D4D0DD02288A3880A80002B7E
:1027A80006D02B4B92B29A4202D003CCFFF78CFD95
:1027B800072743E00B00220041CA41C30888A288CA
:1027C80003AB1880002AF3D0214B82B29A42EFD093
:1027D800204B18780723441C1C402B789C420AD0B5
:1027E8001D4BC0001818082202F053FB194B1C702F
:1027F800FFF76EFDDCE7FFF72BFD164B08223900CB
:1028080016481F702F7002F04DFBD1E7124CC00024
:102818002018FFF7D9FD002815D02B78DB001A5BAC
:10282800E4186088E188A388000409041943104368
:10283800FFF74AFD2B7801333B402B70054B287876
:102848001B788342E2D107B0F0BDC046C30C00201C
:10285800FFFF0000C20C0020820C00207A0C002030
:10286800F8B500280BD0002607270378441C732BE3
:1028780006D8042B41D2012B0FD0022B22D0F8BD51
:10288800752B37D02CD31A007C32D2B26F2AF6D8E7
:102898007F201840FFF73EFA0DE0841C40780200C4
:1028A8002032D2B2072A29D838408340D8B200F063
:1028B800BBF900F0F3F93500013DEDB2FF2D20D151
:1028C8002000D2E7841C407803002033DBB2072BBA
:1028D800E0D8012338408340D8B200F0ADF9E8E7EA
:1028E8004578841C013DEDB2FF2DE4D00A2001F0AB
:1028F80030FAF7E7841C4678DDE71800FFF78CF913
:10290800D9E70A2001F025FAD6E7704710B5FFF796
:10291800FCFF10BD10B5FFF7F9FF024B1860FFF779
:102928007FFC10BDC40C0020704710B5FFF7F2FF04
:1029380010BD000010B5034B1B681843FFF7EAFFF2
:1029480010BDC046C40C002010B5034B1B681840CE
:10295800FFF7E0FF10BDC046C40C002010B5034BC4
:102968001B685840FFF7D6FF10BDC046C40C0020B6
:10297800704710B5FFF7FCFF10BD000010B5FFF75A
:10298800F8FF024B1860FFF74BFC10BDC80C002085
:1029980010B50020FFF7F2FF10BD0123834010B5EA
:1029A8001800FFF7EBFF10BD0123834010B5034A61
:1029B80010681843FFF7E2FF10BDC046C80C00209E
:1029C8000123834010B5034A10689843FFF7D6FFE8
:1029D80010BDC046C80C00200123834010B5034A2F
:1029E80010685840FFF7CAFF10BDC046C80C002049
:1029F80010B5034B1B681843FFF7C0FF10BDC04656
:102A0800C80C002010B5034B1B681840FFF7B6FF31
:102A180010BDC046C80C002010B5034B1B685840B9
:102A2800FFF7ACFF10BDC046C80C0020704700007F
:102A380073B50126030401AC021C2080180E07237D
:102A4800340000018018C0B203409C4005230022D6
:102A5800C0085843084BE4B218180B00D340057857
:102A680033405B426B4023406B40013203700130BE
:102A7800052AF2D173BDC046CC0C002037B501A998
:102A88000880072105240304021C180E0001801881
:102A98000022C0B20140C0086043074C0125241839
:102AA8001000A35CCB402B40934001321843C0B2C6
:102AB800052AF6D13EBDC046CC0C0020F7B51F2430
:102AC80001270D4B01AE1A680C4B30801B681A4366
:102AD8000092009BE5B2E3403B4204D1013CF8D2AE
:102AE80000252800FEBD31682800FDF73DFF80B2B3
:102AF8000128F3D0F5E7C046C80C0020C40C00201C
:102B080007B501AB18800198FFF7D8FF0199FDF7C9
:102B18002BFF0EBD37B50F4B01AC1B782180002B66
:102B280003D00198FFF7ECFF3EBD00280CD02068C9
:102B3800FFF7C4FF050001002068FFF779FF01993E
:102B48002800FDF711FFEFE72068FFF797FF050062
:102B5800F5E7C046780C002010B5034B0100186853
:102B680000F020FA10BDC046080C002010B5034B39
:102B78000100186800F02AFA10BDC046080C0020B1
:102B880010B5024B186800F035FA10BD080C00208B
:102B98000020024B1856C010C0B270471F0D00200D
:102BA800024B1878072318407047C0461F0D0020B5
:102BB800034B187807231840431E9841C0B270474A
:102BC8001F0D0020014B18787047C046210D0020CA
:102BD800024B1A78104318707047C046210D002028
:102BE800024A1378834313707047C046210D0020B2
:102BF8000022014B1A707047210D0020024B1A78F1
:102C0800104318707047C046220D0020024A1378FE
:102C1800834313707047C046220D00200022014BE9
:102C28001A707047220D0020024B1A781043187052
:102C38007047C0461E0D0020024A13788343137064
:102C48007047C0461E0D00200022014B1A707047C5
:102C58001E0D0020014B18787047C046200D00203B
:102C6800704710B5FFF7FCFF10BD000010B5044B0E
:102C78001A78824202D01870FFF7F3FF10BDC046E1
:102C8800200D002010B5044B1A78002A03D000202C
:102C98001870FFF7E6FF10BD200D002010B50D4B92
:102CA8000D4A1B7812780D4C13430D4A2068127890
:102CB80013430C4A03701278002A07D01343037099
:102CC80000F0EEF8002801D0FFF7DCFF2068FEF7DF
:102CD80091FE10BD210D0020220D0020080C0020BF
:102CE8001E0D0020200D0020704710B5FFF7FCFFD7
:102CF80010BD000010B5C300054C0B432370FFF74F
:102D080053FE00202056C010C0B2FFF7EEFF10BDE2
:102D18001F0D0020002010B5024B1870FFF7E5FFCB
:102D280010BDC0461F0D0020002310B5084AD35619
:102D38001900814348B21070420708D1DBB28342C0
:102D480005D0C010C0B2FFF73BFEFFF7E3FF10BD90
:102D58001F0D00200020704710B5FEF707FB024941
:102D68000020FEF78CFB10BDFFFF000010B500200F
:102D7800FEF768FB024BC01843425841C0B210BD71
:102D88001501FFFF10B50220FEF74CFB10BD10B572
:102D98000320FEF747FB10BD10B50420FEF742FBE9
:102DA80004002120FEF73EFB0002204380B210BD44
:102DB80010B50400C1B20420FEF73EFB210A212011
:102DC800FEF73AFB10BD10B501000F20FEF75CFBC3
:102DD80010BD10B501001320FEF756FB10BD10B54D
:102DE8000020FFF7F6FF10BD10B50020FFF7EBFF3E
:102DF800FFF7F5FF10BD000010B50024FEF7B6FA86
:102E080020490020FEF73BFB00210220FEF714FBBF
:102E180000210320FEF710FB1B4B210004201C603F
:102E2800FEF70AFB21002120FEF706FB2100052002
:102E3800FEF702FB21000620FEF7FEFAFF2107201D
:102E4800FEF7FAFA21000820FEF71EFB21000D20EC
:102E5800FEF7F2FA21001820FEF716FB21001720D2
:102E6800FEF7EAFA21001C20FEF70EFB21002020C5
:102E7800FEF7E2FA21001820FEF706FBFFF7B4FF81
:102E880010BDC046EBFE0000C40C002010B5FFF7D3
:102E9800B3FF10BD10B501000E20FEF7CDFA10BD2E
:102EA8000B4B1A780623002A04D00A4A12787F2A84
:102EB80000D91833821C0020013BDBB2FF2B00D164
:102EC80070471178002901D00130C0B20132F3E710
:102ED800100C0020C81500200B1E16D0124B1B78B2
:102EE800002B14D0114B1B787F2B10D9CA08002354
:102EF8001D2A0AD807331940063B8B401900801851
:102F080083780B40581E8341DBB218007047831C3E
:102F180008301A788A4204D001338342F9D1002359
:102F2800F3E70123F1E7C046100C0020C815002084
:102F380001220023F0B55242851CEC5C5EB28C4243
:102F48000BD0571C02D1002C00D132000133062BC4
:102F5800F3D1531C01D080188170F0BD002210B548
:102F6800831C08301C788C4200D11A7001338342CC
:102F7800F8D110BDCB081D2B07D8C018072319405E
:102F8800063B8B408278134383707047CB081D2B18
:102F980007D8C0180723012219408A408378934331
:102FA8008370704710B5074B1B78002B06D0064B73
:102FB8001B787F2B02D9FFF7DDFF10BDFFF7B8FFA5
:102FC800FBE7C046100C0020C815002010B5074BC1
:102FD8001B78002B06D0064B1B787F2B02D9FFF7F6
:102FE800D5FF10BDFFF7BAFFFBE7C046100C002065
:102FF800C815002010B5074B02301B78002B04D0F1
:10300800054B1E221B787F2B00D80622002101F0D9
:1030180049FF10BD100C0020C8150020704710B5DE
:10302800FFF7FCFF10BD10B50020FDF77CFCFFF793
:10303800F6FFAA2000F08DFE10BD7047704710B54E
:10304800FFF7FBFF0024FDF7C3FEFFF7F7FF2000A3
:10305800FDF758FE002804D10134E4B2052CF6D15E
:1030680010BD0120FCE7704710B5FFF7FCFF10BD4D
:1030780010B5FFF7BDFDFFF7D1FDFFF781FDFEF7A6
:1030880057F90020FEF7DCFC0020FEF7EBFCFEF70A
:10309800A7FCFDF748FCFFF7E7FF10BD10B572B6B7
:1030A80000F0C5FE62B6014B186010BD240D00206B
:1030B80010B5FFF7F3FF10BD10B572B600F0B7FEFC
:1030C80062B6FA22084B92001B680021C01A00233E
:1030D800FDF75CFA0023054A80185941044A002389
:1030E800FDF734FA10BDC046240D00200F2700005C
:1030F8001027000010B5FFF7DFFF80B210BD10B534
:103108000400FFF7D9FF001B80B210BD054B064A2B
:103118001A60BFF34F8F054B054ADA60BFF34F8F34
:10312800C046FDE7FC3F0020EFBEADDE00ED00E04D
:103138000400FA050A4B0B4A043B196810B5914282
:103148000CD100221A6082F31488074B1B6883F3A2
:10315800088862B6054B1B689847FEE710BDC04655
:1031680000400020EFBEADDE00C8FF1F04C8FF1FEF
:1031780000207047014B18607047C0460C0C0020B7
:1031880010B5FFF7E9FD10BD10B5FDF721FE64206D
:1031980000F0DFFDFDF71CFE0020FDF7B3FDC307BF
:1031A80003D5FFF7EDFFFFF7B1FF10BD10B5FFF72F
:1031B800DDFD002801D1FFF769FEFFF7E3FD074BAE
:1031C8001870FFF7E9FD064B1880FFF7E0FDFFF7E1
:1031D800ACFB044B1868FFF7CCFB10BD230D002097
:1031E800C8150020C80C002070B50F4C7546238800
:1031F80001339BB22380DBB2002B02D10220FDF702
:1032080092FB637809499B082278CB5C9A4202D1E9
:103218000020FDF788FB0121054A280013698B432C
:10322800136100F0CBFD70BD280D00205E51000831
:103238000020004080220E4B5200D96910B511437E
:10324800D961D969196913200A431A611A690949A8
:103258000A401A611B69084A084B9A620322DA621B
:10326800D968023A0A43DA60022101F021F910BD57
:1032780000100240FFFEFFFFDD02000000200040BA
:103288000522014B1A607047002000400022014BC4
:103298001A607047002000400F2230B507490C78AB
:1032A800631C1340064A157800229D4203D0054A44
:1032B8000B7010550122100030BDC046DA150020F1
:1032C800DB150020CA15002072B662B67047704739
:1032D80070B50D002D0200212800074C1043261D53
:1032E80061603200190000F0ADFA206060680028C3
:1032F80000D0200070BDC0462C0D00207A30084A4E
:1033080001781378022907D102318B43012B02D1AE
:103318005278044B1A707047024A1370FBE7C04694
:10332800820D0020600D002070B505000C000429F6
:103338000FD005290DD002290AD172B6074A0121FA
:1033480000F0DBFD064A2100280000F0D6FD62B639
:1033580070BD2000FFF7A0FFFAE7C046A0510008A3
:10336800C451000870B5084C0500E3680E00002B36
:1033780002D0200000F058FB33002900034A200047
:1033880000F0FEFA70BDC0464C0D002099330008CD
:1033980070B5040072B60378042B01D062B670BD14
:1033A800134B1B78DB09F9D1124D2B78002BF5D084
:1033B800114B1B78002BF1D003899B0704D40823F9
:1033C8000E4A012100F0EFFD28780D4A0023002164
:1033D800FDF7DCF800230B4A80185941FA22002334
:1033E8009200FDF7B3F821008000FFF7BBFFD5E797
:1033F800C8150020480D0020100C0020610D002089
:1034080010270000E7030000020070B5743211783D
:1034180004000B007F200340212B00D07EE0814375
:103428002AD0802900D079E0230075331878022843
:103438001CD0032810D0012800D06FE003331B787C
:10344800002B05D1454AA2662022E266236770BD9B
:103458000023A366E366F9E7230078331B88002B73
:103468005CD101203E4AE066A266EFE701203D4BB1
:10347800E066A3660023E9E7230075331B780A2B6F
:1034880042D00B2B0ED0092B48D1230078331B7860
:10349800012B43D8344BA3660223E366334B2367DF
:1034A8000120D4E7230078331B88002B28D1230080
:1034B800763319782E4D0A00531E9A41D3B2284A02
:1034C80013702A78DB01024013432B70002917D1AF
:1034D800244B1A78002A13D072B6264A187800238B
:1034E800FDF754F80023244A80185941FA22002392
:1034F8009200FDF72BF821008000FFF733FF62B63A
:103508000023A366E366CAE72300194977331A78CC
:103518000978144BC9091A70F2D1DBE7174B1288E6
:103528009A4201D0002092E7230079331A78013BB0
:103538001B7812021343210022006068763277312B
:103548004568127809782000A8470028EAD043681F
:10355800A3660368E3660023A1E7C046610D002067
:10356800100C0020480D0020820D002005330008B3
:10357800C815002010270000E7030000810600009E
:103588007047000010B510220021044801F08AFCA1
:103598000023034A1370034A137010BDCA15002094
:1035A800DA150020DB150020F8B50F2401250021CD
:1035B800104B114A1878114F1378984207D10029F7
:1035C80000D01070F8BD1370FFF75AFEEFE7FE5CED
:1035D80001332340042EF6D02900052EEDD11370B7
:1035E800FFF746FDFFF752FEFEF7FAF9FDF79BF9E4
:1035F800DDE7C046DA150020DB150020CA150020DB
:1036080070B505000A4C0B4AA36D0B481340A3651F
:1036180000F09FFB2800094900F034FC8023A26DCC
:103628001B0213430022A365054BDA6070BDC04638
:10363800005C0040FF7FFFFF983A0000E851000857
:103648004C0D002070B50500084C00F02EFCA36D51
:10365800074A28001340A365064900F013FC80239D
:10366800A26D1B021343A36570BDC046005C0040F9
:10367800FF7FFFFFE8510008014B18787047C046EC
:10368800600D002070B5050072B61C4C2278042A23
:1036980020D11B49238909787F291DD9194909781F
:1036A800002919D013420BD120232A00022120001F
:1036B80000F079FC20222900134801F0EAFB09E018
:1036C80001216369494258690C3000F04BFB2378AB
:1036D800042BE9D062B670BD9B0703D408232A00E7
:1036E8000121E4E701212369494258690C3000F0BF
:1036F80039FB2378042BEDD1F0E7C04624170020CE
:10370800C8150020100C0020610D002070B50500C0
:1037180072B60C4C2378042B01D062B670BD228996
:103728001A4207D06369642158690C3000F01AFB0B
:10373800431CF2D006232A000221200000F033FCAB
:10374800EBE7C0462417002037B572B6084C23783B
:10375800042B01D062B637BD694603234871000ABD
:1037680001AA887102212000137000F01CFCF1E707
:103778002417002013B572B6084C2378042B01D007
:1037880062B613BD01AA13706B465871000A98718E
:1037980002210323200000F006FCF1E72417002093
:1037A80010B5FFF7C7FC10BD7047704710B5FFF79D
:1037B800F7FF01F027FBFFF7F7FF10BD10B501F089
:1037C80067FBFFF7F2FF10BD10B500F00FFB00F02C
:1037D800A5F8FDF7C3FDFEF76FF9FFF7D3FE174C09
:1037E8002000FFF70DFFFA20400000F0B2FAFEF7C4
:1037F80077F91348FEF7EEF8FFF71CFDFFF7D4FE44
:103808002378052B12D0FEF775F9FEF767F9FEF756
:1038180066F9F3E7FFF707FCFFF711FC002805D06E
:10382800200000F0D3FB2000FFF70CFF2378052BC6
:10383800F0D0FFF733FAFDF791FCE4E724170020F6
:10384800140C0020030A032B12D006D8012B21D018
:10385800022B22D00020030012E0212B12D0222BB1
:10386800F8D1002920D00129F4D1B620104B07E067
:10387800C0B20228EED80F4B8100CB580E49085C25
:103888001360704700290BD00129E3D10B4B0920A5
:103898002B33F5E712200A4BF2E73B20074BEFE703
:1038A800064B09201233EBE74020064BE8E7C046F9
:1038B800BC520008F85100080452000807520008DA
:1038C8004252000854520008024B034A1A60034A45
:1038D8005A607047DC150020B01700200040002017
:1038E80070477047FEE7000070B508210024094BB7
:1038F80018685A689D68954207D8D868904207D8D2
:10390800013910330029F3D170BD40C840C2F2E735
:1039180010C2F3E77453000830BFFDE710B500F09C
:10392800F5F800F01FF8FFF7CFFF80220749084895
:1039380000F0B4F9074B98610123037700F034FADB
:1039480062B6054800F0D8F910BDC0461254000808
:10395800E8160020B8160020F453000810B500F04F
:103968009BF810BD044B054ADA611A6201225242E3
:103978005A6200229A627047B8160020D4160020B6
:10398800F7B50361C2600C00050000F050FA022C84
:1039980000D20224224E234AF369934209D1B0622D
:1039A800F561356200192B606B60AC6000F02EFA8F
:1039B800F7BDB76AC21B1419A24226D900218C464A
:1039C800996801918A421AD8B918B16215498B428F
:1039D80002D001998A1A9A60381A2418F3699A68E9
:1039E800A24219D35A682B606A6015605D60AC60AA
:1039F8009A68141B9C6001235B427362D8E70199A3
:103A0800521A614699601B68DAE79B689C42E5D2C6
:103A1800381900F008FAE1E7A41A1B68DFE7C04686
:103A2800B8160020D416002070B5194D0368EA694D
:103A3800184982420CD04268136003685A60002219
:103A4800C2608B4203D0826899688A189A6070BDF8
:103A58000020EB615960D0608B4202D100F0DEF9A2
:103A6800F5E799689268AC6A8A189A6000F0DFF9FD
:103A7800EB69021B9B689342E9D9E418241A012CCC
:103A880000D8931CA86A181800F0CDF9DFE7C046E3
:103A9800B8160020D4160020F7B51A4DEC6900F0CE
:103AA800C6F9AB6AA268C61A174FB24219D8A268FB
:103AB800AB6AB61A9B18E268AB62019200222368CF
:103AC8005F60EB61E260BB4201D100F0A7F962B62A
:103AD8002069019B984772B6EC69A368B342E6D99E
:103AE800DDE7EA69BA420BD09168A8625B181B1A35
:103AF8009360A368022B00D20223181800F093F9F0
:103B0800F7BDC046B8160020D41600200022034B8B
:103B18001B605B609A601B615B617047B816002090
:103B28004268036813605A60704703681A68026045
:103B380018007047002382680377054B1B68996853
:103B48009142FBD25A680360426010605860704727
:103B5800B816002010B5040072B6007F052807D8F3
:103B6800FCF760FB0C060603120E0022236A1A609B
:103B780001235B4223622000FFF7DCFF62B610BD21
:103B8800226A9368013393602000FFF7C9FFEFE7CB
:103B9800002382680377054B1B6899689142FBD81C
:103BA8005A6803604260106058607047B816002079
:103BB800064B10B5996908771868026853601A604F
:103BC800986101230377FCF70BFB10BDB8160020A2
:103BD80030B5050087B00C4C4B1C11D0A3690B4ABB
:103BE80001A8FFF7CDFE2800FFF7E2FF049B002B9A
:103BF80002D001A8FFF718FFA369186A07B030BD03
:103C0800FFF7D6FFF8E7C046B81600205D3B00086E
:103C180070B504000A4DA368A869216282689342BE
:103C280003D82000FFF786FF70BDFFF7B1FF01231F
:103C3800010023772000AC61FCF7D2FAF4E7C04614
:103C4800B8160020044B9A69196890688B689842E6
:103C5800804140427047C046B816002010B5084C55
:103C68002368A0691A685460226001221A77A36148
:103C7800FFF78EFF0100A069FCF7B2FA10BDC0463D
:103C8800B816002010B5FFF7DDFF002801D0FFF7B8
:103C9800E5FF10BD10B5FFF7E1FF10BD002343633A
:103CA800036302338383013B8377084B826082631B
:103CB8005A690361426181611061586103002433CC
:103CC800436204338362C3627047C046B81600205B
:103CD8008368010018000A69643B403810B5C36066
:103CE8001A614A695A61034A1A62CA680968FFF781
:103CF800D5FF10BD0902000810B572B6FFF7E8FF3E
:103D080000210400FFF784FF62B6200010BD000008
:103D18000C4B10B59C6920622000636A24309842DD
:103D28000AD1A37F002B03D16269236913615A6109
:103D38000F20FFF73DFF10BDFFF7F7FEFFF7FAFE74
:103D4800EAE7C046B816002010B572B6FFF7E0FFE4
:103D580010BD10B5010072B60820FFF739FF62B632
:103D680010BD0000064B10B59B69002905D0036003
:103D780018620320FFF72CFF10BD01204042FBE72B
:103D8800B8160020036810B5002B05D00022026089
:103D980019621800FFF7CEFE10BDEFF30983203338
:103DA80083F3098862B67047024A0349136A0B40D5
:103DB8001362704700ED00E0FFFF00FF10B50F3001
:103DC8000FD072B6EFF30984203C84F3098880236E
:103DD8005B04E361FFF736FF024B002800D1024B7A
:103DE800A36110BD170200081A02000810B500F000
:103DF800A7FB00F043FC00F032F8FFF7DFFC00F00F
:103E080001F810BD10B500F0ABFC10BD80230022F6
:103E1800DB0558631A610232DA607047802300229A
:103E2800DB05DA6070478023DB0558637047802321
:103E3800DB05586A70470200030010B504007632AB
:103E480012787E331A7000F01DFE63681B68002B21
:103E580002D00121200098470323237010BD10B51C
:103E680000F0ECFD10BD01230200037001000023E7
:103E78002C32436048311360D36104328A42FAD14C
:103E88008360704710B5040072B600234160C360B8
:103E9800036143618361C36103624362836200F02B
:103EA80093FE0223237062B610BD70B5040072B68B
:103EB80000F0CCFD00232500022663600133237047
:103EC8000C352C3476422B68002B0ED0586900280C
:103ED80003D00C303100FFF755FF2B689869002894
:103EE80003D00C303100FFF74DFF002308C5A54271
:103EF800E9D1FFF7C7FE62B670BD8B1C9B0070B599
:103F0800C318050050690E0014005A60002803D039
:103F18001422002100F0C6FFA069002803D0142253
:103F2800002100F0BFFF3100280000F0B5FD70BD92
:103F3800F8B5050007000226040082680F4B10350B
:103F4800134083602C3776422B68002B0ED05869BB
:103F5800002803D00C303100FFF714FF2B68986954
:103F6800002803D00C303100FFF70CFF002308C5F0
:103F7800BD42E9D1200000F049FEF8BD0100010072
:103F880070B501258D4044892C4344818C1CA400C4
:103F980004196468A46923600023A2606360E36075
:103FA80000F082FE70BD70B501258D4004892C4358
:103FB80004818C1CA40004196468646923600023CC
:103FC800A2606360E36000F095FE70BD037870B591
:103FD800052B0AD11025054C1420236C2B43236490
:103FE800FFF7B7FE236CAB43236470BD005C004051
:103FF8000223F7B503700023C3678360030005003D
:10400800022704002C330C3501937F422B68002BC8
:1040180011D072B62B685869002803D00C303900CB
:10402800FFF7B0FE2B689869002803D00C303900E0
:10403800FFF7A8FE62B60026019B40C59D42E5D168
:10404800230064331E70200000F0A0FD63681B6825
:10405800B34202D0310020009847F7BD0300027830
:10406800803370B51A7005230370436804001B6819
:10407800002B01D004219847250000230226A360C5
:104088000C352C3476422B68002B11D072B62B6875
:104098005869002803D00C303100FFF773FE2B68F5
:1040A8009869002803D00C303100FFF76BFE62B628
:1040B8000435A542E7D170BD030010B580331B78E5
:1040C800037043681B68002B01D00521984710BD79
:1040D800F7B50600643633780400002B01D00023BE
:1040E8003370270074373A002000019700F0C6FDAE
:1040F80063689B68002B16D16025019B1A781540D0
:1041080033D00021200000F02DFE0021200000F017
:1041180015FE63681B68002B02D006212000984713
:1041280006233370F7BD200098470028E4D0230009
:104138007B331A78013B1B7812021343E26E9A42D2
:1041480000D9E366019BE16E1B787F2B00D805E15F
:10415800002900D1F8E00923337072B60021E36E1C
:10416800A26E2000FFF71FFFF6E023007F217533C2
:104178001B780A401B021343804A934200D1CDE0CA
:1041880029D8022B00D19CE009D8002B43D0012B61
:10419800B7D17B4BA3660223E366002340E081226C
:1041A8005200934200D1A3E0FF32FF32934239D04C
:1041B800802252009342A4D1230076331B78012B2E
:1041C8009FD1220002217C3213888B431380A5667D
:1041D800E5662567ABE76B4A93420BD8013A9342F1
:1041E8002CD2013AFF3A934200D08AE7A566E566E9
:1041F800654B15E09022120193423AD0634A9342EC
:10420800C7D080221201934200D07AE723007F337F
:10421800A36601232BE022007C32A2660222E2661A
:10422800236784E7230076331B78012B00D068E7E7
:1042380022007C32118801330B43C7E72300220098
:1042480079331B78783212781B021343210022003D
:104258006068763240687731070012780978200064
:10426800B847002800D14CE74368A3660368E366B3
:10427800AFE72378042B0FD172B62000FFF758FE62
:1042880062B6230003217F331D70636821701B68A9
:10429800002B01D020009847230076331B78002B91
:1042A8000BD022007F3213700423237063681B68CD
:1042B800002B02D00221200098470023A366E36662
:1042C800AEE723000F2178331B78200019405BB23A
:1042D800002B0ADA00F0C2FC012804D0022800D022
:1042E8000FE72B4B56E72B4B54E700F0A3FCF3E703
:1042F800230076331B78002B00D002E723000F2120
:1043080078331B781940D8D05BB22000002B02DA32
:1043180000F050FDD1E700F037FDCEE723007633FB
:104328001B78002B00D0ECE623000F2178331B7894
:104338001940C2D05BB22000002B02DA00F012FD57
:10434800BBE700F0FBFCB8E71423337072B60B0030
:104358000A002000FFF714FE62B6E3E6002906D043
:104368001523337072B60021E36EA26EF1E70B23BA
:10437800337072B60B000A00F3E6C0460203000071
:104388002C540008010600003F3E0008020C000003
:10439800285400082A54000870B505006435040044
:1043A8002878152830D8FBF73DFF372F2F2F2F2FD0
:1043B800372F2F0B25302F2F2F2F2F2F2F2F37371A
:1043C80023007B331A78013B1B78E06E12021343FB
:1043D80098420FD2E368198AFBF7C8FF002909D170
:1043E80072B60B000A002000FFF7DDFD62B60A2353
:1043F8002B7009E014232B7072B6002320001A00DA
:104408001900FFF7BDFD62B670BD236F002B01D008
:10441800200098470023EBE70021200000F0A2FCD1
:104428000021200000F08AFC63681B68002B02D082
:104438000621200098470623DAE7000070B505003A
:1044480064352A780400152A12D801239340174AA4
:1044580013421AD18021490319400AD19B0207D57A
:104468000B232B7072B60B000A00FFF79CFD62B697
:1044780070BDC3689B695B68002BF9D1036F002B83
:1044880000D0984700232B70F2E7002100F06AFC67
:104498000021200000F052FC63681B68002B02D04A
:1044A8000621200098470623EDE7C046410E00008C
:1044B8000322F0B5FF26C0250240D20096408901AC
:1044C80091400A4F83089B00DB19AD005C591F22FD
:1044D800B4430C435C51012302409340C02240097D
:1044E8008000C019520083500360F0BD00E100E075
:1044F8001F21012201408A404309094920339B00BA
:1045080010B55A5083089B005B1803210840884067
:10451800C024FC318140A4001A598A431A5110BDA5
:1045280000E100E010B503210520FFF7C1FF0321DA
:104538000620FFF7BDFF03210720FFF7B9FF10BDD5
:10454800224B234A996A10B50A43FC219A629A6A57
:10455800C9030A409A629A6A1A69012200215242E2
:104568001A611A6919611A69D8681A4A02438020BF
:10457800DA60DA68C0030240DA60DA688022D86953
:1045880052050243DA61DA6980221348520004684E
:1045980022430260C0201A6A800002400138FF38B6
:1045A800824203D0802252021A6219628022196A5A
:1045B8001202114207D18021186A89000143196249
:1045C800196A0A431A62FFF7ADFF10BD00100240D6
:1045D800FFFF81FFFFFFBFFF007000400122254B56
:1045E80019680A431A60022219681142FCD0032193
:1045F8005A688A435A6009315A680A40FCD1F9203E
:104608001968014019605A60596B01320A435A63AC
:104618000222596B1142FCD00122596A0A435A629C
:104628000222596A1142FCD0A02100228903DA62D1
:1046380059601A638022196852040A431A6080225A
:10464800920419681142FCD011210B4A11601039EB
:1046580010680842FCD0022259680A430C215A60AB
:104668005A680A40082AFBD19969073A0A439A61AD
:104678009B69704700100240002002407047F0B567
:1046880003231400012689B01C4003949408344085
:104698000094D4081C4001940F245509D2092240E3
:1046A800059200221D40039F0295049606930794E5
:1046B800049B19422BD00726059B1640B600B34031
:1046C800049C9C4694404368069DA343009C234356
:1046D8005400A540EC4343608368019D23402B436D
:1046E8008360C368029D23402B43C360079B039DDF
:1046F800B340DB43022D1ED1072A16D86546066A49
:1047080033402B430362036823403B43036049085B
:1047180023D0009BBF005B000093019B01329B00EC
:104728000193029B9B000293C2E76546466A3340A9
:104738002B434362E7E7066834403C430460072A9A
:1047480005D8046A2340644623430362DFE7446ACA
:104758002340644623434362D9E709B0F0BD000013
:1047680001220E4B10B5D9690F201143D9610C49AC
:10477800DB698B6813438B6080230A49DB059962E8
:1047880001214942D962002199615963D960596070
:104798005A6102311A60FFF78BFE10BD001002400B
:1047A80000580140BF1200008022D2051369D16869
:1047B80010B50B40D9B2C94311619B0703D572B636
:1047C800FFF7CCF862B610BD10B57446FFF7ECFFE2
:1047D8002000FFF7F3FA10BD0B4B30B51B6D0B4CE7
:1047E800C0001B19C018038889181B1994B244808B
:1047F8008C1A002A00DC30BD607825780002284336
:104808001880023A0233F3E7005C00400060004081
:104818007346F0B57E4C87B0656C05936B0504D57F
:104828007C4B7D486364FFF7E3FB2B0508D5082321
:10483800226C794813432364784B6364FFF70EFCBA
:10484800EB040BD5A36C1B0406D40822236C724816
:1048580093432364FFF730FC714B6364AB0507D5C2
:104868006D484368DB68002B00D098476D4B636444
:1048780080231B021D4204D10598FFF79FFA07B059
:10488800F0BD0F27624B2F40BD00ED182B68624E1C
:104898000293BB1C9B00F3185B680193029B1B06E9
:1048A80023D52A686049019B0A4080215B69090277
:1048B8000A432A6019695A6888181A685860101AD1
:1048C8002DD0019A128A824200D9020098681A6192
:1048D80041189960F8B2FFF77FFF2A68534B1A40D6
:1048E80030235A40524B13432B608022029B120202
:1048F800134212D02B684C4A1A40802313432B6072
:10490800FBB20493029B1B0521D54348BB1C9B00AB
:10491800C3185B6804995B689847656CA8E701222F
:10492800BA40338993433381019B9B68002B02D0A3
:10493800F9B23000984772B6BB1C9B00F618736832
:10494800002158690C30FFF71DFA62B6CDE7019BCC
:1049580038489A69F90093680293236D1B185B180D
:10496800998809180391DB888C469B059B0D1900D3
:104978000298012938D858080399029E400009185E
:104988003618834201D0098831709168C91891603E
:104998005168C91851601168C91A1160118A013922
:1049A80089B21182019A528A9A4201D8002925D1E6
:1049B8000122BA40184DBE1C6B8993436B81B3002A
:1049C800EB185B68DB68002B02D004992800984735
:1049D80072B6B600AD196B689B69180059680C303F
:1049E800FFF7D0F962B698E766463688023906704E
:1049F800360A467002260230B444BAE72A680E4BDB
:104A08001A40C0239B015A40094B13432B6084E78B
:104A1800005C0040FFFBFFFF24170020FFF7FFFFAB
:104A2800FFEFFFFFFFFDFFFF0F07FFFFBF87FFFF40
:104A380080800000006000408FB7FFFF10B502487B
:104A4800FFF711FA10BDC04624170020037810B5EF
:104A5800012B0ED0074B98420BD11F20FFF748FDC2
:104A68000322054B05491A64054BDA690A40DA61E5
:104A7800DB6910BD24170020005C0040FFFF7FFFAA
:104A88000010024080227E3003781343014AD36429
:104A98007047C046005C0040F7B503228B1C9B00A2
:104AA800C3185C6823681A4004D00023022A03D97B
:104AB800032A55D080239B002E4A2F4E126DCD001D
:104AC8009219AD186269002A13D00700002208372E
:104AD8006A80FA6F0192228A0132160001229643F7
:104AE8003200019E9219FA676A46968820222E8023
:104AF8001343A269002A18D0648A661E3E2C32D954
:104B08001F2232430132521196021C4A32430126B7
:104B180092B20830EA800134C26FB443A41892B24A
:104B2800C467AA8080229201134312488A0012188F
:104B380080201468C001044200D003434020146858
:104B4800044200D003430E48194301400D480E4C5F
:104B580001431160116823404B4003431360F7BDC4
:104B6800C023DB00A8E7012232430132521092022F
:104B7800CDE7C046005C0040006000400080FFFFB9
:104B88000F07FFFF8080000070780000002180235D
:104B98000B4A10B511655164D3644368DB685C4205
:104BA80063419E245B4224025B021B1913640300C9
:104BB80040220833DA67034BC360FFF76DFF10BD6F
:104BC800005C004030540008017870B504000129E9
:104BD80014D10B4B98420ED180220A4B1204D8698B
:104BE800094D0243DA61DB691F2029640231FFF7AE
:104BF8005FFC00232B642000FFF7C8FF70BDC04690
:104C08002417002000100240005C004040230122CD
:104C18000830C3670548064993005B1819680132D4
:104C2800014319601860082AF5D170478080000098
:104C3800005C0040C020074B8900CB58800103402E
:104C4800181E05D0044A9B181800431E98410130CD
:104C58007047C046005C004000F0FFFF064B89002B
:104C6800C85830230340181E04D0103B1800431EB8
:104C7800984101307047C046005C0040084B094825
:104C88001B6DC9001B18C9188B8811001B18083127
:104C980018880233108002329142F9D17047C04619
:104CA800005C0040006000408B1C9B00C0184268FC
:104CB80070B595690C0028680123002805D0518A31
:104CC80040180138FBF7CCFA83B22B82064BA400BC
:104CD800E4182268054B1A40C0239B015A40044B34
:104CE8001343236070BDC046005C00408FB7FFFFD0
:104CF800808000008B1C9B0010B5C01842680C0017
:104D08005369128A19688A4200D90A001A61996897
:104D18002000FFF761FD064BA400E4182268054B4C
:104D28001A4030235A40044B1343236010BDC04639
:104D3800005C0040BF87FFFF80800000064B8900B1
:104D4800C9180A68054B1A4080235B015A40044B76
:104D580013430B607047C046005C00408FB7FFFFED
:104D680080800000054B8900C9180A68044B1A4066
:104D780010235A40034B13430B607047005C0040FC
:104D8800BF87FFFF80800000C022074B8900C91839
:104D98000B6892011340934205D00B68034A1A40EE
:104DA800034B13430B607047005C0040BF87FFFF55
:104DB80080A000003022084B8900C9180B681340F6
:104DC800934207D00A68054B1A4020235A40044BE7
:104DD80013430B607047C046005C0040BF87FFFF6D
:104DE800808000004B6843608B688360CB68C36039
:104DF8000B6943614B6903628B6943620B6803600B
:104E080070470000FC22154BD203996A10B5114374
:104E18009962996A1248014090209962996A596981
:104E2800C0050A435A610F495B69FFF7DBFF0E496A
:104E38000E48FFF7D7FF0E490E48FFF7D3FF0E497C
:104E48000E48FFF7CFFF0E490E48FFF7CBFF0E497C
:104E58000E48FFF7C7FFFFF7C1FB10BD0010024067
:104E6800FFFF81FF545400087054000800040048F4
:104E78008C54000800080048A8540008000C00489A
:104E8800C454000800100048E0540008001400480A
:104E98007047002310B59A4200D110BDCC5CC454B1
:104EA8000133F8E703001218934200D170471970D4
:044EB8000133F9E7E2
:044EBC00F8B5C0463F
:044EC000F8B5C0463B
:104EC40035001E001F0020002100220023002400C2
:104ED4002500260027002D002E002A0000002900AE
:104EE4002B0014001A000800150017001C001800FD
:104EF4000C00120013002F00300031000000A90044
:104F0400296104001600070009000A000B000D00C7
:104F14000E000F0033423400000028000000AA00F5
:104F2400E10000001D001B0006001900050011002F
:104F34001000360037003800E5005200000001512F
:104F4400E000E200E30000000000000000002C008C
:104F5400000000000000E6005000510000004F0077
:104F6400005C3A003B003C003D003E003F00400036
:104F7400410042004300440045004C000000010091
:104F84000100010001000100010001000100010015
:104F940001000100010001000100010000006A009D
:104FA40001000100C85C010001000100C65C0100B1
:104FB40001000100010001000000C35C0000690061
:104FC40039000000010001000100CA5C0100010079
:104FD40001000100010001000100010000000100C6
:104FE4000100010001000000000000000000AE000C
:104FF400000000000000C45CAC00A8000000AB008E
:1050040001000100010001004D0001000100010048
:10501400010001004A00010001000100000001003C
:1050240001000100010001000100010001004B002A
:105034000100010001000100010001000000010065
:105044000100010001004E004E000100500051001B
:1050540052004F00010001000000010000000100A7
:105064000100000001004C00010001004B000100A0
:105074000100010001000100010001000000010025
:105084000100010001000000000000000000010018
:105094000000000000000100010001000000010008
:1050A40081828300E200E900EA00B500B600B7009F
:1050B400CD008301CC008A019201940121022302D4
:1050C40024022502260227022A02B300B4006F003C
:1050D4007000000001040048000400480700004874
:1050E4000E040048080000480F040048000000486F
:1050F4000F0800480E0800480D0800480504004841
:1051040004040048030400480F0000480A00004853
:105114000E000048020400480A0400480B0400483A
:10512400090000480600004881828300E200E9008B
:10513400EA00B500B600B700CD008301CC008A01B7
:10514400920194012102230224022502260227024D
:105154002A02B300B4006F007000000000000000D9
:105164000000000000010204060A0F17202C3A4A2E
:105174005D71879DB3C7DAE9F5FCFFFCF5E9DAC791
:10518400B39D87715D4A3A2C20170F0A0604020169
:105194000000000000000000000000000300000008
:1051A40000000000D73200080000000008000000E2
:1051B400340D002000000000020000000000000088
:1051C4000300000000000000893500080000000012
:1051D40020000000840D00200000000002000000F8
:1051E4000000000031330008D932000811340008EF
:1051F400D13200089452000898520008A4520008C2
:10520400040A1609023B00020100A0FA0904000086
:1052140001030101000921110100012240000705D9
:10522400810308000A0904010001030000000921A8
:105234001101000122B6000705820320000A1201B1
:1052440010010000004000BF22BF01000102000164
:1052540005010906A101050719E029E71500250143
:1052640095087501810295017508810105071900EA
:1052740029FF150026FF0095067508810005081909
:10528400012905950575019102950175039101C0E8
:10529400040309040A03440061006A006900000071
:1052A4001603530065006900730020004300690081
:1052B4006E0063006F00000005010902A101850270
:1052C4000901A100050919012908150025019508FE
:1052D400750181020501093009311581257F950287
:1052E4007508810609381581257F950175088106A1
:1052F400050C0A38021581257F950175088106C0C1
:10530400C005010980A101850319012AB70015010F
:1053140026B700950175108100C0050C0901A10193
:10532400850419012AA002150126A0029501751011
:105334008100C005010906A1018505050719E029B9
:10534400E715002501950875018102050719002953
:10535400EF1500250195F075018102050819012951
:1053640005950575019102950175039101C0000031
:105374002C550008AC170020AC170020AC170020F7
:105384002C55000800000000000000000000000090
:105394002C55000800000000000000000000000080
:1053A4002C55000800000000000000000000000070
:1053B4002C55000800000000000000000000000060
:1053C4002C55000800000000000000000000000050
:1053D4002C55000800000000000000000000000040
:1053E4002C55000800000000000000000000000030
:1053F4000C540008E8150020B81600200100000035
:10540400213900080000000069646C6500006D61CA
:10541400696E0016423004043C080C101418001C79
:105424001D0000000000010000000000000000005A
:10543400D9400008A143000845440008400040004A
:10544400980D0020980D002001000000AC0D0020F4
:10545400A0040028000000005FF7FFFF0551556518
:10546400DFFF0000001100000000000080000000C9
:1054740000000000FFFFFFFF55555555FFFF0000DA
:105484000000000000000000000000000000000018
:10549400FFFFFFFF55555501FFFF0000000000000E
:1054A400000000000000000000000000FFFFFFFFFC
:1054B40055555555FFFF0000000000000000000096
:1054C4000000000000000000FFFFFFFF5555555588
:1054D400FFFF0000000000000000000000000000CA
:1054E40000000000FFFFFFFF50555555FFFF00006F
:0854F4000000000000000000B0
:0854FC00ECB0FF7F010000008D
:105504001E320A141E640828FE0C0020793100089B
:1055140001000000813600088D36000815370008A8
:08552400513700087D37000833
:04000005080001E10D
:00000001FF
