:100000000C9400070C9447070C9447070C9447077F
:100010000C9447070C9447070C9447070C94470728
:100020000C9447070C9447070C94282C0C94FB2C39
:100030000C948F1C0C9447070C9447070C944707AB
:100040000C9447070C9447070C9447070C944707F8
:100050000C9447070C94201D0C9447070C944707F9
:100060000C9447070C94C42E0C9447070C94470734
:100070000C9447070C9447070C9447070C944707C8
:100080000C9447070C9447070C9447070C944707B8
:100090000C9447070C9447070C9447070C944707A8
:1000A0000C9447070C9447070C94470725303258A7
:1000B0003A20253038620A000A722F63203031322C
:1000C00033343536370A0064796E616D6963206DAB
:1000D0006163726F3A2069676E6F72696E67206D37
:1000E0006163726F20706C6179206B65792077682D
:1000F000696C65207265636F7264696E670D0A00D2
:1001000064796E616D6963206D6163726F3A20730B
:100110006C6F742025642073617665642C206C6597
:100120006E6774683A2025640A0064796E616D69AF
:1001300063206D6163726F3A207472696D6D696ED0
:1001400067206120747261696C696E67206B6579E4
:100150002D646F776E206576656E740D0A00647984
:100160006E616D6963206D6163726F3A20736C6FAD
:1001700074202564206C656E6774683A2025642FAE
:1001800025640A0064796E616D6963206D61637234
:100190006F3A2069676E6F72696E672061206C65C7
:1001A0006164696E67206B65792D75702065766571
:1001B0006E740D0A0064796E616D6963206D616310
:1001C000726F3A20736C6F7420256420706C6179B3
:1001D0006261636B0A0064796E616D6963206D61B1
:1001E00063726F207265636F7264696E673A207321
:1001F0007461727465640D0A001F0014421A0016BF
:100200000004001D001B000600200021001500084E
:10021000000700090019000500220023001C001738
:10022000000A000B00110000001E0035002B002901
:1002300061E100E200E3002C002400250018000C1E
:10024000000E000D0010000000310029002A0028D7
:10025000001150E500E600E7002600270012001319
:100260000033410F00360000002D002E0030002F1B
:100270000034003800370000003B000100F55C014D
:100280000001000100010001003C003D000100F6FA
:100290005C01000100010001003E003F000100017F
:1002A0000001005000010000003A00005C01000164
:1002B000003900AA00A900480040004100010001E7
:1002C0000052005100010000000100010001000186
:1002D0000001000100010001004200430001000193
:1002E0000001004F00010000004400450001000132
:1002F00000010001000100000000000000F25C00AD
:10030000000000000000000000000000000000F3FA
:100310005C00000000000000000000000000000081
:1003200000000000000000000000000000000000CD
:1003300000000000000000F45C000000000000006D
:1003400000000000000000000000000000000000AD
:10035000000000000000000000000000000000009D
:10036000000000000000000000000000000000008D
:1003700000000000000000000044454255473A20BC
:10038000656E61626C65642E0A000A002530325881
:1003900020006B6579626F6172645F7265706F7265
:1003A000743A20000A0025303258006B6579626F7C
:1003B0006172645F7365745F6C65643A2000646F9A
:1003C0006E652E0A00626F6F746D616769632073DA
:1003D00063616E3A202E2E2E2000290A002575001A
:1003E0002F002575005D280025640020002564008D
:1003F000200025640020002564007C002530325850
:10040000006D6F7573656B6579205B62746E7C78C7
:100410002079207620685D287265702F61636C29D1
:100420003A205B006D6B5F776865656C5F74696D22
:10043000655F746F5F6D6178203D2025640A006DF3
:100440006B5F776865656C5F6D61785F737065651C
:1004500064203D2025640A006D6B5F74696D655FE3
:10046000746F5F6D6178203D2025640A006D6B5FBD
:100470006D61785F7370656564203D2025640A00B6
:100480006D6B5F696E74657276616C203D202564CA
:100490000A006D6B5F64656C6179203D2025640AFC
:1004A000006D6B5F776865656C5F74696D655F741F
:1004B0006F5F6D6178203D2025640A006D6B5F776A
:1004C0006865656C5F6D61785F7370656564203D1C
:1004D0002025640A006D6B5F74696D655F746F5FE2
:1004E0006D6178203D2025640A006D6B5F6D617839
:1004F0005F7370656564203D2025640A006D6B5F45
:10050000696E74657276616C203D2025640A006D09
:100510006B5F64656C6179203D2025640A000A00E8
:10052000257500363A20776865656C5F74696D657E
:100530005F746F5F6D61783A20000A0025750035A1
:100540003A20776865656C5F6D61785F737065658B
:10055000643A20000A00257500343A2074696D65FC
:100560005F746F5F6D61783A20000A002575003373
:100570003A206D61785F73706565643A20000A0007
:10058000257500323A20696E74657276616C286D4B
:1005900073293A20000A00257500313A2064656C01
:1005A0006179282A31306D73293A20000A092D20FB
:1005B00056616C756573202D0A004D3E004D256413
:1005C0003E20003F007365742064656661756C743D
:1005D0000A00433E200077686572652064656C748C
:1005E000613A20637572736F723D25642C207768C1
:1005F00065656C3D25640A53656520687474703ABE
:100600002F2F656E2E77696B6970656469612E6F37
:1006100072672F77696B692F4D6F7573655F6B65B7
:1006200079730A000A092D204D6F7573656B657922
:10063000202D0A4553432F713A09717569740A31A7
:100640003A0964656C6179282A31306D73290A3260
:100650003A09696E74657276616C286D73290A3384
:100660003A096D61785F73706565640A343A09749C
:10067000696D655F746F5F6D61780A353A097768F7
:1006800065656C5F6D61785F73706565640A363AA5
:1006900009776865656C5F74696D655F746F5F6D20
:1006A00061780A0A703A097072696E742076616C1A
:1006B0007565730A643A09736574206465666175CB
:1006C0006C74730A75703A092B310A646F776E3A4D
:1006D000092D310A706775703A092B31300A70673D
:1006E000646F776E3A092D31300A0A73706565645C
:1006F000203D2064656C7461202A206D61785F73F1
:1007000070656564202A2028726570656174202FE9
:100710002074696D655F746F5F6D6178290A003FB1
:10072000004D3E2000433E20004C25640A007469C1
:100730006D65725F72656164333228293A20253015
:10074000346C580A006B6579626F6172645F69642A
:100750006C653A2025580A006B6579626F61726496
:100760005F70726F746F636F6C3A2025580A00686F
:100770006F73745F6B6579626F6172645F6C6564DF
:100780007328293A2025580A000A092D205374613C
:10079000747573202D0A004743433A20372E342EB8
:1007A00030204156522D4C4942433A20322E302EB1
:1007B00030204156525F415243483A2061767235AB
:1007C0000A004F5054494F4E533A204C5546412051
:1007D000424F4F544D41474943204D4F5553454B90
:1007E00045592045585452414B455920434F4E538B
:1007F0004F4C4520434F4D4D414E44203430393607
:100800000A004255494C443A2022302E362E3334C9
:10081000302D33382D67323861303338222028317B
:10082000363A32363A34362041707220323820322D
:10083000303139290A005649443A20307846454536
:100840004428712E6D2E6B29205049443A2030786F
:10085000434146452848484B42206D6F6429205645
:1008600045523A203078303130340A004445534301
:100870003A20712E6D2E6B206B6579626F61726408
:10088000206669726D7761726520666F72204848D4
:100890004B420A000A092D2056657273696F6E205B
:1008A0002D0A000A092D20436F6E736F6C65202D91
:1008B0000A4553432F713A09717569740A6D3A09F3
:1008C0006D6F7573656B65790A000A092D204D619E
:1008D000676963202D0A443A094465627567204DB3
:1008E00065737361676520546F67676C650A583A72
:1008F000094D6174726978204465627567204D6F97
:10090000646520546F67676C65202D2053686F778E
:10091000206B65797072657373657320696E206DE5
:10092000617472697820677269640A4B3A094B6591
:1009300079626F61726420446562756720546F67E5
:10094000676C65202D2053686F77206B6579707216
:10095000657373207265706F72740A4D3A0944654D
:10096000627567204D6F75736520546F67676C659E
:100970000A563A0956657273696F6E0A533A0953FB
:1009800074617475730A433A0941637469766174DA
:100990006520436F6E736F6C65204D6F64650A460A
:1009A000312D4631303A0953776974636820746F8A
:1009B000204C6179657220302D3920284631302055
:1009C0003D204C30290A302D393A09537769746338
:1009D0006820746F204C6179657220302D390A4788
:1009E000524156453A0953776974636820746F2001
:1009F0004C6179657220302028616C7465726E617B
:100A00007465290A423A094A756D7020746F204254
:100A10006F6F746C6F616465720A4553433A094A9B
:100A2000756D7020746F20426F6F746C6F616465B8
:100A3000722028616C7465726E617465290A453A8A
:100A4000095072696E7420454550524F4D205365D0
:100A50007474696E67730A4253504143453A0943BF
:100A60006C65617220454550524F4D0A000A0025C1
:100A700075002E6E6B726F3A20000A002575002EED
:100A8000737761705F6261636B736C6173685F62DF
:100A900061636B73706163653A20000A002575001D
:100AA0002E737761705F67726176655F6573633A15
:100AB00020000A002575002E6E6F5F6775693A2069
:100AC000000A002575002E737761705F72616C7487
:100AD0005F726775693A20000A002575002E7377EA
:100AE00061705F6C616C745F6C6775693A20000AB5
:100AF000002575002E636170736C6F636B5F746F9C
:100B00005F636F6E74726F6C3A20000A0025750087
:100B10002E737761705F636F6E74726F6C5F636169
:100B200070736C6F636B3A20000A002530325800F6
:100B30006B65796D61705F636F6E6669672E726158
:100B4000773A20000A002575002E6D6F7573653A9F
:100B500020000A002575002E6B6579626F61726452
:100B60003A20000A002575002E6D61747269783A8A
:100B700020000A002575002E656E61626C653A20C2
:100B8000000A00253032580064656275675F636F44
:100B90006E6669672E7261773A20000A002575003B
:100BA00064656661756C745F6C617965723A20008A
:100BB0003F000A6D6F7573653A206F66660A000A1A
:100BC0006D6F7573653A206F6E0A000A6B65796206
:100BD0006F6172643A206F66660A000A6B6579621B
:100BE0006F6172643A206F6E0A000A6D61747269F7
:100BF000783A206F66660A000A6D61747269783A05
:100C0000206F6E0A000A64656275673A206F666637
:100C10000A000A64656275673A206F6E0A000A0A64
:100C20004A756D70696E6720746F20626F6F746CA7
:100C30006F616465722E2E2E2000433E2000436CAF
:100C4000656172696E6720454550524F4D0A0065D7
:100C500065636F6E6669673A0A004B6579626F611A
:100C600072642073746172742E0A005B575D005BBE
:100C7000535D005B525D005B445D005B435D0004BF
:100C800003300000001203480048004B00420020DF
:100C9000006D006F00640000000C0371002E006DF9
:100CA000002E006B0000000403090409025B00032E
:100CB0000100A0FA0904000001030101000921114B
:100CC0000100012240000705810308000A09040110
:100CD0000001030000000921110100012285000725
:100CE00005820320000A0904020002030000000933
:100CF00021110100012222000705830320000107C2
:100D00000503032000011201100100000008EDFEA0
:100D1000FECA0401010203010631FF0974A10109A1
:100D200075150026FF0095207508810209761500CB
:100D300026FF00952075089102C005010902A10156
:100D400085020901A10005091901290515002501E0
:100D50009505750181029501750381010501093031
:100D600009311581257F950275088106093815819D
:100D7000257F950175088106050C0A380215812525
:100D80007F950175088106C0C005010980A1018514
:100D9000031601002603001A81002A8300751095AE
:100DA000018100C0050C0901A1018504160100267E
:100DB0009C021A01002A9C02751095018100C00551
:100DC000010906A101050719E029E715002501958C
:100DD000087501810295017508810105081901292D
:100DE0000595057501910295017503910105071996
:100DF0000029FF150026FF00950675088100C00038
:100E000011241FBECFEFDAE0DEBFCDBF04B603FE74
:100E100027C080910F0690911006A0911106B09105
:100E200012068730904BA740B04BD1F410920F06BA
:100E300010921006109211061092120614BE84B77A
:100E4000877F84BF0FB6F894A89580916000886171
:100E500080936000109260000FBEE0E0F8E3099517
:100E600011E0A0E0B1E0E8ECFEE502C005900D92D3
:100E7000A233B107D9F726E0A2E3B1E001C01D9289
:100E8000AF30B207E1F70E9474290C94622F0C94E2
:100E90000000FF93EF93E0913201F091330130971E
:100EA00009F00995EF91FF910895FC01859180303B
:100EB00011F0EFDFFBCF0895FF27E0E230E247FFBC
:100EC0000CC0419597FF09C0EDE260957095809543
:100ED0009095611D711D811D911D27FF02C02195F7
:100EE00030E350E2AA27660F771F881F991FAA1FB9
:100EF000A41710F0A41B63955A95A9F7AA3008F01F
:100F0000A95FA05DAF93F39561157105810591050A
:100F100041F7ED3211F4EF93F395F21718F43F9384
:100F2000F395FBCF8F91B5DFFA95E1F70895E9913D
:100F3000F9918591803021F0853219F0AADFF9CF3F
:100F4000089520E0E89455915532C1F3503311F4DF
:100F5000689455915A3348F4505390F3220F022E5F
:100F6000220F220F200D250FF4CF0EF42195899129
:100F70009991533619F3533729F1533559F1BC017F
:100F800088279927E8945C3621F48991999168948F
:100F90005591543639F446EF7EF077FF0DC08FEF50
:100FA0009FEF0AC055374AE039F0583540E121F04B
:100FB000523642E009F00895FF93EF937DDFEF9101
:100FC000FF91B7CFFF93EF93FC0181918030B9F38C
:100FD00060DFFBCFFF93EF9368DFF1CFDF93CF9319
:100FE000CDB7DEB72596A3DFCF91DF9108958FEFC0
:100FF00084B980E485B957985F9A2E9A2F98ACE30C
:10100000B1E01C9211961C92119712961C921297A5
:1010100013961C92139714961C92149715961C9273
:10102000159716961C92169717961C921797E4E33D
:10103000F1E01082118212821382148215821682CC
:101040001782B0934701A0934601F0934501E093C6
:101050004401089508950C942A08EF92FF920F938B
:101060001F93CF93DF93809144019091450120918C
:1010700046013091470130934501209344019093FC
:10108000470180934601D0E0C0E001E010E0EE248B
:10109000EA94F12C60E030E020E085B1422F807CC2
:1010A0008C2B862B85B9AAE1AA95F1F700C0E091B7
:1010B0004401F0914501EC0FFD1F808190E0022E6C
:1010C00002C0959587950A94E2F780FD2F9AB5E3C3
:1010D000BA95F1F7000076B52E98EAE1EA95F1F7B6
:1010E00000C0C80101C0880F4A95EAF74091460147
:1010F00050914701FA01EC0FFD1F4F9B70C0809586
:1011000090818923808386B5E72FF0E0871708F464
:1011100069C086B590E08E1B9F0B069758F0E09152
:101120004401F0914501EC0FFD1F80814C0F5D1FC4
:10113000FA018083FAE1FA95F1F700C02F982E9A10
:101140008BE291E00197F1F700C000002F5F3F4F65
:10115000685F2830310509F0A0CFA0914601B09119
:101160004701AC0FBD1FE0914401F0914501EC0F28
:10117000FD1F9C918081981751F00E94CD1C6093B7
:1011800048017093490180934A0190934B01219645
:10119000C830D10509F07ECF80910606853021F058
:1011A00080910606811111C060914801709149013A
:1011B00080914A0190914B010E94031D6131774259
:1011C0008105910510F00E94541C0E94550B81E08E
:1011D000DF91CF911F910F91FF90EF900895908133
:1011E000892B90CF86B5D701AE1BBF0B8A0F9B2FE3
:1011F000911D93CF2091460130914701820F932F8B
:10120000911DFC01808108950F931F93CF93DF936D
:1012100088EB90E00E945507D0E0C0E00CEA10E0B7
:10122000E0914601F0914701EC0FFD1F80810E9483
:10123000751B1F928F93DF93CF931F930F930E9481
:10124000EE0721960F900F900F900F900F900F9038
:10125000C830D10529F7DF91CF911F910F910895E3
:101260000F931F93CF93DF93EC018B018091DB04ED
:1012700080FF04C086ED91E00E9455070E94DE14B5
:101280000E94191919830883DF91CF911F910F9143
:1012900008958F929F92AF92BF92EF92FF920F9319
:1012A0001F93CF93DF93EC017B01042F8091DB042C
:1012B00080FF10C082E014160CF481E01F928F931F
:1012C00085EB91E09F938F930E94EE070F900F9014
:1012D0000F900F908090C6049090C704A090C8040F
:1012E000B090C9040E94DE140E94191986E0080219
:1012F00080011124CE15DF05A9F40E94DE1480922E
:10130000C6049092C704A092C804B092C904DF91A9
:10131000CF911F910F91FF90EF90BF90AF909F9052
:101320008F900895CE010E949714C00FD11FE2CF75
:10133000EF92FF920F931F93CF93DF93EC01FB018A
:10134000A081B181F8018281811111C0CA17DB0728
:1013500071F48091DB0480FF6CC084E891E0DF9140
:10136000CF911F910F91FF90EF900C945507F6E0ED
:101370002F0270011124CD018E199F0948175907BA
:1013800069F086E0F80101900D928A95E1F7FB0182
:10139000808191818E0D9F1D918380838091DB04DC
:1013A00080FF47C0E22E022E000CFF084C1B5D0B95
:1013B00055954795ABEABAEA4A9FC0014B9F900DFD
:1013C0005A9F900D11248E9DA0018F9D500D9E9DC2
:1013D000500D11244F5F5F4FFB01808191818C1B69
:1013E0009D0B959587958A9FE0018B9FD00D9A9FC5
:1013F000D00D1124CE9DB001CF9D700DDE9D700DDE
:10140000112481E012160CF082E05F934F937F93DA
:101410006F931F928F938EE591E09F938F930E941D
:10142000EE078DB79EB708960FB6F8949EBF0FBE15
:101430008DBFDF91CF911F910F91FF90EF90089595
:101440009F92AF92BF92CF92DF92EF92FF920F9353
:101450001F93CF93DF938C01EB01942E79016AEFF8
:101460004602600111248091DB048170C017D1070E
:1014700039F05E01AC0CBD1CF5019281911139C0AF
:10148000882341F1CE01801B910B959587952BEA1E
:101490003AEA829FA001839F500D929F500D112424
:1014A000692D64039001659F300D112481E01914AA
:1014B0000CF082E03F932F931F928F9380E091E096
:1014C0009F938F930E94EE070F900F900F900F90B5
:1014D0000F900F90F701D183C083DF91CF911F91BF
:1014E0000F91FF90EF90DF90CF90BF90AF909F90C3
:1014F0000895882321F08AE291E00E945507E501D2
:10150000B2CF0F931F93CF938B0120914E042111E3
:101510003DC0FB01C281C11122C0833FFCE59F0792
:1015200019F128F4823F9C4589F0C1E018C0853F3D
:10153000ECE59E0709F1863F9C45B9F760910001F3
:10154000709101014FEF86E494E01DC06CE471E0FE
:101550008CE494E00E94300981E080934E048C2F4B
:10156000CF911F910F91089566E474E08CE494E0AC
:101570000E94300982E0F1CF609102017091030175
:1015800041E08CE491E00E944909E9CF843F3CE5C9
:10159000930791F018F0873F9C4580F12130B9F115
:1015A000223019F640910201509103012FEF6CE4B3
:1015B00074E086E494E034C0FB01C281CC2379F26C
:1015C000213031F0223081F010924E04C0E0C7CFBC
:1015D00060914C0470914D0422E031E041E08CE4D4
:1015E00091E00E94200AF0CF60914C0470914D046C
:1015F00020E031E04FEF86E494E0F3CF8091DB040C
:1016000080FFE4CF87EC90E00E945507DFCF409148
:1016100000015091010121E06CE474E08CE491E060
:101620000E94980982CF0C94810A90E080E008958E
:1016300081E008950C94130B1F93CF93DF9300D098
:1016400000D01F92CDB7DEB749835A836B832091B8
:10165000650489819A8121111BC06623A9F00E942B
:10166000291A182F682F89819A810E94CF196981C0
:101670007A81812F0F900F900F900F900F90DF9134
:10168000CF911F910C94F80C0E94FE19182FEFCFE8
:101690000E94291A69817A81EDCFFC014081518134
:1016A0006281738184810C941C0B0C942B08089527
:1016B0000C94570B0C94580B08950E94DE140E9452
:1016C0005C0B2FEF84E39CE0215080409040E1F7D9
:1016D00000C000000C94461D0F931F93CF93DF931F
:1016E0008C010E944D0BEC01B8010E941A0B88235B
:1016F00009F47BC0C73D8CE5D80709F422C1B0F5D9
:10170000C531FCE5DF07D0F4C2308CE5D80708F01E
:1017100094C0C115ECE5DE0709F462C0C130DC45B8
:1017200009F469C081E08093540480935504C80192
:10173000DF91CF911F910F910C94180BC631DC45AE
:1017400089F70E94BE1AF8019281992309F445C1D4
:101750008A7A91E009F490E090934F0481113BC1A3
:1017600089E20E94991A0E940D1B3FC0CC3DECE516
:10177000DE0709F44EC020F5C83D8CE5D80709F412
:1017800007C1C93DDC4571F6F8018281811104C1B0
:101790008091550481111DC1809152049091530490
:1017A0000E94D91C883C910508F013C180E20E9478
:1017B000091288E20E942A1188E20E94D31115C002
:1017C000CE3DFCE5DF0799F160F1CF3DDC4509F046
:1017D000A9CFF8018281882341F00E94111C05C025
:1017E000F801828181110E945D0B80E0DF91CF9131
:1017F0001F910F910895F80182818823B1F38091A0
:10180000DB0481608093DB0489E793E00E94550745
:10181000ECCFF8018281882341F380E00E94062A00
:10182000E4CFF8018281882301F382E0F7CFF80149
:1018300082818823D1F283E0F1CFF801828188236D
:1018400009F475CF0E948D1B811102C00E94111CEA
:101850000E94AA1B90E09093010680930006FE016F
:10186000E350FC45809100068160E231F105C8F447
:10187000E45CF34F0C94062F4E0C5A0C5E0C620C79
:10188000660C6A0C6E0C720C760C7A0C7E0C820C58
:10189000860C8A0C8E0C920C960C9A0C8091000689
:1018A000826080930006809100060E94AE1B0E9419
:1018B000DE149BCF809100068460F3CF80910006F8
:1018C0008860EFCF809100068061EBCF80910006A9
:1018D0008062E7CF809100068064E3CF80910006AC
:1018E0008068DFCF809100068460EACF8091000697
:1018F0008E7FD7CF809100068D7FD3CF8091000659
:101900008B7FCFCF80910006877FCBCF8091000661
:101910008F7EC7CF809100068F7DC3CF8091000658
:101920008F7BBFCF809100068F77BBCF8091000661
:101930008B7FEACF90910006892F97FB87F980581B
:10194000B0CFF8018281882361F0109254040E9484
:10195000C11C909351048093500482E00E940212B3
:1019600044CF8091540481110FC080915004909114
:1019700051040E94D91C883C910530F486E20E94F3
:101980002A1186E20E94D31182E00E9409122DCF13
:10199000F8018281882351F0109255040E94C11CE5
:1019A000909353048093520480E2D8CF80915504E1
:1019B00081110FC080915204909153040E94D91C50
:1019C000883C910530F487E20E942A1187E20E9448
:1019D000D31180E2DACF85E3C4CE80914F04811128
:1019E00004C089E20E94A01ABECE85E3FBCF089511
:1019F00028E0829FC0011124FC01E70FF11D83E064
:101A0000EE0FFF1F8A95E1F7E60FF11DEE0FFF1FA6
:101A1000E750FE4F859194910895FC01EE0FFF1F52
:101A2000E657FC4F859194910895CF93DF930E94E0
:101A3000F80C0E94D10EEC018115904508F043C0CE
:101A4000C11580E4D80708F017C1C83ED10528F5B4
:101A5000C03ED10508F0A3C0C83AD10580F4C53A0C
:101A6000D10508F092C0C130D10509F498C020F02A
:101A7000C430D10508F093C0D0E0C0E090C0CF3BA7
:101A8000D10508F490C0CE01805C9109C03CD1051D
:101A900098F30E940D0DEC0182C0C11520E2D2071F
:101AA00050F4C11581E0D80708F079C0C03FD105D6
:101AB00018F3D06574C0C11520E3D20708F0D2C076
:101AC000CE019F70E6CFC11585E5D80760F5C11539
:101AD00024E5D20708F0FEC0C11582E5D80750F40E
:101AE000C11521E5D20708F4CAC0DC2FCC27C16F8D
:101AF000D06A55C09C2F969596959E0123703327EA
:101B0000C115D34508F0D7C0C1E0D0E002C0CC0F6A
:101B1000DD1F2A95E2F720E2929FC0011124C82B15
:101B2000D92BDC683CC0C11529E5D207A8F4C11542
:101B300088E5D80708F0D3C0C11526E5D20708F01C
:101B40009BCF8C2F0E94510FC82FD0E0DC2FCC27C9
:101B5000CC27DF71D06223C0C1158AE5D80708F40D
:101B6000C3C0CE0190568115904208F085CF8D2FCD
:101B70008F710E94510FDD27D06290E0982F882747
:101B800088279F71C82BD92B0AC0C53AD10509F403
:101B9000BDC0C63AD10509F4BCC0C3E8D0E4CE014B
:101BA000DF91CF910895C83AD10509F4B5C0C93A7B
:101BB000D10509F4B4C0CA3AD10509F4B3C0CB3A8F
:101BC000D10509F4B2C0CC3AD10509F4B1C0CB3B80
:101BD000D10509F4B0C0CC3BD10509F4AFC0CD3A72
:101BE000D10509F4AEC0C03BD10509F4ADC0CE3A71
:101BF000D10509F4ACC0CF3AD10509F4ABC0C13B63
:101C0000D10509F4AAC0C23BD10509F4A9C0C33B60
:101C1000D10509F4A8C0C43BD10509F4A7C0C53B50
:101C2000D10509F4A6C0C63BD10509F4A5C0C73B40
:101C3000D10509F4A4C0C83BD10509F4A3C0C93B30
:101C4000D10509F4A2C0CD3BD10509F4A1C0CE3B1A
:101C5000D10509F4A0C0CA3BD10509F09FC0CAE272
:101C6000D6E49DCFCE019927D3FF03C0EC01D86CF9
:101C700096CFEC01D06C93CFDF70D06A90CFCE01BD
:101C8000F4E096958795FA95E1F783709C2F937011
:101C900021E030E002C0220F331F9A95E2F73C6842
:101CA000382BC695C695C37080E2C89FE001112409
:101CB000C22BD32B74CFC1E0D0E002C0CC0FDD1F0C
:101CC0002A95E2F720E2929FC0011124C82BD92B5C
:101CD000DA6865CFDC2FCC27C46FD06A60CFDC2FE9
:101CE000CC27C06FD06A5BCF8C2F8F700E94510FB2
:101CF00034E0D695C7953A95E1F7CF70D0E0DC2F68
:101D0000CC27D06A8F70806EC82B49CFC1E8D0E451
:101D100046CFC2E8D0E443CFC2EED4E440CFC9EE10
:101D2000D4E43DCFCAEED4E43ACFC5EBD4E437CF08
:101D3000C6EBD4E434CFC3EBD4E431CFC4EBD4E46A
:101D40002ECFC7EBD4E42BCFCCECD4E428CFCDEC12
:101D5000D4E425CFC3E8D5E422CFCAE8D5E41FCF29
:101D6000C2E9D5E41CCFC4E9D5E419CFC1E2D6E479
:101D700016CFC3E2D6E413CFC4E2D6E410CFC5E257
:101D8000D6E40DCFC6E2D6E40ACFC7E2D6E407CF49
:101D9000CFE6D4E404CFC0E7D4E401CFC0E0D4E47C
:101DA000FECE8238910549F1B0F48133910509F4F2
:101DB0005CC048F48932910509F452C08A32910519
:101DC00009F458C008958533910509F444C0893356
:101DD000910599F00895833E910531F138F4803EE4
:101DE000910591F0823E9105B1F00895863E9105EE
:101DF00011F1873E910541F108952091000623706D
:101E0000C9F080EE90E008952091000620FF12C0F6
:101E100089E390E008952091000622FF0BC024FF83
:101E20002EC090E080E008952091000622FD2AC097
:101E300024FDF7CF08952091000623FFFBCF24FD5A
:101E4000F0CF87EE90E008952091000623FFF0CFB9
:101E500086EE90E008952091000625FD16C00895B5
:101E60002091000625FD14C008952091000626FD4E
:101E700012C008952091000626FD10C0089583EE3B
:101E800090E0089582EE90E0089589E290E0089550
:101E900085E390E008958AE290E0089581E390E080
:101EA000C9CF9091000692FF06C0282F28712830D4
:101EB00069F4877F846093FF06C0282F287128313A
:101EC00061F4877E846194FD877E0895282F2471B4
:101ED000243089F78B7F8860EECF282F247124313E
:101EE00091F78B7E8861EFCF90935B0480935A04C7
:101EF0000895E0915A04F0915B04309721F001902D
:101F0000F081E02D099480E00895EF92FF920F9305
:101F10001F93CF93DF938C01E0915A04F0915B04FF
:101F20003097C1F10280F381E02D09958091DB04A7
:101F300082FF30C080FF04C082E993E00E94550711
:101F4000D0E0C0E08CE8E82E83E0F82E8091DB043E
:101F500080FF0EC0F801EC0FFD1F80811F928F9350
:101F6000FF92EF920E94EE070F900F900F900F904C
:101F70002196C830D10551F78091DB0480FF0AC05B
:101F80008AE893E0DF91CF911F910F91FF90EF903E
:101F90000C945507DF91CF911F910F91FF90EF9017
:101FA0000895E0915A04F0915B04309739F022E0F3
:101FB000DC012C930480F581E02D09940895209193
:101FC0005804309159042817390771F09093590437
:101FD00080935804E0915A04F0915B04309721F00B
:101FE0000680F781E02D09940895209156043091E0
:101FF00057042817390771F09093570480935604BB
:10200000E0915A04F0915B04309721F00084F1854F
:10201000E02D0994089585B7806885BF85B78068ED
:1020200085BF0895089508950C94121008950C9496
:1020300016100E940B100E9413100C94141081E0D3
:1020400008950E94B81C0E94F7070E94AD1D0C94D1
:102050001710CF93C82F8091DB0482FF1EC080FF32
:1020600004C08BEA93E00E9455078091DB0480FF57
:102070000CC01F92CF9386EA93E09F938F930E94A8
:10208000EE070F900F900F900F908091DB0480FF70
:1020900004C084EA93E00E9455078C2FCF910C94E2
:1020A0005A0BBF92CF92DF92EF92FF920F931F9342
:1020B000CF93DF93CDB7DEB72A970FB6F894DEBF84
:1020C0000FBECDBF0E942D080E941F10882309F467
:1020D00071C08DE5C82E84E0D82E10E000E0B02E4F
:1020E000802F0E94FA08E82EF601F1906F01F81691
:1020F00009F45AC08091DB0481FD0E94040990E03C
:1021000080E0FE242F2D30E0482FB901082E02C0B8
:10211000759567950A94E2F760FF41C08E83BF8290
:1021200081E090E06C0102C0CC0CDD1C4A95E2F726
:102130002E2D30E02C213D21232B09F480E08887CF
:102140000E94C11C8160782F9A8789874E815F81A8
:1021500068858A850E94FB10F801E35AFB4F808155
:102160008C2580830E94BB200E94790F90915C0493
:10217000891789F10E94790F80935C042A960FB623
:10218000F894DEBF0FBECDBFDF91CF911F910F91AD
:10219000FF90EF90DF90CF90BF900C9429100196A4
:1021A0008830910509F0B0CF0F5F1F4F083011053F
:1021B00009F095CF8FEF89838A831B820E94C11C0F
:1021C0008160782F9D838C8349815A816B818D81B9
:1021D0000E94FB10C7CF2A960FB6F894DEBF0FBE41
:1021E000CDBFDF91CF911F910F91FF90EF90DF90C6
:1021F000CF90BF900895CF93DF93CDB7DEB72B97E5
:102200000FB6F894DEBF0FBECDBF4F8358876987E6
:102210007A878B871E821D8285E0FE013796DE015C
:10222000119601900D928A95E1F749815A816B814F
:102230007C818D819E812B960FB6F894DEBF0FBEF8
:10224000CDBFDF91CF910C94A017FC0180819181CB
:102250000C946B1ACF93C82F882309F4A2C08CEF7B
:102260008C0F813A58F48C2F0E940025811199C05F
:102270008C2F0E94991ACF910C940D1B80E28C0F29
:10228000883048F4C77081E001C0880FCA95EAF72A
:102290000E94C11AF0CF8BE58C0F833068F481E87F
:1022A00090E0C53A31F083E890E0C63A11F482E854
:1022B00090E0CF910C94DF0F88E58C0F873108F008
:1022C00068C082EE90E0C83A09F460C089EE90E000
:1022D000C93A09F45BC08AEE90E0CA3A09F456C0E4
:1022E00085EB90E0CB3A09F451C086EB90E0CC3A14
:1022F00009F44CC083EB90E0CB3B09F447C084EB7E
:1023000090E0CC3B09F442C087EB90E0CD3AF1F18C
:102310008CEC90E0C03BD1F18DEC90E0CE3AB1F185
:1023200083E891E0CF3A91F18AE891E0C13B71F105
:1023300082E991E0C23B51F184E991E0C33B31F184
:1023400081E292E0C43B11F183E292E0C53BF1F0FF
:1023500084E292E0C63BD1F085E292E0C73BB1F067
:1023600086E292E0C83B91F087E292E0C93B71F0CF
:102370008FE690E0CD3B51F080E790E0CE3B31F02E
:1023800090E080E0CA3B11F48AE292E0CF910C9495
:10239000F50FC03F30F08C2F0E94421FCF910C945C
:1023A0002E20CF910895882361F19CEF980F913AE8
:1023B00020F40E94A01A0C940D1B90E2980F983004
:1023C00050F4877091E001C0990F8A95EAF7892F40
:1023D0000E94C71AF0CF9BE5980F933020F490E04D
:1023E00080E00C94DF0F98E5980F973120F490E08F
:1023F00080E00C94F50F803F20F00E94AA1F0C94FF
:102400002E200895882321F00E94C11A0C940D1BE0
:102410000895882321F00E94C71A0C940D1B08957B
:102420008F929F92AF92BF92DF92EF92FF920F93A3
:102430001F93CF93DF937C01D62FC72FFC0105811B
:1024400002950F70128111110E94E01A0E94B71AB2
:10245000D82E882371F0112331F180E28D0F88305E
:1024600010F182E00E94581B0E94B71A91E0D82E0A
:10247000D926BC2EB2949FE0B922EB2DF0E0ED5BA3
:10248000FD4E0C94062F55125512A512A512EC12F2
:102490001413F312F3125613F312F113F1137B1406
:1024A000F312F3128414D12CE4CF0C2F0F70C07FE1
:1024B00011F00295007F1123A9F0002359F080E26A
:1024C0008D0F883010F0D11109C0802F0E94C11AE1
:1024D0000E940D1B8D2F0E942A1114C0802F0E9474
:1024E000D21AF6CF8D2F0E94D311002359F080E22B
:1024F0008D0F883010F0D11124C0802F0E94C71A90
:102500000E940D1BDD2009F406C20E94B31A80FD53
:1025100002C2F70112820E94AD1A0E943319C7014C
:102520000E9497140E94AD1ADF91CF911F910F91D5
:10253000FF90EF90DF90BF90AF909F908F900C94A2
:102540005419802F0E94D81ADBCFFC2FFF70BF2EAA
:10255000C07FC03219F0B29480EFB822DD2369F059
:10256000D13049F1112391F1002351F1F701858117
:1025700080FFB0CF8F70858323C0112381F00111BC
:1025800006C00E94F41A8B290E940212BBCF0130B0
:10259000C1F70E94F41A8B290E94FA1AB3CF0111D5
:1025A00006C00E94031B8B2D0E940912ABCF013085
:1025B00009F4A8CFF6CF112329F0063008F0A2CFF6
:1025C0008B2DE2CF053008F09DCFEDCF002359F3DE
:1025D0008D2F0E94D31196CF8C2F86958695837070
:1025E00079F08130B9F098E0B91609F49BC0B916BA
:1025F00008F488CF86EF8B0D823008F493C082CF29
:102600008D2F9C2F9370111102C090E080E00E94EA
:10261000DF0F78CF8D2F9C2F9370111102C090E0A7
:1026200080E00E94F50F6ECF112309F1D53F99F09C
:10263000D63FB9F0D43F49F48091FA059091FB055B
:1026400081609093FB058093FA058D2F0E94421FB5
:102650000E942E2057CF8091FA059091FB05826051
:10266000F0CF8091FA059091FB058460EACFD53FC9
:1026700089F0D63FA9F0D43F49F48091FA059091B2
:10268000FB058E7F9093FB058093FA058D2F0E94AA
:10269000AA1FDECF8091FA059091FB058D7FF2CFC6
:1026A0008091FA059091FB058B7FECCF8C2F837086
:1026B00009F04BC0111136C02D2F22952695277099
:1026C000220F220F6D2F6F70862E912CB12CA12C12
:1026D000022E04C0880C991CAA1CBB1C0A94D2F7B9
:1026E00060E070E0CB01D4FF0FC06FE070E080E0ED
:1026F00090E004C0660F771F881F991F2A95D2F7B4
:102700006095709580959095C695C695C370C230BA
:1027100071F0A0F4682979298A299B29C13091F0A8
:102720000E94E5180E94790F0E945A0BEBCE68298F
:1027300079298A299B290E94F718F4CF0E94E5186D
:10274000C501B4010E94D318EDCF8695112311F075
:102750008C2F8170882331F32D2F22952695277099
:10276000220F220F6D2F6F70862E912CB12CA12C71
:10277000022E04C0880C991CAA1CBB1C0A94D2F718
:1027800060E070E0CB01D4FF0FC06FE070E080E04C
:1027900090E004C0660F771F881F991F2A95D2F713
:1027A0006095709580959095C695C695C370C2301A
:1027B00051F080F4682979298A299B29C13071F068
:1027C0000E94AA19AFCF682979298A299B290E94DA
:1027D000BC19A8CF0E94AA19C501B4010E9498197A
:1027E000A1CFE0E2ED0FE53108F066C0F0E0E55082
:1027F000FC4E0C94062F1014101410141014101406
:1028000010141014101410141014101410141014A8
:1028100010141014101421142F1436143D144714DE
:10282000DF708C2F8F71112331F00E9433198D2F9F
:102830000E940212D8CE0E9454198D2F0E940912B4
:10284000D2CE112341F0053008F0CDCE8C2F8F7100
:102850000E947719C8CE063008F0C5CEF7CF8C2F6E
:102860008F71112339F00E943319BDCE8C2F8F71D7
:102870001123C9F30E945419B6CE112329F08C2FCD
:102880008F710E941E19AFCE0E941919ACCE112370
:1028900049F0CF718C2F0E94331963E08C2F0E9476
:1028A000431BA1CE81E00E94581B023008F49BCE4E
:1028B00082E00E94581B97CE112349F0002321F09B
:1028C0008D2F0E942A118FCE8C2F8F71CCCF002399
:1028D00079F0D93349F4FFEF27EE83E0F15020403F
:1028E0008040E1F700C000008D2F0E94D3117BCE05
:1028F0008C2F8F71BFCF4C2F4F706D2FC7010E944F
:10290000150B0E944918FECD4C2F4F706D2FC7013B
:102910000E94F70CF7CDDF91CF911F910F91FF909F
:10292000EF90DF90BF90AF909F908F9008950F939E
:102930001F93CF93DF93EC01988189812B813C8198
:10294000232B39F08F3F19F481E09F3F19F080E08D
:1029500001C081E080FD17C0CE010E946C0B88236E
:1029600091F0688179818A810E94751A8C010E9498
:10297000CE190E94D018B801CE01DF91CF911F91DE
:102980000F910C941012DF91CF911F910F91089528
:102990000E94E01A0E94F11A0E940D1B0E9446211B
:1029A0000E942E2090E080E00E94DF0F90E080E007
:1029B0000C94F50F0E94A71A0C94C8140E94CF1A09
:1029C0000C94DA14E92FE295EF70E250EE30E0F467
:1029D000F0E0E351FB4E0C94062FFB14FB1404159E
:1029E00004150615041504150415FB14FB140B152A
:1029F000041504150B15803F19F020F4803E20F4D7
:102A000081E00895843FE1F380E00895803EC0F3C3
:102A1000813FD1F7F5CF93FB882780F908950E9475
:102A20006B1A0C94E214CF93DF9300D000D01F9266
:102A3000CDB7DEB70F900F900F900F900F90DF91F2
:102A4000CF910895CF93DF9300D000D000D0CDB7C1
:102A5000DEB726960FB6F894DEBF0FBECDBFDF916E
:102A6000CF9108951F93CF93DF93C091660416E032
:102A7000809167048C1304C0DF91CF911F9108955A
:102A8000D0E01C9FF0011D9FF00D1124E859FB4F71
:102A90004081518162817381848195810E942215D8
:102AA0002196C770E5CF40919804509199046091A8
:102AB0009A0470919B0480919C0490919D040C94C5
:102AC00022151F93CF93DF9380919D04807FD1F4D3
:102AD00080919A048823B1F080916604D0916704B4
:102AE000B0919804C091990440919B0450919C042A
:102AF000A1E0BF3F09F0A0E0BA016095709516E033
:102B0000D81304C0DF91CF911F91089521E04115A2
:102B1000510521F02A2FCF3F09F020E090E020FD61
:102B200038C0189FF001199FF00D1124E859FB4F90
:102B300021812C132EC020812B132BC02281211127
:102B400028C0238134812417350700F1241B350B5D
:102B5000283C3105F0F420919D042F7020612093D2
:102B60009D0426E0289FF001299FF00D1124E359D0
:102B7000FB4F80818F708061808388E994E00E94A0
:102B80009714DF91CF911F910C943215260F371FA8
:102B9000DFCF01968770B4CFAF92BF92CF92DF9212
:102BA000EF92FF920F931F93CF93DF93CDB7DEB7D2
:102BB00061970FB6F894DEBF0FBECDBF8C0185E0E4
:102BC000F801DE011D9601900D928A95E1F7D8017A
:102BD0004C9111965C9111971296EC90309198045B
:102BE0006091990480919B0490919C0421E000974E
:102BF00031F06F3F19F421E03F3F09F020E0B22FA0
:102C0000B170BB2E20FD80C1F801C380D480A0909C
:102C10009A04AA2009F427C1C816D906D0F1D60112
:102C2000A81BB90BCD01FF24F394883C910508F053
:102C3000F12C80919D04982F907FFF2009F4CEC045
:102C4000911187C0FE2C651329C0341327C0E110F1
:102C500025C08F70806180939D040E94531588E980
:102C600094E00E94971480919D04F80185838F2D34
:102C700061960FB6F894DEBF0FBECDBFDF91CF9146
:102C80001F910F91FF90EF90DF90CF90BF90AF908A
:102C90000895809590958C0D9D1DC5CF81E0CD2820
:102CA00031F05F3F19F481E04F3F09F080E080FD93
:102CB00024C081E08E25F82FF170DF2E80FF3FC009
:102CC000809166042091670436E0821318C04D8716
:102CD0005E878D859E850E946B1A292F22952F7005
:102CE000223008F1243030F59F7009F1D801159693
:102CF0009C91907FE1F4FB2CBACF80E0DCCF90E098
:102D0000389FF001399FF00D1124E859FB4F618184
:102D1000561306C06081461303C062816E110FC056
:102D200001968770D2CF9F7011F0882321F3805EC7
:102D3000883008F3C8010E949714BD2CDCCFEE2028
:102D400009F495CF80919D04816080939D04F12CBE
:102D50008ECF651314C0341312C0E11010C0F801F7
:102D60008583C8010E94971486E0F801A8E9B4E0C1
:102D700001900D928A95E1F70E94531578CF4D8707
:102D80005E878D859E850E940F15882319F1EE20A0
:102D900009F180919D04803270F020919804309167
:102DA000990438872F831986DB86CA868C87CE01E3
:102DB00007960E94971486E0F801A8E9B4E0019014
:102DC0000D928A95E1F70E9461150E945315FF2428
:102DD000F3944DCFC8010E949714F9CF911113C0FD
:102DE0007C2DD98AC88A6E2D89890E94131588E99D
:102DF00094E00E94971486E0E8E9F4E0DF011D9278
:102E00008A95E9F7B9CF651312C0341310C0E110E9
:102E10000EC0F8018583C8010E949714E8E9F4E028
:102E200086E0DF011D928A95E9F7FA2C20CF4D87C5
:102E30005E878D859E850E940F15882359F2EE20AE
:102E400049F280919D04803208F4B5CF2091980416
:102E5000309199043A8329831B82DD82CC828E8350
:102E6000CE010196A6CFC816D90638F1F601E81BA7
:102E7000F90BCF01F12C883C910508F03DC0FE2CE8
:102E8000EE2009F4A7CF651326C0341324C0809127
:102E90009D0480FD17C0982F907FA1F0D801159652
:102EA0008C931597903F09F45CCF982F907F905F9B
:102EB0008F70892B15968C9354CF809590958C0D9F
:102EC0009D1DD8CF86E0F801A8E9B4E001900D92ED
:102ED0008A95E1F7CCCE4D875E878D859E850E94D1
:102EE0000F15811168CF80919D04816080939D04AE
:102EF000C8010E949714BBCE7C2DD98AC88A6E2D3A
:102F000089890E94131577CFEE2009F463CF4D878E
:102F10005E878D859E850E940F15F82E882309F403
:102F200059CF86E0F801A8E9B4E001900D928A95A6
:102F3000E1F788E994E00E9425110E9461151CCFF9
:102F40001F93CF93DF93CDB7DEB72C970FB6F894CE
:102F5000DEBF0FBECDBF4F83588769877A878B87C7
:102F60009C87CE0107960E94CC15882309F442C0A5
:102F70009F8188852A853B85232B39F08F3F19F463
:102F800081E09F3F19F080E001C081E080FD08C032
:102F90004F81588569857A858B859C850E9422158D
:102FA00016E08091660490916704891709F467C060
:102FB000819FC001112488599B4F0E94CC15882302
:102FC00009F45DC0E09166041E9FF0011124E859E8
:102FD000FB4F4081518162817381848195810E9480
:102FE00022158091660490E001968770992780935E
:102FF0006604D7CF86E0FE013796DE011196019078
:103000000D928A95E1F79F8188852A853B85232B40
:1030100039F08F3F19F481E09F3F19F080E001C043
:1030200081E080FDBDCF2091670430E0C9010196A9
:1030300087709927409166044817190699F096E021
:10304000929FD001939FB00D1124A859BB4FFE0150
:10305000319601900D929A95E1F7809367040E9452
:1030600032159ECF0E94DE141092670410926604FF
:1030700086E0E8E9F4E0DF011D928A95E9F72C96F5
:103080000FB6F894DEBF0FBECDBFDF91CF911F9179
:103090000895EF92FF920F931F93CF93DF938C01CC
:1030A000892B81F0F12CEE24E394E8012196F801BC
:1030B0008491843770F4843008F05FC08130B1F0BF
:1030C0008230A1F1DF91CF911F910F91FF90EF908E
:1030D0000895853709F44CC008F43DC09CE7980F6B
:1030E000903780F78F770E94D31149C00E5F1F4F32
:1030F000FE01849190E2980F983060F48770FE2D65
:1031000001C0FF0F8A95EAF78F2F0E94E31A0E94F1
:103110000D1B02C00E942A118F2D815030F2EFE961
:10312000FFE03197F1F700C00000F7CF0E5F1F4FAF
:10313000FE01849190E2980F983050F48770FE2D34
:1031400001C0FF0F8A95EAF78F2F0E94E91ADFCF9F
:103150000E94D311E1CF0E5F1F4FFE01C491C150F9
:10316000D8F28FE99FE00197F1F700C00000F7CF98
:103170000E5F1F4FFE01F490CFCF0E942A118E01E7
:10318000CBCF08950C94C1180E94C2186093CA0452
:103190007093CB048093CC049093CD040C94C8140A
:1031A00008950C94C4180F931F930091CA041091B2
:1031B000CB042091CC043091CD04602B712B822B59
:1031C000932B1F910F910C94C4180F931F93009190
:1031D000CA041091CB042091CC043091CD0460231B
:1031E0007123822393231F910F910C94C4180F9382
:1031F0001F930091CA041091CB042091CC0430910C
:10320000CD0460277127822793271F910F910C947B
:10321000C4180C94C1180C9409190E940B196093DE
:10322000C6047093C7048093C8049093C9040C9497
:10323000C81460E070E0CB010C940D190F931F933C
:1032400041E050E060E070E08A019B0104C0000FA3
:10325000111F221F331F8A95D2F7C901B8011F9190
:103260000F910C940D190F931F9341E050E060E013
:1032700070E004C0440F551F661F771F8A95D2F770
:103280008091C6049091C704A091C804B091C9046C
:103290008A019B01082B192B2A2B3B2BC901B80152
:1032A0001F910F910C940D190F931F9341E050E063
:1032B00060E070E004C0440F551F661F771F8A95B9
:1032C000D2F7CB01BA0160957095809590950091E9
:1032D000C6041091C7042091C8043091C90460232A
:1032E0007123822393231F910F910C940D190F9337
:1032F0001F9341E050E060E070E004C0440F551FB0
:10330000661F771F8A95D2F78091C6049091C704F3
:10331000A091C804B091C9048A019B01082719270C
:103320002A273B27C901B8011F910F910C940D1951
:103330000F931F930091C6041091C7042091C804F5
:103340003091C904602B712B822B932B1F910F910D
:103350000C940D190F931F930091C6041091C7048C
:103360002091C8043091C9046023712382239323E0
:103370001F910F910C940D190F931F930091C60488
:103380001091C7042091C8043091C90460277127A7
:10339000822793271F910F910C940D190895990F6F
:1033A000990F990F890F982F977071E001C0770FCF
:1033B0009A95EAF786958695869525E0829FC001C5
:1033C000112450E040E0A62FB0E0FC01E40FF51F0F
:1033D000E256FB4F60819D01042E02C03695279571
:1033E0000A94E2F721702195262727232627208398
:1033F0004F5F5F4F4530510541F70895990F990F81
:10340000990F890F982F977086958695869525E058
:10341000829FA001112470E060E080E0FA01E60FD5
:10342000F71FE256FB4F208130E0092E02C036958F
:1034300027950A94E2F721703327062E01C0220F48
:103440000A94EAF7822B6F5F7F4F6530710531F781
:103450000895BF92CF92DF92EF92FF920F931F9346
:10346000CF93DF938C01C090C604D090C704E09046
:10347000C804F090C9048091CA049091CB04A09133
:10348000CC04B091CD04C82AD92AEA2AFB2ACFE17C
:10349000D0E0BC2ED701C6010C2E04C0B695A7956E
:1034A000979587950A94D2F780FD0EC0219788F7EB
:1034B000B12C8B2DDF91CF911F910F91FF90EF9049
:1034C000DF90CF90BF900895B8018C2F0E94150D0A
:1034D000019761F3EECFCF93DF93EC010E94291A9D
:1034E000BE01DF91CF910C94150D1F93CF93DF9305
:1034F000EB0190916504992331F0CB01DF91CF91DD
:103500001F910C946B1A882379F0CB010E94291A21
:10351000182F682FCE010E94CF19BE01812FDF9195
:10352000CF911F910C94150DCB010E94FE19182FFD
:10353000F4CF682F80910401909105010C94461CF2
:10354000682F80910401909105010C94481C809192
:103550000401909105010C944A1C8091CE0485953C
:103560008595859508958091CE04877008959091F2
:10357000CE04977081E009F480E008958091DA0428
:1035800008959091DA04892B8093DA040895982F96
:1035900090958091DA0489238093DA04089510923B
:1035A000DA0408959091D904892B8093D904089561
:1035B000982F90958091D90489238093D9040895F8
:1035C0001092D90408959091D804892B8093D8043F
:1035D0000895982F90958091D80489238093D804DA
:1035E00008951092D80408958091CF040895089505
:1035F0000C94F71A9091CF04981721F08093CF0480
:103600000C94F81A08958091CF04882329F0109221
:10361000CF0480E00C94F81A0895E0910401F09131
:1036200005018091DA048083E0910401F0910501A5
:1036300080819091D904892B8083E0910401F091DD
:10364000050180819091D804892B80839091CF04CB
:10365000992381F0E0910401F09105018081892B8B
:10366000808380910401909105010E94131C8111B7
:103670000E94031B80910401909105010C94850F19
:1036800008950C94401B98E0899F90011124622BAF
:103690006093CE040E9433198091CE048595859560
:1036A00085950C94411B1092CE0480E00C94411B34
:1036B0009091CE04809589238093CE04282F277083
:1036C00071F4282F082E000C330B9217130639F0D3
:1036D0008595859585950E9454190C94531B0895E2
:1036E00090933301809332010895829590E09C017C
:1036F000220F331F220F331F2C7C959587959595AC
:1037000087958373282B30E0C901880F991F8A7A27
:10371000359527952575822B089590E080E00E94CD
:10372000282F21E08D3E9E4F09F020E0822F089542
:1037300082E090E00C94202F682F82E090E00C94BF
:103740002E2F83E090E00C94202F682F83E090E0F0
:103750000C942E2F84E090E00C94202F682F84E0AE
:1037600090E00C942E2FAB01BC018FE090E00C9404
:10377000402FAB01BC0183E190E00C94402F60E04E
:1037800070E0CB010C94B91B60E070E0CB010E94AB
:10379000B31B0C94BF1B6DEE7EEF90E080E00E94A7
:1037A0004C2F60E082E090E00E942E2F60E083E0EA
:1037B00090E00E942E2F1092CA041092CB04109217
:1037C000CC041092CD0460E084E090E00E942E2FA3
:1037D00060E085E090E00E942E2F60E086E090E0BF
:1037E0000E942E2F6FEF87E090E00E942E2F40E086
:1037F00050E0BA0188E090E00E94402F60E08DE048
:1038000090E00E942E2F40E050E0BA0188E190E065
:103810000E94402F60E087E190E00E942E2F0C94E0
:10382000C41B0C94CB1BFC01329697E080E09150B6
:1038300009F4089521912223D1F38F5FF8CF9C01E1
:10384000FC0132969FEF80E04191461751F09F3F77
:1038500019F4411101C0982F8F5F8630A9F79F3F5F
:1038600009F40895290F311D97FD3A95F9016283F6
:103870000895FC01329608962191261303C0DF01BA
:1038800011971C92E817F907B9F708950C941F1CBB
:103890000C94391C029626E0FC0111922A95E9F756
:1038A000089508950C94511C0E94521C80910606A4
:1038B000843049F11092DC0488E190E020E40FB6F6
:1038C000F894A895809360000FBE2093600080E07C
:1038D0000E945A0B0E94521C83B7817F846083BF71
:1038E00083B7816083BF7894889583B78E7F83BFC9
:1038F0000FB6F894A895809160008861809360006D
:10390000109260000FBE089508950C94841C0E94CC
:10391000DE140E94790F0E945A0B0C94851C1F9292
:103920000F920FB60F9211248F939F93AF93BF9373
:103930008091DC04811113C08091FC059091FD05FC
:10394000A091FE05B091FF054196A11DB11D809388
:10395000FC059093FD05A093FE05B093FF05BF9174
:10396000AF919F918F910F900FBE0F901F90189560
:1039700082E084BD93E095BD9AEF97BD80936E0081
:1039800008952FB7F8948091FC059091FD05A091C2
:10399000FE05B091FF052FBF08952FB7F8946091F1
:1039A000FC057091FD058091FE059091FF052FBFEC
:1039B0000895CF92DF92EF92FF920F931F932FB74C
:1039C000F8944091FC055091FD056091FE057091C1
:1039D000FF052FBF6A017B01EE24FF248C0130E03C
:1039E00020E0C016D106E206F30650F0481B590B42
:1039F000CA011F910F91FF90EF90DF90CF90089533
:103A000041505109F3CFAB01BC012FB7F89480911D
:103A1000FC059091FD05A091FE05B091FF052FBF1B
:103A200084179507A607B70738F0841B950BA60BDC
:103A3000B70BBC01CD0108950197A109B109F5CFDC
:103A400078941F920F920FB60F9211248F939F9329
:103A5000AF93BF938091FC059091FD05A091FE0569
:103A6000B091FF050196A11DB11D8093FC059093B7
:103A7000FD05A093FE05B093FF05BF91AF919F9107
:103A80008F910F900FBE0F901F90189581E080933B
:103A9000E00080E28093D8001092C9008FE19EE49C
:103AA0000197F1F700C0000087E090EBDC01809304
:103AB0000F0690931006A0931106B093120688E1AA
:103AC0009CE00FB6F894A895809360000FBE909389
:103AD0006000FFCFCF92DF92EF92FF920F931F9380
:103AE000CF93C0E0E82EF12C8C2F0E94FA0810E052
:103AF00000E0C82ED12CC601002E02C095958795F6
:103B00000A94E2F780FD11C00F5F1F4F08301105C6
:103B100091F7CF5FC83041F780E0CF911F910F91AF
:103B2000FF90EF90DF90CF900895602F7C2F80E082
:103B30000E94F80CE816F90639F781E0EECFCF9332
:103B4000C82F8CE20E946A1D882321F08C2FCF9110
:103B50000C946A1D80E0CF910895CF930E948D1B35
:103B6000811102C00E94111C85EC93E00E94550750
:103B7000C5E6C15009F0D5C08EEB93E00E94550711
:103B800089E20E949F1D8111F8C08AE20E949F1D58
:103B900081110E94111C85E00E949F1D81110E94CD
:103BA000461D0E94981B8093DB0487E00E949F1DA6
:103BB000882371F08BE10E949F1D882309F4BAC00D
:103BC0009091DB04892F8D7F91FF82608093DB04CD
:103BD0008091DB040E949C1B0E94AA1B90E09093A2
:103BE00001068093000680EE0E949F1D882341F00D
:103BF00090910006892F8E7F90FF81608093000650
:103C000089E30E949F1D882341F090910006892F2F
:103C10008D7F91FF82608093000682EE0E949F1D3F
:103C2000882341F090910006892F8B7F92FF84605A
:103C30008093000686EE0E949F1D882341F090919C
:103C40000006892F877F93FF88608093000683EEAC
:103C50000E949F1D882341F090910006892F8F7E3E
:103C600094FF80618093000685E30E949F1D882356
:103C700041F090910006892F8F7D95FF806280939F
:103C8000000681E30E949F1D882341F09091000669
:103C9000892F8F7B96FF80648093000681E10E94CC
:103CA0009F1D882341F090910006892F97FB87F98B
:103CB000805880930006809100060E94AE1B87E228
:103CC0000E949F1DC82F8EE10E949F1D8111C2601E
:103CD0008FE10E949F1D8111C46080E20E949F1DA0
:103CE0008111C86081E20E949F1D8111C06182E242
:103CF0000E949F1D8111C06283E20E949F1D81115D
:103D0000C06484E20E949F1D882389F1C0688C2FC3
:103D10000E94A51B6C2F70E090E080E0CF910C9486
:103D2000D1180E942D088FE39CE90197F1F700C09C
:103D300000001FCF8EE00E949F1D882339F09091D4
:103D4000DB04892F8B7F92FF846040CF80E10E944B
:103D50009F1D9091DB04882329F0892F877F93FF93
:103D6000886034CF892F8E7F90FF81602FCFC11163
:103D7000CECF0E94A11B682FCECFCF910895809106
:103D8000E00480FF12C06091090185E0689FB001E6
:103D90001124759567957595679560387105A8F537
:103DA00061157105A1F1862F089581FF09C0609109
:103DB000090185E0689FB001112475956795EDCFE5
:103DC00082FF07C06091090185E0689FB00111245E
:103DD000E4CF2091DF042223A9F0909108016091A3
:103DE000090185E0689FB00111242917B0F6269FCC
:103DF000A001279F500D1124692F70E0CA010E9475
:103E0000F22ECBCF65E070E0CECF8FE7089581E052
:103E100008958091E00480FF0CC06091070170E07C
:103E200075956795759567956115710549F1862FAB
:103E3000089581FF06C06091070170E07595679550
:103E4000F3CF6091070182FD0BC09091DF049923AD
:103E5000A1F06091060180910701961738F0682F54
:103E600070E06038710500F38FE70895899FC00105
:103E7000112470E00E94F22EF4CF61E070E0D7CF01
:103E800081E00895803F31F40E94BF1E81958093A8
:103E9000E4040895813F19F40E94BF1EF8CF823FC9
:103EA00031F40E94BF1E81958093E3040895833FFF
:103EB00019F40E94BF1EF8CF893F29F40E94091F00
:103EC0008093E50408958A3F21F40E94091F81959B
:103ED000F7CF8B3F31F40E94091F81958093E60450
:103EE00008958C3F19F40E94091FF8CF843F31F4E4
:103EF0008091E20481608093E2040895853F21F47B
:103F00008091E2048260F7CF863F21F48091E20441
:103F10008460F1CF873F21F48091E2048860EBCF89
:103F2000883F21F48091E2048061E5CF8D3F31F438
:103F30008091E00481608093E00408958E3F21F435
:103F40008091E0048260F7CF8F3FB9F78091E00461
:103F50008460F1CF803FC1F48091E40487FD10922A
:103F6000E4048091E30481110EC08091E404811186
:103F70000AC08091E504811106C08091E604811198
:103F800002C01092DF040895813F29F48091E40477
:103F900018162CF3E6CF9091E304823F29F497FFA3
:103FA000E0CF1092E304DDCF833F19F41916CCF370
:103FB000D8CF893F39F48091E504181694F6109211
:103FC000E504CFCF8A3F29F48091E50487FFC9CF6C
:103FD000F6CF8B3F39F48091E60487FFC2CF109271
:103FE000E604BFCF8C3F29F48091E6041816BCF399
:103FF000B8CF843F31F48091E2048E7F8093E20455
:10400000B0CF853F21F48091E2048D7FF7CF863FCA
:1040100021F48091E2048B7FF1CF873F21F48091DE
:10402000E204877FEBCF883F21F48091E2048F7E0A
:10403000E5CF8D3F31F48091E0048E7F8093E004E2
:1040400090CF8E3F21F48091E0048D7FF7CF8F3F9A
:1040500009F087CF8091E0048B7FF0CF8091DB0463
:1040600083FF7EC081E094E00E9455078091E204C6
:104070001F928F938CEF93E09F938F930E94EE0794
:104080008AEF93E00E9455078091E304282F082EC1
:10409000000C330B3F938F9387EF93E09F938F93A5
:1040A0000E94EE0785EF93E00E9455078091E4049B
:1040B000282F082E000C330B3F938F9382EF93E051
:1040C0009F938F930E94EE0780EF93E00E94550725
:1040D0008091E504282F082E000C330B3F938F931B
:1040E0008DEE93E09F938F930E94EE078BEE93E00B
:1040F0000E9455078091E604282F082E000C330BF0
:104100003F938F9388EE93E09F938F930E94EE07E7
:1041100085EE93E00E9455078091DF041F928F93F4
:1041200082EE93E09F938F930E94EE0780EE93E0E0
:104130000E9455078091E0041F928F938DED93E0CC
:104140009F938F930E94EE078AED93E00E9455079C
:104150008DB79EB74C960FB6F8949EBF0FBE8DBF1D
:1041600081EE94E00E94D10F0E94C11C9093DE0466
:104170008093DD0408951F93CF93DF938091DD0436
:104180009091DE040E94D91CAC019091DF04209133
:104190000A0130E0911106C020910B018AE0289FAE
:1041A000900111244217530780F08091E30410918D
:1041B000E404D091E504C091E60481110AC0111114
:1041C00061C0D1115FC0C1115DC0DF91CF911F915E
:1041D00008959F3F19F09F5F9093DF04181624F411
:1041E0000E94BF1E8093E3048091E30487FF05C013
:1041F0000E94BF1E81958093E304111624F40E944F
:10420000BF1E8093E4048091E40487FF05C00E94F0
:10421000BF1E81958093E4044091E304442379F028
:104220003091E404332359F025EB4203A00111241B
:104230005093E3043203900111243093E4041D16DB
:1042400024F40E94091F8093E5048091E50487FF10
:1042500005C00E94091F81958093E5041C1624F473
:104260000E94091F8093E6048091E60487FF05C041
:104270000E94091F81958093E604DF91CF911F91E1
:104280000C942E209F3F09F0A6CFB7CF86E0E1EE39
:10429000F4E0DF011D928A95E9F71092DF04109295
:1042A000E004089584E296E00E9455071F9281E0A1
:1042B0008F931F9285E08F9386ED95E09F938F9368
:1042C0000E94EE070F900F900F900F900F900F909D
:1042D0000895833009F445C028F4813061F08230BC
:1042E00049F10895853009F46AC008F451C0863058
:1042F00009F47CC0089580910B01482F460F552783
:10430000551F4F3F510594F4680F60930B01809146
:104310000B011F928F938FE095E09F938F930E94E4
:10432000EE070F900F900F900F9008958FEF8093EE
:104330000B01EDCF80910A01482F460F5527551FDD
:104340004F3F510554F4680F60930A0180910A01B0
:104350001F928F938DEF94E0E0CF8FEF80930A014F
:10436000F5CF80910901482F460F5527551F4F3F24
:10437000510554F4680F60930901809109011F925F
:104380008F938AEE94E0C9CF8FEF80930901F5CF28
:1043900080910801482F460F5527551F4F3F510563
:1043A00054F4680F60930801809108011F928F9365
:1043B00085ED94E0B2CF8FEF80930801F5CF809127
:1043C0000701482F460F5527551F4F3F510554F4FD
:1043D000680F60930701809107011F928F938CEB08
:1043E00094E09BCF8FEF80930701F5CF809106017A
:1043F000482F460F5527551F4F3F510554F4680F5E
:1044000060930601809106011F928F9381EA94E0E8
:1044100084CF8FEF80930601F5CF8330C9F128F464
:10442000813061F0823019F10895853009F452C06D
:1044300008F43FC0863009F45EC0089580910B01F6
:10444000681790F4861B80930B0180910B011F92DB
:104450008F9382E994E09F938F930E94EE070F90D1
:104460000F900F900F90089510920B01EECF809156
:104470000A01681750F4861B80930A0180910A0193
:104480001F928F9380E894E0E6CF10920A01F6CF56
:1044900080910901681750F4861B8093090180916F
:1044A00009011F928F938DE694E0D5CF10920901F8
:1044B000F6CF80910801681750F4861B809308019D
:1044C000809108011F928F9388E594E0C4CF1092E9
:1044D0000801F6CF80910701681750F4861B80937E
:1044E0000701809107011F928F938FE394E0B3CF70
:1044F00010920701F6CF80910601681750F4861BD1
:1045000080930601809106011F928F9384E294E0CC
:10451000A2CF10920601F6CFCF93C82F1F928F9390
:1045200089E297E09F938F930E94EE0761E070E02D
:1045300080E090E004C0660F771F881F991FCA951E
:10454000D2F70E94D1180F900F900F900F90CF913B
:104550000C94DE14CF938B3109F4E2C108F078C1DA
:104560008B3009F49FC108F042C1863009F4ADC117
:1045700048F4853009F47AC180EB9BE00E9455072E
:1045800080E0B4C1873009F4B3C18830A9F78FE463
:104590009CE00E94550780EA9BE00E9455070E941C
:1045A000A11B1F928F938DE99BE09F938F930E9495
:1045B000EE078BE99BE00E9455070E94981BC82FCD
:1045C00088E89BE00E9455071F92CF9383E89BE009
:1045D0009F938F930E94EE0781E89BE00E9455070E
:1045E00087E79BE00E9455078C2F81701F928F9365
:1045F00084E79BE09F938F930E94EE0782E79BE006
:104600000E94550788E69BE00E945507C1FB88275A
:1046100080F91F928F9385E69BE09F938F930E9472
:10462000EE0783E69BE00E94550787E59BE00E942A
:104630005507C2FB882780F91F928F9384E59BE082
:104640009F938F930E94EE0782E59BE00E9455079F
:1046500089E49BE00E945507C3FBCC27C0F91F9259
:10466000CF9386E49BE09F938F930E94EE0784E4B0
:104670009BE00E9455070E94AA1BC82F80E39BE085
:104680000E9455071F92CF938BE29BE09F938F93DD
:104690000E94EE0789E29BE00E94550780E19BE0C3
:1046A0000E9455078C2F81701F928F938DE09BE0A5
:1046B0009F938F930E94EE078DB79EB780960FB69B
:1046C000F8949EBF0FBE8DBF8BE09BE00E94550704
:1046D00084EF9AE00E945507C1FB882780F91F925A
:1046E0008F9381EF9AE09F938F930E94EE078FEE56
:1046F0009AE00E9455078DED9AE00E945507C2FB93
:10470000882780F91F928F938AED9AE09F938F9369
:104710000E94EE0788ED9AE00E94550786EC9AE029
:104720000E945507C3FB882780F91F928F9383EC63
:104730009AE09F938F930E94EE0781EC9AE00E948B
:10474000550787EB9AE00E945507C4FB882780F93C
:104750001F928F9384EB9AE09F938F930E94EE07B2
:1047600082EB9AE00E94550780EA9AE00E94550782
:10477000C5FB882780F91F928F938DE99AE09F935C
:104780008F930E94EE078BE99AE00E9455078FE70E
:104790009AE00E945507C6FB882780F91F928F93E5
:1047A0008CE79AE09F938F930E94EE078AE79AE046
:1047B0000E94550782E79AE00E945507C7FBCC2765
:1047C000C0F91F92CF938FE69AE09F938F930E9438
:1047D000EE078DE69AE00E9455078DB79EB74C967E
:1047E0000FB6F8949EBF0FBE8DBF81E07FC08031B1
:1047F00009F4AEC080F48E3009F0BECE9091DB0497
:10480000892F8B7F92FF84608093DB0482FF9DC0A1
:104810008BED9BE091C0863109F4AAC0893109F083
:10482000ABCE84E998E00E9455078CE698E00E94A0
:10483000550786E398E00E94550782E098E00E94C1
:10484000550782EC97E00E94550787E997E02CC056
:104850008A32A1F1E8F4873269F128F48E3108F444
:104860008BCE8D5128C0893209F086CE0E94DE148D
:104870008EE19CE00E9455079FEF23ED80E391506D
:1048800020408040E1F700C000000E94461DADCFEF
:10489000833468F48A3308F0A2C0853359F0883332
:1048A00009F06ACE8AEC98E00E9455079ECF8334C7
:1048B00009F062CE80E00E948C2297CF8EE39CE0CC
:1048C0000E9455070E94111C90CF8091DB04817FCC
:1048D0008E7F8093DB0483EA98E00E9455078AE389
:1048E0009CE00E94550781E08093E804CF910895F1
:1048F0009091DB04892F8E7F90FF81608093DB0491
:1049000080FF03C082E19CE0CFCF85E09CE00E9465
:1049100055078091DB04897F877F8093DB0465CF17
:104920009091DB04892F8D7F91FF82608093DB045F
:1049300081FF08C088EF9BE00E9455078091DB044F
:104940008160EBCF8AEE9BE0AFCF8BEC9BE0ACCFEE
:104950009091DB04892F877F93FF88608093DB042D
:1049600083FF03C08FEB9BE0E7CF82EB9BE09CCF04
:1049700089E897E00E9455070E94790F1F928F9354
:104980008FE697E09F938F930E94EE078091160128
:104990001F928F9388E597E09F938F930E94EE0775
:1049A0008091F7041F928F9385E497E09F938F93F4
:1049B0000E94EE070E94CD1C9F938F937F936F936D
:1049C0008EE297E09F938F930E94EE078DB79EB77C
:1049D00042960FB6F8949EBF0FBE8DBF06CF895387
:1049E0006ACF80E008950C94F1248E518A3030F41F
:1049F000E82FF0E0E85EFE4F8081089580E00895A2
:104A0000CF93C82F8091E8048130B9F038F082301C
:104A100009F447C01092E80480E00DC00E94BE1A5D
:104A20008232D1F78C2F0E94F12481111BC08C2F70
:104A30000E94AA228170CF9108950E94BE1A8232EC
:104A400089F38C2F0E94F32481111BC0C431D9F04B
:104A500060F4CB3071F0C031D1F08FE197E00E946B
:104A6000550713C081E090E0E5CFC93261F0C8334B
:104A7000A1F783EA98E00E94550785E297E00E943B
:104A8000550781E0D7CF1092E80480E0D3CF0E9491
:104A9000522181E297E00E94550782E08093E8046A
:104AA000F0CFC432C8F4CE3108F0BEC0CB30E1F054
:104AB00040F4C73009F4CCC083EC95E00E94550760
:104AC00026C0C331C1F1C431B9F78091E70488230E
:104AD00051F11092E7040AC0CB3409F4B7C0C8F40E
:104AE000C93299F3C83341F70E9452218091E704FB
:104AF000882309F4C4C01F928F938DEB95E09F9398
:104B00008F930E94EE070F900F900F900F9081E00F
:104B100092CFC13509F494C0C23509F48BC0CE34AC
:104B200059F66AE08EC082ED95E00E94550781E05B
:104B30008093E80480CF8CEA95E00E9455078AE9CB
:104B400095E00E94550780910B011F928F9387E992
:104B500095E09F938F930E94EE0785E995E00E9470
:104B6000550783E895E00E94550780910A011F923E
:104B70008F9380E895E09F938F930E94EE078EE7D6
:104B800095E00E9455078FE695E00E9455078091B9
:104B900009011F928F938CE695E09F938F930E945B
:104BA000EE078AE695E00E94550789E595E00E94A8
:104BB0005507809108011F928F9386E595E09F939A
:104BC0008F930E94EE0784E595E00E9455078FE3DE
:104BD00095E00E945507809107011F928F938CE307
:104BE00095E09F938F930E94EE078AE395E00E94E1
:104BF000550783E295E00E945507809106011F92B8
:104C00008F9380E295E09F938F930E94EE078EE151
:104C100095E00E9455078DB79EB748960FB6F89459
:104C20009EBF0FBE8DBF62CF8C2F0E94F524809354
:104C3000E7045CCF61E08091E7040E94692156CFD0
:104C400061E08091E7040E940D2250CF6AE0F3CF2B
:104C50008EE180930B0182E380930A018AE08093C6
:104C6000090184E18093080188E08093070188E2CC
:104C70008093060185EC95E00E94550737CF8AEBBB
:104C800095E01CCF8091F60408959FB7F894109298
:104C9000ED049FBF90910606943009F049C0209121
:104CA000E9002F709091EC0090FD30C090E0922BC5
:104CB00023E02093E9002091EB0020FF36C02091F3
:104CC000EE0027FF32C02091E904222321F0209139
:104CD000E80025FF2AC01092E90426E03091E800A0
:104CE00035FF16C08093F1008091E80085FD29C052
:104CF0008091E80080FFFCCF8091E8008E77809360
:104D0000E8009F709093E90080E0089590E8CFCF8D
:104D100030910606343049F43091EB0035FD05C082
:104D2000215041F481E08093E9049F709093E90061
:104D30008FEF0895EFE9FFE03197F1F700C0000031
:104D4000CDCF8FB7F89421E02093ED048FBFD9CF5A
:104D5000DF92EF92FF920F931F93CF93DF9300D0D8
:104D60001F92CDB7DEB78C010E94162AD82E8DEF88
:104D70008D0D823008F078C08091EB049091EC04A6
:104D80008017910709F44EC01093EC040093EB04D4
:104D9000023E110509F451C0093E110509F451C044
:104DA0000A3E110509F450C0053B110509F44FC036
:104DB000063B110509F450C0073B110509F450C02A
:104DC000E12C48E0F42E0C3C1105D1F00D3C11050E
:104DD00009F43FC00A3881E01807F1F1E12C90E8AE
:104DE000F92E043991E0190759F0013282E01807D1
:104DF000B9F1E12C033292E0190709F5FF24F3948D
:104E00008DEF0E94AE2E83E00E94AE2E83E00E94C2
:104E1000AE2E8E2D0E94AE2E8F2D0E94AE2E84E0DF
:104E2000D81629F10F900F900F90DF91CF911F911D
:104E30000F91FF90EF90DF90089570E4E72EF12C32
:104E4000DFCF60E1E62EFBCF50E2E52EF8CFE12C7C
:104E5000D5CF30E8E32EF3CFE12C22E0F22ED0CFF5
:104E6000E12C84E0F82ECCCF92E0D912DBCF84E0A5
:104E700089831B830A8382E08093E9008FEF9091FE
:104E8000E800815095FD06C095ED9A95F1F7000078
:104E90008111F5CF8091E80085FFC4CF50E040E05C
:104EA00063E070E0CE0101960E941D2A8091E80027
:104EB0008E778093E800B6CFCF93DF9300D01F9218
:104EC000CDB7DEB720910606243031F523E02983E3
:104ED000805891099B838A8382E08093E9008FEF59
:104EE0009091E800815095FD06C095ED9A95F1F7F7
:104EF00000008111F5CF8091E80085FF0DC050E0E2
:104F000040E063E070E0CE0101960E941D2A80918E
:104F1000E8008E778093E8000F900F900F90DF915C
:104F2000CF9108951F93CF93DF93EC010E94162A2F
:104F3000182F8DEF810F823008F58DEF0E94AE2E75
:104F400080E00E94AE2E83E00E94AE2E89810E94F6
:104F5000AE2E8A810E94AE2E8B810E94AE2E8C8155
:104F60000E94AE2E8D810E94AE2E80E00E94AE2E59
:104F7000143031F0DF91CF911F9108951230D1F7A5
:104F800082E08093E9008FEF9091E800815095FDD9
:104F900006C095ED9A95F1F700008111F5CF80914B
:104FA000E80085FFE7CF50E040E066E070E0CE012A
:104FB0000E941D2A8091E8008E778093E800DACF66
:104FC000CF92DF92EF92FF921F93CF93DF93EC018A
:104FD0000E94162A182F8DEF810F823048F58DEF31
:104FE0000E94AE2E89E00E94AE2E81E00E94AE2E7D
:104FF00088810E94AE2E89810E94AE2E7E0182E0C1
:10500000E80EF11C6E0198E0C90ED11CF7018191E8
:105010007F010E94AE2EEC14FD04C1F7143051F054
:10502000DF91CF911F91FF90EF90DF90CF90089587
:105030001230B1F781E08093E9008FEF9091E800A2
:10504000815095FD06C0F5EDFA95F1F7000081114C
:10505000F5CF8091E80085FFE3CF50E040E068E0C5
:1050600070E0CE010E941D2A8091E8008E77809327
:10507000E80088E0FE01AEEEB4E001900D928A9562
:10508000E1F7CECF8BE79CE00E94550780910506A3
:10509000811109C00E94AD2B0E940A2C8091E20070
:1050A00084608093E200089587E79CE00E945507A2
:1050B00010920506089583E79CE00C9455078FE64F
:1050C0009CE00C9455078BE69CE00E9455070C94DD
:1050D000871C2091EA042F5F822F62E30E94E62E54
:1050E000992319F02093EA0408951092EA0480911C
:1050F000ED048823E9F0809106068430B9F490919C
:10510000E9009F708091EC0080FD13C080E0892B46
:1051100093E09093E9009091EB0090FF04C0909190
:10512000EE0097FD0AC08F708093E9001092ED04A5
:10513000089580E8ECCF1092F1009091E80095FD81
:10514000FACF9091E80090FFEECF9091E8009E7723
:105150009093E800E8CF42E061EC81E00E942B2BC5
:1051600042E261EC82E00E942B2B42E261EC83E0A0
:105170000C942B2B80910806833009F462C030F424
:105180008130D9F1823009F49EC008958A3009F443
:105190008AC08B3009F470C0893009F051C0809109
:1051A0000706813209F04CC080910B0690910C06E5
:1051B000029708F045C08091E800877F8093E8005F
:1051C0008091E80082FF38C08091F3009091F20056
:1051D000892798278927029729F48091F1008B7FEE
:1051E000813021F48091F1008093F6048091E800F1
:1051F0008B778093E8000C945F2B80910706813AAF
:10520000F9F48091E800877F8093E80080910B0695
:1052100090910C06892B61F468E08EEE94E070E0CA
:105220000E946C2A8091E8008B778093E8000895B3
:1052300060E090E080E0F3CF809106068111C0CF5E
:10524000089580910706813AD9F780910B069091D5
:105250000C06892BA9F78091E800877F8093E800EE
:105260008091E80080FFFCCF809116018093F100CF
:105270008091E8008E77BDCF80910706813201F7DB
:1052800080910B0690910C06892BD1F68091E80055
:10529000877F8093E8000E945F2B809109068093AE
:1052A00016010C94DE1480910706813249F6809134
:1052B000E800877F8093E8000E945F2B80910A06B8
:1052C0008093F704089580910706813A09F0B8CFDA
:1052D0008091E800877F8093E8008091E80080FF5C
:1052E000FCCF8091F704C2CF84B7877F84BF0FB60D
:1052F000F894A89580916000886180936000109276
:1053000060000FBE80E880936100109261000E94EF
:1053100019100E94AD2B0E940A2C8091E20084603B
:105320008093E20085E496E20E94701B78940E94CC
:10533000B02E0E94922E0E9421108CE091E00E94DB
:10534000740F8AE59CE00E9455070E945110FDCF22
:105350000C94AA29292F33272330310579F158F4E9
:1053600021303105F1F02230310519F190E080E073
:1053700030E020E01AC021323105C9F12232310576
:10538000A9F76330710590F7FB01EE0FFF1FEB5D8E
:10539000FE4F208131816E5D7E4FFB01808190E068
:1053A00004C082E190E026E03DE0FA0131832083F1
:1053B00008958BE590E02BEA3CE0F7CF9927813008
:1053C000910579F040F08230910571F0039771F604
:1053D000EFE7FCE002C0E7EAFCE0849190E09F0187
:1053E000E4CFE9E9FCE0F9CFE5E8FCE0F6CF633093
:1053F000710508F0BBCF660F771FFB01E55DFE4F1F
:105400002081318189E090E0D0CF0895CF93C82FDB
:105410000E94052AC0931701CF9108958091060636
:10542000843011F083E0089582E00895809117019F
:10543000811102C00C940E2A0895AF92BF92CF92B0
:10544000DF92FF920F931F93CF93DF936C01EB01D9
:105450008A010E947E2BF82E811123C001151105AF
:1054600039F0F80180819181C81BD90BC80ED91E73
:10547000B12CA12C2097A9F08091E80085FD22C0D5
:105480008091E8008E778093E80001151105A1F066
:10549000F80180819181A80EB91EB182A08285E0B9
:1054A000F82E8F2DDF91CF911F910F91FF90DF90FC
:1054B000CF90BF90AF9008950E947E2B8823D1F2A9
:1054C000F82EEFCFF60181916F018093F1002197C3
:1054D000FFEFAF1ABF0ACECFFC0180910D0690916D
:1054E0000E0686179707A0F06115710529F49091B3
:1054F000E8009E779093E80090E06115710551F403
:10550000911108C08091E80082FF35C080E00895C5
:10551000BC01F2CF809106068823C9F18530C9F11C
:105520008091E80083FD31C08091E80082FDEACFE0
:105530008091E80080FFE1CF2091F3008091F2009C
:10554000322F282F6115710519F02830310558F0D8
:1055500091E02830310509F090E02091E8002E77A5
:105560002093E800CACF81918093F10061507109C6
:105570002F5F3F4FE7CF80910606882341F08530AB
:1055800041F08091E80083FFBDCF81E0089582E083
:10559000089583E00895FC0180910D0690910E0618
:1055A00086179707A0F06115710529F48091E8002E
:1055B0008E778093E80090E06115710551F49111A8
:1055C00008C08091E80082FF36C080E00895BC01E9
:1055D000F2CF809106068823D1F18530D1F18091F8
:1055E000E80083FD32C08091E80082FDEACF80911F
:1055F000E80080FFE1CF2091F3008091F200322F8C
:10560000282F6115710519F02830310558F091E007
:105610002830310509F090E08091E8008E77809382
:10562000E800CACF84918093F100319661507109EE
:105630002F5F3F4FE6CF80910606882341F08530EB
:1056400041F08091E80083FFBCCF81E0089582E0C3
:10565000089583E00895982F973028F08F708093F5
:10566000E90081E008959093E900242F762F50E01F
:10567000981731F07091EC002091ED005091F000FE
:1056800021FD02C09F5FE8CF3091EB003E7F309359
:10569000EB003091ED003D7F3093ED003091EB0059
:1056A00031603093EB007093EC002093ED00509349
:1056B000F0002091EE0027FDE5CF80E00895809175
:1056C000070687FF13C08091E80082FF06C0809123
:1056D000E8008B778093E80004C080910606811172
:1056E000F2CF0895809106068823D9F38091E800CF
:1056F00080FFF8CF8091E8008E77ECCF2091E40016
:105700003091E50085E69091EC0090FF06C0909105
:10571000E80090FF06C080E008959091E80092FDB7
:10572000FACF90910606992391F0953091F09091DF
:10573000EB0095FD10C04091E4005091E500241766
:10574000350709F381509A01F1F684E0089582E06B
:10575000089583E0089581E008950E941B2C0E9423
:10576000232CE0EEF0E0808181608083E8EDF0E0C2
:1057700080818F77808319BCA7EDB0E08C918E7FFC
:105780008C9380818F7E80831092050608950F93FD
:105790001F93CF93DF930E941B2C0E94232CC8EDF4
:1057A000D0E088818F77888388818068888388812A
:1057B0008F7D888319BC1092060610920206109203
:1057C00004061092030600EE10E0F80180818B7F42
:1057D000808388818160888342E060E080E00E946D
:1057E0002B2BE1EEF0E080818E7F8083E2EEF0E013
:1057F000808181608083808188608083F8018081DE
:105800008E7F8083888180618883DF91CF911F9113
:105810000F910895E8EDF0E080818F7E8083E7EDC1
:10582000F0E080818160808384E082BF81E08093AA
:1058300005060C94C72BE8EDF0E080818E7F808315
:105840001092E20008951092DA001092E10008959B
:105850001F920F920FB60F9211242F933F934F93E5
:105860005F936F937F938F939F93AF93BF93EF93C8
:10587000FF938091E10082FF0BC08091E20082FFE4
:1058800007C08091E1008B7F8093E1000E9469282E
:105890008091DA0080FF19C08091D80080FF15C088
:1058A0008091DA008E7F8093DA008091D90080FFAA
:1058B00094C080E189BD82E189BD09B400FEFDCFBD
:1058C00081E0809306060E9442288091E10080FFDB
:1058D00019C08091E20080FF15C08091E2008E7FA8
:1058E0008093E2008091E20080618093E2008091E9
:1058F000D80080628093D80019BC85E080930606AA
:105900000E945F288091E10084FF29C08091E2001D
:1059100084FF25C080E189BD82E189BD09B400FE14
:10592000FDCF8091D8008F7D8093D8008091E100D9
:105930008F7E8093E1008091E2008F7E8093E20071
:105940008091E20081608093E200809102068823CA
:1059500009F449C084E0809306060E946328809180
:10596000E10083FF29C08091E20083FF25C0809180
:10597000E100877F8093E10082E080930606109229
:1059800002068091E1008E7F8093E1008091E20029
:105990008E7F8093E2008091E20080618093E2003C
:1059A00042E060E080E00E942B2B8091F000886054
:1059B0008093F0000E945B28FF91EF91BF91AF911F
:1059C0009F918F917F916F915F914F913F912F9117
:1059D0000F900FBE0F901F90189519BC10920606DD
:1059E0000E94542872CF8091E30087FD02C081E0BD
:1059F000B2CF83E0B0CF1F920F920FB60F92112457
:105A00002F933F934F935F936F937F938F939F93C6
:105A1000AF93BF93CF93EF93FF93C091E900CF7003
:105A20008091EC001092E9008091F000877F8093D4
:105A3000F00078940E94372D1092E9008091F000D8
:105A400088608093F000C093E900FF91EF91CF91BF
:105A5000BF91AF919F918F917F916F915F914F9186
:105A60003F912F910F900FBE0F901F9018951F938D
:105A7000CF93DF93CDB7DEB7AA970FB6F894DEBF0A
:105A80000FBECDBFE7E0F6E08091F100819326E004
:105A9000EF30F207C9F70E94BA288091E80083FF2F
:105AA00044C080910706909108069A3008F03DC0E6
:105AB000E92FF0E0E25AF24D0C94062F682D8E2D5E
:105AC000952D8E2D952DEC2D0E2E952D652E722E4D
:105AD000803889F0823849F580910B068F708730C5
