:100000000C9402070C9449070C9449070C94490777
:100010000C9449070C9449070C9449070C94490720
:100020000C9449070C9449070C94972B0C946A2C58
:100030000C94A01C0C9449070C9449070C94490794
:100040000C9449070C9449070C9449070C944907F0
:100050000C9449070C94311D0C9449070C944907E2
:100060000C9449070C9449070C9449070C944907D0
:100070000C9449070C9449070C9449070C944907C0
:100080000C9449070C9449070C9449070C944907B0
:100090000C9449070C9449070C9449070C944907A0
:1000A0000C9449070C9449070C94490725303258A1
:1000B0003A20253038620A000A722F63203031322C
:1000C00033343536370A0064796E616D6963206DAB
:1000D0006163726F3A2069676E6F72696E67206D37
:1000E0006163726F20706C6179206B65792077682D
:1000F000696C65207265636F7264696E670D0A00D2
:1001000064796E616D6963206D6163726F3A20730B
:100110006C6F742025642073617665642C206C6597
:100120006E6774683A2025640A0064796E616D69AF
:1001300063206D6163726F3A207472696D6D696ED0
:1001400067206120747261696C696E67206B6579E4
:100150002D646F776E206576656E740D0A00647984
:100160006E616D6963206D6163726F3A20736C6FAD
:1001700074202564206C656E6774683A2025642FAE
:1001800025640A0064796E616D6963206D61637234
:100190006F3A2069676E6F72696E672061206C65C7
:1001A0006164696E67206B65792D75702065766571
:1001B0006E740D0A0064796E616D6963206D616310
:1001C000726F3A20736C6F7420256420706C6179B3
:1001D0006261636B0A0064796E616D6963206D61B1
:1001E00063726F207265636F7264696E673A207321
:1001F0007461727465640D0A001F0014421A0016BF
:100200000004001D001B000600200021001500084E
:10021000000700090019000500220023001C001738
:10022000000A000B00110000001E0035002B002901
:1002300061E100E200E3002C002400250018000C1E
:10024000000E000D0010000000310029002A0028D7
:10025000001150E500E600E7002600270012001319
:100260000033410F00360000002D002E0030002F1B
:100270000034003800370000003B000100F45C014E
:100280000001000100010001003C003D000100F5FB
:100290005C01000100010001003E003F000100017F
:1002A0000001005000010000003A00005C01000164
:1002B000003900AA00A900480040004100010001E7
:1002C0000052005100010000000100010001000186
:1002D0000001000100010001004200430001000193
:1002E0000001004F00010000004400450001000132
:1002F00000010001000100000000000000F15C00AE
:10030000000000000000000000000000000000F2FB
:100310005C00000000000000000000000000000081
:1003200000000000000000000000000000000000CD
:1003300000000000000000F35C000000000000006E
:1003400000000000000000000000000000000000AD
:10035000000000000000000000000000000000009D
:10036000000000000000000000000000000000008D
:1003700000000000000000000044454255473A20BC
:10038000656E61626C65642E0A000A002530325881
:1003900020006B6579626F6172645F7265706F7265
:1003A000743A20000A0025303258006B6579626F7C
:1003B0006172645F7365745F6C65643A2000646F9A
:1003C0006E652E0A00626F6F746D616769632073DA
:1003D00063616E3A202E2E2E2000290A002575001A
:1003E0002F002575005D280025640020002564008D
:1003F000200025640020002564007C002530325850
:10040000006D6F7573656B6579205B62746E7C78C7
:100410002079207620685D287265702F61636C29D1
:100420003A205B006D6B5F776865656C5F74696D22
:10043000655F746F5F6D6178203D2025640A006DF3
:100440006B5F776865656C5F6D61785F737065651C
:1004500064203D2025640A006D6B5F74696D655FE3
:10046000746F5F6D6178203D2025640A006D6B5FBD
:100470006D61785F7370656564203D2025640A00B6
:100480006D6B5F696E74657276616C203D202564CA
:100490000A006D6B5F64656C6179203D2025640AFC
:1004A000006D6B5F776865656C5F74696D655F741F
:1004B0006F5F6D6178203D2025640A006D6B5F776A
:1004C0006865656C5F6D61785F7370656564203D1C
:1004D0002025640A006D6B5F74696D655F746F5FE2
:1004E0006D6178203D2025640A006D6B5F6D617839
:1004F0005F7370656564203D2025640A006D6B5F45
:10050000696E74657276616C203D2025640A006D09
:100510006B5F64656C6179203D2025640A000A00E8
:10052000257500363A20776865656C5F74696D657E
:100530005F746F5F6D61783A20000A0025750035A1
:100540003A20776865656C5F6D61785F737065658B
:10055000643A20000A00257500343A2074696D65FC
:100560005F746F5F6D61783A20000A002575003373
:100570003A206D61785F73706565643A20000A0007
:10058000257500323A20696E74657276616C286D4B
:1005900073293A20000A00257500313A2064656C01
:1005A0006179282A31306D73293A20000A092D20FB
:1005B00056616C756573202D0A004D3E004D256413
:1005C0003E20003F007365742064656661756C743D
:1005D0000A00433E200077686572652064656C748C
:1005E000613A20637572736F723D25642C207768C1
:1005F00065656C3D25640A53656520687474703ABE
:100600002F2F656E2E77696B6970656469612E6F37
:1006100072672F77696B692F4D6F7573655F6B65B7
:1006200079730A000A092D204D6F7573656B657922
:10063000202D0A4553432F713A09717569740A31A7
:100640003A0964656C6179282A31306D73290A3260
:100650003A09696E74657276616C286D73290A3384
:100660003A096D61785F73706565640A343A09749C
:10067000696D655F746F5F6D61780A353A097768F7
:1006800065656C5F6D61785F73706565640A363AA5
:1006900009776865656C5F74696D655F746F5F6D20
:1006A00061780A0A703A097072696E742076616C1A
:1006B0007565730A643A09736574206465666175CB
:1006C0006C74730A75703A092B310A646F776E3A4D
:1006D000092D310A706775703A092B31300A70673D
:1006E000646F776E3A092D31300A0A73706565645C
:1006F000203D2064656C7461202A206D61785F73F1
:1007000070656564202A2028726570656174202FE9
:100710002074696D655F746F5F6D6178290A003FB1
:10072000004D3E2000433E20004C25640A007469C1
:100730006D65725F72656164333228293A20253015
:10074000346C580A006B6579626F6172645F69642A
:100750006C653A2025580A006B6579626F61726496
:100760005F70726F746F636F6C3A2025580A00686F
:100770006F73745F6B6579626F6172645F6C6564DF
:100780007328293A2025580A000A092D205374613C
:10079000747573202D0A004743433A20372E342EB8
:1007A00030204156522D4C4942433A20322E302EB1
:1007B00030204156525F415243483A2061767235AB
:1007C0000A004F5054494F4E533A204C5546412051
:1007D000424F4F544D41474943204D4F5553454B90
:1007E00045592045585452414B455920434F4E538B
:1007F0004F4C4520434F4D4D414E44203430393607
:100800000A004255494C443A2022302E362E3334C9
:10081000302D33372D6761326365633022202830F5
:10082000393A31323A323620417072203234203235
:10083000303139290A005649443A20307846454536
:100840004428712E6D2E6B29205049443A2030786F
:10085000434146452848484B42206D6F6429205645
:1008600045523A203078303130340A004445534301
:100870003A20712E6D2E6B206B6579626F61726408
:10088000206669726D7761726520666F72204848D4
:100890004B420A000A092D2056657273696F6E205B
:1008A0002D0A000A092D20436F6E736F6C65202D91
:1008B0000A4553432F713A09717569740A6D3A09F3
:1008C0006D6F7573656B65790A000A092D204D619E
:1008D000676963202D0A443A094465627567204DB3
:1008E00065737361676520546F67676C650A583A72
:1008F000094D6174726978204465627567204D6F97
:10090000646520546F67676C65202D2053686F778E
:10091000206B65797072657373657320696E206DE5
:10092000617472697820677269640A4B3A094B6591
:1009300079626F61726420446562756720546F67E5
:10094000676C65202D2053686F77206B6579707216
:10095000657373207265706F72740A4D3A0944654D
:10096000627567204D6F75736520546F67676C659E
:100970000A563A0956657273696F6E0A533A0953FB
:1009800074617475730A433A0941637469766174DA
:100990006520436F6E736F6C65204D6F64650A460A
:1009A000312D4631303A0953776974636820746F8A
:1009B000204C6179657220302D3920284631302055
:1009C0003D204C30290A302D393A09537769746338
:1009D0006820746F204C6179657220302D390A4788
:1009E000524156453A0953776974636820746F2001
:1009F0004C6179657220302028616C7465726E617B
:100A00007465290A423A094A756D7020746F204254
:100A10006F6F746C6F616465720A4553433A094A9B
:100A2000756D7020746F20426F6F746C6F616465B8
:100A3000722028616C7465726E617465290A453A8A
:100A4000095072696E7420454550524F4D205365D0
:100A50007474696E67730A4253504143453A0943BF
:100A60006C65617220454550524F4D0A000A0025C1
:100A700075002E6E6B726F3A20000A002575002EED
:100A8000737761705F6261636B736C6173685F62DF
:100A900061636B73706163653A20000A002575001D
:100AA0002E737761705F67726176655F6573633A15
:100AB00020000A002575002E6E6F5F6775693A2069
:100AC000000A002575002E737761705F72616C7487
:100AD0005F726775693A20000A002575002E7377EA
:100AE00061705F6C616C745F6C6775693A20000AB5
:100AF000002575002E636170736C6F636B5F746F9C
:100B00005F636F6E74726F6C3A20000A0025750087
:100B10002E737761705F636F6E74726F6C5F636169
:100B200070736C6F636B3A20000A002530325800F6
:100B30006B65796D61705F636F6E6669672E726158
:100B4000773A20000A002575002E6D6F7573653A9F
:100B500020000A002575002E6B6579626F61726452
:100B60003A20000A002575002E6D61747269783A8A
:100B700020000A002575002E656E61626C653A20C2
:100B8000000A00253032580064656275675F636F44
:100B90006E6669672E7261773A20000A002575003B
:100BA00064656661756C745F6C617965723A20008A
:100BB0003F000A6D6F7573653A206F66660A000A1A
:100BC0006D6F7573653A206F6E0A000A6B65796206
:100BD0006F6172643A206F66660A000A6B6579621B
:100BE0006F6172643A206F6E0A000A6D61747269F7
:100BF000783A206F66660A000A6D61747269783A05
:100C0000206F6E0A000A64656275673A206F666637
:100C10000A000A64656275673A206F6E0A000A0A64
:100C20004A756D70696E6720746F20626F6F746CA7
:100C30006F616465722E2E2E2000433E2000436CAF
:100C4000656172696E6720454550524F4D0A0065D7
:100C500065636F6E6669673A0A005B735D004B659A
:100C600079626F6172642073746172742E0A005B22
:100C7000575D005B535D005B525D005B445D005B54
:100C8000435D000403300000001203480048004B9D
:100C900000420020006D006F00640000000C037132
:100CA000002E006D002E006B0000000403090409F3
:100CB000025B00030100A0FA090400000103010126
:100CC00000092111010001224000070581030800ED
:100CD0000A090401000103000000092111010001BB
:100CE0002285000705820320000A0904020002038E
:100CF00000000009211101000122220007058303E1
:100D0000200001070503032000011201100100006B
:100D10000008EDFEFECA0401010203010631FF09CD
:100D200074A1010975150026FF0095207508810240
:100D30000976150026FF00952075089102C005016F
:100D40000902A10185020901A1000509190129056E
:100D50001500250195057501810295017503810135
:100D60000501093009311581257F95027508810635
:100D700009381581257F950175088106050C0A380B
:100D8000021581257F950175088106C0C0050109FE
:100D900080A10185031601002603001A81002A8321
:100DA00000751095018100C0050C0901A1018504A1
:100DB000160100269C021A01002A9C02751095015A
:100DC0008100C005010906A101050719E029E71501
:100DD00000250195087501810295017508810105BD
:100DE0000819012905950575019102950175039171
:100DF000010507190029FF150026FF009506750853
:100E00008100C00011241FBECFEFDAE0DEBFCDBFEE
:100E100004B603FE27C080910A0590910B05A091AE
:100E20000C05B0910D058730904BA740B04BD1F425
:100E300010920A0510920B0510920C0510920D05E8
:100E400014BE84B7877F84BF0FB6F894A8958091AD
:100E50006000886180936000109260000FBEE0E047
:100E6000F8E3099511E0A0E0B1E0E6E3FDE502C09A
:100E700005900D92A033B107D9F725E0A0E3B1E0CA
:100E800001C01D92AA30B207E1F70E94BA280C9463
:100E9000992E0C940000FF93EF93E0913001F091B4
:100EA0003101309709F00995EF91FF910895FC0108
:100EB0008591803011F0EFDFFBCF0895FF27E0E24E
:100EC00030E247FF0CC0419597FF09C0EDE2609505
:100ED000709580959095611D711D811D911D27FF55
:100EE00002C0219530E350E2AA27660F771F881FC2
:100EF000991FAA1FA41710F0A41B63955A95A9F770
:100F0000AA3008F0A95FA05DAF93F3956115710554
:100F10008105910541F7ED3211F4EF93F395F21746
:100F200018F43F93F395FBCF8F91B5DFFA95E1F776
:100F30000895E991F9918591803021F0853219F079
:100F4000AADFF9CF089520E0E89455915532C1F316
:100F5000503311F4689455915A3348F4505390F338
:100F6000220F022E220F220F200D250FF4CF0EF498
:100F7000219589919991533619F3533729F15335B6
:100F800059F1BC0188279927E8945C3621F48991AE
:100F9000999168945591543639F446EF7EF077FF75
:100FA0000DC08FEF9FEF0AC055374AE039F0583532
:100FB00040E121F0523642E009F00895FF93EF93AB
:100FC0007DDFEF91FF91B7CFFF93EF93FC0181910C
:100FD0008030B9F360DFFBCFFF93EF9368DFF1CF91
:100FE000DF93CF93CDB7DEB72596A3DFCF91DF9107
:100FF00008958FEF84B980E485B957985F9A2E9A47
:101000002F98AAE3B1E01C9211961C9211971296A8
:101010001C92129713961C92139714961C92149775
:1010200015961C92159716961C92169717961C9259
:101030001797E2E3F1E01082118212821382148288
:10104000158216821782B0934501A0934401F09354
:101050004301E0934201089508950C942C08EF9207
:10106000FF920F931F93CF93DF9380914201909152
:101070004301209144013091450130934301209375
:1010800042019093450180934401D0E0C0E001E02B
:1010900010E0EE24EA94F12C60E030E020E085B12D
:1010A000422F807C8C2B862B85B9AAE1AA95F1F77B
:1010B00000C0E0914201F0914301EC0FFD1F8081DF
:1010C00090E0022E02C0959587950A94E2F780FD84
:1010D0002F9AB5E3BA95F1F7000076B52E98EAE1BC
:1010E000EA95F1F700C0C80101C0880F4A95EAF7F8
:1010F0004091440150914501FA01EC0FFD1F4F9BB7
:1011000070C0809590818923808386B5E72FF0E0B9
:10111000871708F469C086B590E08E1B9F0B069771
:1011200058F0E0914201F0914301EC0FFD1F8081E6
:101130004C0F5D1FFA018083FAE1FA95F1F700C0C8
:101140002F982E9A8BE291E00197F1F700C00000F2
:101150002F5F3F4F685F2830310509F0A0CFA09185
:101160004401B0914501AC0FBD1FE0914201F091E7
:101170004301EC0FFD1F9C918081981751F00E9454
:10118000DE1C609346017093470180934801909361
:1011900049012196C830D10509F07ECF8091010523
:1011A000853021F080910105811111C060914601C7
:1011B0007091470180914801909149010E94141D4E
:1011C000613177428105910510F00E94511C0E9407
:1011D000590B81E0DF91CF911F910F91FF90EF901C
:1011E00008959081892B90CF86B5D701AE1BBF0B98
:1011F0008A0F9B2F911D93CF20914401309145017F
:10120000820F932F911DFC01808108950F931F93EE
:10121000CF93DF9388EB90E00E945707D0E0C0E0C7
:101220000CEA10E0E0914401F0914501EC0FFD1F44
:1012300080810E94721B1F928F93DF93CF931F9325
:101240000F930E94F00721960F900F900F900F9030
:101250000F900F90C830D10529F7DF91CF911F91E2
:101260000F910895089508950F931F93CF93DF93DF
:10127000EC018B018091D90480FF04C086ED91E0E0
:101280000E9457070E94DB140E94161919830883D5
:10129000DF91CF911F910F9108958F929F92AF92FE
:1012A000BF92EF92FF920F931F93CF93DF93EC01C6
:1012B0007B01042F8091D90480FF10C082E01416B6
:1012C0000CF481E01F928F9385EB91E09F938F93B5
:1012D0000E94F0070F900F900F900F908090C40421
:1012E0009090C504A090C604B090C7040E94DB147F
:1012F0000E94161986E0080280011124CE15DF0530
:10130000A9F40E94DB148092C4049092C504A092B8
:10131000C604B092C704DF91CF911F910F91FF9047
:10132000EF90BF90AF909F908F900895CE010E9454
:101330009414C00FD11FE2CFEF92FF920F931F932F
:10134000CF93DF93EC01FB01A081B181F801828191
:10135000811111C0CA17DB0771F48091D90480FF95
:101360006CC084E891E0DF91CF911F910F91FF90C5
:10137000EF900C945707F6E02F0270011124CD0175
:101380008E199F094817590769F086E0F801019006
:101390000D928A95E1F7FB01808191818E0D9F1D51
:1013A000918380838091D90480FF47C0E22E022E72
:1013B000000CFF084C1B5D0B55954795ABEABAEA4C
:1013C0004A9FC0014B9F900D5A9F900D11248E9DF6
:1013D000A0018F9D500D9E9D500D11244F5F5F4FBA
:1013E000FB01808191818C1B9D0B959587958A9F30
:1013F000E0018B9FD00D9A9FD00D1124CE9DB0019E
:10140000CF9D700DDE9D700D112481E012160CF041
:1014100082E05F934F937F936F931F928F938EE53C
:1014200091E09F938F930E94F0078DB79EB7089627
:101430000FB6F8949EBF0FBE8DBFDF91CF911F9165
:101440000F91FF90EF9008959F92AF92BF92CF922D
:10145000DF92EF92FF920F931F93CF93DF938C0154
:10146000EB01942E79016AEF46026001112480910C
:10147000D9048170C017D10739F05E01AC0CBD1CD6
:10148000F5019281911139C0882341F1CE01801B71
:10149000910B959587952BEA3AEA829FA001839F4D
:1014A000500D929F500D1124692D64039001659F8A
:1014B000300D112481E019140CF082E03F932F933A
:1014C0001F928F9380E091E09F938F930E94F0078B
:1014D0000F900F900F900F900F900F90F701D18306
:1014E000C083DF91CF911F910F91FF90EF90DF901C
:1014F000CF90BF90AF909F900895882321F08AE20B
:1015000091E00E945707E501B2CF0F931F93CF934D
:101510008B0120914C0421113DC0FB01C281C111FE
:1015200022C0823FFCE59F0719F128F4813F9C45CA
:1015300089F0C1E018C0843FECE59E0709F1853FC2
:101540009C45B9F760910001709101014FEF84E46F
:1015500094E01DC06AE471E08AE494E00E943409DA
:1015600081E080934C048C2FCF911F910F910895AF
:1015700064E474E08AE494E00E94340982E0F1CFEC
:10158000609102017091030141E08AE491E00E94C0
:101590004D09E9CF833F3CE5930791F018F0863F72
:1015A0009C4580F12130B9F1223019F640910201B9
:1015B000509103012FEF6AE474E084E494E034C0B6
:1015C000FB01C281CC2379F2213031F0223081F04D
:1015D00010924C04C0E0C7CF60914A0470914B0454
:1015E00022E031E041E08AE491E00E94240AF0CF59
:1015F00060914A0470914B0420E031E04FEF84E4A5
:1016000094E0F3CF8091D90480FFE4CF87EC90E0A1
:101610000E945707DFCF409100015091010121E066
:101620006AE474E08AE491E00E949C0982CF0C9401
:10163000850A90E080E0089581E008950C94170BEE
:101640001F93CF93DF9300D000D01F92CDB7DEB7AA
:1016500049835A836B832091630489819A81211184
:101660001BC06623A9F00E94261A182F682F8981B3
:101670009A810E94CC1969817A81812F0F900F90F5
:101680000F900F900F90DF91CF911F910C94F50C5C
:101690000E94FB19182FEFCF0E94261A69817A81C8
:1016A000EDCFFC01408151816281738184810C9472
:1016B000200B0C942D0808950C945B0B0C945C0B80
:1016C00008950E94DB140E94600B2FEF84E39CE0DE
:1016D000215080409040E1F700C000000C94571D5D
:1016E0000F931F93CF93DF938C010E94510BEC015A
:1016F000B8010E941E0B882309F47AC0C73D8CE50F
:10170000D80709F41BC1B0F5C531FCE5DF07D0F4FB
:10171000C2308CE5D80708F08DC0C115ECE5DE07B6
:1017200009F461C0C130DC4509F468C081E08093F0
:10173000520480935304C801DF91CF911F910F9100
:101740000C941C0BC631DC4589F70E94BB1AF801CA
:101750009281992309F43EC18A7A91E009F490E0DC
:1017600090934D04811134C189E20E94961A0E941F
:101770000A1B3EC0CC3DECE5DE0709F44DC020F568
:10178000C83D8CE5D80709F400C1C93DDC4571F6B8
:10179000F80182818111FDC080915304811116C12D
:1017A00080915004909151040E94EA1C883C91055C
:1017B00008F00CC180E20E94061288E20E94271104
:1017C00088E20E94D01114C0CD3DFCE5DF0761F135
:1017D000CE3DDC4509F0AACFF8018281882341F093
:1017E0000E940E1C05C0F801828181110E94610BCC
:1017F00080E0DF91CF911F910F910895F8018281D0
:101800008823B1F38091D90481608093D90489E75A
:1018100093E00E945707ECCFF8018281882341F3BF
:1018200080E00E945F29E4CFF8018281882301F3E0
:1018300082E0F7CFF8018281882309F47CCF0E94EF
:101840008A1B811102C00E940E1C0E94A71B90E0FF
:101850009093FC048093FB04FE01E350FC458091CF
:10186000FB048160E231F105C8F4E75CF34F0C94AE
:101870003D2E4B0C570C5B0C5F0C630C670C6B0C18
:101880006F0C730C770C7B0C7F0C830C870C8B0C10
:101890008F0C930C970C8091FB0482608093FB0467
:1018A0008091FB040E94AB1B0E94DB14A1CF8091AE
:1018B000FB048460F3CF8091FB048860EFCF8091BC
:1018C000FB048061EBCF8091FB048062E7CF8091C5
:1018D000FB048064E3CF8091FB048068DFCF8091BC
:1018E000FB048460EACF8091FB048E7FD7CF809188
:1018F000FB048D7FD3CF8091FB048B7FCFCF809172
:10190000FB04877FCBCF8091FB048F7EC7CF809174
:10191000FB048F7DC3CF8091FB048F7BBFCF809171
:10192000FB048F77BBCF8091FB048B7FEACF909134
:10193000FB04892F97FB87F98058B0CFF80182818B
:10194000882361F0109252040E94D21C90934F049D
:1019500080934E0482E00E94FF114ACF809152048E
:1019600081110FC080914E0490914F040E94EA1C97
:10197000883C910530F486E20E94271186E20E949D
:10198000D01182E00E94061233CFF80182818823B1
:1019900051F0109253040E94D21C909351048093F2
:1019A000500480E2D8CF8091530481110FC0809100
:1019B0005004909151040E94EA1C883C910530F437
:1019C00087E20E94271187E20E94D01180E2DACFDD
:1019D00085E3CBCE80914D04811104C089E20E9441
:1019E0009D1AC5CE85E3FBCF089528E0829FC001F4
:1019F0001124FC01E70FF11D83E0EE0FFF1F8A9514
:101A0000E1F7E60FF11DEE0FFF1FE750FE4F859146
:101A100094910895FC01EE0FFF1FE657FC4F85914E
:101A200094910895CF93DF930E94F50C0E94CE0EFF
:101A3000EC018115904508F043C0C11580E4D8073A
:101A400008F017C1C83ED10528F5C03ED10508F001
:101A5000A3C0C83AD10580F4C53AD10508F092C0B8
:101A6000C130D10509F498C020F0C430D10508F088
:101A700093C0D0E0C0E090C0CF3BD10508F490C047
:101A8000CE01805C9109C03CD10598F30E940A0DFB
:101A9000EC0182C0C11520E2D20750F4C11581E0EB
:101AA000D80708F079C0C03FD10518F3D06574C0DD
:101AB000C11520E3D20708F0D2C0CE019F70E6CF57
:101AC000C11585E5D80760F5C11524E5D20708F0F2
:101AD000FEC0C11582E5D80750F4C11521E5D20733
:101AE00008F4CAC0DC2FCC27C16FD06A55C09C2F28
:101AF000969596959E0123703327C115D34508F01E
:101B0000D7C0C1E0D0E002C0CC0FDD1F2A95E2F7BC
:101B100020E2929FC0011124C82BD92BDC683CC065
:101B2000C11529E5D207A8F4C11588E5D80708F042
:101B3000D3C0C11526E5D20708F09BCF8C2F0E9499
:101B40004E0FC82FD0E0DC2FCC27CC27DF71D0621E
:101B500023C0C1158AE5D80708F4C3C0CE0190564A
:101B60008115904208F085CF8D2F8F710E944E0F06
:101B7000DD27D06290E0982F882788279F71C82B97
:101B8000D92B0AC0C53AD10509F4BDC0C63AD10562
:101B900009F4BCC0C3E8D0E4CE01DF91CF91089531
:101BA000C83AD10509F4B5C0C93AD10509F4B4C0A1
:101BB000CA3AD10509F4B3C0CB3AD10509F4B2C091
:101BC000CC3AD10509F4B1C0CB3BD10509F4B0C082
:101BD000CC3BD10509F4AFC0CD3AD10509F4AEC074
:101BE000C03BD10509F4ADC0CE3AD10509F4ACC073
:101BF000CF3AD10509F4ABC0C13BD10509F4AAC065
:101C0000C23BD10509F4A9C0C33BD10509F4A8C062
:101C1000C43BD10509F4A7C0C53BD10509F4A6C052
:101C2000C63BD10509F4A5C0C73BD10509F4A4C042
:101C3000C83BD10509F4A3C0C93BD10509F4A2C032
:101C4000CD3BD10509F4A1C0CE3BD10509F4A0C01C
:101C5000CA3BD10509F09FC0CAE2D6E49DCFCE01B0
:101C60009927D3FF03C0EC01D86C96CFEC01D06C60
:101C700093CFDF70D06A90CFCE01F4E09695879530
:101C8000FA95E1F783709C2F937021E030E002C059
:101C9000220F331F9A95E2F73C68382BC695C695FC
:101CA000C37080E2C89FE0011124C22BD32B74CFF4
:101CB000C1E0D0E002C0CC0FDD1F2A95E2F720E2A0
:101CC000929FC0011124C82BD92BDA6865CFDC2F75
:101CD000CC27C46FD06A60CFDC2FCC27C06FD06A0E
:101CE0005BCF8C2F8F700E944E0F34E0D695C79536
:101CF0003A95E1F7CF70D0E0DC2FCC27D06A8F7017
:101D0000806EC82B49CFC1E8D0E446CFC2E8D0E40A
:101D100043CFC2EED4E440CFC9EED4E43DCFCAEE07
:101D2000D4E43ACFC5EBD4E437CFC6EBD4E434CF18
:101D3000C3EBD4E431CFC4EBD4E42ECFC7EBD4E46F
:101D40002BCFCCECD4E428CFCDECD4E425CFC3E822
:101D5000D5E422CFCAE8D5E41FCFC2E9D5E41CCF31
:101D6000C4E9D5E419CFC1E2D6E416CFC3E2D6E484
:101D700013CFC4E2D6E410CFC5E2D6E40DCFC6E25D
:101D8000D6E40ACFC7E2D6E407CFCFE6D4E404CF47
:101D9000C0E7D4E401CFC0E0D4E4FECE82389105A0
:101DA00049F1B0F48133910509F45CC048F48932FB
:101DB000910509F452C08A32910509F458C008957A
:101DC0008533910509F444C08933910599F008954C
:101DD000833E910531F138F4803E910591F0823EC9
:101DE0009105B1F00895863E910511F1873E910568
:101DF00041F108952091FB042370C9F080EE90E03A
:101E000008952091FB0420FF12C089E390E008951B
:101E10002091FB0422FF0BC024FF2EC090E080E045
:101E200008952091FB0422FD2AC024FDF7CF0895D8
:101E30002091FB0423FFFBCF24FDF0CF87EE90E041
:101E400008952091FB0423FFF0CF86EE90E00895E3
:101E50002091FB0425FD16C008952091FB0425FD6B
:101E600014C008952091FB0426FD12C0089520910E
:101E7000FB0426FD10C0089583EE90E0089582EEE5
:101E800090E0089589E290E0089585E390E0089558
:101E90008AE290E0089581E390E0C9CF9091FB043D
:101EA00092FF06C0282F2871283069F4877F84604C
:101EB00093FF06C0282F2871283161F4877E846142
:101EC00094FD877E0895282F2471243089F78B7F15
:101ED0008860EECF282F2471243191F78B7E8861A2
:101EE000EFCF90935904809358040895E0915804DB
:101EF000F0915904309721F00190F081E02D099480
:101F000080E00895EF92FF920F931F93CF93DF939A
:101F10008C01E0915804F09159043097C1F102808E
:101F2000F381E02D09958091D90482FF30C080FFB4
:101F300004C082E993E00E945707D0E0C0E08CE83B
:101F4000E82E83E0F82E8091D90480FF0EC0F801BE
:101F5000EC0FFD1F80811F928F93FF92EF920E94E2
:101F6000F0070F900F900F900F902196C830D10579
:101F700051F78091D90480FF0AC08AE893E0DF918D
:101F8000CF911F910F91FF90EF900C945707DF9125
:101F9000CF911F910F91FF90EF900895E091580419
:101FA000F0915904309739F022E0DC012C93048041
:101FB000F581E02D0994089520915604309157043D
:101FC0002817390771F09093570480935604E091D5
:101FD0005804F0915904309721F00680F781E02DE4
:101FE0000994089520915404309155042817390715
:101FF00071F09093550480935404E0915804F0914B
:102000005904309721F00084F185E02D099408955A
:1020100085B7806885BF85B7806885BF08950895B6
:1020200008950C940F1008950C9413100E9408103A
:102030000E9410100C94111081E008950E94C91C98
:102040000E94F9070E94BE1D0C941410CF93C82F54
:102050008091D90482FF1EC080FF04C08BEA93E008
:102060000E9457078091D90480FF0CC01F92CF9324
:1020700086EA93E09F938F930E94F0070F900F9052
:102080000F900F908091D90480FF04C084EA93E000
:102090000E9457078C2FCF910C945E0BBF92CF926A
:1020A000DF92EF92FF920F931F93CF93DF93CDB701
:1020B000DEB72A970FB6F894DEBF0FBECDBF0E94E1
:1020C0002F080E941C10882309F471C08BE5C82ECC
:1020D00084E0D82E10E000E0B02E802F0E94FC0893
:1020E000E82EF601F1906F01F81609F45AC08091BC
:1020F000D90481FD0E94060990E080E0FE242F2D86
:1021000030E0482FB901082E02C0759567950A94F2
:10211000E2F760FF41C08E83BF8281E090E06C01F6
:1021200002C0CC0CDD1C4A95E2F72E2D30E02C21AC
:102130003D21232B09F480E088870E94D21C816016
:10214000782F9A8789874E815F8168858A850E946A
:10215000F810F801E55AFB4F80818C2580830E949E
:10216000CC200E94760F90915A04891789F10E9421
:10217000760F80935A042A960FB6F894DEBF0FBEEE
:10218000CDBFDF91CF911F910F91FF90EF90DF9026
:10219000CF90BF900C94261001968830910509F0DD
:1021A000B0CF0F5F1F4F0830110509F095CF8FEFAB
:1021B00089838A831B820E94D21C8160782F9D8331
:1021C0008C8349815A816B818D810E94F810C7CF21
:1021D0002A960FB6F894DEBF0FBECDBFDF91CF9128
:1021E0001F910F91FF90EF90DF90CF90BF900895D7
:1021F000CF93DF93CDB7DEB72B970FB6F894DEBF42
:102200000FBECDBF4F83588769877A878B871E8221
:102210001D8285E0FE013796DE01119601900D9238
:102220008A95E1F749815A816B817C818D819E81FC
:102230002B960FB6F894DEBF0FBECDBFDF91CF91C6
:102240000C949D17FC01808191810C94681ACF93A6
:10225000C82F882309F4A2C08CEF8C0F813A58F460
:102260008C2F0E941125811199C08C2F0E94961AE3
:10227000CF910C940A1B80E28C0F883048F4C77011
:1022800081E001C0880FCA95EAF70E94BE1AF0CF1C
:102290008BE58C0F833068F481E890E0C53A31F02B
:1022A00083E890E0C63A11F482E890E0CF910C9474
:1022B000DC0F88E58C0F873108F068C082EE90E073
:1022C000C83A09F460C089EE90E0C93A09F45BC0ED
:1022D0008AEE90E0CA3A09F456C085EB90E0CB3A1A
:1022E00009F451C086EB90E0CC3A09F44CC083EB82
:1022F00090E0CB3B09F447C084EB90E0CC3B09F481
:1023000042C087EB90E0CD3AF1F18CEC90E0C03B1D
:10231000D1F18DEC90E0CE3AB1F183E891E0CF3A83
:1023200091F18AE891E0C13B71F182E991E0C23B11
:1023300051F184E991E0C33B31F181E292E0C43B89
:1023400011F183E292E0C53BF1F084E292E0C63BFA
:10235000D1F085E292E0C73BB1F086E292E0C83B63
:1023600091F087E292E0C93B71F08FE690E0CD3BBF
:1023700051F080E790E0CE3B31F090E080E0CA3B46
:1023800011F48AE292E0CF910C94F20FC03F30F04A
:102390008C2F0E94531FCF910C943F20CF91089512
:1023A000882361F19CEF980F913A20F40E949D1AC6
:1023B0000C940A1B90E2980F983050F4877091E0CB
:1023C00001C0990F8A95EAF7892F0E94C41AF0CFAD
:1023D0009BE5980F933020F490E080E00C94DC0FA4
:1023E00098E5980F973120F490E080E00C94F20F7C
:1023F000803F20F00E94BB1F0C943F20089588234B
:1024000021F00E94BE1A0C940A1B0895882321F023
:102410000E94C41A0C940A1B08958F929F92AF9247
:10242000BF92DF92EF92FF920F931F93CF93DF93B0
:102430007C01D62FC72FFC01058102950F701281F8
:1024400011110E94DD1A0E94B41AD82E882371F04F
:10245000112331F180E28D0F883010F182E00E946B
:10246000551B0E94B41A91E0D82ED926BC2EB294E6
:102470009FE0B922EB2DF0E0E05CFD4E0C943D2E88
:1024800052125212A212A212E9121113F012F012F9
:102490005313F012EE13EE137814F012F0128114AD
:1024A000D12CE4CF0C2F0F70C07F11F00295007F6C
:1024B0001123A9F0002359F080E28D0F883010F02D
:1024C000D11109C0802F0E94BE1A0E940A1B8D2FB5
:1024D0000E94271114C0802F0E94CF1AF6CF8D2F93
:1024E0000E94D011002359F080E28D0F883010F047
:1024F000D11124C0802F0E94C41A0E940A1BDD2023
:1025000009F406C20E94B01A80FD02C2F7011282CD
:102510000E94AA1A0E943019C7010E9494140E94B6
:10252000AA1ADF91CF911F910F91FF90EF90DF904A
:10253000BF90AF909F908F900C945119802F0E9464
:10254000D51ADBCFFC2FFF70BF2EC07FC03219F031
:10255000B29480EFB822DD2369F0D13049F1112324
:1025600091F1002351F1F701858180FFB0CF8F7089
:10257000858323C0112381F0011106C00E94F11A46
:102580008B290E94FF11BBCF0130C1F70E94F11AC5
:102590008B290E94F71AB3CF011106C00E94001BBD
:1025A0008B2D0E940612ABCF013009F4A8CFF6CFD5
:1025B000112329F0063008F0A2CF8B2DE2CF053091
:1025C00008F09DCFEDCF002359F38D2F0E94D0113D
:1025D00096CF8C2F86958695837079F08130B9F0EF
:1025E00098E0B91609F49BC0B91608F488CF86EFB5
:1025F0008B0D823008F493C082CF8D2F9C2F937067
:10260000111102C090E080E00E94DC0F78CF8D2F86
:102610009C2F9370111102C090E080E00E94F20F95
:102620006ECF112309F1D53F99F0D63FB9F0D43FD1
:1026300049F48091F5049091F60481609093F6043A
:102640008093F5048D2F0E94531F0E943F2057CF87
:102650008091F5049091F6048260F0CF8091F504AA
:102660009091F6048460EACFD53F89F0D63FA9F077
:10267000D43F49F48091F5049091F6048E7F9093B5
:10268000F6048093F5048D2F0E94BB1FDECF80914E
:10269000F5049091F6048D7FF2CF8091F50490912E
:1026A000F6048B7FECCF8C2F837009F04BC0111197
:1026B00036C02D2F229526952770220F220F6D2FC1
:1026C0006F70862E912CB12CA12C022E04C0880C88
:1026D000991CAA1CBB1C0A94D2F760E070E0CB01E5
:1026E000D4FF0FC06FE070E080E090E004C0660FA0
:1026F000771F881F991F2A95D2F76095709580954E
:102700009095C695C695C370C23071F0A0F4682943
:1027100079298A299B29C13091F00E94E2180E94F0
:10272000760F0E945E0BEBCE682979298A299B29B6
:102730000E94F418F4CF0E94E218C501B4010E946F
:10274000D018EDCF8695112311F08C2F817088233E
:1027500031F32D2F229526952770220F220F6D2FF2
:102760006F70862E912CB12CA12C022E04C0880CE7
:10277000991CAA1CBB1C0A94D2F760E070E0CB0144
:10278000D4FF0FC06FE070E080E090E004C0660FFF
:10279000771F881F991F2A95D2F7609570958095AD
:1027A0009095C695C695C370C23051F080F46829E3
:1027B00079298A299B29C13071F00E94A719AFCFCE
:1027C000682979298A299B290E94B919A8CF0E94D2
:1027D000A719C501B4010E949519A1CFE0E2ED0F40
:1027E000E53108F066C0F0E0E850FC4E0C943D2E58
:1027F0000D140D140D140D140D140D140D140D14D1
:102800000D140D140D140D140D140D140D140D14C0
:102810001E142C1433143A144414DF708C2F8F714F
:10282000112331F00E9430198D2F0E94FF11D8CE54
:102830000E9451198D2F0E940612D2CE112341F011
:10284000053008F0CDCE8C2F8F710E947419C8CE40
:10285000063008F0C5CEF7CF8C2F8F71112339F0D9
:102860000E943019BDCE8C2F8F711123C9F30E94A5
:102870005119B6CE112329F08C2F8F710E941B198C
:10288000AFCE0E941619ACCE112349F0CF718C2F18
:102890000E94301963E08C2F0E94401BA1CE81E082
:1028A0000E94551B023008F49BCE82E00E94551B0B
:1028B00097CE112349F0002321F08D2F0E9427117C
:1028C0008FCE8C2F8F71CCCF002379F0D93349F480
:1028D000FFEF27EE83E0F15020408040E1F700C099
:1028E00000008D2F0E94D0117BCE8C2F8F71BFCF17
:1028F0004C2F4F706D2FC7010E94190B0E94461874
:10290000FECD4C2F4F706D2FC7010E94F40CF7CDF8
:10291000DF91CF911F910F91FF90EF90DF90BF90CB
:10292000AF909F908F9008950F931F93CF93DF9355
:10293000EC01988189812B813C81232B39F08F3FD9
:1029400019F481E09F3F19F080E001C081E080FD33
:1029500017C0CE010E94700B882391F068817981A5
:102960008A810E94721A8C010E94CB190E94CD1894
:10297000B801CE01DF91CF911F910F910C940D12F0
:10298000DF91CF911F910F9108950E94DD1A0E944F
:10299000EE1A0E940A1B0E9457210E943F2090E0DD
:1029A00080E00E94DC0F90E080E00C94F20F0E9427
:1029B000A41A0C94C5140E94CC1A0C94D714E92FB5
:1029C000E295EF70E250EE30E0F4F0E0E651FB4EBD
:1029D0000C943D2EF814F81401150115031501157A
:1029E00001150115F814F81408150115011508153D
:1029F000803F19F020F4803E20F481E00895843F68
:102A0000E1F380E00895803EC0F3813FD1F7F5CF38
:102A100093FB882780F908950E94681A0C94DF14AC
:102A2000CF93DF9300D000D01F92CDB7DEB70F90C9
:102A30000F900F900F900F90DF91CF910895CF934B
:102A4000DF9300D000D000D0CDB7DEB726960FB60A
:102A5000F894DEBF0FBECDBFDF91CF9108951F93D5
:102A6000CF93DF93C091640416E0809165048C13CA
:102A700004C0DF91CF911F910895D0E01C9FF00119
:102A80001D9FF00D1124EA59FB4F40815181628155
:102A90007381848195810E941F152196C770E5CFAF
:102AA0004091960450919704609198047091990414
:102AB00080919A0490919B040C941F151F93CF93BF
:102AC000DF9380919B04807FD1F4809198048823C8
:102AD000B1F080916404D0916504B0919604C091E6
:102AE00097044091990450919A04A1E0BF3F09F0E6
:102AF000A0E0BA016095709516E0D81304C0DF918C
:102B0000CF911F91089521E04115510521F02A2F01
:102B1000CF3F09F020E090E020FD38C0189FF00181
:102B2000199FF00D1124EA59FB4F21812C132EC05F
:102B300020812B132BC02281211128C023813481B5
:102B40002417350700F1241B350B283C3105F0F420
:102B500020919B042F70206120939B0426E0289FE6
:102B6000F001299FF00D1124E559FB4F80818F70F2
:102B70008061808386E994E00E949414DF91CF9174
:102B80001F910C942F15260F371FDFCF01968770EA
:102B9000B4CFAF92BF92CF92DF92EF92FF920F939A
:102BA0001F93CF93DF93CDB7DEB761970FB6F8943D
:102BB000DEBF0FBECDBF8C0185E0F801DE011D96A2
:102BC00001900D928A95E1F7D8014C9111965C9194
:102BD00011971296EC903091960460919704809131
:102BE000990490919A0421E0009731F06F3F19F415
:102BF00021E03F3F09F020E0B22FB170BB2E20FD55
:102C000080C1F801C380D480A0909804AA2009F460
:102C100027C1C816D906D0F1D601A81BB90BCD0122
:102C2000FF24F394883C910508F0F12C80919B04DB
:102C3000982F907FFF2009F4CEC0911187C0FE2C01
:102C4000651329C0341327C0E11025C08F7080613F
:102C500080939B040E94501586E994E00E9494148E
:102C600080919B04F80185838F2D61960FB6F894AF
:102C7000DEBF0FBECDBFDF91CF911F910F91FF90AF
:102C8000EF90DF90CF90BF90AF9008958095909592
:102C90008C0D9D1DC5CF81E0CD2831F05F3F19F42B
:102CA00081E04F3F09F080E080FD24C081E08E2567
:102CB000F82FF170DF2E80FF3FC0809164042091D7
:102CC000650436E0821318C04D875E878D859E852A
:102CD0000E94681A292F22952F70223008F1243083
:102CE00030F59F7009F1D80115969C91907FE1F421
:102CF000FB2CBACF80E0DCCF90E0389FF001399F09
:102D0000F00D1124EA59FB4F6181561306C0608112
:102D1000461303C062816E110FC001968770D2CF37
:102D20009F7011F0882321F3805E883008F3C8017A
:102D30000E949414BD2CDCCFEE2009F495CF809135
:102D40009B04816080939B04F12C8ECF651314C08B
:102D5000341312C0E11010C0F8018583C8010E942D
:102D6000941486E0F801A6E9B4E001900D928A95EA
:102D7000E1F70E94501578CF4D875E878D859E853F
:102D80000E940C15882319F1EE2009F180919B0413
:102D9000803270F0209196043091970438872F8309
:102DA0001986DB86CA868C87CE0107960E9494140A
:102DB00086E0F801A6E9B4E001900D928A95E1F76A
:102DC0000E945E150E945015FF24F3944DCFC80158
:102DD0000E949414F9CF911113C07C2DD98AC88A0E
:102DE0006E2D89890E94101586E994E00E94941442
:102DF00086E0E6E9F4E0DF011D928A95E9F7B9CFB4
:102E0000651312C0341310C0E1100EC0F8018583A1
:102E1000C8010E949414E6E9F4E086E0DF011D9207
:102E20008A95E9F7FA2C20CF4D875E878D859E85A0
:102E30000E940C15882359F2EE2049F280919B04E0
:102E4000803208F4B5CF20919604309197043A83EC
:102E500029831B82DD82CC828E83CE010196A6CF90
:102E6000C816D90638F1F601E81BF90BCF01F12C91
:102E7000883C910508F03DC0FE2CEE2009F4A7CF58
:102E8000651326C0341324C080919B0480FD17C0B5
:102E9000982F907FA1F0D80115968C931597903FAD
:102EA00009F45CCF982F907F905F8F70892B1596D7
:102EB0008C9354CF809590958C0D9D1DD8CF86E036
:102EC000F801A6E9B4E001900D928A95E1F7CCCE25
:102ED0004D875E878D859E850E940C15811168CF78
:102EE00080919B04816080939B04C8010E9494148C
:102EF000BBCE7C2DD98AC88A6E2D89890E94101577
:102F000077CFEE2009F463CF4D875E878D859E8550
:102F10000E940C15F82E882309F459CF86E0F80199
:102F2000A6E9B4E001900D928A95E1F786E994E074
:102F30000E9422110E945E151CCF1F93CF93DF9336
:102F4000CDB7DEB72C970FB6F894DEBF0FBECDBF5E
:102F50004F83588769877A878B879C87CE0107962E
:102F60000E94C915882309F442C09F8188852A855B
:102F70003B85232B39F08F3F19F481E09F3F19F0F7
:102F800080E001C081E080FD08C04F8158856985DF
:102F90007A858B859C850E941F1516E080916404BC
:102FA00090916504891709F467C0819FC0011124BD
:102FB0008A599B4F0E94C915882309F45DC0E0918E
:102FC00064041E9FF0011124EA59FB4F4081518196
:102FD00062817381848195810E941F1580916404B0
:102FE00090E001968770992780936404D7CF86E09C
:102FF000FE013796DE01119601900D928A95E1F758
:103000009F8188852A853B85232B39F08F3F19F4D2
:1030100081E09F3F19F080E001C081E080FDBDCFDD
:103020002091650430E0C90101968770992740918D
:1030300064044817190699F096E0929FD001939F77
:10304000B00D1124AA59BB4FFE01319601900D928B
:103050009A95E1F7809365040E942F159ECF0E94F8
:10306000DB14109265041092640486E0E6E9F4E053
:10307000DF011D928A95E9F72C960FB6F894DEBF12
:103080000FBECDBFDF91CF911F910895EF92FF92B8
:103090000F931F93CF93DF938C01892B81F0F12C39
:1030A000EE24E394E8012196F8018491843770F4CA
:1030B000843008F05FC08130B1F08230A1F1DF913F
:1030C000CF911F910F91FF90EF900895853709F4EC
:1030D0004CC008F43DC09CE7980F903780F78F777D
:1030E0000E94D01149C00E5F1F4FFE01849190E2F3
:1030F000980F983060F48770FE2D01C0FF0F8A95FD
:10310000EAF78F2F0E94E01A0E940A1B02C00E9459
:1031100027118F2D815030F2EFE9FFE03197F1F761
:1031200000C00000F7CF0E5F1F4FFE01849190E2B8
:10313000980F983050F48770FE2D01C0FF0F8A95CC
:10314000EAF78F2F0E94E61ADFCF0E94D011E1CF5D
:103150000E5F1F4FFE01C491C150D8F28FE99FE06E
:103160000197F1F700C00000F7CF0E5F1F4FFE017F
:10317000F490CFCF0E9427118E01CBCF08950C94ED
:10318000BE180E94BF186093C8047093C90480934E
:10319000CA049093CB040C94C51408950C94C118E0
:1031A0000F931F930091C8041091C9042091CA0481
:1031B0003091CB04602B712B822B932B1F910F919D
:1031C0000C94C1180F931F930091C8041091C90467
:1031D0002091CA043091CB0460237123822393236E
:1031E0001F910F910C94C1180F931F930091C80465
:1031F0001091C9042091CA043091CB046027712733
:10320000822793271F910F910C94C1180C94BE181C
:103210000C9406190E9408196093C4047093C504A5
:103220008093C6049093C7040C94C51460E070E0CA
:10323000CB010C940A190F931F9341E050E060E01A
:1032400070E08A019B0104C0000F111F221F331F71
:103250008A95D2F7C901B8011F910F910C940A19F0
:103260000F931F9341E050E060E070E004C0440F12
:10327000551F661F771F8A95D2F78091C4049091DD
:10328000C504A091C604B091C7048A019B01082B14
:10329000192B2A2B3B2BC901B8011F910F910C94BC
:1032A0000A190F931F9341E050E060E070E004C002
:1032B000440F551F661F771F8A95D2F7CB01BA01BD
:1032C00060957095809590950091C4041091C50407
:1032D0002091C6043091C704602371238223932375
:1032E0001F910F910C940A190F931F9341E050E026
:1032F00060E070E004C0440F551F661F771F8A9579
:10330000D2F78091C4049091C504A091C604B091F5
:10331000C7048A019B01082719272A273B27C901CF
:10332000B8011F910F910C940A190F931F930091EC
:10333000C4041091C5042091C6043091C704602BC9
:10334000712B822B932B1F910F910C940A190F93C1
:103350001F930091C4041091C5042091C6043091BC
:10336000C70460237123822393231F910F910C9430
:103370000A190F931F930091C4041091C504209162
:10338000C6043091C70460277127822793271F91B5
:103390000F910C940A190895990F990F990F890F9D
:1033A000982F977071E001C0770F9A95EAF786958C
:1033B0008695869525E0829FC001112450E040E06B
:1033C000A62FB0E0FC01E40FF51FE456FB4F60812F
:1033D0009D01042E02C0369527950A94E2F72170CC
:1033E000219526272723262720834F5F5F4F4530CF
:1033F000510541F70895990F990F990F890F982F4B
:10340000977086958695869525E0829FA001112468
:1034100070E060E080E0FA01E60FF71FE456FB4F32
:10342000208130E0092E02C0369527950A94E2F7F4
:1034300021703327062E01C0220F0A94EAF7822B4F
:103440006F5F7F4F6530710531F70895BF92CF925E
:10345000DF92EF92FF920F931F93CF93DF938C0134
:10346000C090C404D090C504E090C604F090C70496
:103470008091C8049091C904A091CA04B091CB0472
:10348000C82AD92AEA2AFB2ACFE1D0E0BC2ED701EC
:10349000C6010C2E04C0B695A795979587950A94FA
:1034A000D2F780FD0EC0219788F7B12C8B2DDF91CC
:1034B000CF911F910F91FF90EF90DF90CF90BF9031
:1034C0000895B8018C2F0E94120D019761F3EECF81
:1034D000CF93DF93EC010E94261ABE01DF91CF91BA
:1034E0000C94120D1F93CF93DF93EB019091630423
:1034F000992331F0CB01DF91CF911F910C94681A81
:10350000882379F0CB010E94261A182F682FCE014C
:103510000E94CC19BE01812FDF91CF911F910C9495
:10352000120DCB010E94FB19182FF4CF682F809148
:103530000401909105010C94431C682F80910401B3
:10354000909105010C94451C809104019091050116
:103550000C94471C8091CC0485958595859508959C
:103560008091CC04877008959091CC04977081E08D
:1035700009F480E008958091D80408959091D804CA
:10358000892B8093D8040895982F90958091D80422
:1035900089238093D80408951092D80408959091B7
:1035A000D704892B8093D7040895982F9095809104
:1035B000D70489238093D70408951092D7040895DF
:1035C0009091D604892B8093D6040895982F9095D6
:1035D0008091D60489238093D60408951092D6044E
:1035E00008958091CD04089508950C94F41A909153
:1035F000CD04981721F08093CD040C94F51A08950A
:103600008091CD04882329F01092CD0480E00C94A1
:10361000F51A0895E0910401F09105018091D80414
:103620008083E0910401F091050180819091D7049D
:10363000892B8083E0910401F091050180819091B4
:10364000D604892B80839091CD04992381F0E09159
:103650000401F09105018081892B80838091040110
:10366000909105010E94101C81110E94001B809105
:103670000401909105010C94820F08950C943D1B58
:1036800098E0899F90011124622B6093CC040E94E2
:1036900030198091CC048595859585950C943E1BB9
:1036A0001092CC0480E00C943E1B9091CC04809549
:1036B00089238093CC04282F277071F4282F082E9B
:1036C000000C330B9217130639F085958595859577
:1036D0000E9451190C94501B0895909331018093CE
:1036E00030010895829590E09C01220F331F220F34
:1036F000331F2C7C95958795959587958373282BFB
:1037000030E0C901880F991F8A7A3595279525756C
:10371000822B089590E080E00E945F2E21E08D3E94
:103720009E4F09F020E0822F089582E090E00C94F3
:10373000572E682F82E090E00C94652E83E090E095
:103740000C94572E682F83E090E00C94652E84E053
:1037500090E00C94572E682F84E090E00C94652E36
:10376000AB01BC018FE090E00C94772EAB01BC0163
:1037700083E190E00C94772E60E070E0CB010C9434
:10378000B61B60E070E0CB010E94B01B0C94BC1B28
:103790006DEE7EEF90E080E00E94832E60E082E09C
:1037A00090E00E94652E60E083E090E00E94652E2C
:1037B0001092C8041092C9041092CA041092CB044B
:1037C00060E084E090E00E94652E60E085E090E09B
:1037D0000E94652E60E086E090E00E94652E6FEF0B
:1037E00087E090E00E94652E40E050E0BA0188E05A
:1037F00090E00E94772E60E08DE090E00E94652EC0
:1038000040E050E0BA0188E190E00E94772E60E04D
:1038100087E190E00E94652E0C94C11B0C94C81B9C
:10382000FC01329697E080E0915009F408952191CF
:103830002223D1F38F5FF8CF9C01FC0132969FEFDA
:1038400080E04191461751F09F3F19F4411101C0AA
:10385000982F8F5F8630A9F79F3F09F40895290FAD
:10386000311D97FD3A95F90162830895FC01329666
:1038700008962191261303C0DF0111971C92E817C7
:10388000F907B9F708950C941C1C0C94361C029689
:1038900026E0FC0111922A95E9F7089508950C9409
:1038A0004E1C0E944F1C80910105843049F11092FA
:1038B000DA0488E190E020E40FB6F894A8958093AC
:1038C00060000FBE2093600080E00E945E0B0E94AB
:1038D0004F1C83B7817F846083BF83B7816083BFC0
:1038E0007894889583B78E7F83BF0FB6F894A89598
:1038F00080916000886180936000109260000FBE2C
:103900000895CF930E9432090E942F080E94330924
:10391000C0E08C2F0E94FC08811105C0CF5FC83029
:10392000C1F7CF91089581E0FCCF08950C94951CC8
:103930000E94DB140E94760F0E945E0B0C94961C72
:103940001F920F920FB60F9211248F939F93AF93F4
:10395000BF938091DA04811113C08091F704909194
:10396000F804A091F904B091FA044196A11DB11D8B
:103970008093F7049093F804A093F904B093FA04A9
:10398000BF91AF919F918F910F900FBE0F901F909D
:10399000189582E084BD93E095BD9AEF97BD809322
:1039A0006E0008952FB7F8948091F7049091F80471
:1039B000A091F904B091FA042FBF08952FB7F8949D
:1039C0006091F7047091F8048091F9049091FA04E1
:1039D0002FBF0895CF92DF92EF92FF920F931F9324
:1039E0002FB7F8944091F7045091F8046091F904CE
:1039F0007091FA042FBF6A017B01EE24FF248C0131
:103A000030E020E0C016D106E206F30650F0481B75
:103A1000590BCA011F910F91FF90EF90DF90CF904B
:103A2000089541505109F3CFAB01BC012FB7F89471
:103A30008091F7049091F804A091F904B091FA04F0
:103A40002FBF84179507A607B70738F0841B950B7F
:103A5000A60BB70BBC01CD0108950197A109B109CF
:103A6000F5CF78941F920F920FB60F9211248F9377
:103A70009F93AF93BF938091F7049091F804A09126
:103A8000F904B091FA040196A11DB11D8093F704C9
:103A90009093F804A093F904B093FA04BF91AF9106
:103AA0009F918F910F900FBE0F901F90189581E0FE
:103AB0008093E00080E28093D8001092C9008FE1EB
:103AC0009EE40197F1F700C0000087E090EBDC0175
:103AD00080930A0590930B05A0930C05B0930D05F8
:103AE00088E19CE00FB6F894A895809360000FBE23
:103AF00090936000FFCFCF92DF92EF92FF920F93EF
:103B00001F93CF93C0E0E82EF12C8C2F0E94FC086D
:103B100010E000E0C82ED12CC601002E02C0959501
:103B200087950A94E2F780FD11C00F5F1F4F0830A0
:103B3000110591F7CF5FC83041F780E0CF911F9119
:103B40000F91FF90EF90DF90CF900895602F7C2F22
:103B500080E00E94F50CE816F90639F781E0EECF17
:103B6000CF93C82F8CE20E947B1D882321F08C2FDD
:103B7000CF910C947B1D80E0CF910895CF930E944C
:103B80008A1B811102C00E940E1C85EC93E00E94EA
:103B90005707C5E6C15009F0D5C08EEB93E00E94EF
:103BA000570789E20E94B01D8111F8C08AE20E9485
:103BB000B01D81110E940E1C85E00E94B01D811174
:103BC0000E94571D0E94951B8093D90487E00E9494
:103BD000B01D882371F08BE10E94B01D882309F489
:103BE000BAC09091D904892F8D7F91FF8260809314
:103BF000D9048091D9040E94991B0E94A71B90E0D0
:103C00009093FC048093FB0480EE0E94B01D8823F7
:103C100041F09091FB04892F8E7F90FF816080930B
:103C2000FB0489E30E94B01D882341F09091FB04BE
:103C3000892F8D7F91FF82608093FB0482EE0E942A
:103C4000B01D882341F09091FB04892F8B7F92FF58
:103C500084608093FB0486EE0E94B01D882341F0AF
:103C60009091FB04892F877F93FF88608093FB04EA
:103C700083EE0E94B01D882341F09091FB04892FB0
:103C80008F7E94FF80618093FB0485E30E94B01DCA
:103C9000882341F09091FB04892F8F7D95FF8062EE
:103CA0008093FB0481E30E94B01D882341F0909132
:103CB000FB04892F8F7B96FF80648093FB0481E156
:103CC0000E94B01D882341F09091FB04892F97FB3F
:103CD00087F980588093FB048091FB040E94AB1B02
:103CE00087E20E94B01DC82F8EE10E94B01D811195
:103CF000C2608FE10E94B01D8111C46080E20E9409
:103D0000B01D8111C86081E20E94B01D8111C061A7
:103D100082E20E94B01D8111C06283E20E94B01D48
:103D20008111C06484E20E94B01D882389F1C068BB
:103D30008C2F0E94A21B6C2F70E090E080E0CF914E
:103D40000C94CE180E942F088FE39CE90197F1F79D
:103D500000C000001FCF8EE00E94B01D882339F004
:103D60009091D904892F8B7F92FF846040CF80E1AE
:103D70000E94B01D9091D904882329F0892F877F54
:103D800093FF886034CF892F8E7F90FF81602FCF83
:103D9000C111CECF0E949E1B682FCECFCF91089528
:103DA0008091DE0480FF12C06091090185E0689F68
:103DB000B001112475956795759567956038710503
:103DC000A8F561157105A1F1862F089581FF09C03D
:103DD0006091090185E0689FB00111247595679590
:103DE000EDCF82FF07C06091090185E0689FB001B7
:103DF0001124E4CF2091DD042223A9F09091080141
:103E00006091090185E0689FB00111242917B0F67F
:103E1000269FA001279F500D1124692F70E0CA0131
:103E20000E94292ECBCF65E070E0CECF8FE70895BA
:103E300081E008958091DE0480FF0CC0609107014D
:103E400070E075956795759567956115710549F1F0
:103E5000862F089581FF06C06091070170E0759577
:103E60006795F3CF6091070182FD0BC09091DD044F
:103E70009923A1F06091060180910701961738F00F
:103E8000682F70E06038710500F38FE70895899F0F
:103E9000C001112470E00E94292EF4CF61E070E08F
:103EA000D7CF81E00895803F31F40E94D01E8195E4
:103EB0008093E2040895813F19F40E94D01EF8CF48
:103EC000823F31F40E94D01E81958093E1040895D1
:103ED000833F19F40E94D01EF8CF893F29F40E9435
:103EE0001A1F8093E30408958A3F21F40E941A1F49
:103EF0008195F7CF8B3F31F40E941A1F81958093F3
:103F0000E40408958C3F19F40E941A1FF8CF843FEF
:103F100031F48091E00481608093E0040895853F4E
:103F200021F48091E0048260F7CF863F21F48091F4
:103F3000E0048460F1CF873F21F48091E004886041
:103F4000EBCF883F21F48091E0048061E5CF8D3F85
:103F500031F48091DE0481608093DE0408958E3F09
:103F600021F48091DE048260F7CF8F3FB9F7809112
:103F7000DE048460F1CF803FC1F48091E20487FDCC
:103F80001092E2048091E10481110EC08091E2045C
:103F900081110AC08091E304811106C08091E4047C
:103FA000811102C01092DD040895813F29F48091AF
:103FB000E20418162CF3E6CF9091E104823F29F435
:103FC00097FFE0CF1092E104DDCF833F19F419167B
:103FD000CCF3D8CF893F39F48091E304181694F6D6
:103FE0001092E304CFCF8A3F29F48091E30487FF46
:103FF000C9CFF6CF8B3F39F48091E40487FFC2CF5D
:104000001092E404BFCF8C3F29F48091E404181689
:10401000BCF3B8CF843F31F48091E0048E7F80936D
:10402000E004B0CF853F21F48091E0048D7FF7CF8D
:10403000863F21F48091E0048B7FF1CF873F21F40C
:104040008091E004877FEBCF883F21F48091E004EA
:104050008F7EE5CF8D3F31F48091DE048E7F80939B
:10406000DE0490CF8E3F21F48091DE048D7FF7CF68
:104070008F3F09F087CF8091DE048B7FF0CF809156
:10408000D90483FF7EC081E094E00E9457078091AD
:10409000E0041F928F938CEF93E09F938F930E9485
:1040A000F0078AEF93E00E9457078091E104282FE0
:1040B000082E000C330B3F938F9387EF93E09F9371
:1040C0008F930E94F00785EF93E00E94570780913D
:1040D000E204282F082E000C330B3F938F9382EFBE
:1040E00093E09F938F930E94F00780EF93E00E94EC
:1040F00057078091E304282F082E000C330B3F93C1
:104100008F938DEE93E09F938F930E94F0078BEE39
:1041100093E00E9457078091E404282F082E000C9A
:10412000330B3F938F9388EE93E09F938F930E947E
:10413000F00785EE93E00E9457078091DD041F92FF
:104140008F9382EE93E09F938F930E94F00780EE0F
:1041500093E00E9457078091DE041F928F938DEDAC
:1041600093E09F938F930E94F0078AED93E00E9463
:1041700057078DB79EB74C960FB6F8949EBF0FBEEB
:104180008DBF8FED94E00E94CE0F0E94D21C9093C1
:10419000DC048093DB0408951F93CF93DF93809119
:1041A000DB049091DC040E94EA1CAC019091DD04D8
:1041B00020910A0130E0911106C020910B018AE0A4
:1041C000289F900111244217530780F08091E10449
:1041D0001091E204D091E304C091E40481110AC07B
:1041E000111161C0D1115FC0C1115DC0DF91CF91CC
:1041F0001F9108959F3F19F09F5F9093DD0418165B
:1042000024F40E94D01E8093E1048091E10487FF92
:1042100005C00E94D01E81958093E104111624F4FC
:104220000E94D01E8093E2048091E20487FF05C0C3
:104230000E94D01E81958093E2044091E1044423C2
:1042400079F03091E204332359F025EB4203A001C9
:1042500011245093E1043203900111243093E204BD
:104260001D1624F40E941A1F8093E3048091E30436
:1042700087FF05C00E941A1F81958093E3041C16D6
:1042800024F40E941A1F8093E4048091E40487FFC1
:1042900005C00E941A1F81958093E404DF91CF919D
:1042A0001F910C943F209F3F09F0A6CFB7CF86E027
:1042B000EFEDF4E0DF011D928A95E9F71092DD043D
:1042C0001092DE04089584E296E00E9457071F9240
:1042D00081E08F931F9285E08F9386ED95E09F9309
:1042E0008F930E94F0070F900F900F900F900F90F8
:1042F0000F900895833009F445C028F4813061F0AF
:10430000823049F10895853009F46AC008F451C03B
:10431000863009F47CC0089580910B01482F460F28
:104320005527551F4F3F510594F4680F60930B01BB
:1043300080910B011F928F938FE095E09F938F9355
:104340000E94F0070F900F900F900F9008958FEF3D
:1043500080930B01EDCF80910A01482F460F55271E
:10436000551F4F3F510554F4680F60930A01809127
:104370000A011F928F938DEF94E0E0CF8FEF80932F
:104380000A01F5CF80910901482F460F5527551F87
:104390004F3F510554F4680F609309018091090162
:1043A0001F928F938AEE94E0C9CF8FEF809309011B
:1043B000F5CF80910801482F460F5527551F4F3FD5
:1043C000510554F4680F60930801809108011F9211
:1043D0008F9385ED94E0B2CF8FEF80930801F5CFF6
:1043E00080910701482F460F5527551F4F3F510514
:1043F00054F4680F60930701809107011F928F9317
:104400008CEB94E09BCF8FEF80930701F5CF8091E9
:104410000601482F460F5527551F4F3F510554F4AD
:10442000680F60930601809106011F928F9381EAC5
:1044300094E084CF8FEF80930601F5CF8330C9F1EC
:1044400028F4813061F0823019F10895853009F443
:1044500052C008F43FC0863009F45EC008958091D0
:104460000B01681790F4861B80930B0180910B0160
:104470001F928F9382E994E09F938F930E94F0079D
:104480000F900F900F900F90089510920B01EECFA8
:1044900080910A01681750F4861B80930A0180916D
:1044A0000A011F928F9380E894E0E6CF10920A01F0
:1044B000F6CF80910901681750F4861B809309019B
:1044C000809109011F928F938DE694E0D5CF1092D1
:1044D0000901F6CF80910801681750F4861B80937C
:1044E0000801809108011F928F9388E594E0C4CF62
:1044F00010920801F6CF80910701681750F4861BCF
:1045000080930701809107011F928F938FE394E0BE
:10451000B3CF10920701F6CF80910601681750F4CF
:10452000861B80930601809106011F928F9384E27F
:1045300094E0A2CF10920601F6CFCF93C82F1F921E
:104540008F9389E297E09F938F930E94F00761E039
:1045500070E080E090E004C0660F771F881F991F0D
:10456000CA95D2F70E94CE180F900F900F900F901F
:10457000CF910C94DB14CF938B3109F4E2C108F096
:1045800078C18B3009F49FC108F042C1863009F42C
:10459000ADC148F4853009F47AC180EB9BE00E94FC
:1045A000570780E0B4C1873009F4B3C18830A9F758
:1045B0008FE49CE00E94570780EA9BE00E94570727
:1045C0000E949E1B1F928F938DE99BE09F938F9378
:1045D0000E94F0078BE99BE00E9457070E94951B01
:1045E000C82F88E89BE00E9457071F92CF9383E86B
:1045F0009BE09F938F930E94F00781E89BE00E94CD
:10460000570787E79BE00E9457078C2F81701F9206
:104610008F9384E79BE09F938F930E94F00782E73C
:104620009BE00E94570788E69BE00E945707C1FB6A
:10463000882780F91F928F9385E69BE09F938F9345
:104640000E94F00783E69BE00E94570787E59BE006
:104650000E945707C2FB882780F91F928F9384E539
:104660009BE09F938F930E94F00782E59BE00E945E
:10467000570789E49BE00E945707C3FBCC27C0F98A
:104680001F92CF9386E49BE09F938F930E94F00745
:1046900084E49BE00E9457070E94A71BC82F80E379
:1046A0009BE00E9457071F92CF938BE29BE09F9362
:1046B0008F930E94F00789E29BE00E94570780E1F8
:1046C0009BE00E9457078C2F81701F928F938DE083
:1046D0009BE09F938F930E94F0078DB79EB78096C3
:1046E0000FB6F8949EBF0FBE8DBF8BE09BE00E947B
:1046F000570784EF9AE00E945707C1FB882780F98B
:104700001F928F9381EF9AE09F938F930E94F007FF
:104710008FEE9AE00E9457078DED9AE00E945707AE
:10472000C2FB882780F91F928F938AED9AE09F93AE
:104730008F930E94F00788ED9AE00E94570786EC5D
:104740009AE00E945707C3FB882780F91F928F9336
:1047500083EC9AE09F938F930E94F00781EC9AE09C
:104760000E94570787EB9AE00E945707C4FB8827EF
:1047700080F91F928F9384EB9AE09F938F930E940E
:10478000F00782EB9AE00E94570780EA9AE00E94C5
:104790005707C5FB882780F91F928F938DE99AE010
:1047A0009F938F930E94F0078BE99AE00E9457072E
:1047B0008FE79AE00E945707C6FB882780F91F926F
:1047C0008F938CE79AE09F938F930E94F0078AE77C
:1047D0009AE00E94570782E79AE00E945707C7FBBA
:1047E000CC27C0F91F92CF938FE69AE09F938F93C7
:1047F0000E94F0078DE69AE00E9457078DB79EB79A
:104800004C960FB6F8949EBF0FBE8DBF81E07FC05F
:10481000803109F4AEC080F48E3009F0BECE9091A4
:10482000D904892F8B7F92FF84608093D90482FF03
:104830009DC08BED9BE091C0863109F4AAC08931FF
:1048400009F0ABCE84E998E00E9457078CE698E027
:104850000E94570786E398E00E94570782E098E09D
:104860000E94570782EC97E00E94570787E997E07C
:104870002CC08A32A1F1E8F4873269F128F48E3134
:1048800008F48BCE8D5128C0893209F086CE0E9463
:10489000DB148EE19CE00E9457079FEF23ED80E33D
:1048A000915020408040E1F700C000000E94571D59
:1048B000ADCF833468F48A3308F0A2C0853359F051
:1048C000883309F06ACE8AEC98E00E9457079ECFA1
:1048D000833409F062CE80E00E949D2297CF8EE360
:1048E0009CE00E9457070E940E1C90CF8091D90433
:1048F000817F8E7F8093D90483EA98E00E945707D6
:104900008AE39CE00E94570781E08093E604CF9100
:1049100008959091D904892F8E7F90FF81608093B4
:10492000D90480FF03C082E19CE0CFCF85E09CE00A
:104930000E9457078091D904897F877F8093D9048B
:1049400065CF9091D904892F8D7F91FF82608093EC
:10495000D90481FF08C088EF9BE00E94570780912F
:10496000D9048160EBCF8AEE9BE0AFCF8BEC9BE06C
:10497000ACCF9091D904892F877F93FF8860809373
:10498000D90483FF03C08FEB9BE0E7CF82EB9BE072
:104990009CCF89E897E00E9457070E94760F1F92EC
:1049A0008F938FE697E09F938F930E94F0078091FB
:1049B00016011F928F9388E597E09F938F930E9433
:1049C000F0078091F3041F928F9385E497E09F9303
:1049D0008F930E94F0070E94DE1C9F938F937F931A
:1049E0006F938EE297E09F938F930E94F0078DB7AD
:1049F0009EB742960FB6F8949EBF0FBE8DBF06CFEE
:104A000089536ACF80E008950C9402258E518A3034
:104A100030F4E82FF0E0E95EFE4F8081089580E0F9
:104A20000895CF93C82F8091E6048130B9F038F013
:104A3000823009F447C01092E60480E00DC00E9465
:104A4000BB1A8232D1F78C2F0E94022581111BC024
:104A50008C2F0E94BB228170CF9108950E94BB1AB7
:104A6000823289F38C2F0E94042581111BC0C4312E
:104A7000D9F060F4CB3071F0C031D1F08FE197E024
:104A80000E94570713C081E090E0E5CFC93261F082
:104A9000C833A1F783EA98E00E94570785E297E0C0
:104AA0000E94570781E0D7CF1092E60480E0D3CF71
:104AB0000E94632181E297E00E94570782E0809381
:104AC000E604F0CFC432C8F4CE3108F0BEC0CB301B
:104AD000E1F040F4C73009F4CCC083EC95E00E94CB
:104AE000570726C0C331C1F1C431B9F78091E5043D
:104AF000882351F11092E5040AC0CB3409F4B7C001
:104B0000C8F4C93299F3C83341F70E9463218091F8
:104B1000E504882309F4C4C01F928F938DEB95E0C0
:104B20009F938F930E94F0070F900F900F900F901C
:104B300081E092CFC13509F494C0C23509F48BC02D
:104B4000CE3459F66AE08EC082ED95E00E94570798
:104B500081E08093E60480CF8CEA95E00E945707BD
:104B60008AE995E00E94570780910B011F928F936D
:104B700087E995E09F938F930E94F00785E995E080
:104B80000E94570783E895E00E94570780910A0129
:104B90001F928F9380E895E09F938F930E94F00778
:104BA0008EE795E00E9457078FE695E00E94570731
:104BB000809109011F928F938CE695E09F938F93CC
:104BC0000E94F0078AE695E00E94570789E595E084
:104BD0000E945707809108011F928F9386E595E008
:104BE0009F938F930E94F00784E595E00E945707FA
:104BF0008FE395E00E945707809107011F928F93E2
:104C00008CE395E09F938F930E94F0078AE395E0F1
:104C10000E94570783E295E00E94570780910601A2
:104C20001F928F9380E295E09F938F930E94F007ED
:104C30008EE195E00E9457078DB79EB748960FB654
:104C4000F8949EBF0FBE8DBF62CF8C2F0E940625A9
:104C50008093E5045CCF61E08091E5040E947A21B5
:104C600056CF61E08091E5040E941E2250CF6AE099
:104C7000F3CF8EE180930B0182E380930A018AE0F7
:104C80008093090184E18093080188E08093070103
:104C900088E28093060185EC95E00E94570737CFA4
:104CA0008AEB95E01CCF8091F20408959FB7F894A9
:104CB0001092E9049FBF90910105943009F049C01A
:104CC0002091E9002F709091EC0090FD30C090E0B1
:104CD000922B23E02093E9002091EB0020FF36C0C7
:104CE0002091EE0027FF32C02091E704222321F01B
:104CF0002091E80025FF2AC01092E70426E03091B9
:104D0000E80035FF16C08093F1008091E80085FD32
:104D100029C08091E80080FFFCCF8091E8008E7769
:104D20008093E8009F709093E90080E0089590E8F8
:104D3000CFCF30910105343049F43091EB0035FD8F
:104D400005C0215041F481E08093E7049F70909367
:104D5000E9008FEF0895EFE9FFE03197F1F700C028
:104D60000000CDCF8FB7F89421E02093E9048FBFE6
:104D7000D9CF0F931F93CF93DF9300D01F92CDB75E
:104D8000DEB78C010E946F29823011F0843021F54A
:104D900084E089831B830A8382E08093E9008FEF9C
:104DA0009091E800815095FD06C095ED9A95F1F738
:104DB00000008111F5CF8091E80085FF0DC050E023
:104DC00040E063E070E0CE0101960E948C29809162
:104DD000E8008E778093E8000F900F900F90DF919E
:104DE000CF911F910F910895CF93DF9300D01F9221
:104DF000CDB7DEB720910105243031F523E02983BA
:104E0000805891099B838A8382E08093E9008FEF29
:104E10009091E800815095FD06C095ED9A95F1F7C7
:104E200000008111F5CF8091E80085FF0DC050E0B2
:104E300040E063E070E0CE0101960E948C298091F1
:104E4000E8008E778093E8000F900F900F90DF912D
:104E5000CF910895CF93DF93EC010E946F298230A8
:104E600011F08430F9F482E08093E9008FEF9091A3
:104E7000E800815095FD06C095ED9A95F1F7000088
:104E80008111F5CF8091E80085FF0CC050E040E033
:104E900066E070E0CE010E948C298091E8008E7758
:104EA0008093E800DF91CF910895CF93DF93EC01D9
:104EB0000E946F29823011F0843039F581E08093AF
:104EC000E9008FEF9091E800815095FD06C095EDC7
:104ED0009A95F1F700008111F5CF8091E80085FFE8
:104EE00014C050E040E068E070E0CE010E948C29E0
:104EF0008091E8008E778093E80088E0FE01AAEEBA
:104F0000B4E001900D928A95E1F7DF91CF91089579
:104F10008FE79CE00E94570780910005811109C02E
:104F20000E941C2B0E94792B8091E2008460809368
:104F3000E20008958BE79CE00E945707109200055D
:104F4000089587E79CE00C94570783E79CE00C9456
:104F500057078FE69CE00E9457070C94981C2091FD
:104F6000E8042F5F822F62E30E941D2E992319F01F
:104F70002093E80408951092E8048091E9048823BE
:104F8000E9F0809101058430B9F49091E9009F70B7
:104F90008091EC0080FD13C080E0892B93E090931A
:104FA000E9009091EB0090FF04C09091EE0097FD16
:104FB0000AC08F708093E9001092E904089580E898
:104FC000ECCF1092F1009091E80095FDFACF90910E
:104FD000E80090FFEECF9091E8009E779093E80074
:104FE000E8CF42E061EC81E00E949A2A42E261EC63
:104FF00082E00E949A2A42E261EC83E00C949A2AB1
:1050000080910305833009F462C030F48130D9F116
:10501000823009F49EC008958A3009F48AC08B302A
:1050200009F470C0893009F051C0809102058132C5
:1050300009F04CC08091060590910705029708F091
:1050400045C08091E800877F8093E8008091E80068
:1050500082FF38C08091F3009091F2008927982751
:105060008927029729F48091F1008B7F813021F408
:105070008091F1008093F2048091E8008B77809317
:10508000E8000C94CE2A80910205813AF9F48091CF
:10509000E800877F8093E8008091060590910705DE
:1050A000892B61F468E08AEE94E070E00E94DB29CD
:1050B0008091E8008B778093E800089560E090E0AD
:1050C00080E0F3CF809101058111C0CF08958091D8
:1050D0000205813AD9F78091060590910705892B41
:1050E000A9F78091E800877F8093E8008091E8002D
:1050F00080FFFCCF809116018093F1008091E80041
:105100008E77BDCF80910205813201F7809106052F
:1051100090910705892BD1F68091E800877F8093D5
:10512000E8000E94CE2A80910405809316010C9419
:10513000DB1480910205813249F68091E800877F77
:105140008093E8000E94CE2A809105058093F304A5
:10515000089580910205813A09F0B8CF8091E80066
:10516000877F8093E8008091E80080FFFCCF8091EA
:10517000F304C2CF84B7877F84BF0FB6F894A89595
:1051800080916000886180936000109260000FBE83
:1051900080E880936100109261000E9416100E94C6
:1051A0001C2B0E94792B8091E20084608093E200A6
:1051B00086E596E20E946D1B78940E94012E0E9463
:1051C0001E108CE091E00E94710F8EE59CE00E9421
:1051D000570780910105853019F00E944E10F9CFD4
:1051E0008AE59CE00E9457070E94511C8091FF04B1
:1051F000882379F30E94811C882359F30E94762921
:10520000E8CF0C940329292F33272330310579F176
:1052100058F421303105F1F02230310519F190E0D8
:1052200080E030E020E01AC021323105C9F122329D
:105230003105A9F76330710590F7FB01EE0FFF1FF1
:10524000EC5DFE4F208131816F5D7E4FFB018081DF
:1052500090E004C082E190E02AE03DE0FA01318371
:10526000208308958BE590E02FEA3CE0F7CF992763
:105270008130910579F040F08230910571F003970B
:1052800071F6E3E8FCE002C0EBEAFCE0849190E018
:105290009F01E4CFEDE9FCE0F9CFE9E8FCE0F6CFCF
:1052A0006330710508F0BBCF660F771FFB01E65D29
:1052B000FE4F2081318189E090E0D0CF0895CF93D7
:1052C000C82F0E945E29C093F404CF910895809165
:1052D0000105843011F081E0089582E00895809105
:1052E000F404811102C00C946729089580E189BDFE
:1052F00082E189BD09B400FEFDCF8091D8008F7D89
:105300008093D8008091E00082608093E0008091DB
:10531000E00081FDFCCF0895AF92BF92CF92DF9263
:10532000FF920F931F93CF93DF936C01EB018A01E0
:105330000E94ED2AF82E811123C00115110539F0C4
:10534000F80180819181C81BD90BC80ED91EB12CE0
:10535000A12C2097A9F08091E80085FD22C08091C2
:10536000E8008E778093E80001151105A1F0F8019F
:1053700080819181A80EB91EB182A08285E0F82EAD
:105380008F2DDF91CF911F910F91FF90DF90CF90E4
:10539000BF90AF9008950E94ED2A8823D1F2F82E95
:1053A000EFCFF60181916F018093F1002197FFEF1C
:1053B000AF1ABF0ACECFFC01809108059091090574
:1053C00086179707A0F06115710529F49091E80000
:1053D0009E779093E80090E06115710551F491116A
:1053E00008C08091E80082FF35C080E00895BC01CC
:1053F000F2CF809101058823C9F18530C9F18091F0
:10540000E80083FD31C08091E80082FDEACF809101
:10541000E80080FFE1CF2091F3008091F200322F6D
:10542000282F6115710519F02830310558F091E0E9
:105430002830310509F090E02091E8002E77209384
:10544000E800CACF81918093F100615071092F5F0C
:105450003F4FE7CF80910105882341F0853041F02F
:105460008091E80083FFBDCF81E0089582E0089538
:1054700083E00895FC018091080590910905861745
:105480009707A0F06115710529F48091E8008E77E7
:105490008093E80090E06115710551F4911108C006
:1054A0008091E80082FF36C080E00895BC01F2CF11
:1054B000809101058823D1F18530D1F18091E800F8
:1054C00083FD32C08091E80082FDEACF8091E80040
:1054D00080FFE1CF2091F3008091F200322F282F3E
:1054E0006115710519F02830310558F091E0283028
:1054F000310509F090E08091E8008E778093E80014
:10550000CACF84918093F1003196615071092F5F69
:105510003F4FE6CF80910105882341F0853041F06F
:105520008091E80083FFBCCF81E0089582E0089578
:1055300083E00895982F973028F08F708093E900CA
:1055400081E008959093E900242F762F50E098177A
:1055500031F07091EC002091ED005091F00021FDB0
:1055600002C09F5FE8CF3091EB003E7F3093EB00AD
:105570003091ED003D7F3093ED003091EB003160D4
:105580003093EB007093EC002093ED005093F0000B
:105590002091EE0027FDE5CF80E00895809102057F
:1055A00087FF13C08091E80082FF06C08091E80069
:1055B0008B778093E80004C0809101058111F2CFC0
:1055C0000895809101058823D9F38091E80080FF38
:1055D000F8CF8091E8008E77ECCF2091E4003091F5
:1055E000E50085E69091EC0090FF06C09091E80000
:1055F00090FF06C080E008959091E80092FDFACFF8
:1056000090910105992391F0953091F09091EB00E4
:1056100095FD10C04091E4005091E5002417350736
:1056200009F381509A01F1F684E0089582E008952B
:1056300083E0089581E008950E948A2B0E94922BB6
:10564000E0EEF0E0808181608083E8EDF0E0808131
:105650008F77808319BCA7EDB0E08C918E7F8C93FF
:1056600080818F7E80831092000508950F931F9391
:10567000CF93DF930E948A2B0E94922BC8EDD0E03B
:1056800088818F77888388818068888388818F7DEF
:10569000888319BC109201051092FD041092FF043A
:1056A0001092FE0400EE10E0F80180818B7F808371
:1056B00088818160888342E060E080E00E949A2ACD
:1056C000E1EEF0E080818E7F8083E2EEF0E0808189
:1056D00081608083808188608083F80180818E7FF3
:1056E0008083888180618883DF91CF911F910F91A2
:1056F0000895E8EDF0E080818F7E8083E7EDF0E0B3
:1057000080818160808384E082BF81E08093000596
:105710000C94362BE8EDF0E080818E7F8083109230
:10572000E20008951092DA001092E10008951F92AD
:105730000F920FB60F9211242F933F934F935F93C5
:105740006F937F938F939F93AF93BF93EF93FF9349
:105750008091E10082FF0BC08091E20082FF07C0D0
:105760008091E1008B7F8093E1000E94AF278091C0
:10577000DA0080FF19C08091D80080FF15C08091A9
:10578000DA008E7F8093DA008091D90080FF94C088
:1057900080E189BD82E189BD09B400FEFDCF81E0D1
:1057A000809301050E9488278091E10080FF19C045
:1057B0008091E20080FF15C08091E2008E7F80938F
:1057C000E2008091E20080618093E2008091D80045
:1057D00080628093D80019BC85E0809301050E9407
:1057E000A5278091E10084FF29C08091E20084FF19
:1057F00025C080E189BD82E189BD09B400FEFDCFED
:105800008091D8008F7D8093D8008091E1008F7EB9
:105810008093E1008091E2008F7E8093E20080918E
:10582000E20081608093E2008091FD04882309F406
:1058300049C084E0809301050E94A9278091E1007E
:1058400083FF29C08091E20083FF25C08091E100A1
:10585000877F8093E10082E0809301051092FD0430
:105860008091E1008E7F8093E1008091E2008E7F45
:105870008093E2008091E20080618093E20042E048
:1058800060E080E00E949A2A8091F0008860809316
:10589000F0000E94A127FF91EF91BF91AF919F91DE
:1058A0008F917F916F915F914F913F912F910F90C9
:1058B0000FBE0F901F90189519BC109201050E9401
:1058C0009A2772CF8091E30087FD02C081E0B2CFBA
:1058D00083E0B0CF1F920F920FB60F9211242F9337
:1058E0003F934F935F936F937F938F939F93AF9368
:1058F000BF93CF93EF93FF93C091E900CF70809156
:10590000EC001092E9008091F000877F8093F00016
:1059100078940E94A62C1092E9008091F000886093
:105920008093F000C093E900FF91EF91CF91BF9178
:10593000AF919F918F917F916F915F914F913F9127
:105940002F910F900FBE0F901F9018951F93CF931C
:10595000DF93CDB7DEB7AA970FB6F894DEBF0FBEC0
:10596000CDBFE2E0F5E08091F100819325E0EA30DF
:10597000F207C9F70E9400288091E80083FF44C025
:1059800080910205909103059A3008F03DC0E92FFF
:10599000F0E0E353F34D0C943D2ED72CFD2C042D59
:1059A000FD2C042D5B2D7D2D042DD42DE12D803873
:1059B00089F0823849F5809106058F70873020F58F
:1059C0008093E9008091EB0085FB882780F9109295
:1059D000E90006C08091FE049091FF04911182605D
:1059E0009091E800977F9093E8008093F1001092E7
:1059F000F1008091E8008E772DC0282F2D7F21F4B3
:105A00008823D1F0823059F18091E80083FF0AC0E9
:105A10008091E800877F8093E8008091EB008062AE
:105A20008093EB00AA960FB6F894DEBF0FBECDBFF1
:105A3000DF91CF911F91089580910405813021F766
:105A4000933009F080E08093FF041092E900809188
:105A5000E800877F8093E8000E94CE2AD5CF80910E
:105A600004058111F2CF809106058F702FEF280F6A
:105A7000263050F68093E9002091EB0020FFE5CF1F
:105A8000933031F48091EB0080628093EB00DDCFA6
:105A90009091EB0090619093EB0021E030E001C029
:105AA000220F8A95EAF72093EA001092EA0080918B
:105AB000EB008860EACF8111A7CF109104051F7712
:105AC0008091E3008078812B8093E3008091E8004F
:105AD000877F8093E8000E94CE2A8091E80080FFB3
