:100000000C944A030C9491030C9491030C94910367
:100010000C9491030C9491030C9491030C94910310
:100020000C9491030C9491030C94FF1E0C94BB1E32
:100030000C948C230C9491030C9491030C949103D5
:100040000C9491030C9491030C9491030C949103E0
:100050000C9491030C9468230C9491030C949103D9
:100060000C9491030C9491030C9491030C949103C0
:100070000C9491030C9491030C9491030C949103B0
:100080000C9491030C9491030C9491030C949103A0
:100090000C9491030C9491030C9491030C94910390
:1000A0000C9491030C9491030C94910300010101B1
:1000B0000101010101010202020202020202020325
:1000C00003030303030303040404040404040505F5
:1000D00005050506060606060707070707080808B8
:1000E00008090909090A0A0A0B0B0B0C0C0C0D0D67
:1000F0000D0E0E0E0F0F0F101011111112121313FF
:100100001414151516161717181819191A1A1B1B77
:100110001C1D1D1E1E1F20202122222324242526D3
:1001200026272829292A2B2C2D2D2E2F303132320B
:10013000333435363738393A3B3C3D3E3F40414217
:10014000434445464748494A4C4D4E4F50515354FD
:10015000555658595A5B5D5E5F61626465666869B1
:100160006B6C6D6F7072737577787A7B7D7E808231
:10017000838587888A8C8E8F91939596989A9C9E7A
:10018000A0A2A3A5A7A9ABADAFB1B3B5B7BABCBE8A
:10019000C0C2C4C6C9CBCDCFD1D4D6D8DBDDDFE257
:1001A000E4E7E9EBEEF0F3F5F8FAFDFFFFAA7F557F
:1001B000402223252628292A2C2D2F30323335366C
:1001C000383A3B3D3E4042434547494A4C4E5051E8
:1001D000535557595A5C5E6062646668696B6D6F0F
:1001E00071737577797B7D7F81838587898A8C8E12
:1001F00090929496989A9C9E9FA1A3A5A7A8AAAC1A
:10020000AEAFB1B3B4B6B8B9BBBCBEBFC1C2C3C553
:10021000C6C7C9CACBCCCDCED0D1D2D2D3D4D5D6F5
:10022000D7D7D8D9D9DADADBDBDBDCDCDCDCDCDD28
:10023000DDDDDDDCDCDCDCDCDBDBDBDADAD9D9D80C
:10024000D7D7D6D5D4D3D2D2D1D0CECDCCCBCAC9A4
:10025000C7C6C5C3C2C1BFBEBCBBB9B8B6B4B3B1D3
:10026000AFAEACAAA8A7A5A3A19F9E9C9A9896946E
:1002700092908E8C8A89878583817F7D7B79777543
:1002800073716F6D6B6968666462605E5C5A595722
:10029000555351504E4C4A4947454342403E3D3BE1
:1002A0003A3836353332302F2D2C2A29282625236B
:1002B0002229003B003D003F00410000004400684F
:1002C0000047003A003C003E004000420043004529
:1002D000004600480035001F0021002300250027AC
:1002E000002E002A004A001E0020002200240026C2
:1002F000002D00000049004B002B001A0015001CC7
:10030000000C001300300000004D0014000800171E
:1003100000180012002F0031004C004E0029611619
:100320000009000B000E0033420000000000000432
:100330000007000A000D000F003400280000000034
:1003400000E1001D000600050010003700E5000078
:1003500000520000001B0019001100360038000098
:100360000000000000E000E30000000000000000CA
:10037000000000000051000000000000002C000000
:1003800000E600015150004F00005C010001000137
:100390000001000000010001000100010001000156
:1003A0000001000100010001000100010001000145
:1003B00000010001000100010001004C00010001EA
:1003C000000100010001000100010000000100A97E
:1003D0000001000100010001000100010001000016
:1003E0000001000100010001000100010001000105
:1003F000000100AA0001000100010001000100014C
:1004000000000000000000010001000100010001E7
:10041000000100010000000000390001000100019E
:1004200000010001000100000001000000010001C6
:1004300000010001000100000000000000010001B7
:1004400000000000000000000000000000A8000004
:100450000000000000AE00000001000100AC00AB95
:100460000001000100010001000100000001000185
:100470000001000100010001000100010001000174
:100480000001000100010001004D00010001004ACF
:100490000001000100010001000100010001000154
:1004A0000001000000010001000100010001000145
:1004B0000001000100010000000100010001000135
:1004C000004B0001000100010001000100010001DA
:1004D000004E00500052000100000000000000012A
:1004E000004E00010051004F00010001000000001B
:1004F000000100010001004B0001000100010000AB
:1005000000010000004C000100010001000100009A
:1005100000000000000100010000000000000000D9
:1005200000000000000100000000000000010000C9
:1005300000010001000100010032190A00047F3FA0
:100540001F643214643214783C1E1E140A0505011F
:100550000902A10185020901A10005091901290566
:10056000150025019505750181029501750381012D
:100570000501093009311581257F9502750881062D
:1005800009381581257F950175088106050C0A3803
:10059000021581257F950175088106C0C0050109F6
:1005A00080A101850319012AB700150126B700951E
:1005B0000175108100C0050C0901A1018504190114
:1005C0002AA002150126A002950175108100C00520
:1005D000010906A101050719E029E7150025019584
:1005E0000875018102950175088101050719002927
:1005F000FF150026FF009506750881000508190102
:100600002905950575019102950175039101C009B0
:10061000023B00020100A0FA0904000001030101ED
:100620000009211101000122400007058103080093
:100630000A09040100010300000009211101000161
:100640002281000705820320000A12011001000028
:100650000008D804A2EC01000102000108036800B0
:100660003800380000002803680069006E0065004B
:100670007900620075007300680020006B0065005F
:10068000790062006F006100720064007300000076
:100690000403090411241FBECFEFDAE0DEBFCDBF93
:1006A00004B603FE27C08091770390917803A09150
:1006B0007903B0917A038730904BA740B04BD1F4C7
:1006C00010927703109278031092790310927A03B4
:1006D00014BE84B7877F84BF0FB6F894A895809125
:1006E0006000886180936000109260000FBEE0E0BF
:1006F000F8E3099523E0AEE8B1E001C01D92A73709
:10070000B207E1F711E0A0E0B1E0E0EDFAE402C0E9
:1007100005900D92AE38B107D9F70E94EF1F0C94E7
:100720002E250C940000E8EDF0E080818E7F808320
:100730001092E2001092DA001092E100A0EEB0E018
:100740008C9181608C9380818F77808319BCA7ED19
:10075000B0E08C918E7F8C9380818F7E808310920D
:10076000560308952091E4003091E50095E6A90133
:100770002091EC00822F817020FF06C08091E8005C
:1007800080FF06C080E008952091E80022FD1AC095
:1007900080916A03882389F0853089F08091EB008D
:1007A00085FD0FC02091E4003091E500421753070A
:1007B000F9F29150E1F684E0089582E0089583E033
:1007C000089581E00895EF92FF920F931F93CF93C6
:1007D0007C018B010E94B203C82F811117C0809148
:1007E000E80085FD0BC08091E8008E778093E800DB
:1007F0000E94B203882399F3C82F08C0F7018191A2
:100800007F018093F1000150110949F78C2FCF919E
:100810001F910F91FF90EF90089580916C0387FFD7
:1008200013C08091E80082FF06C08091E8008B77BA
:100830008093E80004C080916A038111F2CF08958B
:1008400080916A038823D9F38091E80080FFF8CF74
:100850008091E8008E77ECCF982F9093E900242FB9
:10086000762F50E0891731F07091EC002091ED0067
:100870005091F00021FD07C09F5F973071F7809382
:10088000E90081E008953091EB003E7F3093EB006A
:100890003091ED003D7F3093ED003091EB00316001
:1008A0003093EB007093EC002093ED005093F00038
:1008B0002091EE0027FDE0CF80E00895CF92DF92F7
:1008C000EF92FF920F931F93CF93DF93C8EDD0E089
:1008D00088818F7E8883E7EDF0E08081816080836E
:1008E00084E082BF81E08093560388818E7F888375
:1008F00002EE10E0F80110821092DA0081EEC82EAC
:10090000D12CF601108288818F7788838881806856
:10091000888388818F7D888319BC10926A03109226
:100920006B03109269031092680390EEE92EF12C8C
:10093000F70180818B7F808388818160888342E09A
:1009400060E080E00E942C04F60180818E7F80832D
:10095000F801808181608083808188608083F701D5
:1009600080818E7F8083888180618883DF91CF91B1
:100970001F910F91FF90EF90DF90CF900895FC01B1
:10098000809172039091730386179707A0F0611509
:10099000710529F49091E8009E779093E80090E02B
:1009A0006115710551F4911108C08091E80082FF32
:1009B00034C080E00895BC01F2CF80916A0388239F
:1009C000C1F18530C1F18091E80083FD30C0809194
:1009D000E80082FDEACF8091E80080FFE1CF8091BE
:1009E000F3002091F200382F6115710519F02830BD
:1009F000310558F091E02830310509F090E0209160
:100A0000E8002E772093E800CBCF81918093F1000E
:100A1000615071092F5F3F4FE7CF80916A038823B0
:100A200041F0853041F08091E80083FFBECF81E046
:100A3000089582E0089583E00895089580915F030A
:100A4000089590913803803F59F48091390387FFCE
:100A50000DC01092390391110BC01092330308C0DE
:100A6000813F81F48091390318169CF3992381F01A
:100A700080913A0390913B03892B09F064C0109256
:100A800030030895823F49F497FFF0CF1092380366
:100A9000809139038111ECCFE0CF833F19F419160F
:100AA000ACF3E4CF20913A03893F29F41216F4F60F
:100AB00010923A03DBCF8A3F19F427FFD7CFF8CF44
:100AC00020913B038B3F29F427FFD0CF10923B03AB
:100AD000CDCF8C3F19F41216CCF3C8CF843F31F43C
:100AE000809137038E7F80933703C0CF853F21F4F9
:100AF000809137038D7FF7CF863F21F480913703B4
:100B00008B7FF1CF873F21F480913703877FEBCF35
:100B1000883F21F4809137038F7EE5CF8D3F31F4FC
:100B20008091ED028E7F8093ED02A0CF8E3F21F465
:100B30008091ED028D7FF7CF8F3F09F097CF8091A5
:100B4000ED028B7FF0CF08958091ED0280FD16C0FD
:100B500081FD16C082FD16C0809130038823A1F06C
:100B6000883280F428E0829FC001112468E270E09E
:100B70000E94F123862F672B39F0089582E00895B3
:100B800084E0089588E0089581E008958091ED0261
:100B900080FD14C081FD14C082FD16C08091330316
:100BA000882381F0843180F422E3829FC0011124E4
:100BB00064E170E00E94F123862F08958CE008958F
:100BC00089E1089585E0089582E30895803F31F436
:100BD0000E94C6058195809339030895813F19F4D9
:100BE0000E94C605F8CF823F31F40E94C605819568
:100BF000809338030895833F19F40E94C605F8CF07
:100C0000893F29F40E94A40580933A0308958A3FFE
:100C100021F40E94A4058195F7CF8B3F31F40E9407
:100C2000A405819580933B0308958C3F19F40E949D
:100C3000A405F8CF843F31F480913703816080931D
:100C400037030895853F21F4809137038260F7CF01
:100C5000863F21F4809137038460F1CF873F21F4F0
:100C6000809137038860EBCF883F21F48091370370
:100C70008061E5CF8D3F31F48091ED0281608093FA
:100C8000ED0208958E3F21F48091ED028260F7CF4E
:100C90008F3FB9F78091ED028460F1CF9C014FB78F
:100CA000F8948091E9029091EA02A091EB02B09150
:100CB000EC024FBF821B930B08952FB7F8948091DD
:100CC000E9029091EA02A091EB02B091EC022FBFF1
:100CD00008950E945D069C0190913803809139032C
:100CE000982B21F0309335032093340390913A03ED
:100CF00080913B03982B21F03093320320933103F2
:100D0000E0910D03F0910E03309749F082E080935B
:100D100036030480F581E02D86E393E0099408957D
:100D20008091E40281111092E40208958091E3021F
:100D30009091E202892B9091E102892B80938E01A0
:100D40009091E402992391F0892B80938E0120E009
:100D500080E991E0FC013191CF0131112F5FF1E089
:100D600086399F07B9F721110E949006E0910D0383
:100D7000F0910E03309731F00280F381E02D8EE880
:100D800091E009940895E0E9F1E09191891303C09D
:100D9000DF0111971C9291E0E639F907B1F7089548
:100DA000A0E9B1E0EFEF90E02D91821751F0EF3F15
:100DB00019F4211101C0E92F9F5F9630A9F7EF3F89
:100DC00009F408950E2E000CFF0BE257FE4F8283AC
:100DD000089529E0929F800D1124982F9770869591
:100DE0008695869525E0829FF0011124E656FD4FF9
:100DF00050E040E080E0219130E0092E02C03695BD
:100E000027950A94E2F721703327042E01C0220FA0
:100E10000A94EAF7822B4F5F5F4F4530510559F72F
:100E2000089529E0929F800D1124982F977041E03A
:100E300001C0440F9A95EAF786958695869595E0C8
:100E4000899FF0011124E656FD4F90E080E070E0AC
:100E50005191DF0111979B01082E02C0369527950D
:100E60000A94E2F7217021952527242325272C9326
:100E700001968530910561F70895809199029091CE
:100E80006802981301C008958F5F8770FACF882396
:100E900041F080959091E30289238093E3020C94C2
:100EA00096060895882339F09091E302982B909349
:100EB000E3020C949606089520915E0230915F0241
:100EC0002817390771F090935F0280935E02E091DA
:100ED0000D03F0910E03309721F00084F185E02D91
:100EE0000994089520915C0230915D02281739071A
:100EF00071F090935D0280935C02E0910D03F0919C
:100F00000E03309721F00680F781E02D09940895B3
:100F10001092E2021092E1020E94960686E0E6E359
:100F2000F3E0DF011D928A95E9F7109233031092E6
:100F300030031092ED020E94690690E080E00E946A
:100F4000720790E080E00C945C0760930603709356
:100F5000070380930803909309030C9488070F9369
:100F60001F9341E050E060E070E004C0440F551F63
:100F7000661F771F8A95D2F7CB01BA0160957095ED
:100F80008095909500910603109107032091080326
:100F90003091090360237123822393231F910F91C2
:100FA0000C94A5079091E002809589238093E0023C
:100FB000282F277071F4282F082E000C330B92175E
:100FC000130639F08595859585950E94AF07109297
:100FD000E00208950F931F9341E050E060E070E05D
:100FE00004C0440F551F661F771F8A95D2F7809162
:100FF000060390910703A0910803B09109038A01A9
:101000009B01082B192B2A2B3B2BC901B8011F91DF
:101010000F910C94A5076093E5027093E60280930C
:10102000E7029093E8020C948807E0910D03F09199
:101030000E03309721F00190F081E02D099480E0BB
:101040000895882309F459C0823871F40E94150864
:1010500081FF53C089E30E94D0060E94960689E36F
:101060000E94C3060C949606833859F40E94150812
:1010700080FF43C083E50E94D0060E94960683E568
:10108000EFCF843859F40E94150882FF36C087E4F8
:101090000E94D0060E94960687E4E2CF9CEF980F4C
:1010A000913AF0F290E2980F983088F4877021E03E
:1010B00030E0A90102C0440F551F8A95E2F7CA012A
:1010C00080959091E30289238093E302CBCF9BE547
:1010D000980F933020F490E080E00C94720798E52C
:1010E000980F973120F490E080E00C945C07803FEB
:1010F00020F00E9421050C9469060895CF92DF929A
:10110000EF92FF92843030F5811125C090918000DC
:10111000977F909380002F98282F30E0AFEFBFEF9C
:101120000E941F2523E030E040E050E00E94FD24B3
:10113000C9012C3764E13607A0F469E070E00E9431
:10114000DD2370938D0060938C00FF90EF90DF9013
:10115000CF90089583E090918000986090938000F4
:10116000DBCF2A50374D4F4F5F4F942F832F722F75
:10117000662725EF38E241E050E00E94FD24690136
:101180007A01CA01B9010E94B3239B01AC01C701D6
:10119000B6010E94B323672F782F892F99276115F5
:1011A000710521E08207910561F66FEF7FEFC9CFEE
:1011B000FA01811101C0FB01099480915703982F16
:1011C0009E7F29F48170826080935703089586354D
:1011D000E8F381708465F8CFAF92BF92DF92EF920F
:1011E000FF920F931F93CF93DF93082F162FE901E0
:1011F000E42FF0E0E455FF4F611110C0E4915E2F41
:101200004E2F4983E8835A83DF91CF911F910F912D
:10121000FF90EF90DF90BF90AF900895E62EF12CF5
:101220004491D42EE42FF0E026E0829FC0011124E7
:101230002FEF30E0B9010E94DD23802F90E0880F6E
:10124000991F55E5569FD001579FB00D11248A1B59
:101250009B0B982F990F890F5901AE18BF08AE9EAE
:10126000D001AF9EB00DBE9EB00D11245B2F189F14
:1012700080011124012F11275901A01AB10AAE9E35
:101280008001AF9E100DBE9E100D11245901A81AA9
:10129000B108AE9CC001AF9C900DBE9C900D112476
:1012A000892F9927281B390B2E9FC0012F9F900D46
:1012B0003E9F900D1124E92F62307105A1F050F48A
:1012C0006115710509F49DCF6130710581F0EB2F37
:1012D000512F97CF6430710569F080F06630710549
:1012E00009F48FCFF4CFE42F4B2F592F8ACFE42F5F
:1012F000412F87CFEB2F542F492F83CF4B2F5D2DBD
:10130000E12F7FCFF894E82FE295EF70F0E031A164
:10131000282F2F7081E090E001C0880F2A95EAF70E
:10132000982F9095932391A392A1892B82A37894CF
:10133000089590910A0392FF06C0282F2871283043
:10134000F9F4877F846093FF06C0282F2871283125
:10135000F1F4877E846120910B0320FF06C0382FB3
:1013600038713830D9F4877F816021FF06C0282F7B
:1013700028712831D1F4877E816194FD877E08959C
:10138000282F24712430F9F68B7F8860DCCF282F3A
:101390002471243101F78B7E8861DDCF382F3171C4
:1013A000313019F78E7F8860E0CF282F21712131ED
:1013B00021F78E7E8861E1CFCF93DF93972F70E086
:1013C00029E0929F600D711D1124FB013CE6839F73
:1013D000E00DF11D1124EE0FFF1FEF54FD4FC591DD
:1013E000D491CE01C238D105B9F1E8F5C133D105A8
:1013F00009F499C050F5C932D10509F48DC0CA323B
:10140000D10509F497C0C11521E5D20708F0BFC086
:10141000C11530E5D30708F016C1C83ED10508F064
:101420009DC0C03ED10568F5C83AD10508F089C015
:10143000C53AD10508F0FFC0C130D10511F12097A0
:1014400009F443C02497E8F440C0C533D10509F43A
:101450005CC0C933D105B9F620910A03237089F025
:1014600080EE90E00EC0C33ED10591F168F4C03E1D
:10147000D105F9F0C23ED10531F620910A0322FDD3
:1014800020C0DF91CF910895C63ED10561F1C73EDE
:10149000D10581F1C43ED10509F0B5CF20910B03F0
:1014A00021FFEFCF80910A0384FD0FC087EE90E00B
:1014B000E8CF20910A0320FD12C130910B0330FFC9
:1014C000E0CF83EE90E024FFDCCF90E080E0D9CF46
:1014D00020910A0322FD06C130910B0330FDC0CFDD
:1014E00024FFCFCFF2CF20910A0323FFCACF24FDE0
:1014F000ECCFDCCF20910A0323FDF7C030910B0322
:1015000031FFEECF84EE90E0BCCF20910A0325FF9F
:10151000B8CF89E290E0B5CF20910A0325FFB1CF83
:1015200085E390E0AECF20910A0326FFAACF8AE29E
:1015300090E0A7CF20910A0326FFA3CF81E390E09C
:10154000A0CFCF3BD10508F6C85AD0E0CC0FDD1FA5
:10155000C55BDE4F88819981946493CFC11520E2E9
:10156000D20760F4C11531E0D30708F08ACFCE016D
:101570009065C03FD10508F084CFA7CFC11580E4A6
:10158000D80708F4A2CFCE019F70906A7ACFC11518
:1015900095E5D90710F5C11524E5D20708F088C0F4
:1015A000C11533E5D30708F06FC0C11582E5D80730
:1015B00008F465C09E012370332781E090E002C0EB
:1015C000880F991F2A95E2F7C695C69520E2C29F1B
:1015D000E00111248C2B9D2B50C0C11599E5D90732
:1015E000A0F4C11528E5D20708F067C0C11536E59B
:1015F000D30708F06ACF8C2F0E94990990E0982FAA
:10160000882788279F7190623CCFC1158AE5D8074B
:1016100008F458C0CE0190568115904208F055CF7D
:101620008D2F8F710E94990990E0982F8827882725
:101630009F718C2BE8CFC55AD0E0C85BDE4F888104
:1016400090E090641ECF9E01E4E036952795EA95E0
:10165000E1F723708C2F86958695837030E2839F07
:10166000C0011124922BC37021E030E002C0220F90
:10167000331FCA95E2F7822B932B9C6802CF9C2FD5
:101680008827816F906AFDCE9E012370332781E009
:1016900090E002C0880F991F2A95E2F7C695C6957B
:1016A00030E2C39FE00111248C2B9D2B9A68E9CE78
:1016B0009C2F8827846F906AE4CE9C2F8827806FA8
:1016C000906ADFCE8C2F8F700E94990934E0D695F6
:1016D000C7953A95E1F7CF709C2F9069D2CE89E3F8
:1016E00090E0CFCE82EE90E0CCCE86EE90E0C9CEF8
:1016F000BF92CF92DF92EF92FF920F931F93CF93FF
:10170000DF938C01C0900603D0900703E09008039C
:10171000F09009038091E5029091E602A091E70222
:10172000B091E802C82AD92AEA2AFB2ACFE1D0E000
:10173000BC2ED701C6010C2E04C0B695A79597956F
:1017400087950A94D2F780FD0EC0219788F7B12CB7
:101750008B2DDF91CF911F910F91FF90EF90DF9034
:10176000CF90BF900895B8018C2F0E94DC0901979B
:1017700061F3EECFCF93DF93EC010E94780BBE01B3
:10178000DF91CF910C94DC090E94BA0B292F2F70A6
:1017900092959F7092509E3078F4E92FF0E0E05DD2
:1017A000FA4D0C940524803F19F020F4883E20F473
:1017B00081E00895843FE1F380E00895883EC0F31E
:1017C000813FD1F7F5CF822F86958695869508952E
:1017D00082FB992790F981FD05C05D9A911104C0A3
:1017E000769A08955D98FACF76980895CF93DF930F
:1017F00000D00F92CDB7DEB790916A03943019F5FF
:1018000089837B836A8382E08093E9008FEF9091E4
:10181000E800815095FD06C095ED9A95F1F700001E
:101820008111F5CF8091E80085FF0DC050E040E0C8
:1018300063E070E0CE0101960E94E3038091E8002E
:101840008E778093E8000F900F900F90DF91CF91EB
:101850000895BC0184E00C94F60BBC0183E00C9469
:10186000F60B9C0182E08093E9009FEF8091E800F5
:10187000915085FD06C085ED8A95F1F70000911124
:10188000F5CF8091E80085FF0CC050E040E066E0B5
:1018900070E0C9010E94E3038091E8008E77809395
:1018A000E8000895CF93DF93EC0181E08093E90095
:1018B0008FEF9091E800815095FD06C095ED9A95C7
:1018C000F1F700008111F5CF8091E80085FF14C089
:1018D00050E040E068E070E0CE010E94E3038091B8
:1018E000E8008E778093E80088E0FE01A0E6B3E090
:1018F00001900D928A95E1F7DF91CF91089581E0F3
:101900008093E00080E28093D8001092C9008FE1BC
:101910009EE40197F1F700C0000087E090EBDC0146
:101920008093770390937803A0937903B0937A031D
:1019300088E19CE00FB6F894A895809360000FBEF4
:1019400090936000FFCFCF93C82F882309F490C0F5
:101950008238C1F40E94150881FD8AC089E30E9483
:10196000D0060E9496062FEF81EE94E02150804031
:101970009040E1F700C0000089E30E94C306CF91C8
:101980000C9496068338A1F40E94150880FD70C05F
:1019900083E50E94D0060E9496062FEF81EE94E028
:1019A000215080409040E1F700C0000083E5E5CF82
:1019B0008438A1F40E94150882FD5AC087E40E9471
:1019C000D0060E9496062FEF81EE94E021508040D1
:1019D0009040E1F700C0000087E4CFCF8CEF8C0F80
:1019E000813A68F4E0E9F1E08191C817D9F121E08A
:1019F000E639F207C9F78C2F0E94D006C0CF80E2EB
:101A00008C0F883068F4C77021E030E001C0220FED
:101A1000CA95EAF78091E302822B8093E302AFCF6D
:101A2000EBE5EC0FE33040F4F0E0E85BFE4F808143
:101A300090E0CF910C947207E8E5EC0FE73150F499
:101A4000F0E0EE0FFF1FE55BFE4F80819181CF91AB
:101A50000C945C07C03F60F08C2F0E94E605CF918C
:101A60000C9469068C2F0E94C3060E949606C3CF71
:101A7000CF9108950F931F93CF93DF93C62FD42F49
:101A8000022FFC0182818823A1F0609376030E94DB
:101A90005D069093750380937403C77081E001C065
:101AA000880FCA95EAF7DF91CF911F910F910C949F
:101AB000520780917603681338C080917403909127
:101AC00075030E944E06883C910578F510E21D0FC3
:101AD000CD17B9F080E28C0F883040F4C77081E0F8
:101AE00001C0880FCA95EAF70E944707183048F4EA
:101AF00081E09D2F977001C0880F9A95EAF70E94A8
:101B00005207802F0E94A30C802F0E9421081830BA
:101B100098F4D77081E001C0880FDA95EAF7DF9179
:101B2000CF911F910F910C944707C77081E001C0BE
:101B3000880FCA95EAF7F3CFDF91CF911F910F91EC
:101B400008958091570380FD0AC0ECE9F1E011820D
:101B500010821282339651E0E43EF507C1F7539AA2
:101B60003BB1377F2BB128604FB7F8948CE991E0F7
:101B7000FC015191CF0168E02BB9000000C057FF74
:101B80003BB9550F000000C000C000C03BB900C009
:101B90006A9591F7F1E0843E9F0751F74FBF8FE5BB
:101BA00094E00197F1F700C000000895EF92FF92D2
:101BB0001F93CF93DF93EC018CE9E82E81E0F82EA0
:101BC00010E08C81970140915A0360915903810F75
:101BD0000E94EC08165F83E0E80EF11C103F89F7C5
:101BE0000E94A10D9A818C8190FF08C08F5F8C8329
:101BF000DF91CF911F91FF90EF9008958150F7CF23
:101C0000BF92CF92DF92EF92FF920F931F93CF93E9
:101C1000DF93FC018281DD24DA9480FD02C0DD24A3
:101C2000D3940CE911E0D0E0C0E028E1B22EF80135
:101C300011821082128294E0E92EF12CC12C809145
:101C400099018C0D89310CF43DC06B2D0E94CF237E
:101C5000892F082E000C990B8C179D0791F4809109
:101C60005A038E9DA0018F9D500D112455954795C7
:101C700055954795980160915903809158030E94AA
:101C8000EC08CD0CF1E0EF1AF108C9F621960D5FD2
:101C90001F4FC831D10559F60E94A10D80919901BD
:101CA00091E0D91215C0811111C087E1809399018B
:101CB000DF91CF911F910F91FF90EF90DF90CF9028
:101CC000BF90089587FFC5CF885EC3CF8150EECF08
:101CD00090E00196BE010E94F123E8CF0F931F937D
:101CE000CF93DF93CCE9D1E0FE0111821082128202
:101CF000339681E0E43EF807C1F710E000E0809100
:101D00009A01082E000C990B081719078CF1809185
:101D10001001082E000C990B801791074CF19E01C1
:101D200040915A0360915903809158030E94EC0836
:101D30000F5F1F4F23960831110509F70E94A10D6F
:101D400080910F0190919A01980F90939A012091A0
:101D50001001280F20931001121614F497311CF073
:101D6000819580930F01DF91CF911F910F9108957D
:101D7000198218821A82DCCF8F929F92AF92BF9203
:101D8000CF92DF92EF92FF920F931F93CF93DF9347
:101D9000EC014C81042F10E09801D8010E941F250E
:101DA0009B01AC010E94EA244B015C01E0E2F0E0FF
:101DB000E01BF10BA5E5B0E0AC019B010E94EA2419
:101DC0006B017C019F01DF010E940B249B01AC0190
:101DD0000E94F5249B01AC01280D391D4A1D5B1D95
:101DE000C701B6010E94FD24F22E822F90E039E255
:101DF0003F15D8F143E0249F900111243595279594
:101E0000122F10959CE9C92E91E0D92E00E085E5AE
:101E1000E82EEF188E2D01FD8F2D9601412F609138
:101E200059030E94EC080F5F53E0C50ED11C083126
:101E300089F70E94A10D9C8181E0992319F09032CD
:101E400019F48FEF8093110180911101890F8C8318
:101E5000DF91CF911F910F91FF90EF90DF90CF9086
:101E6000BF90AF909F908F90089525E530E0A90135
:101E7000481B590BCA019A01220F331F280F391F23
:101E800037FFBCCF2F5F3F4FB9CFEF92FF920F9339
:101E90001F93CF93DF938C01CCE9D1E0F12CE12C9F
:101EA000F80194816091590380915803FCE0EF168A
:101EB000F104FCF49923F9F09E0140915A030E9429
:101EC000EC082FEFE21AF20A239688E1E816F104F3
:101ED00039F70E94A10DF801848190E0019681708C
:101EE00099278483DF91CF911F910F91FF90EF90FD
:101EF0000895992309F39E0140E0E1CF90915703A3
:101F000090FF0CC0ECE9F1E081836083428333965B
:101F100091E0E43EF907C1F70C94A10D08950F93E9
:101F20001F93CF93DF9300D00F92CDB7DEB78C0114
:101F300080919B0181110AC09E012F5F3F4F4FEF9F
:101F40006FEF0E94EC088A8180939B01F801648105
:101F5000613069F080919B0140E0662361F040E0D0
:101F6000623011F440919B0180E060E004C0609118
:101F70009B0140E080E00E947E0FF801848190E0A8
:101F8000019663E070E00E94F12384830F900F902C
:101F90000F90DF91CF911F910F910895CF93DF9311
:101FA00000D00F92CDB7DEB79091570390FF0AC0D3
:101FB0009E012F5F3F4F0E94EC084B8169818A810F
:101FC0000E947E0F0F900F900F90DF91CF91089598
:101FD000CF93DF93EC01EC81F0E0EF54FE4F44919E
:101FE000E7E5F3E0628181810E94CE0F8C818F5FF3
:101FF0008C83DF91CF910895CF93DF93EC01E7E5D8
:10200000F3E0438162818C810E94CE0F8C818F5FCF
:102010008C83DF91CF9108958F929F92BF92CF9240
:10202000DF92EF92FF920F931F93CF93DF93C9E755
:10203000D1E08EEEE82E82E0F82E8701B12CCC2480
:10204000C394D12C8991F894E82FE295EF70F0E0D9
:1020500021A18F70A60102C0440F551F8A95E2F797
:10206000CA01922F982B91A392A18095892382A3D4
:10207000789450EA5A95F1F7E5E8F1E030E020E095
:10208000912C812C4191A42FA295AF70B0E0909635
:102090008C9190E04F7002C0959587954A95E2F734
:1020A00080FD48C0C601022E02C0880F991F0A9405
:1020B000E2F7882A992A2F5F3F4F2930310511F71F
:1020C000FE01319780810E948209D8018D919C91F7
:1020D00011978816990689F18D929C9281E0B82A11
:1020E0000E5F1F4FB1E0C538DB0709F0ABCFBB2057
:1020F00031F181E0809398010E945D0690939701F1
:102100008093960180919601909197010E944E06CE
:102110000697C8F0E0E1F3E086E093E0D7012D9167
:102120003D917D01219331938A179B07B9F7109256
:10213000980109C090E080E0BCCF80E0D0CF8091D2
:1021400098018111DFCF8B2DDF91CF911F910F91DE
:10215000FF90EF90DF90CF90BF909F908F90089569
:102160008F929F92AF92BF92CF92DF92EF92FF92A7
:102170000F931F93CF93DF93FC01B280948081E093
:102180008483C4EED1E00CE911E08BE4A82E88240E
:102190008394EE24EA94F12C2BE4C22ED12C9110DE
:1021A0001DC01B821A8298014A81698188810E9420
:1021B000EC0825960D5F1F4F82E0CC35D80779F7E4
:1021C000DF91CF911F910F91FF90EF90DF90CF9013
:1021D000BF90AF909F908F900C94A10D2B812223E4
:1021E00009F121502B833C818A2D821B311101C0C2
:1021F000822F90915A03899FC0011124B6010E9439
:10220000DD236A83211104C0332311F01C82AB82C9
:1022100022E02B1540F28091580388838091590366
:102220008983C1CF0E946624823091400CF0BBCFDD
:1022300082E08B15C0F40E946624B7010E94F1234E
:10224000888322E02B1590F40E9466242091590384
:102250002695622F70E00E94F123280F29831A82AD
:10226000AB828C82A0CF80915803EACF2091590392
:10227000F5CFCF9384E090E00E948324C82F81E2C1
:1022800090E00E948324982F8C2FCF91089590E0A6
:1022900080E00E94912421E08C3E9E4F09F020E0D6
:1022A000822F0895CF92DF92EF92FF926B017C0113
:1022B0000E94DD08B701A60188E090E0FF90EF9052
:1022C000DF90CF900C94A9245F926F927F928F92AF
:1022D0009F92AF92BF92CF92DF92EF92FF920F93B5
:1022E0001F93CF93DF9300D00F92CDB7DEB7182F97
:1022F000762E042F622E9091570390FF29C0E92F6C
:10230000E695AE2FB0E0A35EBE4F8C9180932E0376
:102310009E7F923081F59E012F5F3F4F812F0E945B
:10232000EC084B8169818A810E947E0F10935803CB
:102330007092590300935A03662051F0609157033D
:10234000709158038091590390915A030E94521141
:102350000F900F900F90DF91CF911F910F91FF90F1
:10236000EF90DF90CF90BF90AF909F908F907F9035
:102370006F905F900895823019F400915A03D6CF80
:10238000863019F410915803D1CF8930D9F38931AF
:1023900069F6E9518E2F8170582EE695F0E0E455EC
:1023A000FE4FA590B490BB248CE9E82E81E0F82E76
:1023B000D12CC12C98E1892E912CC601B4010E9428
:1023C000DD23812F511013C0860F9701402F672DF9
:1023D0000E94EC08CA0CDB1C83E0E80EF11C84EEC2
:1023E000E81681E0F80649F70E94A10D9FCF861BF1
:1023F000ECCFE7E5F3E0438128E0421B08F440E03E
:1024000021E0628181810C946411E7E5F3E043816E
:1024100028E0420F08F44FEF21E0628181810C94A3
:102420006411E7E5F3E0628128E0621B08F460E0F4
:1024300021E0438181810C946411E7E5F3E062813E
:1024400028E0620F08F46FEF21E0438181810C9452
:102450006411E7E5F3E0818121E0438162818850E6
:102460000C946411E7E5F3E0818121E0438162810E
:10247000885F0C94641180915B03882319F081506C
:1024800080935B03609157037091580380915903C7
:1024900090915A030C94521180915B03833018F48D
:1024A0008F5F80935B036091570370915803809115
:1024B000590390915A030C945211E7E5F3E083E03D
:1024C000808311828FEF8283838314826081718184
:1024D000828193810C9452111092E302E0E9F1E0C1
:1024E00086E0DF011D928A95E9F70C9488071F9317
:1024F000CF93DF93CDB7DEB7AA970FB6F894DEBFC0
:102500000FBECDBF8CE693E02091F100FC0121933A
:10251000CF01F3E084379F07B9F780916D038330D3
:1025200009F46FC0B8F4813009F446C0823009F470
:10253000B0C08091E80083FF7BC280916C039091D2
:102540006D039A3008F074C2E92FF0E0E25CFA4DB6
:102550000C9405248A3009F48BC08B3009F46EC0CA
:10256000893039F780916C03813219F780917003BB
:10257000909171030297E8F68091E800877F80933D
:10258000E8008091E80082FF37C09091F3008091CD
:10259000F200029729F48091F1008B7F813021F4C1
:1025A0008091F10080935F038091E8008B778093A6
:1025B000E8000E940D04BDCF80916C03813A09F0C0
:1025C000B8CF8091E800877F8093E8008091700306
:1025D00090917103892B61F468E080E693E070E0EC
:1025E0000E94BF048091E8008B778093E800A1CF20
:1025F00060E090E080E0F3CF80916A038111C1CF69
:1026000098CF80916C03813A09F093CF8091700349
:1026100090917103892B09F08CCF8091E800877F1E
:102620008093E8008091E80080FFFCCF80911C013E
:102630008093F1008091E8008E77B9CF80916C0390
:10264000813209F076CF8091700390917103892BCC
:1026500009F06FCF8091E800877F8093E8000E94A7
:102660000D0480916E0380931C010E946C1261CF57
:1026700080916C03813209F05CCF8091E800877F04
:102680008093E8000E940D0480916F0380935E03A5
:1026900050CF80916C03813A09F04BCF8091E800D4
:1026A000877F8093E8008091E80080FFFCCF8091D5
:1026B0005E03BECF803899F0823809F0B9C18091AD
:1026C00070038F70873008F0B3C18093E900809168
:1026D000EB0085FB882780F91092E90006C0809105
:1026E000680390916903911182609091E800977F4F
:1026F0009093E8008093F1001092F1008091E8003F
:102700008E7792C1882309F480C1823009F090C18C
:1027100080916E03811183C1809170038F702FEFC0
:10272000280F263008F084C18093E9002091EB0047
:1027300020FF75C1933031F48091EB00806280936B
:10274000EB006DC19091EB0090619093EB0021E064
:1027500030E001C0220F8A95EAF72093EA00109238
:10276000EA008091EB008860EACF811161C110918D
:102770006E031F778091E3008078812B8093E300C4
:102780008091E800877F8093E8000E940D0480918B
:10279000E80080FFFCCF8091E30080688093E30035
:1027A00082E0111183E080936A0342C18058823035
:1027B00008F03EC180916E0390916F038C3D23E041
:1027C0009207A1F583E08A838AE289834FB7F89460
:1027D000DE01139620E03EE051E2E32FF0E050935B
:1027E0005700E49120FF03C0E295EF703F5FEF7068
:1027F0008E2F90E0EA30C0F0C7968D939D932F5FA7
:10280000243159F74FBF8091E800877F8093E8001B
:102810006AE270E0CE0101960E94BF048091E80058
:102820008B778093E80004C1C096E7CF4091700396
:1028300050917103292F33272330310509F444C007
:1028400078F52130310509F46FC08BE390E0EFE0BB
:10285000F6E02230310509F0EBC02091E800277F37
:102860002093E8002091720330917303821793073D
:1028700008F49C0140E02115310509F064C04111C4
:1028800062C08091E80082FDC9CF80916A038823ED
:1028900029F2853019F28091E80083FFF2CFBECF94
:1028A00021323105A9F12232310509F0C1C04115AB
:1028B000510509F443C04130510509F0B9C081E820
:1028C00090E0EEE4F5E0C9CF992781309105C1F0A1
:1028D000009759F0029709F0ABC0ECE5F6E0E491FF
:1028E0008E2F90E0ECE5F6E007C0E0E9F6E0E49139
:1028F0008E2F90E0E0E9F6E0009709F499C0ADCFA3
:10290000E6E6F6E0E4918E2F90E0E6E6F6E0F4CF1E
:102910004115510571F04130510509F089C089E038
:1029200090E0EAE3F6E099CF82E190E0EAE4F6E0B5
:1029300094CF89E090E0E1E2F6E08FCF80E490E090
:10294000EFECF5E08ACF80916A03882309F466CF23
:10295000853009F463CF8091E80083FD5FCF8091DB
:10296000E80082FD8ECF8091E80080FF84CF9091B7
:10297000F3008091F2002115310519F0883091059E
:1029800050F041E0089709F040E08091E8008E7730
:102990008093E80070CF44914093F100319621502C
:1029A00031090196E8CF803809F042C08091E800F3
:1029B000877F8093E80080916B038093F1009ECE27
:1029C000811136C010916E03123090F58091E800AD
:1029D000877F8093E80010936B030E940D041123FE
:1029E00011F084E005C08091E30087FDFACF81E01B
:1029F00080936A0342E061EC81E00E942C0442E291
:102A000061EC82E00E942C0413C080916E0381303F
:102A100079F481E0933009F080E0809369031092AB
:102A2000E9008091E800877F8093E8000E940D0410
:102A30008091E80083FF0AC08091E800877F80933F
:102A4000E8008091EB0080628093EB00AA960FB6BD
:102A5000F894DEBF0FBECDBFDF91CF911F910895D7
:102A600060915703669570E04BE050E084E091E0A0
:102A70000E947624892B19F481E080932F030E9411
:102A80005D0690932903809328030895909157033E
:102A900090FF36C09170811129C0926090935703C6
:102AA000662351F060915703709158038091590348
:102AB00090915A030E94521160915703669570E0FD
:102AC0004BE050E084E091E00E947624892BA9F04D
:102AD00010922F0381E080932B0320E040915A0352
:102AE00060915903809158030C9464118B3210F05B
:102AF0009465D4CF880F982BD1CF0E943015EACFA0
:102B0000089561E00C9446156CEE7EEF90E080E055
:102B10000E94B52460E082E090E00E94972460E08B
:102B200083E090E00E9497241092E5021092E60262
:102B30001092E7021092E80260E084E090E00E94C8
:102B4000972460E081E290E00E94972460E085E0B5
:102B500090E00E94972460E086E090E00E94972435
:102B60006FEF87E090E00E94972440E050E0BA01C8
:102B700088E090E00E94A92460E08DE090E00E944F
:102B8000972440E050E0BA0188E190E00E94A92437
:102B900060E087E190E00E94972440E050E0BA01B5
:102BA0008CE190E00E94A92460E080E290E00E9425
:102BB000972440E050E0BA0188E190E00E94A92407
:102BC000E7E5F3E080818160808386950E9481152E
:102BD00021E040E86FEF80E00E9464118BE00E94EA
:102BE000811540E050E0BA018FE090E00E94A924F6
:102BF00040E050E0BA0183E190E00C94A9240E94E7
:102C00004711811102C00E94841586E090E00E9465
:102C1000832480936002803220F0877088618093E3
:102C2000600290916002892F817090FF04C0892F0B
:102C30008695869586950C947E0880915703869597
:102C4000815009F48AE261E00C94461580915703A3
:102C500086958F5F8B3208F081E061E00C94461519
:102C60009091570390FF07C09695981720F09617FC
:102C700010F40C9426160C9481154F925F926F926B
:102C80007F928F929F92AF92BF92CF92DF92EF92FC
:102C9000FF920F931F93CF93DF9300D000D00F923A
:102CA000CDB7DEB77C01FC0183819481892B39F09B
:102CB0001081D180812F8D218F3F09F090C50F9019
:102CC0000F900F900F900F90DF91CF911F910F9168
:102CD000FF90EF90DF90CF90BF90AF909F908F903C
:102CE0007F906F905F904F9008950E94780B082F0F
:102CF000682F89819A810E94110789E0E12FF0E015
:102D0000D89EE00DF11D11242CE6029FE00DF11D6F
:102D10001124EE0FFF1FEF54FD4F05911491F701A1
:102D20009281992309F478C50E3BFCE51F0709F44D
:102D3000CFC008F069C00C3B3CE5130709F485C01F
:102D40000D3B8CE5180709F4BBC0043FECE51E07FA
:102D500009F410C108F092C5093D2CE5120709F4E9
:102D600005C10A3D3CE5130709F410C1083D8CE597
:102D7000180709F465C51092760302303CE5130785
:102D800008F4E0C106318CE5180738F098012B5F94
:102D90003C452930310508F0D5C10E943911909386
:102DA0000B0380930A0300319CE5190709F499C1CC
:102DB00008F02CC10830FCE51F0709F488C108F0B1
:102DC000FBC004303CE5130709F479C108F0E1C009
:102DD00002309CE5190709F46CC180910A038260F6
:102DE00003301C4509F468C160910A0310910B037C
:102DF00084E090E00E949724612F81E290E00E949D
:102E000097240E946C123AC0003CECE51E0709F4BE
:102E100091C008F47BC0013C2CE5120709F095CF66
:102E200090916002892F8695869586958F5F8F7128
:102E30009770843008F097C0880F880F880F892B0F
:102E400080936002809160024BC080916002877025
:102E5000886180936002887F91E009F490E080911E
:102E6000600290FB80F98093600283E00E947E08FC
:102E70006091600286E090E00E9497248091E002D9
:102E8000877009F41CCFF7018281882309F417CFDA
:102E900082E00F900F900F900F900F90DF91CF91E5
:102EA0001F910F91FF90EF90DF90CF90BF90AF9068
:102EB0009F908F907F906F905F904F900C94D2076F
:102EC0008091600287708E7F8093600280E0CECF19
:102ED00080916002982F987F89F0885080936002DB
:102EE000887F91E009F490E06091600290FB60F9C6
:102EF0006093600286E090E00E94972480916002D7
:102F00008695869586950E947E08B8CF809160024E
:102F1000982F969596959695933040F49F5F990FCC
:102F2000990F990F8770892B8093600260916002DE
:102F30006160DECF6091600260FF09C06E7F6093C8
:102F4000600286E090E00E94972480E0DCCF60FD84
:102F500095CF616060936002613011F480936002EC
:102F600060916002C7CF909360026CCF27E245EE7C
:102F700065EE69C426E241EE60EE65C427E245EEE7
:102F800064EE61C426E241EE62EE5DC428E241E0F7
:102F9000EFCF80910A0380610630FCE51F0709F43A
:102FA0008BC080910A03886007301C4508F484C0F8
:102FB00080910A03806280C080910A038D7F0C306B
:102FC0003CE5130709F478C070F480910A038C6023
:102FD0000A309CE5190709F46FC008F47CC08091A1
:102FE0000A038E7F69C080910A03877F0E30FCE55B
:102FF0001F0709F461C080910A038B7F0F301C45C5
:1030000008F45AC080910A038F7E56C00C3F3CE5FD
:10301000130709F458C030F503319CE5190709F48A
:1030200068C078F40131FCE51F0709F45EC0023185
:103030001C4509F0D9CE0E946C1280910A038F774B
:103040003BC005313CE5130709F45BC008F46FC0D1
:1030500080910B0381600B3F1C4509F0C5CE809326
:103060000B03C2CE0115EDE51E0709F446C088F436
:1030700080910B038D7F0E3F2CE5120781F3809129
:103080000B038E7F0F3F1C4550F380910B03836031
:10309000E6CF02308DE5180709F452C0F0F160E088
:1030A00003301D4509F0A0CE8EE090E00E949724E9
:1030B0009BCE80910A03816080930A0395CE809114
:1030C0000A038460F9CF80910B038260C8CF80919E
:1030D0000A038064F1CF0E946C1280910A03806819
:1030E000EBCF80910A038F7DE7CF80910A038F7B1E
:1030F000E3CF80910A03837FDFCF80910B038C7F26
:10310000AECF80910A0382FB992790F921E09227A4
:1031100090FB82F990FB83F9CFCF80910B03982F1E
:10312000909591708E7F892B90FB81F998CF0E94AA
:103130006C1290910A03892F97FB87F98058BCCFB6
:1031400061E0B2CF8091E3020631FCE51F0709F090
:1031500057C38A7A91E009F490E09093610281115B
:1031600006C089E20E94D0060E94960687CE85E3BB
:10317000F9CF85E380C38091570380FF1BC08E7F0A
:1031800080935703609157037091580380915903BE
:1031900090915A030E94521110922F032FEF30E7A3
:1031A00082E0215030408040E1F700C000000E94E2
:1031B000A10D64CE81608093570386950E9481158E
:1031C0005DCE4DE156E166E276E10E94D80856CE2A
:1031D00046E256E16DE176E1F8CF49E252E162E381
:1031E00072E1F3CF42E352E169E272E1EECF41E1F5
:1031F00052E16DE172E1E9CF4DE152E161E172E14D
:10320000E4CF49EF51E165E072E1DFCF45E052E103
:1032100069EF71E1DACF4BE352E16CE472E1D5CFB3
:103220004CE452E16BE372E1D0CF81E0C7CF65E0BF
:1032300082E00E94301622CE68E086E0FACF6EE08F
:1032400089E0F7CF64E18FE0F4CF67E185E1F1CF6A
:1032500088E1B4CF62E289E1ECCF83E2AFCF011520
:10326000ECE51E0709F447C00F3D1C4509F450C0AA
:10327000F70100811181992309F44DC0C8010E9412
:10328000780BD82E682FC8010E941107B8018D2D28
:103290000E94DC098C01882EF701A580A2944FE0E2
:1032A000A422D280D1101092E2028091E0028770B5
:1032B00099F0DD2089F0812F807F803421F080E239
:1032C000800F883048F082E00E94D2078091E002AF
:1032D0008770CC24C3948111C12CB12EB2943FE0ED
:1032E000B322FBE0FB1508F450C0EB2DF0E0E85BE7
:1032F000FA4D0C9405240E946C122FEF34E38CE0FD
:10330000215030408040E1F700C000000E947F0C57
:103310000E948415B3CDC8010E94E906D82EB6CF0D
:10332000212F2F70A22E107F19F0A29420EFA2223D
:10333000DD20C9F0AA2069F080E2800F883010F00B
:1033400081100BC08091E302A82AA092E3020E94A0
:103350009606802F0E94A30C18C08091E202A82A32
:10336000A092E202F4CF802F0E942108AA2069F0E7
:10337000A094005E083010F0811047C08091E302F5
:10338000A822A092E3020E949606EB2DE850FF0BC4
:10339000349720F40E9415080E94E80BCC20A9F075
:1033A0008091E00280FD11C0F7011282859585951C
:1033B00085950E94EA07C7010E943D168091E002B0
:1033C0008595859585950E94AF0785E0F701DE011B
:1033D000119601900D928A95E1F789819A810E9458
:1033E000E9069A81E981F0E029E0929FE00DF11D64
:1033F00011243CE6839FE00DF11D1124EE0FFF1F09
:10340000EF54FD4F859194915ACC8091E202A8220D
:10341000A092E202B8CF312F3F70932E107F10326E
:1034200019F0929490EF9922882071F081E088162B
:1034300061F1DD20B9F1AA2071F1F701858180FFEA
:1034400088CF8F70858327C0DD2091F09091E402B2
:10345000892D892BA11003C00E94520796CFE1E06D
:10346000AE12FACF981709F490CF8093E4028DCF73
:10347000A11006C00E949006892D0E94470785CFA3
:10348000F1E0AF1609F481CFF5CFDD2031F025E072
:103490002A1508F47ACF892DDFCF34E03A1508F4E5
:1034A00074CFEACFAA2041F3F9E38F1291C12FEF35
:1034B00037EE83E0215030408040E1F700C000004B
:1034C00087C1812F86958695837061F0813009F0E0
:1034D0005CCFC8019370D11002C090E080E00E94E0
:1034E0005C0753CFC8019370D11002C090E080E018
:1034F0000E9472074ACF802FDD2029F00E94E60546
:103500000E94690642CF0E942105FACF812F837065
:1035100009F066C0D11039CF802F829586958770CB
:10352000880F880F602F6F70462E512C712C612CE4
:10353000082E04C0440C551C661C771C0A94D2F754
:1035400040E050E0BA0104FF0FC04FE050E060E0FF
:1035500070E004C0440F551F661F771F8A95D2F78D
:103560004095509560957095812F869586958370CE
:10357000823019F1D8F40091E5021091E602209111
:10358000E7023091E802813069F044295529662923
:103590007729CB01BA0160237123822393230E94F0
:1035A0000B08F3CE402A512A622A732ACB01BA01B2
:1035B0006429752986299729F2CF44295529662936
:1035C00077290091E5021091E6022091E7023091FF
:1035D000E802CB01BA016027712782279327DFCF4A
:1035E0008695DD2011F0812F8170882309F4CDCEDE
:1035F000802F829586958770880F880F602F6F7057
:10360000462E512C712C612C082E04C0440C551CE4
:10361000661C771C0A94D2F740E050E0BA0104FF20
:103620000FC04FE050E060E070E004C0440F551F51
:10363000661F771F8A95D2F74095509560957095D3
:10364000812F869586958370823019F1D8F4009188
:10365000060310910703209108033091090381307C
:1036600069F04429552966297729CB01BA016023DD
:103670007123822393230E94A50787CE402A512AD3
:10368000622A732ACB01BA016429752986299729F0
:10369000F2CF442955296629772900910603109114
:1036A00007032091080330910903CB01BA01602779
:1036B000712782279327DFCF1F70DD2029F0812F0C
:1036C0000E94EA07802FC8CE802F0E944707812FD3
:1036D0000E94AF075ACE802F92EF891609F450C08E
:1036E000981578F0E0EF8E1619F1F1EF8F1609F4C6
:1036F0003FC0DD2009F467C0A1102BCE812F8F7150
:103700003CC023EF821609F440C034EF8312F1CF9E
:10371000DD2009F44DC01F71812F0E94EA07E8E007
:103720001E9FC001112483608093E002812F25C079
:10373000DD20C9F084E08A1508F427CE1F7161E00E
:1037400070E080E090E004C0660F771F881F991F2B
:103750001A95D2F7009106031091070320910803F0
:1037600030910903A4CF95E09A1508F40ECEE6CF68
:10377000812F8F71DD2009F4ABCF0E94EA0705CEBF
:10378000812F8F71DD20C9F3A3CF60E070E0CB0102
:10379000DD2009F470CF1F7161E070E080E090E0FF
:1037A00004C0660F771F881F991F1A95D2F763CF41
:1037B00081E00E94D207F1E0FA1508F0E6CD82E040
:1037C0000E94D207E2CDAA2039F0893309F46FCEE6
:1037D000802F0E942108D9CD812F8F7179CF85E06C
:1037E000DE01119601900D928A95E1F7F701228191
:1037F00089819A81211179CA0E94E906082F7DCA20
:103800008272F801E35CFC45E431F10508F027CD54
:10381000EC5AFA4D0C940524043F2CE5120709F4E8
:10382000A9CBA8F4093D8CE5180709F49FCB0A3D04
:10383000ECE51E0709F4AACB083DFCE51F0791F44F
:1038400026E241EE61EEC7010E943A0D17CB063F1A
:103850002CE5120709F496CB08F490CB073F8CE5D2
:103860001807C1F006311C4509F002CD80916102B4
:1038700081117FCC89E20E94C30676CC063FECE53D
:103880001E0709F47FCB08F479CB073F2CE512071C
:1038900009F071CA27E245EE66EED5CF1F93CF93AC
:1038A000DF9380916702807FA9F48091640288236E
:1038B00089F080919902D0916802609162027091C2
:1038C0006302A0916502B0916602C62FC72316E07D
:1038D000D81304C0DF91CF911F91089590E0109705
:1038E00011F0CF3F19F401968770F2CF189F900125
:1038F000199F300D1124F901E759FD4F41814713FC
:10390000F2CF40814613EFCF42814111ECCF43818A
:1039100054814A1B5B0B483C510528F78091670294
:103920008F70806180936702F901E259FD4F8081B9
:103930008F708061808382E692E00E943D16DF9165
:10394000CF911F910C943D07AF92BF92CF92DF921F
:10395000EF92FF920F931F93CF93DF93CDB7DEB714
:1039600061970FB6F894DEBF0FBECDBF8C0185E026
:10397000F801DE011D9601900D928A95E1F7F8019C
:1039800080819181E28022E6A22E22E0B22E609117
:103990006502709166026115710509F43EC13091AE
:1039A000620240916302232F24232F3F09F435C183
:1039B000C380D480F0906402F601E61BF70BFF2071
:1039C00009F4FBC020916702522F507FE83CF105BB
:1039D00008F0BBC0511178C0FE2C491321C0381328
:1039E0001FC0E1101DC02F70206120936702C50128
:1039F0000E943D1680916702F80185838F2D6196A4
:103A00000FB6F894DEBF0FBECDBFDF91CF911F91EF
:103A10000F91FF90EF90DF90CF90BF90AF900895FF
:103A2000CD2829F0282F29232F3F09F014C120E0A9
:103A3000F22FF170DF2E20FF3DC0209199024091BE
:103A4000680256E0241315C08D879E878D859E855C
:103A50000E94BA0B292F22952F702230F8F02430C3
:103A600020F59F70F9F0F8019581907FD9F4D12C61
:103A70001FC030E0529FF001539FF00D1124E75911
:103A8000FD4F6181961306C06081861303C0628179
:103A9000E61210C02F5F3F4F2770D4CF9F7011F0F8
:103AA000882329F3805E883010F3C8010E943D16F8
:103AB000FD2CA4CFEE2009F4A1CF80916702816094
:103AC00080936702F12C9ACF491312C0381310C0AB
:103AD000E1100EC0F8012583C8010E943D1686E062
:103AE000F801A2E6B2E001900D928A95E1F786CF47
:103AF0008D879E878D859E850E94C40B882309F142
:103B0000EE20F9F080916702803270F0209162021D
:103B10003091630238872F831986DB86CA868C87AB
:103B2000CE0107960E943D1686E0F801A2E6B2E0BB
:103B300001900D928A95E1F70E944E1CFF24F394A8
:103B40005DCFC8010E943D16F9CF51110AC082E62F
:103B500092E00E943D1686E0F50111928A95E9F700
:103B6000B1CF49130FC038130DC0E1100BC0F801DD
:103B70002583C8010E943D1686E0F50111928A95C1
:103B8000E9F73CCF8D879E878D859E850E94C40B6B
:103B90008823B9F2EE20A9F280916702803220F2E8
:103BA00020916202309163023A8329831B82DD8275
:103BB000CC828E83CE010196B5CFE83CF105E0F6CC
:103BC000FE2CEE2009F4BDCF491316C0381314C0E3
:103BD0008091670280FD83CF982F907F09F47FCF7B
:103BE000F8018583903F09F477CF982F907F905FFD
:103BF0008F70892B858370CF8D879E878D859E855D
:103C00000E94C40B811190CF8091670281608093E4
:103C10006702C8010E943D16F1CEEE2009F491CF53
:103C20008D879E878D859E850E94C40BF82E8823E4
:103C300009F487CF86E0F801A2E6B2E001900D9288
:103C40008A95E1F780916202909163020E94BA0B1B
:103C50000E944E1CD3CE21E02E25EACE1F93CF9397
:103C6000DF93CDB7DEB767970FB6F894DEBF0FBE10
:103C7000CDBF4B8B5C8B6D8B7E8B8F8B1A8A198A99
:103C800085E0FE017396DE011D9601900D928A95E6
:103C9000E1F786E0FE013D96DE01179601900D9258
:103CA0008A95E1F7CE0107960E94A41C882389F02B
:103CB00016E08091990290916802891349C0679635
:103CC0000FB6F894DEBF0FBECDBFDF91CF911F912D
:103CD000089586E0FE013796DE01119601900D925F
:103CE0008A95E1F78A859B85892B11F38F819885C9
:103CF00089238F3FE9F22091680230E0C9010196E3
:103D000087709927409199024817190671F40E940B
:103D10006C12109268021092990286E0E2E6F2E0DC
:103D2000DF011D928A95E9F7C3CF96E0929FD001FB
:103D3000939FB00D1124A759BD4FFE0131960190FC
:103D40000D929A95E1F7809368020E943D07B0CFEB
:103D5000819FC001112487599D4F0E94A41C882374
:103D600009F4ADCF8091990290E001968770992770
:103D7000809399029ECF1F920F920FB60F9211243B
:103D80002F933F934F935F936F937F938F939F9363
:103D9000AF93BF93CF93DF93EF93FF93D091E9005D
:103DA000DF708091EC00C82FC17080FDC0E81092D8
:103DB000E9008091F000877F8093F00078940E9462
:103DC00077121092E9008091F00088608093F000F3
:103DD000CD2BCF70C093E900FF91EF91DF91CF9190
:103DE000BF91AF919F918F917F916F915F914F9113
:103DF0003F912F910F900FBE0F901F9018951F921B
:103E00000F920FB60F9211242F933F934F935F930E
:103E10006F937F938F939F93AF93BF93EF93FF9392
:103E20008091E10082FF09C08091E20082FF05C01D
:103E30008091E1008B7F8093E1008091DA0080FF28
:103E400024C08091D80080FF20C08091DA008E7F4E
:103E50008093DA008091D90080FFB4C080E189BDF1
:103E600082E189BD09B400FEFDCF81E080936A0341
:103E700080915603811109C00E9493030E945E0441
:103E80008091E20084608093E2008091E10080FFF5
:103E900017C08091E20080FF13C08091E2008E7F06
:103EA0008093E2008091E20080618093E200809143
:103EB000D80080628093D80019BC85E080936A03A3
:103EC0008091E10084FF42C08091E20084FF3EC007
:103ED00080E189BD82E189BD89B5982F917080FF0D
:103EE000FBCF8091D8008F7D8093D8008091E10036
:103EF0008F7E8093E1008091E2008F7E8093E200CC
:103F00008091E20081608093E20080916B038823BE
:103F100009F45EC084E080936A030E946C120E94E0
:103F2000FF150E9415080E94E80B10925D03809116
:103F30005C03882349F08091570381608093570385
:103F400060E086950E9446150E9430158091E10040
:103F500083FF27C08091E20083FF23C08091E100AE
:103F6000877F8093E10082E080936A0310926B0365
:103F70008091E1008E7F8093E1008091E2008E7F4E
:103F80008093E2008091E20080618093E20042E051
:103F900060E080E00E942C048091F00088608093B3
:103FA000F000FF91EF91BF91AF919F918F917F9121
:103FB0006F915F914F913F912F910F900FBE0F9096
:103FC0001F90189519BC10926A03109256035DCF8A
:103FD0008091E30087FD93E090936A039ECFCDB775
:103FE000DEB760970FB6F894DEBF0FBECDBF84B7C3
:103FF000877F84BF0FB6F894A89580916000886190
:1040000080936000109260000FBE80E890E00FB6D1
:10401000F89480936100909361000FBE85B780682B
:1040200085BF85B7806885BF0E9493030E945E04A8
:104030008091E20084608093E200789480916A032A
:104040008823A1F01091E9001F709091EC00892F56
:10405000817090FD80E8182B1092E9008091E800B3
:1040600083FD0E9477121F701093E90082E084BDE7
:1040700093E095BD9AEF97BD80936E0009E711E03C
:10408000F80181918F010E948209F1E005381F0734
:10409000B9F705E811E0FEE8EF2EF1E0FF2EF80198
:1040A00081918F010E948209E016F106C1F7EEEEC0
:1040B000F2E086E093E0A0E1B3E0119211921D924C
:1040C0001D928E179F07C9F70E940C108FE39CE981
:1040D0000197F1F700C000000E940C1080911003BE
:1040E00080FF08C06FEF7FEF90E080E00E94B52472
:1040F0000E947F0C0E944711811102C00E9484150A
:10410000279A2F988AE08093800089E1809381002C
:104110008FEF9FEF90938700809386000E94FF159A
:10412000559A6E9A0E944711811102C00E9484150F
:1041300082E090E00E94832480933D030E94391125
:1041400090930B0380930A0383E090E00E94832402
:10415000682F70E090E080E00E940B080E94FF153D
:1041600080910C03811133C00E944711811104C05A
:104170000E9484150E945D1288E090E00E948B24CA
:1041800060935703709358038093590390935A0395
:104190006E7F71F40E945D1288E090E00E948B2493
:1041A00060935703709358038093590390935A0375
:1041B0000E94DD0810922F038091570380FF04C0F6
:1041C00060E086950E94461581E080930C0382E1B1
:1041D00091E090930E0380930D03ECE3EE2EE5E067
:1041E000FE2E80916A03853009F45AC10E940C109A
:1041F000EEE3F3E0A0E1B3E010E000E0602F8D918A
:104200009D91419151914817590709F4AFC1482731
:10421000592720E0CC24C394D12C5A01AC20BD20D6
:10422000AB2809F49DC12F8368879C012C213D2177
:1042300091E0232B09F490E099870E945D0681604C
:10424000782F9B878A874F81588569858B850E9447
:104250002E1E000F111FF801E25CFC4F808191813E
:10426000C826D926D182C08280912F03882309F4E1
:1042700041C080912E03E0915703E695E81BE0933F
:104280002A03823009F089C1F0E0E65BFA4FE4913D
:104290000E2F10E0F8EECF2EFFE0DF2E80912B03E3
:1042A000882389F010922B030E945D0698012095C7
:1042B0003095820F931F90932903809328031092C7
:1042C0002D0310922C0380912803909129030E94C2
:1042D0004E068017910770F0E0912803F0912903B2
:1042E0000E0F1F1F109329030093280388E293E009
:1042F000F601099586E0E6E3F3E0DE011196019010
:104300000D928A95E1F7D0903803C090390310914F
:104310003A0300913B031092380310923903109234
:104320003A0310923B038D2D8C2909F448C08091EB
:104330003403909135030E944E069C019091330303
:10434000992309F4C0C123333105C8F19F3F19F007
:104350009F5F90933303DD2059F00E94C6059FEFC5
:104360001D140CF491E0899F802D11248093380353
:10437000CC2059F00E94C6059FEF1C140CF491E06C
:10438000899F802D11248093390330913803332382
:10439000B1F020913903222391F045EB3403C001A1
:1043A0001124992309F464C19093380345EB240345
:1043B00090011124332309F45FC130933903812F15
:1043C000802B09F448C080913103909132030E9400
:1043D0004E069C0190913003992309F46FC1253654
:1043E0003105C8F19F3F19F09F5F9093300311236F
:1043F00059F00E94A4059FEF11160CF491E0899FDB
:10440000802D112480933A03002359F00E94A405C3
:104410009FEF10160CF491E0899F802D112480935A
:104420003B0330913A033323B1F020913B03222325
:1044300091F045EB3403C0011124992309F420C104
:1044400090933A0345EB240390011124332309F49C
:104450001BC130933B038091380390913903892B22
:1044600090913A03892B90913B03892B11F00E9484
:10447000690686E0FE013196A6E3B3E001900D9255
:104480008A95E1F70E94150890913C03891709F479
:10449000A8CE0E94150880933C030E94E80BA1CE91
:1044A00080916A03843009F447C010920F0388E1B9
:1044B00090E020E40FB6F894A895809360000FBEBA
:1044C0002093600080E00E947E0880E00E94E80B5C
:1044D00010922F0380915D03811117C081E08093BA
:1044E0005D0380915703982F917090935C038E7FAA
:1044F000809357039FEFE0E7F2E09150E040F040F7
:10450000E1F700C000000E94A10D83B7817F8460A5
:1045100083BF83B7816083BF7894889583B78E7F8C
:1045200083BF0FB6F894A89580916000886180934E
:104530006000109260000FBE80916903882309F427
:1045400050CE0E940C1088E293E0E0E1F3E021916C
:104550003191232B09F09CC08E179F07C1F741CEE4
:104560002F5FCC0CDD1C293009F057CE0F5F1F4F99
:104570000C30110509F042CE8FEF8C878D871E8697
:104580000E945D068160782F988B8F874C855D85B2
:104590006E8588890E942E1E67CE863059F4F0E021
:1045A000E95BFA4FE4910E2F10E0ECEFCE2EEFE036
:1045B000DE2E74CE893061F4E695F0E0EC5BFA4FC4
:1045C000E4910E2F10E076EDC72E7DE0D72E66CE5B
:1045D0008F3061F4E695F0E0EF5BFA4FE4910E2F37
:1045E00010E060E0C62E6EE0D62E58CE853159F42C
:1045F000F0E0E25CFA4FE4910E2F10E05EE6C52E8B
:104600005EE0D52E4BCE08E210E02CEBC22E2EE061
:10461000D22E883109F442CE833241F4F70105915C
:1046200014914FE8C42E4FE0D42E38CE04EF11E0A1
:1046300095E4C92E9FE0D92E843209F42FCE85321D
:1046400081F48E2F63E00E94C323E92FF0E0E75C42
:10465000FA4FE4910E2F10E030EBC32E30E1D32E51
:104660001DCE00ED17E08DE1C82E85E0D82E16CEC8
:1046700081E0809338039ACE81E0809339039FCE06
:1046800081E080933A03DECE81E080933B03E3CE6A
:1046900080E189BD82E189BD09B400FEFDCF809132
:1046A000D8008F7D8093D8008091E0008260809355
:1046B000E0008091E00081FDFCCF93CD2D323140B0
:1046C00008F092CEC8CE2D32314008F041CE77CEE0
:1046D00078941F921FB61F9211248F939F93AF93CC
:1046E000BF938091E9029091EA02A091EB02B09110
:1046F000EC020196A11DB11D8093E9029093EA029C
:10470000A093EB02B093EC02BF91AF919F918F9178
:104710001F901FBE1F9018951F921FB61F92112445
:104720008F939F93AF93BF9380910F03811113C019
:104730008091E9029091EA02A091EB02B091EC0223
:104740004196A11DB11D8093E9029093EA02A093C6
:10475000EB02B093EC02BF91AF919F918F911F90AC
:104760001FBE1F901895DB018F939F930E94EA2430
:10477000BF91AF91A29F800D911DA39F900DB29FFD
:10478000900D11240895991B79E004C0991F961784
:1047900008F0961B881F7A95C9F78095089587FBC6
:1047A000082E062687FD819567FD61950E94C3232B
:1047B0000EF4919507FC81950895AA1BBB1B51E14E
:1047C00007C0AA1FBB1FA617B70710F0A61BB70B81
:1047D000881F991F5A95A9F780959095BC01CD0126
:1047E000089597FB072E16F4009407D077FD09D0A3
:1047F0000E94DD2307FC05D03EF4909581959F4FE4
:104800000895709561957F4F0895EE0FFF1F0590F5
:10481000F491E02D09940E941F25332312F48A1B82
:104820009B0B0C9415240E941F25B7FF0895821B33
:10483000930B08958F929F92AF92BF92CF92DF9287
:10484000EF92FF92CF93DF93EC01688179818A81A7
:104850009B81611571058105910521F464E279ED73
:104860008BE597E02DE133EF41E050E00E94CB244F
:1048700049015A019B01AC01A7EAB1E40E94EA2474
:104880006B017C01ACEEB4EFA50194010E94F82409
:10489000DC01CB018C0D9D1DAE1DBF1DB7FF03C0FC
:1048A0000197A109B04888839983AA83BB839F7726
:1048B000DF91CF91FF90EF90DF90CF90BF90AF90BE
:1048C0009F908F9008950E941A24089580E091E0AF
:1048D0000E941A240895B0E0A0E080930001909314
:1048E0000101A0930201B09303010895FC0141501E
:1048F000504030F001900616D1F73197CF0108955E
:10490000882799270895F999FECF92BD81BDF89A1D
:10491000992780B50895A6E1B0E044E050E00C94FA
:10492000BD24A8E1B0E042E050E00C94BD24262F65
:10493000F999FECF92BD81BDF89A019700B4021695
:1049400039F01FBA20BD0FB6F894FA9AF99A0FBE43
:1049500008950396272F0E9498240E949724252FBC
:104960000E949824242F0C9498240196272F0E94AB
:1049700098240C949724DC01CB01FC01F999FECF1B
:1049800006C0F2BDE1BDF89A319600B40D924150D7
:104990005040B8F70895052E97FB1EF400940E942E
:1049A000E22457FD07D00E94FD2407FC03D04EF4FB
:1049B0000C94E22450954095309521953F4F4F4FF0
:1049C0005F4F089590958095709561957F4F8F4FBB
:1049D0009F4F08950E941F25A59F900DB49F900D95
:1049E000A49F800D911D11240895B7FF0C94EA2413
:1049F0000E94EA24821B930B0895A1E21A2EAA1B9F
:104A0000BB1BFD010DC0AA1FBB1FEE1FFF1FA2177E
:104A1000B307E407F50720F0A21BB30BE40BF50B7B
:104A2000661F771F881F991F1A9469F76095709504
:104A3000809590959B01AC01BD01CF010895A29F87
:104A4000B001B39FC001A39F700D811D1124911D62
:104A5000B29F700D811D1124911D0895F894FFCF10
:104A6000D30BD30BDC0BDC0BDE0BDC0BDC0BDC0B1E
:104A7000D30BD30BE30BDC0BDC0BE30B5A138213CE
:104A8000181582131815B513D6131815D314E0147E
:104A9000901990190B1A0B1A611A7B1AC519C519AE
:104AA000861A5C1B6B1B6B1BBB18E118E818ED1812
:104AB000F218F718FC18011906190B191019151915
:104AC00017191C191F192219251928192A192D1906
:104AD0000100000001191A1B1C1D1E1F20212201AC
:104AE00002011E05520C310C2D0C290C0100010293
:104AF0000202020606060909090909090F0F0F0F2C
:104B00000F0F151515181919191919191919191936
:104B10002324252525252525818283E200E900EA35
:104B200000B500B600B700CD008301CC008A019229
:104B30000194012102230224022502260227022ACF
:104B400002B300B4006F0070003031323390913501
:0E4B50003697349694F0F1F4F5F6F767669216
:00000001FF
