:100000000C942A030C9471030C9471030C947103E7
:100010000C9471030C9471030C9471030C94710390
:100020000C9471030C9471030C94ED280C94C0296A
:100030000C94581F0C9471030C9471030C9471036D
:100040000C9471030C9471030C9471030C94710360
:100050000C9448040C94C01F0C9471030C9471030D
:100060000C9471030C9471030C9471030C94710340
:100070000C9471030C9471030C9471030C94710330
:100080000C9471030C9471030C9471030C94710320
:100090000C9471030C9471030C9471030C94710310
:1000A0000C9471030C9471030C94710335001E00C1
:1000B0001F0020002100220023002400250026002C
:1000C00027002D002E00310029002B0014001A00FB
:1000D0000800150017001C0018000C001200130087
:1000E0002F0030002A0000002961040016000700DC
:1000F00009000A000B000D000E000F003341340010
:10010000280000000000E10000001D001B000600A8
:100110001900050011001000360037003800E50016
:1001200002510000E2000000E300000000000000B7
:1001300000002C00000000000000E7000000E600C6
:10014000000001003A003B003C003D003E003F0043
:10015000400041004200430044004500010001000E
:100160000100010001004D0001000100010001003B
:10017000010001000100010001004C00000001002D
:100180004A0001000100010001005000510052002E
:100190004F000100010001000000000039000000D4
:1001A0000100010001000100010001000100010047
:1001B00001000100010001000000AA000100A900E7
:1001C0000000000000000000AE0000000000000081
:1001D0000100010001000000005C010001000100BD
:1001E0000100010001000100010001000100010007
:1001F00001000100010001000100010001000100F7
:1002000001000100010001000100010001000100E6
:1002100001000000010001000100010001000100D7
:1002200001000100010001000100010001000000C7
:1002300000000100000001000100010001000100B8
:1002400001000100010001000100010001000000A7
:10025000C15C010001000000000000000000BF5C64
:10026000000000000000BD5C0100BE5C000000005A
:100270000000000000000000000101020304050668
:10028000080A0C0F1114181C2024292E33393F465C
:100290004C535B626A7179818A929AA2AAB2B9C1FF
:1002A000C8CFD5DCE1E7EBF0F4F7FAFCFDFEFFFE8A
:1002B000FDFCFAF7F4F0EBE7E1DCD5CFC8C1B9B249
:1002C000AAA29A928A8179716A625B534C463F393D
:1002D000332E2924201C1814110F0C0A08060504BB
:1002E0000302010100000000000000000000000403
:1002F0007F3F1F643214643214783C1E1E140A05BA
:100300002223252628292A2C2D2F30323335363822
:100310003A3B3D3E4042434547494A4C4E5051537B
:100320005557595A5C5E6062646668696B6D6F719F
:10033000737577797B7D7F81838587898A8C8E90A1
:10034000929496989A9C9E9FA1A3A5A7A8AAACAEAA
:10035000AFB1B3B4B6B8B9BBBCBEBFC1C2C3C5C6EA
:10036000C7C9CACBCCCDCED0D1D2D2D3D4D5D6D793
:10037000D7D8D9D9DADADBDBDBDCDCDCDCDCDDDDD1
:10038000DDDDDCDCDCDCDCDBDBDBDADAD9D9D8D7C1
:10039000D7D6D5D4D3D2D2D1D0CECDCCCBCAC9C763
:1003A000C6C5C3C2C1BFBEBCBBB9B8B6B4B3B1AF9A
:1003B000AEACAAA8A7A5A3A19F9E9C9A989694923A
:1003C000908E8C8A89878583817F7D7B7977757311
:1003D000716F6D6B6968666462605E5C5A595755EF
:1003E0005351504E4C4A4947454342403E3D3B3AAB
:1003F0003836353332302F2D2C2A29282625232232
:10040000FFAA7F554000000000000000000000012E
:1004100001010101010101010202020202020202C4
:10042000030303030303030404040404050505058F
:10043000050606060606070707070808080809094B
:10044000090A0A0A0B0B0B0C0C0C0D0D0D0E0E0EEF
:100450000F0F10101011111212131314141515167A
:10046000161717181819191A1A1B1C1C1D1D1E1FE8
:100470001F20212122232324252526272828292A35
:100480002B2C2C2D2E2F303131323334353637385A
:10049000393A3B3C3D3E3F40414243444546474854
:1004A000494B4C4D4E4F50525354555758595A5C26
:1004B0005D5E606163646567686A6B6C6E6F7172C4
:1004C000747677797A7C7D7F8182848687898B8D2B
:1004D0008E9092949597999B9D9FA1A2A4A6A8AA5D
:1004E000ACAEB0B2B4B6B9BBBDBFC1C3C5C8CACC4F
:1004F000CED0D3D5D7DADCDEE1E3E6E8EAEDEFF201
:10050000F4F7F9FCFF0403300000001E034C006503
:10051000006100660036003000200048006F007463
:100520000073007700610070000000100346006F48
:1005300000780020004C0061006200000004030904
:100540000409023B00020100A0FA090400000103B3
:10055000010100092111010001224000070581036A
:1005600008000A090401000103000000092111012B
:1005700000012285000705820320000A12011001F4
:1005800000000008EDFE000001000102030105016A
:100590000902A10185020901A10005091901290526
:1005A00015002501950575018102950175038101ED
:1005B0000501093009311581257F950275088106ED
:1005C00009381581257F950175088106050C0A38C3
:1005D000021581257F950175088106C0C0050109B6
:1005E00080A10185031601002603001A81002A83D9
:1005F00000751095018100C0050C0901A101850459
:10060000160100269C021A01002A9C027510950111
:100610008100C005010906A101050719E029E715B8
:100620000025019508750181029501750881010574
:100630000819012905950575019102950175039128
:10064000010507190029FF150026FF00950675080A
:100650008100C00011241FBECFEFDAE0DEBFCDBFA6
:1006600004B603FE27C08091670290916802A091B2
:100670006902B0916A028730904BA740B04BD1F429
:1006800010926702109268021092690210926A0238
:1006900014BE84B7877F84BF0FB6F894A895809165
:1006A0006000886180936000109260000FBEE0E0FF
:1006B000F8E3099511E0A0E0B1E0EAE8F8E502C04E
:1006C00005900D92AE35B107D9F722E0AEE5B1E065
:1006D00001C01D92A736B207E1F70E941A260C94BA
:1006E000432C0C9400006E9A0C947D0381FF03C090
:1006F00076980C947F03769AFCCF08950895089518
:10070000CF92DF92EF92FF928C3724E1920750F460
:1007100069E070E00E94842BCB01FF90EF90DF90A6
:10072000CF900895B0E0A0E0BC01CD016A50774DB4
:100730008F4F9F4F982F872F762F662725EF38E210
:1007400041E050E00E94AC2B69017A01CA01B90175
:100750000E94742B9B01AC01C701B6010E94742B4F
:10076000672F782F892F99276115710521E082075E
:10077000910591F66FEF7FEFCFCF81E0089581E093
:1007800008950C94BF031F93CF93DF9300D000D044
:100790001F92CDB7DEB749835A836B8320919B01AB
:1007A00089819A8121111BC06623A9F00E94C41C73
:1007B000182F682F89819A810E946A1C69817A8129
:1007C000812F0F900F900F900F900F90DF91CF918E
:1007D0001F910C9410070E94991C182FEFCF0E94B4
:1007E000C41C69817A81EDCFFC0140815181628115
:1007F000738184810C94C3030C94BD09E82FE295A6
:10080000EF70F0E032A1282F2F7081E090E001C05E
:10081000880F2A95EAF78095832382A3089585306F
:10082000E8F481111CC090918000977F9093800024
:10083000282F30E0AFEFBFEF0E94D42BDC01CB01BB
:1008400022E0B695A795979587952A95D1F70E94AE
:10085000800390938D0080938C00089584E09091A4
:1008600080009860E3CF10925F0110925E011092B9
:100870006001EFE6F0E08081816080830895EFE61B
:10088000F0E080818E7F80830E9445240C940F04C9
:100890001F920F920FB60F9211242F933F934F93F5
:1008A0005F936F937F938F939F93AF93BF93CF93F8
:1008B000EF93FF932091000180915E0190915F0181
:1008C000019644EF249F90011124B9010E94842BCA
:1008D00090935F0180935E01B901660F672F661FD9
:1008E000770B71950E94842B6F7780916001823025
:1008F00041F4603451F480916F008E7F80936F00DB
:1009000004C0813011F46F37B1F3E62FF0E0E25903
:10091000FD4FC4910E94452441E051E0C49F9001E5
:10092000C59F300D11243695279536952795482F6C
:10093000429FC001439F900D11240E948003909319
:100940008D0080938C00FF91EF91CF91BF91AF917B
:100950009F918F917F916F915F914F913F912F91D7
:100960000F900FBE0F901F901895279A87E30E9453
:10097000FE038AE08093800089E1809381008FEFFD
:100980009FEF90938700809386000E947C230E94B3
:100990006A2481110C94330408950E940B1E811166
:1009A00002C00E94A41E0E94B5040C9473030C9410
:1009B000760308950E9479170E94D9042FEF84E3EB
:1009C0009CE0215080409040E1F700C000000C9472
:1009D000E61F0F931F93CF93DF938C010E94F403C4
:1009E000EC01B8010E94C103882309F4C9C0B80111
:1009F000CE010E947611882309F4C2C0CA3C8CE55E
:100A0000D80709F400C108F051C0C23CECE5DE078C
:100A100009F4D0C048F5C5318CE5D807A8F4C23038
:100A20009CE5D90708F054C1C115ECE5DE0709F4CF
:100A3000A2C0C130DC4509F4A9C0C801DF91CF9143
:100A40001F910F910C94BD03C6318CE5D80709F4B2
:100A5000C3C1C13CDC4589F7F8018281882309F4D0
:100A60008FC00E9463248CC0F8018281C63CFCE5E3
:100A7000DF0709F4B8C068F4C43CECE5DE0709F40C
:100A8000A9C008F49EC0882309F47AC00E945F0DB3
:100A900077C0C83C9CE5D90709F4AFC008F4A8C0EA
:100AA000882309F46DC00E94990D6AC0C13DFCE520
:100AB000DF0709F4DCC070F5CD3C9CE5D90709F4EB
:100AC000B2C088F4CB3CFCE5DF0709F4A4C0CC3C01
:100AD000DC4509F0B2CFF8018281882309F450C0C7
:100AE0000E94F90B4DC0F8018281CF3CFCE5DF0785
:100AF00009F4AFC008F4A0C0882309F441C00E94E3
:100B0000E00B893028F00E94E00B8E3008F468C0BA
:100B100089E08FC0C53DECE5DE0709F4CBC0B0F439
:100B2000F8018281C33DFCE5DF0709F4BEC008F48B
:100B3000AEC0882329F10E94E00B893128F00E9481
:100B4000E00B823208F44CC089E173C0CD3DECE586
:100B5000DE0709F4B6C0CE3DFCE5DF0721F1CC3D50
:100B6000DC4509F06ACFF8018281882349F080E0F2
:100B70000E94B52605C0F801828181110E94DA0425
:100B800080E0DF91CF911F910F910895F80182814C
:100B90008823B1F390911B02892F8E7F90FF816093
:100BA00080931B02EDCFF8018281882349F30E94D4
:100BB000A41EE6CFF8018281882311F30E94E50F7D
:100BC000DFCF8823E9F20E94591D827249F00E940A
:100BD000D70FD6CF8823A1F20E94591D8272B9F394
:100BE0000E94CA0FCDCF882359F20E946C0DC8CF46
:100BF000882331F20E947B0DC3CF882309F4C0CF34
:100C00000E948A0DBDCFF8018281882309F4B8CFF4
:100C10000E94A80DB5CFF8018281882309F4B0CFD6
:100C20000E94E80BADCFF8018281882309F4A8CF98
:100C300081E00E94DA0FA4CF882309F4A1CF0E949B
:100C4000E00B823020F00E94E00B853048F282E019
:100C5000F0CF882309F494CF0E94E00B863028F06F
:100C60000E94E00B883008F4BBCF86E0E2CFF801A9
:100C70008281882309F484CF0E94E00B8F3028F012
:100C80000E94E00B843108F4ABCF8FE0D2CF8823F1
:100C900009F476CF0E94E00B853128F00E94E00B2A
:100CA000873108F49DCF85E1C4CF882309F468CF4C
:100CB00088E1BFCFF8018281882309F461CF83E204
:100CC000B8CFF8018281882309F45ACF82E050CF4F
:100CD000F8018281882309F4B0CE0E940B1E811195
:100CE00002C00E94A41E0E94281E90E09093580209
:100CF00080935702FE01E350FC45809157028160CA
:100D0000E231F105C8F4E957F94F0C94CE2B99065E
:100D1000A506A906AD06B106B506B906BD06C1060B
:100D2000C506C906CD06D106D506D906DD06E106FB
:100D3000E5068091570282608093570280915702A6
:100D40000E942C1E0E9479171BCF8091570284604D
:100D5000F3CF809157028860EFCF80915702806176
:100D6000EBCF809157028062E7CF80915702806479
:100D7000E3CF809157028068DFCF80915702846073
:100D8000EACF809157028E7FD7CF809157028D7F17
:100D9000D3CF809157028B7FCFCF80915702877F2F
:100DA000CBCF809157028F7EC7CF809157028F7D26
:100DB000C3CF809157028F7BBFCF809157028F772F
:100DC000BBCF809157028B7FEACF90915702892F3A
:100DD00097FB87F98058B0CF0E94591DF801928186
:100DE000992381F08A7A91E009F490E0909361016F
:100DF000811106C089E20E94341D0E94A81DC0CE48
:100E000085E3F9CF80916101811104C089E20E94DC
:100E10003B1DF3CF85E3FBCF90E080E0089508957C
:100E2000972F70E02FE0929F600D711D1124FB0140
:100E30009BE4899FE00DF11D1124EE0FFF1FE45587
:100E4000FF4F859194910895FC01EE0FFF1FE25131
:100E5000FD4F859194910895CF93DF930E941007E1
:100E60000E941A09EC018115914508F04BC0C1158B
:100E700080E5D80708F036C1C83ED10510F5C03E60
:100E8000D10580F5C83AD10570F4C53AD10508F00E
:100E9000B4C0C130D10531F118F0C430D10510F51E
:100EA000D0E0C0E01FC0CF3BD10508F4B1C0CE01F7
:100EB000805C9109C03CD10598F30E942407EC01A5
:100EC00011C0C11520E3D20788F4C11580E2D8070C
:100ED00008F0FFC0C03FD10518F3CF3FD10509F09E
:100EE00008F4F5C0CE01DF91CF910895C11520E43B
:100EF000D20708F0F4C0CE019927D3FFEDC0EC0172
:100F0000D86CF0CFC11589E5D80768F5C11528E57B
:100F1000D20708F030C1C11584E5D80778F4C115AF
:100F200023E5D20708F00EC1C11582E5D80708F005
:100F3000F5C0DC2FCC27C16FD06AD4CFC11525E511
:100F4000D20708F413C1C11586E5D80708F0A8CF69
:100F50008C2F0E949A09C82FD0E0DC2FCC27CC27F9
:100F6000DF71D062BFCFCD3B2CE5D20709F40EC1B3
:100F7000F0F4CB3B2CE5D20709F402C108F003C121
:100F8000C1152AE5D20708F08BCF8C2F8F700E94F5
:100F90009A0934E0D695C7953A95E1F7CF70D0E03D
:100FA000DC2FCC27D06A8F70806EC82B9BCFC03CC3
:100FB0008CE5D80709F4F0C060F4CE3B8CE5D80787
:100FC00009F4E7C0CF3BDC4509F06ACFC0E0D2EDC1
:100FD00089CFCE0190568115904208F061CF8D2FB8
:100FE0008F710E949A09DD27D06290E0982F8827A0
:100FF00088279F71C82BD92B75CFC53AD10509F425
:10100000CEC0C63AD10509F4CDC0C3E8D0E46ACF5A
:10101000C83AD10509F4C9C0C93AD10509F4C8C014
:10102000CA3AD10509F4C7C0CB3AD10509F4C6C004
:10103000CC3AD10509F4C5C0CB3BD10509F4C4C0F5
:10104000CC3BD10509F4C3C0CD3AD10509F4C2C0E7
:10105000C03BD10509F4C1C0CE3AD10509F4C0C0E6
:10106000CF3AD10509F4BFC0C13BD10509F4BEC0D8
:10107000C23BD10509F4BDC0C33BD10509F4BCC0D6
:10108000C43BD10509F4BBC0C53BD10509F4BAC0C6
:10109000C63BD10509F4B9C0C73BD10509F4B8C0B6
:1010A000C83BD10509F4B7C0C93BD10509F4B6C0A6
:1010B000CD3BD10509F4B5C0CE3BD10509F4B4C090
:1010C000CA3BD10509F0B3C0CAE2D6E40BCFD06564
:1010D00009CFCE019F70F1CEEC01D06C03CFDF7051
:1010E000D06A00CFCE01F4E096958795FA95E1F7A6
:1010F00083709C2F937021E030E002C0220F331FD9
:101100009A95E2F73C68382BC695C695C37080E285
:10111000C89FE0011124C22BD32BE4CECE018370F3
:10112000992721E030E002C0220F331F8A95E2F7B1
:10113000C695C69580E2C89FE0011124C22BD32B2F
:10114000DC68D0CECE018370992721E030E002C068
:10115000220F331F8A95E2F7C695C69580E2C89F95
:10116000E0011124C22BD32BDA68BCCEDC2FCC27B4
:10117000C46FD06AB7CEDC2FCC27C06FD06AB2CE96
:10118000C0E0D4EDAFCEC0E0D5EDACCEC0E0D1ED47
:10119000A9CEC0E0D0EDA6CEC0E0D3EDA3CEC1E88D
:1011A000D0E4A0CEC2E8D0E49DCEC2EED4E49ACE84
:1011B000C9EED4E497CECAEED4E494CEC5EBD4E421
:1011C00091CEC6EBD4E48ECEC3EBD4E48BCEC4EB8D
:1011D000D4E488CEC7EBD4E485CECCECD4E482CE84
:1011E000CDECD4E47FCEC3E8D5E47CCECAE8D5E428
:1011F00079CEC2E9D5E476CEC4E9D5E473CEC1E2B6
:10120000D6E470CEC3E2D6E46DCEC4E2D6E46ACEB4
:10121000C5E2D6E467CEC6E2D6E464CEC7E2D6E441
:1012200061CECFE6D4E45ECEC0E7D4E45BCEC0E0CE
:10123000D4E458CE8238910549F1B0F48133910558
:1012400009F45CC048F48932910509F452C08A322D
:10125000910509F458C008958533910509F444C0F7
:101260008933910599F00895833E910531F138F461
:10127000803E910591F0823E9105B1F00895863E41
:10128000910511F1873E910541F108952091570292
:101290002370C9F080EE90E008952091570220FF5E
:1012A00012C089E390E008952091570222FF0BC0FD
:1012B00024FF2EC090E080E008952091570222FD87
:1012C0002AC024FDF7CF08952091570223FFFBCFBA
:1012D00024FDF0CF87EE90E008952091570223FF80
:1012E000F0CF86EE90E008952091570225FD16C0BC
:1012F00008952091570225FD14C0089520915702AA
:1013000026FD12C008952091570226FD10C00895B1
:1013100083EE90E0089582EE90E0089589E290E0F7
:10132000089585E390E008958AE290E0089581E3CE
:1013300090E0C9CF9091570292FF06C0282F2871E4
:10134000283069F4877F846093FF06C0282F2871B6
:10135000283161F4877E846194FD877E0895282F6B
:101360002471243089F78B7F8860EECF282F247179
:10137000243191F78B7E8861EFCF0C947E03E82FA8
:10138000F0E0EE0FFF1FEE59FE4F8081918108952E
:101390000895CF93DF93A3E3B1E048E351E0C1E0C8
:1013A000D0E08D91E82FE295EF70F0E061A18F70B1
:1013B0009E0101C0220F8A95EAF7922F90959623FD
:1013C00091A382A1822B82A34A175B0751F7A4E263
:1013D000B1E061E070E08D91E82FE295EF70F0E010
:1013E00041A18F709B0101C0220F8A95EAF7922FCD
:1013F0009095942391A382A1822B82A381E0A333B1
:10140000B80749F710926D0110926C0110926301B8
:101410001092620110926F0110926E01109265019C
:101420001092640110927101109270011092670184
:10143000109266011092730110927201109269016C
:1014400010926801109275011092740110926B0154
:1014500010926A0185E00E94C30ADF91CF910C943B
:10146000CD047F928F929F92AF92BF92CF92DF92E4
:10147000EF92FF920F931F93CF93DF93ACE6B1E00F
:1014800043E351E0712CEE24E394F12CAD90BC9039
:10149000119711961C921E92EA018991AE01E82FD4
:1014A000E295EF70F0E091A18F70B70101C0660F77
:1014B0008A95EAF7892F862B81A382A1962E909494
:1014C000892182A3D0EADA95F1F784E2C82E81E07F
:1014D000D82E30E020E0E60189906E01082D0295BB
:1014E0000F7010E0E80188A10D911C91119790E018
:1014F000D82DDF7002C095958795DA95E2F780FDCB
:101500003FC0C701022E02C0880F991F0A94E2F75C
:10151000082B192B11961C930E932F5F3F4F2F30E2
:101520003105C9F681A1892181A382A1682B62A31B
:1015300081E02D913C9111972A153B0509F480E03B
:10154000782A1296D1E048335D0709F09FCF272D06
:1015500045E062E671E08CE691E00E94C40A0E94D8
:10156000FC03872DDF91CF911F910F91FF90EF909A
:10157000DF90CF90BF90AF909F908F907F90089515
:1015800090E080E0C5CF0895FF920F931F93CF9313
:10159000DF93F82E092F162FD72FC42F222349F0BF
:1015A00081E0809378010E948A1F90937701809355
:1015B0007601809178018823A1F080917601909145
:1015C00077010E94961F069760F0EF2DF02FA12F54
:1015D000BD2F90E080E0D0E08C179D0744F0109282
:1015E0007801DF91CF911F910F91FF900895219184
:1015F00031912D933D930196EFCFAF92BF92CF9251
:10160000DF92EF92FF920F931F93CF93DF93F62E0B
:10161000E72E382F282FE82FF0E0711110C0EB5F74
:10162000FB4F6491762F862FDF91CF911F910F9101
:10163000FF90EF90DF90CF90BF90AF900895072F6D
:1016400010E046E0649FC0011124CFEFD0E0BE015E
:101650000E94842BAB018F2D90E0880F991FA5E588
:10166000A49FB001A59F700D1124861B970B982F86
:10167000990F980FBE01601B710B6E9FD0016F9F79
:10168000B00D7E9FB00D11248B2F9E9DB0011124B3
:10169000672F77277E01E61AF70AB7016E9F700160
:1016A0006F9FF00C7E9FF00C11247F2D5E01A91A14
:1016B000B108A09E6001A19ED00CB09ED00C112458
:1016C000CD2CDD24CC19DD09CE9F8001CF9F100DDC
:1016D000DE9F100D11244230510541F150F44115A7
:1016E000510591F04130510589F02B2F8F2D732F2B
:1016F0000DC044305105E9F02F2D7B2F44305105AA
:10170000D0F04630510589F7732F212FE72FF0E0F5
:10171000EB5FFB4F7491E22FF0E0EB5FFB4F6491C6
:10172000E82FF0E0EB5FFB4F84917ECF7B2F812F82
:10173000EDCF712F2B2F832FE9CF0895CF93DF9318
:10174000762FE901682F842F0E94FD0A7983688330
:101750008A83DF91CF91089580913402982F9E7FE4
:1017600029F4817082608093340208958A34E8F30A
:1017700081708864F8CF88E090E00C94032CCF92BD
:10178000DF92EF92FF926B017C010E94AC0BB701DC
:10179000A60188E090E0FF90EF90DF90CF900C944E
:1017A000212CE4E3F2E083E0808311828FEF8283D7
:1017B0008383148260817181828193810C94BF0B39
:1017C0008091340280FF02C08695089580E00895DC
:1017D00080913802833018F48F5F809338026091D3
:1017E00034027091350280913602909137020C9448
:1017F000BF0B80913802882319F081508093380202
:1018000060913402709135028091360290913702D6
:101810000C94BF0B6091050170E08091340280FF51
:101820000AC080917D0123E0829FC0011124875C62
:101830009D4F0C94FF1080917C019091040123E056
:10184000829FF0011124E75CFD4F891750F7118248
:10185000108212828F5F3396F8CF9091340290FFFE
:1018600014C090917C012091040133E0939FF0011A
:101870001124E75CFD4F921710F00C940A0C818341
:10188000608342839F5F3396F6CF0895CF93DF93B3
:1018900000D01F92CDB7DEB79091340290FF0AC0FE
:1018A0009E012F5F3F4F0E949E0B4B8169818A8171
:1018B0000E942D0C0F900F900F90DF91CF91089503
:1018C000CF93DF93EC01EC81F0E0E050FD4F4491C9
:1018D000E4E3F2E0628181810E94460C8C818F5F9B
:1018E0008C83DF91CF910895CF93DF93EC01E4E3F4
:1018F000F2E0438162818C810E94460C8C818F5F73
:101900008C83DF91CF9108950F931F93CF93DF9333
:1019100000D01F92CDB7DEB78C0180917901811183
:101920000AC09E012F5F3F4F4FEF6FEF0E949E0B4B
:101930008A8180937901F8018481813069F038F0DF
:1019400040917901823009F040E080E003C080914D
:10195000790140E060E004C06091790140E080E0FE
:101960000E942D0CF801848190E0019663E070E004
:101970000E94982B84830F900F900F90DF91CF914E
:101980001F910F910895AF92BF92CF92DF92EF9285
:10199000FF920F931F93CF93DF9300D01F92CDB789
:1019A000DEB7182FF62E042FE22E9091340290FF0E
:1019B00029C0E92FE695AE2FB0E0A85CBE4F8C9110
:1019C000809385019E7F923059F59E012F5F3F4F96
:1019D000812F0E949E0B4B8169818A810E942D0C70
:1019E00010933502F092360200933702EE2051F048
:1019F00060913402709135028091360290913702E5
:101A00000E94BF0B0F900F900F90DF91CF911F910D
:101A10000F91FF90EF90DF90CF90BF90AF9008951F
:101A2000823019F400913702DBCF863019F410911F
:101A30003502D6CF8930D9F3893191F6E9518E2F0D
:101A40008170D82EE695F0E0E050FC4FA590B49060
:101A5000C12CBB2460910301C61618F00E940A0C29
:101A6000BFCF2C2D30E0A29EC001A39E900DB29E50
:101A7000900D112470E00E94842B812FD11013C08F
:101A8000860F40917C01420F532F511D9A01220F66
:101A9000331F240F351F275C3D4F402F6F2D0E94B1
:101AA0009E0BC394D7CF861BECCFE4E3F2E0918189
:101AB000282F4381628188E0890F0C94C30C81E058
:101AC0000C94550DE4E3F2E09181282F438162816B
:101AD00088EF890F0C94C30C81E00C94620DE4E351
:101AE000F2E0628128E0620F08F46FEF282F438153
:101AF00081810C94C30C81E00C946F0DE4E3F2E05F
:101B0000628128E0621B08F460E0282F4381818114
:101B10000C94C30C81E00C947E0DE4E3F2E043816D
:101B200028E0420F08F44FEF282F628181810C9446
:101B3000C30C81E00C948D0DE4E3F2E0438128E0D6
:101B4000421B08F440E0282F628181810C94C30C71
:101B500081E00C949C0D20E00C94C30CEF92FF925A
:101B60001F93CF93DF93EC0110E0EE24EA94F12C65
:101B700060910301161770F00E940A0C9A818C8103
:101B800090FF27C08F5F8C83DF91CF911F91FF90D3
:101B9000EF90089520917C01422F410F5527551F4A
:101BA000CA019A01220F331F280F391F275C3D4FAE
:101BB00070E0C7010E94982B962F8C8140913702CC
:101BC00060913602199F800D11240E949E0B1F5FA9
:101BD000CFCF8150D8CFBF92CF92DF92EF92FF92BA
:101BE0000F931F93CF93DF93FC0182810FEF80FF50
:101BF00001E010E0809103011817C0F00E940A0C68
:101C000080917B01013009F04DC0811102C08091AB
:101C10000301815080937B01DF91CF911F910F9140
:101C2000FF90EF90DF90CF90BF900895C0917C011E
:101C3000C12ED12CCC0DDD2DD11DCE01880F991FC9
:101C4000C80FD91FC75CDD4F198218821A8234E091
:101C5000E32EF12CB12C80917B018B0D87FF03C00B
:101C600090910301890F082E000C990BC816D90614
:101C700091F4809137028E9DA0018F9D500D11240B
:101C800055954795559547959E01609136028091EF
:101C900035020E949E0BB00EF1E0EF1AF108D9F662
:101CA0001F5FA8CF90E001966091030170E00E9451
:101CB000982BB0CF0F931F93CF93DF9380917C012C
:101CC0009091040123E0829FF0011124E75CFD4F15
:101CD000891740F1C0E0D3E060910301C61740F1DD
:101CE0000E940A0C2091010180917A01820F809359
:101CF0007A0190910201920F90930201191654F407
:101D0000082E000C990B409103014150550B84178C
:101D100095071CF0219520930101DF91CF911F9130
:101D20000F9108951182108212828F5F3396D0CF67
:101D30000C2F10E070E0C8010E94982B20917C01CC
:101D4000820F482F50E020917A01022E000C330BB5
:101D500002171307BCF020910201022E000C330B76
:101D6000201731077CF08D9F90011124275C3D4F97
:101D70004091370260913602809135020E949E0B9D
:101D8000CF5FAACFFA01EE0FFF1FE40FF51FE75C4C
:101D9000FD4F118210821282F3CF0F931F93CF93C6
:101DA000DF938C01FC0184819581019681709927D4
:101DB00095838483C0E0D5E580910301C81730F096
:101DC000DF91CF911F910F910C940A0C20917C010F
:101DD000422F4C0F5527551FCA019A01220F331F5E
:101DE000280F391F275C3D4F8C2F8695F8014481C1
:101DF0005581840F952F911D81704091370260911C
:101E000036028D9F802D11240E949E0BCF5FD4CF70
:101E10000F931F93CF93DF93EC0110E000E09091BC
:101E200003019017110609F06CF40E940A0C8C81D2
:101E300090E00196817099278C83DF91CF911F915B
:101E40000F91089520917C01A801420F511D9A0124
:101E5000220F331F240F351F275C3D4F4C816091AB
:101E600036028091350296959017110651F04CF08C
:101E7000442349F0409137020E949E0B0F5F1F4F91
:101E8000CECF4423B9F340E0F7CFE4E3F2E0808122
:101E90008E7F808360817181828193810E94BF0BDC
:101EA000109286012FEF80E792E021508040904011
:101EB000E1F700C000000C940A0CE4E3F2E080813A
:101EC0008E7F8083109286012FEF80E792E0215071
:101ED00080409040E1F700C000000C940A0C609133
:101EE0003402669570E04BE050E086E091E00E949D
:101EF000EE2B892B19F481E0809386010E948A1FC2
:101F000090937F0180937E0108959091340290FF19
:101F100035C09170811128C092609093340266237D
:101F200051F06091340270913502809136029091A7
:101F300037020E94BF0B60913402669570E04BE05F
:101F400050E086E091E00E94EE2B892BA1F01092E8
:101F5000860181E0809381014091370260913602D1
:101F6000809135020C94AB0D853210F09864D5CF7A
:101F7000880F982BD2CF0E946F0FEBCF0895682F58
:101F800090913402969581E0890F853208F081E0C6
:101F90000C94850F81E00C94BF0F682F9091340250
:101FA00096958FEF890F09F484E20C94850F81E0F8
:101FB0000C94CD0F61E00C94850FE4E3F2E0808196
:101FC0008160808386950C94DA0F8091340280FDC5
:101FD0000C94450F0C94DD0F60E00C94850F8091FC
:101FE0008401811133C080911B02816080931B02A8
:101FF0000E940B1E811104C00E94A41E0E94D10BDE
:102000000E94BB0B609334027093350280933602BA
:10201000909337026E7F61F40E94D10B0E94BB0B3C
:1020200060933402709335028093360290933702A6
:102030000E94AC0B109286018091340280FF03C095
:1020400086950E94EC0F81E0809384010895E4E37B
:10205000F2E080818160808386950C94EC0F109271
:10206000860108950F931F93CF93DF93809186018C
:10207000882309F48DC080918501E0913402E695B2
:10208000E81BE09380018230C9F5F0E0E450FD4F99
:10209000E491CE2FD0E000E61CE0809181018823FE
:1020A00089F0109281010E948A1F9E01209530952F
:1020B000820F931F90937F0180937E011092830182
:1020C0001092820180917E0190917F010E94961F63
:1020D0008C179D0708F45CC0E0917E01F0917F01B0
:1020E000CE0FDF1FD0937F01C0937E018EE791E07A
:1020F000F801DF91CF911F910F910994863049F437
:10210000F0E0E750FD4FE491CE2FD0E004E71CE073
:10211000C4CF893051F4E695F0E0EA50FD4FE491E8
:10212000CE2FD0E00EEA1DE0B8CF8F3051F4E69507
:10213000F0E0ED50FD4FE491CE2FD0E00BEE1DE02E
:10214000ACCF853149F4F0E0E051FD4FE491CE2F62
:10215000D0E00AE51EE0A1CFC8EED3E00DEC1EE012
:10216000883109F49ACF833239F4EEEEF2E0C5916A
:10217000D49104E81CE091CFC4EFD1E008E01FE067
:10218000843209F48ACFC0EDD7E00DE91BE085CF9A
:10219000DF91CF911F910F9108953EB1242F20958B
:1021A00023233EB1432B3FB7F894FC01680F791FFE
:1021B000E617F70711F43FBF0895819198E04EB9F3
:1021C000000000C087FF2EB9880F000000C000C0CB
:1021D00000C02EB900C09A9591F7EACF2DB1242BFB
:1021E0002DB99B01220F331F620F731F0E94CD1068
:1021F00087EC90E00197F1F700C00000089544E0FB
:102200000C94EE100F931F93CF93DF93C62FD42F10
:10221000022FFC0182818823C9F0609389010E940A
:102220008A1F909388018093870180E28C0F883009
:1022300008F057C0C77081E001C0880FCA95EAF75F
:10224000DF91CF911F910F910C948F141091890100
:10225000161335C080918701909188010E94961FC6
:10226000883C910560F5C0E2CD0F1D17B9F080E202
:10227000810F883040F4177081E001C0880F1A95F3
:10228000EAF70E949614C83028F581E09D2F9770D8
:1022900001C0880F9A95EAF70E948F14802F0E9440
:1022A0007C14C830F0F4D77081E001C0880FDA9553
:1022B000EAF7DF91CF911F910F910C94961480E271
:1022C0008C0F883070F4C77081E001C0880FCA9508
:1022D000EAF7EFCF802FDF91CF911F910F910C94F0
:1022E0007C14DF91CF911F910F9108959C01CB0138
:1022F000203F4CE5340731F190F4283DFCE53F07E1
:10230000E9F0293D4CE5340769F1273D3C4579F476
:1023100026E241EE61EE0E94021180E00895223F24
:10232000FCE53F07B9F090F0233F3C45B9F0FC01D4
:1023300082818823D1F010928901089527E245EE29
:1023400065EEE9CF26E241EE60EEE5CF27E245EE0D
:1023500064EEE1CF26E241EE62EEDDCF27E245EE0C
:1023600066EED9CF28E241E0EBCF81E0089590936B
:102370008F0180938E010895E0918E01F0918F017D
:10238000309721F00190F081E02D099480E00895CC
:10239000E0918E01F0918F01309721F00280F3815E
:1023A000E02D09940895E0918E01F0918F0130970E
:1023B00039F022E0DC012C930480F581E02D0994B2
:1023C000089520918C0130918D012817390771F003
:1023D00090938D0180938C01E0918E01F0918F019B
:1023E000309721F00680F781E02D0994089520911F
:1023F0008A0130918B012817390771F090938B0176
:1024000080938A01E0918E01F0918F01309721F045
:102410000084F185E02D0994089585B7806885BF13
:1024200085B7806885BF0895089508950C941412A7
:1024300008950C9418120E940D120E9415120C940B
:10244000161281E008950E94811F0E94C9090E940E
:1024500055200E947C230E94EF0F0C9419125F926A
:102460006F927F928F929F92AF92BF92CF92DF92A4
:10247000EF92FF920F931F93CF93DF93CDB7DEB709
:102480002A970FB6F894DEBF0FBECDBF0E94310A67
:102490000E942112882309F47AC091E9A92E91E0C3
:1024A000B92E10E000E088248394912C502E802FC8
:1024B0000E94BF097C01F501C190D1905F01C8164F
:1024C000D90609F45EC080911B0281FD0E94C809F3
:1024D00090E080E0CE24DF243401082E02C0660C98
:1024E000771C0A94E2F7960126213721232B09F461
:1024F00043C08E835F82E620F72081E0EF2809F455
:1025000080E088870E948A1F8160782F9A87898758
:102510004E815F8168858A850E94EE12000F111F2F
:10252000F801EF56FE4F80819181682679267182ED
:1025300060820E94D8220E94BC119091900189175C
:10254000B9F10E94BC11809390012A960FB6F894BD
:10255000DEBF0FBECDBFDF91CF911F910F91FF90D6
:10256000EF90DF90CF90BF90AF909F908F907F9033
:102570006F905F900C94D70401968F30910509F00D
:10258000ABCF0F5F1F4F0530110509F08FCF8FEFD5
:1025900089838A831B820E948A1F8160782F9D8392
:1025A0008C8349815A816B818D810E94EE12C1CF4B
:1025B0002A960FB6F894DEBF0FBECDBFDF91CF9144
:1025C0001F910F91FF90EF90DF90CF90BF90AF9051
:1025D0009F908F907F906F905F900895CF93DF933F
:1025E000CDB7DEB72B970FB6F894DEBF0FBECDBFC9
:1025F0004F83588769877A878B871E821D8285E083
:10260000FE013796DE01119601900D928A95E1F751
:1026100049815A816B817C818D819E812B960FB679
:10262000F894DEBF0FBECDBFDF91CF910C943B1A63
:10263000FC01808191810C94061D882309F405C159
:102640008238B9F40E94BC1181FDFFC089E30E9469
:10265000341D0E94A81D2FEF81EE94E02150804090
:102660009040E1F700C0000089E30E943B1D0C94FC
:10267000A81D8338A1F40E94BC1180FDE6C083E54B
:102680000E94341D0E94A81D2FEF81EE94E021507E
:1026900080409040E1F700C0000083E5E6CF843839
:1026A000A1F40E94BC1182FDD0C087E40E94341DB9
:1026B0000E94A81D2FEF81EE94E0215080409040B1
:1026C000E1F700C0000087E4D0CF9CEF980F913A6B
:1026D00018F40E94341DCBCF90E2980F983050F43C
:1026E000877091E001C0990F8A95EAF7892F0E94BF
:1026F0005C1DBDCF9BE5980F933070F4853A31F0A7
:10270000863A39F083E890E00C94E11181E890E09A
:10271000FBCF82E890E0F8CF98E5980F973108F06A
:102720008EC0883A09F446C0893A09F446C08A3A0C
:1027300009F446C08B3A09F446C08C3A09F446C005
:102740008B3B09F446C08C3B09F446C08D3A09F432
:1027500046C0803B09F446C08E3A09F446C08F3A21
:1027600009F446C0813B09F446C0823B09F446C0E7
:10277000833B09F446C0843B09F446C0853B09F419
:1027800046C0863B09F446C0873B09F446C0883BF7
:1027900009F446C0893B09F446C08D3B09F446C0A4
:1027A0008E3B09F446C08A3B09F446C090E080E0C5
:1027B0000C94F71182EE90E0FBCF89EE90E0F8CF19
:1027C0008AEE90E0F5CF85EB90E0F2CF86EB90E0DB
:1027D000EFCF83EB90E0ECCF84EB90E0E9CF87EB99
:1027E00090E0E6CF8CEC90E0E3CF8DEC90E0E0CF92
:1027F00083E891E0DDCF8AE891E0DACF82E991E0E9
:10280000D7CF84E991E0D4CF81E292E0D1CF83E2C7
:1028100092E0CECF84E292E0CBCF85E292E0C8CFC7
:1028200086E292E0C5CF87E292E0C2CF8FE690E0E9
:10283000BFCF80E790E0BCCF8AE292E0B9CF803F83
:1028400020F00E94E1210C94CD220895882309F400
:1028500052C0823871F40E94BC1181FF4CC089E3E0
:102860000E94341D0E94A81D89E30E943B1D0C9408
:10287000A81D833859F40E94BC1180FF3CC083E539
:102880000E94341D0E94A81D83E5EFCF843859F4BF
:102890000E94BC1182FF2FC087E40E94341D0E9459
:1028A000A81D87E4E2CF9CEF980F913AF0F290E2F6
:1028B000980F983050F4877091E001C0990F8A9575
:1028C000EAF7892F0E94621DD2CF9BE5980F9330C3
:1028D00020F490E080E00C94E11198E5980F973196
:1028E00020F490E080E00C94F711803F20F00E94EB
:1028F00049220C94CD220895CF93C82F0E941D1316
:10290000C93349F42FEF87EE93E021508040904087
:10291000E1F700C000008C2FCF910C94261488237F
:1029200021F00E945C1D0C94A81D0895882321F0BD
:102930000E94621D0C94A81D0895CF92DF92EF9221
:10294000FF920F931F93CF93DF936C01D62FC72F66
:10295000FC01058102950F70128111110E947B1DEF
:102960000E94521DE82E882371F0112331F180E27C
:102970008D0F883010F182E00E94F31D0E94521DDD
:1029800091E0E82EE926FC2EF2949FE0F922EF2D4B
:10299000F0E0E353FB4E0C94CE2BDF14DF142C1528
:1029A0002C1573159B157A157A15DD157A156C168D
:1029B0006C16F616FF167A152217E12CE4CF0C2FB1
:1029C0000F70C07F11F00295007F1123A9F0002342
:1029D00059F080E28D0F883010F0D11109C0802F9E
:1029E0000E945C1D0E94A81D8D2F0E941D1314C003
:1029F000802F0E946D1DF6CF8D2F0E94261400237C
:102A000059F080E28D0F883010F0D11121C0802F55
:102A10000E94621D0E94A81DEE2009F41AC20E94A5
:102A20004E1D80FD16C2F60112820E94481D0E94B2
:102A3000CE1BC6010E9432170E94481DDF91CF9124
:102A40001F910F91FF90EF90DF90CF900C94EF1BB0
:102A5000802F0E94731DDECFFC2FFF70FF2EC07FE2
:102A6000C03219F0F29480EFF822DD2369F0D13002
:102A700049F1112391F1002351F1F601858180FF85
:102A8000B3CF8F70858323C0112381F0011106C05D
:102A90000E948F1D8F290E948F14BECF0130C1F775
:102AA0000E948F1D8F290E94951DB6CF011106C06F
:102AB0000E949E1D8F2D0E949614AECF013009F406
:102AC000ABCFF6CF112329F0063008F0A5CF8F2D1C
:102AD000E2CF053008F0A0CFEDCF002359F38D2FC2
:102AE0000E94261499CF8C2F86958695837079F055
:102AF0008130B9F098E0F91609F49AC0F91608F493
:102B00008BCF86EF8F0D823008F492C085CF8D2F4A
:102B10009C2F9370111102C090E080E00E94E1119F
:102B20007BCF8D2F9C2F9370111102C090E080E01D
:102B30000E94F71171CF112309F1D53F99F0D63FCB
:102B4000B9F0D43F49F480915102909152028160D2
:102B500090935202809351028D2F0E94E1210E9496
:102B6000CD225ACF80915102909152028260F0CFD3
:102B700080915102909152028460EACFD53F89F052
:102B8000D63FA9F0D43F49F480915102909152026E
:102B90008E7F90935202809351028D2F0E94492282
:102BA000DECF80915102909152028D7FF2CF8091C1
:102BB0005102909152028B7FECCF8C2F837009F0E1
:102BC00045C0111135C04D2F429546954770440FB1
:102BD000440F0D2F0F7010E030E020E0042E04C0F1
:102BE000000F111F221F331F0A94D2F760E070E01C
:102BF000CB01D4FF0FC06FE070E080E090E004C034
:102C0000660F771F881F991F4A95D2F760957095B8
:102C100080959095602B712B822B932BC695C69532
:102C2000C370C23069F078F4C13039F00E94801B63
:102C30000E94BC110E94D704EFCE0E946E1BF8CFF9
:102C40000E94921BF5CF0E946C1BF2CF8695112338
:102C500011F08C2F8170882359F34D2F42954695A2
:102C60004770440F440F0D2F0F7010E030E020E04C
:102C7000042E04C0000F111F221F331F0A94D2F725
:102C800060E070E0CB01D4FF0FC06FE070E080E047
:102C900090E004C0660F771F881F991F4A95D2F7EE
:102CA0006095709580959095602B712B822B932B5E
:102CB000C695C695C370C23049F058F4C13019F0BA
:102CC0000E94451CB5CF0E94331CB2CF0E94571CF6
:102CD000AFCF0E94A81BACCFE0E2ED0FE53108F0CA
:102CE00066C0F0E0EA58F94E0C94CE2B8B168B168A
:102CF0008B168B168B168B168B168B168B168B16CC
:102D00008B168B168B168B168B168B169C16AA168B
:102D1000B116B816C216DF708C2F8F71112331F0E7
:102D20000E94CE1B8D2F0E948F14E4CE0E94EF1BB9
:102D30008D2F0E949614DECE112341F0053008F04D
:102D4000D9CE8C2F8F710E94121CD4CE063008F081
:102D5000D1CEF7CF8C2F8F71112339F00E94CE1B6B
:102D6000C9CE8C2F8F711123C9F30E94EF1BC2CEE5
:102D7000112329F08C2F8F710E94B91BBBCE0E94AA
:102D8000B41BB8CE112349F0CF718C2F0E94CE1BFB
:102D900063E08C2F0E94DE1DADCE81E00E94F31D0A
:102DA000023008F4A7CE82E00E94F31DA3CE1123C7
:102DB00049F0002321F08D2F0E941D139BCE8C2FF4
:102DC0008F71CCCF002379F0D93349F4FFEF27EE90
:102DD00083E0F15020408040E1F700C000008D2FDB
:102DE0000E94261487CE8C2F8F71BFCF4C2F4F702F
:102DF0006D2FC6010E940C070E94E41A0DCE11111E
:102E00000BCECF70C230B1F040F4CC2381F0C13092
:102E100009F070CE0E94B523FFCDC43089F068F070
:102E200080E0C53009F066CE0E942524F5CD0E94D1
:102E30009723F2CD0E94F523EFCD0E94FC23ECCD29
:102E400084E0F2CF4C2F4F706D2FC6010E940F0708
:102E5000E3CDDF91CF911F910F91FF90EF90DF9025
:102E6000CF9008950F931F93CF93DF93EC01988138
:102E700089812B813C81232B39F08F3F19F481E02C
:102E80009F3F19F080E001C081E080FD17C0CE01B6
:102E90000E94E904882391F0688179818A810E94E7
:102EA000101D8C010E94691C0E946B1BB801CE0191
:102EB000DF91CF911F910F910C949D14DF91CF91D1
:102EC0001F910F9108950E947B1D0E948C1D0E94EE
:102ED000A81D0E9470230E94CD2290E080E00E94F5
:102EE000E11190E080E00C94F7110E94421D0C94D7
:102EF00063170E946A1D0C947517E92FE295EF7015
:102F0000E250EE30E0F4F0E0E857F84E0C94CE2BAF
:102F1000961796179F179F17A1179F179F179F1711
:102F200096179617A6179F179F17A617803F19F099
:102F300020F4803E20F481E00895843FE1F380E0B6
:102F40000895803EC0F3813FD1F7F5CF93FB8827EA
:102F500080F908950E94061D0C947D17CF93DF938E
:102F600000D000D01F92CDB7DEB70F900F900F901A
:102F70000F900F90DF91CF910895CF93DF9300D002
:102F800000D000D0CDB7DEB726960FB6F894DEBFDE
:102F90000FBECDBFDF91CF9108951F93CF93DF93E5
:102FA000C0919C0116E080919D018C1304C0DF91BB
:102FB000CF911F910895D0E01C9FF0011D9FF00D4F
:102FC0001124E256FE4F40815181628173818481D8
:102FD00095810E94BD172196C770E5CF4091CE0123
:102FE0005091CF016091D0017091D1018091D201B7
:102FF0009091D3010C94BD171F93CF93DF938091D1
:10300000D301807FD1F48091D0018823B1F08091E9
:103010009C01D0919D01B091CE01C091CF01409112
:10302000D1015091D201A1E0BF3F09F0A0E0BA0167
:103030006095709516E0D81304C0DF91CF911F9171
:10304000089521E04115510521F02A2FCF3F09F0C5
:1030500020E090E020FD38C0189FF001199FF00D8E
:103060001124E256FE4F21812C132EC020812B13F8
:103070002BC02281211128C02381348124173507D8
:1030800000F1241B350B283C3105F0F42091D301CD
:103090002F7020612093D30126E0289FF001299F03
:1030A000F00D1124ED55FE4F80818F70806180837B
:1030B0008EEC91E00E943217DF91CF911F910C941A
:1030C000CD17260F371FDFCF01968770B4CFAF9291
:1030D000BF92CF92DF92EF92FF920F931F93CF9305
:1030E000DF93CDB7DEB761970FB6F894DEBF0FBEA2
:1030F000CDBF8C0185E0F801DE011D9601900D9297
:103100008A95E1F7D8014C9111965C91119712962E
:10311000EC903091CE016091CF018091D1019091DE
:10312000D20121E0009731F06F3F19F421E03F3FD9
:1031300009F020E0B22FB170BB2E20FD80C1F80154
:10314000C380D480A090D001AA2009F427C1C8165A
:10315000D906D0F1D601A81BB90BCD01FF24F394F9
:10316000883C910508F0F12C8091D301982F907F35
:10317000FF2009F4CEC0911187C0FE2C651329C031
:10318000341327C0E11025C08F7080618093D30174
:103190000E94EE178EEC91E00E9432178091D301CD
:1031A000F80185838F2D61960FB6F894DEBF0FBEB0
:1031B000CDBFDF91CF911F910F91FF90EF90DF90E6
:1031C000CF90BF90AF900895809590958C0D9D1DE8
:1031D000C5CF81E0CD2831F05F3F19F481E04F3F4A
:1031E00009F080E080FD24C081E08E25F82FF17089
:1031F000DF2E80FF3FC080919C0120919D0136E031
:10320000821318C04D875E878D859E850E94061D9E
:10321000292F22952F70223008F1243030F59F702D
:1032200009F1D80115969C91907FE1F4FB2CBACF5F
:1032300080E0DCCF90E0389FF001399FF00D112441
:10324000E256FE4F6181561306C06081461303C0EB
:1032500062816E110FC001968770D2CF9F7011F0FE
:10326000882321F3805E883008F3C8010E9432175A
:10327000BD2CDCCFEE2009F495CF8091D301816085
:103280008093D301F12C8ECF651314C0341312C078
:10329000E11010C0F8018583C8010E94321786E052
:1032A000F801AEECB1E001900D928A95E1F70E9431
:1032B000EE1778CF4D875E878D859E850E94AA1771
:1032C000882319F1EE2009F18091D301803270F04A
:1032D0002091CE013091CF0138872F831986DB866C
:1032E000CA868C87CE0107960E94321786E0F801C5
:1032F000AEECB1E001900D928A95E1F70E94FC17C7
:103300000E94EE17FF24F3944DCFC8010E9432179C
:10331000F9CF911113C07C2DD98AC88A6E2D898965
:103320000E94AE178EEC91E00E94321786E0EEEC20
:10333000F1E0DF011D928A95E9F7B9CF651312C05C
:10334000341310C0E1100EC0F8018583C8010E943B
:103350003217EEECF1E086E0DF011D928A95E9F785
:10336000FA2C20CF4D875E878D859E850E94AA17F7
:10337000882359F2EE2049F28091D301803208F47B
:10338000B5CF2091CE013091CF013A8329831B82A2
:10339000DD82CC828E83CE010196A6CFC816D906D7
:1033A00038F1F601E81BF90BCF01F12C883C9105AF
:1033B00008F03DC0FE2CEE2009F4A7CF651326C00F
:1033C000341324C08091D30180FD17C0982F907FC3
:1033D000A1F0D80115968C931597903F09F45CCF16
:1033E000982F907F905F8F70892B15968C9354CF78
:1033F000809590958C0D9D1DD8CF86E0F801AEECA0
:10340000B1E001900D928A95E1F7CCCE4D875E87B1
:103410008D859E850E94AA17811168CF8091D30166
:1034200081608093D301C8010E943217BBCE7C2DEE
:10343000D98AC88A6E2D89890E94AE1777CFEE206F
:1034400009F463CF4D875E878D859E850E94AA17FC
:10345000F82E882309F459CF86E0F801AEECB1E0EC
:1034600001900D928A95E1F78EEC91E00E9418137D
:103470000E94FC171CCF1F93CF93DF93CDB7DEB70D
:103480002C970FB6F894DEBF0FBECDBF4F83588781
:1034900069877A878B879C87CE0107960E94671879
:1034A000882309F442C09F8188852A853B85232B88
:1034B00039F08F3F19F481E09F3F19F080E001C09F
:1034C00081E080FD08C04F81588569857A858B85AC
:1034D0009C850E94BD1716E080919C0190919D01F2
:1034E000891709F467C0819FC001112482569E4F3D
:1034F0000E946718882309F45DC0E0919C011E9F1B
:10350000F0011124E256FE4F4081518162817381A6
:10351000848195810E94BD1780919C0190E0019665
:103520008770992780939C01D7CF86E0FE0137965C
:10353000DE01119601900D928A95E1F79F818885B1
:103540002A853B85232B39F08F3F19F481E09F3F7B
:1035500019F080E001C081E080FDBDCF20919D0188
:1035600030E0C90101968770992740919C01481766
:10357000190699F096E0929FD001939FB00D112407
:10358000A256BE4FFE01319601900D929A95E1F739
:1035900080939D010E94CD179ECF0E9479171092B3
:1035A0009D0110929C0186E0EEECF1E0DF011D929E
:1035B0008A95E9F72C960FB6F894DEBF0FBECDBF03
:1035C000DF91CF911F910895EF92FF920F931F9378
:1035D000CF93DF938C01892B81F0F12CEE24E394BF
:1035E000E8012196F8018491843770F4843008F062
:1035F0005FC08130B1F08230A1F1DF91CF911F9196
:103600000F91FF90EF900895853709F44CC008F4AE
:103610003DC09CE7980F903780F78F770E94261463
:1036200049C00E5F1F4FFE01849190E2980F9830C1
:1036300060F48770FE2D01C0FF0F8A95EAF78F2F87
:103640000E947E1D0E94A81D02C00E941D138F2D86
:10365000815030F2EFE9FFE03197F1F700C0000050
:10366000F7CF0E5F1F4FFE01849190E2980F9830C4
:1036700050F48770FE2D01C0FF0F8A95EAF78F2F57
:103680000E94841DDFCF0E942614E1CF0E5F1F4FE2
:10369000FE01C491C150D8F28FE99FE00197F1F784
:1036A00000C00000F7CF0E5F1F4FFE01F490CFCF98
:1036B0000E941D138E01CBCF08950C945C1B0E94B9
:1036C0005D1B60930A0270930B0280930C0290932F
:1036D0000D020C94631708950C945F1B0F931F93B6
:1036E00000910A0210910B0220910C0230910D0200
:1036F000602B712B822B932B1F910F910C945F1BCE
:103700000F931F9300910A0210910B0220910C025B
:1037100030910D0260237123822393231F910F9117
:103720000C945F1B0F931F9300910A0210910B02E0
:1037300020910C0230910D02602771278227932778
:103740001F910F910C945F1B0C945C1B0C94A41B99
:103750000E94A61B609306027093070280930802E2
:10376000909309020C94631760E070E0CB010C9415
:10377000A81B0F931F9341E050E060E070E08A01C6
:103780009B0104C0000F111F221F331F8A95D2F71F
:10379000C901B8011F910F910C94A81B0F931F939F
:1037A00041E050E060E070E004C0440F551F661F28
:1037B000771F8A95D2F78091060290910702A09117
:1037C0000802B09109028A019B01082B192B2A2BB0
:1037D0003B2BC901B8011F910F910C94A81B0F93AB
:1037E0001F9341E050E060E070E004C0440F551FBB
:1037F000661F771F8A95D2F7CB01BA016095709545
:103800008095909500910602109107022091080280
:103810003091090260237123822393231F910F911A
:103820000C94A81B0F931F9341E050E060E070E000
:1038300004C0440F551F661F771F8A95D2F78091E9
:10384000060290910702A0910802B09109028A0134
:103850009B01082719272A273B27C901B8011F9177
:103860000F910C94A81B0F931F93009106021091C7
:1038700007022091080230910902602B712B822BE4
:10388000932B1F910F910C94A81B0F931F930091E2
:10389000060210910702209108023091090260236C
:1038A0007123822393231F910F910C94A81B0F93D4
:1038B0001F93009106021091070220910802309197
:1038C000090260277127822793271F910F910C947B
:1038D000A81B08952FE0929F800D1124982F9770B8
:1038E00071E001C0770F9A95EAF7869586958695DF
:1038F00025E0829FC001112450E040E0A62FB0E0F7
:10390000FC01E40FF51FEC52FE4F60819D01042E77
:1039100002C0369527950A94E2F721702195262753
:103920002723262720834F5F5F4F4530510541F7FE
:1039300008952FE0929F800D1124982F97708695FF
:103940008695869525E0829FA001112470E060E0B5
:1039500080E0FA01E60FF71FEC52FE4F208130E0C5
:10396000092E02C0369527950A94E2F72170332775
:10397000062E01C0220F0A94EAF7822B6F5F7F4F59
:103980006530710531F70895BF92CF92DF92EF92C3
:10399000FF920F931F93CF93DF938C01C090060289
:1039A000D0900702E0900802F090090280910A028C
:1039B00090910B02A0910C02B0910D02C82AD92A55
:1039C000EA2AFB2ACFE1D0E0BC2ED701C6010C2E9B
:1039D00004C0B695A795979587950A94D2F780FD70
:1039E0000EC0219788F7B12C8B2DDF91CF911F91BD
:1039F0000F91FF90EF90DF90CF90BF900895B801A6
:103A00008C2F0E942C07019761F3EECFCF93DF93A9
:103A1000EC010E94C41CBE01DF91CF910C942C07D5
:103A20001F93CF93DF93EB0190919B01992331F08A
:103A3000CB01DF91CF911F910C94061D882379F063
:103A4000CB010E94C41C182F682FCE010E946A1C53
:103A5000BE01812FDF91CF911F910C942C07CB01D8
:103A60000E94991C182FF4CF682F8091110190911A
:103A700012010C94D91E682F8091110190911201AE
:103A80000C94DB1E80911101909112010C94DD1EAB
:103A900080910E02859585958595089580910E02F9
:103AA0008770089590910E02977081E009F480E08C
:103AB000089580911A02089590911A02892B80939B
:103AC0001A020895982F909580911A028923809365
:103AD0001A02089510921A02089590911902892BE2
:103AE000809319020895982F909580911902892347
:103AF0008093190208951092190208959091180266
:103B0000892B809318020895982F90958091180220
:103B100089238093180208951092180208958091C5
:103B20000F02089508950C94921D90910F0298171A
:103B300021F080930F020C94931D089580910F0241
:103B4000882329F010920F0280E00C94931D0895B1
:103B5000E0911101F091120180911A028083E091AD
:103B60001101F0911201808190911902892B8083BB
:103B7000E0911101F0911201808190911802892B3E
:103B8000808390910F02992381F0E0911101F091CF
:103B900012018081892B8083809111019091120103
:103BA0000E94A61E81110E949E1D8091110190917C
:103BB00012010C94C81108950C94DB1D98E0899FA4
:103BC00090011124622B60930E020E94CE1B809103
:103BD0000E028595859585950C94DC1D10920E023C
:103BE00080E00C94DC1D90910E02809589238093D7
:103BF0000E02282F277071F4282F082E000C330B8B
:103C00009217130639F08595859585950E94EF1BCF
:103C10000C94EE1D089590E080E00E94092C21E0B4
:103C20008D3E9E4F09F020E0822F089582E090E0C3
:103C30000C94FB2B682F82E090E00C940F2C83E017
:103C400090E00C94FB2B682F83E090E00C940F2CF9
:103C500084E090E00C94FB2B682F84E090E00C94BF
:103C60000F2C86E090E00C94FB2B682F86E090E010
:103C70000C940F2CAB01BC018FE090E00C94212C34
:103C8000AB01BC0183E190E00C94212C60E070E07A
:103C9000CB010C94401E60E070E0CB010E943A1E04
:103CA0000C94461E6DEE7EEF90E080E00E942D2C7D
:103CB00060E082E090E00E940F2C60E083E090E002
:103CC0000E940F2C10920A0210920B0210920C020A
:103CD00010920D0260E084E090E00E940F2C60E002
:103CE00085E090E00E940F2C60E086E090E00E946A
:103CF0000F2C6FEF87E090E00E940F2C40E050E027
:103D0000BA0188E090E00E94212C60E08DE090E014
:103D10000E940F2C40E050E0BA0188E190E00E9440
:103D2000212C60E087E190E00E940F2C40E050E001
:103D3000BA018CE190E00E94212C60E080E290E0EA
:103D40000E940F2C0C944B1E0C94521EFC013296B8
:103D500097E080E0915009F4089521912223D1F356
:103D60008F5FF8CF9C01FC0132969FEF80E041917C
:103D7000461751F09F3F19F4411101C0982F8F5FF2
:103D80008630A9F79F3F09F40895290F311D97FD4B
:103D90003A95F90162830895FC01329608962191C3
:103DA000261303C0DF0111971C92E817F907B9F732
:103DB00008950C94B21E0C94CC1E029626E0FC01D1
:103DC00011922A95E9F70895089508950C94E51E37
:103DD0000E94E61E80915E02843009F43CC010927D
:103DE0001C0288E190E020E40FB6F894A895809337
:103DF00060000FBE2093600080E00E940F0480E00E
:103E00000E94D7040E942F1080911D0281110AC0C8
:103E100081E080931D0280913402817080931E02A4
:103E20000E945D0F0E94E61E83B7817F846083BF7E
:103E300083B7816083BF7894889583B78E7F83BF73
:103E40000FB6F894A8958091600088618093600017
:103E5000109260000FBE08950895CF930E94E41E53
:103E60000E94310A0E942C1FC0E08C2F0E94BF09C3
:103E7000892B31F4CF5FC530C1F780E0CF91089531
:103E800081E0FCCF08950C94421F0E9479170E9494
:103E90007C230E94BC110E94D70410921D028091C5
:103EA0001E0281110E9427100E946F0F0C94431F65
:103EB0001F920F920FB60F9211248F939F93AF937F
:103EC000BF9380911C02811113C080915302909185
:103ED0005402A0915502B09156024196A11DB11D08
:103EE0008093530290935402A0935502B0935602CC
:103EF000BF91AF919F918F910F900FBE0F901F9028
:103F0000189582E084BD93E095BD9AEF97BD8093AC
:103F10006E0008952FB7F894809153029091540247
:103F2000A0915502B09156022FBF0895CF92DF9213
:103F3000EF92FF920F931F932FB7F8944091530283
:103F40005091540260915502709156022FBF6A0140
:103F50007B01EE24FF248C0130E020E0C016D10666
:103F6000E206F30650F0481B590BCA011F910F914E
:103F7000FF90EF90DF90CF90089541505109F3CF1B
:103F800078941F920F920FB60F9211248F939F93E4
:103F9000AF93BF938091530290915402A091550228
:103FA000B09156020196A11DB11D809353029093CA
:103FB0005402A0935502B0935602BF91AF919F91C6
:103FC0008F910F900FBE0F901F90189581E08093F6
:103FD000E00080E28093D8001092C9008FE19EE457
:103FE0000197F1F700C0000087E090EBDC018093BF
:103FF000670290936802A0936902B0936A0288E115
:104000009CE00FB6F894A895809360000FBE909343
:104010006000FFCFAF92BF92CF92DF92EF92FF92FC
:104020000F931F93CF93C0E0CC24C394D12CE82EE0
:10403000F12C8C2F0E94BF095C0110E000E0C6014A
:10404000002E02C0880F991F0A94E2F78A219B2153
:10405000892B99F40F5F1F4F0F30110581F7CF5F48
:10406000C53039F780E0CF911F910F91FF90EF900D
:10407000DF90CF90BF90AF900895602F7C2F80E0AD
:104080000E941007E816F90629F781E0ECCFCF93DC
:10409000C82F8CE20E940A20882321F08C2FCF9118
:1040A0000C940A2080E0CF910895CF930E940B1EBC
:1040B000811102C00E94A41EC5E608C00E94310AF8
:1040C0008FE39CE90197F1F700C00000C150B1F700
:1040D00089E20E9447208111EFC08AE20E944720B6
:1040E00081110E94A41E85E00E94472081110E9438
:1040F000E61F0E94161E80931B0287E00E94472045
:10410000882371F08BE10E944720882309F4B1C015
:1041100090911B02892F8D7F91FF826080931B02FB
:1041200080911B020E941A1E0E94281E90E090930C
:1041300058028093570280EE0E944720882341F066
:1041400090915702892F8E7F90FF81608093570254
:1041500089E30E944720882341F090915702892FDC
:104160008D7F91FF82608093570282EE0E944720EC
:10417000882341F090915702892F8B7F92FF8460B2
:104180008093570286EE0E944720882341F0909149
:104190005702892F877F93FF88608093570283EEB1
:1041A0000E944720882341F090915702892F8F7EEB
:1041B00094FF80618093570285E30E944720882303
:1041C00041F090915702892F8F7D95FF80628093F7
:1041D000570281E30E944720882341F090915702C3
:1041E000892F8F7B96FF80648093570281E10E9424
:1041F0004720882341F090915702892F97FB87F938
:10420000805880935702809157020E942C1E87E2AB
:104210000E944720C82F8EE10E9447208111C26072
:104220008FE10E9447208111C46080E20E944720F4
:104230008111C86081E20E9447208111C06182E241
:104240000E9447208111C06283E20E9447208111B1
:10425000C06484E20E944720882341F1C0688C2F0B
:104260000E94231E6C2F70E090E080E0CF910C94B0
:104270006C1B8EE00E944720882339F090911B022E
:10428000892F8B7F92FF846049CF80E10E94472075
:1042900090911B02882329F0892F877F93FF8860E4
:1042A0003DCF892F8E7F90FF816038CFC111D7CF4E
:1042B0000E941F1E682FD7CFCF91089580912202B0
:1042C00080FF12C06091160185E0689FB001112443
:1042D000759567957595679560387105A8F56115B1
:1042E0007105A1F1862F089581FF09C06091160123
:1042F00085E0689FB001112475956795EDCF82FF29
:1043000007C06091160185E0689FB0011124E4CFD9
:10431000209121022223A9F09091150160911601AC
:1043200085E0689FB00111242917B0F6269FA001EF
:10433000279F500D1124692F70E0CA010E94982B0D
:10434000CBCF65E070E0CECF8FE7089581E0089590
:104350008091220280FF0CC06091140170E075957D
:104360006795759567956115710549F1862F0895D3
:1043700081FF06C06091140170E075956795F3CFD9
:104380006091140182FD0BC0909121029923A1F04C
:104390006091130180911401961738F0682F70E036
:1043A0006038710500F38FE70895899FC0011124DB
:1043B00070E00E94982BF4CF61E070E0D7CF81E0ED
:1043C0000895803F31F40E945E21819580932602FA
:1043D0000895813F19F40E945E21F8CF823F31F4A5
:1043E0000E945E218195809325020895833F19F4F0
:1043F0000E945E21F8CF893F29F40E94A821809372
:10440000270208958A3F21F40E94A8218195F7CFC1
:104410008B3F31F40E94A821819580932802089552
:104420008C3F19F40E94A821F8CF843F31F4809189
:1044300024028160809324020895853F21F48091B5
:1044400024028260F7CF863F21F4809124028460A9
:10445000F1CF873F21F4809124028860EBCF883F21
:1044600021F4809124028061E5CF8D3F31F4809169
:10447000220281608093220208958E3F21F4809170
:1044800022028260F7CF8F3FB9F7809122028460C9
:10449000F1CF803FC1F48091260287FD1092260261
:1044A0008091250281110EC08091260281110AC0DF
:1044B00080912702811106C080912802811102C0DB
:1044C000109221020895813F29F480912602181646
:1044D0002CF3E6CF90912502823F29F497FFE0CF9D
:1044E00010922502DDCF833F19F41916CCF3D8CFF3
:1044F000893F39F480912702181694F6109227020A
:10450000CFCF8A3F29F48091270287FFC9CFF6CF0A
:104510008B3F39F48091280287FFC2CF1092280286
:10452000BFCF8C3F29F4809128021816BCF3B8CF76
:10453000843F31F4809124028E7F80932402B0CF97
:10454000853F21F4809124028D7FF7CF863F21F4AF
:10455000809124028B7FF1CF873F21F48091240248
:10456000877FEBCF883F21F4809124028F7EE5CFB7
:104570008D3F31F4809122028E7F8093220290CF72
:104580008E3F21F4809122028D7FF7CF8F3F09F07B
:1045900087CF809122028B7FF0CF83E292E00E944E
:1045A000D3110E948A1F9093200280931F020895C6
:1045B0001F93CF93DF9380911F02909120020E945E
:1045C000961FAC01909121022091170130E09111CA
:1045D00006C0209118018AE0289F900111244217FB
:1045E000530780F08091250210912602D091270276
:1045F000C091280281110AC011116EC0D1116CC086
:10460000C1116AC0DF91CF911F9108959F3F19F0AA
:104610009F5F90932102181624F40E945E218093DC
:1046200025028091250287FF05C00E945E218195A9
:1046300080932502111624F40E945E2180932602A5
:104640008091260287FF05C00E945E21819580939C
:104650002602309125023323A1F020912602222345
:1046600081F045EB3403C0011124992369F1909343
:10467000250245EB240390011124332349F13093A3
:1046800026021D1624F40E94A821809327028091FF
:10469000270287FF05C00E94A821819580932702E9
:1046A0001C1624F40E94A8218093280280912802DD
:1046B00087FF05C00E94A821819580932802DF9181
:1046C000CF911F910C94CD2281E080932502D1CF10
:1046D00081E080932602D5CF9F3F09F099CFAACFE2
:1046E00086E0E3E2F2E0DF011D928A95E9F710929D
:1046F00021021092220208950E940B1E811102C015
:104700000E94A41E0E94311E80935902883220F01C
:1047100087708062809359028091590280FF05C0A2
:104720008695869586950C940F0480E0FCCF809149
:104730005902982F969596959695943040F49F5FE0
:10474000990F990F990F8770892B80935902809147
:1047500059028160809359020E94351E809159024E
:104760008695869586950C940F0480915902982F12
:10477000987F79F0885080935902887F91E009F4FE
:1047800090E08091590290FB80F9809359020E9439
:10479000351E809159028695869586950C940F0456
:1047A0008091590280FD13C081608093590281304D
:1047B00019F489E080935902809159020E94351EB4
:1047C000809159028695869586950C940F040895DC
:1047D0008091590280FF08C08E7F809359020E9409
:1047E000351E80E00C940F0408958091590280FDDD
:1047F0000C94E8230C94D02390915902892F86952C
:10480000869586958F5F8F7197708530D8F4880F65
:10481000880F880F892B8093590280915902887FD5
:1048200091E009F490E08091590290FB80F9809327
:1048300059020E94351E809159028695869586956B
:104840000C940F0490935902E8CF853008F084E06F
:10485000982F990F990F990F809159028770892B82
:1048600080935902887F91E009F490E08091590289
:1048700090FB80F9809359020E94351E8091590265
:104880008695869586950C940F048091590286959D
:104890008695869508958091590281FD07C08260B2
:1048A000809359020E94351E0C9433040895809120
:1048B000590281FF07C08D7F809359020E94351EE7
:1048C0000C943F0408958091590281FD0C94572463
:1048D0000C944B24809159028695817008958091A3
:1048E000310208950F931F93CF93DF9300D01F924F
:1048F000CDB7DEB78C010E94C526823011F084301E
:1049000021F584E089831B830A8382E08093E90098
:104910008FEF9091E800815095FD06C095ED9A9536
:10492000F1F700008111F5CF8091E80085FF0DC0FF
:1049300050E040E063E070E0CE0101960E94E22684
:104940008091E8008E778093E8000F900F900F9091
:10495000DF91CF911F910F910895CF93DF9300D0F6
:104960001F92CDB7DEB720915E02243031F523E0EF
:104970002983805891099B838A8382E08093E90090
:104980008FEF9091E800815095FD06C095ED9A95C6
:10499000F1F700008111F5CF8091E80085FF0DC08F
:1049A00050E040E063E070E0CE0101960E94E22614
:1049B0008091E8008E778093E8000F900F900F9021
:1049C000DF91CF910895CF93DF93EC010E94C5262C
:1049D000823011F08430F9F482E08093E9008FEFA7
:1049E0009091E800815095FD06C095ED9A95F1F7FC
:1049F00000008111F5CF8091E80085FF0CC050E0E8
:104A000040E066E070E0CE010E94E2268091E8007E
:104A10008E778093E800DF91CF910895CF93DF9355
:104A2000EC010E94C526823011F0843039F581E016
:104A30008093E9008FEF9091E800815095FD06C0CA
:104A400095ED9A95F1F700008111F5CF8091E8007E
:104A500085FF14C050E040E068E070E0CE010E94A5
:104A6000E2268091E8008E778093E80088E0FE01DE
:104A7000A9E2B2E001900D928A95E1F7DF91CF9122
:104A8000089580915D02811109C00E9472280E94E0
:104A9000CF288091E20084608093E2000895109214
:104AA0005D020895089508950C94451F42E061EC5D
:104AB00081E00E94F02742E261EC82E00C94F02752
:104AC00080916002833009F462C030F48130D9F102
:104AD000823009F49EC008958A3009F48AC08B3070
:104AE00009F470C0893009F051C080915F028132B1
:104AF00009F04CC08091630290916402029708F023
:104B000045C08091E800877F8093E8008091E800AD
:104B100082FF38C08091F3009091F2008927982796
:104B20008927029729F48091F1008B7F813021F44D
:104B30008091F100809331028091E8008B7780931F
:104B4000E8000C94242880915F02813AF9F4809166
:104B5000E800877F8093E80080916302909164026F
:104B6000892B61F468E089E292E070E00E943127CD
:104B70008091E8008B778093E800089560E090E0F2
:104B800080E0F3CF80915E028111C0CF08958091C3
:104B90005F02813AD9F78091630290916402892B78
:104BA000A9F78091E800877F8093E8008091E80072
:104BB00080FFFCCF809123018093F1008091E80079
:104BC0008E77BDCF80915F02813201F780916302C1
:104BD00090916402892BD1F68091E800877F8093C1
:104BE000E8000E94242880916102809323010C94A4
:104BF000791780915F02813249F68091E800877FC2
:104C00008093E8000E9424288091620280933202FF
:104C1000089580915F02813A09F0B8CF8091E80051
:104C2000877F8093E8008091E80080FFFCCF80912F
:104C30003202C2CF84B7877F84BF0FB6F894A8959D
:104C400080916000886180936000109260000FBEC8
:104C500080E880936100109261000E941B120E9404
:104C600072280E94CF288091E20084608093E20045
:104C700078940E94582B0E94231289E191E00E94AF
:104C8000B71180915E02853029F00E942F120E9498
:104C90003210F7CF0E94E81E80915C02882389F3CE
:104CA0000E942D1F882369F30E94CC26EACF0C9422
:104CB0005926292F33272330310571F158F421303B
:104CC0003105E9F02230310511F190E080E030E06B
:104CD00020E019C021323105C1F122323105A9F796
:104CE00080E490E023E136E06115710561F085E82C
:104CF00090E02EE835E06130710529F0E6CF82E1E1
:104D000090E02CE735E0FA013183208308958BE3AE
:104D100090E021E435E0F7CF99278130910579F0D3
:104D200040F08230910571F0039779F6E5E0F5E007
:104D300002C0EDE3F5E0849190E09F01E4CFEBE267
:104D4000F5E0F9CFEBE0F5E0F6CF89E090E023E580
:104D500035E061157105B9F289E090E02CE635E0A7
:104D60006130710581F2B1CF0895CF93C82F0E94B1
:104D7000B426C0933302CF91089580915E028430AF
:104D800011F081E0089582E008958091330281114D
:104D900002C00C94BD26089580E189BD82E189BDE1
:104DA00009B400FEFDCF8091D8008F7D8093D8009C
:104DB0008091E00082608093E0008091E00081FDBE
:104DC000FCCF0895AF92BF92CF92DF92FF920F93E4
:104DD0001F93CF93DF936C01EB018A010E9443285C
:104DE000F82E811123C00115110539F0F8018081D9
:104DF0009181C81BD90BC80ED91EB12CA12C2097AC
:104E0000A9F08091E80085FD22C08091E8008E77AE
:104E10008093E80001151105A1F0F80180819181CE
:104E2000A80EB91EB182A08285E0F82E8F2DDF91E9
:104E3000CF911F910F91FF90DF90CF90BF90AF90D7
:104E400008950E9443288823D1F2F82EEFCFF6016F
:104E500081916F018093F1002197FFEFAF1ABF0A94
:104E6000CECFFC018091650290916602861797076C
:104E7000A0F06115710529F49091E8009E77909358
:104E8000E80090E06115710551F4911108C080911E
:104E9000E80082FF35C080E00895BC01F2CF809128
:104EA0005E028823C9F18530C9F18091E80083FD55
:104EB00031C08091E80082FDEACF8091E80080FF58
:104EC000E1CF2091F3008091F200322F282F61155D
:104ED000710519F02830310558F091E0283031057E
:104EE00009F090E02091E8002E772093E800CACFE7
:104EF00081918093F100615071092F5F3F4FE7CF9F
:104F000080915E02882341F0853041F08091E80075
:104F100083FFBDCF81E0089582E0089583E0089586
:104F2000FC01809165029091660286179707A0F0B8
:104F30006115710529F48091E8008E778093E8006F
:104F400090E06115710551F4911108C08091E8005D
:104F500082FF36C080E00895BC01F2CF80915E02EE
:104F60008823D1F18530D1F18091E80083FD32C0F2
:104F70008091E80082FDEACF8091E80080FFE1CFD8
:104F80002091F3008091F200322F282F61157105D6
:104F900019F02830310558F091E02830310509F03A
:104FA00090E08091E8008E778093E800CACF8491EA
:104FB0008093F1003196615071092F5F3F4FE6CF2A
:104FC00080915E02882341F0853041F08091E800B5
:104FD00083FFBCCF81E0089582E0089583E00895C7
:104FE000982F973028F08F708093E90081E0089522
:104FF0009093E900242F762F50E0981731F07091AC
:10500000EC002091ED005091F00021FD02C09F5F67
:10501000E8CF3091EB003E7F3093EB003091ED0014
:105020003D7F3093ED003091EB0031603093EB0029
:105030007093EC002093ED005093F0002091EE006F
:1050400027FDE5CF80E0089580915F0287FF13C0C0
:105050008091E80082FF06C08091E8008B77809302
:10506000E80004C080915E028111F2CF0895809122
:105070005E028823D9F38091E80080FFF8CF809109
:10508000E8008E77ECCF2091E4003091E50085E6D2
:105090009091EC0090FF06C09091E80090FF06C050
:1050A00080E008959091E80092FDFACF90915E0221
:1050B000992391F0953091F09091EB0095FD10C0FF
:1050C0004091E4005091E5002417350709F3815021
:1050D0009A01F1F684E0089582E0089583E008954E
:1050E00081E008950E94E0280E94E828E0EEF0E0C8
:1050F000808181608083E8EDF0E080818F7780831C
:1051000019BCA7EDB0E08C918E7F8C9380818F7E4F
:10511000808310925D0208950F931F93CF93DF93C6
:105120000E94E0280E94E828C8EDD0E088818F77AF
:10513000888388818068888388818F7D888319BC73
:1051400010925E0210925A0210925C0210925B0260
:1051500000EE10E0F80180818B7F80838881816080
:10516000888342E060E080E00E94F027E1EEF0E01A
:1051700080818E7F8083E2EEF0E080818160808399
:10518000808188608083F80180818E7F8083888120
:1051900080618883DF91CF911F910F910895E8ED91
:1051A000F0E080818F7E8083E7EDF0E08081816098
:1051B000808384E082BF81E080935D020C948C2820
:1051C000E8EDF0E080818E7F80831092E200089508
:1051D0001092DA001092E10008951F920F920FB61C
:1051E0000F9211242F933F934F935F936F937F936D
:1051F0008F939F93AF93BF93EF93FF938091E100C1
:1052000082FF0BC08091E20082FF07C08091E10025
:105210008B7F8093E1000E94572B8091DA0080FF02
:1052200019C08091D80080FF15C08091DA008E7F70
:105230008093DA008091D90080FF94C080E189BD1D
:1052400082E189BD09B400FEFDCF81E080935E025A
:105250000E9441258091E10080FF19C08091E20009
:1052600080FF15C08091E2008E7F8093E2008091E4
:10527000E20080618093E2008091D8008062809398
:10528000D80019BC85E080935E020E94532580916E
:10529000E10084FF29C08091E20084FF25C080E105
:1052A00089BD82E189BD09B400FEFDCF8091D8009F
:1052B0008F7D8093D8008091E1008F7E8093E10004
:1052C0008091E2008F7E8093E2008091E200816015
:1052D0008093E20080915A02882309F449C084E057
:1052E00080935E020E9454258091E10083FF29C0D3
:1052F0008091E20083FF25C08091E100877F809349
:10530000E10082E080935E0210925A028091E100F7
:105310008E7F8093E1008091E2008E7F8093E20097
:105320008091E20080618093E20042E060E080E0F2
:105330000E94F0278091F00088608093F0000E9426
:105340005225FF91EF91BF91AF919F918F917F91E6
:105350006F915F914F913F912F910F900FBE0F90E2
:105360001F90189519BC10925E020E944F2572CFB3
:105370008091E30087FD02C081E0B2CF83E0B0CF2F
:105380001F920F920FB60F9211242F933F934F93BA
:105390005F936F937F938F939F93AF93BF93CF93BD
:1053A000EF93FF93C091E900CF708091EC001092D1
:1053B000E9008091F000877F8093F00078940E944C
:1053C000FC291092E9008091F00088608093F00041
:1053D000C093E900FF91EF91CF91BF91AF919F9161
:1053E0008F917F916F915F914F913F912F910F908E
:1053F0000FBE0F901F9018951F93CF93DF93CDB7DB
:10540000DEB7AA970FB6F894DEBF0FBECDBFEFE5AB
:10541000F2E08091F100819322E0E736F207C9F7CC
:105420000E9460258091E80083FF44C080915F0264
:10543000909160029A3008F03DC0E92FF0E0ED5DF8
:10544000F54D0C94CE2B2D2A532A5A2A532A5A2A28
:10545000B12AD32A5A2A2A2B372B803889F082384E
:1054600049F5809163028F70873020F58093E900C1
:105470008091EB0085FB882780F91092E90006C037
:1054800080915B0290915C02911182609091E800A2
:10549000977F9093E8008093F1001092F100809143
:1054A000E8008E772DC0282F2D7F21F48823D1F09E
:1054B000823059F18091E80083FF0AC08091E800B2
:1054C000877F8093E8008091EB0080628093EB00FF
:1054D000AA960FB6F894DEBF0FBECDBFDF91CF9175
:1054E0001F91089580916102813021F7933009F076
:1054F00080E080935C021092E9008091E800877F51
:105500008093E8000E942428D5CF80916102811108
:10551000F2CF809163028F702FEF280F263050F664
:105520008093E9002091EB0020FFE5CF933031F428
:105530008091EB0080628093EB00DDCF9091EB00D7
:1055400090619093EB0021E030E001C0220F8A953A
:10555000EAF72093EA001092EA008091EB0088605D
:10556000EACF8111A7CF109161021F778091E300EC
:105570008078812B8093E3008091E800877F80937F
:10558000E8000E9424288091E80080FFFCCF8091F1
:10559000E30080688093E30083E0111101C082E0A2
:1055A00080935E0287CF8058823008F083CF80914D
:1055B0006102909162028C3D23E09207A1F583E0A5
:1055C0008A838AE289834FB7F894DE01139620E03C
:1055D0003EE051E2E32FF0E050935700E49120FFCA
:1055E00003C0E295EF703F5FEF708E2F90E0EA30DE
:1055F000C0F0C7968D939D932F5F243159F74FBF0D
:105600008091E800877F8093E8006AE270E0CE0135
:1056100001960E9431278091E8008B778093E80003
:1056200049CFC096E7CF6091630270916402AE01EA
:105630004F5F5F4F0E945726BC01892B09F43ACF78
:105640009091E800977F9093E80089819A810E9469
:105650009027E1CF803809F02DCF8091E800877F37
:105660008093E80080915A028093F10018CF811155
:1056700021CF90916102923008F01CCF8091E80018
:10568000877F8093E80090935A020E94242880919B
:105690005A02882331F084E080935E020E945625EE
:1056A00009CF8091E30087FDF6CF81E0F5CF089523
:1056B000CF9380915E02882399F0C091E900CF706A
:1056C0008091EC0080FD0EC080E0C82B1092E900B4
:1056D0008091E80083FD0E94FC29CF70C093E9000F
:1056E000CF91089580E8F1CFDB018F939F930E94C3
:1056F000E32BBF91AF91A29F800D911DA39F900DB1
:10570000B29F900D11240895AA1BBB1B51E107C045
:10571000AA1FBB1FA617B70710F0A61BB70B881F41
:10572000991F5A95A9F780959095BC01CD010895D0
:1057300097FB072E16F4009407D077FD09D00E943E
:10574000842B07FC05D03EF4909581959F4F0895DA
:10575000709561957F4F0895A1E21A2EAA1BBB1B7D
:10576000FD010DC0AA1FBB1FEE1FFF1FA217B3072D
:10577000E407F50720F0A21BB30BE40BF50B661F43
:10578000771F881F991F1A9469F760957095809507
:1057900090959B01AC01BD01CF010895EE0FFF1F55
:1057A0000590F491E02D0994A29FB001B39FC00130
:1057B000A39F700D811D1124911DB29F700D811D3D
:1057C0001124911D08950E94D42BA59F900DB49F84
:1057D000900DA49F800D911D11240895FC0141504E
:1057E000504030F001900616D1F73197CF0108955F
:1057F000882799270895F999FECF92BD81BDF89A1F
:10580000992780B50895A6E1B0E044E050E00C94FB
:10581000352CA8E1B0E042E050E00C94352C262F66
:10582000F999FECF92BD81BDF89A019700B4021696
:1058300039F01FBA20BD0FB6F894FA9AF99A0FBE44
:1058400008950396272F0E94102C0E940F2C252FBD
:105850000E94102C242F0C94102C0196272F0E94AC
:10586000102C0C940F2CDC01CB01FC01F999FECF1C
:1058700006C0F2BDE1BDF89A319600B40D924150D8
:0A5880005040B8F70895F894FFCFE8
:10588A0006010208080801191A1B1C1D1E1F2021E7
:10589A002210022808140A321E6F240E25E324ADB2
:1058AA0024722401F5F4F1F030F6F76766363534E0
:1058BA00979694929190939500010202020206062D
:1058CA00060909090909090F0F0F0F0F0F151515F9
:0E58DA00181919191919191919191923240067
:00000001FF
