:100000000C941C030C9463030C9463030C9463031F
:100010000C9463030C9463030C9463030C946303C8
:100020000C9463030C9463030C94DC260C94B027AB
:100030000C944C1F0C9463030C9463030C946303A3
:100040000C9463030C9463030C9463030C94630398
:100050000C9487100C94971F0C9463030C94630307
:100060000C9463030C9463030C9463030C94630378
:100070000C9463030C9463030C9463030C94630368
:100080000C9463030C9463030C9463030C94630358
:100090000C9463030C9463030C9463030C94630348
:1000A0000C9463030C9463030C94630335001E00EB
:1000B0001F00200021002200240025002600270028
:1000C0002D002E0000002A00A9002B0014001A00A9
:1000D0000800150017001C0018000C001200130087
:1000E0002F0030003100AA0029610400160007002B
:1000F00009000A000B000D000E000F00334234000F
:10010000280000000151E1001D001B00060019003D
:100110000500050011001000360037003800E5002A
:1001200052000000E0000000E30023002C00E20089
:100130002C0000000000E700E400500051004F00D8
:100140000000005C3A003B003C003D003E004000E7
:100150004100420043004400450000004C006A009A
:100160000100010001000100010001000100010087
:10017000010001000100010001004C0069000100C4
:100180000100C75C010001000100C55C0100010025
:100190000100010001000100000001003900010020
:1001A00001000100C95C0100010001000100010023
:1001B0000100010001000100000001000000C25C1C
:1001C0003F00AE00C35CAE00000000000100010073
:1001D000AC00A800AB00000001000100010001001C
:1001E0004D0001000100010001004A000100010072
:1001F00000000100010001000100010001000100F8
:10020000010001004B00010001000100010001009C
:10021000010001000100010001004E004E0001003C
:100220005000510052004F00010001000100000089
:100230000100010001004C00010001004B004B00D7
:1002400001000100010001000100010001000000A7
:100250000100000001000100010001000100000098
:10026000000001000100010001000100000032193E
:100270000A00047F3F1F643214643214783C1E1E4F
:10028000140A052223252628292A2C2D2F30323323
:100290003536383A3B3D3E4042434547494A4C4E4D
:1002A0005051535557595A5C5E6062646668696B79
:1002B0006D6F71737577797B7D7F81838587898A7F
:1002C0008C8E90929496989A9C9E9FA1A3A5A7A885
:1002D000AAACAEAFB1B3B4B6B8B9BBBCBEBFC1C2B5
:1002E000C3C5C6C7C9CACBCCCDCED0D1D2D2D3D448
:1002F000D5D6D7D7D8D9D9DADADBDBDBDCDCDCDC66
:10030000DCDDDDDDDDDCDCDCDCDCDBDBDBDADAD933
:10031000D9D8D7D7D6D5D4D3D2D2D1D0CECDCCCBB5
:10032000CAC9C7C6C5C3C2C1BFBEBCBBB9B8B6B4D3
:10033000B3B1AFAEACAAA8A7A5A3A19F9E9C9A9863
:10034000969492908E8C8A89878583817F7D7B7934
:10035000777573716F6D6B6968666462605E5C5A15
:100360005957555351504E4C4A4947454342403ED8
:100370003D3B3A3836353332302F2D2C2A2928266A
:10038000252322FFAA7F5540000000000000000046
:1003900000000001010203040506080A0C0F1114F5
:1003A000181C2024292E33393F464C535B626A7156
:1003B00079818A929AA2AAB2B9C1C8CFD5DCE1E705
:1003C000EBF0F4F7FAFCFDFEFFFEFDFCFAF7F4F0AB
:1003D000EBE7E1DCD5CFC8C1B9B2AAA29A928A8173
:1003E00079716A625B534C463F39332E2924201CB5
:1003F0001814110F0C0A080605040302010100007D
:1004000000000000000000000001010101010101E5
:1004100001010202020202020202020303030303B9
:100420000303030404040404040405050505050688
:100430000606060607070707070808080809090946
:10044000090A0A0A0B0B0B0C0C0C0D0D0D0E0E0EEF
:100450000F0F0F1010111111121213131414151580
:1004600016161717181819191A1A1B1B1C1D1D1EF2
:100470001E1F202021222223242425262627282946
:10048000292A2B2C2D2D2E2F303132323334353674
:100490003738393A3B3C3D3E3F4041424344454674
:1004A0004748494A4C4D4E4F505153545556585950
:1004B0005A5B5D5E5F616264656668696B6C6D6FF7
:1004C0007072737577787A7B7D7E8082838587886A
:1004D0008A8C8E8F91939596989A9C9EA0A2A3A5A4
:1004E000A7A9ABADAFB1B3B5B7BABCBEC0C2C4C6A5
:1004F000C9CBCDCFD1D4D6D8DBDDDFE2E4E7E9EB61
:10050000EEF0F3F5F8FAFDFF0403300000000E03EF
:10051000500068007900730069005800000006036D
:100520004C005A0000000403090409023B000201C8
:1005300000A0FA09040000010301010009211101D2
:1005400000012240000705810308000A0904010098
:1005500001030000000921110100012281000705AB
:10056000820320000A1201100100000008D8048153
:10057000EC01000102030105010902A10185020944
:1005800001A1000509190129051500250195057529
:1005900001810295017503810105010930093115B9
:1005A00081257F95027508810609381581257F957B
:1005B0000175088106050C0A38021581257F950111
:1005C00075088106C0C005010980A10185031901D4
:1005D0002AB700150126B700950175108100C005E6
:1005E0000C0901A101850419012AA002150126A008
:1005F00002950175108100C005010906A1010507DA
:1006000019E029E71500250195087501810295017A
:10061000750881010507190029FF150026FF0095BF
:1006200006750881000508190129059505750191D0
:1006300002950175039101C011241FBECFEFDAE0CE
:10064000DEBFCDBF04B603FE27C080918D0390911D
:100650008E03A0918F03B09190038730904BA740F9
:10066000B04BD1F410928D0310928E0310928F0331
:100670001092900314BE84B7877F84BF0FB6F8949E
:10068000A89580916000886180936000109260005E
:100690000FBEE0E0F8E3099511E0A0E0B1E0ECE383
:1006A000F6E502C005900D92AE3CB107D9F723E004
:1006B000AEECB1E001C01D92AD38B207E1F70E9487
:1006C0001C240C94DD2A0C940000539A559A0C9427
:1006D0002606CF93C82F0E94DC03882331F0C1FF88
:1006E00006C05B9AC2FF05C05D9ACF9108955B98E2
:1006F000F9CF5D98FACF81E0089581E008950C94D8
:100700007D0308950C9481031F93CF93DF9300D052
:1007100000D00F92CDB7DEB749835A836B833091F7
:10072000770289819A8131111DC06623B9F0222395
:10073000A9F00E949B1C182F682F89819A810E9422
:10074000471C69817A81812F0F900F900F900F9035
:100750000F90DF91CF911F910C943E040E94731C67
:10076000182FEFCF0E949B1C69817A81EDCFFC018D
:10077000262F408151816281738184810C9484038E
:10078000CF93DF93EC0160E00E94B703BE01DF91DD
:10079000CF910C9482030E94E11F0E94D81D811109
:1007A00002C00E947E1E0E94F6100C9465030C94F9
:1007B000280608950C94D90381E00895CF93C82F9B
:1007C0000E94DA038C2FCF910C94690308950E9444
:1007D00026180E94E6032FEF84E39CE0215080401E
:1007E0009040E1F700C000000C94BB1F0F931F93D3
:1007F000CF93DF93EC0161E00E94B7038C01BE014F
:100800000E947F03882389F1BE01C8010E94DF0F87
:10081000882359F1BE01C8010E94C311882329F120
:10082000BE01C8010E9415128823F9F0BE01C8015B
:100830000E9438138823C9F0BE01C8010E94790EB6
:10084000882399F08A81882339F001158CE51807EF
:1008500051F00E3D1C4579F0CE01DF91CF911F91F3
:100860000F910C947B030E94E70380E0DF91CF910E
:100870001F910F9108950E947E1EF7CF972F70E071
:100880002FE0929F600D711D1124FB019BE4899F55
:10089000E00DF11D1124EE0FFF1FE455FF4F859170
:1008A00094910895CF93DF930E943E040E944C05DB
:1008B000EC01811521E5920708F042C0811530E571
:1008C000930708F09DC0883E910530F5803E910564
:1008D00008F092C0883A910588F4853A910508F0AD
:1008E00084C08130910509F487C0009709F484C061
:1008F000049708F081C0D0E0C0E07EC08F3B910536
:10090000D0F7C85AD0E0CC0FDD1FC35DDE4F099091
:10091000D881C02DD46470C08115904250F4C115A7
:1009200081E0D80708F068C0C03FD10520F3D0654A
:1009300063C0C11590E4D907F0F2DF70D06A5CC0E3
:10094000811525E5920700F5811534E5930708F038
:100950008BC0811543E5940708F073C0C11582E58B
:10096000D80708F469C0CE018370992721E030E0F0
:1009700002C0220F331F8A95E2F7C695C69580E222
:10098000C89FE001112454C0C11599E5D907A8F406
:10099000C11528E5D20708F06CC0C11536E5D307AC
:1009A00008F0A9CF8C2F0E94E305C82FD0E0DC2FE0
:1009B000CC27CC27DF71D0621FC0C1154AE5D40710
:1009C00008F45CC0CE0190568115904208F093CF98
:1009D0008D2F8F710E94E30590E0982F882788273C
:1009E0009F719C012C2BE901E6CFC55AD0E0C55A76
:1009F000DE4FC881D0E0D064CE01DF91CF91089561
:100A0000E4E096958795EA95E1F783702C2F26957B
:100A10002695237040E2249F90011124382B8C2FBF
:100A20008370C1E0D0E002C0CC0FDD1F8A95E2F7F1
:100A3000C22BD32BDC68E0CFDC2FCC27C16FD06A70
:100A4000DBCF8370992721E030E002C0220F331FF3
:100A50008A95E2F7C695C69590E2C99FE0011124F8
:100A6000C22BD32BDA68C8CFD82FCC27C46FD06A5B
:100A7000C3CFDC2FCC27C06FD06ABECF8C2F8F7036
:100A80000E94E30534E0D695C7953A95E1F7CF701B
:100A90009C2FEC01D069B0CF82389105B1F1B0F450
:100AA0008133910509F475C048F48932910509F440
:100AB00069C08A32910509F473C0089585339105A0
:100AC00009F459C08933910501F10895833E9105D8
:100AD000A9F138F4803E9105F9F0823E910549F183
:100AE0000895863E9105A9F1873E9105C9F1843E9E
:100AF000910519F520917F0321FF1FC080917E038E
:100B000084FD14C087EE90E0089520917E03237049
:100B1000A1F080EE90E0089520917E0320FD47C073
:100B200030917F0330FF09C024FF44C090E080E093
:100B300004C020917E0322FDF7CF089520917E030B
:100B400022FD3BC030917F0330FDE3CF24FFF5CF82
:100B5000EDCF20917E0323FFF0CF24FDE7CFD2CF4E
:100B600020917E0323FD2CC030917F0331FFEECF17
:100B700084EE90E0089520917E0325FFDECF89E288
:100B800090E0089520917E0325FFD7CF85E390E084
:100B9000089520917E0326FFD0CF8AE290E0089549
:100BA00020917E0326FFC9CF81E390E0089589E379
:100BB00090E0089583EE90E0089582EE90E008952D
:100BC00086EE90E0089590917E0392FF06C0282F54
:100BD00028712830F9F4877F846093FF06C0282F9E
:100BE00028712831F1F4877E846120917F0320FFF2
:100BF00006C0382F38713830D9F4877F816021FFE3
:100C000006C0282F28712831D1F4877E816194FD98
:100C1000877E0895282F24712430F9F68B7F886011
:100C2000DCCF282F2471243101F78B7E8861DDCF42
:100C3000382F3171313019F78E7F8860E0CF282F3F
:100C40002171213121F78E7E8861E1CF08950895C9
:100C50000C942706E82FF0E0EE0FFF1FE45EFC4F38
:100C6000808191810895089580EA8A95F1F7089529
:100C7000CF93DF93ADE6B1E042E751E0C1E0D0E0D1
:100C80008D91E82FE295EF70F0E061A18F709E01E9
:100C900001C0220F8A95EAF7922F9095962391A38F
:100CA00082A1822B82A34A175B0751F7AEE5B1E020
:100CB00061E070E08D91E82FE295EF70F0E041A1E6
:100CC0008F709B0101C0220F8A95EAF7922F9095B1
:100CD000942391A382A1822B82A381E0AD36B80731
:100CE00049F7109213031092120310921D031092F1
:100CF0001C03109215031092140310921F031092FC
:100D00001E031092170310921603109221031092E3
:100D100020031092190310921803109223031092CB
:100D2000220310921B0310921A03109225031092B3
:100D3000240385E00E942707DF91CF910C94CB0319
:100D40008F929F92AF92BF92CF92DF92EF92FF92DB
:100D50000F931F93CF93DF938DE6E82E81E0F82E5B
:100D600002E113E0912CAA24A394B12CF701819104
:100D70007F01C82FC295CF70D0E099A18F70650117
:100D800001C0CC0C8A95EAF7892F8C2989A38AA106
:100D90008C2C809488218AA30E943406EEE5F1E031
:100DA00050E040E030E020E06191A62FA295AF70C6
:100DB000B0E090968C9190E06F7002C09595879509
:100DC0006A95E2F780FD3EC0C501042E02C0880F7F
:100DD000991F0A94E2F7282B392B4F5F5F4F4F3052
:100DE000510511F789A1882289A28AA1C82ACAA21D
:100DF000F801808191812817390739F131832083E7
:100E000081E0982A0E5F1F4FF2E7EF16F1E0FF0630
:100E100009F0ACCF292D45E06CE173E082E193E06D
:100E20000E9428070E94D703892DDF91CF911F913F
:100E30000F91FF90EF90DF90CF90BF90AF909F9079
:100E40008F90089590E080E0C6CF80E0DACF0895DB
:100E5000FF920F931F93CF93DF93F82E092F162F36
:100E6000D72FC42F222349F081E08093D0010E9424
:100E70007C1F9093CF018093CE018091D001882375
:100E8000A1F08091CE019091CF010E94881F06971A
:100E900060F0EF2DF02FA12FBD2F90E080E0D0E08B
:100EA0008C179D0744F01092D001DF91CF911F91D4
:100EB0000F91FF900895219131912D933D930196CB
:100EC000EFCFEF92FF920F931F93CF93DF93EB013E
:100ED000E82FD11110C0442321F0F0E0E85FFB4F70
:100EE000E4916E2F7E2F8E2FDF91CF911F910F9166
:100EF000FF90EF9008950D2F10E0282F30E044234D
:100F000029F0285F3B4FF901249130E0F6E0CF9FB4
:100F1000C0011124EFEFF0E0BF010E948C29AB016A
:100F20008C2F90E0880F991FA5E5A49FB001A59F85
:100F3000700D1124861B970B982F990F980FBF01E6
:100F4000601B710B629FD001639FB00D729FB00D4B
:100F500011248B2F9D9FB0011124672F7727EF015C
:100F6000C61BD70BBE01629FE001639FD00D729F2D
:100F7000D00D11247F01E91AF108E09EB001E19E35
:100F8000700DF09E700D1124672F7727E61BF70B6D
:100F9000E29F8001E39F100DF29F100D1124E12FBD
:100FA000722F4230510599F048F44115510569F00E
:100FB0004130510581F0EB2F8D2F07C04430510592
:100FC00069F080F046305105B1F76E2F8DCFE22FDA
:100FD0007B2F812FFACFE22F7D2FF7CFEB2F822FA0
:100FE000712FF3CF7B2F822FED2FEFCF41E00C94A9
:100FF00061070895CF93DF93762FE901682F842F3F
:101000000E94F607798368838A83DF91CF910895E0
:1010100080912603982F9E7F29F4817082608093AF
:10102000260308958635E8F381708465F8CF88E05B
:1010300090E00C947E2ACF92DF92EF92FF926B01A8
:101040007C010E940808B701A60188E090E0FF90AB
:10105000EF90DF90CF900C949C2AE6E2F3E083E0DF
:10106000808311828FEF82838383148260817181F8
:10107000828193810C941B088091260380FF02C01B
:101080008695089580E0089590912A03933018F48E
:101090009F5F90932A03882351F0609126037091FB
:1010A000270380912803909129030C941B0808952D
:1010B00081E00C94440890912A03992319F09150EF
:1010C00090932A03882351F060912603709127039F
:1010D00080912803909129030C941B08089581E0C6
:1010E0000C945B0870E00C940C11609108018091E5
:1010F000260380FF0AC08091070123E0829FC00180
:101100001124855D9C4F0C94720880910901909187
:101110000A0123E0829FF0011124E55DFC4F89174D
:1011200050F71182108212828F5F3396F8CF909120
:10113000260390FF14C09091090120910A0133E029
:10114000939FF0011124E55DFC4F921710F00C9471
:1011500075088183608342839F5F3396F6CF08953D
:10116000CF93DF9300D00F92CDB7DEB790912603D7
:1011700090FF0AC09E012F5F3F4F0E94FA074B81EC
:1011800069818A810E9497080F900F900F90DF91DC
:10119000CF910895CF93DF93EC01EC81F0E0ED5710
:1011A000FD4F4491E6E2F3E0628181810E94B00844
:1011B0008C818F5F8C83DF91CF910895CF93DF93E4
:1011C000EC01E6E2F3E0438162818C810E94B00889
:1011D0008C818F5F8C83DF91CF9108950F931F9344
:1011E000CF93DF9300D00F92CDB7DEB78C01809103
:1011F000D10181110AC09E012F5F3F4F4FEF6FEF6A
:101200000E94FA078A818093D101F80164816130DC
:1012100069F08091D10140E0662361F040E06230E6
:1012200011F44091D10180E060E004C06091D101EF
:1012300040E080E00E949708F801848190E00196E8
:1012400063E070E00E94A02984830F900F900F90BC
:10125000DF91CF911F910F910895AF92BF92CF92DE
:10126000DF92EF92FF920F931F93CF93DF9300D003
:101270000F92CDB7DEB7182FF62E042FE22E9091E5
:10128000260390FF29C0E92FE695AE2FB0E0AE58B7
:10129000BE4F8C9180935D029E7F923059F59E01E6
:1012A0002F5F3F4F812F0E94FA074B8169818A810E
:1012B0000E94970810932703F092280300932903B4
:1012C000EE2051F06091260370912703809128034E
:1012D000909129030E941B080F900F900F90DF91AF
:1012E000CF911F910F91FF90EF90DF90CF90BF9023
:1012F000AF900895823019F400912903DBCF863036
:1013000019F410912703D6CF8930D9F3893191F69A
:10131000E9518E2F8170D82EE695F0E0ED57FC4F05
:10132000A590B490C12CBB2460910B01C61618F097
:101330000E947508BFCF2C2D30E0A29EC001A39E55
:10134000900DB29E900D112470E00E948C29812F87
:10135000D11013C0860F40910901420F532F511D28
:101360009A01220F331F240F351F255D3C4F402F5C
:101370006F2D0E94FA07C394D7CF861BECCFE6E20D
:10138000F3E09181282F4381628188E0890F0C94DA
:101390002D0981E00C94BF09E6E2F3E09181282F4A
:1013A0004381628188EF890F0C942D0981E00C94B0
:1013B000CC09E6E2F3E0628128E0620F08F46FEF07
:1013C000282F438181810C942D0981E00C94D90947
:1013D000E6E2F3E0628128E0621B08F460E0282F77
:1013E000438181810C942D0981E00C94E809E6E2A7
:1013F000F3E0438128E0420F08F44FEF282F628189
:1014000081810C942D0981E00C94F709E6E2F3E068
:10141000438128E0421B08F440E0282F628181814B
:101420000C942D0981E00C94060A20E00C942D09FF
:10143000EF92FF921F93CF93DF93EC0110E0EE2425
:10144000EA94F12C60910B01161770F00E94750858
:101450009A818C8190FF27C08F5F8C83DF91CF9121
:101460001F91FF90EF90089520910901422F410FA5
:101470005527551FCA019A01220F331F280F391F04
:10148000255D3C4F70E0C7010E94A029962F8C81FA
:101490004091290360912803199F800D11240E9417
:1014A000FA071F5FCFCF8150D8CFAF92BF92CF92B4
:1014B000DF92EF92FF920F931F93CF93DF93FC0184
:1014C00082810FEF80FF01E010E04AE1A42E8091BD
:1014D0000B011817C8F00E9475088091D3010130E4
:1014E00009F055C0811102C080910B018150809399
:1014F000D301DF91CF911F910F91FF90EF90DF907B
:10150000CF90BF90AF900895C0910901C12ED12C0A
:10151000CC0DDD2DD11DCE01880F991FC80FD91F0D
:10152000C55DDC4F198218821A8234E0E32EF12C5B
:10153000B12C8091D3018B0D8B311CF16A2D0E944F
:101540007E29892F082E000C990BC816D90691F414
:10155000809129038E9DA0018F9D500D11245595DA
:101560004795559547959E016091280380912703E3
:101570000E94FA07B00EF1E0EF1AF108D1F61F5FF2
:10158000A6CF87FFDFCF90910B01890FDBCF90E0D3
:10159000019660910B0170E00E94A029A8CF0F93E3
:1015A0001F93CF93DF938091090190910A0123E06B
:1015B000829FF0011124E55DFC4F891740F1C0E0E6
:1015C000D3E060910B01C61740F10E94750820918D
:1015D00005018091D201820F8093D2019091060182
:1015E000920F90930601191654F4082E000C990BD3
:1015F00040910B014150550B841795071CF0219524
:1016000020930501DF91CF911F910F9108951182D1
:10161000108212828F5F3396D0CF0C2F10E070E0D3
:10162000C8010E94A02920910901820F482F50E093
:101630002091D201022E000C330B02171307BCF0CD
:1016400020910601022E000C330B201731077CF08D
:101650008D9F90011124255D3C4F4091290360919D
:101660002803809127030E94FA07CF5FAACFFA01CF
:10167000EE0FFF1FE40FF51FE55DFC4F1182108296
:101680001282F3CF8F929F92AF92BF92CF92DF924E
:10169000EF92FF920F931F93CF93DF93EC014C8156
:1016A000042F10E09801D8010E94E4299B01AC01AD
:1016B0000E94FA294B015C01E0E2F0E0E01BF10B33
:1016C000A5E5B0E0AC019B010E94FA296B017C0109
:1016D0009F01DF010E94DC299B01AC010E94052AC9
:1016E0009B01AC01280D391D4A1D5B1DC701B601C8
:1016F0000E94B429F22E822F90E039E23F1560F16A
:1017000043E0249F9001112435952795122F1095C1
:1017100000E085E5E82EEF1880910B01081758F1DD
:101720000E9475089C8181E0992319F0903219F488
:101730008FEF8093040180910401890F8C83DF91E6
:10174000CF911F910F91FF90EF90DF90CF90BF90BE
:10175000AF909F908F90089525E530E0B901681B08
:10176000790B9B01220F331F260F371F37FFCCCF7A
:101770002F5F3F4FC9CF8E2D01FD8F2D2091090185
:10178000622F600F7727771F9B01220F331F260FD1
:10179000371F255D3C4F412F609128030E94FA07B7
:1017A0000F5FBACF0F931F93CF93DF93EC0110E03D
:1017B00000E090910B019017110609F06CF40E9463
:1017C00075088C8190E00196817099278C83DF9158
:1017D000CF911F910F91089520910901A801420F07
:1017E000511D9A01220F331F240F351F255D3C4FD9
:1017F0004C816091280380912703969590171106DC
:1018000051F04CF0442349F0409129030E94FA071B
:101810000F5F1F4FCECF4423B9F340E0F7CF8F9235
:101820009F92AF92BF92CF92DF92EF92FF920F936F
:101830001F93CF93DF93FC01B280948081E0848377
:1018400000E015E05BE4A52E88248394EE24EA945E
:10185000F12C7BE4C72ED12C80910B01081770F07E
:10186000DF91CF911F910F91FF90EF90DF90CF907C
:10187000BF90AF909F908F900C947508C02FD0E0D0
:101880001C9FF0011D9FF00D1124EC52FE4F911092
:101890001CC01382128220910901CE01820F911D7A
:1018A0009C01220F331F280F391F255D3C4F1C9FC1
:1018B000F0011D9FF00D1124EC52FE4F4281618119
:1018C00080810E94FA070F5FC7CF2381222379F11D
:1018D0002150238334818A2D821B311101C0822F34
:1018E0001C9FF0011D9FF00D1124EC52FE4F9091B2
:1018F0002903899FC0011124B6010E948C296283AB
:10190000211104C0332311F01482A38222E02B158D
:1019100010F21C9FF0011D9FF00D1124EC52FE4FA0
:10192000809127038083809128038183B4CF0E9414
:10193000592A823091400CF0AECF82E08B1530F501
:101940000E94592AB7010E94A0291C9FF0011D9FE7
:10195000F00D1124EC52FE4F808322E02B15C8F4C9
:101960000E94592A209128032695622F70E00E9438
:10197000A029280F1C9FF0011D9FF00D1124EC528F
:10198000FE4F21831282A382848285CF8091270318
:10199000DCCF20912803EECFE6E2F3E080818E7F5A
:1019A000808360817181828193810E941B081092E3
:1019B0005E022FEF80E792E0215080409040E1F7F7
:1019C00000C000000C947508E6E2F3E080818E7F91
:1019D000808310925E022FEF80E792E021508040DA
:1019E0009040E1F700C000000C9475086091260358
:1019F000669570E04BE050E08CE091E00E94692A2F
:101A0000892B19F481E080935E020E947C1F9093E1
:101A100057028093560208959091260390FF35C097
:101A20009170811128C0926090932603662351F033
:101A300060912603709127038091280390912903D8
:101A40000E941B0860912603669570E04BE050E011
:101A50008CE091E00E94692A892BA1F010925E022D
:101A600081E080935902409129036091280380917D
:101A700027030C94150A8B3210F09465D5CF880F8C
:101A8000982BD2CF0E94F60CEBCF0895682F90913F
:101A90002603969581E0890F8B3208F081E00C9443
:101AA0000C0D81E00C94460D682F909126039695BD
:101AB0008FEF890F09F48AE20C940C0D81E00C94ED
:101AC000540D61E00C940C0DE6E2F3E0808181603E
:101AD000808386950C94610D8091260380FD0C9483
:101AE000CC0C0C94640D60E00C940C0D80915C02A5
:101AF00081112EC00E94D81D811104C00E947E1E3B
:101B00000E942D080E9417086093260370932703F4
:101B100080932803909329036E7F61F40E942D081F
:101B20000E9417086093260370932703809328036D
:101B3000909329030E94080810925E028091260368
:101B400080FF03C086950E94730D81E080935C0244
:101B50000895E6E2F3E080818160808386950C94AD
:101B6000730D10925E0208950F931F93CF93DF932E
:101B700080915E02882309F49DC080915D02E0910E
:101B80002603E695E81BE09358028230C9F5F0E0A1
:101B9000E158FD4FE491CE2FD0E00AEC18E080919F
:101BA0005902882389F0109259020E947C1F9E01DD
:101BB00020953095820F931F909357028093560281
:101BC00010925B0210925A02809156029091570235
:101BD0000E94881F8C179D0708F46CC0E091560284
:101BE000F0915702CE0FDF1FD0935702C0935602D9
:101BF00086E592E0F801DF91CF911F910F91099452
:101C0000863049F4F0E0E458FD4FE491CE2FD0E067
:101C10000EED18E0C4CF893051F4E695F0E0E758B6
:101C2000FD4FE491CE2FD0E008E11AE0B8CF8F301D
:101C300051F4E695F0E0EA58FD4FE491CE2FD0E064
:101C400005E51AE0ACCF853149F4F0E0ED58FD4FE1
:101C5000E491CE2FD0E00FEC1AE0A1CFC8E2D0E0A3
:101C600002E41BE0883109F49ACF833239F4E1E7CA
:101C7000F2E0C591D4910EEE18E091CFC4EFD1E01F
:101C800002ED1BE0843209F48ACFC0EDD7E009EF02
:101C900017E0853209F083CF8E2F63E00E9472290E
:101CA000E92FF0E0E259FD4FE491CE2FD0E00FE0B4
:101CB0001CE075CFDF91CF911F910F910895FA012C
:101CC000811101C0FB010994CF93DF93C82FD62F58
:101CD0000E943C088C1740F00E943C088D1720F4AD
:101CE000DF91CF910C94510D8C2FDF91CF910C94FB
:101CF000610D0F931F93CF938C01FB01C281CC2305
:101D000009F465C00E94301D8272F801E25CFC4556
:101D1000E431F10538F4E152F54D0C94D6290E94D6
:101D20006C0DC0E08C2FCF911F910F9108954EE55F
:101D30005DE061E57DE00E945F0EF3CF41E55DE08F
:101D40006EE57DE0F8CF46ED59E069EC79E0F3CF40
:101D500049EC59E066ED79E0EECF44EF59E065EEED
:101D600079E0E9CF45EE59E064EF79E0E4CF42E174
:101D70005AE063E07AE0DFCF43E05AE062E17AE0E4
:101D8000DACF4FE658E068E578E0D5CF48E558E08F
:101D90006FE678E0D0CF81E00E94610DC2CF65E0B0
:101DA00082E00E94640EBDCF68E086E0FACF6EE06C
:101DB00089E0F7CF64E18FE0F4CF67E185E1F1CF0F
:101DC00088E1EACF62E289E1ECCF83E2E5CFC1E0CE
:101DD000A9CF8091790386958695869508958091FF
:101DE000790381FD07C08260809379030E940A1EF7
:101DF0000C94721008958091790381FF07C08D7F44
:101E0000809379030E940A1E0C947E10089580919D
:101E1000790381FD0C94FB0E0C94EF0E80917903F5
:101E20008695817008958091170108950E94D81DAC
:101E3000811102C00E947E1E0E94061E80937903BB
:101E4000803220F0877088618093790390917903C4
:101E5000892F817090FF04C0892F8695869586957D
:101E60000C94481080917903982F969596959695A5
:101E7000933040F49F5F990F990F990F8770892BCA
:101E800080937903809179038160809379030E9424
:101E90000A1E809179038695869586950C94481044
:101EA00080917903982F987F79F0885080937903F7
:101EB000887F91E009F490E08091790390FB80F9AC
:101EC000809379030E940A1E8091790386958695F6
:101ED00086950C9448108091790380FD13C0816031
:101EE00080937903813019F489E08093790380919C
:101EF00079030E940A1E80917903869586958695BE
:101F00000C94481008958091790380FF08C08E7F5B
:101F1000809379030E940A1E80E00C944810089573
:101F20008091790380FD0C94830F0C946B0F90913A
:101F30007903892F8695869586958F5F8F71977027
:101F40008430D8F4880F880F880F892B8093790309
:101F500080917903887F91E009F490E08091790382
:101F600090FB80F9809379030E940A1E8091790387
:101F70008695869586950C94481090937903E8CFC2
:101F8000843008F083E0909179039770282F220F16
:101F9000220F220F922B90937903987F21E009F46E
:101FA00020E09091790320FB90F9909379030C94B1
:101FB00048100E94C00F809179030C940A1EFC0106
:101FC000DB0112968C918823F9F0EB5BFC45E7303E
:101FD000F105D8F4ED50F54D0C94D62983E00E941C
:101FE000D90F80E0089580E0FACF0E94500FF9CF1A
:101FF0000E94320FF6CF0E94900FF3CF0E94970FEE
:10200000F0CF0E94070FEDCF81E00895279A2F9817
:1020100008952F980895CF92DF92EF92FF928C3718
:1020200024E1920750F469E070E00E948C29CB0112
:10203000FF90EF90DF90CF900895B0E0A0E0BC015A
:10204000CD016A50774D8F4F9F4F982F872F762F56
:10205000662725EF38E241E050E00E94B42969018B
:102060007A01CA01B9010E9462299B01AC01C70132
:10207000B6010E946229672F782F892F9927611551
:10208000710521E08207910591F66FEF7FEFCFCFC9
:10209000CF93C82F8430F0F481111DC0809180004F
:1020A000877F809380000E9409102C2F30E0AFEFD3
:1020B000BFEF0E94E42923E030E040E050E00E94BE
:1020C000B429C9010E940B1090938D0080938C005D
:1020D000CF910895C3E08091800088608093800054
:1020E000E4CF08951092600210925F021092610294
:1020F000EFE6F0E08081816080830895EFE6F0E014
:1021000080818E7F80830E94E90E0C9448101F927C
:102110000F920FB60F9211242F933F934F935F931B
:102120006F937F938F939F93AF93BF93CF93EF93CF
:10213000FF930E94130F40915F02509160024F5F26
:102140005F4F94EF899F90011124CA01B9010E9449
:102150008C299093600280935F02B901660F672F0C
:10216000661F770B71950E948C296F7780916102B1
:10217000823041F4603451F480916F008E7F8093FF
:102180006F0004C0813011F46F37B1F3E62FF0E037
:10219000E857FC4FC4910E94E90E282F41E051E01E
:1021A000C49FC001C59F900D112463E070E00E94A0
:1021B0008C29269FC001279F900D11240E940B108F
:1021C00090938D0080938C00FF91EF91CF91BF9100
:1021D000AF919F918F917F916F915F914F913F91BF
:1021E0002F910F900FBE0F901F9018950E94061010
:1021F0008AE08093800089E1809381008FEF9FEFD8
:1022000090938700809386000E94160F0E940E0F05
:1022100081110C94721008956E9A4EB14F7B5EB18D
:102220005064EFB7F8949B01220F331F260F371F1E
:10223000280F391F2817390741F4EFBF8FE594E0C5
:102240000197F1F700C000000895DC016D91CD0108
:1022500078E05EB9000000C067FF4EB9660F00006D
:1022600000C000C000C04EB900C07A9591F7E2CF1F
:10227000AF92BF92CF92DF92EF92FF920F931F9394
:10228000CF93DF937C015B01C42FD22FFC018281AD
:102290008823F9F0409364020E947C1F90936302AC
:1022A0008093620280E28C0F883008F061C0C770B2
:1022B00081E001C0880FCA95EAF7DF91CF911F91A5
:1022C0000F91FF90EF90DF90CF90BF90AF900C9464
:1022D000B71510916402141340C08091620290916E
:1022E00063020E94881F6C01B701C5010E949C1AFD
:1022F000C816D90690F5C0E2CD0F1D17B9F080E2DF
:10230000810F883040F4177081E001C0880F1A9562
:10231000EAF70E94BE15C83048F481E09D2F9770FF
:1023200001C0880F9A95EAF70E94B715802F0E9486
:10233000A415C830E8F4D77081E001C0880FDA95A1
:10234000EAF7DF91CF911F910F91FF90EF90DF900F
:10235000CF90BF90AF900C94BE1580E28C0F883068
:1023600038F4C77081E001C0880FCA95EAF7E9CF59
:10237000DF91CF911F910F91FF90EF90DF90CF9061
:10238000BF90AF9008950F939C01CB01233F4CE584
:10239000340759F1A8F4283DFCE53F0701F1293D38
:1023A0004CE53407D1F1273D3C4591F406E221EE9E
:1023B00041EE67ED7CE50E94381180E00F910895B1
:1023C000253FFCE53F07E9F0B0F0263F3C45F9F03A
:1023D000FC018281882339F110926402EFCF07E279
:1023E00025EE45EE68ED7CE5E6CF06E221EE40EE17
:1023F00063EF7CE5E0CF07E225EE44EE64EF7CE599
:10240000DACF06E221EE42EE65EF7CE5D4CF07E2BB
:1024100025EE46EE66EF7CE5CECF08E221E045EE04
:1024200069ED7CE5C8CF81E0C9CFCF93DF93EC01A4
:10243000FB018281882309F419C1C230FCE5DF0762
:10244000C0F1C6319CE5D90730F09E012A5F3C45BA
:102450002930310570F50E94EB1D90937F03809326
:102460007E03C031ECE5DE0709F4CFC008F05BC0A5
:10247000C8308CE5D80709F4B6C088F5C430ECE55F
:10248000DE0709F4A8C0C0F4C2308CE5D80709F40F
:102490009CC080917E038260C330DC4509F498C003
:1024A00080917E0390917F030E94F91D0E9426185F
:1024B00080E0DF91CF91089580917E038061C630E6
:1024C000ECE5DE0709F484C080917E038860C730A4
:1024D000DC4508F47DC080917E03806279C0CC30F9
:1024E0008CE5D80709F489C070F480917E038C6074
:1024F000CA30ECE5DE0709F46BC008F478C08091BF
:102500007E038E7F65C0CE308CE5D80709F479C094
:1025100080917E038B7FCF30DC4508F459C08091D9
:102520007E038F7E55C0CB3FECE5DE0709F457C034
:1025300030F5C3318CE5D80709F46FC078F4C131A8
:10254000ECE5DE0709F465C0C231DC4509F0A8CF2F
:102550000E94261880917E038F773AC0C5318CE5A2
:10256000D80709F462C008F476C080917F038160C7
:10257000CA3FDC4509F094CF80937F0391CFCF3FD2
:10258000FCE5DF0709F44DC088F480917F038D7F5F
:10259000CD3F9CE5D90781F380917F038E7FCE3FAD
:1025A000DC4550F380917F038360E6CFC130FDE5C9
:1025B000DF0709F459C008F444C080E0C230DD45AB
:1025C00009F06ECF0E94801E6BCF80917E038160E8
:1025D00080937E0365CF80917E038460F9CF8091E4
:1025E0007F038260C9CF80917E038064F1CF0E9417
:1025F000261880917E038068EBCF80917E038D7FCB
:10260000E7CF80917E03877FE3CF80917E038F7D2C
:10261000DFCF80917E038F7BDBCF80917E03837F32
:10262000D7CF80917F038C7FA7CF80917E0382FBE1
:10263000992790F921E0922790FB82F990FB83F98A
:10264000C7CF80917F03982F909591708E7F892BB3
:1026500090FB81F991CF0E94261890917E03892FDB
:1026600097FB87F98058B4CF81E0ACCF81E021CFD0
:10267000CF93DF93EB0186319C4511F50E94301D0D
:102680009A81992399F08A7A91E009F490E09093E5
:102690006502811109C089E20E940B1D0E946F1D15
:1026A00080E0DF91CF91089585E3F6CF80916502B8
:1026B000811104C089E20E94121DF0CF85E3FBCF97
:1026C00081E0EFCF90936B0280936A020895E091CE
:1026D0006A02F0916B02309721F00190F081E02DB9
:1026E000099480E00895E0916A02F0916B023097BE
:1026F00021F00280F381E02D09940895E0916A02AF
:10270000F0916B02309739F022E0DC012C930480C9
:10271000F581E02D099408952091680230916902B5
:102720002817390771F09093690280936802E0914D
:102730006A02F0916B02309721F00680F781E02D5C
:10274000099408952091660230916702281739078D
:1027500071F09093670280936602E0916A02F091B3
:102760006B02309721F00084F185E02D09940895E3
:1027700085B7806885BF85B7806885BF089508954F
:1027800008950C94BF1308950C94C3130E94B813BA
:102790000E94C0130C94C11381E008950C94CC13D3
:1027A0000E94731F0E9438060E94F51F0E94160F98
:1027B0000E94760D0C94C4139F92AF92BF92CF9259
:1027C000DF92EF92FF920F931F93CF93DF93CDB7DA
:1027D000DEB72A970FB6F894DEBF0FBECDBF0E94BA
:1027E000A0060E94CE13882309F474C05DE6A52ECE
:1027F00052E0B52E10E000E0902E802F0E942A06B5
:102800006C01F501E190F1905F01E816F90609F419
:102810005BC08091F70281FD0E94330697012C2551
:102820003D2580E0EE24E394F12CA9014E215F21A7
:10283000452B09F443C08E839F82CE20DF2081E0A8
:10284000CD2809F480E088870E947C1F8160782F62
:102850009A8789874E815F8168858A850E948D1459
:10286000000F111FF801E359FD4F80819181E82687
:10287000F926F182E0820E94B40D0E9471100E943C
:10288000A0210E94671390916C028917A1F10E9408
:10289000671380936C022A960FB6F894DEBF0FBEC2
:1028A000CDBFDF91CF911F910F91FF90EF90DF90FF
:1028B000CF90BF90AF909F900C94DE038F5FEE0C93
:1028C000FF1C8F3009F0B1CF0F5F1F4F053011058E
:1028D00009F092CF8FEF89838A831B820E947C1F2D
:1028E0008160782F9D838C8349815A816B818D8192
:1028F0000E948D14C0CF2A960FB6F894DEBF0FBE8B
:10290000CDBFDF91CF911F910F91FF90EF90DF909E
:10291000CF90BF90AF909F900895CF93DF93CDB7A6
:10292000DEB72B970FB6F894DEBF0FBECDBF4F8337
:10293000588769877A878B871E821D8285E0FE0112
:102940003796DE01119601900D928A95E1F7498143
:102950005A816B817C818D819E812B960FB6F89474
:10296000DEBF0FBECDBFDF91CF910C949F1AFC014B
:10297000808191810C94DD1CCF93C82F882309F4AA
:102980008BC08238C1F40E94671381FD85C089E342
:102990000E940B1D0E946F1D2FEF81EE94E02150CD
:1029A00080409040E1F700C0000089E30E94121DC2
:1029B000CF910C946F1D8338A1F40E94671380FDA2
:1029C0006BC083E50E940B1D0E946F1D2FEF81EEEF
:1029D00094E0215080409040E1F700C0000083E582
:1029E000E5CF8438A1F40E94671382FD55C087E4C7
:1029F0000E940B1D0E946F1D2FEF81EE94E021506D
:102A000080409040E1F700C0000087E4CFCF8CEF1A
:102A10008C0F813A90F46C2F8091180190911901DC
:102A20000E94971E882329F08C2F0E94121D0E945D
:102A30006F1D8C2F0E940B1DBBCF80E28C0F883046
:102A400048F4C77081E001C0880FCA95EAF70E9478
:102A5000331DAECFEBE5EC0FE33040F4F0E0E5538F
:102A6000FE4F808190E0CF910C948C13E8E5EC0F41
:102A7000E73150F4F0E0EE0FFF1FE356FE4F808188
:102A80009181CF910C94A213C03F30F08C2F0E9403
:102A90009A20CF910C948521CF910895882309F431
:102AA00052C0823871F40E94671381FF4CC089E3E1
:102AB0000E940B1D0E946F1D89E30E94121D0C9441
:102AC0006F1D833859F40E94671380FF3CC083E573
:102AD0000E940B1D0E946F1D83E5EFCF843859F4CF
:102AE0000E94671382FF2FC087E40E940B1D0E9483
:102AF0006F1D87E4E2CF9CEF980F913AF0F290E2DD
:102B0000980F983050F4877091E001C0990F8A9522
:102B1000EAF7892F0E94391DD2CF9BE5980F933099
:102B200020F490E080E00C948C1398E5980F973196
:102B300020F490E080E00C94A213803F20F00E94EB
:102B400002210C9485210895CF93C82F0E94BC14B4
:102B5000C93349F42FEF87EE93E021508040904035
:102B6000E1F700C000008C2FCF910C944E15882304
:102B700021F00E94331D0C946F1D0895882321F0CD
:102B80000E94391D0C946F1D0895BF92CF92DF9261
:102B9000EF92FF920F931F93CF93DF936C01D62F89
:102BA000C72FFC01058102950F70128111110E943F
:102BB000501D0E94291DE82E882391F01123E9F071
:102BC0008C2F807F803421F080E28D0F8830A8F038
:102BD00082E00E94BA1D0E94291D91E0E82EE9269C
:102BE000BC2EB2949FE0B922FBE0FB15A8F1EB2DBF
:102BF000F0E0E650F54D0C94D629E12CF1CF0C2FE6
:102C00000F70C07F11F00295007F1123A9F00023FF
:102C100059F080E28D0F883010F0D11109C0802F5B
:102C20000E94331D0E946F1D8D2F0E94BC1414C082
:102C3000802F0E94431DF6CF8D2F0E944E1500233A
:102C400059F080E28D0F883010F0D1112CC0802F08
:102C50000E94391D0E946F1D2B2D2850330B2430EC
:102C6000310520F40E9467130E94DE03EE2009F470
:102C70008EC10E94251D80FD8AC1F60112820E942C
:102C80001F1D0E94AB1BC6010E94E8170E941F1D5A
:102C9000DF91CF911F910F91FF90EF90DF90CF9038
:102CA000BF900C94CC1B802F0E94491DD3CF2C2F9A
:102CB0002F70F22EC07FC03219F0F29480EFF8220C
:102CC000DD2369F0D13049F1112391F1002351F155
:102CD000F601858180FFA8CF8F70858323C01123E3
:102CE00081F0011106C00E94561D8F290E94B71560
:102CF000B3CF0130C1F70E94561D8F290E945C1D81
:102D0000ABCF011106C00E94651D8F2D0E94BE151C
:102D1000A3CF013009F4A0CFF6CF112329F006305C
:102D200008F09ACF8F2DE2CF053008F095CFEDCF88
:102D3000002359F3D93349F4FFEF27EE33E0F15084
:102D400020403040E1F700C000008D2F0E944E155A
:102D500083CF8C2F86958695837069F0813009F03A
:102D60007BCF8D2F9C2F9370111102C090E080E0DB
:102D70000E94A21371CF8D2F9C2F9370111102C04E
:102D800090E080E00E948C1367CF8D2F112329F0F3
:102D90000E949A200E9485215FCF0E940221FACFD3
:102DA0008C2F837009F041C0111156CF4D2F4295E1
:102DB00046954770440F440F0D2F0F7010E030E020
:102DC00020E0042E04C0000F111F221F331F0A949D
:102DD000D2F760E070E0CB01D4FF0FC06FE070E08D
:102DE00080E090E004C0660F771F881F991F4A9506
:102DF000D2F76095709580959095C695C695C370ED
:102E0000602B712B822B932BC23049F058F4C130C8
:102E100019F00E945D1B20CF0E944B1B1DCF0E940A
:102E20006F1B1ACF0E94491B17CF8695112311F0F3
:102E30008C2F8170882309F40FCF4D2F4295469532
:102E40004770440F440F0D2F0F7010E030E020E06A
:102E5000042E04C0000F111F221F331F0A94D2F743
:102E600060E070E0CB01D4FF0FC06FE070E080E065
:102E700090E004C0660F771F881F991F4A95D2F70C
:102E80006095709580959095C695C695C370602B9A
:102E9000712B822B932BC23049F058F4C13019F0BA
:102EA0000E94221CD9CE0E94101CD6CE0E94341C37
:102EB000D3CE0E94851BD0CECF70112329F08C2F4A
:102EC0000E94AB1B8D2F12CF8D2F0E94BE158C2F11
:102ED0000E94CC1BC1CED23F89F160F4D03FC9F033
:102EE000D13F29F1112309F442C001119DCE8C2F4D
:102EF0008F7121C0D33F39F1D43FA1F7112369F17C
:102F0000CF718C2F0E94AB1B63E08C2F0E94A51DFC
:102F1000A3CE112341F0053008F09ECE8C2F8F7187
:102F20000E94EF1B99CE063008F096CEF7CF8C2F7B
:102F30008F71112369F20E94AB1B8ECE8C2F8F7183
:102F40001123C9F3C5CF112329F08C2F8F710E9453
:102F5000961B82CE0E94911B7FCE81E00E94BA1DFB
:102F6000023008F479CE82E00E94BA1D75CE0023AB
:102F700059F0D93309F0E9CE8FEF97EEE3E08150B5
:102F80009040E040E1F7DFCE8C2F8F71A1CFDF9131
:102F9000CF911F910F91FF90EF90DF90CF90BF9056
:102FA00008950F931F93CF93DF93EC01688179818C
:102FB0008A810E94E71C8C010E94461C0E94481BCB
:102FC000B801CE01DF91CF911F910F910C94C515DF
:102FD000CF93DF93EC018B819C81892B29F0888131
:102FE000998189238F3F59F4DF91CF910895CE01C4
:102FF0000E94D117CE01DF91CF910C94C003CE0176
:103000000E94F6038111F3CF0E94291D882361F3EA
:103010008A81882349F382E0DF91CF910C94BA1D15
:103020000E94501D0E94531D0E946F1D0E94AC22E1
:103030000E94852190E080E00E948C1390E080E067
:103040000C94A2130E94191D0C9410180E94401D8C
:103050000C942218E92FE295EF70E250EE3070F4F4
:10306000F0E0EA5FF44D0C94D629803F19F020F48B
:10307000883E20F481E00895843FE1F380E00895E4
:10308000883EC0F3813FD1F7F5CF93FB882780F9C5
:1030900008950E94DD1C0C942A18CF93DF9300D072
:1030A00000D00F92CDB7DEB70F900F900F900F901A
:1030B0000F90DF91CF910895CF93DF9300D000D090
:1030C00000D0CDB7DEB726960FB6F894DEBF0FBEA0
:1030D000CDBFDF91CF9108951F93CF93DF93C09120
:1030E000780216E0809179028C1304C0DF91CF91B1
:1030F0001F910895D0E01C9FF0011D9FF00D112439
:10310000E658FD4F408151816281738184819581B0
:103110000E945C182196C770E5CF4091AA02509199
:10312000AB026091AC027091AD028091AE029091C1
:10313000AF020C945C181F93CF93DF938091AF0282
:10314000807FA9F48091AC02882389F08091780275
:10315000C09179026091AA027091AB02A091AD0278
:10316000B091AE02D62FD72316E0C81304C0DF916A
:10317000CF911F91089590E0109711F0DF3F19F45F
:1031800001968770F2CF189F9001199F300D11247E
:10319000F901E658FD4F41814713F2CF40814613B4
:1031A000EFCF42814111ECCF438154814A1B5B0B2D
:1031B000483C510528F78091AF028F708061809361
:1031C000AF02F901E158FD4F80818F7080618083EB
:1031D0008AEA92E00E94E817DF91CF911F910C9448
:1031E0006C18AF92BF92CF92DF92EF92FF920F9343
:1031F0001F93CF93DF93CDB7DEB761970FB6F894E7
:10320000DEBF0FBECDBF8C0185E0F801DE011D964B
:1032100001900D928A95E1F7F80140815181E28099
:103220008AEAC82E82E0D82E6091AD027091AE027B
:103230006115710509F461C19091AA022091AB0258
:10324000892F82238F3F09F458C1A380B480F09066
:10325000AC02F501E61BF70BFF2009F4FCC08091DE
:10326000AF02382F307FE83CF10508F0B2C03111D1
:1032700079C0FE2C251323C0941321C0E1101FC078
:103280008F7080618093AF020E948D18C6010E94EA
:10329000E8178091AF02F80185838F2D61960FB6F4
:1032A000F894DEBF0FBECDBFDF91CF911F910F917C
:1032B000FF90EF90DF90CF90BF90AF900895AB2834
:1032C00029F0842F85238F3F09F033C180E0F82F48
:1032D000F170DF2E80FF3CC080917802209179024E
:1032E00036E0821315C04D875E878D859E850E94CE
:1032F000DD1C292F22952F702230F0F0243018F594
:103300009F70F1F0F8019581907FD1F4D12C1EC00F
:1033100090E0389FF001399FF00D1124E658FD4FE1
:103320006181651306C06081641303C062816E1100
:103330000FC001968770D5CF9F7011F0882331F3AD
:10334000805E883018F3C8010E94E817FD2CA5CFD5
:10335000EE2009F4A2CF8091AF0281608093AF028A
:10336000F12C9BCF251306C0941304C0F801EE2066
:1033700009F48DC04D875E878D859E850E94491812
:10338000882319F1EE2009F18091AF02803270F0AC
:103390002091AA023091AB0238872F831986BB8611
:1033A000AA868C87CE0107960E94E81786E0F8016E
:1033B000AAEAB2E001900D928A95E1F70E949B186B
:1033C0000E948D18FF24F39468CFC8010E94E8176B
:1033D000F9CF311113C07A2DB98AA88A6E2D898947
:1033E0000E944D188AEA92E00E94E81786E0F601F2
:1033F00011928A95E9F70E948D18B2CF25130FC05C
:1034000094130DC0E1100BC0F8018583C8010E9420
:10341000E81786E0F60111928A95E9F73ECF4D87CD
:103420005E878D859E850E944918882371F2EE2063
:1034300061F28091AF02803208F4B8CF2091AA02E5
:103440003091AB023A8329831B82BD82AC828E838A
:10345000CE010196A9CFE83CF10508F041C0FE2C51
:10346000EE2009F4B2CF25132AC0941328C080910E
:10347000AF0280FD1BC0982F907FC1F0F8018583BB
:10348000903F31F0982F907F905F8F70892B8583CC
:10349000C8010E94E81786E0F801AAEAB2E00190AC
:1034A0000D928A95E1F70E948D18F7CE86E0F8011B
:1034B000AAEAB2E001900D928A95E1F7EECE4D872F
:1034C0005E878D859E850E94491881116FCF8091FE
:1034D000AF0281608093AF02C8010E94E817DDCE81
:1034E0007A2DB98AA88A6E2D89890E944D1886E0A6
:1034F000F60111928A95E9F7D6CFEE2009F465CF4F
:103500004D875E878D859E850E944918F82E8823F9
:1035100009F45BCF86E0F801AAEAB2E001900D92CF
:103520008A95E1F78AEA92E00E94B7140E949B18FC
:10353000BACF81E08E25CBCE88EC90E008951F9322
:10354000CF93DF93CDB7DEB72C970FB6F894DEBFDD
:103550000FBECDBF4F83588769877A878B879C873B
:10356000CE0107960E94F118882369F08A859B8511
:10357000892B39F04F815885842F85238F3F09F09F
:1035800071C016E05FC086E0FE013796DE0111963D
:1035900001900D928A95E1F78A859B85892B89F3A5
:1035A0008F81988589238F3F61F32091790230E0E4
:1035B000C90101968770992740917802481719062A
:1035C00071F40E942618109279021092780286E017
:1035D000EAEAF2E0DF011D928A95E9F7D2CF96E0A0
:1035E000929FD001939FB00D1124A658BD4FFE01AC
:1035F000319601900D929A95E1F7809379020E949D
:103600006C18BFCF819FC001112486589D4F0E9426
:10361000F1188823E9F0E09178021E9FF00111244F
:10362000E658FD4F4081518162817381848195818B
:103630000E945C188091780290E00196877099272B
:103640008093780280917802909179028913DACF81
:103650002C960FB6F894DEBF0FBECDBFDF91CF9191
:103660001F91089569857A858B859C850E945C18D9
:1036700088CF08950C94391B0E943A1B6093E60290
:103680007093E7028093E8029093E9020C9410187B
:1036900008950C943C1B0F931F930091E602109128
:1036A000E7022091E8023091E902602B712B822B16
:1036B000932B1F910F910C943C1B0F931F93009120
:1036C000E6021091E7022091E8023091E9026023BE
:1036D0007123822393231F910F910C943C1B0F9312
:1036E0001F930091E6021091E7022091E8023091C9
:1036F000E90260277127822793271F910F910C946D
:103700003C1B0C94391B0C94811B0E94831B6093FF
:10371000E2027093E3028093E4029093E5020C943A
:10372000101860E070E0CB010C94851B0F931F9381
:1037300041E050E060E070E08A019B0104C0000FAE
:10374000111F221F331F8A95D2F7C901B8011F919B
:103750000F910C94851B0F931F9341E050E060E0A4
:1037600070E004C0440F551F661F771F8A95D2F77B
:103770008091E2029091E302A091E402B091E5020F
:103780008A019B01082B192B2A2B3B2BC901B8015D
:103790001F910F910C94851B0F931F9341E050E0F4
:1037A00060E070E004C0440F551F661F771F8A95C4
:1037B000D2F7CB01BA0160957095809590950091F4
:1037C000E2021091E3022091E4023091E5026023CD
:1037D0007123822393231F910F910C94851B0F93C8
:1037E0001F9341E050E060E070E004C0440F551FBB
:1037F000661F771F8A95D2F78091E2029091E302CB
:10380000A091E402B091E5028A019B0108271927E3
:103810002A273B27C901B8011F910F910C94851BE2
:103820000F931F930091E2021091E3022091E402B2
:103830003091E502602B712B822B932B1F910F91FE
:103840000C94851B0F931F930091E2021091E302E9
:103850002091E4023091E5026023712382239323B7
:103860001F910F910C94851B0F931F930091E202FF
:103870001091E3022091E4023091E5026027712764
:10388000822793271F910F910C94851B08952FE099
:10389000929F800D1124982F977041E001C0440F32
:1038A0009A95EAF786958695869595E0899FF00129
:1038B0001124E055FD4F90E080E070E05191DF0170
:1038C00011979B01082E02C0369527950A94E2F7BE
:1038D000217021952527242325272C9301968530B7
:1038E000910561F708952FE0929F800D1124982F84
:1038F000977086958695869525E0829FF001112424
:10390000E055FD4F50E040E080E0219130E0092E8D
:1039100002C0369527950A94E2F721703327042ECA
:1039200001C0220F0A94EAF7822B4F5F5F4F4530A8
:10393000510559F70895BF92CF92DF92EF92FF920F
:103940000F931F93CF93DF938C01C090E202D0902E
:10395000E302E090E402F090E5028091E6029091AB
:10396000E702A091E802B091E902C82AD92AEA2A1E
:10397000FB2ACFE1D0E0BC2ED701C6010C2E04C03B
:10398000B695A795979587950A94D2F780FD0EC0B6
:10399000219788F7B12C8B2DDF91CF911F910F913B
:1039A000FF90EF90DF90CF90BF900895B8018C2FDB
:1039B0000E945204019761F3EECFCF93DF93EC01A5
:1039C0000E949B1CBE01DF91CF910C9452041F9367
:1039D000CF93DF93EB0190917702992331F0CB01E4
:1039E000DF91CF911F910C94DD1C882379F0CB01DE
:1039F0000E949B1C182F682FCE010E94471CBE01FD
:103A0000812FDF91CF911F910C945204CB010E9422
:103A1000731C182FF4CF682F809118019091190111
:103A20000C94CD1E682F80911801909119010C946F
:103A3000CF1E80911801909119010C94D11E809194
:103A4000EA0285958595859508958091EA028770AB
:103A500008959091EA02977081E009F480E008955A
:103A60008091F60208959091F602892B8093F602D8
:103A7000089580959091F60298239093F602089508
:103A80001092F60208959091F502892B8093F50229
:103A9000089580959091F50298239093F5020895EA
:103AA0001092F50208951092F40208958091EB02AD
:103AB000089508950C94591D9091EB02981721F0E8
:103AC0008093EB020C945A1D08958091EB02882399
:103AD00029F01092EB0280E00C945A1D0895E091B9
:103AE0001801F09119018091F6028083E09118018C
:103AF000F091190180819091F502892B8083E091EA
:103B00001801F091190180819091F402892B808332
:103B10009091EB02992381F0E0911801F091190145
:103B20008081892B808380911801909119010E94D6
:103B3000851E81110E94651D8091180190911901C7
:103B40000C94731308950C94A21D98E0899F900122
:103B50001124622B6093EA020E94AB1B8091EA025F
:103B60008595859585950C94A31D1092EA0280E0B9
:103B70000C94A31D9091EA02809589238093EA0218
:103B8000282F277071F4282F082E000C330B921762
:103B9000130639F08595859585950E94CC1B0C946C
:103BA000B51D08956FEF7FEF90E080E00C94A82A98
:103BB00090E080E00E94842A21E08C3E9E4F09F034
:103BC00020E0822F089582E090E00C94762A83E032
:103BD00090E00C94762ACF9384E090E00E94762ABD
:103BE000C82F81E290E00E94762A982F8C2FCF91E7
:103BF0000895CF93C92F682F84E090E00E948A2A0D
:103C00006C2F81E290E0CF910C948A2A86E090E0BC
:103C10000C94762A682F86E090E00C948A2AAB01F7
:103C2000BC018FE090E00C949C2AAB01BC0183E1C5
:103C300090E00C949C2A60E070E0CB010C94151E7F
:103C400060E070E0CB010E940F1E0C941B1E6CEE16
:103C50007EEF90E080E00E94A82A60E082E090E0A1
:103C60000E948A2A60E083E090E00E948A2A1092F3
:103C7000E6021092E7021092E8021092E90260E078
:103C800084E090E00E948A2A60E081E290E00E9455
:103C90008A2A60E085E090E00E948A2A60E086E05F
:103CA00090E00E948A2A6FEF87E090E00E948A2AC3
:103CB00040E050E0BA0188E090E00E949C2A60E079
:103CC0008DE090E00E948A2A40E050E0BA0188E14D
:103CD00090E00E949C2A60E087E190E00E948A2A9E
:103CE00040E050E0BA018CE190E00E949C2A60E044
:103CF00080E290E00E948A2A0C94201E0C94271ED9
:103D0000682F8EE090E00C948A2A9C012E5F3F4F32
:103D1000AC01485F5F4F80E02417350709F4089530
:103D2000F90191919F019923B9F38F5FF5CF662334
:103D300049F0FC01329608962191261729F0E817E0
:103D4000F907D1F780E0089581E008959C01FC0116
:103D500032969FEF80E04191461751F09F3F19F452
:103D6000411101C0982F8F5F8630A9F79F3F09F45A
:103D70000895290F311D97FD3A95F9016283089541
:103D8000FC01329608962191261303C0DF0111979A
:103D90001C92E817F907B9F708950C94A61E0C9425
:103DA000C01E029626E0FC0111922A95E9F70895BB
:103DB000089508950C94D91E0E94DA1E8091840300
:103DC000843009F43CC01092F80288E190E020E4CD
:103DD0000FB6F894A895809360000FBE2093600002
:103DE00080E00E94481080E00E94DE030E94B10D36
:103DF0008091F90281110AC081E08093F9028091DB
:103E0000260381708093FA020E94E40C0E94DA1E5D
:103E100083B7817F846083BF83B7816083BF7894D9
:103E2000889583B78E7F83BF0FB6F894A89580914D
:103E30006000886180936000109260000FBE08955A
:103E40000895CF930E94D81E0E94A0060E94201FB2
:103E5000C0E08C2F0E942A06892B31F4CF5FC53039
:103E6000C1F780E0CF91089581E0FCCF08950C94D4
:103E7000361F0E9426180E94160F0E9467130E9488
:103E8000DE031092F9028091FA0281110E94A90DBD
:103E90000E94F60C0C94371F1F921FB61F9211241C
:103EA0008F939F93AF93BF938091F802811113C0BA
:103EB00080917A0390917B03A0917C03B0917D0364
:103EC0004196A11DB11D80937A0390937B03A0932B
:103ED0007C03B0937D03BF91AF919F918F911F9011
:103EE0001FBE1F90189582E084BD93E095BD9AEFA8
:103EF00097BD80936E0008952FB7F89480917A0350
:103F000090917B03A0917C03B0917D032FBF089516
:103F10009C014FB7F89480917A0390917B03A09114
:103F20007C03B0917D034FBF821B930B089578945F
:103F30001F921FB61F9211248F939F93AF93BF932D
:103F400080917A0390917B03A0917C03B0917D03D3
:103F50000196A11DB11D80937A0390937B03A093DA
:103F60007C03B0937D03BF91AF919F918F911F9080
:103F70001FBE1F90189581E08093E00080E280933F
:103F8000D8001092C9008FE19EE40197F1F700C0BC
:103F9000000087E090EBDC0180938D0390938E030B
:103FA000A0938F03B093900388E19CE00FB6F89440
:103FB000A895809360000FBE90936000FFCF0C9493
:103FC000D21D0E94A0068FE39CE90197F1F700C083
:103FD00000000E94A00680E00E942A0680FF04C024
:103FE0000E94DF1F0C94BB1F08950E94D81D8111F1
:103FF00002C00E947E1E0E94E31D8093F7020E9471
:10400000EB1D90937F0380937E030E94E71D682F32
:1040100070E090E080E00E94491B6091E2027091A4
:10402000E3028091E4029091E5020C94831B80915D
:10403000010380FF12C060911F0185E0689FB001FD
:104040001124759567957595679560387105A8F584
:1040500061157105A1F1862F089581FF09C0609156
:104060001F0185E0689FB001112475956795EDCF1C
:1040700060911F0182FD0AC0809100038823D1F066
:1040800090911E0160911F01891728F085E0689FBB
:10409000B0011124DACF869FB001112485E0869FFC
:1040A0009001879F300D1124692F70E0C9010E9493
:1040B000A029CBCF65E070E0CECF8FE7089581E0F7
:1040C00008958091010380FF0CC060911B0170E096
:1040D00075956795759567956115710549F1862FF9
:1040E000089581FF06C060911B0170E0759567958A
:1040F000F3CF60911B0182FD0BC09091FF029923C9
:10410000A1F060911A0180911B01961738F0682F79
:1041100070E06038710500F38FE70895899FC00152
:10412000112470E00E94A029F4CF61E070E0D7CFA5
:1041300081E00895803F31F40E941720819580939B
:1041400005030895813F19F40E941720F8CF823F9C
:1041500031F40E9417208195809304030895833FD2
:1041600019F40E941720F8CF893F29F40E9461209A
:104170008093060308958A3F21F40E94612081956F
:10418000F7CF8B3F31F40E94612081958093070324
:1041900008958C3F19F40E946120F8CF843F31F4D8
:1041A000809103038160809303030895853F21F488
:1041B000809103038260F7CF863F21F4809103034F
:1041C0008460F1CF873F21F4809103038860EBCFB7
:1041D000883F21F4809103038061E5CF8D3F31F466
:1041E0008091010381608093010308958E3F21F443
:1041F000809101038260F7CF8F3FB9F7809101036F
:104200008460F1CF90910403803F59F480910503BD
:1042100087FF0DC01092050391110BC0109200038F
:1042200008C0813F81F48091050318169CF39923FF
:1042300081F08091060390910703892B09F064C0F7
:104240001092FF020895823F49F497FFF0CF109239
:104250000403809105038111ECCFE0CF833F19F473
:104260001916ACF3E4CF20910603893F29F4121606
:10427000F4F610920603DBCF8A3F19F427FFD7CF5D
:10428000F8CF209107038B3F29F427FFD0CF10925E
:104290000703CDCF8C3F19F41216CCF3C8CF843F5F
:1042A00031F4809103038E7F80930303C0CF853F59
:1042B00021F4809103038D7FF7CF863F21F4809115
:1042C00003038B7FF1CF873F21F480910303877F26
:1042D000EBCF883F21F4809103038F7EE5CF8D3FA4
:1042E00031F4809101038E7F80930103A0CF8E3F34
:1042F00021F4809101038D7FF7CF8F3F09F097CF95
:10430000809101038B7FF0CF08950E947C1F9C0158
:104310009091040380910503982B21F03093FE02C5
:104320002093FD029091060380910703982B21F0C2
:104330003093FC022093FB0282E093E00C947E1306
:10434000EF92FF920F931F93CF93DF9300D000D093
:1043500000D0CDB7DEB786E0E2E0F3E0DE011196F3
:1043600001900D928A95E1F7E0900403F090050327
:1043700000910603109107031092040310920503A5
:1043800010920603109207038E2D8F2991F08091D1
:10439000FD029091FE020E94881FAC0190910003E3
:1043A000992309F43FC0809120018417150608F471
:1043B00047C0802F812B91F08091FB029091FC02ED
:1043C0000E94881FAC019091FF02992309F477C0E5
:1043D00080911C018417150608F47FC080910403A6
:1043E00090910503892B90910603892B90910703E7
:1043F000892B11F00E94852186E0FE013196A2E012
:10440000B3E001900D928A95E1F726960FB6F894E5
:10441000DEBF0FBECDBFDF91CF911F910F91FF90F7
:10442000EF900895209121018AE0289F90011124A6
:104430002417350708F0BDCF9F5F9093000302C09B
:104440009F3FD1F7EE2059F00E9417209FEF1E14D6
:104450000CF491E0899F802D112480930403FF20A8
:1044600059F00E9417209FEF1F140CF491E0899FD0
:10447000802D11248093050330910403332309F424
:1044800098CF20910503222309F493CF45EB340301
:10449000C0011124992359F09093040345EB2403A0
:1044A00090011124332339F03093050382CF81E04A
:1044B00080930403F3CF81E0809305037ACF2091AA
:1044C0001D018AE0289F900111242417350708F068
:1044D00085CF9F5F9093FF0202C09F3FD1F70023DB
:1044E00059F00E9461209FEF10160CF491E0899F13
:1044F000802D112480930603112359F00E9461201E
:104500009FEF11160CF491E0899F802D1124809368
:10451000070330910603332309F460CF209107038A
:10452000222309F45BCF45EB3403C0011124992306
:1045300059F09093060345EB240390011124332393
:1045400039F0309307034ACF81E080930603F3CF1D
:1045500081E08093070342CF86E0E2E0F3E0DF01F1
:104560001D928A95E9F7109200031092FF021092B3
:1045700001030895809110030895CF93DF9300D035
:104580000F92CDB7DEB790918403943019F58983EB
:104590007B836A8382E08093E9008FEF9091E8004B
:1045A000815095FD06C095ED9A95F1F700008111B7
:1045B000F5CF8091E80085FF0DC050E040E063E05A
:1045C00070E0CE0101960E94D1248091E8008E77A0
:1045D0008093E8000F900F900F90DF91CF91089596
:1045E000BC0184E00C94BD22BC0183E00C94BD228C
:1045F0009C0182E08093E9009FEF8091E800915058
:1046000085FD06C085ED8A95F1F700009111F5CF83
:104610008091E80085FF0CC050E040E066E070E06B
:10462000C9010E94D1248091E8008E778093E80030
:104630000895CF93DF93EC0181E08093E9008FEF41
:104640009091E800815095FD06C095ED9A95F1F79F
:1046500000008111F5CF8091E80085FF14C050E083
:1046600040E068E070E0CE010E94D1248091E80033
:104670008E778093E80088E0FE01A8E0B3E0019027
:104680000D928A95E1F7DF91CF9108958091830390
:10469000811109C00E9461260E94BE268091E2001D
:1046A00084608093E2000895109283030895089532
:1046B00008950C94391F42E061EC81E00E94DD25F1
:1046C00042E261EC82E00C94DD2580918603833028
:1046D00009F45FC030F48130C1F1823009F49BC02D
:1046E00008958A3009F487C08B3009F46DC0893091
:1046F00009F04EC080918503813209F049C0809154
:10470000890390918A03029708F042C08091E800E3
:10471000877F8093E8008091E80082FF35C0909108
:10472000F3008091F200029729F48091F1008B7FD1
:10473000813021F48091F100809310038091E80092
:104740008B778093E8000C94112680918503813A41
:10475000F9F48091E800877F8093E80080918903D5
:1047600090918A03892B61F468E088E093E070E01F
:104770000E9420258091E8008B778093E8000895BF
:1047800060E090E080E0F3CF809184038111C3CF9B
:10479000089580918503813AD9F78091890390919A
:1047A0008A03892BA9F78091E800877F8093E8002E
:1047B0008091E80080FFFCCF80912C018093F10074
:1047C0008091E8008E77BDCF80918503813201F71B
:1047D0008091890390918A03892BD1F68091E8001A
:1047E000877F8093E8000E94112680918703809341
:1047F0002C010C94261880918503813249F6809112
:10480000E800877F8093E8000E941126809188034A
:1048100080931103089580918503813A09F0B8CF00
:104820008091E800877F8093E8008091E80080FF16
:10483000FCCF80911103C2CF84B7877F84BF0FB6AE
:10484000F894A89580916000886180936000109230
:1048500060000FBE80E890E00FB6F894809361008E
:10486000909361000FBE0E94C6130E9461260E94B1
:10487000BE268091E20084608093E20078940E94DA
:1048800047290E94D01382E291E00E946213809136
:104890008403853019F00E94DC13F9CF0E94DC1EDE
:1048A00080918203882399F30E94211F882379F342
:1048B0000E94BB24ECCF0C945D24292F3327233096
:1048C000310519F168F42130310509F44AC022306C
:1048D000310509F44BC090E080E030E020E028C0D2
:1048E0002132310579F122323105A9F780E490E0D7
:1048F00028EF35E061157105D9F081E890E027E7F0
:1049000035E061307105A1F0E6CF9927813091053E
:1049100099F0009741F08230910589F00397D9F61C
:10492000E8E0F5E002C0E6E2F5E0849190E09F0166
:10493000FA01318320830895EEE1F5E0F6CFEEE051
:10494000F5E0F3CF89E090E02CE335E061157105E7
:1049500079F389E090E025E535E06130710541F3B8
:10496000BACF82E190E025E635E0E2CF8BE390E03C
:104970002AE235E0DDCF80E189BD82E189BD09B45D
:1049800000FEFDCF8091D8008F7D8093D80080916C
:10499000E00082608093E0008091E00081FDFCCF28
:1049A0000895AF92BF92CF92DF92FF920F931F9321
:1049B000CF93DF936C01EB018A010E943026F82E21
:1049C000811123C00115110539F0F8018081918111
:1049D000C81BD90BC80ED91EB12CA12C2097A9F049
:1049E0008091E80085FD22C08091E8008E77809359
:1049F000E80001151105A1F0F80180819181A80E50
:104A0000B91EB182A08285E0F82E8F2DDF91CF9163
:104A10001F910F91FF90DF90CF90BF90AF900895BE
:104A20000E9430268823D1F2F82EEFCFF601819133
:104A30006F018093F1002197FFEFAF1ABF0ACECF2D
:104A4000FC0180918B0390918C0386179707A0F04F
:104A50006115710529F49091E8009E779093E80024
:104A600090E06115710551F4911108C08091E80042
:104A700082FF34C080E00895BC01F2CF80918403AE
:104A80008823C1F18530C1F18091E80083FD30C0F9
:104A90008091E80082FDEACF8091E80080FFE1CFBD
:104AA0008091F3002091F200382F6115710519F003
:104AB0002830310558F091E02830310509F090E0B8
:104AC0002091E8002E772093E800CBCF819180934E
:104AD000F100615071092F5F3F4FE7CF8091840350
:104AE000882341F0853041F08091E80083FFBECFFC
:104AF00081E0089582E0089583E00895FC018091AB
:104B00008B0390918C0386179707A0F061157105B0
:104B100029F48091E8008E778093E80090E0611599
:104B2000710551F4911108C08091E80082FF35C0F1
:104B300080E00895BC01F2CF809184038823C9F1FD
:104B40008530C9F18091E80083FD31C08091E80093
:104B500082FDEACF8091E80080FFE1CF8091F300F1
:104B60002091F200382F6115710519F028303105B8
:104B700058F091E02830310509F090E08091E8008C
:104B80008E778093E800CBCF84918093F1003196AB
:104B9000615071092F5F3F4FE6CF809184038823D6
:104BA00041F0853041F08091E80083FFBDCF81E086
:104BB000089582E0089583E00895982F973028F0B3
:104BC0008F708093E90081E008959093E900242F8D
:104BD000762F50E0981731F07091EC002091ED00A5
:104BE0005091F00021FD02C09F5FE8CF3091EB00B3
:104BF0003E7F3093EB003091ED003D7F3093ED0030
:104C00003091EB0031603093EB007093EC00209317
:104C1000ED005093F0002091EE0027FDE5CF80E0FD
:104C200008958091850387FF13C08091E80082FF7B
:104C300006C08091E8008B778093E80004C08091E3
:104C400084038111F2CF0895809184038823D9F3DE
:104C50008091E80080FFF8CF8091E8008E77ECCF5C
:104C60002091E4003091E50095E6A9012091EC0047
:104C7000822F817020FF06C08091E80080FF06C06F
:104C800080E008952091E80022FD1AC080918403FD
:104C9000882389F0853089F08091EB0085FD0FC075
:104CA0002091E4003091E50042175307F9F291504A
:104CB000E1F684E0089582E0089583E0089581E0BC
:104CC00008950E94CF260E94D726E0EEF0E0808172
:104CD00081608083E8EDF0E080818F77808319BC6C
:104CE000A7EDB0E08C918E7F8C9380818F7E808346
:104CF0001092830308950F931F93CF93DF930E9425
:104D0000CF260E94D726C8EDD0E088818F77888390
:104D100088818068888388818F7D888319BC109200
:104D2000840310928003109282031092810300EE9C
:104D300010E0F80180818B7F808388818160888387
:104D400042E060E080E00E94DD25E1EEF0E080815D
:104D50008E7F8083E2EEF0E08081816080838081BD
:104D600088608083F80180818E7F80838881806164
:104D70008883DF91CF911F910F910895E8EDF0E0C6
:104D800080818F7E8083E7EDF0E080818160808389
:104D900084E082BF81E0809383030C947B26E8ED5E
:104DA000F0E080818E7F80831092E200089510925F
:104DB000DA001092E10008951F920F920FB60F9241
:104DC00011242F933F934F935F936F937F938F9310
:104DD0009F93AF93BF93EF93FF938091E10082FF86
:104DE0000BC08091E20082FF07C08091E1008B7FC1
:104DF0008093E1000E9446298091DA0080FF19C06B
:104E00008091D80080FF15C08091DA008E7F80935A
:104E1000DA008091D90080FF96C080E189BD82E1EF
:104E200089BD09B400FEFDCF81E0809384030E9418
:104E300046238091E10080FF19C08091E20080FF4D
:104E400015C08091E2008E7F8093E2008091E200A5
:104E500080618093E2008091D80080628093D800C6
:104E600019BC85E0809384030E9458238091E1005F
:104E700084FF2BC08091E20084FF27C080E189BDC0
:104E800082E189BD89B5982F917080FFFBCF809119
:104E9000D8008F7D8093D8008091E1008F7E809331
:104EA000E1008091E2008F7E8093E2008091E20039
:104EB00081608093E20080918003882309F449C0D7
:104EC00084E0809384030E9459238091E10083FF52
:104ED00029C08091E20083FF25C08091E100877F97
:104EE0008093E10082E0809384031092800380919C
:104EF000E1008E7F8093E1008091E2008E7F8093BD
:104F0000E2008091E20080618093E20042E060E094
:104F100080E00E94DD258091F00088608093F000A1
:104F20000E945723FF91EF91BF91AF919F918F9175
:104F30007F916F915F914F913F912F910F900FBE95
:104F40000F901F90189519BC109284030E9454234F
:104F500070CF8091E30087FD93E090938403B3CFFB
:104F60001F920F920FB60F9211242F933F934F93DE
:104F70005F936F937F938F939F93AF93BF93CF93E1
:104F8000DF93EF93FF93D091E900DF708091EC0005
:104F9000C82FC17080FDC0E81092E9008091F00038
:104FA000877F8093F00078940E94F4271092E900A4
:104FB0008091F00088608093F000CD2BCF70C0937B
:104FC000E900FF91EF91DF91CF91BF91AF919F9158
:104FD0008F917F916F915F914F913F912F910F90A2
:104FE0000FBE0F901F9018951F93CF93DF93CDB7EF
:104FF000DEB7AA970FB6F894DEBF0FBECDBF85E827
:1050000093E02091F100FC012193CF01F3E08D3872
:105010009F07B9F70E9465238091E80083FF1EC1B6
:1050200080918503909186039A3008F017C1E92F8B
:10503000F0E0EC5EF44D0C94D629803899F082387B
:1050400009F00CC1809189038F70873008F006C188
:105050008093E9008091EB0085FB882780F910920E
:10506000E90006C0809181039091820391118260D2
:105070009091E800977F9093E8008093F100109260
:10508000F1008091E8008E77E5C0882309F4D3C051
:10509000823009F0E3C0809187038111D6C08091EE
:1050A00089038F702FEF280F263008F0D7C0809328
:1050B000E9002091EB0020FFC8C0933031F48091CB
:1050C000EB0080628093EB00C0C09091EB00906198
:1050D0009093EB0021E030E001C0220F8A95EAF7BF
:1050E0002093EA001092EA008091EB008860EACFFA
:1050F0008111B4C0109187031F778091E3008078FD
:10510000812B8093E3008091E800877F8093E80003
:105110000E9411268091E80080FFFCCF8091E3007F
:1051200080688093E30082E0111183E08093840320
:1051300095C08058823008F091C08091870390918B
:1051400088038C3D23E09207A1F583E08A838AE2FD
:1051500089834FB7F894DE01139620E03EE051E2D8
:10516000E32FF0E050935700E49120FF03C0E29555
:10517000EF703F5FEF708E2F90E0EA30C0F0C7967F
:105180008D939D932F5F243159F74FBF8091E80095
:10519000877F8093E8006AE270E0CE0101960E946A
:1051A00020258091E8008B778093E80057C0C09657
:1051B000E7CF6091890370918A03AE014F5F5F4F23
:1051C0000E945B24BC01892B09F448C09091E8003F
:1051D000977F9093E80089819A810E947E25E1CF94
:1051E0008038E1F58091E800877F8093E800809126
:1051F00080038093F10045CF811130C090918703E7
:10520000923060F58091E800877F8093E80090936A
:1052100080030E94112680918003882311F084E08E
:1052200005C08091E30087FDFACF81E0809384037D
:105230000E945B2313C080918703813079F481E061
:10524000933009F080E0809382031092E90080910E
:10525000E800877F8093E8000E9411268091E80093
:1052600083FF0AC08091E800877F8093E8008091E7
:10527000EB0080628093EB00AA960FB6F894DEBF35
:105280000FBECDBFDF91CF911F9108950895CF93A9
:10529000809184038823A1F0C091E900CF709091A0
:1052A000EC00892F817090FD80E8C82B1092E900F6
:1052B0008091E80083FD0E94F427CF70C093E9003D
:1052C000CF910895DB018F939F930E94FA29BF919C
:1052D000AF91A29F800D911DA39F900DB29F900D45
:1052E00011240895991B79E004C0991F961708F0BE
:1052F000961B881F7A95C9F78095089587FB082E1D
:10530000062687FD819567FD61950E9472290EF43E
:10531000919507FC81950895AA1BBB1B51E107C01D
:10532000AA1FBB1FA617B70710F0A61BB70B881F35
:10533000991F5A95A9F780959095BC01CD010895C4
:1053400097FB072E16F4009407D077FD09D00E9432
:105350008C2907FC05D03EF4909581959F4F0895C8
:10536000709561957F4F0895A1E21A2EAA1BBB1B71
:10537000FD010DC0AA1FBB1FEE1FFF1FA217B30721
:10538000E407F50720F0A21BB30BE40BF50B661F37
:10539000771F881F991F1A9469F7609570958095FB
:1053A00090959B01AC01BD01CF010895EE0FFF1F49
:1053B0000590F491E02D09940E94E429332312F41E
:1053C0008A1B9B0B0C94F529A29FB001B39FC001CF
:1053D000A39F700D811D1124911DB29F700D811D21
:1053E0001124911D08950E94E429B7FF0895821B9E
:1053F000930B08950E94E429A59F900DB49F900DF2
:10540000A49F800D911D11240895B7FF0C94FA29D3
:105410000E94FA29821B930B08958F929F92AF925C
:10542000BF92CF92DF92EF92FF92CF93DF93EC0186
:10543000688179818A819B8161157105810591055A
:1054400021F464E279ED8BE597E02DE133EF41E063
:1054500050E00E94BE2A49015A019B01AC01A7EA13
:10546000B1E40E94FA296B017C01ACEEB4EFA50116
:1054700094010E94082ADC01CB018C0D9D1DAE1DFC
:10548000BF1DB7FF03C00197A109B0488883998366
:10549000AA83BB839F77DF91CF91FF90EF90DF903E
:1054A000CF90BF90AF909F908F9008950E940D2A4B
:1054B000089580E091E00E940D2A0895B0E0A0E0F8
:1054C0008093000190930101A0930201B093030126
:1054D0000895FC014150504030F001900616D1F77C
:1054E0003197CF010895882799270895F999FECF1C
:1054F00092BD81BDF89A992780B50895A6E1B0E0E4
:1055000044E050E00C94B02AA8E1B0E042E050E062
:105510000C94B02A262FF999FECF92BD81BDF89A3E
:10552000019700B4021639F01FBA20BD0FB6F894E7
:10553000FA9AF99A0FBE08950396272F0E948B2A94
:105540000E948A2A252F0E948B2A242F0C948B2AB2
:105550000196272F0E948B2A0C948A2ADC01CB010A
:10556000FC01F999FECF06C0F2BDE1BDF89A319673
:1055700000B40D9241505040B8F70895052E97FBA6
:105580001EF400940E94D52A57FD07D00E94B4292A
:1055900007FC03D04EF40C94D52A509540953095D5
:1055A00021953F4F4F4F5F4F08959095809570958F
:1055B00061957F4F8F4F9F4F0895F894FFCF8F0EC7
:1055C000970E9E0EA30EA80EAD0EB20EB70EBC0E19
:1055D000C10EC60ECB0ECF0ED40ED70EDA0EDD0ED8
:1055E000E00EE20EE50EEE0FF30FF50FF80FFB0FD6
:1055F000FE0F0110FF15FF1557165716A916C516F1
:105600002C162C16D0165C176B176B17351835181F
:105610003E183E1840183E183E183E1835183518EA
:1056200045183E183E1845181D2845282E2945289E
:0C5630002E29782899282E29F028FC2823
:10563C0001000000010102001A001A1A01191A1BBC
:10564C001C1D1E1F20212206EC022808641E140AB1
:10565C00321EBA221923F822F422F02201E200E9C8
:10566C0000EA00B500B600B700CD008301CC008A7B
:10567C000192019401210223022402250226022711
:10568C00022A02B300B4006F007000818283F0F133
:10569C00F4F5F6F733323130353497969490919285
:1056AC0067660001020202020606060909090909D9
:1056BC00090F0F0F0F0F0F151515181919191919A7
:1056CC0019191919192324252525252525E200E961
:1056DC0000EA00B500B600B700CD008301CC008A0B
:1056EC0001920194012102230224022502260227A1
:0E56FC00022A02B300B4006F007000818283A6
:00000001FF
