:100000000C94C2060C9406070C94CF070C940607B8
:100010000C9406070C9406070C9406070C9406072C
:100020000C9406070C9406070C94D01C0C9406073D
:100030000C9406070C9406070C9406070C9406070C
:100040000C9406070C9406070C9406070C940607FC
:100050000C94060735001E001F002000210022001E
:10006000230024002500260027002D002E002A0052
:1000700000002B0014001A000800150017001C00D7
:1000800018000C00120013002F0030003100000097
:10009000296104001600070009000A000B000D008A
:1000A0000E000F0033423400000028000000E10081
:1000B00000001D001B0006001900050011001000C3
:1000C000360037003800E50001510000E000E20092
:1000D000E300000000002C0000000000E700E60044
:1000E000E4000000000000000000005C3A003B005B
:1000F0003C003D003E003F00400041004200430004
:10010000440045004C000000010001000100010016
:1001100001000100010001000100010001000100D7
:1001200001000100000001000100010001000100C8
:1001300001000100010001000100010001000000B8
:100140000100000039000000010001000100010071
:100150000100010001000100010001000100010097
:100160000000A800AA00A90000000000AE000000E6
:10017000000069006A0001000000000000000000AB
:1001800001000100010001004D000100010001001B
:10019000010001004A00010001000100000001000F
:1001A0000100010001000100010001004B000100FD
:1001B0000100010001000100010000000100010038
:1001C00001004E004E0001005000510052004F004F
:1001D000010001000000010000000100000001001A
:1001E0004C00010001004B00010001000100010072
:1001F00001000100010000000100010001000000F9
:1002000000000100000000000100010001000000EA
:1002100000000000000044454255473A20646973DD
:1002200061626C65642E0A0044454255473A206578
:100230006E61626C65642E0A000A002530313662F8
:10024000003A200025303258000A722F63203031E6
:1002500032333435363738394142434445460A0053
:100260000A002530325820006B6579626F61726434
:100270005F7265706F72743A20000A002530325840
:10028000006B6579626F6172645F7365745F6C6542
:10029000643A2000290A002575002F002575005DAD
:1002A000280025640020002564002000256400202B
:1002B000002564007C0025303258006D6F75736531
:1002C0006B6579205B62746E7C782079207620687B
:1002D0005D287265702F61636C293A205B006D6B3D
:1002E0005F776865656C5F74696D655F746F5F6D7E
:1002F0006178203D2025640A006D6B5F7768656535
:100300006C5F6D61785F7370656564203D20256466
:100310000A006D6B5F74696D655F746F5F6D617806
:10032000203D2025640A006D6B5F6D61785F7370FE
:10033000656564203D2025640A006D6B5F696E74FD
:10034000657276616C203D2025640A006D6B5F64E8
:10035000656C6179203D2025640A006D6B5F7768CC
:1003600065656C5F74696D655F746F5F6D61782042
:100370003D2025640A006D6B5F776865656C5F6D75
:1003800061785F7370656564203D2025640A006DA7
:100390006B5F74696D655F746F5F6D6178203D2080
:1003A00025640A006D6B5F6D61785F7370656564CD
:1003B000203D2025640A006D6B5F696E746572765E
:1003C000616C203D2025640A006D6B5F64656C6183
:1003D00079203D2025640A000A00257500363A2060
:1003E000776865656C5F74696D655F746F5F6D617B
:1003F000783A20000A00257500353A20776865654F
:100400006C5F6D61785F73706565643A20000A0007
:10041000257500343A2074696D655F746F5F6D6196
:10042000783A20000A00257500333A206D61785F24
:1004300073706565643A20000A00257500323A2021
:10044000696E74657276616C286D73293A20000AB2
:1004500000257500313A2064656C6179282A3130B5
:100460006D73293A20000A092D2056616C75657359
:10047000202D0A004D3E004D25643E20003F0073B4
:1004800065742064656661756C740A00433E2000E3
:1004900077686572652064656C74613A2063757273
:1004A000736F723D25642C20776865656C3D25640B
:1004B0000A53656520687474703A2F2F656E2E7725
:1004C000696B6970656469612E6F72672F77696BFC
:1004D000692F4D6F7573655F6B6579730A000A0943
:1004E0002D204D6F7573656B6579202D0A4553433B
:1004F0002F713A09717569740A313A0964656C6142
:1005000079282A31306D73290A323A09696E746587
:100510007276616C286D73290A333A096D61785FD0
:1005200073706565640A343A0974696D655F746F48
:100530005F6D61780A353A09776865656C5F6D6152
:10054000785F73706565640A363A09776865656C2B
:100550005F74696D655F746F5F6D61780A0A703AE8
:10056000097072696E742076616C7565730A643AFD
:10057000097365742064656661756C74730A7570BF
:100580003A092B310A646F776E3A092D310A706788
:1005900075703A092B31300A7067646F776E3A09CB
:1005A0002D31300A0A7370656564203D2064656CE6
:1005B0007461202A206D61785F7370656564202AFC
:1005C0002028726570656174202F2074696D655FE5
:1005D000746F5F6D6178290A003F004D3E20004333
:1005E0003E20004C25640A0074696D65725F726577
:1005F0006164333228293A202530346C580A006867
:100600006F73745F6B6579626F6172645F6C656450
:100610007328293A2025580A000A092D20537461AD
:10062000747573202D0A004743433A20372E342E29
:1006300030204156522D4C4942433A20322E302E22
:1006400030204156525F415243483A20617672351C
:100650000A004F5054494F4E533A205655534220AA
:100660004D4F5553454B45592045585452414B45E4
:100670005920434F4E534F4C4520434F4D4D414E13
:100680004420343039360A004255494C443A20223D
:10069000302E362E3434392D31392D67626331399D
:1006A00063662D646972747922202832313A3038B9
:1006B0003A353720417567203134203230313929BD
:1006C0000A005649443A2030783230413028536984
:1006D0006E676120616E642054475229205049445E
:1006E0003A2030783432324428556E696B6F726E1E
:1006F00020363029205645523A2044455649434534
:100700005F5645520A00444553433A2044455343FB
:1007100052495054494F4E0A000A092D205665721D
:1007200073696F6E202D0A000A092D20436F6E73C6
:100730006F6C65202D0A4553432F713A0971756915
:10074000740A6D3A096D6F7573656B65790A000AF5
:10075000092D204D61676963202D0A443A094465DB
:10076000627567204D65737361676520546F6767B5
:100770006C650A583A094D61747269782044656263
:100780007567204D6F646520546F67676C65202D19
:100790002053686F77206B6579707265737365732A
:1007A00020696E206D617472697820677269640ACD
:1007B0004B3A094B6579626F6172642044656275DA
:1007C0006720546F67676C65202D2053686F772012
:1007D0006B65797072657373207265706F72740ADD
:1007E0004D3A094465627567204D6F7573652054F5
:1007F0006F67676C650A563A0956657273696F6E62
:100800000A533A095374617475730A433A09416390
:1008100074697661746520436F6E736F6C65204DEB
:100820006F64650A46312D4631303A095377697451
:10083000636820746F204C6179657220302D3920F7
:1008400028463130203D204C30290A302D393A09D4
:1008500053776974636820746F204C6179657220E6
:10086000302D390A47524156453A09537769746326
:100870006820746F204C6179657220302028616C8B
:100880007465726E617465290A423A094A756D7021
:1008900020746F20426F6F746C6F616465720A45DB
:1008A00053433A094A756D7020746F20426F6F741C
:1008B0006C6F616465722028616C7465726E61741E
:1008C00065290A453A095072696E742045455052AF
:1008D0004F4D2053657474696E67730A42535041DB
:1008E00043453A09436C65617220454550524F4D6E
:1008F0000A000A002575002E6C6576656C3A2000AA
:100900000A002575002E656E61626C653A20000A4A
:100910000025303258006261636B6C696768745FF0
:10092000636F6E6669672E7261773A20000A002550
:1009300075002E6E6B726F3A20000A002575002E2E
:10094000737761705F6261636B736C6173685F6220
:1009500061636B73706163653A20000A002575005E
:100960002E737761705F67726176655F6573633A56
:1009700020000A002575002E6E6F5F6775693A20AA
:10098000000A002575002E737761705F72616C74C8
:100990005F726775693A20000A002575002E73772B
:1009A00061705F6C616C745F6C6775693A20000AF6
:1009B000002575002E636170736C6F636B5F746FDD
:1009C0005F636F6E74726F6C3A20000A00257500C9
:1009D0002E737761705F636F6E74726F6C5F6361AB
:1009E00070736C6F636B3A20000A00253032580038
:1009F0006B65796D61705F636F6E6669672E72619A
:100A0000773A20000A002575002E6D6F7573653AE0
:100A100020000A002575002E6B6579626F61726493
:100A20003A20000A002575002E6D61747269783ACB
:100A300020000A002575002E656E61626C653A2003
:100A4000000A00253032580064656275675F636F85
:100A50006E6669672E7261773A20000A002575007C
:100A600064656661756C745F6C617965723A2000CB
:100A70003F000A6D6F7573653A206F66660A000A5B
:100A80006D6F7573653A206F6E0A000A6B65796247
:100A90006F6172643A206F66660A000A6B6579625C
:100AA0006F6172643A206F6E0A000A6D6174726938
:100AB000783A206F66660A000A6D61747269783A46
:100AC000206F6E0A000A64656275673A206F666679
:100AD0000A000A64656275673A206F6E0A000A0AA6
:100AE0004A756D70696E6720746F20626F6F746CE9
:100AF0006F616465722E2E2E2000433E2000436CF1
:100B0000656172696E6720454550524F4D0A006518
:100B100065636F6E6669673A0A006261636B6C6950
:100B200067687420737465703A2025750A006261E5
:100B3000636B6C696768742064697361626C650AD1
:100B4000006261636B6C6967687420656E61626CDA
:100B5000650A006261636B6C6967687420746F6713
:100B6000676C653A2025750A006261636B6C696782
:100B700068742064656372656173653A2025750A3F
:100B8000006261636B6C6967687420696E6372658B
:100B90006173653A2025750A006D61696E206C6F7E
:100BA0006F700A00696E6974466F72557362436FA5
:100BB0006E6E656374697669747928290A000A0083
:100BC00025303258005345545F4C45443A20000AC2
:100BD0000056454E444F523A00554E4B4E4F574EDD
:100BE0003A005345545F4C45443A20005345545F06
:100BF0005245504F52543A20002530325800534548
:100C0000545F49444C453A20004745545F49444CA1
:100C1000453A20004745545F5245504F52543A00E0
:100C20006B6275663A2066756C6C0A00290A0025AD
:100C3000303258005D28002575002D3E00257500D6
:100C4000562D5553423A206B6275665B0009023B94
:100C50000002010080FA09040000010301010009FB
:100C6000210101000122400007058103080001095C
:100C70000401000103000000092101010001228498
:100C8000000705830308000105010902A10185028F
:100C90000901A100050919012905150025017501A2
:100CA000950581027503950181030501093009311C
:100CB0001581257F75089502810609381581257FE4
:100CC00035004500750895018106050C0A380215A6
:100CD00081257F750895018106C0C005010980A1A5
:100CE000018503150126B700190129B77510950173
:100CF0008100C0050C0901A10185041501269C0293
:100D000019012A9C02751095018100C00501090690
:100D1000A10175019508050719E029E715002501CE
:100D20008102950175088103950575010508190172
:100D30002905910295017503910395067508150023
:100D400026FF000507190029FF8100C012011001CC
:100D500000000008A0202D42000201020001100343
:100D600075006E0069006B006F0072006E00120368
:100D7000730069006E006700610074006700720014
:100D80000403090411241FBECFE5D8E0DEBFCDBFA8
:100D900004B603FE24C080912C0290912D02A091F4
:100DA0002E02B0912F028730904BA740B04BB9F480
:100DB00010922C0210922D0210922E0210922F02ED
:100DC00014BE84B7877F84BF0FB6F894A89581B509
:100DD000886181BD11BC0FBEE0E0F8E3099510E029
:100DE000A0E6B0E0E6E7F4E502C005900D92A23976
:100DF000B107D9F722E0A2E9B0E001C01D92AC3200
:100E0000B207E1F70E9410260C94392A0C940000D6
:100E1000FF93EF93E0919200F0919300309709F0E7
:100E20000995EF91FF910895FC018591803011F0B3
:100E3000EFDFFBCF0895FF27E0E230E247FF0CC071
:100E4000419597FF09C0EDE260957095809590956A
:100E5000611D711D811D911D27FF02C0219530E389
:100E600050E2AA27660F771F881F991FAA1FA41791
:100E700010F0A41B63955A95A9F7AA3008F0A95F52
:100E8000A05DAF93F395611571058105910541F75B
:100E9000ED3211F4EF93F395F21718F43F93F395B5
:100EA000FBCF8F91B5DFFA95E1F70895E991F991BC
:100EB0008591803021F0853219F0AADFF9CF0895AD
:100EC00020E0E89455915532C1F3503311F4689401
:100ED00055915A3348F4505390F3220F022E220FAB
:100EE000220F200D250FF4CF0EF4219589919991B1
:100EF000533619F3533729F1533559F1BC0188277B
:100F00009927E8945C3621F48991999168945591D8
:100F1000543639F446EF7EF077FF0DC08FEF9FEF28
:100F20000AC055374AE039F0583540E121F05236D1
:100F300042E009F00895FF93EF937DDFEF91FF9179
:100F4000B7CFFF93EF93FC0181918030B9F360DF5D
:100F5000FBCFFF93EF9368DFF1CFDF93CF93CDB754
:100F6000DEB72596A3DFCF91DF910895A82FB92F83
:100F700080E090E041E050EA609530E009C02D91BA
:100F800082279795879510F084279527305EC8F3C0
:100F90006F5FA8F30895EADF8D939D930895CF9333
:100FA000CFB7CF93C395839BE9F7839B0EC0839BF9
:100FB0000CC0839B0AC0839B08C0839B06C0C09162
:100FC0000302C395C0930302A3C0DF93C091020242
:100FD000DD27C65FDD4F839B02C0DF91E6CF2F93F5
:100FE0000F931F9300B32FEF03FB20F94F933F9311
:100FF00010B34FEF012703FB21F93BE031C04E7FD7
:10100000012F10B3216028C0102F4D7F22600000F7
:1010100000B329C04B7F2460012F000010B32BC008
:1010200010B3477F28602AC04F7E00B320612CC0D8
:101030004F7D10B320622FC04F7B00B3206432C0BD
:10104000422700B349934FEF0000102713FB20F90C
:1010500010B31C70C9F1297F91F2012703FB21F91C
:1010600000B3237F89F2315058F1102713FB22F986
:1010700010B3277E79F2012703FB23F92F7C81F23D
:1010800000B3102713FB24F92F7971F200C010B3BD
:10109000012703FB25F92F7359F200C000B3102775
:1010A00013FB26F9223040F200C010B3012703FBE6
:1010B00027F9243028F64F77206810B30000F9CFC5
:1010C00010E81ABF002719C03B503195C31BD04010
:1010D00010E81ABF0881033CF9F00B34E9F02091C5
:1010E00000021981110F1213EDCF4A81441F0936F6
:1010F00041F10D3211F0013E29F7009308023F91B2
:101100004F911F910F912F91DF91CAB7C7FD4ACF21
:10111000CF91CFBFCF91189520910802222379F368
:10112000109106021123C1F53430C2F1309306024A
:1011300020930102109102023BE0311B3093020226
:101140002DC00091060201303CF50AE54F7049F4CC
:101150003091730034FD24C000937300C9EED1E0D8
:1011600023C0433049F03091F40134FD19C000939D
:10117000F401C5EFD1E018C03091200234FD10C059
:1011800000932002C1E2D2E00FC02795A8F451508D
:10119000A9F4220F0000F9CF4AE503C042ED01C0D7
:1011A000432FC4E1D0E032E011B31C60939A11BB2D
:1011B00002B320E41CE05F93012756E002BB2795B1
:1011C00020F4515021F4220FF9CF012756E00000FE
:1011D0003B5A02BBD0F2279528F4515029F4220F34
:1011E0000000F9CF012756E0279502BB20F45150AB
:1011F00021F4220FF9CF012756E02991332302BBB6
:1012000021F6037F10910702110FC651D04002BB97
:1012100011F01093000210E81ABF086011B3137F99
:10122000402F437F5F9100C000C002BB11BB42BB97
:1012300066CF0C943F0D08950C941B09889A899AE7
:101240008C9A8E9A909A919A949A969A089581116E
:1012500005C090989198949896980895909A919A2C
:10126000949A969A089581E0089581E008950C94E7
:1012700035091F93CF93DF9300D000D01F92CDB7D5
:10128000DEB749835A836B832091C00089819A819C
:1012900021111BC06623A9F00E944C1A182F682F39
:1012A00089819A810E94F21969817A81812F0F9038
:1012B0000F900F900F900F90DF91CF911F910C9492
:1012C000940A0E94211A182FEFCF0E944C1A6981AC
:1012D0007A81EDCFFC0140815181628173818481EB
:1012E0000C9439090C941C090E94B81B811102C08E
:1012F0000E94471C0E941E090C94190908950C9421
:101300007E090C947F0908950E9401150E948309AB
:101310002FEB87E299E0215080409040E1F700C038
:1013200000000C94F61C0F931F93CF93DF938C0156
:101330000E946A09EC01B8010E943709882389F1EB
:10134000B801CE010E94380F882359F1C5318CE5D0
:10135000D80798F4C230ECE5DE0708F03EC0C115AE
:10136000FCE5DF07C9F0C130DC4509F1C801DF91B8
:10137000CF911F910F910C943309C631ECE5DE0734
:1013800009F4AEC0CE3DDC4589F7F801828188239F
:1013900041F00E94471C05C0F801828181110E9422
:1013A000840980E0DF91CF911F910F910895F8019A
:1013B00082818823B1F390914001892F8E7F90FF25
:1013C00081608093400180FF05C088E292E00E9426
:1013D0001407E7CF86E192E0FACFF80182818823F3
:1013E00029F20E94B81B811102C00E94471C0E9472
:1013F000CB1B90E09093E7018093E601FE01E35060
:10140000FC458091E6018160E231F105C8F4E55FB9
:10141000F54F0C94D1291D0A290A2D0A310A350AE3
:10142000390A3D0A410A450A490A4D0A510A550A34
:10143000590A5D0A610A650A690A8091E6018260BB
:101440008093E6018091E6010E94CF1B0E94011566
:10145000A8CF8091E6018460F3CF8091E601886097
:10146000EFCF8091E6018061EBCF8091E601806251
:10147000E7CF8091E6018064E3CF8091E601806848
:10148000DFCF8091E6018460EACF8091E6018E7F14
:10149000D7CF8091E6018D7FD3CF8091E6018B7FFE
:1014A000CFCF8091E601877FCBCF8091E6018F7E01
:1014B000C7CF8091E6018F7DC3CF8091E6018F7BFE
:1014C000BFCF8091E6018F77BBCF8091E6018B7F04
:1014D000EACF9091E601892F97FB87F98058B0CF2A
:1014E0000E94E11AF8019281992381F08A7A91E0B1
:1014F00009F490E090939400811106C089E20E9463
:10150000BC1A0E94301B4DCF85E3F9CF8091940027
:10151000811104C089E20E94C31AF3CF85E3FBCF97
:1015200090E080E008950895972F70E02FE0929F5B
:10153000600D711D1124FB019BE4899FE00DF11DDD
:101540001124EE0FFF1FEC5AFF4F859194910895DF
:10155000FC01EE0FFF1FE75CFD4F8591949108950C
:10156000CF93DF930E94940A0E949C0CEC0181159A
:10157000914508F04BC0C11580E5D80708F034C18B
:10158000C83ED10510F5C03ED10580F5C83AD10559
:1015900070F4C53AD10508F0B2C0C130D10531F1BF
:1015A00018F0C430D10510F5D0E0C0E01FC0CF3B2B
:1015B000D10508F4AFC0CE01805C9109C03CD105D3
:1015C00098F30E94A80AEC0111C0C11520E3D207CC
:1015D00088F4C11580E2D80708F0FDC0C03FD105EE
:1015E00018F3CF3FD10509F008F4F3C0CE01DF9125
:1015F000CF910895C11520E4D20708F0F2C0CE01C2
:101600009927D3FFEBC0EC01D86CF0CFC11589E569
:10161000D80768F5C11528E5D20708F02EC1C11515
:1016200084E5D80778F4C11523E5D20708F00CC18A
:10163000C11582E5D80708F0F3C0DC2FCC27C16FB5
:10164000D06AD4CFC11525E5D20708F411C1C11560
:1016500086E5D80708F0A8CF8C2F0E941C0DC82F54
:10166000D0E0DC2FCC27CC27DF71D062BFCFCD3BC1
:101670002CE5D20709F40CC1E0F4CB3B2CE5D207F2
:1016800009F400C108F001C1C1152AE5D20708F02C
:101690008BCF8C2F8F700E941C0D34E0D695C79590
:1016A0003A95E1F7CF70D0E0DC2FCC27D069C82B7A
:1016B0009DCFC03C8CE5D80709F4F0C060F4CE3B68
:1016C0008CE5D80709F4E7C0CF3BDC4509F06CCFC7
:1016D000C0E0D2ED8BCFCE0190568115904208F03C
:1016E00063CF8D2F8F710E941C0DDD27D06290E09B
:1016F000982F882788279F71C82BD92B77CFC53A79
:10170000D10509F4CEC0C63AD10509F4CDC0C3E86D
:10171000D0E46CCFC83AD10509F4C9C0C93AD105A3
:1017200009F4C8C0CA3AD10509F4C7C0CB3AD105FB
:1017300009F4C6C0CC3AD10509F4C5C0CB3BD105EC
:1017400009F4C4C0CC3BD10509F4C3C0CD3AD105DE
:1017500009F4C2C0C03BD10509F4C1C0CE3AD105DD
:1017600009F4C0C0CF3AD10509F4BFC0C13BD105CF
:1017700009F4BEC0C23BD10509F4BDC0C33BD105CD
:1017800009F4BCC0C43BD10509F4BBC0C53BD105BD
:1017900009F4BAC0C63BD10509F4B9C0C73BD105AD
:1017A00009F4B8C0C83BD10509F4B7C0C93BD1059D
:1017B00009F4B6C0CD3BD10509F4B5C0CE3BD10587
:1017C00009F4B4C0CA3BD10509F0B3C0CAE2D6E4FB
:1017D0000DCFD0650BCFCE019F70F3CEEC01D06C56
:1017E00005CFDF70D06A02CFCE01F4E096958795E1
:1017F000FA95E1F783709C2F937021E030E002C0EE
:10180000220F331F9A95E2F73C68382BC695C69590
:10181000C37080E2C89FE0011124C22BD32BE6CE17
:10182000CE018370992721E030E002C0220F331FE0
:101830008A95E2F7C695C69580E2C89FE00111241B
:10184000C22BD32BDC68D2CECE018370992721E046
:1018500030E002C0220F331F8A95E2F7C695C69585
:1018600080E2C89FE0011124C22BD32BDA68BECEE0
:10187000DC2FCC27C46FD06AB9CEDC2FCC27C06F49
:10188000D06AB4CEC0E0D4EDB1CEC0E0D5EDAECEDE
:10189000C0E0D1EDABCEC0E0D0EDA8CEC0E0D3ED3E
:1018A000A5CEC1E8D0E4A2CEC2E8D0E49FCEC2EE7D
:1018B000D4E49CCEC9EED4E499CECAEED4E496CE5C
:1018C000C5EBD4E493CEC6EBD4E490CEC3EBD4E422
:1018D0008DCEC4EBD4E48ACEC7EBD4E487CECCEC77
:1018E000D4E484CECDECD4E481CEC3E8D5E47ECE7E
:1018F000CAE8D5E47BCEC2E9D5E478CEC4E9D5E424
:1019000075CEC1E2D6E472CEC3E2D6E46FCEC4E2B5
:10191000D6E46CCEC5E2D6E469CEC6E2D6E466CEA5
:10192000C7E2D6E463CECFE6D4E460CEC0E7D4E429
:101930005DCEC0E0D4E45ACE8238910549F1B0F4CE
:101940008133910509F45CC048F48932910509F4AA
:1019500052C08A32910509F458C008958533910523
:1019600009F444C08933910599F00895833E9105A7
:1019700031F138F4803E910591F0823E9105B1F04D
:101980000895863E910511F1873E910541F1089534
:101990002091E6012370C9F080EE90E00895209137
:1019A000E60120FF12C089E390E008952091E6014E
:1019B00022FF0BC024FF2EC090E080E0089520910C
:1019C000E60122FD2AC024FDF7CF08952091E6010B
:1019D00023FFFBCF24FDF0CF87EE90E00895209108
:1019E000E60123FFF0CF86EE90E008952091E60116
:1019F00025FD16C008952091E60125FD14C0089527
:101A00002091E60126FD12C008952091E60126FDF1
:101A100010C0089583EE90E0089582EE90E008955E
:101A200089E290E0089585E390E008958AE290E0ED
:101A3000089581E390E0C9CF9091E60192FF06C03E
:101A4000282F2871283069F4877F846093FF06C0AF
:101A5000282F2871283161F4877E846194FD877E68
:101A60000895282F2471243089F78B7F8860EECF6A
:101A7000282F2471243191F78B7E8861EFCF089550
:101A8000E82FF0E0EE0FFF1FEB56FF4F80819181B2
:101A90000895CF92DF92EF92FF920F931F93CF930F
:101AA000DF9389E492E00E94140785E9E82E80E044
:101AB000F82ED0E0C0E094E4C92E92E0D92E0BE3DA
:101AC00012E0DF93CF93DF92CF920E94AD0781E4C3
:101AD00092E00E941407F701819191917F010E9489
:101AE000AB1B9F938F931F930F930E94AD0789E3C6
:101AF00092E00E94140721968DB79EB708960FB604
:101B0000F8949EBF0FBE8DBFC530D105D1F6DF91D1
:101B1000CF911F910F91FF90EF90DF90CF9008959C
:101B2000CF93DF93A3E8B0E048E850E0C1E0D0E015
:101B30008D91E82FE295EF70F0E061A98F709E0122
:101B400001C0220F8A95EAF7922F9095962391ABC8
:101B500082A9822B82AB4A175B0751F7A4E7B0E05A
:101B600061E070E08D91E82FE295EF70F0E041A91F
:101B70008F709B0101C0220F8A95EAF7922F9095F2
:101B8000942391AB82A9822B82AB80E0A338B80763
:101B900049F71092A00010929F00109296001092A8
:101BA00095001092A2001092A1001092980010923D
:101BB00097001092A4001092A30010929A00109225
:101BC00099001092A6001092A50010929C0010920D
:101BD0009B001092A8001092A70010929E001092F5
:101BE0009D0085E00E948A0EDF91CF910C947409CC
:101BF0007F928F929F92AF92BF92CF92DF92EF929D
:101C0000FF920F931F93CF93DF93AFE9B0E043E8C8
:101C100050E0712CEE24E394F12CAD90BC90119720
:101C200011961C921E92EA018991AE01E82FE2956D
:101C3000EF70F0E091A98F70B70101C0660F8A952F
:101C4000EAF7892F862B81AB82A9962E9094892161
:101C500082ABD8E7DA95F1F784E7C82E80E0D82E7A
:101C600030E020E0E60189906E01082D02950F70AA
:101C700010E0E80188A90D911C91119790E0D82DF2
:101C8000DF7002C095958795DA95E2F780FD3FC039
:101C9000C701022E02C0880F991F0A94E2F7082B91
:101CA000192B11961C930E932F5F3F4F2F30310548
:101CB000C9F681A9892181AB82A9682B62AB81E039
:101CC0002D913C9111972A153B0509F480E0782A63
:101CD0001296D0E048385D0709F09FCF272D45E0E8
:101CE00065E970E08FE990E00E948B0E0E94720916
:101CF000872DDF91CF911F910F91FF90EF90DF9093
:101D0000CF90BF90AF909F908F907F90089590E07C
:101D100080E0C5CF0895FF920F931F93CF93DF9379
:101D2000F82E092F162FD72FC42F222349F081E038
:101D30008093AB000E948E1C9093AA008093A90010
:101D40008091AB008823A1F08091A9009091AA0016
:101D50000E94A61C069760F0EF2DF02FA12FBD2F3B
:101D600090E080E0D0E08C179D0744F01092AB002B
:101D7000DF91CF911F910F91FF90089521913191A3
:101D80002D933D930196EFCF0F931F93CF93DF9346
:101D9000C62FD42F022FFC0182818823C9F06093C3
:101DA000AE000E948E1C9093AD008093AC0080E248
:101DB0008C0F883008F057C0C77081E001C0880FD1
:101DC000CA95EAF7DF91CF911F910F910C942512DC
:101DD0001091AE00161335C08091AC009091AD000B
:101DE0000E94A61C883C910560F5C0E2CD0F1D172E
:101DF000B9F080E2810F883040F4177081E001C0B3
:101E0000880F1A95EAF70E942C12C83028F581E055
:101E10009D2F977001C0880F9A95EAF70E942512AE
:101E2000802F0E941212C830F0F4D77081E001C0F8
:101E3000880FDA95EAF7DF91CF911F910F910C94FB
:101E40002C1280E28C0F883070F4C77081E001C0E2
:101E5000880FCA95EAF7EFCF802FDF91CF911F91BE
:101E60000F910C941212DF91CF911F910F91089551
:101E70009C01CB01203F4CE5340731F190F4283D23
:101E8000FCE53F07E9F0293D4CE5340769F1273DC2
:101E90003C4579F426E241EE61EE0E94C40E80E0FA
:101EA0000895223FFCE53F07B9F090F0233F3C4501
:101EB000B9F0FC0182818823D1F01092AE00089520
:101EC00027E245EE65EEE9CF26E241EE60EEE5CF92
:101ED00027E245EE64EEE1CF26E241EE62EEDDCF91
:101EE00027E245EE66EED9CF28E241E0EBCF81E074
:101EF00008959093B4008093B3000895E091B300E7
:101F0000F091B400309721F00190F081E02D099418
:101F100080E00895EF92FF920F931F93CF93DF938A
:101F20008C01E091B300F091B4003097C1F10280D0
:101F3000F381E02D09958091400182FF30C080FF40
:101F400004C088E692E00E941407D0E0C0E082E678
:101F5000E82E82E0F82E8091400180FF0EC0F8014B
:101F6000EC0FFD1F80811F928F93FF92EF920E94D2
:101F7000AD070F900F900F900F902196C830D105AC
:101F800051F78091400180FF0AC080E692E0DF9126
:101F9000CF911F910F91FF90EF900C941407DF9158
:101FA000CF911F910F91FF90EF900895E091B300B2
:101FB000F091B400309721F00480F581E02D099470
:101FC00008952091B1003091B2002817390771F0BF
:101FD0009093B2008093B100E091B300F091B4000F
:101FE000309721F00680F781E02D09940895209123
:101FF000AF003091B0002817390771F09093B0000E
:102000008093AF00E091B300F091B400309721F0DD
:102010000084F185E02D09940895089508950C94A5
:102020000D1008950C9411100E940E100C940F10B6
:1020300081E008950E94871C0E94900D0E940F1D50
:102040000E94E4240C941210CF93C82F8091400179
:1020500082FF1EC080FF04C081E892E00E94140746
:102060008091400180FF0CC01F92CF938CE792E0DB
:102070009F938F930E94AD070F900F900F900F903A
:102080008091400180FF04C08AE792E00E9414071B
:102090008C2FCF910C9481095F926F927F928F92D7
:1020A0009F92AF92BF92CF92DF92EF92FF920F93E7
:1020B0001F93CF93DF93CDB7DEB72A970FB6F8946F
:1020C000DEBF0FBECDBF0E94F80D0E9418108823FE
:1020D00009F47AC096EBA92E90E0B92E10E000E04A
:1020E00088248394912C502E802F0E94400D7C01D7
:1020F000F501C190D1905F01C816D90609F45EC000
:102100008091400181FD0E94490D90E080E0CE2445
:10211000DF243401082E02C0660C771C0A94E2F713
:10212000960126213721232B09F443C08E835F8239
:10213000E620F72081E0EF2809F480E088870E94FC
:102140008E1C8160782F9A8789874E815F81688590
:102150008A850E940B11000F111FF801EA54FF4FEE
:102160008081918168267926718260820E94241F75
:102170000E947E0F9091B5008917B9F10E947E0FE1
:102180008093B5002A960FB6F894DEBF0FBECDBF80
:10219000DF91CF911F910F91FF90EF90DF90CF9043
:1021A000BF90AF909F908F907F906F905F900C94B6
:1021B000241001968F30910509F0ABCF0F5F1F4FB0
:1021C0000530110509F08FCF8FEF89838A831B8239
:1021D0000E948E1C8160782F9D838C8349815A8157
:1021E0006B818D810E940B11C1CF2A960FB6F89496
:1021F000DEBF0FBECDBFDF91CF911F910F91FF903A
:10220000EF90DF90CF90BF90AF909F908F907F9096
:102210006F905F900895CF93DF93CDB7DEB72B9784
:102220000FB6F894DEBF0FBECDBF4F8358876987C6
:102230007A878B871E821D8285E0FE013796DE013C
:10224000119601900D928A95E1F749815A816B812F
:102250007C818D819E812B960FB6F894DEBF0FBED8
:10226000CDBFDF91CF910C94C317FC018081918188
:102270000C948E1ACF93C82F882309F4A2C08CEF38
:102280008C0F813A58F48C2F0E94A223811199C09F
:102290008C2F0E94BC1ACF910C94301B80E28C0FC3
:1022A000883048F4C77081E001C0880FCA95EAF70A
:1022B0000E94E41AF0CF8BE58C0F833068F481E83C
:1022C00090E0C53A31F083E890E0C63A11F482E834
:1022D00090E0CF910C94E10F88E58C0F873108F0E6
:1022E00068C082EE90E0C83A09F460C089EE90E0E0
:1022F000C93A09F45BC08AEE90E0CA3A09F456C0C4
:1023000085EB90E0CB3A09F451C086EB90E0CC3AF3
:1023100009F44CC083EB90E0CB3B09F447C084EB5D
:1023200090E0CC3B09F442C087EB90E0CD3AF1F16C
:102330008CEC90E0C03BD1F18DEC90E0CE3AB1F165
:1023400083E891E0CF3A91F18AE891E0C13B71F1E5
:1023500082E991E0C23B51F184E991E0C33B31F164
:1023600081E292E0C43B11F183E292E0C53BF1F0DF
:1023700084E292E0C63BD1F085E292E0C73BB1F047
:1023800086E292E0C83B91F087E292E0C93B71F0AF
:102390008FE690E0CD3B51F080E790E0CE3B31F00E
:1023A00090E080E0CA3B11F48AE292E0CF910C9475
:1023B000F70FC03F30F08C2F0E94AB1DCF910C94D3
:1023C000971ECF910895882361F19CEF980F913A61
:1023D00020F40E94C31A0C94301B90E2980F98309E
:1023E00050F4877091E001C0990F8A95EAF7892F20
:1023F0000E94EA1AF0CF9BE5980F933020F490E00A
:1024000080E00C94E10F98E5980F973120F490E06C
:1024100080E00C94F70F803F20F00E94131E0C9474
:10242000971E0895CF93C82F0E943A11C93349F4DB
:102430002FEF8DEE92E0215080409040E1F700C0F8
:1024400000008C2FCF910C94E311882321F00E947F
:10245000E41A0C94301B0895882321F00E94EA1A94
:102460000C94301B0895CF92DF92EF92FF920F935E
:102470001F93CF93DF936C01D62FC72FFC010581EB
:1024800002950F70128111110E94031B0E94DA1A2B
:10249000E82E882371F0112331F180E28D0F88300E
:1024A00010F182E00E947B1B0E94DA1A91E0E82E74
:1024B000E926FC2EF2949FE0F922EF2DF0E0ED5991
:1024C000FD4E0C94D12975127512C212C21214134A
:1024D0003513A212A21277130614171417147E14C0
:1024E0008714A212AA14E12CE4CF0C2F0F70C07F26
:1024F00011F00295007F1123A9F0002359F080E22A
:102500008D0F883010F0D11109C0802F0E94E41A7D
:102510000E94301B8D2F0E943A1114C0802F0E9400
:10252000F51AF6CF8D2F0E94E311002359F080E2B7
:102530008D0F883010F0D11121C0802F0E94EA1A2F
:102540000E94301BEE2009F40CC20E94D61A80FDB6
:1025500008C2F60112820E94D01A0E945619C601C2
:102560000E94BA140E94D01ADF91CF911F910F914F
:10257000FF90EF90DF90CF900C947719802F0E94FE
:10258000FB1ADECFFC2FFF70FF2EC07FC03219F088
:10259000F29480EFF822DD2369F0D13049F1112364
:1025A00091F1002351F1F601858180FFB3CF8F7047
:1025B000858323C0112381F0011106C00E94171BDF
:1025C0008F290E942512BECF0130C1F70E94171B30
:1025D0008F290E941D1BB6CF011106C00E94261B29
:1025E0008F2D0E942C12AECF013009F4ABCFF6CF65
:1025F000112329F0063008F0A5CF8F2DE2CF05304A
:1026000008F0A0CFEDCF002359F3D93349F4FFEF01
:102610002DEE82E0F15020408040E1F700C0000044
:102620008D2F0E94E3118ECF8C2F86958695837017
:1026300041F0813081F088EF8F0D843008F492C032
:1026400081CF8D2F9C2F9370111102C090E080E0FC
:102650000E94E10F77CF8D2F9C2F9370111102C034
:1026600090E080E00E94F70F6DCF112309F1D53F74
:1026700099F0D63FB9F0D43F49F48091E0019091B0
:10268000E10181609093E1018093E0018D2F0E9430
:10269000AB1D0E94971E56CF8091E0019091E10101
:1026A0008260F0CF8091E0019091E1018460EACFF7
:1026B000D53F89F0D63FA9F0D43F49F48091E0019D
:1026C0009091E1018E7F9093E1018093E0018D2F45
:1026D0000E94131EDECF8091E0019091E1018D7F79
:1026E000F2CF8091E0019091E1018B7FECCF8C2FB4
:1026F000837009F045C0111135C04D2F42954695A4
:102700004770440F440F0D2F0F7010E030E020E0B1
:10271000042E04C0000F111F221F331F0A94D2F78A
:1027200060E070E0CB01D4FF0FC06FE070E080E0AC
:1027300090E004C0660F771F881F991F4A95D2F753
:102740006095709580959095602B712B822B932BC3
:10275000C695C695C370C23069F078F4C13039F0BF
:102760000E9408190E947E0F0E948109EBCE0E94F0
:10277000F618F8CF0E941A19F5CF0E94F418F2CF7C
:102780008695112311F08C2F8170882359F34D2FDA
:10279000429546954770440F440F0D2F0F7010E07F
:1027A00030E020E0042E04C0000F111F221F331F51
:1027B0000A94D2F760E070E0CB01D4FF0FC06FE065
:1027C00070E080E090E004C0660F771F881F991FBB
:1027D0004A95D2F76095709580959095602B712BF6
:1027E000822B932BC695C695C370C23049F058F41E
:1027F000C13019F00E94CD19B5CF0E94BB19B2CFDC
:102800000E94DF19AFCF0E943019ACCFCF701123D7
:1028100039F08C2F0E9456198D2F0E942512A2CFBD
:102820008D2F0E942C128C2F0E9477199BCFD23FA4
:1028300099F170F4D03FD9F0D13F39F1112309F467
:1028400049C0002309F443C08D2F0E943A11F3CEF2
:10285000D33F49F1D43F91F7112379F1CF718C2FF8
:102860000E94561963E08C2F0E94661BE4CE112350
:1028700041F0053008F0DFCE8C2F8F710E949A193D
:10288000DACE063008F0D7CEF7CF8C2F8F71112318
:1028900039F00E945619CFCE8C2F8F711123C9F3B6
:1028A0000E947719C8CE112329F08C2F8F710E94B6
:1028B0004119C1CE0E943C19BECE81E00E947B1B13
:1028C000023008F4B8CE82E00E947B1BB4CE8C2F7D
:1028D0008F71DFCF002379F0D93349F49FEFEDEE0C
:1028E000F2E09150E040F040E1F700C000008D2F91
:1028F0000E94E311A0CE8C2F8F71D2CF4C2F4F703E
:102900006D2FC6010E94900A0E946C181BCE1111F7
:1029100019CECF70C230B1F040F4CC2381F0C13079
:1029200009F089CE0E942A250DCEC43089F068F0C6
:1029300080E0C53009F07FCE0E94F12503CE0E94D1
:10294000FF2400CE0E949725FDCD0E94B325FACD2D
:1029500081E0F2CF4C2F4F706D2FC6010E94930A79
:10296000F1CDDF91CF911F910F91FF90EF90DF900C
:10297000CF9008950F931F93CF93DF93EC0198812D
:1029800089812B813C81232B39F08F3F19F481E021
:102990009F3F19F080E001C081E080FD17C0CE01AB
:1029A0000E949309882391F0688179818A810E942D
:1029B000981A8C010E94F1190E94F318B801CE01F7
:1029C000DF91CF911F910F910C943312DF91CF9132
:1029D0001F910F9108950E94031B0E94141B0E94D7
:1029E000301B0E94BC1F0E94971E90E080E00E9456
:1029F000E10F90E080E00C94F70F0E94CA1A0C944B
:102A0000EB140E94F21A0C94FD14E92FE295EF707A
:102A1000E250EE30E0F4F0E0E05FFA4E0C94D129A1
:102A20001E151E15271527152915271527152715D6
:102A30001E151E152E15271527152E15803F19F06A
:102A400020F4883E20F481E00895843FE1F380E0A3
:102A50000895883EC0F3813FD1F7F5CF93FB8827D7
:102A600080F908950E948E1A0C940515CF93DF9378
:102A700000D000D01F92CDB7DEB70F900F900F900F
:102A80000F900F90DF91CF910895CF93DF9300D0F7
:102A900000D000D0CDB7DEB726960FB6F894DEBFD3
:102AA0000FBECDBFDF91CF9108951F93CF93DF93DA
:102AB000C091C10016E08091C2008C1304C0DF9168
:102AC000CF911F910895D0E01C9FF0011D9FF00D44
:102AD0001124ED53FF4F40815181628173818481C4
:102AE00095810E9445152196C770E5CF4091F3006E
:102AF0005091F4006091F5007091F6008091F7001C
:102B00009091F8000C9445151F93CF93DF9380911B
:102B1000F800807FD1F48091F5008823B1F0809196
:102B2000C100D091C200B091F300C091F400409177
:102B3000F6005091F700A1E0BF3F09F0A0E0BA0114
:102B40006095709516E0D81304C0DF91CF911F9166
:102B5000089521E04115510521F02A2FCF3F09F0BA
:102B600020E090E020FD38C0189FF001199FF00D83
:102B70001124ED53FF4F21812C132EC020812B13E4
:102B80002BC02281211128C02381348124173507CD
:102B900000F1241B350B283C3105F0F42091F8009E
:102BA0002F7020612093F80026E0289FF001299FD4
:102BB000F00D1124E853FF4F80818F708061808376
:102BC00083EF90E00E94BA14DF91CF911F910C9493
:102BD0005515260F371FDFCF01968770B4CFAF9200
:102BE000BF92CF92DF92EF92FF920F931F93CF93FA
:102BF000DF93CDB7DEB761970FB6F894DEBF0FBE97
:102C0000CDBF8C0185E0F801DE011D9601900D928B
:102C10008A95E1F7D8014C9111965C911197129623
:102C2000EC903091F3006091F4008091F600909167
:102C3000F70021E0009731F06F3F19F421E03F3FAA
:102C400009F020E0B22FB170BB2E20FD80C1F80149
:102C5000C380D480A090F500AA2009F427C1C8162B
:102C6000D906D0F1D601A81BB90BCD01FF24F394EE
:102C7000883C910508F0F12C8091F800982F907F06
:102C8000FF2009F4CEC0911187C0FE2C651329C026
:102C9000341327C0E11025C08F7080618093F80045
:102CA0000E94761583EF90E00E94BA148091F8009C
:102CB000F80185838F2D61960FB6F894DEBF0FBEA5
:102CC000CDBFDF91CF911F910F91FF90EF90DF90DB
:102CD000CF90BF90AF900895809590958C0D9D1DDD
:102CE000C5CF81E0CD2831F05F3F19F481E04F3F3F
:102CF00009F080E080FD24C081E08E25F82FF1707E
:102D0000DF2E80FF3FC08091C1002091C20036E0DD
:102D1000821318C04D875E878D859E850E948E1A0E
:102D2000292F22952F70223008F1243030F59F7022
:102D300009F1D80115969C91907FE1F4FB2CBACF54
:102D400080E0DCCF90E0389FF001399FF00D112436
:102D5000ED53FF4F6181561306C06081461303C0D7
:102D600062816E110FC001968770D2CF9F7011F0F3
:102D7000882321F3805E883008F3C8010E94BA14CA
:102D8000BD2CDCCFEE2009F495CF8091F800816056
:102D90008093F800F12C8ECF651314C0341312C049
:102DA000E11010C0F8018583C8010E94BA1486E0C2
:102DB000F801A3EFB0E001900D928A95E1F70E942F
:102DC000761578CF4D875E878D859E850E9432155A
:102DD000882319F1EE2009F18091F800803270F01B
:102DE0002091F3003091F40038872F831986DB8619
:102DF000CA868C87CE0107960E94BA1486E0F80135
:102E0000A3EFB0E001900D928A95E1F70E9484153E
:102E10000E947615FF24F3944DCFC8010E94BA1486
:102E2000F9CF911113C07C2DD98AC88A6E2D89895A
:102E30000E94361583EF90E00E94BA1486E0E3EF1B
:102E4000F0E0DF011D928A95E9F7B9CF651312C052
:102E5000341310C0E1100EC0F8018583C8010E9430
:102E6000BA14E3EFF0E086E0DF011D928A95E9F7FE
:102E7000FA2C20CF4D875E878D859E850E94321566
:102E8000882359F2EE2049F28091F800803208F44C
:102E9000B5CF2091F3003091F4003A8329831B824F
:102EA000DD82CC828E83CE010196A6CFC816D906CC
:102EB00038F1F601E81BF90BCF01F12C883C9105A4
:102EC00008F03DC0FE2CEE2009F4A7CF651326C004
:102ED000341324C08091F80080FD17C0982F907F94
:102EE000A1F0D80115968C931597903F09F45CCF0B
:102EF000982F907F905F8F70892B15968C9354CF6D
:102F0000809590958C0D9D1DD8CF86E0F801A3EF9C
:102F1000B0E001900D928A95E1F7CCCE4D875E87A7
:102F20008D859E850E943215811168CF8091F800B1
:102F300081608093F800C8010E94BA14BBCE7C2D3A
:102F4000D98AC88A6E2D89890E94361577CFEE20DE
:102F500009F463CF4D875E878D859E850E9432156B
:102F6000F82E882309F459CF86E0F801A3EFB0E0EA
:102F700001900D928A95E1F783EF90E00E94351160
:102F80000E9484151CCF1F93CF93DF93CDB7DEB77C
:102F90002C970FB6F894DEBF0FBECDBF4F83588776
:102FA00069877A878B879C87CE0107960E94EF15E9
:102FB000882309F442C09F8188852A853B85232B7D
:102FC00039F08F3F19F481E09F3F19F080E001C094
:102FD00081E080FD08C04F81588569857A858B85A1
:102FE0009C850E94451516E08091C1009091C20019
:102FF000891709F467C0819FC00111248D539F4F29
:103000000E94EF15882309F45DC0E091C1001E9F66
:10301000F0011124ED53FF4F408151816281738192
:10302000848195810E9445158091C10090E00196B0
:10303000877099278093C100D7CF86E0FE0137962D
:10304000DE01119601900D928A95E1F79F818885A6
:103050002A853B85232B39F08F3F19F481E09F3F70
:1030600019F080E001C081E080FDBDCF2091C20059
:1030700030E0C9010196877099274091C100481737
:10308000190699F096E0929FD001939FB00D1124FC
:10309000AD53BF4FFE01319601900D929A95E1F725
:1030A0008093C2000E9455159ECF0E940115109278
:1030B000C2001092C10086E0E3EFF0E0DF011D9254
:1030C0008A95E9F72C960FB6F894DEBF0FBECDBFF8
:1030D000DF91CF911F910895EF92FF920F931F936D
:1030E000CF93DF938C01892B81F0F12CEE24E394B4
:1030F000E8012196F8018491843770F4843008F057
:103100005FC08130B1F08230A1F1DF91CF911F918A
:103110000F91FF90EF900895853709F44CC008F4A3
:103120003DC09CE7980F903780F78F770E94E3119E
:1031300049C00E5F1F4FFE01849190E2980F9830B6
:1031400060F48770FE2D01C0FF0F8A95EAF78F2F7C
:103150000E94061B0E94301B02C00E943A118F2D54
:10316000815030F2E7EBFBE03197F1F700C000004F
:10317000F7CF0E5F1F4FFE01849190E2980F9830B9
:1031800050F48770FE2D01C0FF0F8A95EAF78F2F4C
:103190000E940C1BDFCF0E94E311E1CF0E5F1F4F97
:1031A000FE01C491C150D8F287EB9BE00197F1F783
:1031B00000C00000F7CF0E5F1F4FFE01F490CFCF8D
:1031C0000E943A118E01CBCF08950C94E4180E940E
:1031D000E51860932F017093300180933101909333
:1031E00032010C94EB1408950C94E7180F931F937D
:1031F00000912F0110913001209131013091320165
:10320000602B712B822B932B1F910F910C94E7183D
:103210000F931F9300912F011091300120913101E4
:103220003091320160237123822393231F910F91E8
:103230000C94E7180F931F9300912F011091300108
:103240002091310130913201602771278227932725
:103250001F910F910C94E7180C94E4180C942C19FE
:103260000E942E1960932B0170932C0180932D01E5
:1032700090932E010C94EB1460E070E0CB010C9461
:1032800030190F931F9341E050E060E070E08A0135
:103290009B0104C0000F111F221F331F8A95D2F714
:1032A000C901B8011F910F910C9430190F931F930E
:1032B00041E050E060E070E004C0440F551F661F1D
:1032C000771F8A95D2F780912B0190912C01A091C4
:1032D0002D01B0912E018A019B01082B192B2A2B5D
:1032E0003B2BC901B8011F910F910C9430190F931A
:1032F0001F9341E050E060E070E004C0440F551FB0
:10330000661F771F8A95D2F7CB01BA016095709539
:103310008095909500912B0110912C0120912D0109
:1033200030912E0160237123822393231F910F91EB
:103330000C9430190F931F9341E050E060E070E06F
:1033400004C0440F551F661F771F8A95D2F78091DE
:103350002B0190912C01A0912D01B0912E018A0199
:103360009B01082719272A273B27C901B8011F916C
:103370000F910C9430190F931F9300912B01109112
:103380002C0120912D0130912E01602B712B822B6D
:10339000932B1F910F910C9430190F931F93009151
:1033A0002B0110912C0120912D0130912E016023D1
:1033B0007123822393231F910F910C9430190F9343
:1033C0001F9300912B0110912C0120912D01309120
:1033D0002E0160277127822793271F910F910C944C
:1033E000301908952FE0929F800D1124982F977027
:1033F00071E001C0770F9A95EAF7869586958695D4
:1034000025E0829FC001112450E040E0A62FB0E0EB
:10341000FC01E40FF51FE750FF4F60819D01042E72
:1034200002C0369527950A94E2F721702195262748
:103430002723262720834F5F5F4F4530510541F7F3
:1034400008952FE0929F800D1124982F97708695F4
:103450008695869525E0829FA001112470E060E0AA
:1034600080E0FA01E60FF71FE750FF4F208130E0C0
:10347000092E02C0369527950A94E2F7217033276A
:10348000062E01C0220F0A94EAF7822B6F5F7F4F4E
:103490006530710531F70895BF92CF92DF92EF92B8
:1034A000FF920F931F93CF93DF938C01C0902B015A
:1034B000D0902C01E0902D01F0902E0180912F01F1
:1034C00090913001A0913101B0913201C82AD92ADE
:1034D000EA2AFB2ACFE1D0E0BC2ED701C6010C2E90
:1034E00004C0B695A795979587950A94D2F780FD65
:1034F0000EC0219788F7B12C8B2DDF91CF911F91B2
:103500000F91FF90EF90DF90CF90BF900895B8019A
:103510008C2F0E94B00A019761F3EECFCF93DF9317
:10352000EC010E944C1ABE01DF91CF910C94B00ABD
:103530001F93CF93DF93EB019091C000992331F05B
:10354000CB01DF91CF911F910C948E1A882379F0D3
:10355000CB010E944C1A182F682FCE010E94F2193D
:10356000BE01812FDF91CF911F910C94B00ACB0146
:103570000E94211A182FF4CF682F8091600090913B
:1035800061000C947C1C682F809160009091610018
:103590000C947E1C80916000909161000C94801CC2
:1035A00080913301859585958595089580913301A6
:1035B0008770089590913301977081E009F480E05D
:1035C000089580913F01089590913F01892B809348
:1035D0003F010895982F909580913F018923809312
:1035E0003F01089510923F01089590913E01892B6B
:1035F00080933E010895982F909580913E018923F4
:1036000080933E01089510923E01089590913D01EE
:10361000892B80933D010895982F909580913D01CD
:10362000892380933D01089510923D010895809172
:103630003401089508950C941A1B90913401981741
:1036400021F0809334010C941B1B08958091340168
:10365000882329F01092340180E00C941B1B0895FC
:10366000E0916000F091610080913F018083E091E2
:103670006000F0916100808190913E01892B8083F0
:10368000E0916000F0916100808190913D01892B73
:10369000808390913401992381F0E0916000F09152
:1036A00061008081892B808380916000909161000E
:1036B0000E94491C81110E94261B809160009091FC
:1036C00061000C948A0F08950C94631B98E0899F05
:1036D00090011124622B609333010E94561980914E
:1036E00033018595859585950C94641B1092330163
:1036F00080E00C94641B9091330180958923809322
:103700003301282F277071F4282F082E000C330B5B
:103710009217130639F08595859585950E9477193E
:103720000C94761B0895829590E09C01220F331F24
:10373000220F331F2C7C95958795959587958373DC
:10374000282B30E0C901880F991F8A7A3595279573
:103750002575822B0895CF93DF93D92F0E94931B59
:10376000C82F8D2F0E94931B9C2FDF91CF9108951E
:1037700090E080E00E94F32921E08D3E9E4F09F009
:1037800020E0822F089582E090E00C94EB2983E002
:1037900090E00C94EB2984E090E00C94EB29682FE6
:1037A00084E090E00C94F92986E090E00C94EB29F9
:1037B000682F86E090E00C94F929AB01BC018FE002
:1037C00090E00C940A2AAB01BC0183E190E00C94D8
:1037D0000A2A60E070E0CB010C94E31B60E070E02B
:1037E000CB010E94DD1B0C94E91B6DEE7EEF90E097
:1037F00080E00E94162A60E082E090E00E94F929B1
:1038000060E083E090E00E94F92910922F0110926D
:103810003001109231011092320160E084E090E0BA
:103820000E94F92960E085E090E00E94F92960E0BB
:1038300086E090E00E94F9296FEF87E090E00E9417
:10384000F92940E050E0BA0188E090E00E940A2A9D
:1038500060E08DE090E00E94F92940E050E0BA017C
:1038600088E190E00E940A2A60E087E190E00E94EF
:10387000F92940E050E0BA018CE190E00E940A2A68
:1038800060E080E290E00E94F9290C94EE1B0C9419
:10389000F51BFC01329697E080E0915009F4089501
:1038A00021912223D1F38F5FF8CF9C01FC01329646
:1038B0009FEF80E04191461751F09F3F19F441116D
:1038C00001C0982F8F5F8630A9F79F3F09F40895B4
:1038D000290F311D97FD3A95F90162830895FC0186
:1038E000329608962191261303C0DF0111971C928E
:1038F000E817F907B9F708950C94551C0C946F1C40
:10390000029626E0FC0111922A95E9F708958BE0D2
:1039100083BF8BEB8CBF82E089BF08952FB7F894EB
:103920008091E2019091E301A091E401B091E50161
:103930002FBF08952FB7F8946091E2017091E301D1
:103940008091E4019091E5012FBF0895CF92DF921D
:10395000EF92FF920F931F932FB7F8944091E201DB
:103960005091E3016091E4017091E5012FBF6A017C
:103970007B01EE24FF248C0130E020E0C016D1064C
:10398000E206F30650F0481B590BCA011F910F9134
:10399000FF90EF90DF90CF90089541505109F3CF01
:1039A00078941F920F920FB60F9211248F939F93CA
:1039B000AF93BF938091E2019091E301A091E40164
:1039C000B091E5010196A11DB11D8093E201909394
:1039D000E301A093E401B093E501BF91AF919F9102
:1039E0008F910F900FBE0F901F90189560E081E0AF
:1039F00090E00E941C2A87E090EBDC0180932C026F
:103A000090932D02A0932E02B0932F0288E19CE0A8
:103A10000FB6F894A89581BD0FBE91BDFFCF0E944F
:103A2000B81B811102C00E94471C0E94C31B8093D7
:103A300040010E94CB1B90E09093E7018093E60148
:103A40000E94C71B682F70E090E080E00C94F4188F
:103A50008091440180FF12C06091650085E0689FFD
:103A6000B001112475956795759567956038710556
:103A7000A8F561157105A1F1862F089581FF09C090
:103A80006091650085E0689FB00111247595679588
:103A9000EDCF82FF07C06091650085E0689FB001AF
:103AA0001124E4CF209143012223A9F090916400D6
:103AB0006091650085E0689FB00111242917B0F678
:103AC000269FA001279F500D1124692F70E0CA0185
:103AD0000E94BD29CBCF65E070E0CECF8FE708957F
:103AE00081E008958091440180FF0CC060916300E3
:103AF00070E075956795759567956115710549F144
:103B0000862F089581FF06C06091630070E075956F
:103B10006795F3CF6091630082FD0BC090914301E4
:103B20009923A1F06091620080916300961738F0AC
:103B3000682F70E06038710500F38FE70895899F62
:103B4000C001112470E00E94BD29F4CF61E070E053
:103B5000D7CF81E00895803F31F40E94281D8195E0
:103B6000809347010895813F19F40E94281DF8CFE2
:103B7000823F31F40E94281D81958093460108956B
:103B8000833F19F40E94281DF8CF893F29F40E9431
:103B9000721D8093480108958A3F21F40E94721D8E
:103BA0008195F7CF8B3F31F40E94721D81958093F0
:103BB000490108958C3F19F40E94721DF8CF843F8B
:103BC00031F4809145018160809345010895853FDE
:103BD00021F4809145018260F7CF863F21F48091E6
:103BE00045018460F1CF873F21F4809145018860D1
:103BF000EBCF883F21F4809145018061E5CF8D3F77
:103C000031F48091440181608093440108958E3F96
:103C100021F4809144018260F7CF8F3FB9F7809102
:103C200044018460F1CF803FC1F48091470187FD5A
:103C3000109247018091460181110EC08091470189
:103C400081110AC080914801811106C0809149010B
:103C5000811102C0109243010895813F29F480919F
:103C6000470118162CF3E6CF90914601823F29F4C4
:103C700097FFE0CF10924601DDCF833F19F419166C
:103C8000CCF3D8CF893F39F480914801181694F6C7
:103C900010924801CFCF8A3F29F48091480187FFD5
:103CA000C9CFF6CF8B3F39F48091490187FFC2CF4E
:103CB00010924901BFCF8C3F29F480914901181619
:103CC000BCF3B8CF843F31F4809145018E7F80935F
:103CD0004501B0CF853F21F4809145018D7FF7CF1D
:103CE000863F21F4809145018B7FF1CF873F21F4FE
:103CF00080914501877FEBCF883F21F4809145017A
:103D00008F7EE5CF8D3F31F4809144018E7F80938B
:103D1000440190CF8E3F21F4809144018D7FF7CFF5
:103D20008F3F09F087CF809144018B7FF0CF809146
:103D3000400183FF7EC08BEB92E00E9414078091CC
:103D400045011F928F9386EB92E09F938F930E9481
:103D5000AD0784EB92E00E94140780914601282F62
:103D6000082E000C330B3F938F9381EB92E09F93CF
:103D70008F930E94AD078FEA92E00E941407809112
:103D80004701282F082E000C330B3F938F938CEAAA
:103D900092E09F938F930E94AD078AEA92E00E947F
:103DA000140780914801282F082E000C330B3F93F5
:103DB0008F9387EA92E09F938F930E94AD0785EAE5
:103DC00092E00E94140780914901282F082E000CD0
:103DD000330B3F938F9382EA92E09F938F930E94DD
:103DE000AD078FE992E00E941407809143011F9272
:103DF0008F938CE992E09F938F930E94AD078AE99D
:103E000092E00E941407809144011F928F9387E9EA
:103E100092E09F938F930E94AD0784E992E00E9405
:103E200014078DB79EB74C960FB6F8949EBF0FBE81
:103E30008DBF85E491E00E94D60F0E948E1C909366
:103E400042018093410108951F93CF93DF938091A6
:103E50004101909142010E94A61CAC019091430146
:103E60002091660030E0911106C0209167008AE041
:103E7000289F900111244217530780F0809146013A
:103E800010914701D0914801C091490181110AC0A8
:103E900011116EC0D1116CC0C1116AC0DF91CF91F8
:103EA0001F9108959F3F19F09F5F9093430118164B
:103EB00024F40E94281D809346018091460187FFCB
:103EC00005C00E94281D819580934601111624F497
:103ED0000E94281D809347018091470187FF05C0FC
:103EE0000E94281D8195809347013091460133231C
:103EF000A1F020914701222381F045EB3403C0015A
:103F00001124992369F19093460145EB2403900114
:103F10001124332349F1309347011D1624F40E94E4
:103F2000721D809348018091480187FF05C00E945F
:103F3000721D8195809348011C1624F40E94721D05
:103F4000809349018091490187FF05C00E94721D3D
:103F5000819580934901DF91CF911F910C94971E19
:103F600081E080934601D1CF81E080934701D5CF96
:103F70009F3F09F099CFAACF85E0E5E4F1E0DF01AA
:103F80001D928A95E9F71092430110924401089519
:103F90008EED94E00E9414071F9281E08F931F9290
:103FA00085E08F9380E994E09F938F930E94AD0703
:103FB0000F900F900F900F900F900F9008958330F7
:103FC00009F445C028F4813061F0823049F1089548
:103FD000853009F46AC008F451C0863009F47CC009
:103FE000089580916700482F460F5527551F4F3F72
:103FF000510594F4680F60936700809167001F92E9
:104000008F9389EC93E09F938F930E94AD070F905D
:104010000F900F900F9008958FEF80936700EDCF72
:1040200080916600482F460F5527551F4F3F510579
:1040300054F4680F60936600809166001F928F931E
:1040400087EB93E0E0CF8FEF80936600F5CF809110
:104050006500482F460F5527551F4F3F510554F413
:10406000680F60936500809165001F928F9384EACA
:1040700093E0C9CF8FEF80936500F5CF8091640006
:10408000482F460F5527551F4F3F510554F4680FD1
:1040900060936400809164001F928F938FE893E097
:1040A000B2CF8FEF80936400F5CF80916300482FEB
:1040B000460F5527551F4F3F510554F4680F609325
:1040C0006300809163001F928F9386E793E09BCFFC
:1040D0008FEF80936300F5CF80916200482F460FE9
:1040E0005527551F4F3F510554F4680F60936200E8
:1040F000809162001F928F938BE593E084CF8FEFC6
:1041000080936200F5CF8330C9F128F4813061F0EB
:10411000823019F10895853009F452C008F43FC087
:10412000863009F45EC0089580916700681790F4A6
:10413000861B80936700809167001F928F938CE4A9
:1041400093E09F938F930E94AD070F900F900F9075
:104150000F90089510926700EECF80916600681767
:1041600050F4861B80936600809166001F928F93A7
:104170008AE393E0E6CF10926600F6CF8091650067
:10418000681750F4861B80936500809165001F922C
:104190008F9387E293E0D5CF10926500F6CF8091A0
:1041A0006400681750F4861B80936400809164005B
:1041B0001F928F9382E193E0C4CF10926400F6CFF8
:1041C00080916300681750F4861B80936300809190
:1041D00063001F928F9389EF92E0B3CF1092630038
:1041E000F6CF80916200681750F4861B80936200BE
:1041F000809162001F928F938EED92E0A2CF109279
:104200006200F6CFCF93C82F1F928F9383EE95E075
:104210009F938F930E94AD0761E070E080E090E093
:1042200004C0660F771F881F991FCA95D2F70E9496
:10423000F4180F900F900F900F90CF910C940115E0
:10424000CF938B3109F422C208F0B8C18B3009F446
:10425000DFC108F082C1863009F4EDC148F4853031
:1042600009F4BAC180E79AE00E94140780E0F4C123
:10427000873009F4F3C18830A9F78FE09BE00E94F2
:10428000140780E69AE00E9414070E94C71B1F9241
:104290008F938DE59AE09F938F930E94AD078BE5F6
:1042A0009AE00E9414070E94C31BC82F88E49AE07A
:1042B0000E9414071F92CF9383E49AE09F938F93F9
:1042C0000E94AD0781E49AE00E94140787E39AE018
:1042D0000E9414078C2F81701F928F9384E39AE0C1
:1042E0009F938F930E94AD0782E39AE00E94140788
:1042F00088E29AE00E941407C1FB882780F91F9288
:104300008F9385E29AE09F938F930E94AD0783E29B
:104310009AE00E94140787E19AE00E941407C2FB0A
:10432000882780F91F928F9384E19AE09F938F935F
:104330000E94AD0782E19AE00E94140789E09AE0AA
:104340000E941407C3FBCC27C0F91F92CF9386E0CD
:104350009AE09F938F930E94AD0784E09AE00E94B9
:1043600014070E94CB1BC82F80EF99E00E9414070E
:104370001F92CF938BEE99E09F938F930E94AD078E
:1043800089EE99E00E94140780ED99E00E941407DD
:104390008C2F81701F928F938DEC99E09F938F9358
:1043A0000E94AD078DB79EB780960FB6F8949EBF5A
:1043B0000FBE8DBF8BEC99E00E94140784EB99E04F
:1043C0000E941407C1FB882780F91F928F9381EB0D
:1043D00099E09F938F930E94AD078FEA99E00E9426
:1043E00014078DE999E00E941407C2FB882780F921
:1043F0001F928F938AE999E09F938F930E94AD0754
:1044000088E999E00E94140786E899E00E94140761
:10441000C3FB882780F91F928F9383E899E09F93CD
:104420008F930E94AD0781E899E00E94140787E707
:1044300099E00E941407C4FB882780F91F928F938C
:1044400084E799E09F938F930E94AD0782E799E0FC
:104450000E94140780E699E00E941407C5FB882794
:1044600080F91F928F938DE599E09F938F930E941F
:10447000AD078BE599E00E9414078FE399E00E9455
:104480001407C6FB882780F91F928F938CE399E06D
:104490009F938F930E94AD078AE399E00E941407CF
:1044A00082E399E00E941407C7FBCC27C0F91F9252
:1044B000CF938FE299E09F938F930E94AD078DE297
:1044C00099E00E9414070E94D41BC82F86E199E04E
:1044D0000E9414071F92CF9381E199E09F938F93DD
:1044E0000E94AD078DB79EB780960FB6F8949EBF19
:1044F0000FBE8DBF8FE099E00E94140785E099E020
:104500000E9414078C2F81701F928F9382E099E094
:104510009F938F930E94AD0780E099E00E9414075B
:1045200087EF98E00E941407C695C695C6951F921E
:10453000CF9384EF98E09F938F930E94AD0782EF13
:1045400098E00E9414078DB79EB708960FB6F894AE
:104550009EBF0FBE8DBF81E07FC0803109F4AEC029
:1045600080F48E3009F07ECE90914001892F8B7FB0
:1045700092FF84608093400182FF9DC08BE99AE0A6
:1045800091C0863109F4AAC0893109F06BCE89E166
:1045900097E00E94140786E097E00E94140782ECDF
:1045A00096E00E94140788E896E00E94140782E5CE
:1045B00096E00E94140787E296E02CC08A32A1F1AF
:1045C000E8F4873269F128F48E3108F44BCE8D512E
:1045D00028C0893209F046CE0E9401158EED9AE07E
:1045E0000E9414079FEF2EE984E291502040804002
:1045F000E1F700C000000E94F61CADCF833468F4E0
:104600008A3308F08EC0853359F0883309F02ACEFA
:104610008FE497E00E9414079ECF833409F022CEE6
:1046200080E00E94022197CF8EEF9AE00E9414074B
:104630000E94471C90CF80914001817F8E7F8093A4
:10464000400188E297E00E9414078AEF9AE00E94F6
:10465000140781E080934B01CF9108959091400120
:10466000892F8E7F90FF81608093400180FF03C07F
:1046700082ED9AE0CFCF85EC9AE00E9414078091FA
:104680004001897F877F8093400165CF90914001F1
:10469000892F8D7F91FF82608093400181FF08C048
:1046A00088EB9AE00E941407809140018160EBCF73
:1046B0008AEA9AE0AFCF8BE89AE0ACCF90914001C4
:1046C000892F877F93FF88608093400183FF03C019
:1046D0008FE79AE0E7CF82E79AE09CCF89E196E006
:1046E0000E9414070E947E0F1F928F938FEF95E018
:1046F0009F938F930E94AD070E949A1C9F938F9364
:104700007F936F9388EE95E09F938F930E94AD0700
:104710008DB79EB70A960FB6F8949EBF0FBE8DBF99
:104720001ACF89537ECF80E008950C9493238E5145
:104730008A3030F4E82FF0E0E857FF4F8081089589
:1047400080E00895CF93C82F80914B018130B9F05C
:1047500038F0823009F447C010924B0180E00DC060
:104760000E94E11A8232D1F78C2F0E94932381118B
:104770001BC08C2F0E9420218170CF9108950E9430
:10478000E11A823289F38C2F0E94952381111BC07C
:10479000C431D9F060F4CB3071F0C031D1F089ED83
:1047A00095E00E94140713C081E090E0E5CFC93284
:1047B00061F0C833A1F788E297E00E9414078FEDFB
:1047C00095E00E94140781E0D7CF10924B0180E062
:1047D000D3CF0E94C81F8BED95E00E94140782E0A2
:1047E00080934B01F0CFC432C8F4CE3108F0BEC084
:1047F000CB30E1F040F4C73009F4CCC08DE794E051
:104800000E94140726C0C331C1F1C431B9F78091A9
:104810004A01882351F110924A010AC0CB3409F4AD
:10482000B7C0C8F4C93299F3C83341F70E94C81F12
:1048300080914A01882309F4C4C01F928F9387E7AF
:1048400094E09F938F930E94AD070F900F900F906D
:104850000F9081E092CFC13509F494C0C23509F4BC
:104860008BC0CE3459F66AE08EC08CE894E00E948A
:10487000140781E080934B0180CF86E694E00E948C
:10488000140784E594E00E941407809167001F924A
:104890008F9381E594E09F938F930E94AD078FE4FF
:1048A00094E00E9414078DE394E00E941407809125
:1048B00066001F928F938AE394E09F938F930E94E8
:1048C000AD0788E394E00E94140789E294E00E9417
:1048D0001407809165001F928F9386E294E09F9366
:1048E0008F930E94AD0784E294E00E94140783E155
:1048F00094E00E941407809164001F928F9380E1DE
:1049000094E09F938F930E94AD078EE094E00E9405
:10491000140789EF93E00E941407809163001F92AF
:104920008F9386EF93E09F938F930E94AD0784EF60
:1049300093E00E9414078DED93E00E94140780918C
:1049400062001F928F938AED93E09F938F930E9452
:10495000AD0788ED93E00E9414078DB79EB7489687
:104960000FB6F8949EBF0FBE8DBF62CF8C2F0E94F2
:10497000972380934A015CCF61E080914A010E94B5
:10498000DF1F56CF61E080914A010E94832050CF03
:104990006AE0F3CF8EE18093670082E38093660044
:1049A0008AE08093650084E18093640088E08093CE
:1049B000630088E2809362008FE794E00E9414070E
:1049C00037CF84E794E01CCF0E94B81B811102C04E
:1049D0000E94471C0E94D41B8093E801803120F084
:1049E000877088608093E8018091E80180FF05C0AE
:1049F0008695869586950C94270980E0FCCF80915A
:104A0000E801982F987F19F4885F8093E8018091DE
:104A1000E80181608093E8010E94D81B80914001E9
:104A200080FF11C08091E8018695869586951F923A
:104A30008F9381E89BE09F938F930E94AD070F9027
:104A40000F900F900F908091E8018695869586953E
:104A50000C9427098091E801982F987F79F088506D
:104A60008093E801887F91E009F490E08091E8016B
:104A700090FB80F98093E8010E94D81B809140014F
:104A800080FF11C08091E8018695869586951F92DA
:104A90008F9389E69BE09F938F930E94AD070F90C1
:104AA0000F900F900F908091E801869586958695DE
:104AB0000C9427098091E80180FD1FC081608093DC
:104AC000E801813019F489E08093E8018091E801E0
:104AD0000E94D81B8091400180FF08C081E49BE0C8
:104AE0009F938F930E94AD070F900F908091E801E4
:104AF0008695869586950C94270908958091E801FE
:104B000080FF14C08E7F8093E8010E94D81B8091A3
:104B1000400180FF08C08EE29BE09F938F930E942C
:104B2000AD070F900F9080E00C9427090895CF9364
:104B3000C091E801C1708091400180FF0CC01F92BC
:104B4000CF9383E59BE09F938F930E94AD070F90D7
:104B50000F900F900F90CC2319F0CF910C947E25DD
:104B6000CF910C945A259091E801892F86958695CE
:104B700086958F5F8F719770823080F5880F880FD0
:104B8000880F892B8093E8018091E801887F91E06C
:104B900009F490E08091E80190FB80F98093E801AE
:104BA0000E94D81B8091400180FF11C08091E801D4
:104BB0008695869586951F928F938AE19BE09F93B9
:104BC0008F930E94AD070F900F900F900F908091E0
:104BD000E8018695869586950C9427099093E801BF
:104BE000D3CF811181E0982F990F990F990F809160
:104BF000E8018770892B8093E801887F91E009F4B0
:104C000090E08091E80190FB80F98093E8010E9498
:104C1000D81B8091E8018695869586950C94270986
:104C20000E948E1C8C010E9414100E941A100E9477
:104C30006C270E94790F8091400180FF04C084EAB4
:104C40009BE00E9414070E94AA298B9A80E0815061
:104C500061F48B9878948091400180FF04C089E9C9
:104C60009BE00E941407C0E009C0A895E7EBFBE0B9
:104C70003197F1F700C00000EACFC1E08091030254
:104C8000882399F0109203020E948E1C8C010E94CE
:104C9000A02880910902882329F08091F40184FDE5
:104CA0000E944C100E94CB26DECFC8010E94A61C99
:104CB000069718F7C111E2CFEACF8091DE0108957F
:104CC000CF93DF9300D01F92CDB7DEB720914E0176
:104CD00030914F012817390789F090934F01809345
:104CE0004E0124E029839B838A838091200284FFE4
:104CF00005C063E0CE0101960E949C280F900F90A2
:104D00000F90DF91CF910895CF93DF9300D01F9242
:104D1000CDB7DEB720914C0130914D0128173907EE
:104D200089F090934D0180934C0123E029839B836C
:104D30008A838091200284FF05C063E0CE01019642
:104D40000E949C280F900F900F90DF91CF910895B3
:104D5000CF93DF9300D000D000D0CDB7DEB7FC01F9
:104D600082E0898395E0DE01129601900D929A957A
:104D7000E1F78091200284FF05C066E0CE01019634
:104D80000E949C2826960FB6F894DEBF0FBECDBFBA
:104D9000DF91CF910895CF93DF93CAE0D0E0809167
:104DA000F40184FF63C080915B0190915C019817CE
:104DB00009F467C028E0829FC001112468E0835A8B
:104DC0009E4F0E94982880915B0190E001968F7021
:104DD000992780935B018091400182FF52C080E45B
:104DE0009CE00E94140780915B011F928F938DE3DA
:104DF0009CE09F938F930E94AD078AE39CE00E9402
:104E0000140780915C011F928F9387E39CE09F932E
:104E10008F930E94AD0784E39CE00E941407509199
:104E20005C0140915B018DB79EB708960FB6F89470
:104E30009EBF0FBE8DBF242F30E0852F90E0821BD8
:104E4000930B541708F440969F938F938FE29CE046
:104E50009F938F930E94AD070F900F900F900F902C
:104E60008CE29CE0DF91CF910C9414070E94A02863
:104E700087EB9BE00197F1F700C00000219709F054
:104E80008ECFDF91CF910895FC01A0915C01B0E03D
:104E90009D012F5F3F4F2F70332780915B01821759
:104EA00091F083E0AA0FBB1F8A95E1F7A35ABE4F8A
:104EB00098E001900D929A95E1F720935C010E9491
:104EC000A0280C94CB268091400180FFF8CF80E28F
:104ED0009CE00E941407F3CF88E690E00895CF93FA
:104EE000DF93EC018091400181709881907690323F
:104EF00009F07DC09981913081F4882321F084E10B
:104F00009CE00E94140783E591E090930502809352
:104F1000040288E0DF91CF910895923071F48823E4
:104F200021F089E09CE00E9414078DED91E09093C0
:104F300005028093040281E0EDCF9A3039F59B8120
:104F40009093DD01882321F08EEF9BE00E941407EF
:104F50008091400180FF18C08091DD011F928F93E6
:104F600089EF9BE09F938F930E94AD070F900F9066
:104F70000F900F9090914001892F817090FFCACFC0
:104F80008FEC9BE00E94140780E0C4CF993041F57C
:104F9000882321F08CEE9BE00E9414078A819B817C
:104FA000811522E09207B9F48C819D81892B89F4C7
:104FB0008091400180FF04C082EE9BE00E941407B4
:104FC00082E0809352018E819F8190935101809362
:104FD00050018FEF9FCF81309340D9F781E0F1CF1F
:104FE000882391F289ED9BE00E941407C3CF8823A8
:104FF00059F281ED9BE0F8CFCF93DF93EC018091E4
:10500000500190915101892BB1F180915201813071
:1050100071F1823081F58091400180FF04C085EC00
:105020009BE00E9414078091400180FF0DC08881A1
:105030001F928F9380EC9BE09F938F930E94AD070C
:105040000F900F900F900F908091400180FF04C04F
:105050008EEB9BE00E94140788818093DE01109202
:1050600051011092500181E0DF91CF9108958B9A08
:105070000E94F61CF8CF8FEFF7CFFC0183818132BD
:1050800061F08232E1F0823069F48DE49CE090932B
:105090000502809304028BE308958281882321F026
:1050A000813051F080E008958FE59CE090930502F7
:1050B0008093040289E0089588E79CE0F7CF84811B
:1050C0009581009751F0019769F788E89CE09093EB
:1050D00005028093040284E808958CE09DE090939B
:1050E00005028093040280E408951F93CF93DF9319
:1050F000162FEA01288124FF18C0298138E82327C8
:105100002983FC019E012E5F3F4FD901912F819190
:105110008D939150E1F7612FC9010E94CB071C5F6D
:105120001883DF91CF911F9108952AE52883E9CF55
:1051300044EF51E00C94752840E252E00C9475283D
:10514000CF93DF9360910602635067FD2BC080917F
:105150000202CCE0D0E0C81BD109C65FDD4F8091D0
:1051600001028D3209F0DAC06830D1F483EC80930B
:10517000E9018AE5809373001092DF0188818076CF
:1051800009F45EC0CE010E946F278F3F09F067C00F
:10519000988197FD8E8190E89093DF018093720053
:1051A000109206028091730084FF3DC080917200CE
:1051B0008F3FC9F1C82F893008F0C8E0982F9C1B99
:1051C000909372009091E90128E892279093E90169
:1051D0008823E1F040910402509105028091DF01A3
:1051E00086FFAFC0AAEEB1E0FA019C2F84918D93A7
:1051F00031969150D9F72FEF2C0F30E02F5F3F4FB2
:10520000240F351F30930502209304026C2F8AEE81
:1052100091E00E94CB07CC5FCC3019F08FEF8093E8
:105220007200C093730084E190B39C7031F481509C
:10523000D9F71092070210920002DF91CF910895E2
:105240002A811092F2019981911112C01092F301FA
:1052500022EF31E082E030930502209304029F8127
:1052600091119CCF9E81981708F098CF892F96CFE7
:10527000953029F42093070222EF31E0ECCF9630ED
:10528000A1F59B81913041F48CE49DE0909305025F
:105290008093040282E111C0923021F4CE010E9479
:1052A0003D280BC09330E1F421110BC080E89DE054
:1052B000909305028093040284E090E49093DF01D0
:1052C00064CF213019F48EE69DE0E0CF2230A9F7BB
:1052D0008EE59DE0909305028093040280E1EDCF7E
:1052E0009132E1F2923249F7D9CF983081F099307A
:1052F00019F420930902C0CF9A3069F09B3009F06D
:10530000BBCF9BE49093F50190932102B5CF29E0A8
:1053100032E081E0A0CF22EF31E0FBCF8091DF01CE
:1053200087FF3ECFCE010E94FC278F3F21F48EE104
:105330008093730035CF882309F432CF1092720026
:105340002FCFDA01EAEEF1E09C2F8D9181939150FD
:10535000E1F751CF85B7886085BF8BB780688BBF79
:10536000A4EFB1E08BE411968C931197E0E2F2E0A8
:1053700081838AE58C938083089597FB072E16F42A
:10538000009407D077FD09D00E94D72907FC05D0EB
:105390003EF4909581959F4F0895709561957F4F4C
:1053A0000895EE0FFF1F0590F491E02D0994AA1BBC
:1053B000BB1B51E107C0AA1FBB1FA617B70710F000
:1053C000A61BB70B881F991F5A95A9F78095909532
:1053D000BC01CD010895E199FECF9FBB8EBBE09A41
:1053E00099278DB30895A8E1B0E042E050E00C9415
:1053F0002B2A262FE199FECF9FBB8EBBE09A019707
:105400000DB2021631F02DBB0FB6F894E29AE19A74
:105410000FBE08950396272F0E94FA290E94F929AA
:10542000252F0E94FA29242F0C94FA290196272F60
:105430000E94FA290C94F929262FE199FECF9FBBEF
:105440008EBB2DBB0FB6F894E29AE19A0FBE01967F
:105450000895DC01CB01FC01E199FECF06C0FFBB42
:10546000EEBBE09A31960DB20D9241505040B8F724
:065470000895F894FFCF3F
:1054760035012808140A321E5D264427A8268426EC
:105486006026FF5A909192939495969737363534C5
:105496003332076162636465010203040506070887
:0254A6000900FB
:00000001FF
