:100000000C94F1020C9438030C9438030C943803CC
:100010000C9438030C9438030C9438030C94380374
:100020000C9438030C9438030C94DB250C94AF2605
:100030000C94C31F0C9438030C9438030C943803AD
:100040000C9438030C9438030C9438030C94380344
:100050000C9439100C940E200C9438030C94380333
:100060000C9438030C9438030C9438030C94380324
:100070000C9438030C9438030C9438030C94380314
:100080000C9438030C9438030C9438030C94380304
:100090000C9438030C9438030C9438030C943803F4
:1000A0000C9438030C9438030C9438032900460050
:1000B0003A003B003C003D003E003F004000410054
:1000C00042004300440045004F00470035001E0039
:1000D0001F0020002100220023002400250026000C
:1000E00027002D002E002A0049004A002B00140092
:1000F0001A000800150017001C0018000C00120060
:1001000013002F00300031004C004D002961040025
:100110001600070009000A000B000D000E000F007A
:10012000334234000000280051004B00E1001D0064
:100130001B000600190005001100100036003700F2
:10014000380000000000E50052004E00E000E3002F
:1001500000000000000000002C0000000000000073
:10016000E6000000000001515000480001000100BD
:100170000100010001000100010001000100010077
:100180000100010001000100010001000100010067
:10019000010001004D00010001000100010001000B
:1001A0004A000100010001000100010001000100FE
:1001B000010001000100010001004B0001000100ED
:1001C0000100010001000100010001000100010027
:1001D00001004E004E0001005000510052004F003F
:1001E0000100010000000100010001000100010008
:1001F0004C00010001004B00010001000100010062
:1002000001000000000001000100010001000100E8
:1002100000000000000000000100000000000000DD
:1002200001000000000001000100010032190A0075
:10023000047F3F1F643214643214783C1E1E140A7B
:10024000052223252628292A2C2D2F303233353616
:10025000383A3B3D3E4042434547494A4C4E505157
:10026000535557595A5C5E6062646668696B6D6F7E
:1002700071737577797B7D7F81838587898A8C8E81
:1002800090929496989A9C9E9FA1A3A5A7A8AAAC89
:10029000AEAFB1B3B4B6B8B9BBBCBEBFC1C2C3C5C3
:1002A000C6C7C9CACBCCCDCED0D1D2D2D3D4D5D665
:1002B000D7D7D8D9D9DADADBDBDBDCDCDCDCDCDD98
:1002C000DDDDDDDCDCDCDCDCDBDBDBDADAD9D9D87C
:1002D000D7D7D6D5D4D3D2D2D1D0CECDCCCBCAC914
:1002E000C7C6C5C3C2C1BFBEBCBBB9B8B6B4B3B143
:1002F000AFAEACAAA8A7A5A3A19F9E9C9A989694DE
:1003000092908E8C8A89878583817F7D7B797775B2
:1003100073716F6D6B6968666462605E5C5A595791
:10032000555351504E4C4A4947454342403E3D3B50
:100330003A3836353332302F2D2C2A2928262523DA
:1003400022FFAA7F554000000000000000000000CE
:100350000001010203040506080A0C0F1114181C01
:100360002024292E33393F464C535B626A717981D0
:100370008A929AA2AAB2B9C1C8CFD5DCE1E7EBF064
:10038000F4F7FAFCFDFEFFFEFDFCFAF7F4F0EBE7F4
:10039000E1DCD5CFC8C1B9B2AAA29A928A8179719B
:1003A0006A625B534C463F39332E2924201C1814B3
:1003B000110F0C0A080605040302010100000000E9
:1003C0000000000000000001010101010101010124
:1003D00002020202020202020203030303030303F6
:1003E00003040404040404040505050505060606C3
:1003F0000606070707070708080808090909090A80
:100400000A0A0B0B0B0C0C0C0D0D0D0E0E0E0F0F24
:100410000F101011111112121313141415151616B2
:100420001717181819191A1A1B1B1C1D1D1E1E1F21
:100430002020212222232424252626272829292A70
:100440002B2C2D2D2E2F3031323233343536373898
:10045000393A3B3C3D3E3F40414243444546474894
:10046000494A4C4D4E4F50515354555658595A5B6A
:100470005D5E5F616264656668696B6C6D6F70720A
:10048000737577787A7B7D7E8082838587888A8C76
:100490008E8F91939596989A9C9EA0A2A3A5A7A9AA
:1004A000ABADAFB1B3B5B7BABCBEC0C2C4C6C9CBA1
:1004B000CDCFD1D4D6D8DBDDDFE2E4E7E9EBEEF057
:1004C000F3F5F8FAFDFF0403300000000C035500BB
:1004D0005400440038003000000008035500540068
:1004E000440000000403090409023B00020100A0CB
:1004F000FA090400000103010100092111010001B2
:100500002240000705810308000A090401000103D5
:10051000000000092111010001226D00070582037E
:1005200020000A1201100100000008EDFE606001C9
:10053000000102030105010980A101850319012AB7
:10054000B700150126B700950175108100C0050C94
:100550000901A101850419012AA002150126A002A2
:10056000950175108100C005010906A101850505E9
:100570000719E029E7150025019508750181020595
:1005800007190029EF1500250195F0750181020575
:1005900008190129059505750191029501750391C9
:1005A00001C005010906A101050719E029E71500A9
:1005B00025019508750181029501750881010507DE
:1005C000190029FF150026FF009506750881000512
:1005D0000819012905950575019102950175039189
:1005E00001C011241FBECFEFDAE0DEBFCDBF04B6DD
:1005F00003FE27C08091080390910903A0910A038C
:10060000B0910B038730904BA740B04BD1F41092C0
:1006100008031092090310920A0310920B0314BEF0
:1006200084B7877F84BF0FB6F894A8958091600047
:10063000886180936000109260000FBEE0E0F8E3F4
:10064000099511E0A0E0B1E0E6E2F4E502C0059012
:100650000D92A83CB107D9F723E0A8ECB1E001C0A6
:100660001D92A830B207E1F70E941B230C94CE29FB
:100670000C940000259A269A08950E941C060C945A
:100680003A03CF93C82F0E94B303882331F0C1FFF0
:1006900007C02E9AC2FF06C02D9A81E0CF9108951F
:1006A0002E98F8CF2D98F9CF81E0089581E0089534
:1006B0000C94560308950C945A031F93CF93DF9321
:1006C00000D000D00F92CDB7DEB749835A836B8339
:1006D0003091050289819A8131111DC06623B9F0DC
:1006E0002223A9F00E94B21C182F682F89819A81B9
:1006F0000E945F1C69817A81812F0F900F900F906B
:100700000F900F90DF91CF911F910C9419040E94CC
:100710008B1C182FEFCF0E94B21C69817A81EDCF1C
:10072000FC01262F408151816281738184810C9468
:100730005D03CF93DF93EC0160E00E949003BE0164
:10074000DF91CF910C945B030E94F61D811102C0D2
:100750000E94A61E0E94A8100C943D030C941E0635
:1007600008950C94B00381E00895CF93C82F0E94A0
:10077000B1038C2FCF910C94410308950E94C617AA
:100780000E94BD032FEF84E39CE021508040904005
:10079000E1F700C000000C9432200F931F93CF9319
:1007A000DF93EC0161E00E9490038C01BE010E9486
:1007B0005803882389F1BE01C8010E94910F882344
:1007C00059F1BE01C8010E947511882329F1BE01AB
:1007D000C8010E94C7118823F9F0BE01C8010E9418
:1007E000EA128823C9F0BE01C8010E942B0E88239B
:1007F00099F08A81882339F001158CE5180751F0AA
:100800000E3D1C4579F0CE01DF91CF911F910F91E4
:100810000C9454030E94BE0380E0DF91CF911F919E
:100820000F9108950E94A61EF7CF90E080E00895F2
:100830000895E72FF0E096E0899FE00DF11D112467
:1008400084E0EE0FFF1F8A95E1F7E60FF11DEE0F32
:10085000FF1FE455FF4F859194910895FC01EE0F21
:10086000FF1FE45DFD4F859194910895CF93DF9331
:100870000E9419040E944205EC01811520E59207AF
:1008800008F041C0811530E4930708F0B4C0803E01
:10089000910518F5803C910508F09DC0883A9105B6
:1008A00070F4853A910508F08EC081309105F9F019
:1008B0000097E9F00497D8F4D0E0C0E018C08F3B6F
:1008C0009105D0F7C85AD0E0CC0FDD1FCB5DDE4FCD
:1008D0000990D881C02DD4640AC08115904258F483
:1008E000C11581E0D80718F4C83ED10528F7CE011C
:1008F000DF91CF910895C11590E3D90708F071C039
:10090000CE019F706AC0811525E5920758F58115C3
:1009100034E5930708F09EC0811542E5940750F432
:10092000C11581E5D80708F469C0DC2FCC27C16F59
:10093000D06ADDCF982F969596959E012370332728
:10094000C115D34508F077C0C1E0D0E002C0CC0F9C
:10095000DD1F2A95E2F720E2929FC0011124C82BE7
:10096000D92B67C0C11589E5D807A8F4C11598E54A
:10097000D90708F074C0C11526E5D20708F09CCF4E
:100980008C2F0E94D905C82FD0E0DC2FCC27CC2794
:10099000DF71D062ACCFC1153AE5D30708F464C06B
:1009A000CE0190568115904208F086CF8D2F8F7121
:1009B0000E94D90590E0982F882788279F719C0175
:1009C0002C2BE901E6CFC55AD0E0CD5ADE4FC881C5
:1009D000D0E0D0648CCF805C91090E942E04EC01A1
:1009E00086CFCE019927D3FF03C0EC01D86C7FCF0F
:1009F000EC01D06C7CCFDF70D06A79CFCE01E4E01F
:100A000096958795EA95E1F783702C2F2695269584
:100A1000237090E2299F90011124382B8C2F837032
:100A2000C1E0D0E002C0CC0FDD1F8A95E2F7C22BF7
:100A3000D32BDC685CCFC1E0D0E002C0CC0FDD1F5F
:100A40002A95E2F730E2939FC0011124C82BD92BDD
:100A5000DA684DCFD82FCC27C46FD06A48CFDC2FAF
:100A6000CC27C06FD06A43CF8C2F8F700E94D905DE
:100A700034E0D695C7953A95E1F7CF709C2FEC01FD
:100A8000D06935CF82389105B1F1B0F48133910549
:100A900009F475C048F48932910509F469C08A32B5
:100AA000910509F473C008958533910509F459C07F
:100AB0008933910501F10895833E9105A9F138F438
:100AC000803E9105F9F0823E910549F10895863EF8
:100AD0009105A9F1873E9105C9F1843E910519F56B
:100AE0002091FA0221FF1FC08091F90284FD14C0F9
:100AF00087EE90E008952091F9022370A1F080EE36
:100B000090E008952091F90220FD47C03091FA024B
:100B100030FF09C024FF44C090E080E004C0209171
:100B2000F90222FDF7CF08952091F90222FD3BC082
:100B30003091FA0230FDE3CF24FFF5CFEDCF2091C5
:100B4000F90223FFF0CF24FDE7CFD2CF2091F902A5
:100B500023FD2CC03091FA0231FFEECF84EE90E0FD
:100B600008952091F90225FFDECF89E290E00895F3
:100B70002091F90225FFD7CF85E390E008952091D9
:100B8000F90226FFD0CF8AE290E008952091F90281
:100B900026FFC9CF81E390E0089589E390E00895AE
:100BA00083EE90E0089582EE90E0089586EE90E066
:100BB00008959091F90292FF06C0282F28712830DD
:100BC000F9F4877F846093FF06C0282F28712831AD
:100BD000F1F4877E84612091FA0220FF06C0382F4D
:100BE00038713830D9F4877F816021FF06C0282F03
:100BF00028712831D1F4877E816194FD877E089524
:100C0000282F24712430F9F68B7F8860DCCF282FC1
:100C10002471243101F78B7E8861DDCF382F31714B
:100C2000313019F78E7F8860E0CF282F2171213174
:100C300021F78E7E8861E1CF089508950C941D06FA
:100C4000E82FF0E0EE0FFF1FE952FD4F8081918108
:100C50000895089580EA8A95F1F70895A6E6B1E02F
:100C600061E070E08D91E82FE295EF70F0E041A136
:100C70008F709B0101C0220F8A95EAF7922F909501
:100C8000942391A382A1822B82A381E0AC36B80782
:100C900049F7A6E5B1E061E070E08D91E82FE295BB
:100CA000EF70F0E041A18F709B0101C0220F8A9587
:100CB000EAF7922F9095942391A382A1822B82A38D
:100CC00081E0A636B80749F7EBECF2E0A7EDB2E019
:100CD00087ED92E0119211921D921D928E179F073F
:100CE000C9F786E00E94FD060C94A4038F929F92A0
:100CF000AF92BF92CF92DF92EF92FF920F931F932A
:100D0000CF93DF9386E6E82E81E0F82E0BEC12E01D
:100D1000912CAA24A394B12CF70181917F01C82FB3
:100D2000C295CF70D0E099A18F70650101C0CC0C45
:100D30008A95EAF7892F8C2989A38AA18C2C809423
:100D400088218AA30E942A06E6E5F1E050E040E00F
:100D500030E020E06191A62FA295AF70B0E09096B0
:100D60008C9190E06F7002C0959587956A95E2F737
:100D700080FD3EC0C501042E02C0880F991F0A9451
:100D8000E2F7282B392B4F5F5F4F4031510511F7A8
:100D900089A1882289A28AA1C82ACAA2F8018081D1
:100DA00091812817390739F13183208381E0982A0E
:100DB0000E5F1F4FFCE6EF16F1E0FF0609F0ACCF27
:100DC000292D46E067ED72E08BEC92E00E94FE0672
:100DD0000E94AE03892DDF91CF911F910F91FF905B
:100DE000EF90DF90CF90BF90AF909F908F9008953D
:100DF00090E080E0C6CF80E0DACF0895FF920F93B5
:100E00001F93CF93DF93F82E092F162FD72FC42FC0
:100E1000222349F081E08093CA010E94F31F90933E
:100E2000C9018093C8018091CA018823A1F08091F3
:100E3000C8019091C9010E94FF1F069760F0EF2D35
:100E4000F02FA12FBD2F90E080E0D0E08C179D0700
:100E500044F01092CA01DF91CF911F910F91FF9042
:100E60000895219131912D933D930196EFCFEF920B
:100E7000FF920F931F93CF93DF93EB01E82FD111D4
:100E800010C0442321F0F0E0EA53FC4FE4916E2FB0
:100E90007E2F8E2FDF91CF911F910F91FF90EF90BA
:100EA00008950D2F10E0282F30E0442329F02A5315
:100EB0003C4FF901249130E0F6E0CF9FC0011124AE
:100EC000EFEFF0E0BF010E947D28AB018C2F90E096
:100ED000880F991FA5E5A49FB001A59F700D11244F
:100EE000861B970B982F990F980FBF01601B710BF2
:100EF000629FD001639FB00D729FB00D11248B2FA4
:100F00009D9FB0011124672F7727EF01C61BD70BD8
:100F1000BE01629FE001639FD00D729FD00D11242E
:100F20007F01E91AF108E09EB001E19E700DF09E8C
:100F3000700D1124672F7727E61BF70BE29F8001C6
:100F4000E39F100DF29F100D1124E12F722F4230FC
:100F5000510599F048F44115510569F041305105AA
:100F600081F0EB2F8D2F07C04430510569F080F0E0
:100F700046305105B1F76E2F8DCFE22F7B2F812F99
:100F8000FACFE22F7D2FF7CFEB2F822F712FF3CFE8
:100F90007B2F822FED2FEFCF41E00C943707089580
:100FA000CF93DF93762FE901682F842F0E94CC071F
:100FB000798368838A83DF91CF9108958091E302DA
:100FC000982F9E7F29F4817082608093E3020895B8
:100FD0008635E8F381708465F8CF88E090E00C9462
:100FE0006F29CF92DF92EF92FF926B017C010E94FA
:100FF000DE07B701A60188E090E0FF90EF90DF9058
:10100000CF900C948D29E3EEF2E083E0808311828F
:101010008FEF8283838314826081718182819381C7
:101020000C94F1078091E30280FF02C08695089539
:1010300080E008959091E702933018F49F5F9093B9
:10104000E702882351F06091E3027091E4028091FD
:10105000E5029091E6020C94F107089581E00C946A
:101060001A089091E702992319F091509093E702A2
:10107000882351F06091E3027091E4028091E502CF
:101080009091E6020C94F107089581E00C943108E8
:1010900070E00C94BE10609108018091E30280FF23
:1010A0000AC08091070123E0829FC001112488516A
:1010B0009D4F0C9448088091090190910A0123E00A
:1010C000829FF0011124E851FD4F891750F71182DA
:1010D000108212828F5F3396F8CF9091E30290FFD7
:1010E00014C09091090120910A0133E0939FF0010F
:1010F0001124E851FD4F921710F00C944B08818396
:10110000608342839F5F3396F6CF0895CF93DF933A
:1011100000D00F92CDB7DEB79091E30290FF0AC0E6
:101120009E012F5F3F4F0E94D0074B8169818A81CA
:101130000E946D080F900F900F90DF91CF9108954E
:10114000CF93DF93EC01EC81F0E0EF5BFD4F449136
:10115000E3EEF2E0628181810E9486088C818F5FDC
:101160008C83DF91CF910895CF93DF93EC01E3EE71
:10117000F2E0438162818C810E9486088C818F5FBE
:101180008C83DF91CF9108950F931F93CF93DF93BB
:1011900000D00F92CDB7DEB78C018091CB018111C9
:1011A0000AC09E012F5F3F4F4FEF6FEF0E94D007A5
:1011B0008A818093CB01F8016481613069F080916C
:1011C000CB0140E0662361F040E0623011F44091D1
:1011D000CB0180E060E004C06091CB0140E080E0A2
:1011E0000E946D08F801848190E0019663E070E050
:1011F0000E94912884830F900F900F90DF91CF91E0
:101200001F910F910895AF92BF92CF92DF92EF920C
:10121000FF920F931F93CF93DF9300D00F92CDB720
:10122000DEB7182FF62E042FE22E9091E30290FFE6
:1012300029C0E92FE695AE2FB0E0A459BE4F8C919E
:101240008093E9019E7F923059F59E012F5F3F4FB9
:10125000812F0E94D0074B8169818A810E946D088D
:101260001093E402F092E5020093E602EE2051F0C2
:101270006091E3027091E4028091E5029091E602B0
:101280000E94F1070F900F900F90DF91CF911F9167
:101290000F91FF90EF90DF90CF90BF90AF900895A7
:1012A000823019F40091E602DBCF863019F41091F8
:1012B000E402D6CF8930D9F3893191F6E9518E2FE6
:1012C0008170D82EE695F0E0EF5BFC4FA590B490CE
:1012D000C12CBB2460910B01C61618F00E944B086C
:1012E000BFCF2C2D30E0A29EC001A39E900DB29ED8
:1012F000900D112470E00E947D28812FD11013C021
:10130000860F40910901420F532F511D9A01220F60
:10131000331F240F351F28513D4F402F6F2D0E9442
:10132000D007C394D7CF861BECCFE3EEF2E09181D8
:10133000282F4381628188E0890F0C94030981E0A2
:101340000C949509E3EEF2E09181282F43816281AC
:1013500088EF890F0C94030981E00C94A209E3EE55
:10136000F2E0628128E0620F08F46FEF282F4381DA
:1013700081810C94030981E00C94AF09E3EEF2E063
:10138000628128E0621B08F460E0282F438181819C
:101390000C94030981E00C94BE09E3EEF2E0438172
:1013A00028E0420F08F44FEF282F628181810C94CE
:1013B000030981E00C94CD09E3EEF2E0438128E0DB
:1013C000421B08F440E0282F628181810C940309BC
:1013D00081E00C94DC0920E00C940309EF92FF9269
:1013E0001F93CF93DF93EC0110E0EE24EA94F12CED
:1013F00060910B01161770F00E944B089A818C8146
:1014000090FF27C08F5F8C83DF91CF911F91FF905A
:10141000EF90089520910901422F410F5527551F44
:10142000CA019A01220F331F280F391F28513D4F3F
:1014300070E0C7010E949128962F8C814091E602AE
:101440006091E502199F800D11240E94D0071F5F53
:10145000CFCF8150D8CFBF92CF92DF92EF92FF9241
:101460000F931F93CF93DF93FC0182810FEF80FFD7
:1014700001E010E080910B011817C0F00E944B08AA
:101480008091CD01013009F051C0811102C08091DD
:101490000B0181508093CD01DF91CF911F910F916E
:1014A000FF90EF90DF90CF90BF900895C091090119
:1014B000C12ED12CCC0DDD2DD11DCE01880F991F51
:1014C000C80FD91FC851DD4F198218821A8234E023
:1014D000E32EF12CB12C8091CD018B0D853004F1E0
:1014E0008370082E000C990BC816D90691F48091D0
:1014F000E6028E9DA0018F9D500D112455954795B4
:10150000559547959E016091E5028091E4020E9405
:10151000D007B00EF1E0EF1AF108E9F61F5FAACF8D
:1015200087FFDFCF90910B01890FDBCF90E0019611
:1015300060910B0170E00E949128ACCF0F931F9334
:10154000CF93DF938091090190910A0123E0829F5C
:10155000F0011124E851FD4F891740F1C0E0D3E0BC
:1015600060910B01C61740F10E944B0820910501C4
:101570008091CC01820F8093CC0190910601920F53
:1015800090930601191654F4082E000C990B409103
:101590000B014150550B841795071CF021952093A2
:1015A0000501DF91CF911F910F9108951182108253
:1015B00012828F5F3396D0CF0C2F10E070E0C801FD
:1015C0000E94912820910901820F482F50E020911C
:1015D000CC01022E000C330B02171307BCF0209134
:1015E0000601022E000C330B201731077CF08D9F73
:1015F0009001112428513D4F4091E6026091E5028F
:101600008091E4020E94D007CF5FAACFFA01EE0FCB
:10161000FF1FE40FF51FE851FD4F11821082128267
:10162000F3CF8F929F92AF92BF92CF92DF92EF92C1
:10163000FF920F931F93CF93DF93EC014C81042F04
:1016400010E09801D8010E94D5289B01AC010E94AE
:10165000EB284B015C01E0E2F0E0E01BF10BA5E5BB
:10166000B0E0AC019B010E94EB286B017C019F0163
:10167000DF010E94CD289B01AC010E94F6289B014E
:10168000AC01280D391D4A1D5B1DC701B6010E9422
:10169000A528F22E822F90E039E23F1560F143E059
:1016A000249F9001112435952795122F109500E065
:1016B00085E5E82EEF1880910B01081758F10E947C
:1016C0004B089C8181E0992319F0903219F48FEF37
:1016D0008093040180910401890F8C83DF91CF9165
:1016E0001F910F91FF90EF90DF90CF90BF90AF9040
:1016F0009F908F90089525E530E0B901681B790B24
:101700009B01220F331F260F371F37FFCCCF2F5FD0
:101710003F4FC9CF8E2D01FD8F2D20910901622FE2
:10172000600F7727771F9B01220F331F260F371F6C
:1017300028513D4F412F6091E5020E94D0070F5F75
:10174000BACF0F931F93CF93DF93EC0110E000E02B
:1017500090910B019017110609F06CF40E944B0850
:101760008C8190E00196817099278C83DF91CF91D5
:101770001F910F91089520910901A801420F511D59
:101780009A01220F331F240F351F28513D4F4C81E2
:101790006091E5028091E40296959017110651F050
:1017A0004CF0442349F04091E6020E94D0070F5FBD
:1017B0001F4FCECF4423B9F340E0F7CF8F929F92D3
:1017C000AF92BF92CF92DF92EF92FF920F931F934F
:1017D000CF93DF93FC01B280948081E0848300E0AA
:1017E00015E05BE4A52E88248394EE24EA94F12C82
:1017F0007BE4C72ED12C80910B01081770F0DF918C
:10180000CF911F910F91FF90EF90DF90CF90BF90FD
:10181000AF909F908F900C944B08C02FD0E01C9FEE
:10182000F0011D9FF00D1124E253FE4F91101CC0DA
:101830001382128220910901CE01820F911D9C0119
:10184000220F331F280F391F28513D4F1C9FF001D5
:101850001D9FF00D1124E253FE4F42816181808172
:101860000E94D0070F5FC7CF2381222379F1215037
:10187000238334818A2D821B311101C0822F1C9F4A
:10188000F0011D9FF00D1124E253FE4F9091E602EE
:10189000899FC0011124B6010E947D286283211115
:1018A00004C0332311F01482A38222E02B1510F21E
:1018B0001C9FF0011D9FF00D1124E253FE4F8091FB
:1018C000E40280838091E5028183B4CF0E944A299B
:1018D000823091400CF0AECF82E08B1530F50E9443
:1018E0004A29B7010E9491281C9FF0011D9FF00D0D
:1018F0001124E253FE4F808322E02B15C8F40E948E
:101900004A292091E5022695622F70E00E949128D5
:10191000280F1C9FF0011D9FF00D1124E253FE4F74
:1019200021831282A382848285CF8091E402DCCF5E
:101930002091E502EECFE3EEF2E080818E7F80839E
:1019400060817181828193810E94F1071092EA0186
:101950002FEF80E792E0215080409040E1F700C0F7
:1019600000000C944B086091E302669570E04BE038
:1019700050E08CE091E00E945A29892B19F481E013
:101980008093EA010E94F31F9093E3018093E201A8
:1019900008959091E30290FF35C09170811128C0A5
:1019A00092609093E302662351F06091E30270919C
:1019B000E4028091E5029091E6020E94F1076091B5
:1019C000E302669570E04BE050E08CE091E00E940D
:1019D0005A29892BA1F01092EA0181E08093E50158
:1019E0004091E6026091E5028091E4020C94EB09DB
:1019F0008B3210F09465D5CF880F982BD2CF0E94F0
:101A0000B30CEBCF0895682F9091E302969581E097
:101A1000890F8B3208F081E00C94C90C81E00C94A2
:101A2000030D682F9091E30296958FEF890F09F4CB
:101A30008AE20C94C90C81E00C94110D61E00C94C5
:101A4000C90CE3EEF2E080818160808386950C947E
:101A50001E0D8091E30280FD0C949B0C0C94210DD3
:101A600060E00C94C90C8091E80181112EC00E94A5
:101A7000F61D811104C00E94A61E0E9403080E9448
:101A8000ED076093E3027093E4028093E502909384
:101A9000E6026E7F61F40E9403080E94ED076093E6
:101AA000E3027093E4028093E5029093E6020E94C1
:101AB000DE071092EA018091E30280FF03C0869561
:101AC0000E94300D81E08093E80108950F931F93E9
:101AD000CF93DF938091EA01882309F49DC0809120
:101AE000E901E091E302E695E81BE093E40182302E
:101AF000C9F5F0E0E35CFD4FE491CE2FD0E000EAC1
:101B000018E08091E501882389F01092E5010E9498
:101B1000F31F9E0120953095820F931F9093E30150
:101B20008093E2011092E7011092E6018091E201B8
:101B30009091E3010E94FF1F8C179D0708F46CC071
:101B4000E091E201F091E301CE0FDF1FD093E301BA
:101B5000C093E20182EE91E0F801DF91CF911F91F5
:101B60000F910994863049F4F0E0E65CFD4FE49172
:101B7000CE2FD0E004EB18E0C4CF893051F4E695C5
:101B8000F0E0E95CFD4FE491CE2FD0E00EEE19E0DD
:101B9000B8CF8F3051F4E695F0E0EC5CFD4FE49166
:101BA000CE2FD0E00BE21AE0ACCF853149F4F0E063
:101BB000EF5CFD4FE491CE2FD0E00EE91AE0A1CF0B
:101BC000C8E2D0E001E11BE0883109F49ACF83320A
:101BD00039F4EFE2F2E0C591D49104EC18E091CF32
:101BE000C4EFD1E001EA1BE0843209F48ACFC0EDF2
:101BF000D7E00FEC17E0853209F083CF8E2F63E03A
:101C00000E947128E92FF0E0E45DFD4FE491CE2FB2
:101C1000D0E00EED1BE075CFDF91CF911F910F91BA
:101C20000895FA01811101C0FB010994CF93DF935C
:101C3000C82FD62F0E9412088C1740F00E9412085D
:101C40008D1720F4DF91CF910C940E0D8C2FDF9126
:101C5000CF910C941E0D0F931F93CF938C01FB011A
:101C6000C281CC2309F465C00E94471D8272F8012D
:101C7000E25CFC45E431F10538F4E053F64D0C9498
:101C8000C7280E94290DC0E08C2FCF911F910F9182
:101C900008954BE15DE06EE07DE00E94110EF3CF10
:101CA0004EE05DE06BE17DE0F8CF4CEA59E06FE992
:101CB00079E0F3CF4FE959E06CEA79E0EECF4AECF6
:101CC00059E06BEB79E0E9CF4BEB59E06AEC79E056
:101CD000E4CF48EE59E069ED79E0DFCF49ED59E016
:101CE00068EE79E0DACF45E458E06EE278E0D5CFEF
:101CF0004EE258E065E478E0D0CF81E00E941E0D0E
:101D0000C2CF65E082E00E94160EBDCF68E086E09B
:101D1000FACF6EE089E0F7CF64E18FE0F4CF67E1BE
:101D200085E1F1CF88E1EACF62E289E1ECCF83E29D
:101D3000E5CFC1E0A9CF8091F4028695869586957E
:101D400008958091F40281FD07C082608093F402BF
:101D50000E94321E0C94241008958091F40281FF99
:101D600007C08D7F8093F4020E94321E0C943010C5
:101D700008958091F40281FD0C94AD0E0C94A10E97
:101D80008091F402869581700895809117010895DD
:101D90000E94F61D811102C00E94A61E0E942E1EE6
:101DA0008093F402803220F0877088618093F4027F
:101DB0009091F402892F817090FF04C0892F86953D
:101DC000869586950C94FA0F8091F402982F96953B
:101DD00096959695933040F49F5F990F990F990FC0
:101DE0008770892B8093F4028091F4028160809344
:101DF000F4020E94321E8091F402869586958695A3
:101E00000C94FA0F8091F402982F987F79F0885003
:101E10008093F402887F91E009F490E08091F402CD
:101E200090FB80F98093F4020E94321E8091F402AC
:101E30008695869586950C94FA0F8091F40280FD24
:101E400013C081608093F402813019F489E080939B
:101E5000F4028091F4020E94321E8091F402869571
:101E6000869586950C94FA0F08958091F40280FF70
:101E700008C08E7F8093F4020E94321E80E00C9492
:101E8000FA0F08958091F40280FD0C94350F0C94A4
:101E90001D0F9091F402892F8695869586958F5F08
:101EA0008F7197708430D8F4880F880F880F892B32
:101EB0008093F4028091F402887F91E009F490E02D
:101EC0008091F40290FB80F98093F4020E94321E0C
:101ED0008091F4028695869586950C94FA0F9093DE
:101EE000F402E8CF843008F083E09091F402977018
:101EF000282F220F220F220F922B9093F402987F0B
:101F000021E009F420E09091F40220FB90F99093F5
:101F1000F4020C94FA0F0E94720F8091F4020C9458
:101F2000321EFC01DB0112968C918823F9F0EB5BE9
:101F3000FC45E730F105D8F4EC51F64D0C94C72878
:101F400083E00E948B0F80E0089580E0FACF0E942A
:101F5000020FF9CF0E94E40EF6CF0E94420FF3CF9A
:101F60000E94490FF0CF0E94B90EEDCF81E0089595
:101F7000279A2F9808952F980895CF92DF92EF9285
:101F8000FF928C3724E1920750F469E070E00E94E0
:101F90007D28CB01FF90EF90DF90CF900895B0E0C7
:101FA000A0E0BC01CD016A50774D8F4F9F4F982F15
:101FB000872F762F662725EF38E241E050E00E9418
:101FC000A52869017A01CA01B9010E9461289B0113
:101FD000AC01C701B6010E946128672F782F892FB5
:101FE00099276115710521E08207910591F66FEF40
:101FF0007FEFCFCFCF93C82F8430F0F481111DC075
:1020000080918000877F809380000E94BB0F2C2FDF
:1020100030E0AFEFBFEF0E94D52823E030E040E092
:1020200050E00E94A528C9010E94BD0F90938D0029
:1020300080938C00CF910895C3E0809180008860E8
:1020400080938000E4CF08951092EC011092EB0190
:102050001092ED01EFE6F0E08081816080830895C9
:10206000EFE6F0E080818E7F80830E949B0E0C94CF
:10207000FA0F1F920F920FB60F9211242F933F93D6
:102080004F935F936F937F938F939F93AF93BF9380
:10209000CF93EF93FF930E94C50E4091EB015091B7
:1020A000EC014F5F5F4F94EF899F90011124CA01AB
:1020B000B9010E947D289093EC018093EB01B90156
:1020C000660F672F661F770B71950E947D286F77CB
:1020D0008091ED01823041F4603451F480916F00C1
:1020E0008E7F80936F0004C0813011F46F37B1F39D
:1020F000E62FF0E0EA5BFC4FC4910E949B0E282F74
:1021000041E051E0C49FC001C59F900D112463E0E0
:1021100070E00E947D28269FC001279F900D11240A
:102120000E94BD0F90938D0080938C00FF91EF91E2
:10213000CF91BF91AF919F918F917F916F915F915F
:102140004F913F912F910F900FBE0F901F901895B8
:102150000E94B80F8AE08093800089E1809381001B
:102160008FEF9FEF90938700809386000E94C80EA8
:102170000E94C00E81110C94241008956A9A4EB1E9
:102180004B7F5EB15460EFB7F8949B01220F331F71
:10219000260F371F280F391F2817390741F4EFBFC3
:1021A0008FE594E00197F1F700C000000895DC018D
:1021B0006D91CD0178E05EB9000000C067FF4EB9B7
:1021C000660F000000C000C000C04EB900C07A9584
:1021D00091F7E2CFAF92BF92CF92DF92EF92FF9250
:1021E0000F931F93CF93DF937C015B01C42FD22FFA
:1021F000FC0182818823F9F04093F0010E94F31FD3
:102200009093EF018093EE0180E28C0F883008F00C
:1022100061C0C77081E001C0880FCA95EAF7DF91FD
:10222000CF911F910F91FF90EF90DF90CF90BF90D3
:10223000AF900C9459151091F001141340C0809187
:10224000EE019091EF010E94FF1F6C01B701C501E3
:102250000E943C1AC816D90690F5C0E2CD0F1D1792
:10226000B9F080E2810F883040F4177081E001C03E
:10227000880F1A95EAF70E946015C83048F481E08B
:102280009D2F977001C0880F9A95EAF70E94591503
:10229000802F0E944615C830E8F4D77081E001C055
:1022A000880FDA95EAF7DF91CF911F910F91FF9098
:1022B000EF90DF90CF90BF90AF900C94601580E2CC
:1022C0008C0F883038F4C77081E001C0880FCA9540
:1022D000EAF7E9CFDF91CF911F910F91FF90EF9037
:1022E000DF90CF90BF90AF9008950F939C01CB01EA
:1022F000233F4CE5340759F1A8F4283DFCE53F079E
:1023000001F1293D4CE53407D1F1273D3C4591F4DD
:1023100006E221EE41EE67ED7CE50E94EA1080E0E6
:102320000F910895253FFCE53F07E9F0B0F0263F07
:102330003C45F9F0FC018281882339F11092F001CB
:10234000EFCF07E225EE45EE68ED7CE5E6CF06E24D
:1023500021EE40EE63EF7CE5E0CF07E225EE44EEB0
:1023600064EF7CE5DACF06E221EE42EE65EF7CE534
:10237000D4CF07E225EE46EE66EF7CE5CECF08E24D
:1023800021E045EE69ED7CE5C8CF81E0C9CFCF9370
:10239000DF93EC01FB018281882309F419C1C2306B
:1023A000FCE5DF07C0F1C6319CE5D90730F09E019E
:1023B0002A5F3C452930310570F50E94131E909329
:1023C000FA028093F902C031ECE5DE0709F4CFC0D0
:1023D00008F05BC0C8308CE5D80709F4B6C088F5B2
:1023E000C430ECE5DE0709F4A8C0C0F4C2308CE5C7
:1023F000D80709F49CC08091F9028260C330DC45A3
:1024000009F498C08091F9029091FA020E94211E6D
:102410000E94C61780E0DF91CF9108958091F90264
:102420008061C630ECE5DE0709F484C08091F902D2
:102430008860C730DC4508F47DC08091F902806275
:1024400079C0CC308CE5D80709F489C070F480914C
:10245000F9028C60CA30ECE5DE0709F46BC008F4C1
:1024600078C08091F9028E7F65C0CE308CE5D807A8
:1024700009F479C08091F9028B7FCF30DC4508F4F4
:1024800059C08091F9028F7E55C0CB3FECE5DE0745
:1024900009F457C030F5C3318CE5D80709F46FC093
:1024A00078F4C131ECE5DE0709F465C0C231DC45E2
:1024B00009F0A8CF0E94C6178091F9028F773AC021
:1024C000C5318CE5D80709F462C008F476C0809164
:1024D000FA028160CA3FDC4509F094CF8093FA028A
:1024E00091CFCF3FFCE5DF0709F44DC088F4809120
:1024F000FA028D7FCD3F9CE5D90781F38091FA02E6
:102500008E7FCE3FDC4550F38091FA028360E6CFA8
:10251000C130FDE5DF0709F459C008F444C080E08C
:10252000C230DD4509F06ECF0E94A81E6BCF8091AE
:10253000F90281608093F90265CF8091F90284608D
:10254000F9CF8091FA028260C9CF8091F90280644C
:10255000F1CF0E94C6178091F9028068EBCF80917D
:10256000F9028D7FE7CF8091F902877FE3CF8091D9
:10257000F9028F7DDFCF8091F9028F7BDBCF8091D5
:10258000F902837FD7CF8091FA028C7FA7CF809109
:10259000F90282FB992790F921E0922790FB82F9BA
:1025A00090FB83F9C7CF8091FA02982F9095917094
:1025B0008E7F892B90FB81F991CF0E94C617909155
:1025C000F902892F97FB87F98058B4CF81E0ACCF0F
:1025D00081E021CFCF93DF93EB0186319C4511F54C
:1025E0000E94471D9A81992399F08A7A91E009F413
:1025F00090E09093F101811109C089E20E94221DAF
:102600000E94931D80E0DF91CF91089585E3F6CF7E
:102610008091F101811104C089E20E94291DF0CF4F
:1026200085E3FBCF81E0EFCF9093F7018093F60134
:102630000895E091F601F091F701309721F00190B3
:10264000F081E02D099480E00895E091F601F09189
:10265000F701309799F020912401222359F020911D
:10266000F90227FF07C0DC012C9111962C931197DA
:1026700025E02C930280F381E02D099408952091A8
:10268000F4013091F5012817390771F09093F501A5
:102690008093F401E091F601F091F701309721F079
:1026A0000680F781E02D099408952091F201309180
:1026B000F3012817390771F09093F3018093F20129
:1026C000E091F601F091F701309721F00084F18557
:1026D000E02D0994089585B7806885BF85B7806827
:1026E00085BF0895089508950C94721308950C946D
:1026F00076130E946B130E9473130C94741381E081
:1027000008950C947F130E94EA1F0E942E060E94D7
:10271000A1200E94C80E0E94330D0C9477139F9243
:10272000AF92BF92CF92DF92EF92FF920F931F93DF
:10273000CF93DF93CDB7DEB72A970FB6F894DEBFFD
:102740000FBECDBF0E9476060E948113882309F434
:1027500072C059EFA52E51E0B52E10E000E0902E8A
:10276000802F0E9420066C01F501E190F1905F013D
:10277000E816F90609F459C08091A70281FD0E946C
:10278000290697012C253D2580E0EE24E394F12CC9
:10279000A9014E215F21452B09F441C08E839F8200
:1027A000CE20DF2081E0CD2809F480E088870E94D8
:1027B000F31F8160782F9A8789874E815F816885B2
:1027C0008A850E943E14000F111FF801E750FE4F4A
:1027D00080819181E826F926F182E0820E94660DCF
:1027E0000E9423100E9419139091F8018917A1F1FA
:1027F0000E9419138093F8012A960FB6F894DEBF51
:102800000FBECDBFDF91CF911F910F91FF90EF9041
:10281000DF90CF90BF90AF909F900C94B5038F5FE7
:10282000EE0CFF1C803109F0B3CF0F5F1F4F063055
:10283000110509F094CF8FEF89838A831B820E9450
:10284000F31F8160782F9D838C8349815A816B812E
:102850008D810E943E14C2CF2A960FB6F894DEBF37
:102860000FBECDBFDF91CF911F910F91FF90EF90E1
:10287000DF90CF90BF90AF909F900895CF93DF935C
:10288000CDB7DEB72B970FB6F894DEBF0FBECDBF26
:102890004F83588769877A878B871E821D8285E0E0
:1028A000FE013796DE01119601900D928A95E1F7AF
:1028B00049815A816B817C818D819E812B960FB6D7
:1028C000F894DEBF0FBECDBFDF91CF910C943F1ABD
:1028D000FC01808191810C94F41CCF93C82F882334
:1028E00009F483C08238C1F40E94191381FD7DC0B0
:1028F00089E30E94221D0E94931D2FEF81EE94E038
:10290000215080409040E1F700C0000089E30E9420
:10291000291DCF910C94931D8338A1F40E941913A3
:1029200080FD63C083E50E94221D0E94931D2FEF4E
:1029300081EE94E0215080409040E1F700C000001B
:1029400083E5E5CF8438A1F40E94191382FD4DC0C0
:1029500087E40E94221D0E94931D2FEF81EE94E0D8
:10296000215080409040E1F700C0000087E4CFCFC5
:102970008CEF8C0F813A90F46C2F8091180190911C
:1029800019010E94C11E882329F08C2F0E94291D45
:102990000E94931D8C2F0E94221DBBCF80E28C0FC2
:1029A000883048F4C77081E001C0880FCA95EAF703
:1029B0000E944A1DAECFEBE5EC0FE33040F4F0E0AF
:1029C000EB53FE4F808190E0CF910C943F13C85A97
:1029D000C73158F4EC2FF0E0EE0FFF1FE956FE4F21
:1029E00080819181CF910C945513CF9108958823C4
:1029F00009F44BC0823871F40E94191381FF45C05D
:102A000089E30E94221D0E94931D89E30E94291DD3
:102A10000C94931D833859F40E94191380FF35C01C
:102A200083E50E94221D0E94931D83E5EFCF843829
:102A300059F40E94191382FF28C087E40E94221DC6
:102A40000E94931D87E4E2CF9CEF980F913AF0F239
:102A500090E2980F983050F4877091E001C0990F80
:102A60008A95EAF7892F0E94501DD2CF9BE5980FD7
:102A7000933020F490E080E00C943F13885A873123
:102A800020F490E080E00C9455130895CF93C82F64
:102A90000E946D14C93349F42FEF87EE93E0215063
:102AA00080409040E1F700C000008C2FCF910C9443
:102AB000F714882321F00E944A1D0C94931D089559
:102AC000882321F00E94501D0C94931D0895BF92FD
:102AD000CF92DF92EF92FF920F931F93CF93DF93EA
:102AE0006C01D62FC72FFC01058102950F70128152
:102AF00011110E94671D0E94401DE82E882391F04D
:102B00001123D1F08C2F807F803421F080E28D0F53
:102B1000883090F082E00E94DE1D0E94401D91E00E
:102B2000E82EE926BC2EB2949FE0B922EB2DF0E00E
:102B3000E551F64D0C94C728E12CF4CF0C2F0F7003
:102B4000C07F11F00295007F1123A9F0002359F0F6
:102B500080E28D0F883010F0D11109C0802F0E94C3
:102B60004A1D0E94931D8D2F0E946D1414C0802F4A
:102B70000E945A1DF6CF8D2F0E94F714002359F0A2
:102B800080E28D0F883010F0D1112CC0802F0E9470
:102B9000501D0E94931D2B2D2850330B24303105DE
:102BA00020F40E9419130E94B503EE2009F493C18A
:102BB0000E943C1D80FD8FC1F60112820E94361DCD
:102BC0000E94C31BC6010E948C170E94361DDF9114
:102BD000CF911F910F91FF90EF90DF90CF90BF901A
:102BE0000C94E41B802F0E94601DD3CFFC2FFF703C
:102BF000FF2EC07FC03219F0F29480EFF822DD235F
:102C000069F0D13049F1112391F1002351F1F6011E
:102C1000858180FFA8CF8F70858323C0112381F029
:102C2000011106C00E947A1D8F290E945915B3CF49
:102C30000130C1F70E947A1D8F290E94801DABCF01
:102C4000011106C00E94891D8F2D0E946015A3CF1F
:102C5000013009F4A0CFF6CF112329F0063008F097
:102C60009ACF8F2DE2CF053008F095CFEDCF00231E
:102C700059F3D93349F4FFEF27EE33E0F150204008
:102C80003040E1F700C000008D2F0E94F71483CF81
:102C90008C2F86958695837069F0813009F07BCF03
:102CA0008D2F9C2F9370111102C090E080E00E9444
:102CB000551371CF8D2F9C2F9370111102C090E08E
:102CC00080E00E943F1367CF8C2F837009F041C0D2
:102CD000111161CF4D2F429546954770440F440F17
:102CE0000D2F0F7010E030E020E0042E04C0000F24
:102CF000111F221F331F0A94D2F760E070E0CB014E
:102D0000D4FF0FC06FE070E080E090E004C0660F79
:102D1000771F881F991F4A95D2F760957095809507
:102D20009095C695C695C370602B712B822B932B03
:102D3000C23049F058F4C13019F00E94751B2BCFF6
:102D40000E94631B28CF0E94871B25CF0E94611B16
:102D500022CF8695112311F08C2F8170882309F4DE
:102D60001ACF4D2F429546954770440F440F0D2FB3
:102D70000F7010E030E020E0042E04C0000F111F9F
:102D8000221F331F0A94D2F760E070E0CB01D4FF1A
:102D90000FC06FE070E080E090E004C0660F771F26
:102DA000881F991F4A95D2F76095709580959095E8
:102DB000C695C695C370602B712B822B932BC230A6
:102DC00049F058F4C13019F00E943A1CE4CE0E9438
:102DD000281CE1CE0E944C1CDECE0E949D1BDBCE47
:102DE000CF70112329F08C2F0E94C31B8D2F1DCF74
:102DF0008D2F0E9460158C2F0E94E41BCCCED23FF9
:102E000089F160F4D03FC9F0D13F29F1112309F4D1
:102E100042C00111A8CE8C2F8F7121C0D33F39F150
:102E2000D43FA1F7112369F1CF718C2F0E94C31BEE
:102E300063E08C2F0E94C91DAECE112341F00530F6
:102E400008F0A9CE8C2F8F710E94071CA4CE0630EB
:102E500008F0A1CEF7CF8C2F8F71112369F20E9459
:102E6000C31B99CE8C2F8F711123C9F3C5CF1123AA
:102E700029F08C2F8F710E94AE1B8DCE0E94A91B52
:102E80008ACE81E00E94DE1D023008F484CE82E00A
:102E90000E94DE1D80CE002359F0D93309F0F4CE14
:102EA0008FEF97EEE3E081509040E040E1F7EACE0B
:102EB0008C2F8F71A1CF4C2F4F706D2FC6010E94A8
:102EC00015040E94D91A67CE4C2F4F706D2FC60182
:102ED0000E94180460CEDF91CF911F910F91FF9057
:102EE000EF90DF90CF90BF9008950F931F93CF93F3
:102EF000DF93EC01688179818A810E94FE1C8C013C
:102F00000E945E1C0E94601BB801CE01DF91CF9130
:102F10001F910F910C946715CF93DF93EC018B8178
:102F20009C81892B29F08881998189238F3F59F4CD
:102F3000DF91CF910895CE010E947517CE01DF91E8
:102F4000CF910C949903CE010E94CD038111F3CF50
:102F50000E94401D882361F38A81882349F382E01F
:102F6000DF91CF910C94DE1D0E94671D0E94771D9A
:102F70000E94931D90E080E00E943F1390E080E06B
:102F80000C9455130E94301D0C94B4170E94571DC9
:102F90000C94C217E92FE295EF70E250EE3070F416
:102FA000F0E0E550F64D0C94C728803F19F020F46E
:102FB000883E20F481E00895843FE1F380E00895A5
:102FC000883EC0F3813FD1F7F5CF93FB882780F986
:102FD00008950E94F41C0C94CA17CF93DF9300D07D
:102FE00000D00F92CDB7DEB70F900F900F900F90DB
:102FF0000F90DF91CF910895CF93DF9300D000D051
:1030000000D0CDB7DEB726960FB6F894DEBF0FBE60
:10301000CDBFDF91CF9108951F93CF93DF93C091E0
:10302000060216E0809107028C1304C0DF91CF9155
:103030001F910895D0E01C9FF0011D9FF00D1124F9
:10304000E85FFD4F40815181628173818481958168
:103050000E94FC172196C770E5CF4091380250912D
:10306000390260913A0270913B0280913C0290914A
:103070003D020C94FC171F93CF93DF9380913D0288
:10308000807FA9F480913A02882389F0809106021A
:10309000C09107026091380270913902A0913B0201
:1030A000B0913C02D62FD72316E0C81304C0DF919D
:1030B000CF911F91089590E0109711F0DF3F19F420
:1030C00001968770F2CF189F9001199F300D11243F
:1030D000F901E85FFD4F41814713F2CF408146136C
:1030E000EFCF42814111ECCF438154814A1B5B0BEE
:1030F000483C510528F780913D028F708061809394
:103100003D02F901E35FFD4F80818F708061808314
:1031100088E392E00E948C17DF91CF911F910C946D
:103120000C18AF92BF92CF92DF92EF92FF920F9363
:103130001F93CF93DF93CDB7DEB761970FB6F894A7
:10314000DEBF0FBECDBF8C0185E0F801DE011D960C
:1031500001900D928A95E1F7F80140815181E2805A
:1031600088E3C82E82E0D82E60913B0270913C0229
:103170006115710509F461C19091380220913902FD
:10318000892F82238F3F09F458C1A380B480F09027
:103190003A02F501E61BF70BFF2009F4FCC0809111
:1031A0003D02382F307FE83CF10508F0B2C0311104
:1031B00079C0FE2C251323C0941321C0E1101FC039
:1031C0008F70806180933D020E942D18C6010E947D
:1031D0008C1780913D02F80185838F2D61960FB683
:1031E000F894DEBF0FBECDBFDF91CF911F910F913D
:1031F000FF90EF90DF90CF90BF90AF900895AB28F5
:1032000029F0842F85238F3F09F033C180E0F82F08
:10321000F170DF2E80FF3CC08091060220910702F2
:1032200036E0821315C04D875E878D859E850E948E
:10323000F41C292F22952F702230F0F0243018F53D
:103240009F70F1F0F8019581907FD1F4D12C1EC0D0
:1032500090E0389FF001399FF00D1124E85FFD4F99
:103260006181651306C06081641303C062816E11C1
:103270000FC001968770D5CF9F7011F0882331F36E
:10328000805E883018F3C8010E948C17FD2CA5CFF2
:10329000EE2009F4A2CF80913D02816080933D022F
:1032A000F12C9BCF251306C0941304C0F801EE2027
:1032B00009F48DC04D875E878D859E850E94E91734
:1032C000882319F1EE2009F180913D02803270F0DF
:1032D000209138023091390238872F831986BB86B6
:1032E000AA868C87CE0107960E948C1786E0F8018B
:1032F000A8E3B2E001900D928A95E1F70E943B1895
:103300000E942D18FF24F39468CFC8010E948C17E7
:10331000F9CF311113C07A2DB98AA88A6E2D898907
:103320000E94ED1788E392E00E948C1786E0F60178
:1033300011928A95E9F70E942D18B2CF25130FC07C
:1033400094130DC0E1100BC0F8018583C8010E94E1
:103350008C1786E0F60111928A95E9F73ECF4D87EA
:103360005E878D859E850E94E917882371F2EE2085
:1033700061F280913D02803208F4B8CF209138028A
:10338000309139023A8329831B82BD82AC828E83BD
:10339000CE010196A9CFE83CF10508F041C0FE2C12
:1033A000EE2009F4B2CF25132AC0941328C08091CF
:1033B0003D0280FD1BC0982F907FC1F0F8018583EE
:1033C000903F31F0982F907F905F8F70892B85838D
:1033D000C8010E948C1786E0F801A8E3B2E00190D2
:1033E0000D928A95E1F70E942D18F7CE86E0F8013C
:1033F000A8E3B2E001900D928A95E1F7EECE4D87F9
:103400005E878D859E850E94E91781116FCF80911F
:103410003D02816080933D02C8010E948C17DDCE81
:103420007A2DB98AA88A6E2D89890E94ED1786E0C7
:10343000F60111928A95E9F7D6CFEE2009F465CF0F
:103440004D875E878D859E850E94E917F82E88231B
:1034500009F45BCF86E0F801A8E3B2E001900D9299
:103460008A95E1F788E392E00E9468140E943B1875
:10347000BACF81E08E25CBCE88EC90E008951F93E3
:10348000CF93DF93CDB7DEB72C970FB6F894DEBF9E
:103490000FBECDBF4F83588769877A878B879C87FC
:1034A000CE0107960E949118882369F08A859B8532
:1034B000892B39F04F815885842F85238F3F09F060
:1034C00071C016E05FC086E0FE013796DE011196FE
:1034D00001900D928A95E1F78A859B85892B89F366
:1034E0008F81988589238F3F61F32091070230E017
:1034F000C90101968770992740910602481719065D
:1035000071F40E94C617109207021092060286E01C
:10351000E8E3F2E0DF011D928A95E9F7D2CF96E069
:10352000929FD001939FB00D1124A85FBD4FFE0163
:10353000319601900D929A95E1F7809307020E94CF
:103540000C18BFCF819FC0011124885F9D4F0E943E
:1035500091188823E9F0E09106021E9FF0011124E2
:10356000E85FFD4F40815181628173818481958143
:103570000E94FC178091060290E0019687709927BF
:103580008093060280910602909107028913DACF98
:103590002C960FB6F894DEBF0FBECDBFDF91CF9152
:1035A0001F91089569857A858B859C850E94FC17FB
:1035B00088CFEF92FF920F931F93CF93DF938C01ED
:1035C000892B81F0F12CEE24E394E8012196F80197
:1035D0008491843770F4843008F05FC08130B1F09A
:1035E0008230A1F1DF91CF911F910F91FF90EF9069
:1035F0000895853709F44CC008F43DC09CE7980F46
:10360000903780F78F770E94F71449C00E5F1F4FE5
:10361000FE01849190E2980F983060F48770FE2D3F
:1036200001C0FF0F8A95EAF78F2F0E946A1D0E9442
:10363000931D02C00E946D148F2D815030F2EFE96E
:10364000FFE03197F1F700C00000F7CF0E5F1F4F8A
:10365000FE01849190E2980F983050F48770FE2D0F
:1036600001C0FF0F8A95EAF78F2F0E94701DDFCFF0
:103670000E94F714E1CF0E5F1F4FFE01C491C150AD
:10368000D8F28FE99FE00197F1F700C00000F7CF73
:103690000E5F1F4FFE01F490CFCF0E946D148E017C
:1036A000CBCF08950C94511B0E94521B60937E0255
:1036B00070937F0280938002909381020C94B417E0
:1036C00008950C94541B0F931F9300917E02109148
:1036D0007F022091800230918102602B712B822B1E
:1036E000932B1F910F910C94541B0F931F930091D8
:1036F0007E0210917F02209180023091810260232E
:103700007123822393231F910F910C94541B0F93C9
:103710001F9300917E0210917F02209180023091D0
:10372000810260277127822793271F910F910C94A4
:10373000541B0C94511B0C94991B0E949B1B60936F
:103740007A0270937B0280937C0290937D020C94AA
:10375000B41760E070E0CB010C949D1B0F931F9396
:1037600041E050E060E070E08A019B0104C0000F7E
:10377000111F221F331F8A95D2F7C901B8011F916B
:103780000F910C949D1B0F931F9341E050E060E05C
:1037900070E004C0440F551F661F771F8A95D2F74B
:1037A00080917A0290917B02A0917C02B0917D027F
:1037B0008A019B01082B192B2A2B3B2BC901B8012D
:1037C0001F910F910C949D1B0F931F9341E050E0AC
:1037D00060E070E004C0440F551F661F771F8A9594
:1037E000D2F7CB01BA0160957095809590950091C4
:1037F0007A0210917B0220917C0230917D0260233D
:103800007123822393231F910F910C949D1B0F937F
:103810001F9341E050E060E070E004C0440F551F8A
:10382000661F771F8A95D2F780917A0290917B026A
:10383000A0917C02B0917D028A019B010827192783
:103840002A273B27C901B8011F910F910C949D1B9A
:103850000F931F9300917A0210917B0220917C02BA
:1038600030917D02602B712B822B932B1F910F9136
:103870000C949D1B0F931F9300917A0210917B0271
:1038800020917C0230917D02602371238223932357
:103890001F910F910C949D1B0F931F9300917A021F
:1038A00010917B0220917C0230917D02602771276C
:1038B000822793271F910F910C949D1B0895929539
:1038C000907F890F982F977041E001C0440F9A951F
:1038D000EAF786958695869595E0899FF0011124F3
:1038E000E25CFD4F30E020E070E05191DF01119784
:1038F000CB01022E02C0969587950A94E2F781705B
:1039000081958527842385278C932F5F3F4F253012
:10391000310559F708959295907F890F982F9770E8
:1039200086958695869525E0829FF0011124E25CBC
:10393000FD4F50E040E080E0219130E0092E02C0D0
:10394000369527950A94E2F721703327042E01C09B
:10395000220F0A94EAF7822B4F5F5F4F45305105E3
:1039600059F70895BF92CF92DF92EF92FF920F9393
:103970001F93CF93DF938C01C0907A02D0907B028B
:10398000E0907C02F0907D0280917E0290917F0217
:10399000A0918002B0918102C82AD92AEA2AFB2A82
:1039A000CFE1D0E0BC2ED701C6010C2E04C0B695E5
:1039B000A795979587950A94D2F780FD0EC0219719
:1039C00088F7B12C8B2DDF91CF911F910F91FF9034
:1039D000EF90DF90CF90BF900895B8018C2F0E9498
:1039E0003604019761F3EECFCF93DF93EC010E9491
:1039F000B21CBE01DF91CF910C9436041F93CF937C
:103A0000DF93EB0190910502992331F0CB01DF9117
:103A1000CF911F910C94F41C882379F0CB010E9464
:103A2000B21C182F682FCE010E945F1CBE01812F8F
:103A3000DF91CF911F910C943604CB010E948B1C17
:103A4000182FF4CF682F80911801909119010C94D0
:103A5000411F682F80911801909119010C944C1FFF
:103A600080911801909119010C94571F8091820246
:103A70008595859585950895809182028770089532
:103A800090918202977081E009F480E0089580911E
:103A9000A60208959091A602892B8093A60208950C
:103AA00080959091A60298239093A6020895109273
:103AB000A60208959091A502892B8093A5020895EE
:103AC00080959091A50298239093A5020895109255
:103AD000A50208959091A402892B8093A4020895D1
:103AE00080959091A40298239093A4020895109237
:103AF000A402089580918302089508950C947D1D79
:103B000090918302981721F0809383020C947E1D7C
:103B1000089580918302882329F01092830280E027
:103B20000C947E1D0895E0911801F0911901809187
:103B3000A6028083E0911801F09119018081909193
:103B4000A502892B8083E0911801F09119018081F1
:103B50009091A402892B808390918302992381F014
:103B6000E0911801F09119018081892B8083809167
:103B70001801909119010E94AD1E81110E94891DAA
:103B800080911801909119010C94251308950C94BB
:103B9000C61D98E0899F90011124622B60938202D8
:103BA0000E94C31B809182028595859585950C9412
:103BB000C71D1092820280E00C94C71D9091820272
:103BC0008095892380938202282F277071F4282FF3
:103BD000082E000C330B9217130639F08595859546
:103BE00085950E94E41B0C94D91D089590E080E017
:103BF0000E94752921E08C3E9E4F09F020E0822F23
:103C0000089582E090E00C946729682F82E090E0AC
:103C10000C947B2983E090E00C946729682F83E063
:103C200090E00C947B29CF9384E090E00E94672978
:103C3000C82F81E290E00E946729982F8C2FCF91A6
:103C40000895CF93C92F682F84E090E00E947B29CC
:103C50006C2F81E290E0CF910C947B2986E090E07C
:103C60000C946729682F86E090E00C947B29AB01C7
:103C7000BC018FE090E00C948D29AB01BC0183E185
:103C800090E00C948D2960E070E0CB010C943D1E17
:103C900060E070E0CB010E94371E0C94431E6CEE76
:103CA0007EEF90E080E00E94992960E082E090E061
:103CB0000E947B2960E083E090E00E947B291092C3
:103CC0007E0210927F02109280021092810260E0C8
:103CD00084E090E00E947B2960E081E290E00E9415
:103CE0007B2960E085E090E00E947B2960E086E02F
:103CF00090E00E947B296FEF87E090E00E947B2993
:103D000040E050E0BA0188E090E00E948D2960E038
:103D10008DE090E00E947B2940E050E0BA0188E10C
:103D200090E00E948D2960E087E190E00E947B296D
:103D300040E050E0BA018CE190E00E948D2960E003
:103D400080E290E00E947B290C94481E0C944F1E48
:103D5000682F8EE090E00C947B29FC0132968091D4
:103D60002401882321F08091F9029EE187FF96E0EB
:103D700080E0915008F4089521912223D1F38F5FC0
:103D8000F8CF662301F1209124012223F1F0209144
:103D9000F90227FF1AC0462F4695469546954E31A3
:103DA00090F4677021E030E002C0220F331F6A9563
:103DB000E2F7840F911DFC01828190E028233923D2
:103DC00081E0232B69F480E00895FC013296089687
:103DD0002191261721F0E817F907D1F7F4CF81E0F8
:103DE00008959C01FC0132969FEF80E041914617B7
:103DF00051F09F3F19F4411101C0982F8F5F863019
:103E0000A9F79F3F09F40895290F311D97FD3A95B1
:103E1000F90162830895FC013296089621912613D8
:103E200003C0DF0111971C92E817F907B9F708954D
:103E3000E62FE695E695E695EE3168F4E80FF92F62
:103E4000F11D677021E030E001C0220F6A95EAF7AA
:103E50008281822B82830895E62FE695E695E6958A
:103E6000EE3170F4E80FF92FF11D677021E030E0BA
:103E700001C0220F6A95EAF72095828128232283C8
:103E8000089520912401222329F02091F90227FD91
:103E90000C94181F0C94F11E20912401222329F068
:103EA0002091F90227FD0C942C1F0C940B1FFC0190
:103EB000329680912401882351F08091F90287FF86
:103EC00006C08EE1DF011D928A95E9F7089586E02C
:103ED000F9CF089508950C946A1F0E946B1F80917A
:103EE000FF02843061F11092A80288E190E020E4A2
:103EF0000FB6F894A895809360000FBE20936000E1
:103F000080E00E94FA0F80E00E94B5030E946B1FC0
:103F100083B7817F846083BF83B7816083BF7894D8
:103F2000889583B78E7F83BF0FB6F894A89580914C
:103F30006000886180936000109260000FBE089559
:103F40000895CF930E94691F0E9476060E94A01FC9
:103F5000C0E08C2F0E942006892B31F4CF5FC63041
:103F6000C1F780E0CF91089581E0FCCF08950C94D3
:103F7000B61F0E94C6170E94C80E0E9419130E9405
:103F8000B5030C94B71F1F921FB61F9211248F9375
:103F90009F93AF93BF938091A802811113C080912A
:103FA000F5029091F602A091F702B091F8024196C5
:103FB000A11DB11D8093F5029093F602A093F70224
:103FC000B093F802BF91AF919F918F911F901FBE48
:103FD0001F90189582E084BD93E095BD9AEF97BD40
:103FE00080936E0008952FB7F8948091F502909118
:103FF000F602A091F702B091F8022FBF08959C013C
:104000004FB7F8948091F5029091F602A091F702D3
:10401000B091F8024FBF821B930B089578941F92C2
:104020001FB61F9211248F939F93AF93BF938091DC
:10403000F5029091F602A091F702B091F802019674
:10404000A11DB11D8093F5029093F602A093F70293
:10405000B093F802BF91AF919F918F911F901FBEB7
:104060001F90189581E08093E00080E28093D80053
:104070001092C9008FE19EE40197F1F700C00000A3
:1040800087E090EBDC018093080390930903A093F1
:104090000A03B0930B0388E19CE00FB6F894A8954F
:1040A000809360000FBE90936000FFCFAF92BF92ED
:1040B000CF92DF92EF92FF920F931F93CF93C0E0C6
:1040C000CC24C394D12CE82EF12C8C2F0E942006F6
:1040D0005C0110E000E0C601002E02C0880F991FAD
:1040E0000A94E2F78A219B21892B99F40F5F1F4FD5
:1040F0000031110581F7CF5FC63039F780E0CF91ED
:104100001F910F91FF90EF90DF90CF90BF90AF90F5
:104110000895602F7C2F80E00E941904E816F906AC
:1041200029F781E0ECCFCF93C82F8CE20E94562074
:10413000882321F08C2FCF910C94562080E0CF91D2
:104140000895CF930E94F61D811102C00E94A61E01
:10415000C5E608C00E9476068FE39CE90197F1F757
:1041600000C00000C150B1F789E20E949320811184
:104170000BC18AE20E94932081110E94A61E85E055
:104180000E94932081110E9432200E94011E809380
:10419000A70287E00E949320882371F08BE10E94A0
:1041A0009320882309F4CDC09091A702892F8D7F99
:1041B00091FF82608093A7028091A7020E94051E52
:1041C0000E94131E9093FA028093F90280EE0E94DF
:1041D0009320882341F09091F902892F8E7F90FFE0
:1041E00081608093F90289E30E949320882341F043
:1041F0009091F902892F8D7F91FF82608093F9025F
:1042000082EE0E949320882341F09091F902892F39
:104210008B7F92FF84608093F90286EE0E94932048
:10422000882341F09091F902892F877F93FF88605E
:104230008093F90283EE0E949320882341F09091AD
:10424000F902892F8F7E94FF80618093F90285E3C4
:104250000E949320882341F09091F902892F8F7D4D
:1042600095FF80628093F90281E30E949320882366
:1042700041F09091F902892F8F7B96FF80648093A3
:10428000F90281E10E949320882341F09091F90284
:10429000892F97FB87F980588093F9028091F90262
:1042A0009091FA020E94211E87E20E949320C82F5B
:1042B0008EE10E9493208111C2608FE10E949320C1
:1042C0008111C46080E20E9493208111C86081E264
:1042D0000E9493208111C06182E20E94932081118B
:1042E000C06283E20E9493208111C06484E20E9434
:1042F0009320882309F442C0C0688C2F0E940E1EB0
:104300006C2F70E090E080E00E94611B60917A0267
:1043100070917B0280917C0290917D020E949B1B98
:104320008FE00E949320882319F081E00E94A81E4C
:1043300085E10E949320882339F180E0CF910C948D
:10434000A81E8EE00E949320882339F09091A70246
:10435000892F8B7F92FF84602DCF80E10E94932074
:104360009091A702882329F0892F877F93FF886087
:1043700021CF892F8E7F90FF81601CCFC111BDCFCF
:104380000E940A1E682FBDCFCF9108958091C90267
:1043900008950895CF93DF9300D00F92CDB7DEB785
:1043A0009091FF02943019F589837B836A8382E0C0
:1043B0008093E9008FEF9091E800815095FD06C051
:1043C00095ED9A95F1F700008111F5CF8091E80005
:1043D00085FF0DC050E040E063E070E0CE01019643
:1043E0000E94D0238091E8008E778093E8000F90A0
:1043F0000F900F90DF91CF910895BC0184E00C9451
:10440000CA21BC0183E00C94CA21CF93DF93EC0155
:10441000809124018823B1F18091F90287FF32C095
:1044200060E282E08093E9008FEF9091E800815094
:1044300095FD06C095ED9A95F1F700008111F5CF35
:104440008091E80085FF1BC08091240170E050E05E
:1044500040E0811104C050E040E068E070E0CE012F
:104460000E94D0238091E8008E778093E80080E25C
:10447000FE01A9EAB2E001900D928A95E1F7DF9181
:10448000CF91089568E081E0CDCF8091FE02811147
:1044900009C00E9460250E94BD258091E2008460D1
:1044A0008093E20008951092FE0208950895089501
:1044B0000C94B91F42E061EC81E00E94DC2442E2EE
:1044C00061EC82E00C94DC2480910103833009F4D8
:1044D0005FC030F48130C1F1823009F49BC008958F
:1044E0008A3009F487C08B3009F46DC0893009F037
:1044F0004EC080910003813209F049C080910403CD
:1045000090910503029708F042C08091E800877FF0
:104510008093E8008091E80082FF35C09091F3001D
:104520008091F200029729F48091F1008B7F813015
:1045300021F48091F1008093C9028091E8008B778B
:104540008093E8000C94102580910003813AF9F4DF
:104550008091E800877F8093E80080910403909128
:104560000503892B61F460E289EA92E070E00E9421
:104570001F248091E8008B778093E800089560E025
:1045800090E080E0F3CF8091FF028111C3CF0895C6
:1045900080910003813AD9F780910403909105033B
:1045A000892BA9F78091E800877F8093E8008091AC
:1045B000E80080FFFCCF809124018093F10080917E
:1045C000E8008E77BDCF80910003813201F78091A2
:1045D000040390910503892BD1F68091E800877F31
:1045E0008093E8000E9410258091020380932401AB
:1045F0000C94C61780910003813249F68091E8003F
:10460000877F8093E8000E941025809103038093A8
:10461000CA02089580910003813A09F0B8CF8091D1
:10462000E800877F8093E8008091E80080FFFCCF5E
:104630008091CA02C2CF84B7877F84BF0FB6F89437
:10464000A89580916000886180936000109260005E
:104650000FBE80E890E00FB6F894809361009093CD
:1046600061000FBE0E9479130E9460250E94BD2543
:104670008091E20084608093E20078940E94462852
:104680000E9483138AE191E00E9414138091FF023B
:10469000853019F00E948F13F9CF0E946D1F809111
:1046A000FD02882399F30E94A11F882379F30E94B9
:1046B000BA23ECCF0C945C23292F33272330310508
:1046C00019F168F42130310509F44AC0223031056E
:1046D00009F44BC090E080E030E020E028C02132B7
:1046E000310579F122323105A9F780E490E022EA20
:1046F00035E061157105D9F08DE690E025E335E0F0
:1047000061307105A1F0E6CF99278130910599F0CC
:10471000009741F08230910589F00397D9F6E6ECD5
:10472000F4E002C0E4EEF4E0849190E09F01FA012D
:10473000318320830895EAEDF4E0F6CFECECF4E069
:10474000F3CF89E090E02AEF34E06115710579F349
:1047500089E090E023E135E06130710541F3BACFA3
:1047600082E190E023E235E0E2CF8BE390E028EEB7
:1047700034E0DDCF80E189BD82E189BD09B400FE6E
:10478000FDCF8091D8008F7D8093D8008091E0008C
:1047900082608093E0008091E00081FDFCCF08956D
:1047A000AF92BF92CF92DF92FF920F931F93CF935E
:1047B000DF936C01EB018A010E942F25F82E8111F5
:1047C00023C00115110539F0F80180819181C81BC2
:1047D000D90BC80ED91EB12CA12C2097A9F080911D
:1047E000E80085FD22C08091E8008E778093E80084
:1047F00001151105A1F0F80180819181A80EB91E63
:10480000B182A08285E0F82E8F2DDF91CF911F918C
:104810000F91FF90DF90CF90BF90AF9008950E94CE
:104820002F258823D1F2F82EEFCFF60181916F0169
:104830008093F1002197FFEFAF1ABF0ACECFFC01A2
:10484000809106039091070386179707A0F06115E2
:10485000710529F49091E8009E779093E80090E02C
:104860006115710551F4911108C08091E80082FF33
:1048700034C080E00895BC01F2CF8091FF0288230C
:10488000C1F18530C1F18091E80083FD30C0809195
:10489000E80082FDEACF8091E80080FFE1CF8091BF
:1048A000F3002091F200382F6115710519F02830BE
:1048B000310558F091E02830310509F090E0209161
:1048C000E8002E772093E800CBCF81918093F10010
:1048D000615071092F5F3F4FE7CF8091FF0288231E
:1048E00041F0853041F08091E80083FFBECF81E048
:1048F000089582E0089583E00895FC018091060305
:104900009091070386179707A0F06115710529F4A8
:104910008091E8008E778093E80090E06115710542
:1049200051F4911108C08091E80082FF35C080E009
:104930000895BC01F2CF8091FF028823C9F1853030
:10494000C9F18091E80083FD31C08091E80082FDCB
:10495000EACF8091E80080FFE1CF8091F3002091C1
:10496000F200382F6115710519F02830310558F023
:1049700091E02830310509F090E08091E8008E77D1
:104980008093E800CBCF84918093F1003196615001
:1049900071092F5F3F4FE6CF8091FF02882341F0DE
:1049A000853041F08091E80083FFBDCF81E008951C
:1049B00082E0089583E00895982F973028F08F7053
:1049C0008093E90081E008959093E900242F762FE9
:1049D00050E0981731F07091EC002091ED0050916B
:1049E000F00021FD02C09F5FE8CF3091EB003E7FD9
:1049F0003093EB003091ED003D7F3093ED0030912E
:104A0000EB0031603093EB007093EC002093ED00ED
:104A10005093F0002091EE0027FDE5CF80E008954F
:104A20008091000387FF13C08091E80082FF06C0D9
:104A30008091E8008B778093E80004C08091FF02AA
:104A40008111F2CF08958091FF028823D9F38091DC
:104A5000E80080FFF8CF8091E8008E77ECCF2091BE
:104A6000E4003091E50095E6A9012091EC00822F49
:104A7000817020FF06C08091E80080FF06C080E0C2
:104A800008952091E80022FD1AC08091FF0288233A
:104A900089F0853089F08091EB0085FD0FC0209171
:104AA000E4003091E50042175307F9F29150E1F626
:104AB00084E0089582E0089583E0089581E00895F8
:104AC0000E94CE250E94D625E0EEF0E08081816034
:104AD0008083E8EDF0E080818F77808319BCA7EDBB
:104AE000B0E08C918E7F8C9380818F7E808310923A
:104AF000FE0208950F931F93CF93DF930E94CE255C
:104B00000E94D625C8EDD0E088818F778883888180
:104B10008068888388818F7D888319BC1092FF020A
:104B20001092FB021092FD021092FC0200EE10E0C7
:104B3000F80180818B7F808388818160888342E057
:104B400060E080E00E94DC24E1EEF0E080818E7F76
:104B50008083E2EEF0E080818160808380818860E4
:104B60008083F80180818E7F808388818061888343
:104B7000DF91CF911F910F910895E8EDF0E08081D2
:104B80008F7E8083E7EDF0E080818160808384E028
:104B900082BF81E08093FE020C947A25E8EDF0E07C
:104BA00080818E7F80831092E20008951092DA0057
:104BB0001092E10008951F920F920FB60F921124E8
:104BC0002F933F934F935F936F937F938F939F9315
:104BD000AF93BF93EF93FF938091E10082FF0BC0EF
:104BE0008091E20082FF07C08091E1008B7F80937B
:104BF000E1000E9445288091DA0080FF19C0809171
:104C0000D80080FF15C08091DA008E7F8093DA0093
:104C10008091D90080FF96C080E189BD82E189BD85
:104C200009B400FEFDCF81E08093FF020E9445227F
:104C30008091E10080FF19C08091E20080FF15C0E3
:104C40008091E2008E7F8093E2008091E20080619B
:104C50008093E2008091D80080628093D80019BCD4
:104C600085E08093FF020E9457228091E10084FF3B
:104C70002BC08091E20084FF27C080E189BD82E1E2
:104C800089BD89B5982F917080FFFBCF8091D800A6
:104C90008F7D8093D8008091E1008F7E8093E1002A
:104CA0008091E2008F7E8093E2008091E20081603B
:104CB0008093E2008091FB02882309F449C084E0DC
:104CC0008093FF020E9458228091E10083FF29C057
:104CD0008091E20083FF25C08091E100877F80936F
:104CE000E10082E08093FF021092FB028091E100DC
:104CF0008E7F8093E1008091E2008E7F8093E200BE
:104D00008091E20080618093E20042E060E080E018
:104D10000E94DC248091F00088608093F0000E9463
:104D20005622FF91EF91BF91AF919F918F917F910B
:104D30006F915F914F913F912F910F900FBE0F9008
:104D40001F90189519BC1092FF020E94532270CF39
:104D50008091E30087FD93E09093FF02B3CF1F9211
:104D60000F920FB60F9211242F933F934F935F939F
:104D70006F937F938F939F93AF93BF93CF93DF9363
:104D8000EF93FF93D091E900DF708091EC00C82F82
:104D9000C17080FDC0E81092E9008091F000877F2B
:104DA0008093F00078940E94F3261092E90080919D
:104DB000F00088608093F000CD2BCF70C093E900A5
:104DC000FF91EF91DF91CF91BF91AF919F918F9123
:104DD0007F916F915F914F913F912F910F900FBEF7
:104DE0000F901F9018951F93CF93DF93CDB7DEB729
:104DF000AA970FB6F894DEBF0FBECDBF80E093E058
:104E00002091F100FC012193CF01F3E088309F074E
:104E1000B9F70E9464228091E80083FF1EC180914F
:104E20000003909101039A3008F017C1E92FF0E0D8
:104E3000E75FF54D0C94C728803899F0823809F067
:104E40000CC1809104038F70873008F006C18093F5
:104E5000E9008091EB0085FB882780F91092E9003A
:104E600006C08091FC029091FD02911182609091A8
:104E7000E800977F9093E8008093F1001092F10092
:104E80008091E8008E77E5C0882309F4D3C0823092
:104E900009F0E3C0809102038111D6C08091040320
:104EA0008F702FEF280F263008F0D7C08093E900CD
:104EB0002091EB0020FFC8C0933031F48091EB00CB
:104EC00080628093EB00C0C09091EB009061909362
:104ED000EB0021E030E001C0220F8A95EAF7209331
:104EE000EA001092EA008091EB008860EACF81111D
:104EF000B4C0109102031F778091E3008078812B6A
:104F00008093E3008091E800877F8093E8000E940F
:104F100010258091E80080FFFCCF8091E30080683D
:104F20008093E30082E0111183E08093FF0295C03B
:104F30008058823008F091C0809102039091030361
:104F40008C3D23E09207A1F583E08A838AE289837E
:104F50004FB7F894DE01139620E03EE051E2E32FD4
:104F6000F0E050935700E49120FF03C0E295EF700A
:104F70003F5FEF708E2F90E0EA30C0F0C7968D93C0
:104F80009D932F5F243159F74FBF8091E800877FB1
:104F90008093E8006AE270E0CE0101960E941F242F
:104FA0008091E8008B778093E80057C0C096E7CFE8
:104FB0006091040370910503AE014F5F5F4F0E9443
:104FC0005A23BC01892B09F448C09091E800977FCF
:104FD0009093E80089819A810E947D24E1CF8038F6
:104FE000E1F58091E800877F8093E8008091FB02E3
:104FF0008093F10045CF811130C09091020392302F
:1050000060F58091E800877F8093E8009093FB0231
:105010000E9410258091FB02882311F084E005C0D6
:105020008091E30087FDFACF81E08093FF020E9428
:105030005A2213C080910203813079F481E09330C9
:1050400009F080E08093FD021092E9008091E80071
:10505000877F8093E8000E9410258091E80083FFFD
:105060000AC08091E800877F8093E8008091EB0080
:1050700080628093EB00AA960FB6F894DEBF0FBE55
:10508000CDBFDF91CF911F9108950895CF93809167
:10509000FF028823A1F0C091E900CF709091EC004D
:1050A000892F817090FD80E8C82B1092E9008091D3
:1050B000E80083FD0E94F326CF70C093E900CF91F2
:1050C0000895DB018F939F930E94EB28BF91AF91CE
:1050D000A29F800D911DA39F900DB29F900D112452
:1050E0000895991B79E004C0991F961708F0961B44
:1050F000881F7A95C9F780950895AA1BBB1B51E1BB
:1051000007C0AA1FBB1FA617B70710F0A61BB70B37
:10511000881F991F5A95A9F780959095BC01CD01DC
:10512000089597FB072E16F4009407D077FD09D059
:105130000E947D2807FC05D03EF4909581959F4FF5
:105140000895709561957F4F0895A1E21A2EAA1BCC
:10515000BB1BFD010DC0AA1FBB1FEE1FFF1FA21727
:10516000B307E407F50720F0A21BB30BE40BF50B24
:10517000661F771F881F991F1A9469F760957095AD
:10518000809590959B01AC01BD01CF010895EE0F74
:10519000FF1F0590F491E02D09940E94D528332338
:1051A00012F48A1B9B0B0C94E628A29FB001B39FBC
:1051B000C001A39F700D811D1124911DB29F700D20
:1051C000811D1124911D08950E94D528B7FF0895CF
:1051D000821B930B08950E94D528A59F900DB49F24
:1051E000900DA49F800D911D11240895B7FF0C947C
:1051F000EB280E94EB28821B930B08958F929F92BD
:10520000AF92BF92CF92DF92EF92FF92CF93DF9354
:10521000EC01688179818A819B8161157105810525
:10522000910521F464E279ED8BE597E02DE133EF10
:1052300041E050E00E94AF2949015A019B01AC01B5
:10524000A7EAB1E40E94EB286B017C01ACEEB4EF5D
:10525000A50194010E94F928DC01CB018C0D9D1D54
:10526000AE1DBF1DB7FF03C00197A109B0488883D9
:105270009983AA83BB839F77DF91CF91FF90EF90B3
:10528000DF90CF90BF90AF909F908F9008950E9435
:10529000FE28089580E091E00E94FE280895B0E085
:1052A000A0E08093000190930101A0930201B093CC
:1052B00003010895FC014150504030F00190061662
:1052C000D1F73197CF010895882799270895F99943
:1052D000FECF92BD81BDF89A992780B50895A6E1C9
:1052E000B0E044E050E00C94A129A8E1B0E042E035
:1052F00050E00C94A129262FF999FECF92BD81BDD3
:10530000F89A019700B4021639F01FBA20BD0FB603
:10531000F894FA9AF99A0FBE08950396272F0E94DF
:105320007C290E947B29252F0E947C29242F0C9404
:105330007C290196272F0E947C290C947B29DC0173
:10534000CB01FC01F999FECF06C0F2BDE1BDF89A90
:10535000319600B40D9241505040B8F70895052E93
:1053600097FB1EF400940E94C62957FD07D00E94A7
:10537000A52807FC03D04EF40C94C62950954095FF
:10538000309521953F4F4F4F5F4F089590958095F1
:10539000709561957F4F8F4F9F4F0895F894FFCF81
:1053A000410E490E500E550E5A0E5F0E640E690ED8
:1053B0006E0E730E780E7D0E810E860E890E8C0E8B
:1053C0008F0E920E940E970EA00FA50FA70FAA0F87
:1053D000AD0FB00FB30F9E159E15F615F6154816B6
:1053E000CB15CB15CB156416F016FF16FF165B1701
:1053F000CB15CB156417D517D517DE17DE17E017B9
:10540000DE17DE17DE17D517D517E517DE17DE17FF
:10541000E5171C2744272D2844272D287727982770
:065420002D28EF27FB27F9
:1054260001000000010102000400040401191A1B16
:105436001C1D1E1F202122068402C6210522C92109
:105446000122FD2101E200E900EA00B500B600B73D
:1054560000CD008301CC008A019201940121022330
:105466000224022502260227022A02B300B4006F94
:1054760000700081828331F0F1F4F5F6F7676693E8
:10548600C697969492913495903233300001020279
:1054960002020606060909090909090F0F0F0F0F6F
:1054A6000F15151518191919191919191919192373
:1054B60024252525252525E200E900EA00B500B6C4
:1054C60000B700CD008301CC008A0192019401212E
:1054D60002230224022502260227022A02B300B46E
:0854E600006F00700081828359
:00000001FF
