:100000000C94F7020C943E030C943E030C943E03B4
:100010000C943E030C943E030C943E030C943E035C
:100020000C943E030C943E030C9406220C94CA21BB
:100030000C9413270C943E030C943E030C943E0343
:100040000C943E030C943E030C943E030C943E032C
:100050000C943E030C94ED260C943E030C943E034A
:100060000C943E030C943E030C943E030C943E030C
:100070000C943E030C943E030C943E030C943E03FC
:100080000C943E030C943E030C943E030C943E03EC
:100090000C943E030C943E030C943E030C943E03DC
:1000A0000C943E030C943E030C943E0300000000AD
:1000B0000000000000000101010101010101010235
:1000C0000202020202020203030303030303040405
:1000D00004040405050505050606060606070707C8
:1000E00007080808080909090A0A0A0B0B0B0C0C77
:1000F0000C0D0D0D0E0E0E0F0F101010111112120F
:1001000013131414151516161717181819191A1A87
:100110001B1C1C1D1D1E1F1F2021212223232425E3
:100120002526272828292A2B2C2C2D2E2F3031311B
:1001300032333435363738393A3B3C3D3E3F404127
:1001400042434445464748494B4C4D4E4F5052530D
:1001500054555758595A5C5D5E60616364656768C1
:100160006A6B6C6E6F7172747677797A7C7D7F8141
:1001700082848687898B8D8E9092949597999B9D8A
:100180009FA1A2A4A6A8AAACAEB0B2B4B6B9BBBD9A
:10019000BFC1C3C5C8CACCCED0D3D5D7DADCDEE167
:1001A000E3E6E8EAEDEFF2F4F7F9FCFFFFAA7F558A
:1001B000402223252628292A2C2D2F30323335366C
:1001C000383A3B3D3E4042434547494A4C4E5051E8
:1001D000535557595A5C5E6062646668696B6D6F0F
:1001E00071737577797B7D7F81838587898A8C8E12
:1001F00090929496989A9C9E9FA1A3A5A7A8AAAC1A
:10020000AEAFB1B3B4B6B8B9BBBCBEBFC1C2C3C553
:10021000C6C7C9CACBCCCDCED0D1D2D2D3D4D5D6F5
:10022000D7D7D8D9D9DADADBDBDBDCDCDCDCDCDD28
:10023000DDDDDDDCDCDCDCDCDBDBDBDADAD9D9D80C
:10024000D7D7D6D5D4D3D2D2D1D0CECDCCCBCAC9A4
:10025000C7C6C5C3C2C1BFBEBCBBB9B8B6B4B3B1D3
:10026000AFAEACAAA8A7A5A3A19F9E9C9A9896946E
:1002700092908E8C8A89878583817F7D7B79777543
:1002800073716F6D6B6968666462605E5C5A595722
:10029000555351504E4C4A4947454342403E3D3BE1
:1002A0003A3836353332302F2D2C2A29282625236B
:1002B0002235001E001F0020002100220023002400
:1002C000002500260027002D002E0031002B0014F1
:1002D000421A000800150017001C0018000C00123C
:1002E0000013002F0030002A0029610400160007C7
:1002F0000009000A000B000D000E000F003341340E
:100300000028000000E1001D001B00060019000588
:100310000011001000360037003800E500115000D1
:10032000000000E200E3000000000000002C0000DC
:100330000000000000E700E60000002900005C3A31
:10034000003B003C003D003E003F004000410042B9
:1003500000430044004500010001000100F85CF981
:100360005C01000100010001000100010001000129
:100370000001000100010001000100010001000175
:10038000005000510052004F000100010001000028
:10039000003900010001000100010001000100011D
:1003A000000100010001000100010000000100AA9D
:1003B00000A900000000000000480000000000004C
:1003C0000001000100010001000000000000000029
:1003D000000000000000000000000000000000001D
:1003E000000000000000000000F55CF65C0000006A
:1003F00000000000000000000000000000000000FD
:1004000000000000000000000000000000000000EC
:1004100000000000000000000000000000000000DC
:1004200000000000000000000000000000000000CC
:1004300000000000000000000000000000000000BC
:100440000000000000F75C00000000000000000059
:10045000000000000000047F3F1F64321464321467
:10046000783C1E1E140A0505010902A10185020936
:1004700001A100050919012905150025019505753A
:1004800001810295017503810105010930093115CA
:1004900081257F95027508810609381581257F958C
:1004A0000175088106050C0A38021581257F950122
:1004B00075088106C0C005010980A10185031601E8
:1004C000002603001A81002A83007510950181001F
:1004D000C0050C0901A1018504160100269C021A21
:1004E00001002A9C02751095018100C005010906D2
:1004F000A1018505050719E029E7150025019508E3
:1005000075018102050819012905950575019102FA
:100510009501750391010507190029EF15002501C3
:1005200095F075018102C005010906A101050719B1
:10053000E029E715002501950875018102950175EF
:100540000881010508190129059505750191029594
:1005500001750391010507190029FF150026FF0009
:10056000950675088100C009023B00020100A0FA4F
:100570000904000001030101000921110100012209
:1005800040000705810308000A0904010001030077
:10059000000009211101000122C00007058203208B
:1005A000000A1201100100000008EDFE6060010069
:1005B0000102030104033000000012033100750042
:1005C00070003600300068007400650000001A03F7
:1005D0003100750070006B006500790062006F00EB
:1005E0006100720064007300000004030904112418
:1005F0001FBECFEFDAE0DEBFCDBF04B603FE27C0DB
:100600008091950590919605A0919705B0919805D8
:100610008730904BA740B04BD1F4109295051092C3
:100620009605109297051092980514BE84B7877F9F
:1006300084BF0FB6F894A89580916000886180937C
:100640006000109260000FBEE0E0F8E3099511E051
:10065000A0E0B1E0EAE1F0E502C005900D92A4351A
:10066000B107D9F725E0A4E5B1E001C01D92A53995
:10067000B207E1F70E94E2220C940B280C940000D0
:10068000E8EDF0E080818E7F80831092E20010928E
:10069000DA001092E100A0EEB0E08C9181608C93C2
:1006A00080818F77808319BCA7EDB0E08C918E7F1D
:1006B0008C9380818F7E80831092640508952091B1
:1006C000E4003091E50085E69091EC0090FF06C0D3
:1006D0009091E80090FF06C080E008959091E800B6
:1006E00092FDFACF90918905992391F0953091F080
:1006F0009091EB0095FD10C04091E4005091E50011
:100700002417350709F381509A01F1F684E0089522
:1007100082E0089583E0089581E00895EF92FF92CA
:100720000F931F93CF937C018B010E945F03C82F0F
:10073000811117C08091E80085FD0BC08091E80011
:100740008E778093E8000E945F03882399F3C82F77
:1007500008C0F70181917F018093F10001501109D8
:1007600049F78C2FCF911F910F91FF90EF90089533
:1007700080918B0587FF13C08091E80082FF06C03F
:100780008091E8008B778093E80004C08091890510
:100790008111F2CF0895809189058823D9F3809142
:1007A000E80080FFF8CF8091E8008E77ECCF982F9B
:1007B0009093E900242F762F50E0891731F0709143
:1007C000EC002091ED005091F00021FD07C09F5FEB
:1007D000973071F78093E90081E008953091EB0044
:1007E0003E7F3093EB003091ED003D7F3093ED0084
:1007F0003091EB0031603093EB007093EC0020936C
:10080000ED005093F0002091EE0027FDE0CF80E056
:100810000895CF92DF92EF92FF920F931F93CF93A1
:10082000DF93C8EDD0E088818F7E8883E7EDF0E02C
:1008300080818160808384E082BF81E08093640551
:1008400088818E7F888302EE10E0F801108210927A
:10085000DA0081EEC82ED12CF601108288818F77C4
:10086000888388818068888388818F7D888319BC8C
:100870001092890510928A051092880510928705BA
:1008800090EEE92EF12CF70180818B7F80838881A7
:100890008160888342E060E080E00E94D703F60137
:1008A00080818E7F8083F801808181608083808158
:1008B00088608083F70180818E7F8083888180615A
:1008C0008883DF91CF911F910F91FF90EF90DF9080
:1008D000CF900895FC018091910590919205861723
:1008E0009707A0F06115710529F49091E8009E77B3
:1008F0009093E80090E06115710551F4911108C0E2
:100900008091E80082FF35C080E00895BC01F2CFFD
:10091000809189058823C9F18530C9F18091E8006B
:1009200083FD31C08091E80082FDEACF8091E8002C
:1009300080FFE1CF2091F3008091F200322F282F29
:100940006115710519F02830310558F091E0283013
:10095000310509F090E02091E8002E772093E8001F
:10096000CACF81918093F100615071092F5F3F4F91
:10097000E7CF80918905882341F0853041F080914F
:10098000E80083FFBDCF81E0089582E0089583E011
:10099000089580916305811107C080918905843095
:1009A00011F081E0089582E0089508958091660530
:1009B0000895803FC1F48091440587FD109244055D
:1009C0008091430581110EC08091440581110AC0B8
:1009D00080914505811106C080914605811102C0B4
:1009E000109247050895813F29F480914405181617
:1009F0002CF3E6CF90914305823F29F497FFE0CF97
:100A000010924305DDCF833F19F41916CCF3D8CFEC
:100A1000893F39F480914505181694F610924505E2
:100A2000CFCF8A3F29F48091450587FFC9CFF6CF04
:100A30008B3F39F48091460587FFC2CF109246055F
:100A4000BFCF8C3F29F4809146051816BCF3B8CF70
:100A5000843F31F4809142058E7F80934205B0CF70
:100A6000853F21F4809142058D7FF7CF863F21F4A9
:100A7000809142058B7FF1CF873F21F48091420521
:100A8000877FEBCF883F21F4809142058F7EE5CFB1
:100A90008D3F31F4809125058E7F8093250590CF81
:100AA0008E3F21F4809125058D7FF7CF8F3F09F090
:100AB00087CF809125058B7FF0CF8091250580FD24
:100AC00016C081FD16C082FD16C08091470588239F
:100AD000A1F0883280F428E0829FC001112468E2EE
:100AE00070E00E946027862F672B39F0089582E01E
:100AF000089584E0089588E0089581E00895809144
:100B0000250580FD14C081FD14C082FD16C08091B2
:100B10004705882381F0843180F422E3829FC0015D
:100B2000112464E170E00E946027862F08958CE014
:100B3000089589E1089585E0089582E30895803F4E
:100B400031F40E947F058195809344050895813F8B
:100B500019F40E947F05F8CF823F31F40E947F058F
:100B60008195809343050895833F19F40E947F0582
:100B7000F8CF893F29F40E945D05809345050895CB
:100B80008A3F21F40E945D058195F7CF8B3F31F4B8
:100B90000E945D0581958093460508958C3F19F468
:100BA0000E945D05F8CF843F31F480914205816059
:100BB000809342050895853F21F48091420582602B
:100BC000F7CF863F21F4809142058460F1CF873FC3
:100BD00021F4809142058860EBCF883F21F4809119
:100BE00042058061E5CF8D3F31F48091250581601C
:100BF0008093250508958E3F21F48091250582601C
:100C0000F7CF8F3FB9F7809125058460F1CF0F931F
:100C10001F93CF93DF93A7E3B5E050E040E061E09E
:100C200070E090E0CD91DD9130E020E0FB01022EFC
:100C300002C0EE0FFF1F0A94E2F7EC23FD23EF2B17
:100C400061F0FA01E20FF31FEE0FFF1FEF54FD4FAB
:100C5000059114918017910781F02F5F3F4F2E303F
:100C6000310521F7425F5F4F46345105D9F680E0E8
:100C7000DF91CF911F910F91089581E0F9CFCF932C
:100C8000C82F8CE20E940706882321F08C2FCF9179
:100C90000C94070680E0CF910895CF92DF92EF92F7
:100CA000FF920F931F932FB7F89440912105509115
:100CB000220560912305709124052FBF6A017B01F5
:100CC000EE24FF248C0130E020E0C016D106E206BD
:100CD000F30650F0481B590BCA011F910F91FF906A
:100CE000EF90DF90CF90089541505109F3CF2FB787
:100CF000F8948091210590912205A0912305B0914F
:100D000024052FBF0895E0913405F0913505309703
:100D100049F082E0809341050480F581E02D81E473
:100D200095E009950E9477069093490580934805C0
:100D3000089580911C05811110921C0508958091E1
:100D40001B0590911A05892B90911905892B809389
:100D5000540190911C059923A1F0892B8093540193
:100D600080911B01882341F18091310587FF24C0C8
:100D70008EE1E6E5F1E090E0815000F591110E94EE
:100D80009906E0913405F09135053097E1F08091B6
:100D90001B01882359F08091310587FF07C080919E
:100DA00054018093550185E0809354010280F381C2
:100DB000E02D84E591E0099486E0DBCF21912223A8
:100DC000D9F29F5FD9CF089590911B019923D1F05B
:100DD0009091310597FF16C0E82FE695E695E695C8
:100DE000EE31D8F4F0E0EC5AFE4F282F277081E066
:100DF00090E001C0880F2A95EAF7809592818923B7
:100E000082830895E4E5F1E09281891301C01282A2
:100E1000319691E0EA35F907B9F7089590911B01F1
:100E20009923C1F09091310597FF14C0E82FE69502
:100E3000E695E695EE31F8F4F0E0EC5AFE4F877057
:100E400021E030E001C0220F8A95EAF78281822BEF
:100E500082830895A6E5B1E0EFEF90E02D9182172F
:100E600051F0EF3F19F4211101C0E92F9F5F963037
:100E7000A9F7EF3F09F408950E2E000CFF0BEC5A72
:100E8000FE4FE6CF2EE0929F800D1124982F977091
:100E900086958695869525E0829FA001112470E0B5
:100EA00060E080E0FA01E60FF71FE951FB4F208177
:100EB00030E0092E02C0369527950A94E2F721709A
:100EC0003327062E01C0220F0A94EAF7822B6F5FA8
:100ED0007F4F6530710531F708952EE0929F800DA8
:100EE0001124982F977071E001C0770F9A95EAF757
:100EF00086958695869525E0829FC001112450E055
:100F000040E0A62FB0E0FC01E40FF51FE951FB4FD4
:100F100060819D01042E02C0369527950A94E2F760
:100F20002170219526272723262720834F5F5F4F97
:100F30004530510541F708958091E6049091B5043C
:100F4000981301C008958F5F8770FACF882341F00E
:100F5000809590911B05892380931B050C949F0617
:100F60000895882339F090911B05892B80931B05E8
:100F70000C949F0608952091A8013091A90128178B
:100F8000390771F09093A9018093A801E09134058D
:100F9000F0913505309721F00084F185E02D09941A
:100FA00008952091A6013091A7012817390771F003
:100FB0009093A7018093A601E0913405F091350547
:100FC000309721F00680F781E02D09940895109262
:100FD0001A05109219050E949F0686E0E1E4F5E0EB
:100FE000DF011D928A95E9F71092470510922505B9
:100FF0000E94830690E080E00E94D10790E080E0AC
:101000000C94BB0760931405709315058093160527
:10101000909317050C94E7070F931F9341E050E05E
:1010200060E070E004C0440F551F661F771F8A956B
:10103000D2F7CB01BA01609570958095909500919B
:1010400014051091150520911605309117056023A0
:101050007123822393231F910F910C940208909186
:1010600018058095892380931805282F277071F41F
:10107000282F082E000C330B9217130639F0859594
:10108000859585950E940C081092180508950F9378
:101090001F9341E050E060E070E004C0440F551F32
:1010A000661F771F8A95D2F78091140590911505D8
:1010B000A0911605B09117058A019B01082B192BE9
:1010C0002A2B3B2BC901B8011F910F910C940208E8
:1010D00060E070E0CB010C94020860931D057093F2
:1010E0001E0580931F05909320050C94E707E0915F
:1010F0003405F0913505309721F00190F081E02D15
:10110000099480E00895882309F459C0823871F465
:101110000E94770881FF53C089E30E940E070E9456
:101120009F0689E30E94E4060C949F06833859F4D5
:101130000E94770880FF43C083E50E940E070E944B
:101140009F0683E5EFCF843859F40E94770882FF29
:1011500036C087E40E940E070E949F0687E4E2CF14
:101160009CEF980F913AF0F290E2980F983088F443
:10117000877021E030E0A90102C0440F551F8A9515
:10118000E2F7CA01809590911B05892380931B0586
:10119000CBCF9BE5980F933020F490E080E00C9447
:1011A000D10798E5980F973120F490E080E00C94F7
:1011B000BB07803F20F00E94D9040C948306089559
:1011C00080915C0580FF02C08695089580E00895B7
:1011D00080915C05982F9E7F29F4817082608093B6
:1011E0005C0508958A34E8F381708864F8CFAF9283
:1011F000BF92CF92DF92EF92FF920F931F93CF9304
:10120000DF93E82EF62EE901E42FF0E0611113C020
:10121000E455FF4F4491E42F942F99834883EA8348
:10122000DF91CF911F910F91FF90EF90DF90CF90C2
:10123000BF90AF900895062F10E026E0829FC00176
:1012400011242FEF30E0B9010E944C278E2D90E041
:10125000880F991F55E5569FD001579FB00D112457
:101260008A1B9B0B582F550F580FC901801B910BE0
:101270008E9FD0018F9FB00D9E9FB00D11248B2F9C
:10128000F59E70011124EF2CFF246901CE18DF08B0
:10129000CE9E7001CF9EF00CDE9EF00C11249F2D8F
:1012A0005901A51AB108A09E6001A19ED00CB09E64
:1012B000D00C1124CD2CDD242C193D092E9F80014A
:1012C0002F9F100D3E9F100D11246230710529F1E2
:1012D00058F46115710579F06130710571F0E42FF2
:1012E0004B2F8F2D9E2F09C064307105E9F0C0F09F
:1012F00066307105A1F7942F412FE92FF0E0E455F6
:10130000FF4F9491E42FF0E0E455FF4F4491E82F14
:10131000F0E0E455FF4FE49180CF9B2F812FEDCF7C
:10132000842F4F2D9B2FE9CF912F842F4B2FE5CF6B
:101330009091310592FF06C0282F2871283069F45A
:10134000877F846093FF06C0282F2871283161F4BD
:10135000877E846194FD877E0895282F2471243030
:1013600089F78B7F8860EECF282F2471243191F785
:101370008B7E8861EFCFCF93DF93972F70E02EE0C5
:10138000929F600D711D1124FB0136E4839FE00DD7
:10139000F11D1124EE0FFF1FEF54FD4FC591D491A5
:1013A000CE01C238D105A9F1E8F5C133D10509F460
:1013B00081C040F5C932D10509F475C0CA32D105E2
:1013C00009F47FC0C11541E5D40708F0AFC0C115CD
:1013D00050E5D50708F0EDC1C83ED10508F088C03A
:1013E000C03ED105E0F4C83AD10508F071C0C53A55
:1013F000D10508F033C1C130D10589F028F1249717
:1014000070F422C0C533D10509F446C0C933D105F3
:10141000C9F620913105237011F080EE90E0DF9144
:10142000CF910895C33ED10539F188F4C03ED1056E
:10143000E1F0C23ED10531F62091310522FFEFCF18
:1014400083EE90E024FFEBCF90E080E0E8CFC63E53
:10145000D105C9F0C73ED10509F0B4CF20913105BF
:1014600023FF0EC086EE90E0DACF2091310520FFF9
:10147000D6CF89E390E0D3CF2091310522FDE4C19E
:1014800024FDE2CFCCCF2091310523FFC8CF87EEDA
:1014900090E024FDD9CFC3CF2091310525FFBFCFE8
:1014A00089E290E0BCCF2091310525FFB8CF85E3DC
:1014B00090E0B5CF2091310526FFB1CF8AE290E0D0
:1014C000AECF2091310526FFAACF81E390E0A7CFD0
:1014D000CF3BD10508F4D1C0C03CD10508F4B4CF4E
:1014E000FE01EE0FFF1FE45DF0408591949197CFD0
:1014F000C11520E3D20788F4C11530E2D30708F004
:1015000049C1C03FD10508F49FCFCF3FD10511F0AD
:1015100008F085CFCE01906582CFC11540E4D40795
:1015200008F43FC1CE019F70906A79CFC11559E58B
:10153000D507F0F5C11588E5D80708F07AC1C115BF
:1015400094E5D90708F5C11523E5D20708F055C180
:10155000C11532E5D30708F44BC19E012370332730
:1015600081E090E0AC0102C0440F551F2A95E2F7DC
:101570009A018C2F8695869550E2859FC001112493
:10158000822B932B9C684BCFC11545E5D40708F4FB
:101590004BC1C11556E5D50708F056CF8C2F0E94D8
:1015A000980990E0982F882788279F71906237CFFD
:1015B000CD3B8CE5D80709F441C140F580E094EDBE
:1015C000CB3B2CE5D20709F42ACF80E095EDCC3B4C
:1015D0003CE5D30708F023CFC1154AE5D40708F04E
:1015E00033CF8C2F8F700E949809FE0194E0F695FE
:1015F000E7959A95E1F7EF70F0E0FE2FEE27F06A9D
:101600008F70806E9F01282BC90109CF80E093ED78
:10161000C03C5CE5D50709F402CF60F4CE3B9CE505
:10162000D90709F40EC180E092EDCF3BDC4509F407
:10163000F6CE0ACFCE0190568115904208F004CF25
:101640008D2F8F710E949809282F30E0322F22278A
:1016500022273F71CE0199279062C7C081E890E4AC
:10166000C53AD10509F4DBCE83E890E4C63AD1054A
:1016700009F0D5CE82E890E4D2CE82EE94E4C83A66
:10168000D10509F4CCCE89EE94E4C93AD10509F428
:10169000C6CE8AEE94E4CA3AD10509F4C0CE85EBF1
:1016A00094E4CB3AD10509F4BACE86EB94E4CC3A73
:1016B000D10509F4B4CE83EB94E4CB3BD10509F416
:1016C000AECE84EB94E4CC3BD10509F4A8CE87EBF5
:1016D00094E4CD3AD10509F4A2CE8CEC94E4C03B5D
:1016E000D10509F49CCE8DEC94E4CE3AD10509F4F1
:1016F00096CE83E895E4CF3AD10509F490CE8AE8F6
:1017000095E4C13BD10509F48ACE82E995E4C23B58
:10171000D10509F484CE84E995E4C33BD10509F4ED
:101720007ECE81E296E4C43BD10509F478CE83E213
:1017300096E4C53BD10509F472CE84E296E4C63B3B
:10174000D10509F46CCE85E296E4C73BD10509F4D6
:1017500066CE86E296E4C83BD10509F460CE87E206
:1017600096E4C93BD10509F45ACE8FE694E4CD3B0B
:10177000D10509F454CE80E794E4CE3BD10509F4B9
:101780004ECE8AE296E4CA3BD10509F448CE80E009
:1017900094E445CEFE01FF70EE0FFF1FE455FF4FAE
:1017A000A4CECE019927D3FF02C0986C38CE906C9E
:1017B00036CE9E0174E0369527957A95E1F7237031
:1017C0003C2F337081E090E002C0880F991F3A955A
:1017D000E2F79C68AC01522B9A018C2F8695869576
:1017E000837050E2859FC0011124822B932B17CE6A
:1017F0009C2F8827816F906A12CE9E012370332719
:1018000081E090E0AC0102C0440F551F2A95E2F739
:101810009A018C2F8695869550E2859FC0011124F0
:10182000822B932B9A68FBCD9C2F8827846F906A1C
:10183000F6CD9C2F8827806F906AF1CD80E091EDE6
:10184000EECD80E090EDEBCD82EE90E0E8CDBF9262
:10185000CF92DF92EF92FF920F931F93CF93DF937C
:101860008C01C0901405D0901505E0901605F090FD
:10187000170580911D0590911E05A0911F05B0913F
:101880002005C82AD92AEA2AFB2ACFE1D0E0BC2EBB
:10189000D701C6010C2E04C0B695A79597958795DC
:1018A0000A94D2F780FD0EC0219788F7B12C8B2DBA
:1018B000DF91CF911F910F91FF90EF90DF90CF902C
:1018C000BF900895B8018C2F0E94BB09019761F366
:1018D000EECFCF93DF93EC010E94270CBE01DF9186
:1018E000CF910C94BB090E94690C292F2F70E92F0E
:1018F000E295EF70E250EE30E0F4F0E0EE57F34F97
:101900000C949627900C900C990C990C9B0C990CAC
:10191000990C990C900C900CA00C990C990CA00CA3
:10192000803F19F020F4803E20F481E00895843F48
:10193000E1F380E00895803EC0F3813FD1F7F5CF19
:10194000822F8695869586950895CF92DF92EF92A5
:10195000FF92843028F5811124C090918000977FF8
:1019600090938000282F30E0AFEFBFEF0E949C27BC
:1019700023E030E040E050E00E947427C9012C379A
:1019800064E1360790F469E070E00E944C277093A0
:101990008D0060938C00FF90EF90DF90CF900895C2
:1019A00083E0909180009860DBCF2A50374D4F4FF5
:1019B0005F4F942F832F722F662725EF38E241E087
:1019C00050E00E94742769017A01CA01B9010E949E
:1019D0003C279B01AC01C701B6010E943C27672F41
:1019E000782F892F99276115710521E082079105CC
:1019F00071F66FEF7FEFCBCF0F931F93CF93DF93F2
:101A000000D01F92CDB7DEB78C010E94C90482308E
:101A100011F0843021F584E089831B830A8382E0FE
:101A20008093E9008FEF9091E800815095FD06C00A
:101A300095ED9A95F1F700008111F5CF8091E800BE
:101A400085FF0DC050E040E063E070E0CE010196FC
:101A50000E948E038091E8008E778093E8000F90BB
:101A60000F900F90DF91CF911F910F910895CF9319
:101A7000DF9300D01F92CDB7DEB7209189052430C7
:101A800031F523E02983805891099B838A8382E082
:101A90008093E9008FEF9091E800815095FD06C09A
:101AA00095ED9A95F1F700008111F5CF8091E8004E
:101AB00085FF0DC050E040E063E070E0CE0101968C
:101AC0000E948E038091E8008E778093E8000F904B
:101AD0000F900F90DF91CF910895CF93DF93EC019A
:101AE0000E94C904823011F08430F9F482E08093BE
:101AF000E9008FEF9091E800815095FD06C095EDCB
:101B00009A95F1F700008111F5CF8091E80085FFEB
:101B10000CC050E040E066E070E0CE010E948E0311
:101B20008091E8008E778093E800DF91CF9108954F
:101B3000CF93DF93EC010E94C904823011F084300E
:101B4000B9F580911B018823B1F18091310587FFA0
:101B500032C060E282E08093E9008FEF9091E8006C
:101B6000815095FD06C095ED9A95F1F70000811121
:101B7000F5CF8091E80085FF1BC080911B0170E0CC
:101B800050E040E0811104C050E040E068E070E0C7
:101B9000CE010E948E038091E8008E778093E8004A
:101BA00080E2FE01A7E6B5E001900D928A95E1F78B
:101BB000DF91CF91089568E081E0CDCF81E08093FF
:101BC000E00080E28093D8001092C9008FE19EE48B
:101BD0000197F1F700C0000087E090EBDC018093F3
:101BE000950590939605A0939705B093980588E185
:101BF0009CE00FB6F894A895809360000FBE909378
:101C00006000FFCF882309F408C18238B9F40E942C
:101C1000770881FD02C189E30E940E070E949F069A
:101C20002FEF81EE94E0215080409040E1F700C01A
:101C3000000089E30E94E4060C949F068338A1F417
:101C40000E94770880FDE9C083E50E940E070E948C
:101C50009F062FEF81EE94E0215080409040E1F705
:101C600000C0000083E5E6CF8438A1F40E94770825
:101C700082FDD3C087E40E940E070E949F062FEFCB
:101C800081EE94E0215080409040E1F700C00000D8
:101C900087E4D0CF9CEF980F913A18F40E940E077A
:101CA000CBCF90E2980F983068F4877021E030E055
:101CB00001C0220F8A95EAF780911B05822B809341
:101CC0001B05BACF9BE5980F933070F4853A31F03D
:101CD000863A39F083E890E00C94D10781E890E0EF
:101CE000FBCF82E890E0F8CF98E5980F973108F0A5
:101CF0008EC0883A09F446C0893A09F446C08A3A47
:101D000009F446C08B3A09F446C08C3A09F446C03F
:101D10008B3B09F446C08C3B09F446C08D3A09F46C
:101D200046C0803B09F446C08E3A09F446C08F3A5B
:101D300009F446C0813B09F446C0823B09F446C021
:101D4000833B09F446C0843B09F446C0853B09F453
:101D500046C0863B09F446C0873B09F446C0883B31
:101D600009F446C0893B09F446C08D3B09F446C0DE
:101D70008E3B09F446C08A3B09F446C090E080E0FF
:101D80000C94BB0782EE90E0FBCF89EE90E0F8CF99
:101D90008AEE90E0F5CF85EB90E0F2CF86EB90E015
:101DA000EFCF83EB90E0ECCF84EB90E0E9CF87EBD3
:101DB00090E0E6CF8CEC90E0E3CF8DEC90E0E0CFCC
:101DC00083E891E0DDCF8AE891E0DACF82E991E023
:101DD000D7CF84E991E0D4CF81E292E0D1CF83E202
:101DE00092E0CECF84E292E0CBCF85E292E0C8CF02
:101DF00086E292E0C5CF87E292E0C2CF8FE690E024
:101E0000BFCF80E790E0BCCF8AE292E0B9CF803FBD
:101E100020F00E949F050C94830608950F931F9352
:101E2000CF93DF93C62FD42F022FFC01828188230A
:101E3000A1F06093AB040E9477069093A501809374
:101E4000A401C77081E001C0880FCA95EAF7DF914D
:101E5000CF911F910F910C94B1071091AB04161301
:101E600038C08091A4019091A5010E944D06883C44
:101E7000910578F5C0E2CD0F1D17B9F080E2810F12
:101E8000883040F4177081E001C0880F1A95EAF796
:101E90000E94A607C83020F581E09D2F977001C0F1
:101EA000880F9A95EAF70E94B107802F0E94020ED0
:101EB000802F0E948308C830E8F4D77081E001C009
:101EC000880FDA95EAF7DF91CF911F910F910C946B
:101ED000A607C77081E001C0880FCA95EAF7F3CF63
:101EE000802F0E94020E802FDF91CF911F910F91C2
:101EF0000C948308DF91CF911F910F9108958091E9
:101F00005C0580FD0AC0EAE7F1E0118210821282CE
:101F1000339631E0E43AF307C1F7809A81B38E7FBC
:101F200091B391602FB7F894EAE7F1E031E0E43A39
:101F3000F30741F42FBF87EC90E00197F1F700C061
:101F400000000895319148E091BB000000C037FFC8
:101F500081BB330F000000C000C000C081BB00C0C7
:101F60004A9591F7E3CFEF92FF920F931F93CF9390
:101F7000DF938C01CAE7D1E0F12CE12CF8019481C8
:101F800060915E0580915D05F7E0EF16F104FCF4C9
:101F90009923F9F09E0140915F050E94F7082FEF09
:101FA000E21AF20A23968EE0E816F10439F70E944D
:101FB0007F0FF801848190E00196817099278483D6
:101FC000DF91CF911F910F91FF90EF90089599238A
:101FD00009F39E0140E0E1CFEF92FF921F93CF9370
:101FE000DF93EC018AE7E82E81E0F82E10E08C8187
:101FF000970140915F0560915E05810F0E94F7088F
:102000001E5E83E0E80EF11C1C3F89F70E947F0FE3
:102010009A818C8190FF08C08F5F8C83DF91CF9174
:102020001F91FF90EF9008958150F7CFCF92DF92EC
:10203000EF92FF920F931F93CF93DF93FC01828166
:10204000DD24DA9480FD02C0DD24D3940AE711E098
:10205000D0E0C0E0F80111821082128294E0E92EF3
:10206000F12CC12C809177018C0D87FD825F082EA9
:10207000000C990BC817D90791F480915F058E9DCC
:10208000A0018F9D500D1124559547955595479565
:10209000980160915E0580915D050E94F708CD0C66
:1020A000F1E0EF1AF108F1F621960D5F1F4FCE30E7
:1020B000D10581F60E947F0F8091770191E0D912BE
:1020C00010C081110CC08DE080937701DF91CF911A
:1020D0001F910F91FF90EF90DF90CF900895815066
:1020E000F3CF90E00196BE010E946027EDCF0F93E1
:1020F0001F93CF93DF93CAE7D1E0FE0111821082D4
:102100001282339681E0E43AF807C1F710E000E06C
:1021100080917801082E000C990B081719078CF193
:1021200080910C01082E000C990B801791074CF13F
:102130009E0140915F0560915E0580915D050E9462
:10214000F7080F5F1F4F23960E30110509F70E9405
:102150007F0F80910B0190917801980F90937801F7
:1021600020910C01280F20930C01121614F49D30BD
:102170001CF0819580930B01DF91CF911F910F91FE
:102180000895198218821A82DCCFEF92FF920F9382
:102190001F93CF93DF93EC018C819D810196817019
:1021A00099279D838C838AE7E82E81E0F82E10E042
:1021B00005E5812F86952C813D81820F932F911DFE
:1021C0008170970140915F0560915E05809F802D31
:1021D00011240E94F7081F5F83E0E80EF11C1E30F7
:1021E00041F7DF91CF911F910F91FF90EF900C94E9
:1021F0007F0F90915C0590FF0CC0EAE7F1E08183CE
:1022000060834283339691E0E43AF907C1F70C9476
:102210007F0F08950F931F93CF93DF9300D01F92EA
:10222000CDB7DEB78C018091790181110AC09E0182
:102230002F5F3F4F4FEF6FEF0E94F7088A81809327
:102240007901F8018481813069F038F04091790199
:10225000823009F040E080E003C08091790140E0E5
:1022600060E004C06091790140E080E00E94F910D4
:10227000F801848190E0019663E070E00E9460279D
:1022800084830F900F900F90DF91CF911F910F914A
:102290000895CF93DF9300D01F92CDB7DEB7909112
:1022A0005C0590FF0AC09E012F5F3F4F0E94F70818
:1022B0004B8169818A810E94F9100F900F900F90D5
:1022C000DF91CF910895CF93DF93EC01EC81F0E0A3
:1022D000EF54FE4F4491ECE5F5E0628181810E946C
:1022E00049118C818F5F8C83DF91CF910895CF93BB
:1022F000DF93EC01ECE5F5E0438162818C810E9483
:1023000049118C818F5F8C83DF91CF9108957F92EB
:102310008F929F92AF92BF92CF92DF92EF92FF92F5
:102320000F931F93CF93DF93A7E2B5E041E451E011
:10233000712CEE24E394F12CAD90BC901197119682
:102340001C921E92EA018991AE01E82FE295EF708E
:10235000F0E091A18F70B70101C0660F8A95EAF78E
:10236000892F862B81A382A1962E9094892182A306
:10237000D0EADA95F1F786E4C82E81E0D82E30E075
:1023800020E0E60189906E01082D02950F7010E0A3
:10239000E80188A10D911C91119790E0D82DDF7074
:1023A00002C095958795DA95E2F780FD76C0C70162
:1023B000022E02C0880F991F0A94E2F7082B192BEE
:1023C00011961C930E932F5F3F4F2E303105C9F6A7
:1023D00081A1892181A382A1682B62A381E02D9133
:1023E0003C9111972A153B0509F480E0782A129652
:1023F000D1E046345D0709F09FCF772049F081E0B6
:10240000809376010E947706909375018093740102
:1024100080917601882391F18091740190917501EA
:102420000E944D06069750F180912705909128054E
:1024300090933805809337058091290590912A055E
:1024400090933A058093390580912B0590912C0546
:1024500090933C0580933B0580912D0590912E052E
:1024600090933E0580933D0580912F059091300516
:102470009093400580933F0510927601872DDF9160
:10248000CF911F910F91FF90EF90DF90CF90BF9071
:10249000AF909F908F907F90089590E080E08ECFD6
:1024A000982F990F809126058170892B809326059E
:1024B0008E7F91E009F490E06091260590FB60F931
:1024C0006093260586E090E00E94CA278091260549
:1024D00086950C94A50C6091260560FF0AC06E7F5E
:1024E0006093260586E090E00E94CA2780E00C9465
:1024F000A50C60FD12C0616060932605613019F47F
:1025000083E0809326056091260586E090E00E9496
:10251000CA27809126058695EACF08950E946B12FE
:102520002FEF81EE94E0215080409040E1F700C011
:1025300000000C946B12F901A0919305B0919405E1
:102540002281211103C08A179B07E1F086E048022F
:10255000A0011124CD01841B950B6817790781F028
:1025600086E001900D928A95E1F780919305909114
:102570009405480F591F509394054093930508956F
:102580000C948E12089590E080E00E94C42721E010
:102590008D3E9E4F09F020E0822F0895CF92DF926A
:1025A000EF92FF926B017C010E94E808B701A6013F
:1025B00088E090E0FF90EF90DF90CF900C94DC27C4
:1025C0005F926F927F928F929F92AF92BF92CF92C3
:1025D000DF92EF92FF920F931F93CF93DF9300D080
:1025E0001F92CDB7DEB7182F762E042F622E909152
:1025F0005C0590FF29C0E92FE695AE2FB0E0A45E00
:10260000BE4F8C91809361059E7F923081F59E0133
:102610002F5F3F4F812F0E94F7084B8169818A818C
:102620000E94F91010935D0570925E0500935F059E
:10263000662051F060915C0570915D0580915E05AA
:1026400090915F050E94CE120F900F900F90DF9136
:10265000CF911F910F91FF90EF90DF90CF90BF909F
:10266000AF909F908F907F906F905F900895823091
:1026700019F400915F05D6CF863019F410915D05ED
:10268000D1CF8930D9F3893169F6E9518E2F817024
:10269000582EE695F0E0E455FE4FA590B490BB248B
:1026A0008AE7E82E81E0F82ED12CC12C9EE0892EFD
:1026B000912CC601B4010E944C27812F511013C0E8
:1026C000860F9701402F672D0E94F708CA0CDB1C6C
:1026D00083E0E80EF11C84EAE81681E0F80649F789
:1026E0000E947F0F9FCF861BECCFECE5F5E083E0E7
:1026F000808311828FEF8283838314826081718152
:10270000828193810C94CE126DEE7EEF90E080E09A
:102710000E94E82760E082E090E00E94CA2760E023
:1027200083E090E00E94CA2710921D0510921E05BA
:1027300010921F051092200560E084E090E00E9456
:10274000CA2760E085E090E00E94CA2760E086E04A
:1027500090E00E94CA276FEF87E090E00E94CA27AE
:1027600040E050E0BA0188E090E00E94DC2760E0A1
:102770008DE090E00E94CA2740E050E0BA0188E175
:1027800090E00E94DC2760E087E190E00E94CA2789
:1027900040E050E0BA018FE090E00E94DC2740E08A
:1027A00050E0BA0183E190E00C94DC270E94C31250
:1027B000811102C00E94841386E090E00E94B62737
:1027C00080932605883020F08170866080932605EE
:1027D0008091260580FF03C086950C94A50C80E0AF
:1027E000FCCF10921B0580911B01E6E5F1E08823E8
:1027F00059F08091310587FF07C08EE1DF011D92FE
:102800008A95E9F70C94E70786E0F8CF1F93CF93FA
:10281000DF93CDB7DEB7AA970FB6F894DEBF0FBE31
:10282000CDBFEBE8F5E08091F100819325E0E3393D
:10283000F207C9F780918C05833009F47CC008F554
:10284000813009F453C0823009F4BDC08091E800A2
:1028500083FFF7C080918B0590918C059A3008F02A
:10286000F0C0E92FF0E0E95CFB4E0C949627F414DD
:102870001A1521151A15211578159A152115A41662
:10288000B1168A3009F48EC08B3009F471C08930DA
:10289000E9F680918B058132C9F680918F05909180
:1028A0009005029798F68091E800877F8093E80072
:1028B0008091E80082FF3AC08091F3009091F2008D
:1028C000892798278927029729F48091F1008B7F27
:1028D000813021F48091F100809366058091E800B9
:1028E0008B778093E8000E94B803B0CF80918B056E
:1028F000813A09F0ABCF8091E800877F8093E800B0
:1029000080918F0590919005892B61F060E090E0B7
:1029100080E070E00E946A048091E8008B778093E9
:10292000E80094CF60E287E695E0F3CF80918905D7
:102930008111BECF8BCF80918B05813A09F086CF74
:1029400080918F0590919005892B09F07FCF809120
:10295000E800877F8093E8008091E80080FFFCCF4B
:1029600080911B018093F1008091E8008E77B9CFB0
:1029700080918B05813209F069CF80918F0590910C
:102980009005892B09F062CF8091E800877F8093C2
:10299000E8000E94B80380918D0580931B010E947E
:1029A000F11354CF80918B05813209F04FCF809184
:1029B000E800877F8093E8000E94B80380918E052D
:1029C0008093650543CF80918B05813A09F03ECF16
:1029D0008091E800877F8093E8008091E80080FF85
:1029E000FCCF80916505BECF803889F0823849F5EB
:1029F00080918F058F70873020F58093E90080915A
:102A0000EB0085FB882780F91092E90006C08091D1
:102A1000870590918805911182609091E800977FD9
:102A20009093E8008093F1001092F1008091E8000B
:102A30008E772DC0282F2D7F21F48823D1F082306E
:102A400059F18091E80083FF0AC08091E800877FF8
:102A50008093E8008091EB0080628093EB00AA965F
:102A60000FB6F894DEBF0FBECDBFDF91CF911F919F
:102A7000089580918D05813021F7933009F080E031
:102A8000809388051092E9008091E800877F809309
:102A9000E8000E94B803D5CF80918D058111F2CF57
:102AA00080918F058F702FEF280F263050F680937E
:102AB000E9002091EB0020FFE5CF933031F48091C5
:102AC000EB0080628093EB00DDCF9091EB00906192
:102AD0009093EB0021E030E001C0220F8A95EAF7E5
:102AE0002093EA001092EA008091EB008860EACF20
:102AF0008111A7CF10918D051F778091E300807819
:102B0000812B8093E3008091E800877F8093E80029
:102B10000E94B8038091E80080FFFCCF8091E30021
:102B200080688093E30083E0111101C082E080930C
:102B3000890587CF8058823008F083CF80918D053A
:102B400090918E058C3D23E09207A1F583E08A8366
:102B50008AE289834FB7F894DE01139620E03EE0C5
:102B600051E2E32FF0E050935700E49120FF03C0BF
:102B7000E295EF703F5FEF708E2F90E0EA30C0F08B
:102B8000C7968D939D932F5F243159F74FBF809146
:102B9000E800877F8093E8006AE270E0CE0101964A
:102BA0000E946A048091E8008B778093E80049CF07
:102BB000C096E7CF40918F0550919005292F33277C
:102BC0002330310509F444C078F52130310509F48A
:102BD00079C08BE390E0E7E6F5E02230310509F0BB
:102BE00030CF2091E800277F2093E80020919105C5
:102BF000309192058217930708F49C0140E021155B
:102C0000310509F06EC041116CC08091E80082FD71
:102C1000C9CF80918905882329F2853019F28091E6
:102C2000E80083FFF2CFBECF2132310509F43EC068
:102C30002232310509F005CF4115510509F44CC088
:102C400080EC90E0E7E6F4E04130510551F2F9CE36
:102C5000992781309105D1F070F082309105F1F023
:102C6000039709F0EECEE4EBF5E0E4918E2F90E0CF
:102C7000E4EBF5E007C0EAEEF5E0E4918E2F90E09A
:102C8000EAEEF5E0009709F4DCCEABCFEEECF5E030
:102C9000E4918E2F90E0EEECF5E0F4CFEAEBF5E076
:102CA000E4918E2F90E0EAEBF5E0ECCF4115510571
:102CB00071F089E090E0E2E9F5E04130510509F476
:102CC00090CFBFCE82E190E0E2EAF5E08ACF89E0E2
:102CD00090E0E9E7F5E085CF80E490E0E7E2F5E019
:102CE00080CF80918905882309F45CCF853009F471
:102CF00059CF8091E80083FD55CF8091E80082FD97
:102D000084CF8091E80080FF7ACF8091F30090918A
:102D1000F2008927982789272115310519F0883075
:102D2000910550F041E0089709F040E08091E800FB
:102D30008E778093E80063CF44914093F100319601
:102D4000215031090196E8CF803809F07ACE809180
:102D5000E800877F8093E80080918A058093F100E6
:102D600065CE81116ECE10918D05123008F069CEBE
:102D70008091E800877F8093E80010938A050E9485
:102D8000B803112371F084E08093890542E061EC7F
:102D900081E00E94D70342E261EC82E00E94D70307
:102DA00050CE8091E30087FDEECF81E0EDCF909192
:102DB0005C0590FF3DC09170811129C09260909395
:102DC0005C05662351F060915C0570915D05809112
:102DD0005E0590915F050E94CE1260915C0566953C
:102DE00070E04BE050E080E091E00E94FE27892BEC
:102DF000A9F01092620581E08093590520E040918E
:102E00005F0560915E0580915D050C94E01285324E
:102E100010F09864D4CF880F982BD1CF81E08093A5
:102E200062050E9477069093570580935605E3CF7D
:102E3000089561E00C94D71680915C0586958150C9
:102E400009F484E261E00C94D71680915C058695C4
:102E50008F5F853208F081E061E00C94D7168F9285
:102E60009F92AF92BF92CF92DF92EF92FF920F9319
:102E70001F93CF93DF9300D000D01F92CDB7DEB762
:102E80007C01FC011081C18083819481892B41F0F8
:102E9000FFEFCF1203C081E01F3F19F080E001C0B7
:102EA00081E0282F2170D22E80FDA1C085E0F7019E
:102EB000DE01119601900D928A95E1F7F7012281CA
:102EC00089819A81222309F45AC00E94270C082F75
:102ED000682F89819A810E946D07E12FF0E02EE032
:102EE000C29EE00DF11D112486E4089FE00DF11D46
:102EF0001124EE0FFF1FEF54FD4F059114918091A7
:102F0000AA048111BAC0F70182818111BAC6063FB5
:102F1000FCE51F0709F47DC0B0F5053F8CE51807F7
:102F200009F456C0003F8CE5180709F445C108F0C4
:102F300000C1083DECE51E0709F43AC1093DFCE576
:102F40001F0709F445C1073D2CE5120709F0FDC034
:102F500026E241EE61EEC7010F900F900F900F90A7
:102F60000F90DF91CF911F910F91FF90EF90DF9025
:102F7000CF90BF90AF909F908F900C940E0F0E94B7
:102F80004207082FAACF083F9CE5190709F44FC054
:102F9000093FECE51E0731F6A0900D01B0900E013F
:102FA000C0901405D0901505E0901605F090170517
:102FB0000E94F1130E94680804EA14E0A016B1060A
:102FC00009F44AC0C8010E942F1706501109F6CF14
:102FD0000E948E120E94F1130E9468088AEA91E012
:102FE000909394058093930581E08093AA040F90B9
:102FF0000F900F900F900F90DF91CF911F910F9135
:10300000FF90EF90DF90CF90BF90AF909F908F9008
:1030100008950E948E120E94F1130E94680884EAAB
:1030200094E0909394058093930582E0DECFA09086
:103030000F01B0901001C0901405D0901505E090DC
:103040001605F09017050E94F1130E9468080AEA1D
:1030500011E0A016B10659F40E94F113C0921405B4
:10306000D0921505E0921605F0921705C0CFC80161
:103070000E942F170A5F1F4FECCF073FFCE51F0789
:10308000A9F028F00A3F9CE5190708F4B0CF813079
:1030900009F444C0823009F045CF60910F0170916E
:1030A000100197014FEF84EA94E040C0F70192814C
:1030B000992309F49CCF813029F08230C9F0109215
:1030C000AA0495CF00919305109194050E948E1249
:1030D000F1E00A3A1F0729F0F80136978281811141
:1030E00005C01093100100930F01E9CF8F01F0CFBD
:1030F00000919305109194050E948E1224E0043AE9
:10310000120729F0F80136968281811105C01093CB
:103110000E0100930D01D3CF8F01F0CF60910D010F
:1031200070910E01970141E08AEA91E00E949B12A2
:10313000F9CE023F8CE5180709F446C008F440C0F8
:10314000033FECE51E0709F4BEC5F7018281882321
:1031500009F4BDC51092AB040A3CFCE51F0709F455
:1031600086C108F0AAC0033C8CE5180709F435C1F4
:1031700008F068C00531ECE51E0768F50230FCE593
:103180001F0708F0C7C101152CE5120709F4E5C0B7
:1031900001301C4509F4EEC0F70100811181C8011E
:1031A0000E94270CC82E682FC8010E946D07B4C565
:1031B00027E245EE65EECFCE26E241EE60EECBCEC5
:1031C00027E245EE64EEC7CE26E241EE62EEC3CEC4
:1031D00028E241E0EFCF06319CE5190709F42DC242
:1031E000023C1C45C9F680915C0580FFDFC08E7FE4
:1031F00080935C0560915C0570915D0580915E0532
:1032000090915F050E94CE1210926205EFEFF0E7F9
:1032100022E0E150F0402040E1F700C000000F90B4
:103220000F900F900F900F90DF91CF911F910F9102
:10323000FF90EF90DF90CF90BF90AF909F908F90D6
:103240000C947F0F063CFCE51F0709F4F4C020F541
:10325000043C8CE5180709F4D7C0053C1C4509F06F
:103260009BCF80915D0521E040915F0560915E05F7
:10327000885F0F900F900F900F900F90DF91CF917C
:103280001F910F91FF90EF90DF90CF90BF90AF9084
:103290009F908F900C94E012083CECE51E0709F417
:1032A000DFC008F4D1C040915F0528E0420F08F468
:1032B0004FEF21E060915E05D0C0013D2CE5120783
:1032C00009F410C128F50D3C9CE5190709F4F8C074
:1032D00080F40B3CFCE51F0709F4D0C00C3C1C45F6
:1032E00009F05ACF80916005882309F4CEC081503F
:1032F000CAC00F3C8CE5180709F4ECC008F4E2C022
:103300000E94E0088950853008F482C089E052C0EC
:10331000053DECE51E0709F4F7C078F4033D2CE504
:10332000120709F4EFC008F4E5C00E94E0088951D3
:10333000893008F46DC089E13DC00D3D9CE5190759
:1033400009F4E4C00E3DECE51E07E9F00C3D1C4518
:1033500009F022CF109263054ACE0E94F1132FEF9D
:1033600084E39CE0215080409040E1F700C00000E1
:103370000E94DE0D90914B05892F8E7F90FF81601A
:1033800080934B0534CE0F900F900F900F900F90BD
:10339000DF91CF911F910F91FF90EF90DF90CF9031
:1033A000BF90AF909F908F900C9484138160809316
:1033B0005C0586950F900F900F900F900F90DF9106
:1033C000CF911F910F91FF90EF90DF90CF90BF9022
:1033D000AF909F908F900C94191780911B0582726B
:1033E000B9F00F900F900F900F900F90DF91CF9149
:1033F0001F910F91FF90EF90DF90CF90BF90AF9013
:103400009F908F900C941C1780911B05827249F33A
:103410000F900F900F900F900F90DF91CF911F9111
:103420000F91FF90EF90DF90CF90BF90AF909F9063
:103430008F900C94251780915D0521E040915F05E8
:1034400060915E05885015CF60915E0528E0620F9F
:1034500008F46FEF21E040915F0580915D0509CF91
:1034600060915E0528E0621B08F460E0F3CF4091B4
:103470005F0528E0421B08F440E01BCF8091600507
:10348000833018F48F5F8093600560915C057091C4
:103490005D0580915E0590915F050F900F900F90F4
:1034A0000F900F90DF91CF911F910F91FF90EF90B0
:1034B000DF90CF90BF90AF909F908F900C94CE12E2
:1034C00081E078CF0E94E0088250833008F4A0CFDA
:1034D00082E070CF0E94E0088650823008F498CFD6
:1034E00086E068CF0E94E0088F50853008F490CFC6
:1034F0008FE060CF0E94E0088551823008F488CFC9
:1035000085E158CF88E156CF83E254CF82E08093A3
:1035100063056DCD0E94C312811102C00E94841305
:1035200084E090E00E94B62790E09093320580936B
:103530003105F801E350FC45809131058160E231AD
:10354000F105C8F4EA55F54E0C949627B81AD61A28
:10355000DA1ADE1AE21AE61AEA1AEE1AF21AF61A5B
:10356000FA1AFE1A021B061B0A1B0E1B121B161B45
:10357000809131058260809331056091310584E04E
:1035800090E00E94CA270F900F900F900F900F901D
:10359000DF91CF911F910F91FF90EF90DF90CF902F
:1035A000BF90AF909F908F900C94F1138091310554
:1035B0008460E1CF809131058860DDCF8091310555
:1035C0008061D9CF809131058062D5CF809131055E
:1035D0008064D1CF809131058068CDCF8091310555
:1035E0008460EACF809131058E7FC5CF809131050F
:1035F0008D7FC1CF809131058B7FBDCF809131050B
:10360000877FB9CF809131058F7EB5CF809131050D
:103610008F7DB1CF809131058F7BADCF809131050A
:103620008F77A9CF809131058B7FEACF90913105BB
:10363000892F97FB87F980589ECF80911B058A7A46
:1036400091E009F490E09093AC048823B1F085E315
:103650000E940E070F900F900F900F900F90DF9128
:10366000CF911F910F91FF90EF90DF90CF90BF907F
:10367000AF909F908F900C949F0689E2E9CF809144
:10368000AC04882321F085E30E94E406E3CF89E2BD
:10369000FBCFF12FFF70CF2E107F19F0C29490EF67
:1036A000C922802FBB20C9F0CC2069F090E2900F96
:1036B000983010F001110BC080911B05C82AC092F0
:1036C0001B050E949F06802F0E94020E17C080914A
:1036D0001A05C82AC0921A05F4CF0E948308CC208C
:1036E00069F0C094005E083010F0911030C08091F5
:1036F0001B05C822C0921B050E949F06DD2009F40D
:1037000076CC8091180580FD72CCF70112828595E8
:10371000859585950E944708C7010E942F178091C3
:1037200018058595859585950F900F900F900F90B2
:103730000F90DF91CF911F910F91FF90EF90DF904D
:10374000CF90BF90AF909F908F900C940C08809179
:103750001A05C822C0921A05CFCF212F2F70C22E72
:10376000107F103219F0C29480EFC822992071F0B6
:1037700081E0981661F1BB20B9F1AA2071F1F7013F
:10378000858180FFA0CF8F70858327C0BB2091F0FB
:1037900090911C058C2D892BA11003C00E94B107AC
:1037A000ADCFE1E0AE12FACF981709F4A7CF80931E
:1037B0001C05A4CFA11006C00E9499068C2D0E9462
:1037C000A6079CCFF1E0AF1609F498CFF5CFBB2048
:1037D00031F025E02A1508F491CF8C2DDFCF84E05D
:1037E0008A1508F48BCFEACFAA2041F3802F0E94DC
:1037F000830884CF812F86958695837079F08130F8
:10380000B1F0E8E0CE1609F4A8C0CE1608F476CFE1
:1038100086EF8C0D823008F4A0C070CFC801937081
:10382000B11002C090E080E00E94D10767CFC801CC
:103830009370B11002C090E080E00E94BB075ECFA1
:10384000BB2009F1053F99F0063FB9F0043F49F468
:103850008091AD049091AE0481609093AE0480930A
:10386000AD04802F0E949F050E94830647CF809160
:10387000AD049091AE048260F0CF8091AD04909140
:10388000AE048460EACF053F89F0063FA9F0043F0B
:1038900049F48091AD049091AE048E7F9093AE0474
:1038A0008093AD04802F0E94D904DECF8091AD04B7
:1038B0009091AE048D7FF2CF8091AD049091AE04D3
:1038C0008B7FECCF812F837009F068C0B11045C0A9
:1038D000802F829586958770880F880F602F6F7074
:1038E000862E912CB12CA12C082E04C0880C991C7A
:1038F000AA1CBB1C0A94D2F740E050E0BA0104FFB6
:103900000FC04FE050E060E070E004C0440F551F6E
:10391000661F771F8A95D2F74095509560957095F0
:10392000812F869586958370823029F1E8F4009185
:103930001D0510911E0520911F0530912005813035
:1039400079F0482959296A297B29CB01BA016023DA
:103950007123822393230E946D080E947708CECEA4
:10396000802A912AA22AB32ACB01BA01682979298F
:103970008A299B29F0CF482959296A297B29009156
:103980001D0510911E0520911F0530912005CB01CA
:10399000BA016027712782279327DDCF8695BB2048
:1039A00011F0812F81708823C1F2802F8295869536
:1039B0008770880F880F602F6F70862E912CB12C26
:1039C000A12C082E04C0880C991CAA1CBB1C0A94AC
:1039D000D2F740E050E0BA0104FF0FC04FE050E0E2
:1039E00060E070E004C0440F551F661F771F8A9582
:1039F000D2F74095509560957095812F8695869564
:103A00008370823019F1D8F40091140510911505D6
:103A10002091160530911705813069F04829592900
:103A20006A297B29CB01BA01602371238223932366
:103A30000E94020892CF802A912AA22AB32ACB019F
:103A4000BA01682979298A299B29F2CF482959295D
:103A50006A297B29009114051091150520911605FE
:103A600030911705CB01BA01602771278227932770
:103A7000DFCF802FE0E2E00FE53108F08BC0F0E00F
:103A8000EC5BF24E0C949627591D591D591D591D7A
:103A9000591D591D591D591D591D591D591D591D76
:103AA000591D591D591D591D6A1D901D971D9E1D9B
:103AB000B01D0F70812F8F71BB2031F00E9447081D
:103AC000802F0E94B1079DCE0E940C08802F0E947B
:103AD000A60797CEBB20F9F0F4E0FA1508F491CED2
:103AE0001F7161E070E080E090E004C0660F771F16
:103AF000881F991F1A95D2F700911405109115058A
:103B0000209116053091170560277127822793278A
:103B10000E94020876CE25E02A1508F472CEE0CF86
:103B2000812F8F71BB2039F00E9447086ACE812F08
:103B30008F71BB20C9F30E940C0863CEBB2069F0D3
:103B40001F7161E070E080E090E004C0660F771FB5
:103B5000881F991F1A95D2F7DBCF0E94680851CEB3
:103B6000BB2069F01F71812F0E944708E8E01E9F6B
:103B7000C0011124836080931805812FD5CF81E087
:103B80000E942F08F1E0FA1508F03BCE82E00E9477
:103B90002F0837CEBB2041F0AA2019F00E94020E58
:103BA00030CE812F8F71C0CFAA2079F0093349F42C
:103BB0002FEF83EC99E0215080409040E1F700C066
:103BC0000000802F0E9483081CCE812F8F71B3CFFD
:103BD000B11094CD1F701230E1F1B0F41123F1F067
:103BE000113009F00ECE80912605982F9E7F59F155
:103BF0008250809326058E7F91E009F490E06091D9
:103C0000260590FB60F919C01430C9F128F180E055
:103C1000153009F0F6CD0E94501270CD8091260526
:103C2000982F9695933030F49F5F990F8170892B70
:103C3000809326056091260561606093260586E0E5
:103C400090E00E94CA278091260586950E94A50CC7
:103C500055CD0E946B1252CD90912605892F8695E5
:103C60008F5F8F779170843038F4880F892B809321
:103C7000260580912605BFCF90932605FACF83E0D5
:103C8000CACF003FFCE51F0709F496CA80F4083D3F
:103C90008CE5180709F48CCA093D9CE5190709F45D
:103CA00097CA073DECE51E0709F054CA51C9023F07
:103CB000FCE51F0709F488CA08F482CA033F8CE5B3
:103CC000180709F047CA27E245EE66EE44C90B3CE7
:103CD000FCE51F0709F48BC908F076C0043C8CE5AD
:103CE000180709F484C908F05EC00631ECE51E0728
:103CF00009F4C5CC08F04DC001152CE5120709F4F4
:103D000076C901301C4509F472C9F701008111819F
:103D1000C8010E944207C82EB8018C2D0E94BB0921
:103D20008C01982EF701A580A2943FE0A322B280D7
:103D3000B11010921A0580911805877081F0BB2090
:103D400069F080E2800F883050F082E00E942F08F6
:103D5000809118058770DD24D3948111D12CC12E58
:103D6000C2942FE0C222EC2DF0E0E754F14E0C9407
:103D70009627491B491BAD1BAD1BFA1B201C011CC0
:103D8000011C621C011C391D391D7E1BE81D011C14
:103D90007E1B023C9CE5190709F429C9033C1C451C
:103DA00009F425C9B2CF073CFCE51F0709F41FC978
:103DB00008F01DC9053C8CE5180709F418C9063C34
:103DC0001C4509F414C9A1CF023DECE51E0709F416
:103DD0000EC988F40E3C2CE5120709F408C908F056
:103DE00006C90C3C9CE5190709F401C90D3C1C45AA
:103DF00009F4FDC88ACF053DFCE51F0709F4F7C8A3
:103E000050F4033D8CE5180709F4F1C8043D1C4546
:103E100009F4EDC87ACF0D3DECE51E0709F4E7C8BB
:103E20000E3DFCE51F0709F4E2C80C3D1C4509F0F6
:103E30006CCFDDC81F93CF93DF938091B404807F54
:103E4000D1F48091B1048823B1F08091E604D0913F
:103E5000B504B091AF04C091B0044091B204509148
:103E6000B304A1E0BF3F09F0A0E0BA0160957095EE
:103E700016E0D81304C0DF91CF911F91089521E07F
:103E80004115510521F02A2FCF3F09F020E090E0A5
:103E900020FD38C0189FF001199FF00D1124EA543D
:103EA000FB4F21812C132EC020812B132BC022818C
:103EB000211128C0238134812417350700F1241BE8
:103EC000350B283C3105F0F42091B4042F702061AB
:103ED0002093B40426E0289FF001299FF00D1124BF
:103EE000E554FB4F80818F70806180838FEA94E07E
:103EF0000E942F17DF91CF911F910C949C07260FE2
:103F0000371FDFCF01968770B4CFAF92BF92CF92A9
:103F1000DF92EF92FF920F931F93CF93DF93CDB772
:103F2000DEB761970FB6F894DEBF0FBECDBF8C0130
:103F300085E0F801DE011D9601900D928A95E1F76A
:103F4000D8013C9111962C9111971296EC905091BA
:103F5000AF046091B0048091B2049091B30441E049
:103F6000009731F06F3F19F441E05F3F09F040E006
:103F7000B42FB170BB2E40FD5EC1F801C380D48068
:103F8000A090B104AA2009F40EC1C816D906C0F148
:103F9000D601A81BB90BCD01FF24F394883C9105F1
:103FA00008F0F12C8091B404982F907FFF2009F441
:103FB000BCC0911185C0FE2C621327C0531325C0CD
:103FC000E11023C08F7080618093B4048FEA94E085
:103FD0000E942F178091B404F80185838F2D61967C
:103FE0000FB6F894DEBF0FBECDBFDF91CF911F910A
:103FF0000F91FF90EF90DF90CF90BF90AF9008951A
:10400000809590958C0D9D1DC7CF81E0CD2831F016
:104010002F3F19F481E03F3F09F080E080FD24C08C
:1040200081E08E25F82FF170DF2E80FF3FC0809158
:10403000E6044091B50456E0841318C03D872E87EE
:104040008D859E850E94690C292F22952F70223024
:1040500008F1243030F59F7009F1D80115969C9134
:10406000907FE1F4FB2CBACF80E0DCCF90E0589F4A
:10407000F001599FF00D1124EA54FB4F6181261382
:1040800006C06081361303C06281E6120FC001963C
:104090008770D2CF9F7011F0882321F3805E883023
:1040A00008F3C8010E942F17BD2CDCCFEE2009F4C5
:1040B00095CF8091B40481608093B404F12C8ECFAD
:1040C000621306C0531304C0F801EE2009F495C032
:1040D0003D872E878D859E850E94730C882309F16C
:1040E000EE20F9F08091B404803270F02091AF049A
:1040F0003091B00438872F831986DB86CA868C8777
:10410000CE0107960E942F1786E0F801AFEAB4E0CF
:1041100001900D928A95E1F70E941A1FFF24F394F3
:104120005DCFC8010E942F17F9CF91110CC08FEA03
:1041300094E00E942F1786E0EFEAF4E0DF011D9281
:104140008A95E9F74BCF621312C0531310C0E110E8
:104150000EC0F8018583C8010E942F17EFEAF4E032
:1041600086E0DF011D928A95E9F7FA2C37CF3D876B
:104170002E878D859E850E94730C882391F2EE20F8
:1041800081F28091B404803208F4BECF2091AF0454
:104190003091B0043A8329831B82DD82CC828E83E6
:1041A000CE010196AFCFC816D90640F0C81AD90A79
:1041B000B8ECCB16D10448F0F12CBDCF809590958A
:1041C0008C0D9D1D883C9105B8F7FE2CEE2009F45E
:1041D000A8CF62131FC053131DC08091B40480FD8B
:1041E00010C0982F907F69F0F8018583903F31F0DF
:1041F000982F907F905F8F70892B8583C8010E94D4
:104200002F1786E0F801AFEAB4E001900D928A958D
:10421000E1F7E4CE3D872E878D859E850E94730C45
:10422000811172CF8091B40481608093B404C8017D
:104230000E942F17D3CEEE2009F473CF3D872E872F
:104240008D859E850E94730CF82E882309F469CF12
:1042500086E0F801AFEAB4E001900D928A95E1F7AB
:104260008091AF049091B0040E94690C0E941A1FC3
:10427000B5CE1F93CF93DF93CDB7DEB767970FB659
:10428000F894DEBF0FBECDBF4B8B5C8B6D8B7E8BEE
:104290008F8B1A8A198A85E0FE017396DE011D96BE
:1042A00001900D928A95E1F786E0FE013D96DE01D0
:1042B000179601900D928A95E1F7CE0107960E941C
:1042C000851F811137C086E0FE013796DE01119609
:1042D00001900D928A95E1F79F8188852A853B851B
:1042E000232B39F08F3F19F481E09F3F19F080E0D4
:1042F00001C081E080FD1EC02091B50430E0C901FD
:104300000196877099274091E6044817190659F1DC
:1043100096E0929FD001939FB00D1124AA54BB4FF9
:10432000FE01319601900D929A95E1F78093B504C4
:104330000E949C0716E08091E6049091B5048917CD
:10434000F9F0819FC00111248A549B4F0E94851F60
:104350008823B1F08091E60490E001968770992758
:104360008093E604E8CF0E94F1131092B5041092F6
:10437000E60486E0EFEAF4E0DF011D928A95E9F7B2
:1043800067960FB6F894DEBF0FBECDBFDF91CF9119
:104390001F9108951F920F920FB60F9211242F9321
:1043A0003F934F935F936F937F938F939F93AF93BD
:1043B000BF93CF93EF93FF93C091E900CF708091AB
:1043C000EC001092E9008091F000877F8093F0006C
:1043D00078940E9406141092E9008091F0008860A1
:1043E0008093F000C093E900FF91EF91CF91BF91CE
:1043F000AF919F918F917F916F915F914F913F917D
:104400002F910F900FBE0F901F9018951F920F9233
:104410000FB60F9211242F933F934F935F936F9397
:104420007F938F939F93AF93BF93EF93FF9380916D
:10443000E10082FF09C08091E20082FF05C0809107
:10444000E1008B7F8093E1008091DA0080FF24C03F
:104450008091D80080FF20C08091DA008E7F809309
:10446000DA008091D90080FF9FC080E189BD82E1A0
:1044700089BD09B400FEFDCF81E08093890580915C
:104480006405811109C00E9440030E9409048091C3
:10449000E20084608093E2008091E10080FF17C019
:1044A0008091E20080FF13C08091E2008E7F8093B4
:1044B000E2008091E20080618093E2008091D80068
:1044C00080628093D80019BC85E080938905809133
:1044D000E10084FF2DC08091E20084FF29C080E1CB
:1044E00089BD82E189BD09B400FEFDCF8091D8006D
:1044F0008F7D8093D8008091E1008F7E8093E100D2
:104500008091E2008F7E8093E2008091E2008160E2
:104510008093E20080918A05882309F44BC084E0EF
:10452000809389050E94F1130E94D6130E94770898
:104530008091E10083FF27C08091E20083FF23C0C8
:104540008091E100877F8093E10082E0809389057C
:1045500010928A058091E1008E7F8093E100809126
:10456000E2008E7F8093E2008091E2008061809380
:10457000E20042E060E080E00E94D7038091F0001A
:1045800088608093F000FF91EF91BF91AF919F9170
:104590008F917F916F915F914F913F912F910F90EC
:1045A0000FBE0F901F90189519BC1092890510929C
:1045B000640572CF8091E30087FD02C081E0B0CF37
:1045C00083E0AECFCF93DF93CDB7DEB72A970FB698
:1045D000F894DEBF0FBECDBF84B7877F84BF0FB610
:1045E000F894A89580916000886180936000109293
:1045F00060000FBE80E8809361001092610085B773
:10460000806885BF85B7806885BF0E9440030E948F
:1046100009048091E20084608093E20078948091A4
:104620008905882399F01091E9001F708091EC00B2
:1046300080FF90C080E8182B1092E9008091E8007C
:1046400083FD0E9406141F701093E90082E084BD70
:1046500093E095BD9AEF97BD80936E00A1E4B1E021
:1046600041E050E09D91E92FE295EF70F0E021A14B
:104670009F70BA0102C0660F771F9A95E2F7CB01CF
:104680008095822381A371E0A634B70759F7A6E489
:10469000B1E044E551E061E070E08D91E82FE295F2
:1046A000EF70F0E011A18F709B0101C0220F8A957D
:1046B000EAF7922F9095912391A382A1822B82A356
:1046C0004A175B0751F710922805109227051092A0
:1046D00038051092370510922A051092290510927C
:1046E0003A051092390510922C0510922B05109264
:1046F0003C0510923B0510922E0510922D0510924C
:104700003E0510923D051092300510922F05109233
:10471000400510923F050E94C312811102C00E9401
:104720008413279A2F988AE08093800089E18093F0
:1047300081008FEF9FEF90938700809386000E9407
:10474000D613269A0E94C312811102C00E948413BC
:1047500015E60AC080E06FCF0E9487118FE39CE9C5
:104760000197F1F700C000001150B1F789E20E94F3
:104770003F068111D6C08AE20E943F0681110E9445
:10478000841385E00E943F0681110E94DE0D82E0C5
:1047900090E00E94B62780934B0587E00E943F0679
:1047A000882371F08BE10E943F06882309F4BFC182
:1047B00090914B05892F8D7F91FF826080934B05EF
:1047C00060914B0582E090E00E94CA2784E090E06F
:1047D0000E94B62790E0909332058093310580EED9
:1047E0000E943F06882341F090913105892F8E7FEA
:1047F00090FF81608093310589E30E943F06882302
:1048000041F090913105892F8D7F91FF82608093D7
:10481000310582EE0E943F06882341F090913105D8
:10482000892F8B7F92FF84608093310586EE0E94F2
:104830003F06882341F090913105892F877F93FFB0
:1048400088608093310583EE0E943F06882341F003
:1048500090913105892F8F7E94FF8061809331057F
:1048600085E30E943F06882341F090913105892F0E
:104870008F7D95FF80628093310581E30E943F0622
:10488000882341F090913105892F8F7B96FF8064BA
:104890008093310581E10E943F06882341F0909189
:1048A0003105892F97FB87F98058809331056091F6
:1048B000310584E090E00E94CA2787E20E943F060B
:1048C000182F8EE10E943F06811112608FE10E9435
:1048D0003F068111146080E20E943F06811118603A
:1048E00081E20E943F068111106182E20E943F0630
:1048F0008111106283E20E943F068111106484E2FC
:104900000E943F06882309F42FC11068612F83E0BD
:1049100090E00E94CA27612F70E090E080E00E9442
:104920006D080E94D61380913305811138C08091A3
:104930004B05816080934B050E94C312811104C016
:104940000E9484130E94751388E090E00E94BE27A5
:1049500060935C0570935D0580935E0590935F05A1
:104960006E7F71F40E94751388E090E00E94BE276C
:1049700060935C0570935D0580935E0590935F0581
:104980000E94E8081092620580915C0580FF04C0D7
:1049900060E086950E94D71681E08093330581E11F
:1049A00091E09093350580933405AA24A394B12C0B
:1049B000B5E5CB2EB4E0DB2E80918905853009F476
:1049C000DBC00E948711E7E3F5E0ACE4B5E010E05E
:1049D00000E0902E219131914D915D914217530746
:1049E00009F40DC190E080E0422753277501082E9D
:1049F00002C0EE0CFF1C0A94E2F7BA016E217F217F
:104A0000672B09F4F7C089839A822E213F2181E028
:104A1000232B09F480E08B830E9477068160782F36
:104A20009D838C8349815A816B818D810E943921BC
:104A3000000F111FF801E45BFA4F80819181E82695
:104A4000F926F182E08280914805909149050E9403
:104A50004D06AC019091470522E330E0911102C070
:104A60002CE231E04217530780F080914305F0902B
:104A7000440500914505109146058111D7C0F110FC
:104A8000A8C10111A6C11111A4C10E94770890917B
:104A90004A05891721F00E94770880934A05809182
:104AA0006205882309F488CF80916105E0915C0557
:104AB000E695E81BE0935805823009F01BC1F0E051
:104AC000ED59FB4FE4910E2F10E0E3E6EE2EE1E10D
:104AD000FE2E80915905882389F0109259050E9475
:104AE0007706980120953095820F931F9093570574
:104AF0008093560510925B0510925A0580915605D9
:104B0000909157050E944D068017910708F454CFE5
:104B1000E0915605F09157050E0F1F1F1093570592
:104B20000093560586E595E0F701099545CF8EE09F
:104B30000E943F06882339F090914B05892F8B7F87
:104B400092FF84603BCE80E10E943F0690914B052E
:104B5000882329F0892F877F93FF88602FCE892FA4
:104B60008E7F90FF81602ACE1111D0CE83E090E03D
:104B70000E94B627682FD0CE80918905843039F104
:104B80001092360588E190E020E40FB6F894A895DD
:104B9000809360000FBE2093600080E00E94A50C0F
:104BA00083B7817F846083BF83B7816083BF78943C
:104BB000889583B78E7F83BF0FB6F894A8958091B0
:104BC0006000886180936000109260000FBE809149
:104BD0008805882309F4F0CE0E948711E7E3F5E009
:104BE00081919191892B09F0DEC095E0E134F907BC
:104BF000B9F7E2CE01968E30910509F0F7CE0F5F3E
:104C00001F4F0530110509F0E4CE8FEF8E838F839F
:104C100018860E9477068160782F9A8789874E814F
:104C20005F8168858A850E9439210DCF9F3F19F0E9
:104C30009F5F90934705181624F40E947F05809388
:104C400043058091430587FF05C00E947F0581953C
:104C5000809343051F1424F40E947F05809344052C
:104C60008091440587FF05C00E947F058195809350
:104C70004405309143053323A1F0209144052223BC
:104C800081F045EB3403C0011124992359F190932D
:104C9000430565EB260390011124332339F130934A
:104CA0004405101624F40E945D058093450580910B
:104CB000450587FF05C00E945D05819580934505E8
:104CC000111624F40E945D058093460580914605E7
:104CD00087FF05C00E945D058195809346050E946F
:104CE0008306D3CE81E080934305D3CF81E08093C8
:104CF0004405D7CF863059F4F0E0E05AFB4FE491F9
:104D00000E2F10E077E7E72E71E1F72EE2CE893023
:104D100061F4E695F0E0E35AFB4FE4910E2F10E0CA
:104D20006CEEE62E6FE0F62ED4CE8F3061F4E69571
:104D3000F0E0E65AFB4FE4910E2F10E056E1E52E2D
:104D400050E1F52EC6CE853159F4F0E0E95AFB4F1B
:104D5000E4910E2F10E047E7E42E40E1F42EB9CEA7
:104D600008EE13E095ECE92E90E1F92E883109F474
:104D7000B0CE833241F4F601059114913AE0E32E6E
:104D800031E1F32EA6CE00ED17E025EDE22E24E072
:104D9000F22E843209F09DCE04EF11E083EBE82E71
:104DA0008FE0F82E96CE80E189BD82E189BD09B4FD
:104DB00000FEFDCF8091D8008F7D8093D800809138
:104DC000E00082608093E0008091E00081FDFCCFF4
:104DD000F3CD9F3F09F02CCF3DCF78941F920F92D7
:104DE0000FB60F9211248F939F93AF93BF9380912F
:104DF000210590912205A0912305B09124050196EB
:104E0000A11DB11D8093210590932205A093230538
:104E1000B0932405BF91AF919F918F910F900FBEDA
:104E20000F901F9018951F920F920FB60F9211249A
:104E30008F939F93AF93BF9380913605811113C0D9
:104E40008091210590912205A0912305B091240520
:104E50004196A11DB11D8093210590932205A09339
:104E60002305B0932405BF91AF919F918F910F902F
:104E70000FBE0F901F901895DB018F939F930E9498
:104E8000AB27BF91AF91A29F800D911DA39F900D65
:104E9000B29F900D11240895AA1BBB1B51E107C0BE
:104EA000AA1FBB1FA617B70710F0A61BB70B881FBA
:104EB000991F5A95A9F780959095BC01CD01089549
:104EC00097FB072E16F4009407D077FD09D00E94B7
:104ED0004C2707FC05D03EF4909581959F4F08958F
:104EE000709561957F4F0895A1E21A2EAA1BBB1BF6
:104EF000FD010DC0AA1FBB1FEE1FFF1FA217B307A6
:104F0000E407F50720F0A21BB30BE40BF50B661FBB
:104F1000771F881F991F1A9469F76095709580957F
:104F200090959B01AC01BD01CF010895EE0FFF1FCD
:104F30000590F491E02D0994A29FB001B39FC001A8
:104F4000A39F700D811D1124911DB29F700D811DB5
:104F50001124911D08950E949C27A59F900DB49F38
:104F6000900DA49F800D911D11240895F999FECFF5
:104F700092BD81BDF89A992780B50895A6E1B0E069
:104F800044E050E00C94F027A8E1B0E042E050E0AB
:104F90000C94F027262FF999FECF92BD81BDF89A87
:104FA000019700B4021639F01FBA20BD0FB6F8946D
:104FB000FA9AF99A0FBE08950396272F0E94CB27DD
:104FC0000E94CA27252F0E94CB27242F0C94CB2781
:104FD0000196272F0E94CB270C94CA27DC01CB0116
:104FE000FC01F999FECF06C0F2BDE1BDF89A3196F9
:104FF00000B40D9241505040B8F70895FC01415063
:10500000504030F001900616D1F73197CF01089546
:0A501000882799270895F894FFCF30
:10501A0001191A1B1C1D1E1F2021220102A404AA09
:10502A0001D604980D6D0D370DFC0C01000102022A
:10503A0002020606060909090909090F0F0F0F0FCF
:10504A000F151515181919191919191919191923D3
:10505A00243332313094F6F5F4F1C6909192939557
:04506A0096973435AC
:00000001FF
